{
	"prog2005-2025/lab02/gitlab-fund/contracts/FundManager.sol": {
		"FundManager": {
			"abi": [
				{
					"anonymous": false,
					"inputs": [
						{
							"indexed": true,
							"internalType": "uint256",
							"name": "issueId",
							"type": "uint256"
						},
						{
							"indexed": false,
							"internalType": "uint256",
							"name": "amount",
							"type": "uint256"
						}
					],
					"name": "BountyAllocated",
					"type": "event"
				},
				{
					"anonymous": false,
					"inputs": [
						{
							"indexed": true,
							"internalType": "uint256",
							"name": "issueId",
							"type": "uint256"
						}
					],
					"name": "BountyCancelled",
					"type": "event"
				},
				{
					"anonymous": false,
					"inputs": [
						{
							"indexed": true,
							"internalType": "address",
							"name": "funder",
							"type": "address"
						},
						{
							"indexed": false,
							"internalType": "uint256",
							"name": "amount",
							"type": "uint256"
						}
					],
					"name": "FundsDeposited",
					"type": "event"
				},
				{
					"anonymous": false,
					"inputs": [
						{
							"indexed": true,
							"internalType": "uint256",
							"name": "fromIssue",
							"type": "uint256"
						},
						{
							"indexed": true,
							"internalType": "uint256",
							"name": "toIssue",
							"type": "uint256"
						},
						{
							"indexed": false,
							"internalType": "uint256",
							"name": "amount",
							"type": "uint256"
						}
					],
					"name": "FundsReallocated",
					"type": "event"
				},
				{
					"inputs": [],
					"name": "MAX_BOUNTY_DURATION",
					"outputs": [
						{
							"internalType": "uint256",
							"name": "",
							"type": "uint256"
						}
					],
					"stateMutability": "view",
					"type": "function"
				},
				{
					"inputs": [],
					"name": "MIN_DEPOSIT",
					"outputs": [
						{
							"internalType": "uint256",
							"name": "",
							"type": "uint256"
						}
					],
					"stateMutability": "view",
					"type": "function"
				},
				{
					"inputs": [
						{
							"internalType": "uint256",
							"name": "issueId",
							"type": "uint256"
						},
						{
							"internalType": "uint256",
							"name": "amount",
							"type": "uint256"
						}
					],
					"name": "allocateBounty",
					"outputs": [],
					"stateMutability": "nonpayable",
					"type": "function"
				},
				{
					"inputs": [
						{
							"internalType": "uint256",
							"name": "",
							"type": "uint256"
						}
					],
					"name": "bountyInfo",
					"outputs": [
						{
							"internalType": "uint256",
							"name": "amount",
							"type": "uint256"
						},
						{
							"internalType": "address",
							"name": "funder",
							"type": "address"
						},
						{
							"internalType": "uint256",
							"name": "createdAt",
							"type": "uint256"
						},
						{
							"internalType": "bool",
							"name": "active",
							"type": "bool"
						}
					],
					"stateMutability": "view",
					"type": "function"
				},
				{
					"inputs": [
						{
							"internalType": "uint256",
							"name": "issueId",
							"type": "uint256"
						}
					],
					"name": "cancelBounty",
					"outputs": [],
					"stateMutability": "nonpayable",
					"type": "function"
				},
				{
					"inputs": [],
					"name": "depositFunds",
					"outputs": [],
					"stateMutability": "payable",
					"type": "function"
				},
				{
					"inputs": [
						{
							"internalType": "address",
							"name": "",
							"type": "address"
						}
					],
					"name": "funderInfo",
					"outputs": [
						{
							"internalType": "uint256",
							"name": "totalDeposited",
							"type": "uint256"
						},
						{
							"internalType": "uint256",
							"name": "currentBalance",
							"type": "uint256"
						},
						{
							"internalType": "uint256",
							"name": "totalAllocated",
							"type": "uint256"
						},
						{
							"internalType": "uint256",
							"name": "activeBounties",
							"type": "uint256"
						}
					],
					"stateMutability": "view",
					"type": "function"
				},
				{
					"inputs": [
						{
							"internalType": "uint256",
							"name": "issueId",
							"type": "uint256"
						}
					],
					"name": "getBountyDetails",
					"outputs": [
						{
							"internalType": "uint256",
							"name": "amount",
							"type": "uint256"
						},
						{
							"internalType": "address",
							"name": "funder",
							"type": "address"
						},
						{
							"internalType": "uint256",
							"name": "createdAt",
							"type": "uint256"
						},
						{
							"internalType": "bool",
							"name": "active",
							"type": "bool"
						}
					],
					"stateMutability": "view",
					"type": "function"
				},
				{
					"inputs": [
						{
							"internalType": "address",
							"name": "funder",
							"type": "address"
						}
					],
					"name": "getFunderBalance",
					"outputs": [
						{
							"internalType": "uint256",
							"name": "",
							"type": "uint256"
						}
					],
					"stateMutability": "view",
					"type": "function"
				},
				{
					"inputs": [
						{
							"internalType": "address",
							"name": "funder",
							"type": "address"
						}
					],
					"name": "getFunderDetails",
					"outputs": [
						{
							"internalType": "uint256",
							"name": "totalDeposited",
							"type": "uint256"
						},
						{
							"internalType": "uint256",
							"name": "currentBalance",
							"type": "uint256"
						},
						{
							"internalType": "uint256",
							"name": "totalAllocated",
							"type": "uint256"
						},
						{
							"internalType": "uint256",
							"name": "activeBounties",
							"type": "uint256"
						}
					],
					"stateMutability": "view",
					"type": "function"
				},
				{
					"inputs": [
						{
							"internalType": "uint256",
							"name": "issueId",
							"type": "uint256"
						}
					],
					"name": "getIssueBounty",
					"outputs": [
						{
							"internalType": "uint256",
							"name": "",
							"type": "uint256"
						}
					],
					"stateMutability": "view",
					"type": "function"
				},
				{
					"inputs": [
						{
							"internalType": "uint256",
							"name": "fromIssue",
							"type": "uint256"
						},
						{
							"internalType": "uint256",
							"name": "toIssue",
							"type": "uint256"
						},
						{
							"internalType": "uint256",
							"name": "amount",
							"type": "uint256"
						}
					],
					"name": "reallocateFunds",
					"outputs": [],
					"stateMutability": "nonpayable",
					"type": "function"
				},
				{
					"inputs": [],
					"name": "totalFunds",
					"outputs": [
						{
							"internalType": "uint256",
							"name": "",
							"type": "uint256"
						}
					],
					"stateMutability": "view",
					"type": "function"
				},
				{
					"stateMutability": "payable",
					"type": "receive"
				}
			],
			"devdoc": {
				"details": "Tracks detailed balance information and ensures secure fund management",
				"kind": "dev",
				"methods": {},
				"title": "FundManager",
				"version": 1
			},
			"evm": {
				"assembly": "    /* \"prog2005-2025/lab02/gitlab-fund/contracts/FundManager.sol\":315:5443  contract FundManager is IFundManager {... */\n  mstore(0x40, 0x80)\n  callvalue\n  dup1\n  iszero\n  tag_1\n  jumpi\n  0x00\n  dup1\n  revert\ntag_1:\n  pop\n  dataSize(sub_0)\n  dup1\n  dataOffset(sub_0)\n  0x00\n  codecopy\n  0x00\n  return\nstop\n\nsub_0: assembly {\n        /* \"prog2005-2025/lab02/gitlab-fund/contracts/FundManager.sol\":315:5443  contract FundManager is IFundManager {... */\n      mstore(0x40, 0x80)\n      jumpi(tag_1, lt(calldatasize, 0x04))\n      shr(0xe0, calldataload(0x00))\n      dup1\n      0x968ed600\n      gt\n      tag_16\n      jumpi\n      dup1\n      0xe1e158a5\n      gt\n      tag_17\n      jumpi\n      dup1\n      0xe1e158a5\n      eq\n      tag_12\n      jumpi\n      dup1\n      0xe2c41dbc\n      eq\n      tag_13\n      jumpi\n      dup1\n      0xe5e5dff1\n      eq\n      tag_14\n      jumpi\n      dup1\n      0xf0f284fc\n      eq\n      tag_15\n      jumpi\n      jump(tag_2)\n    tag_17:\n      dup1\n      0x968ed600\n      eq\n      tag_9\n      jumpi\n      dup1\n      0xb6f5cad2\n      eq\n      tag_10\n      jumpi\n      dup1\n      0xb8b3d85b\n      eq\n      tag_11\n      jumpi\n      jump(tag_2)\n    tag_16:\n      dup1\n      0x0857e69c\n      eq\n      tag_3\n      jumpi\n      dup1\n      0x21df103a\n      eq\n      tag_4\n      jumpi\n      dup1\n      0x454fa1b1\n      eq\n      tag_5\n      jumpi\n      dup1\n      0x496e62f7\n      eq\n      tag_6\n      jumpi\n      dup1\n      0x51594276\n      eq\n      tag_7\n      jumpi\n      dup1\n      0x8017960d\n      eq\n      tag_8\n      jumpi\n      jump(tag_2)\n    tag_1:\n      jumpi(tag_2, calldatasize)\n        /* \"prog2005-2025/lab02/gitlab-fund/contracts/FundManager.sol\":1647:1661  depositFunds() */\n      tag_20\n        /* \"prog2005-2025/lab02/gitlab-fund/contracts/FundManager.sol\":1647:1659  depositFunds */\n      tag_21\n        /* \"prog2005-2025/lab02/gitlab-fund/contracts/FundManager.sol\":1647:1661  depositFunds() */\n      jump\t// in\n    tag_20:\n        /* \"prog2005-2025/lab02/gitlab-fund/contracts/FundManager.sol\":315:5443  contract FundManager is IFundManager {... */\n      stop\n    tag_2:\n      0x00\n      dup1\n      revert\n        /* \"prog2005-2025/lab02/gitlab-fund/contracts/FundManager.sol\":1125:1173  mapping(uint256 => BountyInfo) public bountyInfo */\n    tag_3:\n      callvalue\n      dup1\n      iszero\n      tag_22\n      jumpi\n      0x00\n      dup1\n      revert\n    tag_22:\n      pop\n      tag_23\n      0x04\n      dup1\n      calldatasize\n      sub\n      dup2\n      add\n      swap1\n      tag_24\n      swap2\n      swap1\n      tag_25\n      jump\t// in\n    tag_24:\n      tag_26\n      jump\t// in\n    tag_23:\n      mload(0x40)\n      tag_27\n      swap5\n      swap4\n      swap3\n      swap2\n      swap1\n      tag_28\n      jump\t// in\n    tag_27:\n      mload(0x40)\n      dup1\n      swap2\n      sub\n      swap1\n      return\n        /* \"prog2005-2025/lab02/gitlab-fund/contracts/FundManager.sol\":2050:2730  function allocateBounty(uint256 issueId, uint256 amount) ... */\n    tag_4:\n      callvalue\n      dup1\n      iszero\n      tag_29\n      jumpi\n      0x00\n      dup1\n      revert\n    tag_29:\n      pop\n      tag_30\n      0x04\n      dup1\n      calldatasize\n      sub\n      dup2\n      add\n      swap1\n      tag_31\n      swap2\n      swap1\n      tag_32\n      jump\t// in\n    tag_31:\n      tag_33\n      jump\t// in\n    tag_30:\n      stop\n        /* \"prog2005-2025/lab02/gitlab-fund/contracts/FundManager.sol\":5042:5295  function getIssueBounty(uint256 issueId) external view override returns (uint256) {... */\n    tag_5:\n      callvalue\n      dup1\n      iszero\n      tag_34\n      jumpi\n      0x00\n      dup1\n      revert\n    tag_34:\n      pop\n      tag_35\n      0x04\n      dup1\n      calldatasize\n      sub\n      dup2\n      add\n      swap1\n      tag_36\n      swap2\n      swap1\n      tag_25\n      jump\t// in\n    tag_36:\n      tag_37\n      jump\t// in\n    tag_35:\n      mload(0x40)\n      tag_38\n      swap2\n      swap1\n      tag_39\n      jump\t// in\n    tag_38:\n      mload(0x40)\n      dup1\n      swap2\n      sub\n      swap1\n      return\n        /* \"prog2005-2025/lab02/gitlab-fund/contracts/FundManager.sol\":1269:1322  uint256 public constant MAX_BOUNTY_DURATION = 30 days */\n    tag_6:\n      callvalue\n      dup1\n      iszero\n      tag_40\n      jumpi\n      0x00\n      dup1\n      revert\n    tag_40:\n      pop\n      tag_41\n      tag_42\n      jump\t// in\n    tag_41:\n      mload(0x40)\n      tag_43\n      swap2\n      swap1\n      tag_39\n      jump\t// in\n    tag_43:\n      mload(0x40)\n      dup1\n      swap2\n      sub\n      swap1\n      return\n        /* \"prog2005-2025/lab02/gitlab-fund/contracts/FundManager.sol\":1071:1119  mapping(address => FunderInfo) public funderInfo */\n    tag_7:\n      callvalue\n      dup1\n      iszero\n      tag_44\n      jumpi\n      0x00\n      dup1\n      revert\n    tag_44:\n      pop\n      tag_45\n      0x04\n      dup1\n      calldatasize\n      sub\n      dup2\n      add\n      swap1\n      tag_46\n      swap2\n      swap1\n      tag_47\n      jump\t// in\n    tag_46:\n      tag_48\n      jump\t// in\n    tag_45:\n      mload(0x40)\n      tag_49\n      swap5\n      swap4\n      swap3\n      swap2\n      swap1\n      tag_50\n      jump\t// in\n    tag_49:\n      mload(0x40)\n      dup1\n      swap2\n      sub\n      swap1\n      return\n        /* \"prog2005-2025/lab02/gitlab-fund/contracts/FundManager.sol\":4153:4623  function getFunderDetails(address funder) ... */\n    tag_8:\n      callvalue\n      dup1\n      iszero\n      tag_51\n      jumpi\n      0x00\n      dup1\n      revert\n    tag_51:\n      pop\n      tag_52\n      0x04\n      dup1\n      calldatasize\n      sub\n      dup2\n      add\n      swap1\n      tag_53\n      swap2\n      swap1\n      tag_47\n      jump\t// in\n    tag_53:\n      tag_54\n      jump\t// in\n    tag_52:\n      mload(0x40)\n      tag_55\n      swap5\n      swap4\n      swap3\n      swap2\n      swap1\n      tag_50\n      jump\t// in\n    tag_55:\n      mload(0x40)\n      dup1\n      swap2\n      sub\n      swap1\n      return\n        /* \"prog2005-2025/lab02/gitlab-fund/contracts/FundManager.sol\":1184:1209  uint256 public totalFunds */\n    tag_9:\n      callvalue\n      dup1\n      iszero\n      tag_56\n      jumpi\n      0x00\n      dup1\n      revert\n    tag_56:\n      pop\n      tag_57\n      tag_58\n      jump\t// in\n    tag_57:\n      mload(0x40)\n      tag_59\n      swap2\n      swap1\n      tag_39\n      jump\t// in\n    tag_59:\n      mload(0x40)\n      dup1\n      swap2\n      sub\n      swap1\n      return\n        /* \"prog2005-2025/lab02/gitlab-fund/contracts/FundManager.sol\":2736:3655  function reallocateFunds(uint256 fromIssue, uint256 toIssue, uint256 amount) ... */\n    tag_10:\n      callvalue\n      dup1\n      iszero\n      tag_60\n      jumpi\n      0x00\n      dup1\n      revert\n    tag_60:\n      pop\n      tag_61\n      0x04\n      dup1\n      calldatasize\n      sub\n      dup2\n      add\n      swap1\n      tag_62\n      swap2\n      swap1\n      tag_63\n      jump\t// in\n    tag_62:\n      tag_64\n      jump\t// in\n    tag_61:\n      stop\n        /* \"prog2005-2025/lab02/gitlab-fund/contracts/FundManager.sol\":5301:5441  function getFunderBalance(address funder) external view override returns (uint256) {... */\n    tag_11:\n      callvalue\n      dup1\n      iszero\n      tag_65\n      jumpi\n      0x00\n      dup1\n      revert\n    tag_65:\n      pop\n      tag_66\n      0x04\n      dup1\n      calldatasize\n      sub\n      dup2\n      add\n      swap1\n      tag_67\n      swap2\n      swap1\n      tag_47\n      jump\t// in\n    tag_67:\n      tag_68\n      jump\t// in\n    tag_66:\n      mload(0x40)\n      tag_69\n      swap2\n      swap1\n      tag_39\n      jump\t// in\n    tag_69:\n      mload(0x40)\n      dup1\n      swap2\n      sub\n      swap1\n      return\n        /* \"prog2005-2025/lab02/gitlab-fund/contracts/FundManager.sol\":1215:1263  uint256 public constant MIN_DEPOSIT = 0.01 ether */\n    tag_12:\n      callvalue\n      dup1\n      iszero\n      tag_70\n      jumpi\n      0x00\n      dup1\n      revert\n    tag_70:\n      pop\n      tag_71\n      tag_72\n      jump\t// in\n    tag_71:\n      mload(0x40)\n      tag_73\n      swap2\n      swap1\n      tag_39\n      jump\t// in\n    tag_73:\n      mload(0x40)\n      dup1\n      swap2\n      sub\n      swap1\n      return\n        /* \"prog2005-2025/lab02/gitlab-fund/contracts/FundManager.sol\":1674:2044  function depositFunds() public payable override {... */\n    tag_13:\n      tag_74\n      tag_21\n      jump\t// in\n    tag_74:\n      stop\n        /* \"prog2005-2025/lab02/gitlab-fund/contracts/FundManager.sol\":3661:4147  function cancelBounty(uint256 issueId) external validBounty(issueId) {... */\n    tag_14:\n      callvalue\n      dup1\n      iszero\n      tag_75\n      jumpi\n      0x00\n      dup1\n      revert\n    tag_75:\n      pop\n      tag_76\n      0x04\n      dup1\n      calldatasize\n      sub\n      dup2\n      add\n      swap1\n      tag_77\n      swap2\n      swap1\n      tag_25\n      jump\t// in\n    tag_77:\n      tag_78\n      jump\t// in\n    tag_76:\n      stop\n        /* \"prog2005-2025/lab02/gitlab-fund/contracts/FundManager.sol\":4629:5036  function getBountyDetails(uint256 issueId)... */\n    tag_15:\n      callvalue\n      dup1\n      iszero\n      tag_79\n      jumpi\n      0x00\n      dup1\n      revert\n    tag_79:\n      pop\n      tag_80\n      0x04\n      dup1\n      calldatasize\n      sub\n      dup2\n      add\n      swap1\n      tag_81\n      swap2\n      swap1\n      tag_25\n      jump\t// in\n    tag_81:\n      tag_82\n      jump\t// in\n    tag_80:\n      mload(0x40)\n      tag_83\n      swap5\n      swap4\n      swap3\n      swap2\n      swap1\n      tag_28\n      jump\t// in\n    tag_83:\n      mload(0x40)\n      dup1\n      swap2\n      sub\n      swap1\n      return\n        /* \"prog2005-2025/lab02/gitlab-fund/contracts/FundManager.sol\":1674:2044  function depositFunds() public payable override {... */\n    tag_21:\n        /* \"prog2005-2025/lab02/gitlab-fund/contracts/FundManager.sol\":1253:1263  0.01 ether */\n      0x2386f26fc10000\n        /* \"prog2005-2025/lab02/gitlab-fund/contracts/FundManager.sol\":1740:1749  msg.value */\n      callvalue\n        /* \"prog2005-2025/lab02/gitlab-fund/contracts/FundManager.sol\":1740:1764  msg.value >= MIN_DEPOSIT */\n      lt\n      iszero\n        /* \"prog2005-2025/lab02/gitlab-fund/contracts/FundManager.sol\":1732:1786  require(msg.value >= MIN_DEPOSIT, \"Deposit too small\") */\n      tag_85\n      jumpi\n      mload(0x40)\n      0x08c379a000000000000000000000000000000000000000000000000000000000\n      dup2\n      mstore\n      0x04\n      add\n      tag_86\n      swap1\n      tag_87\n      jump\t// in\n    tag_86:\n      mload(0x40)\n      dup1\n      swap2\n      sub\n      swap1\n      revert\n    tag_85:\n        /* \"prog2005-2025/lab02/gitlab-fund/contracts/FundManager.sol\":1805:1830  FunderInfo storage funder */\n      0x00\n        /* \"prog2005-2025/lab02/gitlab-fund/contracts/FundManager.sol\":1833:1843  funderInfo */\n      0x01\n        /* \"prog2005-2025/lab02/gitlab-fund/contracts/FundManager.sol\":1833:1855  funderInfo[msg.sender] */\n      0x00\n        /* \"prog2005-2025/lab02/gitlab-fund/contracts/FundManager.sol\":1844:1854  msg.sender */\n      caller\n        /* \"prog2005-2025/lab02/gitlab-fund/contracts/FundManager.sol\":1833:1855  funderInfo[msg.sender] */\n      0xffffffffffffffffffffffffffffffffffffffff\n      and\n      0xffffffffffffffffffffffffffffffffffffffff\n      and\n      dup2\n      mstore\n      0x20\n      add\n      swap1\n      dup2\n      mstore\n      0x20\n      add\n      0x00\n      keccak256\n        /* \"prog2005-2025/lab02/gitlab-fund/contracts/FundManager.sol\":1805:1855  FunderInfo storage funder = funderInfo[msg.sender] */\n      swap1\n      pop\n        /* \"prog2005-2025/lab02/gitlab-fund/contracts/FundManager.sol\":1890:1899  msg.value */\n      callvalue\n        /* \"prog2005-2025/lab02/gitlab-fund/contracts/FundManager.sol\":1865:1871  funder */\n      dup2\n        /* \"prog2005-2025/lab02/gitlab-fund/contracts/FundManager.sol\":1865:1886  funder.totalDeposited */\n      0x00\n      add\n      0x00\n        /* \"prog2005-2025/lab02/gitlab-fund/contracts/FundManager.sol\":1865:1899  funder.totalDeposited += msg.value */\n      dup3\n      dup3\n      sload\n      tag_88\n      swap2\n      swap1\n      tag_89\n      jump\t// in\n    tag_88:\n      swap3\n      pop\n      pop\n      dup2\n      swap1\n      sstore\n      pop\n        /* \"prog2005-2025/lab02/gitlab-fund/contracts/FundManager.sol\":1934:1943  msg.value */\n      callvalue\n        /* \"prog2005-2025/lab02/gitlab-fund/contracts/FundManager.sol\":1909:1915  funder */\n      dup2\n        /* \"prog2005-2025/lab02/gitlab-fund/contracts/FundManager.sol\":1909:1930  funder.currentBalance */\n      0x01\n      add\n      0x00\n        /* \"prog2005-2025/lab02/gitlab-fund/contracts/FundManager.sol\":1909:1943  funder.currentBalance += msg.value */\n      dup3\n      dup3\n      sload\n      tag_90\n      swap2\n      swap1\n      tag_89\n      jump\t// in\n    tag_90:\n      swap3\n      pop\n      pop\n      dup2\n      swap1\n      sstore\n      pop\n        /* \"prog2005-2025/lab02/gitlab-fund/contracts/FundManager.sol\":1967:1976  msg.value */\n      callvalue\n        /* \"prog2005-2025/lab02/gitlab-fund/contracts/FundManager.sol\":1953:1963  totalFunds */\n      0x03\n      0x00\n        /* \"prog2005-2025/lab02/gitlab-fund/contracts/FundManager.sol\":1953:1976  totalFunds += msg.value */\n      dup3\n      dup3\n      sload\n      tag_91\n      swap2\n      swap1\n      tag_89\n      jump\t// in\n    tag_91:\n      swap3\n      pop\n      pop\n      dup2\n      swap1\n      sstore\n      pop\n        /* \"prog2005-2025/lab02/gitlab-fund/contracts/FundManager.sol\":2015:2025  msg.sender */\n      caller\n        /* \"prog2005-2025/lab02/gitlab-fund/contracts/FundManager.sol\":2000:2037  FundsDeposited(msg.sender, msg.value) */\n      0xffffffffffffffffffffffffffffffffffffffff\n      and\n      0x543ba50a5eec5e6178218e364b1d0f396157b3c8fa278522c2cb7fd99407d474\n        /* \"prog2005-2025/lab02/gitlab-fund/contracts/FundManager.sol\":2027:2036  msg.value */\n      callvalue\n        /* \"prog2005-2025/lab02/gitlab-fund/contracts/FundManager.sol\":2000:2037  FundsDeposited(msg.sender, msg.value) */\n      mload(0x40)\n      tag_92\n      swap2\n      swap1\n      tag_39\n      jump\t// in\n    tag_92:\n      mload(0x40)\n      dup1\n      swap2\n      sub\n      swap1\n      log2\n        /* \"prog2005-2025/lab02/gitlab-fund/contracts/FundManager.sol\":1722:2044  {... */\n      pop\n        /* \"prog2005-2025/lab02/gitlab-fund/contracts/FundManager.sol\":1674:2044  function depositFunds() public payable override {... */\n      jump\t// out\n        /* \"prog2005-2025/lab02/gitlab-fund/contracts/FundManager.sol\":1125:1173  mapping(uint256 => BountyInfo) public bountyInfo */\n    tag_26:\n      mstore(0x20, 0x02)\n      dup1\n      0x00\n      mstore\n      keccak256(0x00, 0x40)\n      0x00\n      swap2\n      pop\n      swap1\n      pop\n      dup1\n      0x00\n      add\n      sload\n      swap1\n      dup1\n      0x01\n      add\n      0x00\n      swap1\n      sload\n      swap1\n      0x0100\n      exp\n      swap1\n      div\n      0xffffffffffffffffffffffffffffffffffffffff\n      and\n      swap1\n      dup1\n      0x02\n      add\n      sload\n      swap1\n      dup1\n      0x03\n      add\n      0x00\n      swap1\n      sload\n      swap1\n      0x0100\n      exp\n      swap1\n      div\n      0xff\n      and\n      swap1\n      pop\n      dup5\n      jump\t// out\n        /* \"prog2005-2025/lab02/gitlab-fund/contracts/FundManager.sol\":2050:2730  function allocateBounty(uint256 issueId, uint256 amount) ... */\n    tag_33:\n        /* \"prog2005-2025/lab02/gitlab-fund/contracts/FundManager.sol\":2166:2172  amount */\n      dup1\n        /* \"prog2005-2025/lab02/gitlab-fund/contracts/FundManager.sol\":1427:1433  amount */\n      dup1\n        /* \"prog2005-2025/lab02/gitlab-fund/contracts/FundManager.sol\":1386:1396  funderInfo */\n      0x01\n        /* \"prog2005-2025/lab02/gitlab-fund/contracts/FundManager.sol\":1386:1408  funderInfo[msg.sender] */\n      0x00\n        /* \"prog2005-2025/lab02/gitlab-fund/contracts/FundManager.sol\":1397:1407  msg.sender */\n      caller\n        /* \"prog2005-2025/lab02/gitlab-fund/contracts/FundManager.sol\":1386:1408  funderInfo[msg.sender] */\n      0xffffffffffffffffffffffffffffffffffffffff\n      and\n      0xffffffffffffffffffffffffffffffffffffffff\n      and\n      dup2\n      mstore\n      0x20\n      add\n      swap1\n      dup2\n      mstore\n      0x20\n      add\n      0x00\n      keccak256\n        /* \"prog2005-2025/lab02/gitlab-fund/contracts/FundManager.sol\":1386:1423  funderInfo[msg.sender].currentBalance */\n      0x01\n      add\n      sload\n        /* \"prog2005-2025/lab02/gitlab-fund/contracts/FundManager.sol\":1386:1433  funderInfo[msg.sender].currentBalance >= amount */\n      lt\n      iszero\n        /* \"prog2005-2025/lab02/gitlab-fund/contracts/FundManager.sol\":1378:1458  require(funderInfo[msg.sender].currentBalance >= amount, \"Insufficient balance\") */\n      tag_94\n      jumpi\n      mload(0x40)\n      0x08c379a000000000000000000000000000000000000000000000000000000000\n      dup2\n      mstore\n      0x04\n      add\n      tag_95\n      swap1\n      tag_96\n      jump\t// in\n    tag_95:\n      mload(0x40)\n      dup1\n      swap2\n      sub\n      swap1\n      revert\n    tag_94:\n        /* \"prog2005-2025/lab02/gitlab-fund/contracts/FundManager.sol\":2206:2207  0 */\n      0x00\n        /* \"prog2005-2025/lab02/gitlab-fund/contracts/FundManager.sol\":2197:2203  amount */\n      dup3\n        /* \"prog2005-2025/lab02/gitlab-fund/contracts/FundManager.sol\":2197:2207  amount > 0 */\n      gt\n        /* \"prog2005-2025/lab02/gitlab-fund/contracts/FundManager.sol\":2189:2235  require(amount > 0, \"Amount must be positive\") */\n      tag_98\n      jumpi\n      mload(0x40)\n      0x08c379a000000000000000000000000000000000000000000000000000000000\n      dup2\n      mstore\n      0x04\n      add\n      tag_99\n      swap1\n      tag_100\n      jump\t// in\n    tag_99:\n      mload(0x40)\n      dup1\n      swap2\n      sub\n      swap1\n      revert\n    tag_98:\n        /* \"prog2005-2025/lab02/gitlab-fund/contracts/FundManager.sol\":2283:2284  0 */\n      0x00\n        /* \"prog2005-2025/lab02/gitlab-fund/contracts/FundManager.sol\":2253:2263  bountyInfo */\n      0x02\n        /* \"prog2005-2025/lab02/gitlab-fund/contracts/FundManager.sol\":2253:2272  bountyInfo[issueId] */\n      0x00\n        /* \"prog2005-2025/lab02/gitlab-fund/contracts/FundManager.sol\":2264:2271  issueId */\n      dup6\n        /* \"prog2005-2025/lab02/gitlab-fund/contracts/FundManager.sol\":2253:2272  bountyInfo[issueId] */\n      dup2\n      mstore\n      0x20\n      add\n      swap1\n      dup2\n      mstore\n      0x20\n      add\n      0x00\n      keccak256\n        /* \"prog2005-2025/lab02/gitlab-fund/contracts/FundManager.sol\":2253:2279  bountyInfo[issueId].amount */\n      0x00\n      add\n      sload\n        /* \"prog2005-2025/lab02/gitlab-fund/contracts/FundManager.sol\":2253:2284  bountyInfo[issueId].amount == 0 */\n      eq\n        /* \"prog2005-2025/lab02/gitlab-fund/contracts/FundManager.sol\":2245:2310  require(bountyInfo[issueId].amount == 0, \"Bounty already exists\") */\n      tag_101\n      jumpi\n      mload(0x40)\n      0x08c379a000000000000000000000000000000000000000000000000000000000\n      dup2\n      mstore\n      0x04\n      add\n      tag_102\n      swap1\n      tag_103\n      jump\t// in\n    tag_102:\n      mload(0x40)\n      dup1\n      swap2\n      sub\n      swap1\n      revert\n    tag_101:\n        /* \"prog2005-2025/lab02/gitlab-fund/contracts/FundManager.sol\":2329:2354  FunderInfo storage funder */\n      0x00\n        /* \"prog2005-2025/lab02/gitlab-fund/contracts/FundManager.sol\":2357:2367  funderInfo */\n      0x01\n        /* \"prog2005-2025/lab02/gitlab-fund/contracts/FundManager.sol\":2357:2379  funderInfo[msg.sender] */\n      0x00\n        /* \"prog2005-2025/lab02/gitlab-fund/contracts/FundManager.sol\":2368:2378  msg.sender */\n      caller\n        /* \"prog2005-2025/lab02/gitlab-fund/contracts/FundManager.sol\":2357:2379  funderInfo[msg.sender] */\n      0xffffffffffffffffffffffffffffffffffffffff\n      and\n      0xffffffffffffffffffffffffffffffffffffffff\n      and\n      dup2\n      mstore\n      0x20\n      add\n      swap1\n      dup2\n      mstore\n      0x20\n      add\n      0x00\n      keccak256\n        /* \"prog2005-2025/lab02/gitlab-fund/contracts/FundManager.sol\":2329:2379  FunderInfo storage funder = funderInfo[msg.sender] */\n      swap1\n      pop\n        /* \"prog2005-2025/lab02/gitlab-fund/contracts/FundManager.sol\":2414:2420  amount */\n      dup3\n        /* \"prog2005-2025/lab02/gitlab-fund/contracts/FundManager.sol\":2389:2395  funder */\n      dup2\n        /* \"prog2005-2025/lab02/gitlab-fund/contracts/FundManager.sol\":2389:2410  funder.currentBalance */\n      0x01\n      add\n      0x00\n        /* \"prog2005-2025/lab02/gitlab-fund/contracts/FundManager.sol\":2389:2420  funder.currentBalance -= amount */\n      dup3\n      dup3\n      sload\n      tag_104\n      swap2\n      swap1\n      tag_105\n      jump\t// in\n    tag_104:\n      swap3\n      pop\n      pop\n      dup2\n      swap1\n      sstore\n      pop\n        /* \"prog2005-2025/lab02/gitlab-fund/contracts/FundManager.sol\":2455:2461  amount */\n      dup3\n        /* \"prog2005-2025/lab02/gitlab-fund/contracts/FundManager.sol\":2430:2436  funder */\n      dup2\n        /* \"prog2005-2025/lab02/gitlab-fund/contracts/FundManager.sol\":2430:2451  funder.totalAllocated */\n      0x02\n      add\n      0x00\n        /* \"prog2005-2025/lab02/gitlab-fund/contracts/FundManager.sol\":2430:2461  funder.totalAllocated += amount */\n      dup3\n      dup3\n      sload\n      tag_106\n      swap2\n      swap1\n      tag_89\n      jump\t// in\n    tag_106:\n      swap3\n      pop\n      pop\n      dup2\n      swap1\n      sstore\n      pop\n        /* \"prog2005-2025/lab02/gitlab-fund/contracts/FundManager.sol\":2471:2477  funder */\n      dup1\n        /* \"prog2005-2025/lab02/gitlab-fund/contracts/FundManager.sol\":2471:2492  funder.activeBounties */\n      0x03\n      add\n      0x00\n        /* \"prog2005-2025/lab02/gitlab-fund/contracts/FundManager.sol\":2471:2494  funder.activeBounties++ */\n      dup2\n      sload\n      dup1\n      swap3\n      swap2\n      swap1\n      tag_107\n      swap1\n      tag_108\n      jump\t// in\n    tag_107:\n      swap2\n      swap1\n      pop\n      sstore\n      pop\n        /* \"prog2005-2025/lab02/gitlab-fund/contracts/FundManager.sol\":2527:2675  BountyInfo({... */\n      mload(0x40)\n      dup1\n      0x80\n      add\n      0x40\n      mstore\n      dup1\n        /* \"prog2005-2025/lab02/gitlab-fund/contracts/FundManager.sol\":2560:2566  amount */\n      dup5\n        /* \"prog2005-2025/lab02/gitlab-fund/contracts/FundManager.sol\":2527:2675  BountyInfo({... */\n      dup2\n      mstore\n      0x20\n      add\n        /* \"prog2005-2025/lab02/gitlab-fund/contracts/FundManager.sol\":2588:2598  msg.sender */\n      caller\n        /* \"prog2005-2025/lab02/gitlab-fund/contracts/FundManager.sol\":2527:2675  BountyInfo({... */\n      0xffffffffffffffffffffffffffffffffffffffff\n      and\n      dup2\n      mstore\n      0x20\n      add\n        /* \"prog2005-2025/lab02/gitlab-fund/contracts/FundManager.sol\":2623:2638  block.timestamp */\n      timestamp\n        /* \"prog2005-2025/lab02/gitlab-fund/contracts/FundManager.sol\":2527:2675  BountyInfo({... */\n      dup2\n      mstore\n      0x20\n      add\n        /* \"prog2005-2025/lab02/gitlab-fund/contracts/FundManager.sol\":2660:2664  true */\n      0x01\n        /* \"prog2005-2025/lab02/gitlab-fund/contracts/FundManager.sol\":2527:2675  BountyInfo({... */\n      iszero\n      iszero\n      dup2\n      mstore\n      pop\n        /* \"prog2005-2025/lab02/gitlab-fund/contracts/FundManager.sol\":2505:2515  bountyInfo */\n      0x02\n        /* \"prog2005-2025/lab02/gitlab-fund/contracts/FundManager.sol\":2505:2524  bountyInfo[issueId] */\n      0x00\n        /* \"prog2005-2025/lab02/gitlab-fund/contracts/FundManager.sol\":2516:2523  issueId */\n      dup7\n        /* \"prog2005-2025/lab02/gitlab-fund/contracts/FundManager.sol\":2505:2524  bountyInfo[issueId] */\n      dup2\n      mstore\n      0x20\n      add\n      swap1\n      dup2\n      mstore\n      0x20\n      add\n      0x00\n      keccak256\n        /* \"prog2005-2025/lab02/gitlab-fund/contracts/FundManager.sol\":2505:2675  bountyInfo[issueId] = BountyInfo({... */\n      0x00\n      dup3\n      add\n      mload\n      dup2\n      0x00\n      add\n      sstore\n      0x20\n      dup3\n      add\n      mload\n      dup2\n      0x01\n      add\n      exp(0x0100, 0x00)\n      dup2\n      sload\n      dup2\n      0xffffffffffffffffffffffffffffffffffffffff\n      mul\n      not\n      and\n      swap1\n      dup4\n      0xffffffffffffffffffffffffffffffffffffffff\n      and\n      mul\n      or\n      swap1\n      sstore\n      pop\n      0x40\n      dup3\n      add\n      mload\n      dup2\n      0x02\n      add\n      sstore\n      0x60\n      dup3\n      add\n      mload\n      dup2\n      0x03\n      add\n      exp(0x0100, 0x00)\n      dup2\n      sload\n      dup2\n      0xff\n      mul\n      not\n      and\n      swap1\n      dup4\n      iszero\n      iszero\n      mul\n      or\n      swap1\n      sstore\n      pop\n      swap1\n      pop\n      pop\n        /* \"prog2005-2025/lab02/gitlab-fund/contracts/FundManager.sol\":2707:2714  issueId */\n      dup4\n        /* \"prog2005-2025/lab02/gitlab-fund/contracts/FundManager.sol\":2691:2723  BountyAllocated(issueId, amount) */\n      0xfaf7d24eca5c2ed2e63e0e70578db4ebda8019cff8040e61689979af8cd739b1\n        /* \"prog2005-2025/lab02/gitlab-fund/contracts/FundManager.sol\":2716:2722  amount */\n      dup5\n        /* \"prog2005-2025/lab02/gitlab-fund/contracts/FundManager.sol\":2691:2723  BountyAllocated(issueId, amount) */\n      mload(0x40)\n      tag_109\n      swap2\n      swap1\n      tag_39\n      jump\t// in\n    tag_109:\n      mload(0x40)\n      dup1\n      swap2\n      sub\n      swap1\n      log2\n        /* \"prog2005-2025/lab02/gitlab-fund/contracts/FundManager.sol\":2179:2730  {... */\n      pop\n        /* \"prog2005-2025/lab02/gitlab-fund/contracts/FundManager.sol\":2050:2730  function allocateBounty(uint256 issueId, uint256 amount) ... */\n      pop\n      pop\n      pop\n      jump\t// out\n        /* \"prog2005-2025/lab02/gitlab-fund/contracts/FundManager.sol\":5042:5295  function getIssueBounty(uint256 issueId) external view override returns (uint256) {... */\n    tag_37:\n        /* \"prog2005-2025/lab02/gitlab-fund/contracts/FundManager.sol\":5115:5122  uint256 */\n      0x00\n        /* \"prog2005-2025/lab02/gitlab-fund/contracts/FundManager.sol\":5130:5154  BountyInfo memory bounty */\n      dup1\n        /* \"prog2005-2025/lab02/gitlab-fund/contracts/FundManager.sol\":5157:5167  bountyInfo */\n      0x02\n        /* \"prog2005-2025/lab02/gitlab-fund/contracts/FundManager.sol\":5157:5176  bountyInfo[issueId] */\n      0x00\n        /* \"prog2005-2025/lab02/gitlab-fund/contracts/FundManager.sol\":5168:5175  issueId */\n      dup5\n        /* \"prog2005-2025/lab02/gitlab-fund/contracts/FundManager.sol\":5157:5176  bountyInfo[issueId] */\n      dup2\n      mstore\n      0x20\n      add\n      swap1\n      dup2\n      mstore\n      0x20\n      add\n      0x00\n      keccak256\n        /* \"prog2005-2025/lab02/gitlab-fund/contracts/FundManager.sol\":5130:5176  BountyInfo memory bounty = bountyInfo[issueId] */\n      mload(0x40)\n      dup1\n      0x80\n      add\n      0x40\n      mstore\n      swap1\n      dup2\n      0x00\n      dup3\n      add\n      sload\n      dup2\n      mstore\n      0x20\n      add\n      0x01\n      dup3\n      add\n      0x00\n      swap1\n      sload\n      swap1\n      0x0100\n      exp\n      swap1\n      div\n      0xffffffffffffffffffffffffffffffffffffffff\n      and\n      0xffffffffffffffffffffffffffffffffffffffff\n      and\n      0xffffffffffffffffffffffffffffffffffffffff\n      and\n      dup2\n      mstore\n      0x20\n      add\n      0x02\n      dup3\n      add\n      sload\n      dup2\n      mstore\n      0x20\n      add\n      0x03\n      dup3\n      add\n      0x00\n      swap1\n      sload\n      swap1\n      0x0100\n      exp\n      swap1\n      div\n      0xff\n      and\n      iszero\n      iszero\n      iszero\n      iszero\n      dup2\n      mstore\n      pop\n      pop\n      swap1\n      pop\n        /* \"prog2005-2025/lab02/gitlab-fund/contracts/FundManager.sol\":5227:5233  bounty */\n      dup1\n        /* \"prog2005-2025/lab02/gitlab-fund/contracts/FundManager.sol\":5227:5240  bounty.active */\n      0x60\n      add\n      mload\n        /* \"prog2005-2025/lab02/gitlab-fund/contracts/FundManager.sol\":5222:5267  if (!bounty.active) {... */\n      tag_111\n      jumpi\n        /* \"prog2005-2025/lab02/gitlab-fund/contracts/FundManager.sol\":5259:5260  0 */\n      0x00\n        /* \"prog2005-2025/lab02/gitlab-fund/contracts/FundManager.sol\":5252:5260  return 0 */\n      swap2\n      pop\n      pop\n      jump(tag_110)\n        /* \"prog2005-2025/lab02/gitlab-fund/contracts/FundManager.sol\":5222:5267  if (!bounty.active) {... */\n    tag_111:\n        /* \"prog2005-2025/lab02/gitlab-fund/contracts/FundManager.sol\":5279:5285  bounty */\n      dup1\n        /* \"prog2005-2025/lab02/gitlab-fund/contracts/FundManager.sol\":5279:5292  bounty.amount */\n      0x00\n      add\n      mload\n        /* \"prog2005-2025/lab02/gitlab-fund/contracts/FundManager.sol\":5272:5292  return bounty.amount */\n      swap2\n      pop\n      pop\n        /* \"prog2005-2025/lab02/gitlab-fund/contracts/FundManager.sol\":5042:5295  function getIssueBounty(uint256 issueId) external view override returns (uint256) {... */\n    tag_110:\n      swap2\n      swap1\n      pop\n      jump\t// out\n        /* \"prog2005-2025/lab02/gitlab-fund/contracts/FundManager.sol\":1269:1322  uint256 public constant MAX_BOUNTY_DURATION = 30 days */\n    tag_42:\n        /* \"prog2005-2025/lab02/gitlab-fund/contracts/FundManager.sol\":1315:1322  30 days */\n      0x278d00\n        /* \"prog2005-2025/lab02/gitlab-fund/contracts/FundManager.sol\":1269:1322  uint256 public constant MAX_BOUNTY_DURATION = 30 days */\n      dup2\n      jump\t// out\n        /* \"prog2005-2025/lab02/gitlab-fund/contracts/FundManager.sol\":1071:1119  mapping(address => FunderInfo) public funderInfo */\n    tag_48:\n      mstore(0x20, 0x01)\n      dup1\n      0x00\n      mstore\n      keccak256(0x00, 0x40)\n      0x00\n      swap2\n      pop\n      swap1\n      pop\n      dup1\n      0x00\n      add\n      sload\n      swap1\n      dup1\n      0x01\n      add\n      sload\n      swap1\n      dup1\n      0x02\n      add\n      sload\n      swap1\n      dup1\n      0x03\n      add\n      sload\n      swap1\n      pop\n      dup5\n      jump\t// out\n        /* \"prog2005-2025/lab02/gitlab-fund/contracts/FundManager.sol\":4153:4623  function getFunderDetails(address funder) ... */\n    tag_54:\n        /* \"prog2005-2025/lab02/gitlab-fund/contracts/FundManager.sol\":4258:4280  uint256 totalDeposited */\n      0x00\n        /* \"prog2005-2025/lab02/gitlab-fund/contracts/FundManager.sol\":4294:4316  uint256 currentBalance */\n      dup1\n        /* \"prog2005-2025/lab02/gitlab-fund/contracts/FundManager.sol\":4330:4352  uint256 totalAllocated */\n      0x00\n        /* \"prog2005-2025/lab02/gitlab-fund/contracts/FundManager.sol\":4366:4388  uint256 activeBounties */\n      dup1\n        /* \"prog2005-2025/lab02/gitlab-fund/contracts/FundManager.sol\":4414:4436  FunderInfo memory info */\n      0x00\n        /* \"prog2005-2025/lab02/gitlab-fund/contracts/FundManager.sol\":4439:4449  funderInfo */\n      0x01\n        /* \"prog2005-2025/lab02/gitlab-fund/contracts/FundManager.sol\":4439:4457  funderInfo[funder] */\n      0x00\n        /* \"prog2005-2025/lab02/gitlab-fund/contracts/FundManager.sol\":4450:4456  funder */\n      dup8\n        /* \"prog2005-2025/lab02/gitlab-fund/contracts/FundManager.sol\":4439:4457  funderInfo[funder] */\n      0xffffffffffffffffffffffffffffffffffffffff\n      and\n      0xffffffffffffffffffffffffffffffffffffffff\n      and\n      dup2\n      mstore\n      0x20\n      add\n      swap1\n      dup2\n      mstore\n      0x20\n      add\n      0x00\n      keccak256\n        /* \"prog2005-2025/lab02/gitlab-fund/contracts/FundManager.sol\":4414:4457  FunderInfo memory info = funderInfo[funder] */\n      mload(0x40)\n      dup1\n      0x80\n      add\n      0x40\n      mstore\n      swap1\n      dup2\n      0x00\n      dup3\n      add\n      sload\n      dup2\n      mstore\n      0x20\n      add\n      0x01\n      dup3\n      add\n      sload\n      dup2\n      mstore\n      0x20\n      add\n      0x02\n      dup3\n      add\n      sload\n      dup2\n      mstore\n      0x20\n      add\n      0x03\n      dup3\n      add\n      sload\n      dup2\n      mstore\n      pop\n      pop\n      swap1\n      pop\n        /* \"prog2005-2025/lab02/gitlab-fund/contracts/FundManager.sol\":4488:4492  info */\n      dup1\n        /* \"prog2005-2025/lab02/gitlab-fund/contracts/FundManager.sol\":4488:4507  info.totalDeposited */\n      0x00\n      add\n      mload\n        /* \"prog2005-2025/lab02/gitlab-fund/contracts/FundManager.sol\":4521:4525  info */\n      dup2\n        /* \"prog2005-2025/lab02/gitlab-fund/contracts/FundManager.sol\":4521:4540  info.currentBalance */\n      0x20\n      add\n      mload\n        /* \"prog2005-2025/lab02/gitlab-fund/contracts/FundManager.sol\":4554:4558  info */\n      dup3\n        /* \"prog2005-2025/lab02/gitlab-fund/contracts/FundManager.sol\":4554:4573  info.totalAllocated */\n      0x40\n      add\n      mload\n        /* \"prog2005-2025/lab02/gitlab-fund/contracts/FundManager.sol\":4587:4591  info */\n      dup4\n        /* \"prog2005-2025/lab02/gitlab-fund/contracts/FundManager.sol\":4587:4606  info.activeBounties */\n      0x60\n      add\n      mload\n        /* \"prog2005-2025/lab02/gitlab-fund/contracts/FundManager.sol\":4467:4616  return (... */\n      swap5\n      pop\n      swap5\n      pop\n      swap5\n      pop\n      swap5\n      pop\n      pop\n        /* \"prog2005-2025/lab02/gitlab-fund/contracts/FundManager.sol\":4153:4623  function getFunderDetails(address funder) ... */\n      swap2\n      swap4\n      pop\n      swap2\n      swap4\n      jump\t// out\n        /* \"prog2005-2025/lab02/gitlab-fund/contracts/FundManager.sol\":1184:1209  uint256 public totalFunds */\n    tag_58:\n      sload(0x03)\n      dup2\n      jump\t// out\n        /* \"prog2005-2025/lab02/gitlab-fund/contracts/FundManager.sol\":2736:3655  function reallocateFunds(uint256 fromIssue, uint256 toIssue, uint256 amount) ... */\n    tag_64:\n        /* \"prog2005-2025/lab02/gitlab-fund/contracts/FundManager.sol\":2870:2879  fromIssue */\n      dup3\n        /* \"prog2005-2025/lab02/gitlab-fund/contracts/FundManager.sol\":1538:1548  bountyInfo */\n      0x02\n        /* \"prog2005-2025/lab02/gitlab-fund/contracts/FundManager.sol\":1538:1557  bountyInfo[issueId] */\n      0x00\n        /* \"prog2005-2025/lab02/gitlab-fund/contracts/FundManager.sol\":1549:1556  issueId */\n      dup3\n        /* \"prog2005-2025/lab02/gitlab-fund/contracts/FundManager.sol\":1538:1557  bountyInfo[issueId] */\n      dup2\n      mstore\n      0x20\n      add\n      swap1\n      dup2\n      mstore\n      0x20\n      add\n      0x00\n      keccak256\n        /* \"prog2005-2025/lab02/gitlab-fund/contracts/FundManager.sol\":1538:1564  bountyInfo[issueId].active */\n      0x03\n      add\n      0x00\n      swap1\n      sload\n      swap1\n      0x0100\n      exp\n      swap1\n      div\n      0xff\n      and\n        /* \"prog2005-2025/lab02/gitlab-fund/contracts/FundManager.sol\":1530:1586  require(bountyInfo[issueId].active, \"Bounty not active\") */\n      tag_114\n      jumpi\n      mload(0x40)\n      0x08c379a000000000000000000000000000000000000000000000000000000000\n      dup2\n      mstore\n      0x04\n      add\n      tag_115\n      swap1\n      tag_116\n      jump\t// in\n    tag_115:\n      mload(0x40)\n      dup1\n      swap2\n      sub\n      swap1\n      revert\n    tag_114:\n        /* \"prog2005-2025/lab02/gitlab-fund/contracts/FundManager.sol\":2896:2925  BountyInfo storage fromBounty */\n      0x00\n        /* \"prog2005-2025/lab02/gitlab-fund/contracts/FundManager.sol\":2928:2938  bountyInfo */\n      0x02\n        /* \"prog2005-2025/lab02/gitlab-fund/contracts/FundManager.sol\":2928:2949  bountyInfo[fromIssue] */\n      0x00\n        /* \"prog2005-2025/lab02/gitlab-fund/contracts/FundManager.sol\":2939:2948  fromIssue */\n      dup7\n        /* \"prog2005-2025/lab02/gitlab-fund/contracts/FundManager.sol\":2928:2949  bountyInfo[fromIssue] */\n      dup2\n      mstore\n      0x20\n      add\n      swap1\n      dup2\n      mstore\n      0x20\n      add\n      0x00\n      keccak256\n        /* \"prog2005-2025/lab02/gitlab-fund/contracts/FundManager.sol\":2896:2949  BountyInfo storage fromBounty = bountyInfo[fromIssue] */\n      swap1\n      pop\n        /* \"prog2005-2025/lab02/gitlab-fund/contracts/FundManager.sol\":2981:2991  fromBounty */\n      dup1\n        /* \"prog2005-2025/lab02/gitlab-fund/contracts/FundManager.sol\":2981:2998  fromBounty.funder */\n      0x01\n      add\n      0x00\n      swap1\n      sload\n      swap1\n      0x0100\n      exp\n      swap1\n      div\n      0xffffffffffffffffffffffffffffffffffffffff\n      and\n        /* \"prog2005-2025/lab02/gitlab-fund/contracts/FundManager.sol\":2967:2998  msg.sender == fromBounty.funder */\n      0xffffffffffffffffffffffffffffffffffffffff\n      and\n        /* \"prog2005-2025/lab02/gitlab-fund/contracts/FundManager.sol\":2967:2977  msg.sender */\n      caller\n        /* \"prog2005-2025/lab02/gitlab-fund/contracts/FundManager.sol\":2967:2998  msg.sender == fromBounty.funder */\n      0xffffffffffffffffffffffffffffffffffffffff\n      and\n      eq\n        /* \"prog2005-2025/lab02/gitlab-fund/contracts/FundManager.sol\":2959:3020  require(msg.sender == fromBounty.funder, \"Not bounty funder\") */\n      tag_118\n      jumpi\n      mload(0x40)\n      0x08c379a000000000000000000000000000000000000000000000000000000000\n      dup2\n      mstore\n      0x04\n      add\n      tag_119\n      swap1\n      tag_120\n      jump\t// in\n    tag_119:\n      mload(0x40)\n      dup1\n      swap2\n      sub\n      swap1\n      revert\n    tag_118:\n        /* \"prog2005-2025/lab02/gitlab-fund/contracts/FundManager.sol\":3059:3065  amount */\n      dup3\n        /* \"prog2005-2025/lab02/gitlab-fund/contracts/FundManager.sol\":3038:3048  fromBounty */\n      dup2\n        /* \"prog2005-2025/lab02/gitlab-fund/contracts/FundManager.sol\":3038:3055  fromBounty.amount */\n      0x00\n      add\n      sload\n        /* \"prog2005-2025/lab02/gitlab-fund/contracts/FundManager.sol\":3038:3065  fromBounty.amount >= amount */\n      lt\n      iszero\n        /* \"prog2005-2025/lab02/gitlab-fund/contracts/FundManager.sol\":3030:3096  require(fromBounty.amount >= amount, \"Insufficient bounty amount\") */\n      tag_121\n      jumpi\n      mload(0x40)\n      0x08c379a000000000000000000000000000000000000000000000000000000000\n      dup2\n      mstore\n      0x04\n      add\n      tag_122\n      swap1\n      tag_123\n      jump\t// in\n    tag_122:\n      mload(0x40)\n      dup1\n      swap2\n      sub\n      swap1\n      revert\n    tag_121:\n        /* \"prog2005-2025/lab02/gitlab-fund/contracts/FundManager.sol\":3144:3145  0 */\n      0x00\n        /* \"prog2005-2025/lab02/gitlab-fund/contracts/FundManager.sol\":3114:3124  bountyInfo */\n      0x02\n        /* \"prog2005-2025/lab02/gitlab-fund/contracts/FundManager.sol\":3114:3133  bountyInfo[toIssue] */\n      0x00\n        /* \"prog2005-2025/lab02/gitlab-fund/contracts/FundManager.sol\":3125:3132  toIssue */\n      dup7\n        /* \"prog2005-2025/lab02/gitlab-fund/contracts/FundManager.sol\":3114:3133  bountyInfo[toIssue] */\n      dup2\n      mstore\n      0x20\n      add\n      swap1\n      dup2\n      mstore\n      0x20\n      add\n      0x00\n      keccak256\n        /* \"prog2005-2025/lab02/gitlab-fund/contracts/FundManager.sol\":3114:3140  bountyInfo[toIssue].amount */\n      0x00\n      add\n      sload\n        /* \"prog2005-2025/lab02/gitlab-fund/contracts/FundManager.sol\":3114:3145  bountyInfo[toIssue].amount == 0 */\n      eq\n        /* \"prog2005-2025/lab02/gitlab-fund/contracts/FundManager.sol\":3106:3181  require(bountyInfo[toIssue].amount == 0, \"Target issue already has bounty\") */\n      tag_124\n      jumpi\n      mload(0x40)\n      0x08c379a000000000000000000000000000000000000000000000000000000000\n      dup2\n      mstore\n      0x04\n      add\n      tag_125\n      swap1\n      tag_126\n      jump\t// in\n    tag_125:\n      mload(0x40)\n      dup1\n      swap2\n      sub\n      swap1\n      revert\n    tag_124:\n        /* \"prog2005-2025/lab02/gitlab-fund/contracts/FundManager.sol\":3213:3219  amount */\n      dup3\n        /* \"prog2005-2025/lab02/gitlab-fund/contracts/FundManager.sol\":3192:3202  fromBounty */\n      dup2\n        /* \"prog2005-2025/lab02/gitlab-fund/contracts/FundManager.sol\":3192:3209  fromBounty.amount */\n      0x00\n      add\n      0x00\n        /* \"prog2005-2025/lab02/gitlab-fund/contracts/FundManager.sol\":3192:3219  fromBounty.amount -= amount */\n      dup3\n      dup3\n      sload\n      tag_127\n      swap2\n      swap1\n      tag_105\n      jump\t// in\n    tag_127:\n      swap3\n      pop\n      pop\n      dup2\n      swap1\n      sstore\n      pop\n        /* \"prog2005-2025/lab02/gitlab-fund/contracts/FundManager.sol\":3254:3255  0 */\n      0x00\n        /* \"prog2005-2025/lab02/gitlab-fund/contracts/FundManager.sol\":3233:3243  fromBounty */\n      dup2\n        /* \"prog2005-2025/lab02/gitlab-fund/contracts/FundManager.sol\":3233:3250  fromBounty.amount */\n      0x00\n      add\n      sload\n        /* \"prog2005-2025/lab02/gitlab-fund/contracts/FundManager.sol\":3233:3255  fromBounty.amount == 0 */\n      sub\n        /* \"prog2005-2025/lab02/gitlab-fund/contracts/FundManager.sol\":3229:3408  if (fromBounty.amount == 0) {... */\n      tag_128\n      jumpi\n        /* \"prog2005-2025/lab02/gitlab-fund/contracts/FundManager.sol\":3291:3296  false */\n      0x00\n        /* \"prog2005-2025/lab02/gitlab-fund/contracts/FundManager.sol\":3271:3281  fromBounty */\n      dup2\n        /* \"prog2005-2025/lab02/gitlab-fund/contracts/FundManager.sol\":3271:3288  fromBounty.active */\n      0x03\n      add\n      0x00\n        /* \"prog2005-2025/lab02/gitlab-fund/contracts/FundManager.sol\":3271:3296  fromBounty.active = false */\n      0x0100\n      exp\n      dup2\n      sload\n      dup2\n      0xff\n      mul\n      not\n      and\n      swap1\n      dup4\n      iszero\n      iszero\n      mul\n      or\n      swap1\n      sstore\n      pop\n        /* \"prog2005-2025/lab02/gitlab-fund/contracts/FundManager.sol\":3310:3335  FunderInfo storage funder */\n      0x00\n        /* \"prog2005-2025/lab02/gitlab-fund/contracts/FundManager.sol\":3338:3348  funderInfo */\n      0x01\n        /* \"prog2005-2025/lab02/gitlab-fund/contracts/FundManager.sol\":3338:3360  funderInfo[msg.sender] */\n      0x00\n        /* \"prog2005-2025/lab02/gitlab-fund/contracts/FundManager.sol\":3349:3359  msg.sender */\n      caller\n        /* \"prog2005-2025/lab02/gitlab-fund/contracts/FundManager.sol\":3338:3360  funderInfo[msg.sender] */\n      0xffffffffffffffffffffffffffffffffffffffff\n      and\n      0xffffffffffffffffffffffffffffffffffffffff\n      and\n      dup2\n      mstore\n      0x20\n      add\n      swap1\n      dup2\n      mstore\n      0x20\n      add\n      0x00\n      keccak256\n        /* \"prog2005-2025/lab02/gitlab-fund/contracts/FundManager.sol\":3310:3360  FunderInfo storage funder = funderInfo[msg.sender] */\n      swap1\n      pop\n        /* \"prog2005-2025/lab02/gitlab-fund/contracts/FundManager.sol\":3374:3380  funder */\n      dup1\n        /* \"prog2005-2025/lab02/gitlab-fund/contracts/FundManager.sol\":3374:3395  funder.activeBounties */\n      0x03\n      add\n      0x00\n        /* \"prog2005-2025/lab02/gitlab-fund/contracts/FundManager.sol\":3374:3397  funder.activeBounties-- */\n      dup2\n      sload\n      dup1\n      swap3\n      swap2\n      swap1\n      tag_129\n      swap1\n      tag_130\n      jump\t// in\n    tag_129:\n      swap2\n      swap1\n      pop\n      sstore\n      pop\n        /* \"prog2005-2025/lab02/gitlab-fund/contracts/FundManager.sol\":3257:3408  {... */\n      pop\n        /* \"prog2005-2025/lab02/gitlab-fund/contracts/FundManager.sol\":3229:3408  if (fromBounty.amount == 0) {... */\n    tag_128:\n        /* \"prog2005-2025/lab02/gitlab-fund/contracts/FundManager.sol\":3440:3588  BountyInfo({... */\n      mload(0x40)\n      dup1\n      0x80\n      add\n      0x40\n      mstore\n      dup1\n        /* \"prog2005-2025/lab02/gitlab-fund/contracts/FundManager.sol\":3473:3479  amount */\n      dup5\n        /* \"prog2005-2025/lab02/gitlab-fund/contracts/FundManager.sol\":3440:3588  BountyInfo({... */\n      dup2\n      mstore\n      0x20\n      add\n        /* \"prog2005-2025/lab02/gitlab-fund/contracts/FundManager.sol\":3501:3511  msg.sender */\n      caller\n        /* \"prog2005-2025/lab02/gitlab-fund/contracts/FundManager.sol\":3440:3588  BountyInfo({... */\n      0xffffffffffffffffffffffffffffffffffffffff\n      and\n      dup2\n      mstore\n      0x20\n      add\n        /* \"prog2005-2025/lab02/gitlab-fund/contracts/FundManager.sol\":3536:3551  block.timestamp */\n      timestamp\n        /* \"prog2005-2025/lab02/gitlab-fund/contracts/FundManager.sol\":3440:3588  BountyInfo({... */\n      dup2\n      mstore\n      0x20\n      add\n        /* \"prog2005-2025/lab02/gitlab-fund/contracts/FundManager.sol\":3573:3577  true */\n      0x01\n        /* \"prog2005-2025/lab02/gitlab-fund/contracts/FundManager.sol\":3440:3588  BountyInfo({... */\n      iszero\n      iszero\n      dup2\n      mstore\n      pop\n        /* \"prog2005-2025/lab02/gitlab-fund/contracts/FundManager.sol\":3418:3428  bountyInfo */\n      0x02\n        /* \"prog2005-2025/lab02/gitlab-fund/contracts/FundManager.sol\":3418:3437  bountyInfo[toIssue] */\n      0x00\n        /* \"prog2005-2025/lab02/gitlab-fund/contracts/FundManager.sol\":3429:3436  toIssue */\n      dup7\n        /* \"prog2005-2025/lab02/gitlab-fund/contracts/FundManager.sol\":3418:3437  bountyInfo[toIssue] */\n      dup2\n      mstore\n      0x20\n      add\n      swap1\n      dup2\n      mstore\n      0x20\n      add\n      0x00\n      keccak256\n        /* \"prog2005-2025/lab02/gitlab-fund/contracts/FundManager.sol\":3418:3588  bountyInfo[toIssue] = BountyInfo({... */\n      0x00\n      dup3\n      add\n      mload\n      dup2\n      0x00\n      add\n      sstore\n      0x20\n      dup3\n      add\n      mload\n      dup2\n      0x01\n      add\n      exp(0x0100, 0x00)\n      dup2\n      sload\n      dup2\n      0xffffffffffffffffffffffffffffffffffffffff\n      mul\n      not\n      and\n      swap1\n      dup4\n      0xffffffffffffffffffffffffffffffffffffffff\n      and\n      mul\n      or\n      swap1\n      sstore\n      pop\n      0x40\n      dup3\n      add\n      mload\n      dup2\n      0x02\n      add\n      sstore\n      0x60\n      dup3\n      add\n      mload\n      dup2\n      0x03\n      add\n      exp(0x0100, 0x00)\n      dup2\n      sload\n      dup2\n      0xff\n      mul\n      not\n      and\n      swap1\n      dup4\n      iszero\n      iszero\n      mul\n      or\n      swap1\n      sstore\n      pop\n      swap1\n      pop\n      pop\n        /* \"prog2005-2025/lab02/gitlab-fund/contracts/FundManager.sol\":3632:3639  toIssue */\n      dup4\n        /* \"prog2005-2025/lab02/gitlab-fund/contracts/FundManager.sol\":3621:3630  fromIssue */\n      dup6\n        /* \"prog2005-2025/lab02/gitlab-fund/contracts/FundManager.sol\":3604:3648  FundsReallocated(fromIssue, toIssue, amount) */\n      0x9a26cfe9143af653ecb2415e29f0888de1a4a6a8711824c24e166e081e43bbec\n        /* \"prog2005-2025/lab02/gitlab-fund/contracts/FundManager.sol\":3641:3647  amount */\n      dup6\n        /* \"prog2005-2025/lab02/gitlab-fund/contracts/FundManager.sol\":3604:3648  FundsReallocated(fromIssue, toIssue, amount) */\n      mload(0x40)\n      tag_131\n      swap2\n      swap1\n      tag_39\n      jump\t// in\n    tag_131:\n      mload(0x40)\n      dup1\n      swap2\n      sub\n      swap1\n      log3\n        /* \"prog2005-2025/lab02/gitlab-fund/contracts/FundManager.sol\":2886:3655  {... */\n      pop\n        /* \"prog2005-2025/lab02/gitlab-fund/contracts/FundManager.sol\":2736:3655  function reallocateFunds(uint256 fromIssue, uint256 toIssue, uint256 amount) ... */\n      pop\n      pop\n      pop\n      pop\n      jump\t// out\n        /* \"prog2005-2025/lab02/gitlab-fund/contracts/FundManager.sol\":5301:5441  function getFunderBalance(address funder) external view override returns (uint256) {... */\n    tag_68:\n        /* \"prog2005-2025/lab02/gitlab-fund/contracts/FundManager.sol\":5375:5382  uint256 */\n      0x00\n        /* \"prog2005-2025/lab02/gitlab-fund/contracts/FundManager.sol\":5401:5411  funderInfo */\n      0x01\n        /* \"prog2005-2025/lab02/gitlab-fund/contracts/FundManager.sol\":5401:5419  funderInfo[funder] */\n      0x00\n        /* \"prog2005-2025/lab02/gitlab-fund/contracts/FundManager.sol\":5412:5418  funder */\n      dup4\n        /* \"prog2005-2025/lab02/gitlab-fund/contracts/FundManager.sol\":5401:5419  funderInfo[funder] */\n      0xffffffffffffffffffffffffffffffffffffffff\n      and\n      0xffffffffffffffffffffffffffffffffffffffff\n      and\n      dup2\n      mstore\n      0x20\n      add\n      swap1\n      dup2\n      mstore\n      0x20\n      add\n      0x00\n      keccak256\n        /* \"prog2005-2025/lab02/gitlab-fund/contracts/FundManager.sol\":5401:5434  funderInfo[funder].currentBalance */\n      0x01\n      add\n      sload\n        /* \"prog2005-2025/lab02/gitlab-fund/contracts/FundManager.sol\":5394:5434  return funderInfo[funder].currentBalance */\n      swap1\n      pop\n        /* \"prog2005-2025/lab02/gitlab-fund/contracts/FundManager.sol\":5301:5441  function getFunderBalance(address funder) external view override returns (uint256) {... */\n      swap2\n      swap1\n      pop\n      jump\t// out\n        /* \"prog2005-2025/lab02/gitlab-fund/contracts/FundManager.sol\":1215:1263  uint256 public constant MIN_DEPOSIT = 0.01 ether */\n    tag_72:\n        /* \"prog2005-2025/lab02/gitlab-fund/contracts/FundManager.sol\":1253:1263  0.01 ether */\n      0x2386f26fc10000\n        /* \"prog2005-2025/lab02/gitlab-fund/contracts/FundManager.sol\":1215:1263  uint256 public constant MIN_DEPOSIT = 0.01 ether */\n      dup2\n      jump\t// out\n        /* \"prog2005-2025/lab02/gitlab-fund/contracts/FundManager.sol\":3661:4147  function cancelBounty(uint256 issueId) external validBounty(issueId) {... */\n    tag_78:\n        /* \"prog2005-2025/lab02/gitlab-fund/contracts/FundManager.sol\":3721:3728  issueId */\n      dup1\n        /* \"prog2005-2025/lab02/gitlab-fund/contracts/FundManager.sol\":1538:1548  bountyInfo */\n      0x02\n        /* \"prog2005-2025/lab02/gitlab-fund/contracts/FundManager.sol\":1538:1557  bountyInfo[issueId] */\n      0x00\n        /* \"prog2005-2025/lab02/gitlab-fund/contracts/FundManager.sol\":1549:1556  issueId */\n      dup3\n        /* \"prog2005-2025/lab02/gitlab-fund/contracts/FundManager.sol\":1538:1557  bountyInfo[issueId] */\n      dup2\n      mstore\n      0x20\n      add\n      swap1\n      dup2\n      mstore\n      0x20\n      add\n      0x00\n      keccak256\n        /* \"prog2005-2025/lab02/gitlab-fund/contracts/FundManager.sol\":1538:1564  bountyInfo[issueId].active */\n      0x03\n      add\n      0x00\n      swap1\n      sload\n      swap1\n      0x0100\n      exp\n      swap1\n      div\n      0xff\n      and\n        /* \"prog2005-2025/lab02/gitlab-fund/contracts/FundManager.sol\":1530:1586  require(bountyInfo[issueId].active, \"Bounty not active\") */\n      tag_134\n      jumpi\n      mload(0x40)\n      0x08c379a000000000000000000000000000000000000000000000000000000000\n      dup2\n      mstore\n      0x04\n      add\n      tag_135\n      swap1\n      tag_116\n      jump\t// in\n    tag_135:\n      mload(0x40)\n      dup1\n      swap2\n      sub\n      swap1\n      revert\n    tag_134:\n        /* \"prog2005-2025/lab02/gitlab-fund/contracts/FundManager.sol\":3740:3765  BountyInfo storage bounty */\n      0x00\n        /* \"prog2005-2025/lab02/gitlab-fund/contracts/FundManager.sol\":3768:3778  bountyInfo */\n      0x02\n        /* \"prog2005-2025/lab02/gitlab-fund/contracts/FundManager.sol\":3768:3787  bountyInfo[issueId] */\n      0x00\n        /* \"prog2005-2025/lab02/gitlab-fund/contracts/FundManager.sol\":3779:3786  issueId */\n      dup5\n        /* \"prog2005-2025/lab02/gitlab-fund/contracts/FundManager.sol\":3768:3787  bountyInfo[issueId] */\n      dup2\n      mstore\n      0x20\n      add\n      swap1\n      dup2\n      mstore\n      0x20\n      add\n      0x00\n      keccak256\n        /* \"prog2005-2025/lab02/gitlab-fund/contracts/FundManager.sol\":3740:3787  BountyInfo storage bounty = bountyInfo[issueId] */\n      swap1\n      pop\n        /* \"prog2005-2025/lab02/gitlab-fund/contracts/FundManager.sol\":3819:3825  bounty */\n      dup1\n        /* \"prog2005-2025/lab02/gitlab-fund/contracts/FundManager.sol\":3819:3832  bounty.funder */\n      0x01\n      add\n      0x00\n      swap1\n      sload\n      swap1\n      0x0100\n      exp\n      swap1\n      div\n      0xffffffffffffffffffffffffffffffffffffffff\n      and\n        /* \"prog2005-2025/lab02/gitlab-fund/contracts/FundManager.sol\":3805:3832  msg.sender == bounty.funder */\n      0xffffffffffffffffffffffffffffffffffffffff\n      and\n        /* \"prog2005-2025/lab02/gitlab-fund/contracts/FundManager.sol\":3805:3815  msg.sender */\n      caller\n        /* \"prog2005-2025/lab02/gitlab-fund/contracts/FundManager.sol\":3805:3832  msg.sender == bounty.funder */\n      0xffffffffffffffffffffffffffffffffffffffff\n      and\n      eq\n        /* \"prog2005-2025/lab02/gitlab-fund/contracts/FundManager.sol\":3797:3854  require(msg.sender == bounty.funder, \"Not bounty funder\") */\n      tag_137\n      jumpi\n      mload(0x40)\n      0x08c379a000000000000000000000000000000000000000000000000000000000\n      dup2\n      mstore\n      0x04\n      add\n      tag_138\n      swap1\n      tag_120\n      jump\t// in\n    tag_138:\n      mload(0x40)\n      dup1\n      swap2\n      sub\n      swap1\n      revert\n    tag_137:\n        /* \"prog2005-2025/lab02/gitlab-fund/contracts/FundManager.sol\":3873:3898  FunderInfo storage funder */\n      0x00\n        /* \"prog2005-2025/lab02/gitlab-fund/contracts/FundManager.sol\":3901:3911  funderInfo */\n      0x01\n        /* \"prog2005-2025/lab02/gitlab-fund/contracts/FundManager.sol\":3901:3923  funderInfo[msg.sender] */\n      0x00\n        /* \"prog2005-2025/lab02/gitlab-fund/contracts/FundManager.sol\":3912:3922  msg.sender */\n      caller\n        /* \"prog2005-2025/lab02/gitlab-fund/contracts/FundManager.sol\":3901:3923  funderInfo[msg.sender] */\n      0xffffffffffffffffffffffffffffffffffffffff\n      and\n      0xffffffffffffffffffffffffffffffffffffffff\n      and\n      dup2\n      mstore\n      0x20\n      add\n      swap1\n      dup2\n      mstore\n      0x20\n      add\n      0x00\n      keccak256\n        /* \"prog2005-2025/lab02/gitlab-fund/contracts/FundManager.sol\":3873:3923  FunderInfo storage funder = funderInfo[msg.sender] */\n      swap1\n      pop\n        /* \"prog2005-2025/lab02/gitlab-fund/contracts/FundManager.sol\":3958:3964  bounty */\n      dup2\n        /* \"prog2005-2025/lab02/gitlab-fund/contracts/FundManager.sol\":3958:3971  bounty.amount */\n      0x00\n      add\n      sload\n        /* \"prog2005-2025/lab02/gitlab-fund/contracts/FundManager.sol\":3933:3939  funder */\n      dup2\n        /* \"prog2005-2025/lab02/gitlab-fund/contracts/FundManager.sol\":3933:3954  funder.currentBalance */\n      0x01\n      add\n      0x00\n        /* \"prog2005-2025/lab02/gitlab-fund/contracts/FundManager.sol\":3933:3971  funder.currentBalance += bounty.amount */\n      dup3\n      dup3\n      sload\n      tag_139\n      swap2\n      swap1\n      tag_89\n      jump\t// in\n    tag_139:\n      swap3\n      pop\n      pop\n      dup2\n      swap1\n      sstore\n      pop\n        /* \"prog2005-2025/lab02/gitlab-fund/contracts/FundManager.sol\":4006:4012  bounty */\n      dup2\n        /* \"prog2005-2025/lab02/gitlab-fund/contracts/FundManager.sol\":4006:4019  bounty.amount */\n      0x00\n      add\n      sload\n        /* \"prog2005-2025/lab02/gitlab-fund/contracts/FundManager.sol\":3981:3987  funder */\n      dup2\n        /* \"prog2005-2025/lab02/gitlab-fund/contracts/FundManager.sol\":3981:4002  funder.totalAllocated */\n      0x02\n      add\n      0x00\n        /* \"prog2005-2025/lab02/gitlab-fund/contracts/FundManager.sol\":3981:4019  funder.totalAllocated -= bounty.amount */\n      dup3\n      dup3\n      sload\n      tag_140\n      swap2\n      swap1\n      tag_105\n      jump\t// in\n    tag_140:\n      swap3\n      pop\n      pop\n      dup2\n      swap1\n      sstore\n      pop\n        /* \"prog2005-2025/lab02/gitlab-fund/contracts/FundManager.sol\":4029:4035  funder */\n      dup1\n        /* \"prog2005-2025/lab02/gitlab-fund/contracts/FundManager.sol\":4029:4050  funder.activeBounties */\n      0x03\n      add\n      0x00\n        /* \"prog2005-2025/lab02/gitlab-fund/contracts/FundManager.sol\":4029:4052  funder.activeBounties-- */\n      dup2\n      sload\n      dup1\n      swap3\n      swap2\n      swap1\n      tag_141\n      swap1\n      tag_130\n      jump\t// in\n    tag_141:\n      swap2\n      swap1\n      pop\n      sstore\n      pop\n        /* \"prog2005-2025/lab02/gitlab-fund/contracts/FundManager.sol\":4087:4092  false */\n      0x00\n        /* \"prog2005-2025/lab02/gitlab-fund/contracts/FundManager.sol\":4071:4077  bounty */\n      dup3\n        /* \"prog2005-2025/lab02/gitlab-fund/contracts/FundManager.sol\":4071:4084  bounty.active */\n      0x03\n      add\n      0x00\n        /* \"prog2005-2025/lab02/gitlab-fund/contracts/FundManager.sol\":4071:4092  bounty.active = false */\n      0x0100\n      exp\n      dup2\n      sload\n      dup2\n      0xff\n      mul\n      not\n      and\n      swap1\n      dup4\n      iszero\n      iszero\n      mul\n      or\n      swap1\n      sstore\n      pop\n        /* \"prog2005-2025/lab02/gitlab-fund/contracts/FundManager.sol\":4132:4139  issueId */\n      dup4\n        /* \"prog2005-2025/lab02/gitlab-fund/contracts/FundManager.sol\":4116:4140  BountyCancelled(issueId) */\n      0x92717314c0b0f9d632e1d46a0b8437778ff9daee1db8ec295f2bc0b57c4bcaac\n      mload(0x40)\n      mload(0x40)\n      dup1\n      swap2\n      sub\n      swap1\n      log2\n        /* \"prog2005-2025/lab02/gitlab-fund/contracts/FundManager.sol\":3730:4147  {... */\n      pop\n      pop\n        /* \"prog2005-2025/lab02/gitlab-fund/contracts/FundManager.sol\":3661:4147  function cancelBounty(uint256 issueId) external validBounty(issueId) {... */\n      pop\n      pop\n      jump\t// out\n        /* \"prog2005-2025/lab02/gitlab-fund/contracts/FundManager.sol\":4629:5036  function getBountyDetails(uint256 issueId)... */\n    tag_82:\n        /* \"prog2005-2025/lab02/gitlab-fund/contracts/FundManager.sol\":4732:4746  uint256 amount */\n      0x00\n        /* \"prog2005-2025/lab02/gitlab-fund/contracts/FundManager.sol\":4760:4774  address funder */\n      dup1\n        /* \"prog2005-2025/lab02/gitlab-fund/contracts/FundManager.sol\":4788:4805  uint256 createdAt */\n      0x00\n        /* \"prog2005-2025/lab02/gitlab-fund/contracts/FundManager.sol\":4819:4830  bool active */\n      dup1\n        /* \"prog2005-2025/lab02/gitlab-fund/contracts/FundManager.sol\":4855:4877  BountyInfo memory info */\n      0x00\n        /* \"prog2005-2025/lab02/gitlab-fund/contracts/FundManager.sol\":4880:4890  bountyInfo */\n      0x02\n        /* \"prog2005-2025/lab02/gitlab-fund/contracts/FundManager.sol\":4880:4899  bountyInfo[issueId] */\n      0x00\n        /* \"prog2005-2025/lab02/gitlab-fund/contracts/FundManager.sol\":4891:4898  issueId */\n      dup8\n        /* \"prog2005-2025/lab02/gitlab-fund/contracts/FundManager.sol\":4880:4899  bountyInfo[issueId] */\n      dup2\n      mstore\n      0x20\n      add\n      swap1\n      dup2\n      mstore\n      0x20\n      add\n      0x00\n      keccak256\n        /* \"prog2005-2025/lab02/gitlab-fund/contracts/FundManager.sol\":4855:4899  BountyInfo memory info = bountyInfo[issueId] */\n      mload(0x40)\n      dup1\n      0x80\n      add\n      0x40\n      mstore\n      swap1\n      dup2\n      0x00\n      dup3\n      add\n      sload\n      dup2\n      mstore\n      0x20\n      add\n      0x01\n      dup3\n      add\n      0x00\n      swap1\n      sload\n      swap1\n      0x0100\n      exp\n      swap1\n      div\n      0xffffffffffffffffffffffffffffffffffffffff\n      and\n      0xffffffffffffffffffffffffffffffffffffffff\n      and\n      0xffffffffffffffffffffffffffffffffffffffff\n      and\n      dup2\n      mstore\n      0x20\n      add\n      0x02\n      dup3\n      add\n      sload\n      dup2\n      mstore\n      0x20\n      add\n      0x03\n      dup3\n      add\n      0x00\n      swap1\n      sload\n      swap1\n      0x0100\n      exp\n      swap1\n      div\n      0xff\n      and\n      iszero\n      iszero\n      iszero\n      iszero\n      dup2\n      mstore\n      pop\n      pop\n      swap1\n      pop\n        /* \"prog2005-2025/lab02/gitlab-fund/contracts/FundManager.sol\":4930:4934  info */\n      dup1\n        /* \"prog2005-2025/lab02/gitlab-fund/contracts/FundManager.sol\":4930:4941  info.amount */\n      0x00\n      add\n      mload\n        /* \"prog2005-2025/lab02/gitlab-fund/contracts/FundManager.sol\":4955:4959  info */\n      dup2\n        /* \"prog2005-2025/lab02/gitlab-fund/contracts/FundManager.sol\":4955:4966  info.funder */\n      0x20\n      add\n      mload\n        /* \"prog2005-2025/lab02/gitlab-fund/contracts/FundManager.sol\":4980:4984  info */\n      dup3\n        /* \"prog2005-2025/lab02/gitlab-fund/contracts/FundManager.sol\":4980:4994  info.createdAt */\n      0x40\n      add\n      mload\n        /* \"prog2005-2025/lab02/gitlab-fund/contracts/FundManager.sol\":5008:5012  info */\n      dup4\n        /* \"prog2005-2025/lab02/gitlab-fund/contracts/FundManager.sol\":5008:5019  info.active */\n      0x60\n      add\n      mload\n        /* \"prog2005-2025/lab02/gitlab-fund/contracts/FundManager.sol\":4909:5029  return (... */\n      swap5\n      pop\n      swap5\n      pop\n      swap5\n      pop\n      swap5\n      pop\n      pop\n        /* \"prog2005-2025/lab02/gitlab-fund/contracts/FundManager.sol\":4629:5036  function getBountyDetails(uint256 issueId)... */\n      swap2\n      swap4\n      pop\n      swap2\n      swap4\n      jump\t// out\n        /* \"#utility.yul\":88:205   */\n    tag_144:\n        /* \"#utility.yul\":197:198   */\n      0x00\n        /* \"#utility.yul\":194:195   */\n      dup1\n        /* \"#utility.yul\":187:199   */\n      revert\n        /* \"#utility.yul\":334:411   */\n    tag_146:\n        /* \"#utility.yul\":371:378   */\n      0x00\n        /* \"#utility.yul\":400:405   */\n      dup2\n        /* \"#utility.yul\":389:405   */\n      swap1\n      pop\n        /* \"#utility.yul\":334:411   */\n      swap2\n      swap1\n      pop\n      jump\t// out\n        /* \"#utility.yul\":417:539   */\n    tag_147:\n        /* \"#utility.yul\":490:514   */\n      tag_181\n        /* \"#utility.yul\":508:513   */\n      dup2\n        /* \"#utility.yul\":490:514   */\n      tag_146\n      jump\t// in\n    tag_181:\n        /* \"#utility.yul\":483:488   */\n      dup2\n        /* \"#utility.yul\":480:515   */\n      eq\n        /* \"#utility.yul\":470:533   */\n      tag_182\n      jumpi\n        /* \"#utility.yul\":529:530   */\n      0x00\n        /* \"#utility.yul\":526:527   */\n      dup1\n        /* \"#utility.yul\":519:531   */\n      revert\n        /* \"#utility.yul\":470:533   */\n    tag_182:\n        /* \"#utility.yul\":417:539   */\n      pop\n      jump\t// out\n        /* \"#utility.yul\":545:684   */\n    tag_148:\n        /* \"#utility.yul\":591:596   */\n      0x00\n        /* \"#utility.yul\":629:635   */\n      dup2\n        /* \"#utility.yul\":616:636   */\n      calldataload\n        /* \"#utility.yul\":607:636   */\n      swap1\n      pop\n        /* \"#utility.yul\":645:678   */\n      tag_184\n        /* \"#utility.yul\":672:677   */\n      dup2\n        /* \"#utility.yul\":645:678   */\n      tag_147\n      jump\t// in\n    tag_184:\n        /* \"#utility.yul\":545:684   */\n      swap3\n      swap2\n      pop\n      pop\n      jump\t// out\n        /* \"#utility.yul\":690:1019   */\n    tag_25:\n        /* \"#utility.yul\":749:755   */\n      0x00\n        /* \"#utility.yul\":798:800   */\n      0x20\n        /* \"#utility.yul\":786:795   */\n      dup3\n        /* \"#utility.yul\":777:784   */\n      dup5\n        /* \"#utility.yul\":773:796   */\n      sub\n        /* \"#utility.yul\":769:801   */\n      slt\n        /* \"#utility.yul\":766:885   */\n      iszero\n      tag_186\n      jumpi\n        /* \"#utility.yul\":804:883   */\n      tag_187\n      tag_144\n      jump\t// in\n    tag_187:\n        /* \"#utility.yul\":766:885   */\n    tag_186:\n        /* \"#utility.yul\":924:925   */\n      0x00\n        /* \"#utility.yul\":949:1002   */\n      tag_188\n        /* \"#utility.yul\":994:1001   */\n      dup5\n        /* \"#utility.yul\":985:991   */\n      dup3\n        /* \"#utility.yul\":974:983   */\n      dup6\n        /* \"#utility.yul\":970:992   */\n      add\n        /* \"#utility.yul\":949:1002   */\n      tag_148\n      jump\t// in\n    tag_188:\n        /* \"#utility.yul\":939:1002   */\n      swap2\n      pop\n        /* \"#utility.yul\":895:1012   */\n      pop\n        /* \"#utility.yul\":690:1019   */\n      swap3\n      swap2\n      pop\n      pop\n      jump\t// out\n        /* \"#utility.yul\":1025:1143   */\n    tag_149:\n        /* \"#utility.yul\":1112:1136   */\n      tag_190\n        /* \"#utility.yul\":1130:1135   */\n      dup2\n        /* \"#utility.yul\":1112:1136   */\n      tag_146\n      jump\t// in\n    tag_190:\n        /* \"#utility.yul\":1107:1110   */\n      dup3\n        /* \"#utility.yul\":1100:1137   */\n      mstore\n        /* \"#utility.yul\":1025:1143   */\n      pop\n      pop\n      jump\t// out\n        /* \"#utility.yul\":1149:1275   */\n    tag_150:\n        /* \"#utility.yul\":1186:1193   */\n      0x00\n        /* \"#utility.yul\":1226:1268   */\n      0xffffffffffffffffffffffffffffffffffffffff\n        /* \"#utility.yul\":1219:1224   */\n      dup3\n        /* \"#utility.yul\":1215:1269   */\n      and\n        /* \"#utility.yul\":1204:1269   */\n      swap1\n      pop\n        /* \"#utility.yul\":1149:1275   */\n      swap2\n      swap1\n      pop\n      jump\t// out\n        /* \"#utility.yul\":1281:1377   */\n    tag_151:\n        /* \"#utility.yul\":1318:1325   */\n      0x00\n        /* \"#utility.yul\":1347:1371   */\n      tag_193\n        /* \"#utility.yul\":1365:1370   */\n      dup3\n        /* \"#utility.yul\":1347:1371   */\n      tag_150\n      jump\t// in\n    tag_193:\n        /* \"#utility.yul\":1336:1371   */\n      swap1\n      pop\n        /* \"#utility.yul\":1281:1377   */\n      swap2\n      swap1\n      pop\n      jump\t// out\n        /* \"#utility.yul\":1383:1501   */\n    tag_152:\n        /* \"#utility.yul\":1470:1494   */\n      tag_195\n        /* \"#utility.yul\":1488:1493   */\n      dup2\n        /* \"#utility.yul\":1470:1494   */\n      tag_151\n      jump\t// in\n    tag_195:\n        /* \"#utility.yul\":1465:1468   */\n      dup3\n        /* \"#utility.yul\":1458:1495   */\n      mstore\n        /* \"#utility.yul\":1383:1501   */\n      pop\n      pop\n      jump\t// out\n        /* \"#utility.yul\":1507:1597   */\n    tag_153:\n        /* \"#utility.yul\":1541:1548   */\n      0x00\n        /* \"#utility.yul\":1584:1589   */\n      dup2\n        /* \"#utility.yul\":1577:1590   */\n      iszero\n        /* \"#utility.yul\":1570:1591   */\n      iszero\n        /* \"#utility.yul\":1559:1591   */\n      swap1\n      pop\n        /* \"#utility.yul\":1507:1597   */\n      swap2\n      swap1\n      pop\n      jump\t// out\n        /* \"#utility.yul\":1603:1712   */\n    tag_154:\n        /* \"#utility.yul\":1684:1705   */\n      tag_198\n        /* \"#utility.yul\":1699:1704   */\n      dup2\n        /* \"#utility.yul\":1684:1705   */\n      tag_153\n      jump\t// in\n    tag_198:\n        /* \"#utility.yul\":1679:1682   */\n      dup3\n        /* \"#utility.yul\":1672:1706   */\n      mstore\n        /* \"#utility.yul\":1603:1712   */\n      pop\n      pop\n      jump\t// out\n        /* \"#utility.yul\":1718:2259   */\n    tag_28:\n        /* \"#utility.yul\":1889:1893   */\n      0x00\n        /* \"#utility.yul\":1927:1930   */\n      0x80\n        /* \"#utility.yul\":1916:1925   */\n      dup3\n        /* \"#utility.yul\":1912:1931   */\n      add\n        /* \"#utility.yul\":1904:1931   */\n      swap1\n      pop\n        /* \"#utility.yul\":1941:2012   */\n      tag_200\n        /* \"#utility.yul\":2009:2010   */\n      0x00\n        /* \"#utility.yul\":1998:2007   */\n      dup4\n        /* \"#utility.yul\":1994:2011   */\n      add\n        /* \"#utility.yul\":1985:1991   */\n      dup8\n        /* \"#utility.yul\":1941:2012   */\n      tag_149\n      jump\t// in\n    tag_200:\n        /* \"#utility.yul\":2022:2094   */\n      tag_201\n        /* \"#utility.yul\":2090:2092   */\n      0x20\n        /* \"#utility.yul\":2079:2088   */\n      dup4\n        /* \"#utility.yul\":2075:2093   */\n      add\n        /* \"#utility.yul\":2066:2072   */\n      dup7\n        /* \"#utility.yul\":2022:2094   */\n      tag_152\n      jump\t// in\n    tag_201:\n        /* \"#utility.yul\":2104:2176   */\n      tag_202\n        /* \"#utility.yul\":2172:2174   */\n      0x40\n        /* \"#utility.yul\":2161:2170   */\n      dup4\n        /* \"#utility.yul\":2157:2175   */\n      add\n        /* \"#utility.yul\":2148:2154   */\n      dup6\n        /* \"#utility.yul\":2104:2176   */\n      tag_149\n      jump\t// in\n    tag_202:\n        /* \"#utility.yul\":2186:2252   */\n      tag_203\n        /* \"#utility.yul\":2248:2250   */\n      0x60\n        /* \"#utility.yul\":2237:2246   */\n      dup4\n        /* \"#utility.yul\":2233:2251   */\n      add\n        /* \"#utility.yul\":2224:2230   */\n      dup5\n        /* \"#utility.yul\":2186:2252   */\n      tag_154\n      jump\t// in\n    tag_203:\n        /* \"#utility.yul\":1718:2259   */\n      swap6\n      swap5\n      pop\n      pop\n      pop\n      pop\n      pop\n      jump\t// out\n        /* \"#utility.yul\":2265:2739   */\n    tag_32:\n        /* \"#utility.yul\":2333:2339   */\n      0x00\n        /* \"#utility.yul\":2341:2347   */\n      dup1\n        /* \"#utility.yul\":2390:2392   */\n      0x40\n        /* \"#utility.yul\":2378:2387   */\n      dup4\n        /* \"#utility.yul\":2369:2376   */\n      dup6\n        /* \"#utility.yul\":2365:2388   */\n      sub\n        /* \"#utility.yul\":2361:2393   */\n      slt\n        /* \"#utility.yul\":2358:2477   */\n      iszero\n      tag_205\n      jumpi\n        /* \"#utility.yul\":2396:2475   */\n      tag_206\n      tag_144\n      jump\t// in\n    tag_206:\n        /* \"#utility.yul\":2358:2477   */\n    tag_205:\n        /* \"#utility.yul\":2516:2517   */\n      0x00\n        /* \"#utility.yul\":2541:2594   */\n      tag_207\n        /* \"#utility.yul\":2586:2593   */\n      dup6\n        /* \"#utility.yul\":2577:2583   */\n      dup3\n        /* \"#utility.yul\":2566:2575   */\n      dup7\n        /* \"#utility.yul\":2562:2584   */\n      add\n        /* \"#utility.yul\":2541:2594   */\n      tag_148\n      jump\t// in\n    tag_207:\n        /* \"#utility.yul\":2531:2594   */\n      swap3\n      pop\n        /* \"#utility.yul\":2487:2604   */\n      pop\n        /* \"#utility.yul\":2643:2645   */\n      0x20\n        /* \"#utility.yul\":2669:2722   */\n      tag_208\n        /* \"#utility.yul\":2714:2721   */\n      dup6\n        /* \"#utility.yul\":2705:2711   */\n      dup3\n        /* \"#utility.yul\":2694:2703   */\n      dup7\n        /* \"#utility.yul\":2690:2712   */\n      add\n        /* \"#utility.yul\":2669:2722   */\n      tag_148\n      jump\t// in\n    tag_208:\n        /* \"#utility.yul\":2659:2722   */\n      swap2\n      pop\n        /* \"#utility.yul\":2614:2732   */\n      pop\n        /* \"#utility.yul\":2265:2739   */\n      swap3\n      pop\n      swap3\n      swap1\n      pop\n      jump\t// out\n        /* \"#utility.yul\":2745:2967   */\n    tag_39:\n        /* \"#utility.yul\":2838:2842   */\n      0x00\n        /* \"#utility.yul\":2876:2878   */\n      0x20\n        /* \"#utility.yul\":2865:2874   */\n      dup3\n        /* \"#utility.yul\":2861:2879   */\n      add\n        /* \"#utility.yul\":2853:2879   */\n      swap1\n      pop\n        /* \"#utility.yul\":2889:2960   */\n      tag_210\n        /* \"#utility.yul\":2957:2958   */\n      0x00\n        /* \"#utility.yul\":2946:2955   */\n      dup4\n        /* \"#utility.yul\":2942:2959   */\n      add\n        /* \"#utility.yul\":2933:2939   */\n      dup5\n        /* \"#utility.yul\":2889:2960   */\n      tag_149\n      jump\t// in\n    tag_210:\n        /* \"#utility.yul\":2745:2967   */\n      swap3\n      swap2\n      pop\n      pop\n      jump\t// out\n        /* \"#utility.yul\":2973:3095   */\n    tag_155:\n        /* \"#utility.yul\":3046:3070   */\n      tag_212\n        /* \"#utility.yul\":3064:3069   */\n      dup2\n        /* \"#utility.yul\":3046:3070   */\n      tag_151\n      jump\t// in\n    tag_212:\n        /* \"#utility.yul\":3039:3044   */\n      dup2\n        /* \"#utility.yul\":3036:3071   */\n      eq\n        /* \"#utility.yul\":3026:3089   */\n      tag_213\n      jumpi\n        /* \"#utility.yul\":3085:3086   */\n      0x00\n        /* \"#utility.yul\":3082:3083   */\n      dup1\n        /* \"#utility.yul\":3075:3087   */\n      revert\n        /* \"#utility.yul\":3026:3089   */\n    tag_213:\n        /* \"#utility.yul\":2973:3095   */\n      pop\n      jump\t// out\n        /* \"#utility.yul\":3101:3240   */\n    tag_156:\n        /* \"#utility.yul\":3147:3152   */\n      0x00\n        /* \"#utility.yul\":3185:3191   */\n      dup2\n        /* \"#utility.yul\":3172:3192   */\n      calldataload\n        /* \"#utility.yul\":3163:3192   */\n      swap1\n      pop\n        /* \"#utility.yul\":3201:3234   */\n      tag_215\n        /* \"#utility.yul\":3228:3233   */\n      dup2\n        /* \"#utility.yul\":3201:3234   */\n      tag_155\n      jump\t// in\n    tag_215:\n        /* \"#utility.yul\":3101:3240   */\n      swap3\n      swap2\n      pop\n      pop\n      jump\t// out\n        /* \"#utility.yul\":3246:3575   */\n    tag_47:\n        /* \"#utility.yul\":3305:3311   */\n      0x00\n        /* \"#utility.yul\":3354:3356   */\n      0x20\n        /* \"#utility.yul\":3342:3351   */\n      dup3\n        /* \"#utility.yul\":3333:3340   */\n      dup5\n        /* \"#utility.yul\":3329:3352   */\n      sub\n        /* \"#utility.yul\":3325:3357   */\n      slt\n        /* \"#utility.yul\":3322:3441   */\n      iszero\n      tag_217\n      jumpi\n        /* \"#utility.yul\":3360:3439   */\n      tag_218\n      tag_144\n      jump\t// in\n    tag_218:\n        /* \"#utility.yul\":3322:3441   */\n    tag_217:\n        /* \"#utility.yul\":3480:3481   */\n      0x00\n        /* \"#utility.yul\":3505:3558   */\n      tag_219\n        /* \"#utility.yul\":3550:3557   */\n      dup5\n        /* \"#utility.yul\":3541:3547   */\n      dup3\n        /* \"#utility.yul\":3530:3539   */\n      dup6\n        /* \"#utility.yul\":3526:3548   */\n      add\n        /* \"#utility.yul\":3505:3558   */\n      tag_156\n      jump\t// in\n    tag_219:\n        /* \"#utility.yul\":3495:3558   */\n      swap2\n      pop\n        /* \"#utility.yul\":3451:3568   */\n      pop\n        /* \"#utility.yul\":3246:3575   */\n      swap3\n      swap2\n      pop\n      pop\n      jump\t// out\n        /* \"#utility.yul\":3581:4134   */\n    tag_50:\n        /* \"#utility.yul\":3758:3762   */\n      0x00\n        /* \"#utility.yul\":3796:3799   */\n      0x80\n        /* \"#utility.yul\":3785:3794   */\n      dup3\n        /* \"#utility.yul\":3781:3800   */\n      add\n        /* \"#utility.yul\":3773:3800   */\n      swap1\n      pop\n        /* \"#utility.yul\":3810:3881   */\n      tag_221\n        /* \"#utility.yul\":3878:3879   */\n      0x00\n        /* \"#utility.yul\":3867:3876   */\n      dup4\n        /* \"#utility.yul\":3863:3880   */\n      add\n        /* \"#utility.yul\":3854:3860   */\n      dup8\n        /* \"#utility.yul\":3810:3881   */\n      tag_149\n      jump\t// in\n    tag_221:\n        /* \"#utility.yul\":3891:3963   */\n      tag_222\n        /* \"#utility.yul\":3959:3961   */\n      0x20\n        /* \"#utility.yul\":3948:3957   */\n      dup4\n        /* \"#utility.yul\":3944:3962   */\n      add\n        /* \"#utility.yul\":3935:3941   */\n      dup7\n        /* \"#utility.yul\":3891:3963   */\n      tag_149\n      jump\t// in\n    tag_222:\n        /* \"#utility.yul\":3973:4045   */\n      tag_223\n        /* \"#utility.yul\":4041:4043   */\n      0x40\n        /* \"#utility.yul\":4030:4039   */\n      dup4\n        /* \"#utility.yul\":4026:4044   */\n      add\n        /* \"#utility.yul\":4017:4023   */\n      dup6\n        /* \"#utility.yul\":3973:4045   */\n      tag_149\n      jump\t// in\n    tag_223:\n        /* \"#utility.yul\":4055:4127   */\n      tag_224\n        /* \"#utility.yul\":4123:4125   */\n      0x60\n        /* \"#utility.yul\":4112:4121   */\n      dup4\n        /* \"#utility.yul\":4108:4126   */\n      add\n        /* \"#utility.yul\":4099:4105   */\n      dup5\n        /* \"#utility.yul\":4055:4127   */\n      tag_149\n      jump\t// in\n    tag_224:\n        /* \"#utility.yul\":3581:4134   */\n      swap6\n      swap5\n      pop\n      pop\n      pop\n      pop\n      pop\n      jump\t// out\n        /* \"#utility.yul\":4140:4759   */\n    tag_63:\n        /* \"#utility.yul\":4217:4223   */\n      0x00\n        /* \"#utility.yul\":4225:4231   */\n      dup1\n        /* \"#utility.yul\":4233:4239   */\n      0x00\n        /* \"#utility.yul\":4282:4284   */\n      0x60\n        /* \"#utility.yul\":4270:4279   */\n      dup5\n        /* \"#utility.yul\":4261:4268   */\n      dup7\n        /* \"#utility.yul\":4257:4280   */\n      sub\n        /* \"#utility.yul\":4253:4285   */\n      slt\n        /* \"#utility.yul\":4250:4369   */\n      iszero\n      tag_226\n      jumpi\n        /* \"#utility.yul\":4288:4367   */\n      tag_227\n      tag_144\n      jump\t// in\n    tag_227:\n        /* \"#utility.yul\":4250:4369   */\n    tag_226:\n        /* \"#utility.yul\":4408:4409   */\n      0x00\n        /* \"#utility.yul\":4433:4486   */\n      tag_228\n        /* \"#utility.yul\":4478:4485   */\n      dup7\n        /* \"#utility.yul\":4469:4475   */\n      dup3\n        /* \"#utility.yul\":4458:4467   */\n      dup8\n        /* \"#utility.yul\":4454:4476   */\n      add\n        /* \"#utility.yul\":4433:4486   */\n      tag_148\n      jump\t// in\n    tag_228:\n        /* \"#utility.yul\":4423:4486   */\n      swap4\n      pop\n        /* \"#utility.yul\":4379:4496   */\n      pop\n        /* \"#utility.yul\":4535:4537   */\n      0x20\n        /* \"#utility.yul\":4561:4614   */\n      tag_229\n        /* \"#utility.yul\":4606:4613   */\n      dup7\n        /* \"#utility.yul\":4597:4603   */\n      dup3\n        /* \"#utility.yul\":4586:4595   */\n      dup8\n        /* \"#utility.yul\":4582:4604   */\n      add\n        /* \"#utility.yul\":4561:4614   */\n      tag_148\n      jump\t// in\n    tag_229:\n        /* \"#utility.yul\":4551:4614   */\n      swap3\n      pop\n        /* \"#utility.yul\":4506:4624   */\n      pop\n        /* \"#utility.yul\":4663:4665   */\n      0x40\n        /* \"#utility.yul\":4689:4742   */\n      tag_230\n        /* \"#utility.yul\":4734:4741   */\n      dup7\n        /* \"#utility.yul\":4725:4731   */\n      dup3\n        /* \"#utility.yul\":4714:4723   */\n      dup8\n        /* \"#utility.yul\":4710:4732   */\n      add\n        /* \"#utility.yul\":4689:4742   */\n      tag_148\n      jump\t// in\n    tag_230:\n        /* \"#utility.yul\":4679:4742   */\n      swap2\n      pop\n        /* \"#utility.yul\":4634:4752   */\n      pop\n        /* \"#utility.yul\":4140:4759   */\n      swap3\n      pop\n      swap3\n      pop\n      swap3\n      jump\t// out\n        /* \"#utility.yul\":4765:4934   */\n    tag_157:\n        /* \"#utility.yul\":4849:4860   */\n      0x00\n        /* \"#utility.yul\":4883:4889   */\n      dup3\n        /* \"#utility.yul\":4878:4881   */\n      dup3\n        /* \"#utility.yul\":4871:4890   */\n      mstore\n        /* \"#utility.yul\":4923:4927   */\n      0x20\n        /* \"#utility.yul\":4918:4921   */\n      dup3\n        /* \"#utility.yul\":4914:4928   */\n      add\n        /* \"#utility.yul\":4899:4928   */\n      swap1\n      pop\n        /* \"#utility.yul\":4765:4934   */\n      swap3\n      swap2\n      pop\n      pop\n      jump\t// out\n        /* \"#utility.yul\":4940:5107   */\n    tag_158:\n        /* \"#utility.yul\":5080:5099   */\n      0x4465706f73697420746f6f20736d616c6c000000000000000000000000000000\n        /* \"#utility.yul\":5076:5077   */\n      0x00\n        /* \"#utility.yul\":5068:5074   */\n      dup3\n        /* \"#utility.yul\":5064:5078   */\n      add\n        /* \"#utility.yul\":5057:5100   */\n      mstore\n        /* \"#utility.yul\":4940:5107   */\n      pop\n      jump\t// out\n        /* \"#utility.yul\":5113:5479   */\n    tag_159:\n        /* \"#utility.yul\":5255:5258   */\n      0x00\n        /* \"#utility.yul\":5276:5343   */\n      tag_234\n        /* \"#utility.yul\":5340:5342   */\n      0x11\n        /* \"#utility.yul\":5335:5338   */\n      dup4\n        /* \"#utility.yul\":5276:5343   */\n      tag_157\n      jump\t// in\n    tag_234:\n        /* \"#utility.yul\":5269:5343   */\n      swap2\n      pop\n        /* \"#utility.yul\":5352:5445   */\n      tag_235\n        /* \"#utility.yul\":5441:5444   */\n      dup3\n        /* \"#utility.yul\":5352:5445   */\n      tag_158\n      jump\t// in\n    tag_235:\n        /* \"#utility.yul\":5470:5472   */\n      0x20\n        /* \"#utility.yul\":5465:5468   */\n      dup3\n        /* \"#utility.yul\":5461:5473   */\n      add\n        /* \"#utility.yul\":5454:5473   */\n      swap1\n      pop\n        /* \"#utility.yul\":5113:5479   */\n      swap2\n      swap1\n      pop\n      jump\t// out\n        /* \"#utility.yul\":5485:5904   */\n    tag_87:\n        /* \"#utility.yul\":5651:5655   */\n      0x00\n        /* \"#utility.yul\":5689:5691   */\n      0x20\n        /* \"#utility.yul\":5678:5687   */\n      dup3\n        /* \"#utility.yul\":5674:5692   */\n      add\n        /* \"#utility.yul\":5666:5692   */\n      swap1\n      pop\n        /* \"#utility.yul\":5738:5747   */\n      dup2\n        /* \"#utility.yul\":5732:5736   */\n      dup2\n        /* \"#utility.yul\":5728:5748   */\n      sub\n        /* \"#utility.yul\":5724:5725   */\n      0x00\n        /* \"#utility.yul\":5713:5722   */\n      dup4\n        /* \"#utility.yul\":5709:5726   */\n      add\n        /* \"#utility.yul\":5702:5749   */\n      mstore\n        /* \"#utility.yul\":5766:5897   */\n      tag_237\n        /* \"#utility.yul\":5892:5896   */\n      dup2\n        /* \"#utility.yul\":5766:5897   */\n      tag_159\n      jump\t// in\n    tag_237:\n        /* \"#utility.yul\":5758:5897   */\n      swap1\n      pop\n        /* \"#utility.yul\":5485:5904   */\n      swap2\n      swap1\n      pop\n      jump\t// out\n        /* \"#utility.yul\":5910:6090   */\n    tag_160:\n        /* \"#utility.yul\":5958:6035   */\n      0x4e487b7100000000000000000000000000000000000000000000000000000000\n        /* \"#utility.yul\":5955:5956   */\n      0x00\n        /* \"#utility.yul\":5948:6036   */\n      mstore\n        /* \"#utility.yul\":6055:6059   */\n      0x11\n        /* \"#utility.yul\":6052:6053   */\n      0x04\n        /* \"#utility.yul\":6045:6060   */\n      mstore\n        /* \"#utility.yul\":6079:6083   */\n      0x24\n        /* \"#utility.yul\":6076:6077   */\n      0x00\n        /* \"#utility.yul\":6069:6084   */\n      revert\n        /* \"#utility.yul\":6096:6287   */\n    tag_89:\n        /* \"#utility.yul\":6136:6139   */\n      0x00\n        /* \"#utility.yul\":6155:6175   */\n      tag_240\n        /* \"#utility.yul\":6173:6174   */\n      dup3\n        /* \"#utility.yul\":6155:6175   */\n      tag_146\n      jump\t// in\n    tag_240:\n        /* \"#utility.yul\":6150:6175   */\n      swap2\n      pop\n        /* \"#utility.yul\":6189:6209   */\n      tag_241\n        /* \"#utility.yul\":6207:6208   */\n      dup4\n        /* \"#utility.yul\":6189:6209   */\n      tag_146\n      jump\t// in\n    tag_241:\n        /* \"#utility.yul\":6184:6209   */\n      swap3\n      pop\n        /* \"#utility.yul\":6232:6233   */\n      dup3\n        /* \"#utility.yul\":6229:6230   */\n      dup3\n        /* \"#utility.yul\":6225:6234   */\n      add\n        /* \"#utility.yul\":6218:6234   */\n      swap1\n      pop\n        /* \"#utility.yul\":6253:6256   */\n      dup1\n        /* \"#utility.yul\":6250:6251   */\n      dup3\n        /* \"#utility.yul\":6247:6257   */\n      gt\n        /* \"#utility.yul\":6244:6280   */\n      iszero\n      tag_242\n      jumpi\n        /* \"#utility.yul\":6260:6278   */\n      tag_243\n      tag_160\n      jump\t// in\n    tag_243:\n        /* \"#utility.yul\":6244:6280   */\n    tag_242:\n        /* \"#utility.yul\":6096:6287   */\n      swap3\n      swap2\n      pop\n      pop\n      jump\t// out\n        /* \"#utility.yul\":6293:6463   */\n    tag_161:\n        /* \"#utility.yul\":6433:6455   */\n      0x496e73756666696369656e742062616c616e6365000000000000000000000000\n        /* \"#utility.yul\":6429:6430   */\n      0x00\n        /* \"#utility.yul\":6421:6427   */\n      dup3\n        /* \"#utility.yul\":6417:6431   */\n      add\n        /* \"#utility.yul\":6410:6456   */\n      mstore\n        /* \"#utility.yul\":6293:6463   */\n      pop\n      jump\t// out\n        /* \"#utility.yul\":6469:6835   */\n    tag_162:\n        /* \"#utility.yul\":6611:6614   */\n      0x00\n        /* \"#utility.yul\":6632:6699   */\n      tag_246\n        /* \"#utility.yul\":6696:6698   */\n      0x14\n        /* \"#utility.yul\":6691:6694   */\n      dup4\n        /* \"#utility.yul\":6632:6699   */\n      tag_157\n      jump\t// in\n    tag_246:\n        /* \"#utility.yul\":6625:6699   */\n      swap2\n      pop\n        /* \"#utility.yul\":6708:6801   */\n      tag_247\n        /* \"#utility.yul\":6797:6800   */\n      dup3\n        /* \"#utility.yul\":6708:6801   */\n      tag_161\n      jump\t// in\n    tag_247:\n        /* \"#utility.yul\":6826:6828   */\n      0x20\n        /* \"#utility.yul\":6821:6824   */\n      dup3\n        /* \"#utility.yul\":6817:6829   */\n      add\n        /* \"#utility.yul\":6810:6829   */\n      swap1\n      pop\n        /* \"#utility.yul\":6469:6835   */\n      swap2\n      swap1\n      pop\n      jump\t// out\n        /* \"#utility.yul\":6841:7260   */\n    tag_96:\n        /* \"#utility.yul\":7007:7011   */\n      0x00\n        /* \"#utility.yul\":7045:7047   */\n      0x20\n        /* \"#utility.yul\":7034:7043   */\n      dup3\n        /* \"#utility.yul\":7030:7048   */\n      add\n        /* \"#utility.yul\":7022:7048   */\n      swap1\n      pop\n        /* \"#utility.yul\":7094:7103   */\n      dup2\n        /* \"#utility.yul\":7088:7092   */\n      dup2\n        /* \"#utility.yul\":7084:7104   */\n      sub\n        /* \"#utility.yul\":7080:7081   */\n      0x00\n        /* \"#utility.yul\":7069:7078   */\n      dup4\n        /* \"#utility.yul\":7065:7082   */\n      add\n        /* \"#utility.yul\":7058:7105   */\n      mstore\n        /* \"#utility.yul\":7122:7253   */\n      tag_249\n        /* \"#utility.yul\":7248:7252   */\n      dup2\n        /* \"#utility.yul\":7122:7253   */\n      tag_162\n      jump\t// in\n    tag_249:\n        /* \"#utility.yul\":7114:7253   */\n      swap1\n      pop\n        /* \"#utility.yul\":6841:7260   */\n      swap2\n      swap1\n      pop\n      jump\t// out\n        /* \"#utility.yul\":7266:7439   */\n    tag_163:\n        /* \"#utility.yul\":7406:7431   */\n      0x416d6f756e74206d75737420626520706f736974697665000000000000000000\n        /* \"#utility.yul\":7402:7403   */\n      0x00\n        /* \"#utility.yul\":7394:7400   */\n      dup3\n        /* \"#utility.yul\":7390:7404   */\n      add\n        /* \"#utility.yul\":7383:7432   */\n      mstore\n        /* \"#utility.yul\":7266:7439   */\n      pop\n      jump\t// out\n        /* \"#utility.yul\":7445:7811   */\n    tag_164:\n        /* \"#utility.yul\":7587:7590   */\n      0x00\n        /* \"#utility.yul\":7608:7675   */\n      tag_252\n        /* \"#utility.yul\":7672:7674   */\n      0x17\n        /* \"#utility.yul\":7667:7670   */\n      dup4\n        /* \"#utility.yul\":7608:7675   */\n      tag_157\n      jump\t// in\n    tag_252:\n        /* \"#utility.yul\":7601:7675   */\n      swap2\n      pop\n        /* \"#utility.yul\":7684:7777   */\n      tag_253\n        /* \"#utility.yul\":7773:7776   */\n      dup3\n        /* \"#utility.yul\":7684:7777   */\n      tag_163\n      jump\t// in\n    tag_253:\n        /* \"#utility.yul\":7802:7804   */\n      0x20\n        /* \"#utility.yul\":7797:7800   */\n      dup3\n        /* \"#utility.yul\":7793:7805   */\n      add\n        /* \"#utility.yul\":7786:7805   */\n      swap1\n      pop\n        /* \"#utility.yul\":7445:7811   */\n      swap2\n      swap1\n      pop\n      jump\t// out\n        /* \"#utility.yul\":7817:8236   */\n    tag_100:\n        /* \"#utility.yul\":7983:7987   */\n      0x00\n        /* \"#utility.yul\":8021:8023   */\n      0x20\n        /* \"#utility.yul\":8010:8019   */\n      dup3\n        /* \"#utility.yul\":8006:8024   */\n      add\n        /* \"#utility.yul\":7998:8024   */\n      swap1\n      pop\n        /* \"#utility.yul\":8070:8079   */\n      dup2\n        /* \"#utility.yul\":8064:8068   */\n      dup2\n        /* \"#utility.yul\":8060:8080   */\n      sub\n        /* \"#utility.yul\":8056:8057   */\n      0x00\n        /* \"#utility.yul\":8045:8054   */\n      dup4\n        /* \"#utility.yul\":8041:8058   */\n      add\n        /* \"#utility.yul\":8034:8081   */\n      mstore\n        /* \"#utility.yul\":8098:8229   */\n      tag_255\n        /* \"#utility.yul\":8224:8228   */\n      dup2\n        /* \"#utility.yul\":8098:8229   */\n      tag_164\n      jump\t// in\n    tag_255:\n        /* \"#utility.yul\":8090:8229   */\n      swap1\n      pop\n        /* \"#utility.yul\":7817:8236   */\n      swap2\n      swap1\n      pop\n      jump\t// out\n        /* \"#utility.yul\":8242:8413   */\n    tag_165:\n        /* \"#utility.yul\":8382:8405   */\n      0x426f756e747920616c7265616479206578697374730000000000000000000000\n        /* \"#utility.yul\":8378:8379   */\n      0x00\n        /* \"#utility.yul\":8370:8376   */\n      dup3\n        /* \"#utility.yul\":8366:8380   */\n      add\n        /* \"#utility.yul\":8359:8406   */\n      mstore\n        /* \"#utility.yul\":8242:8413   */\n      pop\n      jump\t// out\n        /* \"#utility.yul\":8419:8785   */\n    tag_166:\n        /* \"#utility.yul\":8561:8564   */\n      0x00\n        /* \"#utility.yul\":8582:8649   */\n      tag_258\n        /* \"#utility.yul\":8646:8648   */\n      0x15\n        /* \"#utility.yul\":8641:8644   */\n      dup4\n        /* \"#utility.yul\":8582:8649   */\n      tag_157\n      jump\t// in\n    tag_258:\n        /* \"#utility.yul\":8575:8649   */\n      swap2\n      pop\n        /* \"#utility.yul\":8658:8751   */\n      tag_259\n        /* \"#utility.yul\":8747:8750   */\n      dup3\n        /* \"#utility.yul\":8658:8751   */\n      tag_165\n      jump\t// in\n    tag_259:\n        /* \"#utility.yul\":8776:8778   */\n      0x20\n        /* \"#utility.yul\":8771:8774   */\n      dup3\n        /* \"#utility.yul\":8767:8779   */\n      add\n        /* \"#utility.yul\":8760:8779   */\n      swap1\n      pop\n        /* \"#utility.yul\":8419:8785   */\n      swap2\n      swap1\n      pop\n      jump\t// out\n        /* \"#utility.yul\":8791:9210   */\n    tag_103:\n        /* \"#utility.yul\":8957:8961   */\n      0x00\n        /* \"#utility.yul\":8995:8997   */\n      0x20\n        /* \"#utility.yul\":8984:8993   */\n      dup3\n        /* \"#utility.yul\":8980:8998   */\n      add\n        /* \"#utility.yul\":8972:8998   */\n      swap1\n      pop\n        /* \"#utility.yul\":9044:9053   */\n      dup2\n        /* \"#utility.yul\":9038:9042   */\n      dup2\n        /* \"#utility.yul\":9034:9054   */\n      sub\n        /* \"#utility.yul\":9030:9031   */\n      0x00\n        /* \"#utility.yul\":9019:9028   */\n      dup4\n        /* \"#utility.yul\":9015:9032   */\n      add\n        /* \"#utility.yul\":9008:9055   */\n      mstore\n        /* \"#utility.yul\":9072:9203   */\n      tag_261\n        /* \"#utility.yul\":9198:9202   */\n      dup2\n        /* \"#utility.yul\":9072:9203   */\n      tag_166\n      jump\t// in\n    tag_261:\n        /* \"#utility.yul\":9064:9203   */\n      swap1\n      pop\n        /* \"#utility.yul\":8791:9210   */\n      swap2\n      swap1\n      pop\n      jump\t// out\n        /* \"#utility.yul\":9216:9410   */\n    tag_105:\n        /* \"#utility.yul\":9256:9260   */\n      0x00\n        /* \"#utility.yul\":9276:9296   */\n      tag_263\n        /* \"#utility.yul\":9294:9295   */\n      dup3\n        /* \"#utility.yul\":9276:9296   */\n      tag_146\n      jump\t// in\n    tag_263:\n        /* \"#utility.yul\":9271:9296   */\n      swap2\n      pop\n        /* \"#utility.yul\":9310:9330   */\n      tag_264\n        /* \"#utility.yul\":9328:9329   */\n      dup4\n        /* \"#utility.yul\":9310:9330   */\n      tag_146\n      jump\t// in\n    tag_264:\n        /* \"#utility.yul\":9305:9330   */\n      swap3\n      pop\n        /* \"#utility.yul\":9354:9355   */\n      dup3\n        /* \"#utility.yul\":9351:9352   */\n      dup3\n        /* \"#utility.yul\":9347:9356   */\n      sub\n        /* \"#utility.yul\":9339:9356   */\n      swap1\n      pop\n        /* \"#utility.yul\":9378:9379   */\n      dup2\n        /* \"#utility.yul\":9372:9376   */\n      dup2\n        /* \"#utility.yul\":9369:9380   */\n      gt\n        /* \"#utility.yul\":9366:9403   */\n      iszero\n      tag_265\n      jumpi\n        /* \"#utility.yul\":9383:9401   */\n      tag_266\n      tag_160\n      jump\t// in\n    tag_266:\n        /* \"#utility.yul\":9366:9403   */\n    tag_265:\n        /* \"#utility.yul\":9216:9410   */\n      swap3\n      swap2\n      pop\n      pop\n      jump\t// out\n        /* \"#utility.yul\":9416:9649   */\n    tag_108:\n        /* \"#utility.yul\":9455:9458   */\n      0x00\n        /* \"#utility.yul\":9478:9502   */\n      tag_268\n        /* \"#utility.yul\":9496:9501   */\n      dup3\n        /* \"#utility.yul\":9478:9502   */\n      tag_146\n      jump\t// in\n    tag_268:\n        /* \"#utility.yul\":9469:9502   */\n      swap2\n      pop\n        /* \"#utility.yul\":9524:9590   */\n      0xffffffffffffffffffffffffffffffffffffffffffffffffffffffffffffffff\n        /* \"#utility.yul\":9517:9522   */\n      dup3\n        /* \"#utility.yul\":9514:9591   */\n      sub\n        /* \"#utility.yul\":9511:9614   */\n      tag_269\n      jumpi\n        /* \"#utility.yul\":9594:9612   */\n      tag_270\n      tag_160\n      jump\t// in\n    tag_270:\n        /* \"#utility.yul\":9511:9614   */\n    tag_269:\n        /* \"#utility.yul\":9641:9642   */\n      0x01\n        /* \"#utility.yul\":9634:9639   */\n      dup3\n        /* \"#utility.yul\":9630:9643   */\n      add\n        /* \"#utility.yul\":9623:9643   */\n      swap1\n      pop\n        /* \"#utility.yul\":9416:9649   */\n      swap2\n      swap1\n      pop\n      jump\t// out\n        /* \"#utility.yul\":9655:9822   */\n    tag_167:\n        /* \"#utility.yul\":9795:9814   */\n      0x426f756e7479206e6f7420616374697665000000000000000000000000000000\n        /* \"#utility.yul\":9791:9792   */\n      0x00\n        /* \"#utility.yul\":9783:9789   */\n      dup3\n        /* \"#utility.yul\":9779:9793   */\n      add\n        /* \"#utility.yul\":9772:9815   */\n      mstore\n        /* \"#utility.yul\":9655:9822   */\n      pop\n      jump\t// out\n        /* \"#utility.yul\":9828:10194   */\n    tag_168:\n        /* \"#utility.yul\":9970:9973   */\n      0x00\n        /* \"#utility.yul\":9991:10058   */\n      tag_273\n        /* \"#utility.yul\":10055:10057   */\n      0x11\n        /* \"#utility.yul\":10050:10053   */\n      dup4\n        /* \"#utility.yul\":9991:10058   */\n      tag_157\n      jump\t// in\n    tag_273:\n        /* \"#utility.yul\":9984:10058   */\n      swap2\n      pop\n        /* \"#utility.yul\":10067:10160   */\n      tag_274\n        /* \"#utility.yul\":10156:10159   */\n      dup3\n        /* \"#utility.yul\":10067:10160   */\n      tag_167\n      jump\t// in\n    tag_274:\n        /* \"#utility.yul\":10185:10187   */\n      0x20\n        /* \"#utility.yul\":10180:10183   */\n      dup3\n        /* \"#utility.yul\":10176:10188   */\n      add\n        /* \"#utility.yul\":10169:10188   */\n      swap1\n      pop\n        /* \"#utility.yul\":9828:10194   */\n      swap2\n      swap1\n      pop\n      jump\t// out\n        /* \"#utility.yul\":10200:10619   */\n    tag_116:\n        /* \"#utility.yul\":10366:10370   */\n      0x00\n        /* \"#utility.yul\":10404:10406   */\n      0x20\n        /* \"#utility.yul\":10393:10402   */\n      dup3\n        /* \"#utility.yul\":10389:10407   */\n      add\n        /* \"#utility.yul\":10381:10407   */\n      swap1\n      pop\n        /* \"#utility.yul\":10453:10462   */\n      dup2\n        /* \"#utility.yul\":10447:10451   */\n      dup2\n        /* \"#utility.yul\":10443:10463   */\n      sub\n        /* \"#utility.yul\":10439:10440   */\n      0x00\n        /* \"#utility.yul\":10428:10437   */\n      dup4\n        /* \"#utility.yul\":10424:10441   */\n      add\n        /* \"#utility.yul\":10417:10464   */\n      mstore\n        /* \"#utility.yul\":10481:10612   */\n      tag_276\n        /* \"#utility.yul\":10607:10611   */\n      dup2\n        /* \"#utility.yul\":10481:10612   */\n      tag_168\n      jump\t// in\n    tag_276:\n        /* \"#utility.yul\":10473:10612   */\n      swap1\n      pop\n        /* \"#utility.yul\":10200:10619   */\n      swap2\n      swap1\n      pop\n      jump\t// out\n        /* \"#utility.yul\":10625:10792   */\n    tag_169:\n        /* \"#utility.yul\":10765:10784   */\n      0x4e6f7420626f756e74792066756e646572000000000000000000000000000000\n        /* \"#utility.yul\":10761:10762   */\n      0x00\n        /* \"#utility.yul\":10753:10759   */\n      dup3\n        /* \"#utility.yul\":10749:10763   */\n      add\n        /* \"#utility.yul\":10742:10785   */\n      mstore\n        /* \"#utility.yul\":10625:10792   */\n      pop\n      jump\t// out\n        /* \"#utility.yul\":10798:11164   */\n    tag_170:\n        /* \"#utility.yul\":10940:10943   */\n      0x00\n        /* \"#utility.yul\":10961:11028   */\n      tag_279\n        /* \"#utility.yul\":11025:11027   */\n      0x11\n        /* \"#utility.yul\":11020:11023   */\n      dup4\n        /* \"#utility.yul\":10961:11028   */\n      tag_157\n      jump\t// in\n    tag_279:\n        /* \"#utility.yul\":10954:11028   */\n      swap2\n      pop\n        /* \"#utility.yul\":11037:11130   */\n      tag_280\n        /* \"#utility.yul\":11126:11129   */\n      dup3\n        /* \"#utility.yul\":11037:11130   */\n      tag_169\n      jump\t// in\n    tag_280:\n        /* \"#utility.yul\":11155:11157   */\n      0x20\n        /* \"#utility.yul\":11150:11153   */\n      dup3\n        /* \"#utility.yul\":11146:11158   */\n      add\n        /* \"#utility.yul\":11139:11158   */\n      swap1\n      pop\n        /* \"#utility.yul\":10798:11164   */\n      swap2\n      swap1\n      pop\n      jump\t// out\n        /* \"#utility.yul\":11170:11589   */\n    tag_120:\n        /* \"#utility.yul\":11336:11340   */\n      0x00\n        /* \"#utility.yul\":11374:11376   */\n      0x20\n        /* \"#utility.yul\":11363:11372   */\n      dup3\n        /* \"#utility.yul\":11359:11377   */\n      add\n        /* \"#utility.yul\":11351:11377   */\n      swap1\n      pop\n        /* \"#utility.yul\":11423:11432   */\n      dup2\n        /* \"#utility.yul\":11417:11421   */\n      dup2\n        /* \"#utility.yul\":11413:11433   */\n      sub\n        /* \"#utility.yul\":11409:11410   */\n      0x00\n        /* \"#utility.yul\":11398:11407   */\n      dup4\n        /* \"#utility.yul\":11394:11411   */\n      add\n        /* \"#utility.yul\":11387:11434   */\n      mstore\n        /* \"#utility.yul\":11451:11582   */\n      tag_282\n        /* \"#utility.yul\":11577:11581   */\n      dup2\n        /* \"#utility.yul\":11451:11582   */\n      tag_170\n      jump\t// in\n    tag_282:\n        /* \"#utility.yul\":11443:11582   */\n      swap1\n      pop\n        /* \"#utility.yul\":11170:11589   */\n      swap2\n      swap1\n      pop\n      jump\t// out\n        /* \"#utility.yul\":11595:11771   */\n    tag_171:\n        /* \"#utility.yul\":11735:11763   */\n      0x496e73756666696369656e7420626f756e747920616d6f756e74000000000000\n        /* \"#utility.yul\":11731:11732   */\n      0x00\n        /* \"#utility.yul\":11723:11729   */\n      dup3\n        /* \"#utility.yul\":11719:11733   */\n      add\n        /* \"#utility.yul\":11712:11764   */\n      mstore\n        /* \"#utility.yul\":11595:11771   */\n      pop\n      jump\t// out\n        /* \"#utility.yul\":11777:12143   */\n    tag_172:\n        /* \"#utility.yul\":11919:11922   */\n      0x00\n        /* \"#utility.yul\":11940:12007   */\n      tag_285\n        /* \"#utility.yul\":12004:12006   */\n      0x1a\n        /* \"#utility.yul\":11999:12002   */\n      dup4\n        /* \"#utility.yul\":11940:12007   */\n      tag_157\n      jump\t// in\n    tag_285:\n        /* \"#utility.yul\":11933:12007   */\n      swap2\n      pop\n        /* \"#utility.yul\":12016:12109   */\n      tag_286\n        /* \"#utility.yul\":12105:12108   */\n      dup3\n        /* \"#utility.yul\":12016:12109   */\n      tag_171\n      jump\t// in\n    tag_286:\n        /* \"#utility.yul\":12134:12136   */\n      0x20\n        /* \"#utility.yul\":12129:12132   */\n      dup3\n        /* \"#utility.yul\":12125:12137   */\n      add\n        /* \"#utility.yul\":12118:12137   */\n      swap1\n      pop\n        /* \"#utility.yul\":11777:12143   */\n      swap2\n      swap1\n      pop\n      jump\t// out\n        /* \"#utility.yul\":12149:12568   */\n    tag_123:\n        /* \"#utility.yul\":12315:12319   */\n      0x00\n        /* \"#utility.yul\":12353:12355   */\n      0x20\n        /* \"#utility.yul\":12342:12351   */\n      dup3\n        /* \"#utility.yul\":12338:12356   */\n      add\n        /* \"#utility.yul\":12330:12356   */\n      swap1\n      pop\n        /* \"#utility.yul\":12402:12411   */\n      dup2\n        /* \"#utility.yul\":12396:12400   */\n      dup2\n        /* \"#utility.yul\":12392:12412   */\n      sub\n        /* \"#utility.yul\":12388:12389   */\n      0x00\n        /* \"#utility.yul\":12377:12386   */\n      dup4\n        /* \"#utility.yul\":12373:12390   */\n      add\n        /* \"#utility.yul\":12366:12413   */\n      mstore\n        /* \"#utility.yul\":12430:12561   */\n      tag_288\n        /* \"#utility.yul\":12556:12560   */\n      dup2\n        /* \"#utility.yul\":12430:12561   */\n      tag_172\n      jump\t// in\n    tag_288:\n        /* \"#utility.yul\":12422:12561   */\n      swap1\n      pop\n        /* \"#utility.yul\":12149:12568   */\n      swap2\n      swap1\n      pop\n      jump\t// out\n        /* \"#utility.yul\":12574:12755   */\n    tag_173:\n        /* \"#utility.yul\":12714:12747   */\n      0x54617267657420697373756520616c72656164792068617320626f756e747900\n        /* \"#utility.yul\":12710:12711   */\n      0x00\n        /* \"#utility.yul\":12702:12708   */\n      dup3\n        /* \"#utility.yul\":12698:12712   */\n      add\n        /* \"#utility.yul\":12691:12748   */\n      mstore\n        /* \"#utility.yul\":12574:12755   */\n      pop\n      jump\t// out\n        /* \"#utility.yul\":12761:13127   */\n    tag_174:\n        /* \"#utility.yul\":12903:12906   */\n      0x00\n        /* \"#utility.yul\":12924:12991   */\n      tag_291\n        /* \"#utility.yul\":12988:12990   */\n      0x1f\n        /* \"#utility.yul\":12983:12986   */\n      dup4\n        /* \"#utility.yul\":12924:12991   */\n      tag_157\n      jump\t// in\n    tag_291:\n        /* \"#utility.yul\":12917:12991   */\n      swap2\n      pop\n        /* \"#utility.yul\":13000:13093   */\n      tag_292\n        /* \"#utility.yul\":13089:13092   */\n      dup3\n        /* \"#utility.yul\":13000:13093   */\n      tag_173\n      jump\t// in\n    tag_292:\n        /* \"#utility.yul\":13118:13120   */\n      0x20\n        /* \"#utility.yul\":13113:13116   */\n      dup3\n        /* \"#utility.yul\":13109:13121   */\n      add\n        /* \"#utility.yul\":13102:13121   */\n      swap1\n      pop\n        /* \"#utility.yul\":12761:13127   */\n      swap2\n      swap1\n      pop\n      jump\t// out\n        /* \"#utility.yul\":13133:13552   */\n    tag_126:\n        /* \"#utility.yul\":13299:13303   */\n      0x00\n        /* \"#utility.yul\":13337:13339   */\n      0x20\n        /* \"#utility.yul\":13326:13335   */\n      dup3\n        /* \"#utility.yul\":13322:13340   */\n      add\n        /* \"#utility.yul\":13314:13340   */\n      swap1\n      pop\n        /* \"#utility.yul\":13386:13395   */\n      dup2\n        /* \"#utility.yul\":13380:13384   */\n      dup2\n        /* \"#utility.yul\":13376:13396   */\n      sub\n        /* \"#utility.yul\":13372:13373   */\n      0x00\n        /* \"#utility.yul\":13361:13370   */\n      dup4\n        /* \"#utility.yul\":13357:13374   */\n      add\n        /* \"#utility.yul\":13350:13397   */\n      mstore\n        /* \"#utility.yul\":13414:13545   */\n      tag_294\n        /* \"#utility.yul\":13540:13544   */\n      dup2\n        /* \"#utility.yul\":13414:13545   */\n      tag_174\n      jump\t// in\n    tag_294:\n        /* \"#utility.yul\":13406:13545   */\n      swap1\n      pop\n        /* \"#utility.yul\":13133:13552   */\n      swap2\n      swap1\n      pop\n      jump\t// out\n        /* \"#utility.yul\":13558:13729   */\n    tag_130:\n        /* \"#utility.yul\":13597:13600   */\n      0x00\n        /* \"#utility.yul\":13620:13644   */\n      tag_296\n        /* \"#utility.yul\":13638:13643   */\n      dup3\n        /* \"#utility.yul\":13620:13644   */\n      tag_146\n      jump\t// in\n    tag_296:\n        /* \"#utility.yul\":13611:13644   */\n      swap2\n      pop\n        /* \"#utility.yul\":13666:13670   */\n      0x00\n        /* \"#utility.yul\":13659:13664   */\n      dup3\n        /* \"#utility.yul\":13656:13671   */\n      sub\n        /* \"#utility.yul\":13653:13694   */\n      tag_297\n      jumpi\n        /* \"#utility.yul\":13674:13692   */\n      tag_298\n      tag_160\n      jump\t// in\n    tag_298:\n        /* \"#utility.yul\":13653:13694   */\n    tag_297:\n        /* \"#utility.yul\":13721:13722   */\n      0x01\n        /* \"#utility.yul\":13714:13719   */\n      dup3\n        /* \"#utility.yul\":13710:13723   */\n      sub\n        /* \"#utility.yul\":13703:13723   */\n      swap1\n      pop\n        /* \"#utility.yul\":13558:13729   */\n      swap2\n      swap1\n      pop\n      jump\t// out\n\n    auxdata: 0xa264697066735822122030594b11cc2e85c556df8d4678ebf4d58477f940c8f3b07f60e0e7740ae65e0164736f6c634300081a0033\n}\n",
				"bytecode": {
					"linkReferences": {},
					"object": "6080604052348015600e575f80fd5b5061161c8061001c5f395ff3fe6080604052600436106100c5575f3560e01c8063968ed6001161007e578063e1e158a511610058578063e1e158a5146102b1578063e2c41dbc146102db578063e5e5dff1146102e5578063f0f284fc1461030d576100d4565b8063968ed60014610223578063b6f5cad21461024d578063b8b3d85b14610275576100d4565b80630857e69c146100d857806321df103a14610117578063454fa1b11461013f578063496e62f71461017b57806351594276146101a55780638017960d146101e4576100d4565b366100d4576100d261034c565b005b5f80fd5b3480156100e3575f80fd5b506100fe60048036038101906100f99190610f80565b610472565b60405161010e9493929190611013565b60405180910390f35b348015610122575f80fd5b5061013d60048036038101906101389190611056565b6104c9565b005b34801561014a575f80fd5b5061016560048036038101906101609190610f80565b610774565b6040516101729190611094565b60405180910390f35b348015610186575f80fd5b5061018f610835565b60405161019c9190611094565b60405180910390f35b3480156101b0575f80fd5b506101cb60048036038101906101c691906110d7565b61083c565b6040516101db9493929190611102565b60405180910390f35b3480156101ef575f80fd5b5061020a600480360381019061020591906110d7565b610868565b60405161021a9493929190611102565b60405180910390f35b34801561022e575f80fd5b50610237610901565b6040516102449190611094565b60405180910390f35b348015610258575f80fd5b50610273600480360381019061026e9190611145565b610907565b005b348015610280575f80fd5b5061029b600480360381019061029691906110d7565b610c46565b6040516102a89190611094565b60405180910390f35b3480156102bc575f80fd5b506102c5610c8f565b6040516102d29190611094565b60405180910390f35b6102e361034c565b005b3480156102f0575f80fd5b5061030b60048036038101906103069190610f80565b610c9a565b005b348015610318575f80fd5b50610333600480360381019061032e9190610f80565b610e81565b6040516103439493929190611013565b60405180910390f35b662386f26fc10000341015610396576040517f08c379a000000000000000000000000000000000000000000000000000000000815260040161038d906111ef565b60405180910390fd5b5f60015f3373ffffffffffffffffffffffffffffffffffffffff1673ffffffffffffffffffffffffffffffffffffffff1681526020019081526020015f20905034815f015f8282546103e8919061123a565b9250508190555034816001015f828254610402919061123a565b925050819055503460035f82825461041a919061123a565b925050819055503373ffffffffffffffffffffffffffffffffffffffff167f543ba50a5eec5e6178218e364b1d0f396157b3c8fa278522c2cb7fd99407d474346040516104679190611094565b60405180910390a250565b6002602052805f5260405f205f91509050805f015490806001015f9054906101000a900473ffffffffffffffffffffffffffffffffffffffff1690806002015490806003015f9054906101000a900460ff16905084565b808060015f3373ffffffffffffffffffffffffffffffffffffffff1673ffffffffffffffffffffffffffffffffffffffff1681526020019081526020015f2060010154101561054d576040517f08c379a0000000000000000000000000000000000000000000000000000000008152600401610544906112b7565b60405180910390fd5b5f821161058f576040517f08c379a00000000000000000000000000000000000000000000000000000000081526004016105869061131f565b60405180910390fd5b5f60025f8581526020019081526020015f205f0154146105e4576040517f08c379a00000000000000000000000000000000000000000000000000000000081526004016105db90611387565b60405180910390fd5b5f60015f3373ffffffffffffffffffffffffffffffffffffffff1673ffffffffffffffffffffffffffffffffffffffff1681526020019081526020015f20905082816001015f82825461063791906113a5565b9250508190555082816002015f828254610651919061123a565b92505081905550806003015f81548092919061066c906113d8565b919050555060405180608001604052808481526020013373ffffffffffffffffffffffffffffffffffffffff1681526020014281526020016001151581525060025f8681526020019081526020015f205f820151815f01556020820151816001015f6101000a81548173ffffffffffffffffffffffffffffffffffffffff021916908373ffffffffffffffffffffffffffffffffffffffff160217905550604082015181600201556060820151816003015f6101000a81548160ff021916908315150217905550905050837ffaf7d24eca5c2ed2e63e0e70578db4ebda8019cff8040e61689979af8cd739b1846040516107669190611094565b60405180910390a250505050565b5f8060025f8481526020019081526020015f206040518060800160405290815f8201548152602001600182015f9054906101000a900473ffffffffffffffffffffffffffffffffffffffff1673ffffffffffffffffffffffffffffffffffffffff1673ffffffffffffffffffffffffffffffffffffffff16815260200160028201548152602001600382015f9054906101000a900460ff16151515158152505090508060600151610828575f915050610830565b805f01519150505b919050565b62278d0081565b6001602052805f5260405f205f91509050805f0154908060010154908060020154908060030154905084565b5f805f805f60015f8773ffffffffffffffffffffffffffffffffffffffff1673ffffffffffffffffffffffffffffffffffffffff1681526020019081526020015f206040518060800160405290815f820154815260200160018201548152602001600282015481526020016003820154815250509050805f01518160200151826040015183606001519450945094509450509193509193565b60035481565b8260025f8281526020019081526020015f206003015f9054906101000a900460ff16610968576040517f08c379a000000000000000000000000000000000000000000000000000000000815260040161095f90611469565b60405180910390fd5b5f60025f8681526020019081526020015f209050806001015f9054906101000a900473ffffffffffffffffffffffffffffffffffffffff1673ffffffffffffffffffffffffffffffffffffffff163373ffffffffffffffffffffffffffffffffffffffff1614610a0d576040517f08c379a0000000000000000000000000000000000000000000000000000000008152600401610a04906114d1565b60405180910390fd5b82815f01541015610a53576040517f08c379a0000000000000000000000000000000000000000000000000000000008152600401610a4a90611539565b60405180910390fd5b5f60025f8681526020019081526020015f205f015414610aa8576040517f08c379a0000000000000000000000000000000000000000000000000000000008152600401610a9f906115a1565b60405180910390fd5b82815f015f828254610aba91906113a5565b925050819055505f815f015403610b41575f816003015f6101000a81548160ff0219169083151502179055505f60015f3373ffffffffffffffffffffffffffffffffffffffff1673ffffffffffffffffffffffffffffffffffffffff1681526020019081526020015f209050806003015f815480929190610b3a906115bf565b9190505550505b60405180608001604052808481526020013373ffffffffffffffffffffffffffffffffffffffff1681526020014281526020016001151581525060025f8681526020019081526020015f205f820151815f01556020820151816001015f6101000a81548173ffffffffffffffffffffffffffffffffffffffff021916908373ffffffffffffffffffffffffffffffffffffffff160217905550604082015181600201556060820151816003015f6101000a81548160ff02191690831515021790555090505083857f9a26cfe9143af653ecb2415e29f0888de1a4a6a8711824c24e166e081e43bbec85604051610c379190611094565b60405180910390a35050505050565b5f60015f8373ffffffffffffffffffffffffffffffffffffffff1673ffffffffffffffffffffffffffffffffffffffff1681526020019081526020015f20600101549050919050565b662386f26fc1000081565b8060025f8281526020019081526020015f206003015f9054906101000a900460ff16610cfb576040517f08c379a0000000000000000000000000000000000000000000000000000000008152600401610cf290611469565b60405180910390fd5b5f60025f8481526020019081526020015f209050806001015f9054906101000a900473ffffffffffffffffffffffffffffffffffffffff1673ffffffffffffffffffffffffffffffffffffffff163373ffffffffffffffffffffffffffffffffffffffff1614610da0576040517f08c379a0000000000000000000000000000000000000000000000000000000008152600401610d97906114d1565b60405180910390fd5b5f60015f3373ffffffffffffffffffffffffffffffffffffffff1673ffffffffffffffffffffffffffffffffffffffff1681526020019081526020015f209050815f0154816001015f828254610df6919061123a565b92505081905550815f0154816002015f828254610e1391906113a5565b92505081905550806003015f815480929190610e2e906115bf565b91905055505f826003015f6101000a81548160ff021916908315150217905550837f92717314c0b0f9d632e1d46a0b8437778ff9daee1db8ec295f2bc0b57c4bcaac60405160405180910390a250505050565b5f805f805f60025f8781526020019081526020015f206040518060800160405290815f8201548152602001600182015f9054906101000a900473ffffffffffffffffffffffffffffffffffffffff1673ffffffffffffffffffffffffffffffffffffffff1673ffffffffffffffffffffffffffffffffffffffff16815260200160028201548152602001600382015f9054906101000a900460ff1615151515815250509050805f01518160200151826040015183606001519450945094509450509193509193565b5f80fd5b5f819050919050565b610f5f81610f4d565b8114610f69575f80fd5b50565b5f81359050610f7a81610f56565b92915050565b5f60208284031215610f9557610f94610f49565b5b5f610fa284828501610f6c565b91505092915050565b610fb481610f4d565b82525050565b5f73ffffffffffffffffffffffffffffffffffffffff82169050919050565b5f610fe382610fba565b9050919050565b610ff381610fd9565b82525050565b5f8115159050919050565b61100d81610ff9565b82525050565b5f6080820190506110265f830187610fab565b6110336020830186610fea565b6110406040830185610fab565b61104d6060830184611004565b95945050505050565b5f806040838503121561106c5761106b610f49565b5b5f61107985828601610f6c565b925050602061108a85828601610f6c565b9150509250929050565b5f6020820190506110a75f830184610fab565b92915050565b6110b681610fd9565b81146110c0575f80fd5b50565b5f813590506110d1816110ad565b92915050565b5f602082840312156110ec576110eb610f49565b5b5f6110f9848285016110c3565b91505092915050565b5f6080820190506111155f830187610fab565b6111226020830186610fab565b61112f6040830185610fab565b61113c6060830184610fab565b95945050505050565b5f805f6060848603121561115c5761115b610f49565b5b5f61116986828701610f6c565b935050602061117a86828701610f6c565b925050604061118b86828701610f6c565b9150509250925092565b5f82825260208201905092915050565b7f4465706f73697420746f6f20736d616c6c0000000000000000000000000000005f82015250565b5f6111d9601183611195565b91506111e4826111a5565b602082019050919050565b5f6020820190508181035f830152611206816111cd565b9050919050565b7f4e487b71000000000000000000000000000000000000000000000000000000005f52601160045260245ffd5b5f61124482610f4d565b915061124f83610f4d565b92508282019050808211156112675761126661120d565b5b92915050565b7f496e73756666696369656e742062616c616e63650000000000000000000000005f82015250565b5f6112a1601483611195565b91506112ac8261126d565b602082019050919050565b5f6020820190508181035f8301526112ce81611295565b9050919050565b7f416d6f756e74206d75737420626520706f7369746976650000000000000000005f82015250565b5f611309601783611195565b9150611314826112d5565b602082019050919050565b5f6020820190508181035f830152611336816112fd565b9050919050565b7f426f756e747920616c72656164792065786973747300000000000000000000005f82015250565b5f611371601583611195565b915061137c8261133d565b602082019050919050565b5f6020820190508181035f83015261139e81611365565b9050919050565b5f6113af82610f4d565b91506113ba83610f4d565b92508282039050818111156113d2576113d161120d565b5b92915050565b5f6113e282610f4d565b91507fffffffffffffffffffffffffffffffffffffffffffffffffffffffffffffffff82036114145761141361120d565b5b600182019050919050565b7f426f756e7479206e6f74206163746976650000000000000000000000000000005f82015250565b5f611453601183611195565b915061145e8261141f565b602082019050919050565b5f6020820190508181035f83015261148081611447565b9050919050565b7f4e6f7420626f756e74792066756e6465720000000000000000000000000000005f82015250565b5f6114bb601183611195565b91506114c682611487565b602082019050919050565b5f6020820190508181035f8301526114e8816114af565b9050919050565b7f496e73756666696369656e7420626f756e747920616d6f756e740000000000005f82015250565b5f611523601a83611195565b915061152e826114ef565b602082019050919050565b5f6020820190508181035f83015261155081611517565b9050919050565b7f54617267657420697373756520616c72656164792068617320626f756e7479005f82015250565b5f61158b601f83611195565b915061159682611557565b602082019050919050565b5f6020820190508181035f8301526115b88161157f565b9050919050565b5f6115c982610f4d565b91505f82036115db576115da61120d565b5b60018203905091905056fea264697066735822122030594b11cc2e85c556df8d4678ebf4d58477f940c8f3b07f60e0e7740ae65e0164736f6c634300081a0033",
					"opcodes": "PUSH1 0x80 PUSH1 0x40 MSTORE CALLVALUE DUP1 ISZERO PUSH1 0xE JUMPI PUSH0 DUP1 REVERT JUMPDEST POP PUSH2 0x161C DUP1 PUSH2 0x1C PUSH0 CODECOPY PUSH0 RETURN INVALID PUSH1 0x80 PUSH1 0x40 MSTORE PUSH1 0x4 CALLDATASIZE LT PUSH2 0xC5 JUMPI PUSH0 CALLDATALOAD PUSH1 0xE0 SHR DUP1 PUSH4 0x968ED600 GT PUSH2 0x7E JUMPI DUP1 PUSH4 0xE1E158A5 GT PUSH2 0x58 JUMPI DUP1 PUSH4 0xE1E158A5 EQ PUSH2 0x2B1 JUMPI DUP1 PUSH4 0xE2C41DBC EQ PUSH2 0x2DB JUMPI DUP1 PUSH4 0xE5E5DFF1 EQ PUSH2 0x2E5 JUMPI DUP1 PUSH4 0xF0F284FC EQ PUSH2 0x30D JUMPI PUSH2 0xD4 JUMP JUMPDEST DUP1 PUSH4 0x968ED600 EQ PUSH2 0x223 JUMPI DUP1 PUSH4 0xB6F5CAD2 EQ PUSH2 0x24D JUMPI DUP1 PUSH4 0xB8B3D85B EQ PUSH2 0x275 JUMPI PUSH2 0xD4 JUMP JUMPDEST DUP1 PUSH4 0x857E69C EQ PUSH2 0xD8 JUMPI DUP1 PUSH4 0x21DF103A EQ PUSH2 0x117 JUMPI DUP1 PUSH4 0x454FA1B1 EQ PUSH2 0x13F JUMPI DUP1 PUSH4 0x496E62F7 EQ PUSH2 0x17B JUMPI DUP1 PUSH4 0x51594276 EQ PUSH2 0x1A5 JUMPI DUP1 PUSH4 0x8017960D EQ PUSH2 0x1E4 JUMPI PUSH2 0xD4 JUMP JUMPDEST CALLDATASIZE PUSH2 0xD4 JUMPI PUSH2 0xD2 PUSH2 0x34C JUMP JUMPDEST STOP JUMPDEST PUSH0 DUP1 REVERT JUMPDEST CALLVALUE DUP1 ISZERO PUSH2 0xE3 JUMPI PUSH0 DUP1 REVERT JUMPDEST POP PUSH2 0xFE PUSH1 0x4 DUP1 CALLDATASIZE SUB DUP2 ADD SWAP1 PUSH2 0xF9 SWAP2 SWAP1 PUSH2 0xF80 JUMP JUMPDEST PUSH2 0x472 JUMP JUMPDEST PUSH1 0x40 MLOAD PUSH2 0x10E SWAP5 SWAP4 SWAP3 SWAP2 SWAP1 PUSH2 0x1013 JUMP JUMPDEST PUSH1 0x40 MLOAD DUP1 SWAP2 SUB SWAP1 RETURN JUMPDEST CALLVALUE DUP1 ISZERO PUSH2 0x122 JUMPI PUSH0 DUP1 REVERT JUMPDEST POP PUSH2 0x13D PUSH1 0x4 DUP1 CALLDATASIZE SUB DUP2 ADD SWAP1 PUSH2 0x138 SWAP2 SWAP1 PUSH2 0x1056 JUMP JUMPDEST PUSH2 0x4C9 JUMP JUMPDEST STOP JUMPDEST CALLVALUE DUP1 ISZERO PUSH2 0x14A JUMPI PUSH0 DUP1 REVERT JUMPDEST POP PUSH2 0x165 PUSH1 0x4 DUP1 CALLDATASIZE SUB DUP2 ADD SWAP1 PUSH2 0x160 SWAP2 SWAP1 PUSH2 0xF80 JUMP JUMPDEST PUSH2 0x774 JUMP JUMPDEST PUSH1 0x40 MLOAD PUSH2 0x172 SWAP2 SWAP1 PUSH2 0x1094 JUMP JUMPDEST PUSH1 0x40 MLOAD DUP1 SWAP2 SUB SWAP1 RETURN JUMPDEST CALLVALUE DUP1 ISZERO PUSH2 0x186 JUMPI PUSH0 DUP1 REVERT JUMPDEST POP PUSH2 0x18F PUSH2 0x835 JUMP JUMPDEST PUSH1 0x40 MLOAD PUSH2 0x19C SWAP2 SWAP1 PUSH2 0x1094 JUMP JUMPDEST PUSH1 0x40 MLOAD DUP1 SWAP2 SUB SWAP1 RETURN JUMPDEST CALLVALUE DUP1 ISZERO PUSH2 0x1B0 JUMPI PUSH0 DUP1 REVERT JUMPDEST POP PUSH2 0x1CB PUSH1 0x4 DUP1 CALLDATASIZE SUB DUP2 ADD SWAP1 PUSH2 0x1C6 SWAP2 SWAP1 PUSH2 0x10D7 JUMP JUMPDEST PUSH2 0x83C JUMP JUMPDEST PUSH1 0x40 MLOAD PUSH2 0x1DB SWAP5 SWAP4 SWAP3 SWAP2 SWAP1 PUSH2 0x1102 JUMP JUMPDEST PUSH1 0x40 MLOAD DUP1 SWAP2 SUB SWAP1 RETURN JUMPDEST CALLVALUE DUP1 ISZERO PUSH2 0x1EF JUMPI PUSH0 DUP1 REVERT JUMPDEST POP PUSH2 0x20A PUSH1 0x4 DUP1 CALLDATASIZE SUB DUP2 ADD SWAP1 PUSH2 0x205 SWAP2 SWAP1 PUSH2 0x10D7 JUMP JUMPDEST PUSH2 0x868 JUMP JUMPDEST PUSH1 0x40 MLOAD PUSH2 0x21A SWAP5 SWAP4 SWAP3 SWAP2 SWAP1 PUSH2 0x1102 JUMP JUMPDEST PUSH1 0x40 MLOAD DUP1 SWAP2 SUB SWAP1 RETURN JUMPDEST CALLVALUE DUP1 ISZERO PUSH2 0x22E JUMPI PUSH0 DUP1 REVERT JUMPDEST POP PUSH2 0x237 PUSH2 0x901 JUMP JUMPDEST PUSH1 0x40 MLOAD PUSH2 0x244 SWAP2 SWAP1 PUSH2 0x1094 JUMP JUMPDEST PUSH1 0x40 MLOAD DUP1 SWAP2 SUB SWAP1 RETURN JUMPDEST CALLVALUE DUP1 ISZERO PUSH2 0x258 JUMPI PUSH0 DUP1 REVERT JUMPDEST POP PUSH2 0x273 PUSH1 0x4 DUP1 CALLDATASIZE SUB DUP2 ADD SWAP1 PUSH2 0x26E SWAP2 SWAP1 PUSH2 0x1145 JUMP JUMPDEST PUSH2 0x907 JUMP JUMPDEST STOP JUMPDEST CALLVALUE DUP1 ISZERO PUSH2 0x280 JUMPI PUSH0 DUP1 REVERT JUMPDEST POP PUSH2 0x29B PUSH1 0x4 DUP1 CALLDATASIZE SUB DUP2 ADD SWAP1 PUSH2 0x296 SWAP2 SWAP1 PUSH2 0x10D7 JUMP JUMPDEST PUSH2 0xC46 JUMP JUMPDEST PUSH1 0x40 MLOAD PUSH2 0x2A8 SWAP2 SWAP1 PUSH2 0x1094 JUMP JUMPDEST PUSH1 0x40 MLOAD DUP1 SWAP2 SUB SWAP1 RETURN JUMPDEST CALLVALUE DUP1 ISZERO PUSH2 0x2BC JUMPI PUSH0 DUP1 REVERT JUMPDEST POP PUSH2 0x2C5 PUSH2 0xC8F JUMP JUMPDEST PUSH1 0x40 MLOAD PUSH2 0x2D2 SWAP2 SWAP1 PUSH2 0x1094 JUMP JUMPDEST PUSH1 0x40 MLOAD DUP1 SWAP2 SUB SWAP1 RETURN JUMPDEST PUSH2 0x2E3 PUSH2 0x34C JUMP JUMPDEST STOP JUMPDEST CALLVALUE DUP1 ISZERO PUSH2 0x2F0 JUMPI PUSH0 DUP1 REVERT JUMPDEST POP PUSH2 0x30B PUSH1 0x4 DUP1 CALLDATASIZE SUB DUP2 ADD SWAP1 PUSH2 0x306 SWAP2 SWAP1 PUSH2 0xF80 JUMP JUMPDEST PUSH2 0xC9A JUMP JUMPDEST STOP JUMPDEST CALLVALUE DUP1 ISZERO PUSH2 0x318 JUMPI PUSH0 DUP1 REVERT JUMPDEST POP PUSH2 0x333 PUSH1 0x4 DUP1 CALLDATASIZE SUB DUP2 ADD SWAP1 PUSH2 0x32E SWAP2 SWAP1 PUSH2 0xF80 JUMP JUMPDEST PUSH2 0xE81 JUMP JUMPDEST PUSH1 0x40 MLOAD PUSH2 0x343 SWAP5 SWAP4 SWAP3 SWAP2 SWAP1 PUSH2 0x1013 JUMP JUMPDEST PUSH1 0x40 MLOAD DUP1 SWAP2 SUB SWAP1 RETURN JUMPDEST PUSH7 0x2386F26FC10000 CALLVALUE LT ISZERO PUSH2 0x396 JUMPI PUSH1 0x40 MLOAD PUSH32 0x8C379A000000000000000000000000000000000000000000000000000000000 DUP2 MSTORE PUSH1 0x4 ADD PUSH2 0x38D SWAP1 PUSH2 0x11EF JUMP JUMPDEST PUSH1 0x40 MLOAD DUP1 SWAP2 SUB SWAP1 REVERT JUMPDEST PUSH0 PUSH1 0x1 PUSH0 CALLER PUSH20 0xFFFFFFFFFFFFFFFFFFFFFFFFFFFFFFFFFFFFFFFF AND PUSH20 0xFFFFFFFFFFFFFFFFFFFFFFFFFFFFFFFFFFFFFFFF AND DUP2 MSTORE PUSH1 0x20 ADD SWAP1 DUP2 MSTORE PUSH1 0x20 ADD PUSH0 KECCAK256 SWAP1 POP CALLVALUE DUP2 PUSH0 ADD PUSH0 DUP3 DUP3 SLOAD PUSH2 0x3E8 SWAP2 SWAP1 PUSH2 0x123A JUMP JUMPDEST SWAP3 POP POP DUP2 SWAP1 SSTORE POP CALLVALUE DUP2 PUSH1 0x1 ADD PUSH0 DUP3 DUP3 SLOAD PUSH2 0x402 SWAP2 SWAP1 PUSH2 0x123A JUMP JUMPDEST SWAP3 POP POP DUP2 SWAP1 SSTORE POP CALLVALUE PUSH1 0x3 PUSH0 DUP3 DUP3 SLOAD PUSH2 0x41A SWAP2 SWAP1 PUSH2 0x123A JUMP JUMPDEST SWAP3 POP POP DUP2 SWAP1 SSTORE POP CALLER PUSH20 0xFFFFFFFFFFFFFFFFFFFFFFFFFFFFFFFFFFFFFFFF AND PUSH32 0x543BA50A5EEC5E6178218E364B1D0F396157B3C8FA278522C2CB7FD99407D474 CALLVALUE PUSH1 0x40 MLOAD PUSH2 0x467 SWAP2 SWAP1 PUSH2 0x1094 JUMP JUMPDEST PUSH1 0x40 MLOAD DUP1 SWAP2 SUB SWAP1 LOG2 POP JUMP JUMPDEST PUSH1 0x2 PUSH1 0x20 MSTORE DUP1 PUSH0 MSTORE PUSH1 0x40 PUSH0 KECCAK256 PUSH0 SWAP2 POP SWAP1 POP DUP1 PUSH0 ADD SLOAD SWAP1 DUP1 PUSH1 0x1 ADD PUSH0 SWAP1 SLOAD SWAP1 PUSH2 0x100 EXP SWAP1 DIV PUSH20 0xFFFFFFFFFFFFFFFFFFFFFFFFFFFFFFFFFFFFFFFF AND SWAP1 DUP1 PUSH1 0x2 ADD SLOAD SWAP1 DUP1 PUSH1 0x3 ADD PUSH0 SWAP1 SLOAD SWAP1 PUSH2 0x100 EXP SWAP1 DIV PUSH1 0xFF AND SWAP1 POP DUP5 JUMP JUMPDEST DUP1 DUP1 PUSH1 0x1 PUSH0 CALLER PUSH20 0xFFFFFFFFFFFFFFFFFFFFFFFFFFFFFFFFFFFFFFFF AND PUSH20 0xFFFFFFFFFFFFFFFFFFFFFFFFFFFFFFFFFFFFFFFF AND DUP2 MSTORE PUSH1 0x20 ADD SWAP1 DUP2 MSTORE PUSH1 0x20 ADD PUSH0 KECCAK256 PUSH1 0x1 ADD SLOAD LT ISZERO PUSH2 0x54D JUMPI PUSH1 0x40 MLOAD PUSH32 0x8C379A000000000000000000000000000000000000000000000000000000000 DUP2 MSTORE PUSH1 0x4 ADD PUSH2 0x544 SWAP1 PUSH2 0x12B7 JUMP JUMPDEST PUSH1 0x40 MLOAD DUP1 SWAP2 SUB SWAP1 REVERT JUMPDEST PUSH0 DUP3 GT PUSH2 0x58F JUMPI PUSH1 0x40 MLOAD PUSH32 0x8C379A000000000000000000000000000000000000000000000000000000000 DUP2 MSTORE PUSH1 0x4 ADD PUSH2 0x586 SWAP1 PUSH2 0x131F JUMP JUMPDEST PUSH1 0x40 MLOAD DUP1 SWAP2 SUB SWAP1 REVERT JUMPDEST PUSH0 PUSH1 0x2 PUSH0 DUP6 DUP2 MSTORE PUSH1 0x20 ADD SWAP1 DUP2 MSTORE PUSH1 0x20 ADD PUSH0 KECCAK256 PUSH0 ADD SLOAD EQ PUSH2 0x5E4 JUMPI PUSH1 0x40 MLOAD PUSH32 0x8C379A000000000000000000000000000000000000000000000000000000000 DUP2 MSTORE PUSH1 0x4 ADD PUSH2 0x5DB SWAP1 PUSH2 0x1387 JUMP JUMPDEST PUSH1 0x40 MLOAD DUP1 SWAP2 SUB SWAP1 REVERT JUMPDEST PUSH0 PUSH1 0x1 PUSH0 CALLER PUSH20 0xFFFFFFFFFFFFFFFFFFFFFFFFFFFFFFFFFFFFFFFF AND PUSH20 0xFFFFFFFFFFFFFFFFFFFFFFFFFFFFFFFFFFFFFFFF AND DUP2 MSTORE PUSH1 0x20 ADD SWAP1 DUP2 MSTORE PUSH1 0x20 ADD PUSH0 KECCAK256 SWAP1 POP DUP3 DUP2 PUSH1 0x1 ADD PUSH0 DUP3 DUP3 SLOAD PUSH2 0x637 SWAP2 SWAP1 PUSH2 0x13A5 JUMP JUMPDEST SWAP3 POP POP DUP2 SWAP1 SSTORE POP DUP3 DUP2 PUSH1 0x2 ADD PUSH0 DUP3 DUP3 SLOAD PUSH2 0x651 SWAP2 SWAP1 PUSH2 0x123A JUMP JUMPDEST SWAP3 POP POP DUP2 SWAP1 SSTORE POP DUP1 PUSH1 0x3 ADD PUSH0 DUP2 SLOAD DUP1 SWAP3 SWAP2 SWAP1 PUSH2 0x66C SWAP1 PUSH2 0x13D8 JUMP JUMPDEST SWAP2 SWAP1 POP SSTORE POP PUSH1 0x40 MLOAD DUP1 PUSH1 0x80 ADD PUSH1 0x40 MSTORE DUP1 DUP5 DUP2 MSTORE PUSH1 0x20 ADD CALLER PUSH20 0xFFFFFFFFFFFFFFFFFFFFFFFFFFFFFFFFFFFFFFFF AND DUP2 MSTORE PUSH1 0x20 ADD TIMESTAMP DUP2 MSTORE PUSH1 0x20 ADD PUSH1 0x1 ISZERO ISZERO DUP2 MSTORE POP PUSH1 0x2 PUSH0 DUP7 DUP2 MSTORE PUSH1 0x20 ADD SWAP1 DUP2 MSTORE PUSH1 0x20 ADD PUSH0 KECCAK256 PUSH0 DUP3 ADD MLOAD DUP2 PUSH0 ADD SSTORE PUSH1 0x20 DUP3 ADD MLOAD DUP2 PUSH1 0x1 ADD PUSH0 PUSH2 0x100 EXP DUP2 SLOAD DUP2 PUSH20 0xFFFFFFFFFFFFFFFFFFFFFFFFFFFFFFFFFFFFFFFF MUL NOT AND SWAP1 DUP4 PUSH20 0xFFFFFFFFFFFFFFFFFFFFFFFFFFFFFFFFFFFFFFFF AND MUL OR SWAP1 SSTORE POP PUSH1 0x40 DUP3 ADD MLOAD DUP2 PUSH1 0x2 ADD SSTORE PUSH1 0x60 DUP3 ADD MLOAD DUP2 PUSH1 0x3 ADD PUSH0 PUSH2 0x100 EXP DUP2 SLOAD DUP2 PUSH1 0xFF MUL NOT AND SWAP1 DUP4 ISZERO ISZERO MUL OR SWAP1 SSTORE POP SWAP1 POP POP DUP4 PUSH32 0xFAF7D24ECA5C2ED2E63E0E70578DB4EBDA8019CFF8040E61689979AF8CD739B1 DUP5 PUSH1 0x40 MLOAD PUSH2 0x766 SWAP2 SWAP1 PUSH2 0x1094 JUMP JUMPDEST PUSH1 0x40 MLOAD DUP1 SWAP2 SUB SWAP1 LOG2 POP POP POP POP JUMP JUMPDEST PUSH0 DUP1 PUSH1 0x2 PUSH0 DUP5 DUP2 MSTORE PUSH1 0x20 ADD SWAP1 DUP2 MSTORE PUSH1 0x20 ADD PUSH0 KECCAK256 PUSH1 0x40 MLOAD DUP1 PUSH1 0x80 ADD PUSH1 0x40 MSTORE SWAP1 DUP2 PUSH0 DUP3 ADD SLOAD DUP2 MSTORE PUSH1 0x20 ADD PUSH1 0x1 DUP3 ADD PUSH0 SWAP1 SLOAD SWAP1 PUSH2 0x100 EXP SWAP1 DIV PUSH20 0xFFFFFFFFFFFFFFFFFFFFFFFFFFFFFFFFFFFFFFFF AND PUSH20 0xFFFFFFFFFFFFFFFFFFFFFFFFFFFFFFFFFFFFFFFF AND PUSH20 0xFFFFFFFFFFFFFFFFFFFFFFFFFFFFFFFFFFFFFFFF AND DUP2 MSTORE PUSH1 0x20 ADD PUSH1 0x2 DUP3 ADD SLOAD DUP2 MSTORE PUSH1 0x20 ADD PUSH1 0x3 DUP3 ADD PUSH0 SWAP1 SLOAD SWAP1 PUSH2 0x100 EXP SWAP1 DIV PUSH1 0xFF AND ISZERO ISZERO ISZERO ISZERO DUP2 MSTORE POP POP SWAP1 POP DUP1 PUSH1 0x60 ADD MLOAD PUSH2 0x828 JUMPI PUSH0 SWAP2 POP POP PUSH2 0x830 JUMP JUMPDEST DUP1 PUSH0 ADD MLOAD SWAP2 POP POP JUMPDEST SWAP2 SWAP1 POP JUMP JUMPDEST PUSH3 0x278D00 DUP2 JUMP JUMPDEST PUSH1 0x1 PUSH1 0x20 MSTORE DUP1 PUSH0 MSTORE PUSH1 0x40 PUSH0 KECCAK256 PUSH0 SWAP2 POP SWAP1 POP DUP1 PUSH0 ADD SLOAD SWAP1 DUP1 PUSH1 0x1 ADD SLOAD SWAP1 DUP1 PUSH1 0x2 ADD SLOAD SWAP1 DUP1 PUSH1 0x3 ADD SLOAD SWAP1 POP DUP5 JUMP JUMPDEST PUSH0 DUP1 PUSH0 DUP1 PUSH0 PUSH1 0x1 PUSH0 DUP8 PUSH20 0xFFFFFFFFFFFFFFFFFFFFFFFFFFFFFFFFFFFFFFFF AND PUSH20 0xFFFFFFFFFFFFFFFFFFFFFFFFFFFFFFFFFFFFFFFF AND DUP2 MSTORE PUSH1 0x20 ADD SWAP1 DUP2 MSTORE PUSH1 0x20 ADD PUSH0 KECCAK256 PUSH1 0x40 MLOAD DUP1 PUSH1 0x80 ADD PUSH1 0x40 MSTORE SWAP1 DUP2 PUSH0 DUP3 ADD SLOAD DUP2 MSTORE PUSH1 0x20 ADD PUSH1 0x1 DUP3 ADD SLOAD DUP2 MSTORE PUSH1 0x20 ADD PUSH1 0x2 DUP3 ADD SLOAD DUP2 MSTORE PUSH1 0x20 ADD PUSH1 0x3 DUP3 ADD SLOAD DUP2 MSTORE POP POP SWAP1 POP DUP1 PUSH0 ADD MLOAD DUP2 PUSH1 0x20 ADD MLOAD DUP3 PUSH1 0x40 ADD MLOAD DUP4 PUSH1 0x60 ADD MLOAD SWAP5 POP SWAP5 POP SWAP5 POP SWAP5 POP POP SWAP2 SWAP4 POP SWAP2 SWAP4 JUMP JUMPDEST PUSH1 0x3 SLOAD DUP2 JUMP JUMPDEST DUP3 PUSH1 0x2 PUSH0 DUP3 DUP2 MSTORE PUSH1 0x20 ADD SWAP1 DUP2 MSTORE PUSH1 0x20 ADD PUSH0 KECCAK256 PUSH1 0x3 ADD PUSH0 SWAP1 SLOAD SWAP1 PUSH2 0x100 EXP SWAP1 DIV PUSH1 0xFF AND PUSH2 0x968 JUMPI PUSH1 0x40 MLOAD PUSH32 0x8C379A000000000000000000000000000000000000000000000000000000000 DUP2 MSTORE PUSH1 0x4 ADD PUSH2 0x95F SWAP1 PUSH2 0x1469 JUMP JUMPDEST PUSH1 0x40 MLOAD DUP1 SWAP2 SUB SWAP1 REVERT JUMPDEST PUSH0 PUSH1 0x2 PUSH0 DUP7 DUP2 MSTORE PUSH1 0x20 ADD SWAP1 DUP2 MSTORE PUSH1 0x20 ADD PUSH0 KECCAK256 SWAP1 POP DUP1 PUSH1 0x1 ADD PUSH0 SWAP1 SLOAD SWAP1 PUSH2 0x100 EXP SWAP1 DIV PUSH20 0xFFFFFFFFFFFFFFFFFFFFFFFFFFFFFFFFFFFFFFFF AND PUSH20 0xFFFFFFFFFFFFFFFFFFFFFFFFFFFFFFFFFFFFFFFF AND CALLER PUSH20 0xFFFFFFFFFFFFFFFFFFFFFFFFFFFFFFFFFFFFFFFF AND EQ PUSH2 0xA0D JUMPI PUSH1 0x40 MLOAD PUSH32 0x8C379A000000000000000000000000000000000000000000000000000000000 DUP2 MSTORE PUSH1 0x4 ADD PUSH2 0xA04 SWAP1 PUSH2 0x14D1 JUMP JUMPDEST PUSH1 0x40 MLOAD DUP1 SWAP2 SUB SWAP1 REVERT JUMPDEST DUP3 DUP2 PUSH0 ADD SLOAD LT ISZERO PUSH2 0xA53 JUMPI PUSH1 0x40 MLOAD PUSH32 0x8C379A000000000000000000000000000000000000000000000000000000000 DUP2 MSTORE PUSH1 0x4 ADD PUSH2 0xA4A SWAP1 PUSH2 0x1539 JUMP JUMPDEST PUSH1 0x40 MLOAD DUP1 SWAP2 SUB SWAP1 REVERT JUMPDEST PUSH0 PUSH1 0x2 PUSH0 DUP7 DUP2 MSTORE PUSH1 0x20 ADD SWAP1 DUP2 MSTORE PUSH1 0x20 ADD PUSH0 KECCAK256 PUSH0 ADD SLOAD EQ PUSH2 0xAA8 JUMPI PUSH1 0x40 MLOAD PUSH32 0x8C379A000000000000000000000000000000000000000000000000000000000 DUP2 MSTORE PUSH1 0x4 ADD PUSH2 0xA9F SWAP1 PUSH2 0x15A1 JUMP JUMPDEST PUSH1 0x40 MLOAD DUP1 SWAP2 SUB SWAP1 REVERT JUMPDEST DUP3 DUP2 PUSH0 ADD PUSH0 DUP3 DUP3 SLOAD PUSH2 0xABA SWAP2 SWAP1 PUSH2 0x13A5 JUMP JUMPDEST SWAP3 POP POP DUP2 SWAP1 SSTORE POP PUSH0 DUP2 PUSH0 ADD SLOAD SUB PUSH2 0xB41 JUMPI PUSH0 DUP2 PUSH1 0x3 ADD PUSH0 PUSH2 0x100 EXP DUP2 SLOAD DUP2 PUSH1 0xFF MUL NOT AND SWAP1 DUP4 ISZERO ISZERO MUL OR SWAP1 SSTORE POP PUSH0 PUSH1 0x1 PUSH0 CALLER PUSH20 0xFFFFFFFFFFFFFFFFFFFFFFFFFFFFFFFFFFFFFFFF AND PUSH20 0xFFFFFFFFFFFFFFFFFFFFFFFFFFFFFFFFFFFFFFFF AND DUP2 MSTORE PUSH1 0x20 ADD SWAP1 DUP2 MSTORE PUSH1 0x20 ADD PUSH0 KECCAK256 SWAP1 POP DUP1 PUSH1 0x3 ADD PUSH0 DUP2 SLOAD DUP1 SWAP3 SWAP2 SWAP1 PUSH2 0xB3A SWAP1 PUSH2 0x15BF JUMP JUMPDEST SWAP2 SWAP1 POP SSTORE POP POP JUMPDEST PUSH1 0x40 MLOAD DUP1 PUSH1 0x80 ADD PUSH1 0x40 MSTORE DUP1 DUP5 DUP2 MSTORE PUSH1 0x20 ADD CALLER PUSH20 0xFFFFFFFFFFFFFFFFFFFFFFFFFFFFFFFFFFFFFFFF AND DUP2 MSTORE PUSH1 0x20 ADD TIMESTAMP DUP2 MSTORE PUSH1 0x20 ADD PUSH1 0x1 ISZERO ISZERO DUP2 MSTORE POP PUSH1 0x2 PUSH0 DUP7 DUP2 MSTORE PUSH1 0x20 ADD SWAP1 DUP2 MSTORE PUSH1 0x20 ADD PUSH0 KECCAK256 PUSH0 DUP3 ADD MLOAD DUP2 PUSH0 ADD SSTORE PUSH1 0x20 DUP3 ADD MLOAD DUP2 PUSH1 0x1 ADD PUSH0 PUSH2 0x100 EXP DUP2 SLOAD DUP2 PUSH20 0xFFFFFFFFFFFFFFFFFFFFFFFFFFFFFFFFFFFFFFFF MUL NOT AND SWAP1 DUP4 PUSH20 0xFFFFFFFFFFFFFFFFFFFFFFFFFFFFFFFFFFFFFFFF AND MUL OR SWAP1 SSTORE POP PUSH1 0x40 DUP3 ADD MLOAD DUP2 PUSH1 0x2 ADD SSTORE PUSH1 0x60 DUP3 ADD MLOAD DUP2 PUSH1 0x3 ADD PUSH0 PUSH2 0x100 EXP DUP2 SLOAD DUP2 PUSH1 0xFF MUL NOT AND SWAP1 DUP4 ISZERO ISZERO MUL OR SWAP1 SSTORE POP SWAP1 POP POP DUP4 DUP6 PUSH32 0x9A26CFE9143AF653ECB2415E29F0888DE1A4A6A8711824C24E166E081E43BBEC DUP6 PUSH1 0x40 MLOAD PUSH2 0xC37 SWAP2 SWAP1 PUSH2 0x1094 JUMP JUMPDEST PUSH1 0x40 MLOAD DUP1 SWAP2 SUB SWAP1 LOG3 POP POP POP POP POP JUMP JUMPDEST PUSH0 PUSH1 0x1 PUSH0 DUP4 PUSH20 0xFFFFFFFFFFFFFFFFFFFFFFFFFFFFFFFFFFFFFFFF AND PUSH20 0xFFFFFFFFFFFFFFFFFFFFFFFFFFFFFFFFFFFFFFFF AND DUP2 MSTORE PUSH1 0x20 ADD SWAP1 DUP2 MSTORE PUSH1 0x20 ADD PUSH0 KECCAK256 PUSH1 0x1 ADD SLOAD SWAP1 POP SWAP2 SWAP1 POP JUMP JUMPDEST PUSH7 0x2386F26FC10000 DUP2 JUMP JUMPDEST DUP1 PUSH1 0x2 PUSH0 DUP3 DUP2 MSTORE PUSH1 0x20 ADD SWAP1 DUP2 MSTORE PUSH1 0x20 ADD PUSH0 KECCAK256 PUSH1 0x3 ADD PUSH0 SWAP1 SLOAD SWAP1 PUSH2 0x100 EXP SWAP1 DIV PUSH1 0xFF AND PUSH2 0xCFB JUMPI PUSH1 0x40 MLOAD PUSH32 0x8C379A000000000000000000000000000000000000000000000000000000000 DUP2 MSTORE PUSH1 0x4 ADD PUSH2 0xCF2 SWAP1 PUSH2 0x1469 JUMP JUMPDEST PUSH1 0x40 MLOAD DUP1 SWAP2 SUB SWAP1 REVERT JUMPDEST PUSH0 PUSH1 0x2 PUSH0 DUP5 DUP2 MSTORE PUSH1 0x20 ADD SWAP1 DUP2 MSTORE PUSH1 0x20 ADD PUSH0 KECCAK256 SWAP1 POP DUP1 PUSH1 0x1 ADD PUSH0 SWAP1 SLOAD SWAP1 PUSH2 0x100 EXP SWAP1 DIV PUSH20 0xFFFFFFFFFFFFFFFFFFFFFFFFFFFFFFFFFFFFFFFF AND PUSH20 0xFFFFFFFFFFFFFFFFFFFFFFFFFFFFFFFFFFFFFFFF AND CALLER PUSH20 0xFFFFFFFFFFFFFFFFFFFFFFFFFFFFFFFFFFFFFFFF AND EQ PUSH2 0xDA0 JUMPI PUSH1 0x40 MLOAD PUSH32 0x8C379A000000000000000000000000000000000000000000000000000000000 DUP2 MSTORE PUSH1 0x4 ADD PUSH2 0xD97 SWAP1 PUSH2 0x14D1 JUMP JUMPDEST PUSH1 0x40 MLOAD DUP1 SWAP2 SUB SWAP1 REVERT JUMPDEST PUSH0 PUSH1 0x1 PUSH0 CALLER PUSH20 0xFFFFFFFFFFFFFFFFFFFFFFFFFFFFFFFFFFFFFFFF AND PUSH20 0xFFFFFFFFFFFFFFFFFFFFFFFFFFFFFFFFFFFFFFFF AND DUP2 MSTORE PUSH1 0x20 ADD SWAP1 DUP2 MSTORE PUSH1 0x20 ADD PUSH0 KECCAK256 SWAP1 POP DUP2 PUSH0 ADD SLOAD DUP2 PUSH1 0x1 ADD PUSH0 DUP3 DUP3 SLOAD PUSH2 0xDF6 SWAP2 SWAP1 PUSH2 0x123A JUMP JUMPDEST SWAP3 POP POP DUP2 SWAP1 SSTORE POP DUP2 PUSH0 ADD SLOAD DUP2 PUSH1 0x2 ADD PUSH0 DUP3 DUP3 SLOAD PUSH2 0xE13 SWAP2 SWAP1 PUSH2 0x13A5 JUMP JUMPDEST SWAP3 POP POP DUP2 SWAP1 SSTORE POP DUP1 PUSH1 0x3 ADD PUSH0 DUP2 SLOAD DUP1 SWAP3 SWAP2 SWAP1 PUSH2 0xE2E SWAP1 PUSH2 0x15BF JUMP JUMPDEST SWAP2 SWAP1 POP SSTORE POP PUSH0 DUP3 PUSH1 0x3 ADD PUSH0 PUSH2 0x100 EXP DUP2 SLOAD DUP2 PUSH1 0xFF MUL NOT AND SWAP1 DUP4 ISZERO ISZERO MUL OR SWAP1 SSTORE POP DUP4 PUSH32 0x92717314C0B0F9D632E1D46A0B8437778FF9DAEE1DB8EC295F2BC0B57C4BCAAC PUSH1 0x40 MLOAD PUSH1 0x40 MLOAD DUP1 SWAP2 SUB SWAP1 LOG2 POP POP POP POP JUMP JUMPDEST PUSH0 DUP1 PUSH0 DUP1 PUSH0 PUSH1 0x2 PUSH0 DUP8 DUP2 MSTORE PUSH1 0x20 ADD SWAP1 DUP2 MSTORE PUSH1 0x20 ADD PUSH0 KECCAK256 PUSH1 0x40 MLOAD DUP1 PUSH1 0x80 ADD PUSH1 0x40 MSTORE SWAP1 DUP2 PUSH0 DUP3 ADD SLOAD DUP2 MSTORE PUSH1 0x20 ADD PUSH1 0x1 DUP3 ADD PUSH0 SWAP1 SLOAD SWAP1 PUSH2 0x100 EXP SWAP1 DIV PUSH20 0xFFFFFFFFFFFFFFFFFFFFFFFFFFFFFFFFFFFFFFFF AND PUSH20 0xFFFFFFFFFFFFFFFFFFFFFFFFFFFFFFFFFFFFFFFF AND PUSH20 0xFFFFFFFFFFFFFFFFFFFFFFFFFFFFFFFFFFFFFFFF AND DUP2 MSTORE PUSH1 0x20 ADD PUSH1 0x2 DUP3 ADD SLOAD DUP2 MSTORE PUSH1 0x20 ADD PUSH1 0x3 DUP3 ADD PUSH0 SWAP1 SLOAD SWAP1 PUSH2 0x100 EXP SWAP1 DIV PUSH1 0xFF AND ISZERO ISZERO ISZERO ISZERO DUP2 MSTORE POP POP SWAP1 POP DUP1 PUSH0 ADD MLOAD DUP2 PUSH1 0x20 ADD MLOAD DUP3 PUSH1 0x40 ADD MLOAD DUP4 PUSH1 0x60 ADD MLOAD SWAP5 POP SWAP5 POP SWAP5 POP SWAP5 POP POP SWAP2 SWAP4 POP SWAP2 SWAP4 JUMP JUMPDEST PUSH0 DUP1 REVERT JUMPDEST PUSH0 DUP2 SWAP1 POP SWAP2 SWAP1 POP JUMP JUMPDEST PUSH2 0xF5F DUP2 PUSH2 0xF4D JUMP JUMPDEST DUP2 EQ PUSH2 0xF69 JUMPI PUSH0 DUP1 REVERT JUMPDEST POP JUMP JUMPDEST PUSH0 DUP2 CALLDATALOAD SWAP1 POP PUSH2 0xF7A DUP2 PUSH2 0xF56 JUMP JUMPDEST SWAP3 SWAP2 POP POP JUMP JUMPDEST PUSH0 PUSH1 0x20 DUP3 DUP5 SUB SLT ISZERO PUSH2 0xF95 JUMPI PUSH2 0xF94 PUSH2 0xF49 JUMP JUMPDEST JUMPDEST PUSH0 PUSH2 0xFA2 DUP5 DUP3 DUP6 ADD PUSH2 0xF6C JUMP JUMPDEST SWAP2 POP POP SWAP3 SWAP2 POP POP JUMP JUMPDEST PUSH2 0xFB4 DUP2 PUSH2 0xF4D JUMP JUMPDEST DUP3 MSTORE POP POP JUMP JUMPDEST PUSH0 PUSH20 0xFFFFFFFFFFFFFFFFFFFFFFFFFFFFFFFFFFFFFFFF DUP3 AND SWAP1 POP SWAP2 SWAP1 POP JUMP JUMPDEST PUSH0 PUSH2 0xFE3 DUP3 PUSH2 0xFBA JUMP JUMPDEST SWAP1 POP SWAP2 SWAP1 POP JUMP JUMPDEST PUSH2 0xFF3 DUP2 PUSH2 0xFD9 JUMP JUMPDEST DUP3 MSTORE POP POP JUMP JUMPDEST PUSH0 DUP2 ISZERO ISZERO SWAP1 POP SWAP2 SWAP1 POP JUMP JUMPDEST PUSH2 0x100D DUP2 PUSH2 0xFF9 JUMP JUMPDEST DUP3 MSTORE POP POP JUMP JUMPDEST PUSH0 PUSH1 0x80 DUP3 ADD SWAP1 POP PUSH2 0x1026 PUSH0 DUP4 ADD DUP8 PUSH2 0xFAB JUMP JUMPDEST PUSH2 0x1033 PUSH1 0x20 DUP4 ADD DUP7 PUSH2 0xFEA JUMP JUMPDEST PUSH2 0x1040 PUSH1 0x40 DUP4 ADD DUP6 PUSH2 0xFAB JUMP JUMPDEST PUSH2 0x104D PUSH1 0x60 DUP4 ADD DUP5 PUSH2 0x1004 JUMP JUMPDEST SWAP6 SWAP5 POP POP POP POP POP JUMP JUMPDEST PUSH0 DUP1 PUSH1 0x40 DUP4 DUP6 SUB SLT ISZERO PUSH2 0x106C JUMPI PUSH2 0x106B PUSH2 0xF49 JUMP JUMPDEST JUMPDEST PUSH0 PUSH2 0x1079 DUP6 DUP3 DUP7 ADD PUSH2 0xF6C JUMP JUMPDEST SWAP3 POP POP PUSH1 0x20 PUSH2 0x108A DUP6 DUP3 DUP7 ADD PUSH2 0xF6C JUMP JUMPDEST SWAP2 POP POP SWAP3 POP SWAP3 SWAP1 POP JUMP JUMPDEST PUSH0 PUSH1 0x20 DUP3 ADD SWAP1 POP PUSH2 0x10A7 PUSH0 DUP4 ADD DUP5 PUSH2 0xFAB JUMP JUMPDEST SWAP3 SWAP2 POP POP JUMP JUMPDEST PUSH2 0x10B6 DUP2 PUSH2 0xFD9 JUMP JUMPDEST DUP2 EQ PUSH2 0x10C0 JUMPI PUSH0 DUP1 REVERT JUMPDEST POP JUMP JUMPDEST PUSH0 DUP2 CALLDATALOAD SWAP1 POP PUSH2 0x10D1 DUP2 PUSH2 0x10AD JUMP JUMPDEST SWAP3 SWAP2 POP POP JUMP JUMPDEST PUSH0 PUSH1 0x20 DUP3 DUP5 SUB SLT ISZERO PUSH2 0x10EC JUMPI PUSH2 0x10EB PUSH2 0xF49 JUMP JUMPDEST JUMPDEST PUSH0 PUSH2 0x10F9 DUP5 DUP3 DUP6 ADD PUSH2 0x10C3 JUMP JUMPDEST SWAP2 POP POP SWAP3 SWAP2 POP POP JUMP JUMPDEST PUSH0 PUSH1 0x80 DUP3 ADD SWAP1 POP PUSH2 0x1115 PUSH0 DUP4 ADD DUP8 PUSH2 0xFAB JUMP JUMPDEST PUSH2 0x1122 PUSH1 0x20 DUP4 ADD DUP7 PUSH2 0xFAB JUMP JUMPDEST PUSH2 0x112F PUSH1 0x40 DUP4 ADD DUP6 PUSH2 0xFAB JUMP JUMPDEST PUSH2 0x113C PUSH1 0x60 DUP4 ADD DUP5 PUSH2 0xFAB JUMP JUMPDEST SWAP6 SWAP5 POP POP POP POP POP JUMP JUMPDEST PUSH0 DUP1 PUSH0 PUSH1 0x60 DUP5 DUP7 SUB SLT ISZERO PUSH2 0x115C JUMPI PUSH2 0x115B PUSH2 0xF49 JUMP JUMPDEST JUMPDEST PUSH0 PUSH2 0x1169 DUP7 DUP3 DUP8 ADD PUSH2 0xF6C JUMP JUMPDEST SWAP4 POP POP PUSH1 0x20 PUSH2 0x117A DUP7 DUP3 DUP8 ADD PUSH2 0xF6C JUMP JUMPDEST SWAP3 POP POP PUSH1 0x40 PUSH2 0x118B DUP7 DUP3 DUP8 ADD PUSH2 0xF6C JUMP JUMPDEST SWAP2 POP POP SWAP3 POP SWAP3 POP SWAP3 JUMP JUMPDEST PUSH0 DUP3 DUP3 MSTORE PUSH1 0x20 DUP3 ADD SWAP1 POP SWAP3 SWAP2 POP POP JUMP JUMPDEST PUSH32 0x4465706F73697420746F6F20736D616C6C000000000000000000000000000000 PUSH0 DUP3 ADD MSTORE POP JUMP JUMPDEST PUSH0 PUSH2 0x11D9 PUSH1 0x11 DUP4 PUSH2 0x1195 JUMP JUMPDEST SWAP2 POP PUSH2 0x11E4 DUP3 PUSH2 0x11A5 JUMP JUMPDEST PUSH1 0x20 DUP3 ADD SWAP1 POP SWAP2 SWAP1 POP JUMP JUMPDEST PUSH0 PUSH1 0x20 DUP3 ADD SWAP1 POP DUP2 DUP2 SUB PUSH0 DUP4 ADD MSTORE PUSH2 0x1206 DUP2 PUSH2 0x11CD JUMP JUMPDEST SWAP1 POP SWAP2 SWAP1 POP JUMP JUMPDEST PUSH32 0x4E487B7100000000000000000000000000000000000000000000000000000000 PUSH0 MSTORE PUSH1 0x11 PUSH1 0x4 MSTORE PUSH1 0x24 PUSH0 REVERT JUMPDEST PUSH0 PUSH2 0x1244 DUP3 PUSH2 0xF4D JUMP JUMPDEST SWAP2 POP PUSH2 0x124F DUP4 PUSH2 0xF4D JUMP JUMPDEST SWAP3 POP DUP3 DUP3 ADD SWAP1 POP DUP1 DUP3 GT ISZERO PUSH2 0x1267 JUMPI PUSH2 0x1266 PUSH2 0x120D JUMP JUMPDEST JUMPDEST SWAP3 SWAP2 POP POP JUMP JUMPDEST PUSH32 0x496E73756666696369656E742062616C616E6365000000000000000000000000 PUSH0 DUP3 ADD MSTORE POP JUMP JUMPDEST PUSH0 PUSH2 0x12A1 PUSH1 0x14 DUP4 PUSH2 0x1195 JUMP JUMPDEST SWAP2 POP PUSH2 0x12AC DUP3 PUSH2 0x126D JUMP JUMPDEST PUSH1 0x20 DUP3 ADD SWAP1 POP SWAP2 SWAP1 POP JUMP JUMPDEST PUSH0 PUSH1 0x20 DUP3 ADD SWAP1 POP DUP2 DUP2 SUB PUSH0 DUP4 ADD MSTORE PUSH2 0x12CE DUP2 PUSH2 0x1295 JUMP JUMPDEST SWAP1 POP SWAP2 SWAP1 POP JUMP JUMPDEST PUSH32 0x416D6F756E74206D75737420626520706F736974697665000000000000000000 PUSH0 DUP3 ADD MSTORE POP JUMP JUMPDEST PUSH0 PUSH2 0x1309 PUSH1 0x17 DUP4 PUSH2 0x1195 JUMP JUMPDEST SWAP2 POP PUSH2 0x1314 DUP3 PUSH2 0x12D5 JUMP JUMPDEST PUSH1 0x20 DUP3 ADD SWAP1 POP SWAP2 SWAP1 POP JUMP JUMPDEST PUSH0 PUSH1 0x20 DUP3 ADD SWAP1 POP DUP2 DUP2 SUB PUSH0 DUP4 ADD MSTORE PUSH2 0x1336 DUP2 PUSH2 0x12FD JUMP JUMPDEST SWAP1 POP SWAP2 SWAP1 POP JUMP JUMPDEST PUSH32 0x426F756E747920616C7265616479206578697374730000000000000000000000 PUSH0 DUP3 ADD MSTORE POP JUMP JUMPDEST PUSH0 PUSH2 0x1371 PUSH1 0x15 DUP4 PUSH2 0x1195 JUMP JUMPDEST SWAP2 POP PUSH2 0x137C DUP3 PUSH2 0x133D JUMP JUMPDEST PUSH1 0x20 DUP3 ADD SWAP1 POP SWAP2 SWAP1 POP JUMP JUMPDEST PUSH0 PUSH1 0x20 DUP3 ADD SWAP1 POP DUP2 DUP2 SUB PUSH0 DUP4 ADD MSTORE PUSH2 0x139E DUP2 PUSH2 0x1365 JUMP JUMPDEST SWAP1 POP SWAP2 SWAP1 POP JUMP JUMPDEST PUSH0 PUSH2 0x13AF DUP3 PUSH2 0xF4D JUMP JUMPDEST SWAP2 POP PUSH2 0x13BA DUP4 PUSH2 0xF4D JUMP JUMPDEST SWAP3 POP DUP3 DUP3 SUB SWAP1 POP DUP2 DUP2 GT ISZERO PUSH2 0x13D2 JUMPI PUSH2 0x13D1 PUSH2 0x120D JUMP JUMPDEST JUMPDEST SWAP3 SWAP2 POP POP JUMP JUMPDEST PUSH0 PUSH2 0x13E2 DUP3 PUSH2 0xF4D JUMP JUMPDEST SWAP2 POP PUSH32 0xFFFFFFFFFFFFFFFFFFFFFFFFFFFFFFFFFFFFFFFFFFFFFFFFFFFFFFFFFFFFFFFF DUP3 SUB PUSH2 0x1414 JUMPI PUSH2 0x1413 PUSH2 0x120D JUMP JUMPDEST JUMPDEST PUSH1 0x1 DUP3 ADD SWAP1 POP SWAP2 SWAP1 POP JUMP JUMPDEST PUSH32 0x426F756E7479206E6F7420616374697665000000000000000000000000000000 PUSH0 DUP3 ADD MSTORE POP JUMP JUMPDEST PUSH0 PUSH2 0x1453 PUSH1 0x11 DUP4 PUSH2 0x1195 JUMP JUMPDEST SWAP2 POP PUSH2 0x145E DUP3 PUSH2 0x141F JUMP JUMPDEST PUSH1 0x20 DUP3 ADD SWAP1 POP SWAP2 SWAP1 POP JUMP JUMPDEST PUSH0 PUSH1 0x20 DUP3 ADD SWAP1 POP DUP2 DUP2 SUB PUSH0 DUP4 ADD MSTORE PUSH2 0x1480 DUP2 PUSH2 0x1447 JUMP JUMPDEST SWAP1 POP SWAP2 SWAP1 POP JUMP JUMPDEST PUSH32 0x4E6F7420626F756E74792066756E646572000000000000000000000000000000 PUSH0 DUP3 ADD MSTORE POP JUMP JUMPDEST PUSH0 PUSH2 0x14BB PUSH1 0x11 DUP4 PUSH2 0x1195 JUMP JUMPDEST SWAP2 POP PUSH2 0x14C6 DUP3 PUSH2 0x1487 JUMP JUMPDEST PUSH1 0x20 DUP3 ADD SWAP1 POP SWAP2 SWAP1 POP JUMP JUMPDEST PUSH0 PUSH1 0x20 DUP3 ADD SWAP1 POP DUP2 DUP2 SUB PUSH0 DUP4 ADD MSTORE PUSH2 0x14E8 DUP2 PUSH2 0x14AF JUMP JUMPDEST SWAP1 POP SWAP2 SWAP1 POP JUMP JUMPDEST PUSH32 0x496E73756666696369656E7420626F756E747920616D6F756E74000000000000 PUSH0 DUP3 ADD MSTORE POP JUMP JUMPDEST PUSH0 PUSH2 0x1523 PUSH1 0x1A DUP4 PUSH2 0x1195 JUMP JUMPDEST SWAP2 POP PUSH2 0x152E DUP3 PUSH2 0x14EF JUMP JUMPDEST PUSH1 0x20 DUP3 ADD SWAP1 POP SWAP2 SWAP1 POP JUMP JUMPDEST PUSH0 PUSH1 0x20 DUP3 ADD SWAP1 POP DUP2 DUP2 SUB PUSH0 DUP4 ADD MSTORE PUSH2 0x1550 DUP2 PUSH2 0x1517 JUMP JUMPDEST SWAP1 POP SWAP2 SWAP1 POP JUMP JUMPDEST PUSH32 0x54617267657420697373756520616C72656164792068617320626F756E747900 PUSH0 DUP3 ADD MSTORE POP JUMP JUMPDEST PUSH0 PUSH2 0x158B PUSH1 0x1F DUP4 PUSH2 0x1195 JUMP JUMPDEST SWAP2 POP PUSH2 0x1596 DUP3 PUSH2 0x1557 JUMP JUMPDEST PUSH1 0x20 DUP3 ADD SWAP1 POP SWAP2 SWAP1 POP JUMP JUMPDEST PUSH0 PUSH1 0x20 DUP3 ADD SWAP1 POP DUP2 DUP2 SUB PUSH0 DUP4 ADD MSTORE PUSH2 0x15B8 DUP2 PUSH2 0x157F JUMP JUMPDEST SWAP1 POP SWAP2 SWAP1 POP JUMP JUMPDEST PUSH0 PUSH2 0x15C9 DUP3 PUSH2 0xF4D JUMP JUMPDEST SWAP2 POP PUSH0 DUP3 SUB PUSH2 0x15DB JUMPI PUSH2 0x15DA PUSH2 0x120D JUMP JUMPDEST JUMPDEST PUSH1 0x1 DUP3 SUB SWAP1 POP SWAP2 SWAP1 POP JUMP INVALID LOG2 PUSH5 0x6970667358 0x22 SLT KECCAK256 ADDRESS MSIZE 0x4B GT 0xCC 0x2E DUP6 0xC5 JUMP 0xDF DUP14 CHAINID PUSH25 0xEBF4D58477F940C8F3B07F60E0E7740AE65E0164736F6C6343 STOP ADDMOD BYTE STOP CALLER "
				},
				"gasEstimates": {
					"creation": {
						"codeDepositCost": "1132000",
						"executionCost": "1172",
						"totalCost": "1133172"
					},
					"external": {
						"MAX_BOUNTY_DURATION()": "392",
						"MIN_DEPOSIT()": "347",
						"allocateBounty(uint256,uint256)": "infinite",
						"bountyInfo(uint256)": "infinite",
						"cancelBounty(uint256)": "infinite",
						"depositFunds()": "infinite",
						"funderInfo(address)": "infinite",
						"getBountyDetails(uint256)": "infinite",
						"getFunderBalance(address)": "2902",
						"getFunderDetails(address)": "infinite",
						"getIssueBounty(uint256)": "infinite",
						"reallocateFunds(uint256,uint256,uint256)": "infinite",
						"totalFunds()": "2448"
					}
				},
				"methodIdentifiers": {
					"MAX_BOUNTY_DURATION()": "496e62f7",
					"MIN_DEPOSIT()": "e1e158a5",
					"allocateBounty(uint256,uint256)": "21df103a",
					"bountyInfo(uint256)": "0857e69c",
					"cancelBounty(uint256)": "e5e5dff1",
					"depositFunds()": "e2c41dbc",
					"funderInfo(address)": "51594276",
					"getBountyDetails(uint256)": "f0f284fc",
					"getFunderBalance(address)": "b8b3d85b",
					"getFunderDetails(address)": "8017960d",
					"getIssueBounty(uint256)": "454fa1b1",
					"reallocateFunds(uint256,uint256,uint256)": "b6f5cad2",
					"totalFunds()": "968ed600"
				}
			},
			"storageLayout": {
				"storage": [
					{
						"astId": 13,
						"contract": "prog2005-2025/lab02/gitlab-fund/contracts/FundManager.sol:FundManager",
						"label": "_reentrancyContext",
						"offset": 0,
						"slot": "0",
						"type": "t_struct(NonReentrantContext)574_storage"
					},
					{
						"astId": 36,
						"contract": "prog2005-2025/lab02/gitlab-fund/contracts/FundManager.sol:FundManager",
						"label": "funderInfo",
						"offset": 0,
						"slot": "1",
						"type": "t_mapping(t_address,t_struct(FunderInfo)22_storage)"
					},
					{
						"astId": 41,
						"contract": "prog2005-2025/lab02/gitlab-fund/contracts/FundManager.sol:FundManager",
						"label": "bountyInfo",
						"offset": 0,
						"slot": "2",
						"type": "t_mapping(t_uint256,t_struct(BountyInfo)31_storage)"
					},
					{
						"astId": 43,
						"contract": "prog2005-2025/lab02/gitlab-fund/contracts/FundManager.sol:FundManager",
						"label": "totalFunds",
						"offset": 0,
						"slot": "3",
						"type": "t_uint256"
					}
				],
				"types": {
					"t_address": {
						"encoding": "inplace",
						"label": "address",
						"numberOfBytes": "20"
					},
					"t_bool": {
						"encoding": "inplace",
						"label": "bool",
						"numberOfBytes": "1"
					},
					"t_bytes32": {
						"encoding": "inplace",
						"label": "bytes32",
						"numberOfBytes": "32"
					},
					"t_mapping(t_address,t_struct(FunderInfo)22_storage)": {
						"encoding": "mapping",
						"key": "t_address",
						"label": "mapping(address => struct FundManager.FunderInfo)",
						"numberOfBytes": "32",
						"value": "t_struct(FunderInfo)22_storage"
					},
					"t_mapping(t_uint256,t_struct(BountyInfo)31_storage)": {
						"encoding": "mapping",
						"key": "t_uint256",
						"label": "mapping(uint256 => struct FundManager.BountyInfo)",
						"numberOfBytes": "32",
						"value": "t_struct(BountyInfo)31_storage"
					},
					"t_struct(BountyInfo)31_storage": {
						"encoding": "inplace",
						"label": "struct FundManager.BountyInfo",
						"members": [
							{
								"astId": 24,
								"contract": "prog2005-2025/lab02/gitlab-fund/contracts/FundManager.sol:FundManager",
								"label": "amount",
								"offset": 0,
								"slot": "0",
								"type": "t_uint256"
							},
							{
								"astId": 26,
								"contract": "prog2005-2025/lab02/gitlab-fund/contracts/FundManager.sol:FundManager",
								"label": "funder",
								"offset": 0,
								"slot": "1",
								"type": "t_address"
							},
							{
								"astId": 28,
								"contract": "prog2005-2025/lab02/gitlab-fund/contracts/FundManager.sol:FundManager",
								"label": "createdAt",
								"offset": 0,
								"slot": "2",
								"type": "t_uint256"
							},
							{
								"astId": 30,
								"contract": "prog2005-2025/lab02/gitlab-fund/contracts/FundManager.sol:FundManager",
								"label": "active",
								"offset": 0,
								"slot": "3",
								"type": "t_bool"
							}
						],
						"numberOfBytes": "128"
					},
					"t_struct(FunderInfo)22_storage": {
						"encoding": "inplace",
						"label": "struct FundManager.FunderInfo",
						"members": [
							{
								"astId": 15,
								"contract": "prog2005-2025/lab02/gitlab-fund/contracts/FundManager.sol:FundManager",
								"label": "totalDeposited",
								"offset": 0,
								"slot": "0",
								"type": "t_uint256"
							},
							{
								"astId": 17,
								"contract": "prog2005-2025/lab02/gitlab-fund/contracts/FundManager.sol:FundManager",
								"label": "currentBalance",
								"offset": 0,
								"slot": "1",
								"type": "t_uint256"
							},
							{
								"astId": 19,
								"contract": "prog2005-2025/lab02/gitlab-fund/contracts/FundManager.sol:FundManager",
								"label": "totalAllocated",
								"offset": 0,
								"slot": "2",
								"type": "t_uint256"
							},
							{
								"astId": 21,
								"contract": "prog2005-2025/lab02/gitlab-fund/contracts/FundManager.sol:FundManager",
								"label": "activeBounties",
								"offset": 0,
								"slot": "3",
								"type": "t_uint256"
							}
						],
						"numberOfBytes": "128"
					},
					"t_struct(NonReentrantContext)574_storage": {
						"encoding": "inplace",
						"label": "struct SecurityUtils.NonReentrantContext",
						"members": [
							{
								"astId": 573,
								"contract": "prog2005-2025/lab02/gitlab-fund/contracts/FundManager.sol:FundManager",
								"label": "_reentrancyGuardStatus",
								"offset": 0,
								"slot": "0",
								"type": "t_bytes32"
							}
						],
						"numberOfBytes": "32"
					},
					"t_uint256": {
						"encoding": "inplace",
						"label": "uint256",
						"numberOfBytes": "32"
					}
				}
			},
			"userdoc": {
				"kind": "user",
				"methods": {},
				"notice": "Manages funding and bounty allocation for GitLab issues",
				"version": 1
			}
		}
	}
}