{
	"prog2005-2025/lab02/gitlab-fund/contracts/FundManager.sol": {
		"FundManager": {
			"abi": [
				{
					"anonymous": false,
					"inputs": [
						{
							"indexed": true,
							"internalType": "uint256",
							"name": "issueId",
							"type": "uint256"
						},
						{
							"indexed": false,
							"internalType": "uint256",
							"name": "amount",
							"type": "uint256"
						}
					],
					"name": "BountyAllocated",
					"type": "event"
				},
				{
					"anonymous": false,
					"inputs": [
						{
							"indexed": true,
							"internalType": "address",
							"name": "funder",
							"type": "address"
						},
						{
							"indexed": false,
							"internalType": "uint256",
							"name": "amount",
							"type": "uint256"
						}
					],
					"name": "FundsDeposited",
					"type": "event"
				},
				{
					"anonymous": false,
					"inputs": [
						{
							"indexed": true,
							"internalType": "uint256",
							"name": "fromIssue",
							"type": "uint256"
						},
						{
							"indexed": true,
							"internalType": "uint256",
							"name": "toIssue",
							"type": "uint256"
						},
						{
							"indexed": false,
							"internalType": "uint256",
							"name": "amount",
							"type": "uint256"
						}
					],
					"name": "FundsReallocated",
					"type": "event"
				},
				{
					"inputs": [],
					"name": "MIN_DEPOSIT",
					"outputs": [
						{
							"internalType": "uint256",
							"name": "",
							"type": "uint256"
						}
					],
					"stateMutability": "view",
					"type": "function"
				},
				{
					"inputs": [
						{
							"internalType": "uint256",
							"name": "issueId",
							"type": "uint256"
						},
						{
							"internalType": "uint256",
							"name": "amount",
							"type": "uint256"
						}
					],
					"name": "allocateBounty",
					"outputs": [],
					"stateMutability": "nonpayable",
					"type": "function"
				},
				{
					"inputs": [],
					"name": "depositFunds",
					"outputs": [],
					"stateMutability": "payable",
					"type": "function"
				},
				{
					"inputs": [
						{
							"internalType": "address",
							"name": "",
							"type": "address"
						}
					],
					"name": "funderBalances",
					"outputs": [
						{
							"internalType": "uint256",
							"name": "",
							"type": "uint256"
						}
					],
					"stateMutability": "view",
					"type": "function"
				},
				{
					"inputs": [
						{
							"internalType": "address",
							"name": "funder",
							"type": "address"
						}
					],
					"name": "getFunderBalance",
					"outputs": [
						{
							"internalType": "uint256",
							"name": "",
							"type": "uint256"
						}
					],
					"stateMutability": "view",
					"type": "function"
				},
				{
					"inputs": [
						{
							"internalType": "uint256",
							"name": "issueId",
							"type": "uint256"
						}
					],
					"name": "getIssueBounty",
					"outputs": [
						{
							"internalType": "uint256",
							"name": "",
							"type": "uint256"
						}
					],
					"stateMutability": "view",
					"type": "function"
				},
				{
					"inputs": [
						{
							"internalType": "uint256",
							"name": "",
							"type": "uint256"
						}
					],
					"name": "issueBounties",
					"outputs": [
						{
							"internalType": "uint256",
							"name": "",
							"type": "uint256"
						}
					],
					"stateMutability": "view",
					"type": "function"
				},
				{
					"inputs": [
						{
							"internalType": "uint256",
							"name": "fromIssue",
							"type": "uint256"
						},
						{
							"internalType": "uint256",
							"name": "toIssue",
							"type": "uint256"
						},
						{
							"internalType": "uint256",
							"name": "amount",
							"type": "uint256"
						}
					],
					"name": "reallocateFunds",
					"outputs": [],
					"stateMutability": "nonpayable",
					"type": "function"
				},
				{
					"inputs": [],
					"name": "totalFunds",
					"outputs": [
						{
							"internalType": "uint256",
							"name": "",
							"type": "uint256"
						}
					],
					"stateMutability": "view",
					"type": "function"
				},
				{
					"stateMutability": "payable",
					"type": "receive"
				}
			],
			"devdoc": {
				"kind": "dev",
				"methods": {},
				"version": 1
			},
			"evm": {
				"assembly": "    /* \"prog2005-2025/lab02/gitlab-fund/contracts/FundManager.sol\":139:2298  contract FundManager is IFundManager {... */\n  mstore(0x40, 0x80)\n  callvalue\n  dup1\n  iszero\n  tag_1\n  jumpi\n  0x00\n  dup1\n  revert\ntag_1:\n  pop\n  dataSize(sub_0)\n  dup1\n  dataOffset(sub_0)\n  0x00\n  codecopy\n  0x00\n  return\nstop\n\nsub_0: assembly {\n        /* \"prog2005-2025/lab02/gitlab-fund/contracts/FundManager.sol\":139:2298  contract FundManager is IFundManager {... */\n      mstore(0x40, 0x80)\n      jumpi(tag_1, lt(calldatasize, 0x04))\n      shr(0xe0, calldataload(0x00))\n      dup1\n      0xb6f5cad2\n      gt\n      tag_12\n      jumpi\n      dup1\n      0xb6f5cad2\n      eq\n      tag_7\n      jumpi\n      dup1\n      0xb8b3d85b\n      eq\n      tag_8\n      jumpi\n      dup1\n      0xe1e158a5\n      eq\n      tag_9\n      jumpi\n      dup1\n      0xe2c41dbc\n      eq\n      tag_10\n      jumpi\n      dup1\n      0xfee69cb9\n      eq\n      tag_11\n      jumpi\n      jump(tag_2)\n    tag_12:\n      dup1\n      0x03ce2186\n      eq\n      tag_3\n      jumpi\n      dup1\n      0x21df103a\n      eq\n      tag_4\n      jumpi\n      dup1\n      0x454fa1b1\n      eq\n      tag_5\n      jumpi\n      dup1\n      0x968ed600\n      eq\n      tag_6\n      jumpi\n      jump(tag_2)\n    tag_1:\n      jumpi(tag_2, calldatasize)\n        /* \"prog2005-2025/lab02/gitlab-fund/contracts/FundManager.sol\":871:885  depositFunds() */\n      tag_15\n        /* \"prog2005-2025/lab02/gitlab-fund/contracts/FundManager.sol\":871:883  depositFunds */\n      tag_16\n        /* \"prog2005-2025/lab02/gitlab-fund/contracts/FundManager.sol\":871:885  depositFunds() */\n      jump\t// in\n    tag_15:\n        /* \"prog2005-2025/lab02/gitlab-fund/contracts/FundManager.sol\":139:2298  contract FundManager is IFundManager {... */\n      stop\n    tag_2:\n      0x00\n      dup1\n      revert\n        /* \"prog2005-2025/lab02/gitlab-fund/contracts/FundManager.sol\":471:519  mapping(uint256 => uint256) public issueBounties */\n    tag_3:\n      callvalue\n      dup1\n      iszero\n      tag_17\n      jumpi\n      0x00\n      dup1\n      revert\n    tag_17:\n      pop\n      tag_18\n      0x04\n      dup1\n      calldatasize\n      sub\n      dup2\n      add\n      swap1\n      tag_19\n      swap2\n      swap1\n      tag_20\n      jump\t// in\n    tag_19:\n      tag_21\n      jump\t// in\n    tag_18:\n      mload(0x40)\n      tag_22\n      swap2\n      swap1\n      tag_23\n      jump\t// in\n    tag_22:\n      mload(0x40)\n      dup1\n      swap2\n      sub\n      swap1\n      return\n        /* \"prog2005-2025/lab02/gitlab-fund/contracts/FundManager.sol\":1175:1587  function allocateBounty(uint256 issueId, uint256 amount) external override onlyFunder(amount) {... */\n    tag_4:\n      callvalue\n      dup1\n      iszero\n      tag_24\n      jumpi\n      0x00\n      dup1\n      revert\n    tag_24:\n      pop\n      tag_25\n      0x04\n      dup1\n      calldatasize\n      sub\n      dup2\n      add\n      swap1\n      tag_26\n      swap2\n      swap1\n      tag_27\n      jump\t// in\n    tag_26:\n      tag_28\n      jump\t// in\n    tag_25:\n      stop\n        /* \"prog2005-2025/lab02/gitlab-fund/contracts/FundManager.sol\":2033:2161  function getIssueBounty(uint256 issueId) external view override returns (uint256) {... */\n    tag_5:\n      callvalue\n      dup1\n      iszero\n      tag_29\n      jumpi\n      0x00\n      dup1\n      revert\n    tag_29:\n      pop\n      tag_30\n      0x04\n      dup1\n      calldatasize\n      sub\n      dup2\n      add\n      swap1\n      tag_31\n      swap2\n      swap1\n      tag_20\n      jump\t// in\n    tag_31:\n      tag_32\n      jump\t// in\n    tag_30:\n      mload(0x40)\n      tag_33\n      swap2\n      swap1\n      tag_23\n      jump\t// in\n    tag_33:\n      mload(0x40)\n      dup1\n      swap2\n      sub\n      swap1\n      return\n        /* \"prog2005-2025/lab02/gitlab-fund/contracts/FundManager.sol\":565:590  uint256 public totalFunds */\n    tag_6:\n      callvalue\n      dup1\n      iszero\n      tag_34\n      jumpi\n      0x00\n      dup1\n      revert\n    tag_34:\n      pop\n      tag_35\n      tag_36\n      jump\t// in\n    tag_35:\n      mload(0x40)\n      tag_37\n      swap2\n      swap1\n      tag_23\n      jump\t// in\n    tag_37:\n      mload(0x40)\n      dup1\n      swap2\n      sub\n      swap1\n      return\n        /* \"prog2005-2025/lab02/gitlab-fund/contracts/FundManager.sol\":1593:2027  function reallocateFunds(uint256 fromIssue, uint256 toIssue, uint256 amount) external override onlyFunder(fromIssue) {... */\n    tag_7:\n      callvalue\n      dup1\n      iszero\n      tag_38\n      jumpi\n      0x00\n      dup1\n      revert\n    tag_38:\n      pop\n      tag_39\n      0x04\n      dup1\n      calldatasize\n      sub\n      dup2\n      add\n      swap1\n      tag_40\n      swap2\n      swap1\n      tag_41\n      jump\t// in\n    tag_40:\n      tag_42\n      jump\t// in\n    tag_39:\n      stop\n        /* \"prog2005-2025/lab02/gitlab-fund/contracts/FundManager.sol\":2167:2296  function getFunderBalance(address funder) external view override returns (uint256) {... */\n    tag_8:\n      callvalue\n      dup1\n      iszero\n      tag_43\n      jumpi\n      0x00\n      dup1\n      revert\n    tag_43:\n      pop\n      tag_44\n      0x04\n      dup1\n      calldatasize\n      sub\n      dup2\n      add\n      swap1\n      tag_45\n      swap2\n      swap1\n      tag_46\n      jump\t// in\n    tag_45:\n      tag_47\n      jump\t// in\n    tag_44:\n      mload(0x40)\n      tag_48\n      swap2\n      swap1\n      tag_23\n      jump\t// in\n    tag_48:\n      mload(0x40)\n      dup1\n      swap2\n      sub\n      swap1\n      return\n        /* \"prog2005-2025/lab02/gitlab-fund/contracts/FundManager.sol\":627:675  uint256 public constant MIN_DEPOSIT = 0.01 ether */\n    tag_9:\n      callvalue\n      dup1\n      iszero\n      tag_49\n      jumpi\n      0x00\n      dup1\n      revert\n    tag_49:\n      pop\n      tag_50\n      tag_51\n      jump\t// in\n    tag_50:\n      mload(0x40)\n      tag_52\n      swap2\n      swap1\n      tag_23\n      jump\t// in\n    tag_52:\n      mload(0x40)\n      dup1\n      swap2\n      sub\n      swap1\n      return\n        /* \"prog2005-2025/lab02/gitlab-fund/contracts/FundManager.sol\":898:1169  function depositFunds() public payable override {... */\n    tag_10:\n      tag_53\n      tag_16\n      jump\t// in\n    tag_53:\n      stop\n        /* \"prog2005-2025/lab02/gitlab-fund/contracts/FundManager.sol\":367:416  mapping(address => uint256) public funderBalances */\n    tag_11:\n      callvalue\n      dup1\n      iszero\n      tag_54\n      jumpi\n      0x00\n      dup1\n      revert\n    tag_54:\n      pop\n      tag_55\n      0x04\n      dup1\n      calldatasize\n      sub\n      dup2\n      add\n      swap1\n      tag_56\n      swap2\n      swap1\n      tag_46\n      jump\t// in\n    tag_56:\n      tag_57\n      jump\t// in\n    tag_55:\n      mload(0x40)\n      tag_58\n      swap2\n      swap1\n      tag_23\n      jump\t// in\n    tag_58:\n      mload(0x40)\n      dup1\n      swap2\n      sub\n      swap1\n      return\n        /* \"prog2005-2025/lab02/gitlab-fund/contracts/FundManager.sol\":898:1169  function depositFunds() public payable override {... */\n    tag_16:\n        /* \"prog2005-2025/lab02/gitlab-fund/contracts/FundManager.sol\":665:675  0.01 ether */\n      0x2386f26fc10000\n        /* \"prog2005-2025/lab02/gitlab-fund/contracts/FundManager.sol\":964:973  msg.value */\n      callvalue\n        /* \"prog2005-2025/lab02/gitlab-fund/contracts/FundManager.sol\":964:988  msg.value >= MIN_DEPOSIT */\n      lt\n      iszero\n        /* \"prog2005-2025/lab02/gitlab-fund/contracts/FundManager.sol\":956:1010  require(msg.value >= MIN_DEPOSIT, \"Deposit too small\") */\n      tag_60\n      jumpi\n      mload(0x40)\n      0x08c379a000000000000000000000000000000000000000000000000000000000\n      dup2\n      mstore\n      0x04\n      add\n      tag_61\n      swap1\n      tag_62\n      jump\t// in\n    tag_61:\n      mload(0x40)\n      dup1\n      swap2\n      sub\n      swap1\n      revert\n    tag_60:\n        /* \"prog2005-2025/lab02/gitlab-fund/contracts/FundManager.sol\":1059:1068  msg.value */\n      callvalue\n        /* \"prog2005-2025/lab02/gitlab-fund/contracts/FundManager.sol\":1029:1043  funderBalances */\n      0x01\n        /* \"prog2005-2025/lab02/gitlab-fund/contracts/FundManager.sol\":1029:1055  funderBalances[msg.sender] */\n      0x00\n        /* \"prog2005-2025/lab02/gitlab-fund/contracts/FundManager.sol\":1044:1054  msg.sender */\n      caller\n        /* \"prog2005-2025/lab02/gitlab-fund/contracts/FundManager.sol\":1029:1055  funderBalances[msg.sender] */\n      0xffffffffffffffffffffffffffffffffffffffff\n      and\n      0xffffffffffffffffffffffffffffffffffffffff\n      and\n      dup2\n      mstore\n      0x20\n      add\n      swap1\n      dup2\n      mstore\n      0x20\n      add\n      0x00\n      keccak256\n      0x00\n        /* \"prog2005-2025/lab02/gitlab-fund/contracts/FundManager.sol\":1029:1068  funderBalances[msg.sender] += msg.value */\n      dup3\n      dup3\n      sload\n      tag_63\n      swap2\n      swap1\n      tag_64\n      jump\t// in\n    tag_63:\n      swap3\n      pop\n      pop\n      dup2\n      swap1\n      sstore\n      pop\n        /* \"prog2005-2025/lab02/gitlab-fund/contracts/FundManager.sol\":1092:1101  msg.value */\n      callvalue\n        /* \"prog2005-2025/lab02/gitlab-fund/contracts/FundManager.sol\":1078:1088  totalFunds */\n      0x03\n      0x00\n        /* \"prog2005-2025/lab02/gitlab-fund/contracts/FundManager.sol\":1078:1101  totalFunds += msg.value */\n      dup3\n      dup3\n      sload\n      tag_65\n      swap2\n      swap1\n      tag_64\n      jump\t// in\n    tag_65:\n      swap3\n      pop\n      pop\n      dup2\n      swap1\n      sstore\n      pop\n        /* \"prog2005-2025/lab02/gitlab-fund/contracts/FundManager.sol\":1140:1150  msg.sender */\n      caller\n        /* \"prog2005-2025/lab02/gitlab-fund/contracts/FundManager.sol\":1125:1162  FundsDeposited(msg.sender, msg.value) */\n      0xffffffffffffffffffffffffffffffffffffffff\n      and\n      0x543ba50a5eec5e6178218e364b1d0f396157b3c8fa278522c2cb7fd99407d474\n        /* \"prog2005-2025/lab02/gitlab-fund/contracts/FundManager.sol\":1152:1161  msg.value */\n      callvalue\n        /* \"prog2005-2025/lab02/gitlab-fund/contracts/FundManager.sol\":1125:1162  FundsDeposited(msg.sender, msg.value) */\n      mload(0x40)\n      tag_66\n      swap2\n      swap1\n      tag_23\n      jump\t// in\n    tag_66:\n      mload(0x40)\n      dup1\n      swap2\n      sub\n      swap1\n      log2\n        /* \"prog2005-2025/lab02/gitlab-fund/contracts/FundManager.sol\":898:1169  function depositFunds() public payable override {... */\n      jump\t// out\n        /* \"prog2005-2025/lab02/gitlab-fund/contracts/FundManager.sol\":471:519  mapping(uint256 => uint256) public issueBounties */\n    tag_21:\n      mstore(0x20, 0x02)\n      dup1\n      0x00\n      mstore\n      keccak256(0x00, 0x40)\n      0x00\n      swap2\n      pop\n      swap1\n      pop\n      sload\n      dup2\n      jump\t// out\n        /* \"prog2005-2025/lab02/gitlab-fund/contracts/FundManager.sol\":1175:1587  function allocateBounty(uint256 issueId, uint256 amount) external override onlyFunder(amount) {... */\n    tag_28:\n        /* \"prog2005-2025/lab02/gitlab-fund/contracts/FundManager.sol\":1261:1267  amount */\n      dup1\n        /* \"prog2005-2025/lab02/gitlab-fund/contracts/FundManager.sol\":767:780  issueBounties */\n      0x02\n        /* \"prog2005-2025/lab02/gitlab-fund/contracts/FundManager.sol\":767:789  issueBounties[issueId] */\n      0x00\n        /* \"prog2005-2025/lab02/gitlab-fund/contracts/FundManager.sol\":781:788  issueId */\n      dup3\n        /* \"prog2005-2025/lab02/gitlab-fund/contracts/FundManager.sol\":767:789  issueBounties[issueId] */\n      dup2\n      mstore\n      0x20\n      add\n      swap1\n      dup2\n      mstore\n      0x20\n      add\n      0x00\n      keccak256\n      sload\n        /* \"prog2005-2025/lab02/gitlab-fund/contracts/FundManager.sol\":737:751  funderBalances */\n      0x01\n        /* \"prog2005-2025/lab02/gitlab-fund/contracts/FundManager.sol\":737:763  funderBalances[msg.sender] */\n      0x00\n        /* \"prog2005-2025/lab02/gitlab-fund/contracts/FundManager.sol\":752:762  msg.sender */\n      caller\n        /* \"prog2005-2025/lab02/gitlab-fund/contracts/FundManager.sol\":737:763  funderBalances[msg.sender] */\n      0xffffffffffffffffffffffffffffffffffffffff\n      and\n      0xffffffffffffffffffffffffffffffffffffffff\n      and\n      dup2\n      mstore\n      0x20\n      add\n      swap1\n      dup2\n      mstore\n      0x20\n      add\n      0x00\n      keccak256\n      sload\n        /* \"prog2005-2025/lab02/gitlab-fund/contracts/FundManager.sol\":737:789  funderBalances[msg.sender] >= issueBounties[issueId] */\n      lt\n      iszero\n        /* \"prog2005-2025/lab02/gitlab-fund/contracts/FundManager.sol\":729:810  require(funderBalances[msg.sender] >= issueBounties[issueId], \"Not enough funds\") */\n      tag_68\n      jumpi\n      mload(0x40)\n      0x08c379a000000000000000000000000000000000000000000000000000000000\n      dup2\n      mstore\n      0x04\n      add\n      tag_69\n      swap1\n      tag_70\n      jump\t// in\n    tag_69:\n      mload(0x40)\n      dup1\n      swap2\n      sub\n      swap1\n      revert\n    tag_68:\n        /* \"prog2005-2025/lab02/gitlab-fund/contracts/FundManager.sol\":1287:1351  SecurityUtils.validateAmount(amount, funderBalances[msg.sender]) */\n      tag_72\n        /* \"prog2005-2025/lab02/gitlab-fund/contracts/FundManager.sol\":1316:1322  amount */\n      dup3\n        /* \"prog2005-2025/lab02/gitlab-fund/contracts/FundManager.sol\":1324:1338  funderBalances */\n      0x01\n        /* \"prog2005-2025/lab02/gitlab-fund/contracts/FundManager.sol\":1324:1350  funderBalances[msg.sender] */\n      0x00\n        /* \"prog2005-2025/lab02/gitlab-fund/contracts/FundManager.sol\":1339:1349  msg.sender */\n      caller\n        /* \"prog2005-2025/lab02/gitlab-fund/contracts/FundManager.sol\":1324:1350  funderBalances[msg.sender] */\n      0xffffffffffffffffffffffffffffffffffffffff\n      and\n      0xffffffffffffffffffffffffffffffffffffffff\n      and\n      dup2\n      mstore\n      0x20\n      add\n      swap1\n      dup2\n      mstore\n      0x20\n      add\n      0x00\n      keccak256\n      sload\n        /* \"prog2005-2025/lab02/gitlab-fund/contracts/FundManager.sol\":1287:1315  SecurityUtils.validateAmount */\n      tag_73\n        /* \"prog2005-2025/lab02/gitlab-fund/contracts/FundManager.sol\":1287:1351  SecurityUtils.validateAmount(amount, funderBalances[msg.sender]) */\n      jump\t// in\n    tag_72:\n        /* \"prog2005-2025/lab02/gitlab-fund/contracts/FundManager.sol\":1279:1370  require(SecurityUtils.validateAmount(amount, funderBalances[msg.sender]), \"Invalid amount\") */\n      tag_74\n      jumpi\n      mload(0x40)\n      0x08c379a000000000000000000000000000000000000000000000000000000000\n      dup2\n      mstore\n      0x04\n      add\n      tag_75\n      swap1\n      tag_76\n      jump\t// in\n    tag_75:\n      mload(0x40)\n      dup1\n      swap2\n      sub\n      swap1\n      revert\n    tag_74:\n        /* \"prog2005-2025/lab02/gitlab-fund/contracts/FundManager.sol\":1414:1415  0 */\n      0x00\n        /* \"prog2005-2025/lab02/gitlab-fund/contracts/FundManager.sol\":1388:1401  issueBounties */\n      0x02\n        /* \"prog2005-2025/lab02/gitlab-fund/contracts/FundManager.sol\":1388:1410  issueBounties[issueId] */\n      0x00\n        /* \"prog2005-2025/lab02/gitlab-fund/contracts/FundManager.sol\":1402:1409  issueId */\n      dup6\n        /* \"prog2005-2025/lab02/gitlab-fund/contracts/FundManager.sol\":1388:1410  issueBounties[issueId] */\n      dup2\n      mstore\n      0x20\n      add\n      swap1\n      dup2\n      mstore\n      0x20\n      add\n      0x00\n      keccak256\n      sload\n        /* \"prog2005-2025/lab02/gitlab-fund/contracts/FundManager.sol\":1388:1415  issueBounties[issueId] == 0 */\n      eq\n        /* \"prog2005-2025/lab02/gitlab-fund/contracts/FundManager.sol\":1380:1444  require(issueBounties[issueId] == 0, \"Bounty already allocated\") */\n      tag_77\n      jumpi\n      mload(0x40)\n      0x08c379a000000000000000000000000000000000000000000000000000000000\n      dup2\n      mstore\n      0x04\n      add\n      tag_78\n      swap1\n      tag_79\n      jump\t// in\n    tag_78:\n      mload(0x40)\n      dup1\n      swap2\n      sub\n      swap1\n      revert\n    tag_77:\n        /* \"prog2005-2025/lab02/gitlab-fund/contracts/FundManager.sol\":1485:1491  amount */\n      dup2\n        /* \"prog2005-2025/lab02/gitlab-fund/contracts/FundManager.sol\":1455:1469  funderBalances */\n      0x01\n        /* \"prog2005-2025/lab02/gitlab-fund/contracts/FundManager.sol\":1455:1481  funderBalances[msg.sender] */\n      0x00\n        /* \"prog2005-2025/lab02/gitlab-fund/contracts/FundManager.sol\":1470:1480  msg.sender */\n      caller\n        /* \"prog2005-2025/lab02/gitlab-fund/contracts/FundManager.sol\":1455:1481  funderBalances[msg.sender] */\n      0xffffffffffffffffffffffffffffffffffffffff\n      and\n      0xffffffffffffffffffffffffffffffffffffffff\n      and\n      dup2\n      mstore\n      0x20\n      add\n      swap1\n      dup2\n      mstore\n      0x20\n      add\n      0x00\n      keccak256\n      0x00\n        /* \"prog2005-2025/lab02/gitlab-fund/contracts/FundManager.sol\":1455:1491  funderBalances[msg.sender] -= amount */\n      dup3\n      dup3\n      sload\n      tag_80\n      swap2\n      swap1\n      tag_81\n      jump\t// in\n    tag_80:\n      swap3\n      pop\n      pop\n      dup2\n      swap1\n      sstore\n      pop\n        /* \"prog2005-2025/lab02/gitlab-fund/contracts/FundManager.sol\":1526:1532  amount */\n      dup2\n        /* \"prog2005-2025/lab02/gitlab-fund/contracts/FundManager.sol\":1501:1514  issueBounties */\n      0x02\n        /* \"prog2005-2025/lab02/gitlab-fund/contracts/FundManager.sol\":1501:1523  issueBounties[issueId] */\n      0x00\n        /* \"prog2005-2025/lab02/gitlab-fund/contracts/FundManager.sol\":1515:1522  issueId */\n      dup6\n        /* \"prog2005-2025/lab02/gitlab-fund/contracts/FundManager.sol\":1501:1523  issueBounties[issueId] */\n      dup2\n      mstore\n      0x20\n      add\n      swap1\n      dup2\n      mstore\n      0x20\n      add\n      0x00\n      keccak256\n        /* \"prog2005-2025/lab02/gitlab-fund/contracts/FundManager.sol\":1501:1532  issueBounties[issueId] = amount */\n      dup2\n      swap1\n      sstore\n      pop\n        /* \"prog2005-2025/lab02/gitlab-fund/contracts/FundManager.sol\":1564:1571  issueId */\n      dup3\n        /* \"prog2005-2025/lab02/gitlab-fund/contracts/FundManager.sol\":1548:1580  BountyAllocated(issueId, amount) */\n      0xfaf7d24eca5c2ed2e63e0e70578db4ebda8019cff8040e61689979af8cd739b1\n        /* \"prog2005-2025/lab02/gitlab-fund/contracts/FundManager.sol\":1573:1579  amount */\n      dup4\n        /* \"prog2005-2025/lab02/gitlab-fund/contracts/FundManager.sol\":1548:1580  BountyAllocated(issueId, amount) */\n      mload(0x40)\n      tag_82\n      swap2\n      swap1\n      tag_23\n      jump\t// in\n    tag_82:\n      mload(0x40)\n      dup1\n      swap2\n      sub\n      swap1\n      log2\n        /* \"prog2005-2025/lab02/gitlab-fund/contracts/FundManager.sol\":1175:1587  function allocateBounty(uint256 issueId, uint256 amount) external override onlyFunder(amount) {... */\n      pop\n      pop\n      pop\n      jump\t// out\n        /* \"prog2005-2025/lab02/gitlab-fund/contracts/FundManager.sol\":2033:2161  function getIssueBounty(uint256 issueId) external view override returns (uint256) {... */\n    tag_32:\n        /* \"prog2005-2025/lab02/gitlab-fund/contracts/FundManager.sol\":2106:2113  uint256 */\n      0x00\n        /* \"prog2005-2025/lab02/gitlab-fund/contracts/FundManager.sol\":2132:2145  issueBounties */\n      0x02\n        /* \"prog2005-2025/lab02/gitlab-fund/contracts/FundManager.sol\":2132:2154  issueBounties[issueId] */\n      0x00\n        /* \"prog2005-2025/lab02/gitlab-fund/contracts/FundManager.sol\":2146:2153  issueId */\n      dup4\n        /* \"prog2005-2025/lab02/gitlab-fund/contracts/FundManager.sol\":2132:2154  issueBounties[issueId] */\n      dup2\n      mstore\n      0x20\n      add\n      swap1\n      dup2\n      mstore\n      0x20\n      add\n      0x00\n      keccak256\n      sload\n        /* \"prog2005-2025/lab02/gitlab-fund/contracts/FundManager.sol\":2125:2154  return issueBounties[issueId] */\n      swap1\n      pop\n        /* \"prog2005-2025/lab02/gitlab-fund/contracts/FundManager.sol\":2033:2161  function getIssueBounty(uint256 issueId) external view override returns (uint256) {... */\n      swap2\n      swap1\n      pop\n      jump\t// out\n        /* \"prog2005-2025/lab02/gitlab-fund/contracts/FundManager.sol\":565:590  uint256 public totalFunds */\n    tag_36:\n      sload(0x03)\n      dup2\n      jump\t// out\n        /* \"prog2005-2025/lab02/gitlab-fund/contracts/FundManager.sol\":1593:2027  function reallocateFunds(uint256 fromIssue, uint256 toIssue, uint256 amount) external override onlyFunder(fromIssue) {... */\n    tag_42:\n        /* \"prog2005-2025/lab02/gitlab-fund/contracts/FundManager.sol\":1699:1708  fromIssue */\n      dup3\n        /* \"prog2005-2025/lab02/gitlab-fund/contracts/FundManager.sol\":767:780  issueBounties */\n      0x02\n        /* \"prog2005-2025/lab02/gitlab-fund/contracts/FundManager.sol\":767:789  issueBounties[issueId] */\n      0x00\n        /* \"prog2005-2025/lab02/gitlab-fund/contracts/FundManager.sol\":781:788  issueId */\n      dup3\n        /* \"prog2005-2025/lab02/gitlab-fund/contracts/FundManager.sol\":767:789  issueBounties[issueId] */\n      dup2\n      mstore\n      0x20\n      add\n      swap1\n      dup2\n      mstore\n      0x20\n      add\n      0x00\n      keccak256\n      sload\n        /* \"prog2005-2025/lab02/gitlab-fund/contracts/FundManager.sol\":737:751  funderBalances */\n      0x01\n        /* \"prog2005-2025/lab02/gitlab-fund/contracts/FundManager.sol\":737:763  funderBalances[msg.sender] */\n      0x00\n        /* \"prog2005-2025/lab02/gitlab-fund/contracts/FundManager.sol\":752:762  msg.sender */\n      caller\n        /* \"prog2005-2025/lab02/gitlab-fund/contracts/FundManager.sol\":737:763  funderBalances[msg.sender] */\n      0xffffffffffffffffffffffffffffffffffffffff\n      and\n      0xffffffffffffffffffffffffffffffffffffffff\n      and\n      dup2\n      mstore\n      0x20\n      add\n      swap1\n      dup2\n      mstore\n      0x20\n      add\n      0x00\n      keccak256\n      sload\n        /* \"prog2005-2025/lab02/gitlab-fund/contracts/FundManager.sol\":737:789  funderBalances[msg.sender] >= issueBounties[issueId] */\n      lt\n      iszero\n        /* \"prog2005-2025/lab02/gitlab-fund/contracts/FundManager.sol\":729:810  require(funderBalances[msg.sender] >= issueBounties[issueId], \"Not enough funds\") */\n      tag_85\n      jumpi\n      mload(0x40)\n      0x08c379a000000000000000000000000000000000000000000000000000000000\n      dup2\n      mstore\n      0x04\n      add\n      tag_86\n      swap1\n      tag_70\n      jump\t// in\n    tag_86:\n      mload(0x40)\n      dup1\n      swap2\n      sub\n      swap1\n      revert\n    tag_85:\n        /* \"prog2005-2025/lab02/gitlab-fund/contracts/FundManager.sol\":1756:1762  amount */\n      dup2\n        /* \"prog2005-2025/lab02/gitlab-fund/contracts/FundManager.sol\":1728:1741  issueBounties */\n      0x02\n        /* \"prog2005-2025/lab02/gitlab-fund/contracts/FundManager.sol\":1728:1752  issueBounties[fromIssue] */\n      0x00\n        /* \"prog2005-2025/lab02/gitlab-fund/contracts/FundManager.sol\":1742:1751  fromIssue */\n      dup7\n        /* \"prog2005-2025/lab02/gitlab-fund/contracts/FundManager.sol\":1728:1752  issueBounties[fromIssue] */\n      dup2\n      mstore\n      0x20\n      add\n      swap1\n      dup2\n      mstore\n      0x20\n      add\n      0x00\n      keccak256\n      sload\n        /* \"prog2005-2025/lab02/gitlab-fund/contracts/FundManager.sol\":1728:1762  issueBounties[fromIssue] >= amount */\n      lt\n      iszero\n        /* \"prog2005-2025/lab02/gitlab-fund/contracts/FundManager.sol\":1720:1793  require(issueBounties[fromIssue] >= amount, \"Insufficient bounty amount\") */\n      tag_88\n      jumpi\n      mload(0x40)\n      0x08c379a000000000000000000000000000000000000000000000000000000000\n      dup2\n      mstore\n      0x04\n      add\n      tag_89\n      swap1\n      tag_90\n      jump\t// in\n    tag_89:\n      mload(0x40)\n      dup1\n      swap2\n      sub\n      swap1\n      revert\n    tag_88:\n        /* \"prog2005-2025/lab02/gitlab-fund/contracts/FundManager.sol\":1837:1838  0 */\n      0x00\n        /* \"prog2005-2025/lab02/gitlab-fund/contracts/FundManager.sol\":1811:1824  issueBounties */\n      0x02\n        /* \"prog2005-2025/lab02/gitlab-fund/contracts/FundManager.sol\":1811:1833  issueBounties[toIssue] */\n      0x00\n        /* \"prog2005-2025/lab02/gitlab-fund/contracts/FundManager.sol\":1825:1832  toIssue */\n      dup6\n        /* \"prog2005-2025/lab02/gitlab-fund/contracts/FundManager.sol\":1811:1833  issueBounties[toIssue] */\n      dup2\n      mstore\n      0x20\n      add\n      swap1\n      dup2\n      mstore\n      0x20\n      add\n      0x00\n      keccak256\n      sload\n        /* \"prog2005-2025/lab02/gitlab-fund/contracts/FundManager.sol\":1811:1838  issueBounties[toIssue] == 0 */\n      eq\n        /* \"prog2005-2025/lab02/gitlab-fund/contracts/FundManager.sol\":1803:1874  require(issueBounties[toIssue] == 0, \"Target issue already has bounty\") */\n      tag_91\n      jumpi\n      mload(0x40)\n      0x08c379a000000000000000000000000000000000000000000000000000000000\n      dup2\n      mstore\n      0x04\n      add\n      tag_92\n      swap1\n      tag_93\n      jump\t// in\n    tag_92:\n      mload(0x40)\n      dup1\n      swap2\n      sub\n      swap1\n      revert\n    tag_91:\n        /* \"prog2005-2025/lab02/gitlab-fund/contracts/FundManager.sol\":1913:1919  amount */\n      dup2\n        /* \"prog2005-2025/lab02/gitlab-fund/contracts/FundManager.sol\":1885:1898  issueBounties */\n      0x02\n        /* \"prog2005-2025/lab02/gitlab-fund/contracts/FundManager.sol\":1885:1909  issueBounties[fromIssue] */\n      0x00\n        /* \"prog2005-2025/lab02/gitlab-fund/contracts/FundManager.sol\":1899:1908  fromIssue */\n      dup7\n        /* \"prog2005-2025/lab02/gitlab-fund/contracts/FundManager.sol\":1885:1909  issueBounties[fromIssue] */\n      dup2\n      mstore\n      0x20\n      add\n      swap1\n      dup2\n      mstore\n      0x20\n      add\n      0x00\n      keccak256\n      0x00\n        /* \"prog2005-2025/lab02/gitlab-fund/contracts/FundManager.sol\":1885:1919  issueBounties[fromIssue] -= amount */\n      dup3\n      dup3\n      sload\n      tag_94\n      swap2\n      swap1\n      tag_81\n      jump\t// in\n    tag_94:\n      swap3\n      pop\n      pop\n      dup2\n      swap1\n      sstore\n      pop\n        /* \"prog2005-2025/lab02/gitlab-fund/contracts/FundManager.sol\":1954:1960  amount */\n      dup2\n        /* \"prog2005-2025/lab02/gitlab-fund/contracts/FundManager.sol\":1929:1942  issueBounties */\n      0x02\n        /* \"prog2005-2025/lab02/gitlab-fund/contracts/FundManager.sol\":1929:1951  issueBounties[toIssue] */\n      0x00\n        /* \"prog2005-2025/lab02/gitlab-fund/contracts/FundManager.sol\":1943:1950  toIssue */\n      dup6\n        /* \"prog2005-2025/lab02/gitlab-fund/contracts/FundManager.sol\":1929:1951  issueBounties[toIssue] */\n      dup2\n      mstore\n      0x20\n      add\n      swap1\n      dup2\n      mstore\n      0x20\n      add\n      0x00\n      keccak256\n        /* \"prog2005-2025/lab02/gitlab-fund/contracts/FundManager.sol\":1929:1960  issueBounties[toIssue] = amount */\n      dup2\n      swap1\n      sstore\n      pop\n        /* \"prog2005-2025/lab02/gitlab-fund/contracts/FundManager.sol\":2004:2011  toIssue */\n      dup3\n        /* \"prog2005-2025/lab02/gitlab-fund/contracts/FundManager.sol\":1993:2002  fromIssue */\n      dup5\n        /* \"prog2005-2025/lab02/gitlab-fund/contracts/FundManager.sol\":1976:2020  FundsReallocated(fromIssue, toIssue, amount) */\n      0x9a26cfe9143af653ecb2415e29f0888de1a4a6a8711824c24e166e081e43bbec\n        /* \"prog2005-2025/lab02/gitlab-fund/contracts/FundManager.sol\":2013:2019  amount */\n      dup5\n        /* \"prog2005-2025/lab02/gitlab-fund/contracts/FundManager.sol\":1976:2020  FundsReallocated(fromIssue, toIssue, amount) */\n      mload(0x40)\n      tag_95\n      swap2\n      swap1\n      tag_23\n      jump\t// in\n    tag_95:\n      mload(0x40)\n      dup1\n      swap2\n      sub\n      swap1\n      log3\n        /* \"prog2005-2025/lab02/gitlab-fund/contracts/FundManager.sol\":1593:2027  function reallocateFunds(uint256 fromIssue, uint256 toIssue, uint256 amount) external override onlyFunder(fromIssue) {... */\n      pop\n      pop\n      pop\n      pop\n      jump\t// out\n        /* \"prog2005-2025/lab02/gitlab-fund/contracts/FundManager.sol\":2167:2296  function getFunderBalance(address funder) external view override returns (uint256) {... */\n    tag_47:\n        /* \"prog2005-2025/lab02/gitlab-fund/contracts/FundManager.sol\":2241:2248  uint256 */\n      0x00\n        /* \"prog2005-2025/lab02/gitlab-fund/contracts/FundManager.sol\":2267:2281  funderBalances */\n      0x01\n        /* \"prog2005-2025/lab02/gitlab-fund/contracts/FundManager.sol\":2267:2289  funderBalances[funder] */\n      0x00\n        /* \"prog2005-2025/lab02/gitlab-fund/contracts/FundManager.sol\":2282:2288  funder */\n      dup4\n        /* \"prog2005-2025/lab02/gitlab-fund/contracts/FundManager.sol\":2267:2289  funderBalances[funder] */\n      0xffffffffffffffffffffffffffffffffffffffff\n      and\n      0xffffffffffffffffffffffffffffffffffffffff\n      and\n      dup2\n      mstore\n      0x20\n      add\n      swap1\n      dup2\n      mstore\n      0x20\n      add\n      0x00\n      keccak256\n      sload\n        /* \"prog2005-2025/lab02/gitlab-fund/contracts/FundManager.sol\":2260:2289  return funderBalances[funder] */\n      swap1\n      pop\n        /* \"prog2005-2025/lab02/gitlab-fund/contracts/FundManager.sol\":2167:2296  function getFunderBalance(address funder) external view override returns (uint256) {... */\n      swap2\n      swap1\n      pop\n      jump\t// out\n        /* \"prog2005-2025/lab02/gitlab-fund/contracts/FundManager.sol\":627:675  uint256 public constant MIN_DEPOSIT = 0.01 ether */\n    tag_51:\n        /* \"prog2005-2025/lab02/gitlab-fund/contracts/FundManager.sol\":665:675  0.01 ether */\n      0x2386f26fc10000\n        /* \"prog2005-2025/lab02/gitlab-fund/contracts/FundManager.sol\":627:675  uint256 public constant MIN_DEPOSIT = 0.01 ether */\n      dup2\n      jump\t// out\n        /* \"prog2005-2025/lab02/gitlab-fund/contracts/FundManager.sol\":367:416  mapping(address => uint256) public funderBalances */\n    tag_57:\n      mstore(0x20, 0x01)\n      dup1\n      0x00\n      mstore\n      keccak256(0x00, 0x40)\n      0x00\n      swap2\n      pop\n      swap1\n      pop\n      sload\n      dup2\n      jump\t// out\n        /* \"prog2005-2025/lab02/gitlab-fund/contracts/libraries/SecurityUtils.sol\":1468:1613  function validateAmount(uint256 amount, uint256 maxAmount) internal pure returns (bool) {... */\n    tag_73:\n        /* \"prog2005-2025/lab02/gitlab-fund/contracts/libraries/SecurityUtils.sol\":1550:1554  bool */\n      0x00\n        /* \"prog2005-2025/lab02/gitlab-fund/contracts/libraries/SecurityUtils.sol\":1582:1583  0 */\n      dup1\n        /* \"prog2005-2025/lab02/gitlab-fund/contracts/libraries/SecurityUtils.sol\":1573:1579  amount */\n      dup4\n        /* \"prog2005-2025/lab02/gitlab-fund/contracts/libraries/SecurityUtils.sol\":1573:1583  amount > 0 */\n      gt\n        /* \"prog2005-2025/lab02/gitlab-fund/contracts/libraries/SecurityUtils.sol\":1573:1606  amount > 0 && amount <= maxAmount */\n      dup1\n      iszero\n      tag_98\n      jumpi\n      pop\n        /* \"prog2005-2025/lab02/gitlab-fund/contracts/libraries/SecurityUtils.sol\":1597:1606  maxAmount */\n      dup2\n        /* \"prog2005-2025/lab02/gitlab-fund/contracts/libraries/SecurityUtils.sol\":1587:1593  amount */\n      dup4\n        /* \"prog2005-2025/lab02/gitlab-fund/contracts/libraries/SecurityUtils.sol\":1587:1606  amount <= maxAmount */\n      gt\n      iszero\n        /* \"prog2005-2025/lab02/gitlab-fund/contracts/libraries/SecurityUtils.sol\":1573:1606  amount > 0 && amount <= maxAmount */\n    tag_98:\n        /* \"prog2005-2025/lab02/gitlab-fund/contracts/libraries/SecurityUtils.sol\":1566:1606  return amount > 0 && amount <= maxAmount */\n      swap1\n      pop\n        /* \"prog2005-2025/lab02/gitlab-fund/contracts/libraries/SecurityUtils.sol\":1468:1613  function validateAmount(uint256 amount, uint256 maxAmount) internal pure returns (bool) {... */\n      swap3\n      swap2\n      pop\n      pop\n      jump\t// out\n        /* \"#utility.yul\":88:205   */\n    tag_100:\n        /* \"#utility.yul\":197:198   */\n      0x00\n        /* \"#utility.yul\":194:195   */\n      dup1\n        /* \"#utility.yul\":187:199   */\n      revert\n        /* \"#utility.yul\":334:411   */\n    tag_102:\n        /* \"#utility.yul\":371:378   */\n      0x00\n        /* \"#utility.yul\":400:405   */\n      dup2\n        /* \"#utility.yul\":389:405   */\n      swap1\n      pop\n        /* \"#utility.yul\":334:411   */\n      swap2\n      swap1\n      pop\n      jump\t// out\n        /* \"#utility.yul\":417:539   */\n    tag_103:\n        /* \"#utility.yul\":490:514   */\n      tag_130\n        /* \"#utility.yul\":508:513   */\n      dup2\n        /* \"#utility.yul\":490:514   */\n      tag_102\n      jump\t// in\n    tag_130:\n        /* \"#utility.yul\":483:488   */\n      dup2\n        /* \"#utility.yul\":480:515   */\n      eq\n        /* \"#utility.yul\":470:533   */\n      tag_131\n      jumpi\n        /* \"#utility.yul\":529:530   */\n      0x00\n        /* \"#utility.yul\":526:527   */\n      dup1\n        /* \"#utility.yul\":519:531   */\n      revert\n        /* \"#utility.yul\":470:533   */\n    tag_131:\n        /* \"#utility.yul\":417:539   */\n      pop\n      jump\t// out\n        /* \"#utility.yul\":545:684   */\n    tag_104:\n        /* \"#utility.yul\":591:596   */\n      0x00\n        /* \"#utility.yul\":629:635   */\n      dup2\n        /* \"#utility.yul\":616:636   */\n      calldataload\n        /* \"#utility.yul\":607:636   */\n      swap1\n      pop\n        /* \"#utility.yul\":645:678   */\n      tag_133\n        /* \"#utility.yul\":672:677   */\n      dup2\n        /* \"#utility.yul\":645:678   */\n      tag_103\n      jump\t// in\n    tag_133:\n        /* \"#utility.yul\":545:684   */\n      swap3\n      swap2\n      pop\n      pop\n      jump\t// out\n        /* \"#utility.yul\":690:1019   */\n    tag_20:\n        /* \"#utility.yul\":749:755   */\n      0x00\n        /* \"#utility.yul\":798:800   */\n      0x20\n        /* \"#utility.yul\":786:795   */\n      dup3\n        /* \"#utility.yul\":777:784   */\n      dup5\n        /* \"#utility.yul\":773:796   */\n      sub\n        /* \"#utility.yul\":769:801   */\n      slt\n        /* \"#utility.yul\":766:885   */\n      iszero\n      tag_135\n      jumpi\n        /* \"#utility.yul\":804:883   */\n      tag_136\n      tag_100\n      jump\t// in\n    tag_136:\n        /* \"#utility.yul\":766:885   */\n    tag_135:\n        /* \"#utility.yul\":924:925   */\n      0x00\n        /* \"#utility.yul\":949:1002   */\n      tag_137\n        /* \"#utility.yul\":994:1001   */\n      dup5\n        /* \"#utility.yul\":985:991   */\n      dup3\n        /* \"#utility.yul\":974:983   */\n      dup6\n        /* \"#utility.yul\":970:992   */\n      add\n        /* \"#utility.yul\":949:1002   */\n      tag_104\n      jump\t// in\n    tag_137:\n        /* \"#utility.yul\":939:1002   */\n      swap2\n      pop\n        /* \"#utility.yul\":895:1012   */\n      pop\n        /* \"#utility.yul\":690:1019   */\n      swap3\n      swap2\n      pop\n      pop\n      jump\t// out\n        /* \"#utility.yul\":1025:1143   */\n    tag_105:\n        /* \"#utility.yul\":1112:1136   */\n      tag_139\n        /* \"#utility.yul\":1130:1135   */\n      dup2\n        /* \"#utility.yul\":1112:1136   */\n      tag_102\n      jump\t// in\n    tag_139:\n        /* \"#utility.yul\":1107:1110   */\n      dup3\n        /* \"#utility.yul\":1100:1137   */\n      mstore\n        /* \"#utility.yul\":1025:1143   */\n      pop\n      pop\n      jump\t// out\n        /* \"#utility.yul\":1149:1371   */\n    tag_23:\n        /* \"#utility.yul\":1242:1246   */\n      0x00\n        /* \"#utility.yul\":1280:1282   */\n      0x20\n        /* \"#utility.yul\":1269:1278   */\n      dup3\n        /* \"#utility.yul\":1265:1283   */\n      add\n        /* \"#utility.yul\":1257:1283   */\n      swap1\n      pop\n        /* \"#utility.yul\":1293:1364   */\n      tag_141\n        /* \"#utility.yul\":1361:1362   */\n      0x00\n        /* \"#utility.yul\":1350:1359   */\n      dup4\n        /* \"#utility.yul\":1346:1363   */\n      add\n        /* \"#utility.yul\":1337:1343   */\n      dup5\n        /* \"#utility.yul\":1293:1364   */\n      tag_105\n      jump\t// in\n    tag_141:\n        /* \"#utility.yul\":1149:1371   */\n      swap3\n      swap2\n      pop\n      pop\n      jump\t// out\n        /* \"#utility.yul\":1377:1851   */\n    tag_27:\n        /* \"#utility.yul\":1445:1451   */\n      0x00\n        /* \"#utility.yul\":1453:1459   */\n      dup1\n        /* \"#utility.yul\":1502:1504   */\n      0x40\n        /* \"#utility.yul\":1490:1499   */\n      dup4\n        /* \"#utility.yul\":1481:1488   */\n      dup6\n        /* \"#utility.yul\":1477:1500   */\n      sub\n        /* \"#utility.yul\":1473:1505   */\n      slt\n        /* \"#utility.yul\":1470:1589   */\n      iszero\n      tag_143\n      jumpi\n        /* \"#utility.yul\":1508:1587   */\n      tag_144\n      tag_100\n      jump\t// in\n    tag_144:\n        /* \"#utility.yul\":1470:1589   */\n    tag_143:\n        /* \"#utility.yul\":1628:1629   */\n      0x00\n        /* \"#utility.yul\":1653:1706   */\n      tag_145\n        /* \"#utility.yul\":1698:1705   */\n      dup6\n        /* \"#utility.yul\":1689:1695   */\n      dup3\n        /* \"#utility.yul\":1678:1687   */\n      dup7\n        /* \"#utility.yul\":1674:1696   */\n      add\n        /* \"#utility.yul\":1653:1706   */\n      tag_104\n      jump\t// in\n    tag_145:\n        /* \"#utility.yul\":1643:1706   */\n      swap3\n      pop\n        /* \"#utility.yul\":1599:1716   */\n      pop\n        /* \"#utility.yul\":1755:1757   */\n      0x20\n        /* \"#utility.yul\":1781:1834   */\n      tag_146\n        /* \"#utility.yul\":1826:1833   */\n      dup6\n        /* \"#utility.yul\":1817:1823   */\n      dup3\n        /* \"#utility.yul\":1806:1815   */\n      dup7\n        /* \"#utility.yul\":1802:1824   */\n      add\n        /* \"#utility.yul\":1781:1834   */\n      tag_104\n      jump\t// in\n    tag_146:\n        /* \"#utility.yul\":1771:1834   */\n      swap2\n      pop\n        /* \"#utility.yul\":1726:1844   */\n      pop\n        /* \"#utility.yul\":1377:1851   */\n      swap3\n      pop\n      swap3\n      swap1\n      pop\n      jump\t// out\n        /* \"#utility.yul\":1857:2476   */\n    tag_41:\n        /* \"#utility.yul\":1934:1940   */\n      0x00\n        /* \"#utility.yul\":1942:1948   */\n      dup1\n        /* \"#utility.yul\":1950:1956   */\n      0x00\n        /* \"#utility.yul\":1999:2001   */\n      0x60\n        /* \"#utility.yul\":1987:1996   */\n      dup5\n        /* \"#utility.yul\":1978:1985   */\n      dup7\n        /* \"#utility.yul\":1974:1997   */\n      sub\n        /* \"#utility.yul\":1970:2002   */\n      slt\n        /* \"#utility.yul\":1967:2086   */\n      iszero\n      tag_148\n      jumpi\n        /* \"#utility.yul\":2005:2084   */\n      tag_149\n      tag_100\n      jump\t// in\n    tag_149:\n        /* \"#utility.yul\":1967:2086   */\n    tag_148:\n        /* \"#utility.yul\":2125:2126   */\n      0x00\n        /* \"#utility.yul\":2150:2203   */\n      tag_150\n        /* \"#utility.yul\":2195:2202   */\n      dup7\n        /* \"#utility.yul\":2186:2192   */\n      dup3\n        /* \"#utility.yul\":2175:2184   */\n      dup8\n        /* \"#utility.yul\":2171:2193   */\n      add\n        /* \"#utility.yul\":2150:2203   */\n      tag_104\n      jump\t// in\n    tag_150:\n        /* \"#utility.yul\":2140:2203   */\n      swap4\n      pop\n        /* \"#utility.yul\":2096:2213   */\n      pop\n        /* \"#utility.yul\":2252:2254   */\n      0x20\n        /* \"#utility.yul\":2278:2331   */\n      tag_151\n        /* \"#utility.yul\":2323:2330   */\n      dup7\n        /* \"#utility.yul\":2314:2320   */\n      dup3\n        /* \"#utility.yul\":2303:2312   */\n      dup8\n        /* \"#utility.yul\":2299:2321   */\n      add\n        /* \"#utility.yul\":2278:2331   */\n      tag_104\n      jump\t// in\n    tag_151:\n        /* \"#utility.yul\":2268:2331   */\n      swap3\n      pop\n        /* \"#utility.yul\":2223:2341   */\n      pop\n        /* \"#utility.yul\":2380:2382   */\n      0x40\n        /* \"#utility.yul\":2406:2459   */\n      tag_152\n        /* \"#utility.yul\":2451:2458   */\n      dup7\n        /* \"#utility.yul\":2442:2448   */\n      dup3\n        /* \"#utility.yul\":2431:2440   */\n      dup8\n        /* \"#utility.yul\":2427:2449   */\n      add\n        /* \"#utility.yul\":2406:2459   */\n      tag_104\n      jump\t// in\n    tag_152:\n        /* \"#utility.yul\":2396:2459   */\n      swap2\n      pop\n        /* \"#utility.yul\":2351:2469   */\n      pop\n        /* \"#utility.yul\":1857:2476   */\n      swap3\n      pop\n      swap3\n      pop\n      swap3\n      jump\t// out\n        /* \"#utility.yul\":2482:2608   */\n    tag_106:\n        /* \"#utility.yul\":2519:2526   */\n      0x00\n        /* \"#utility.yul\":2559:2601   */\n      0xffffffffffffffffffffffffffffffffffffffff\n        /* \"#utility.yul\":2552:2557   */\n      dup3\n        /* \"#utility.yul\":2548:2602   */\n      and\n        /* \"#utility.yul\":2537:2602   */\n      swap1\n      pop\n        /* \"#utility.yul\":2482:2608   */\n      swap2\n      swap1\n      pop\n      jump\t// out\n        /* \"#utility.yul\":2614:2710   */\n    tag_107:\n        /* \"#utility.yul\":2651:2658   */\n      0x00\n        /* \"#utility.yul\":2680:2704   */\n      tag_155\n        /* \"#utility.yul\":2698:2703   */\n      dup3\n        /* \"#utility.yul\":2680:2704   */\n      tag_106\n      jump\t// in\n    tag_155:\n        /* \"#utility.yul\":2669:2704   */\n      swap1\n      pop\n        /* \"#utility.yul\":2614:2710   */\n      swap2\n      swap1\n      pop\n      jump\t// out\n        /* \"#utility.yul\":2716:2838   */\n    tag_108:\n        /* \"#utility.yul\":2789:2813   */\n      tag_157\n        /* \"#utility.yul\":2807:2812   */\n      dup2\n        /* \"#utility.yul\":2789:2813   */\n      tag_107\n      jump\t// in\n    tag_157:\n        /* \"#utility.yul\":2782:2787   */\n      dup2\n        /* \"#utility.yul\":2779:2814   */\n      eq\n        /* \"#utility.yul\":2769:2832   */\n      tag_158\n      jumpi\n        /* \"#utility.yul\":2828:2829   */\n      0x00\n        /* \"#utility.yul\":2825:2826   */\n      dup1\n        /* \"#utility.yul\":2818:2830   */\n      revert\n        /* \"#utility.yul\":2769:2832   */\n    tag_158:\n        /* \"#utility.yul\":2716:2838   */\n      pop\n      jump\t// out\n        /* \"#utility.yul\":2844:2983   */\n    tag_109:\n        /* \"#utility.yul\":2890:2895   */\n      0x00\n        /* \"#utility.yul\":2928:2934   */\n      dup2\n        /* \"#utility.yul\":2915:2935   */\n      calldataload\n        /* \"#utility.yul\":2906:2935   */\n      swap1\n      pop\n        /* \"#utility.yul\":2944:2977   */\n      tag_160\n        /* \"#utility.yul\":2971:2976   */\n      dup2\n        /* \"#utility.yul\":2944:2977   */\n      tag_108\n      jump\t// in\n    tag_160:\n        /* \"#utility.yul\":2844:2983   */\n      swap3\n      swap2\n      pop\n      pop\n      jump\t// out\n        /* \"#utility.yul\":2989:3318   */\n    tag_46:\n        /* \"#utility.yul\":3048:3054   */\n      0x00\n        /* \"#utility.yul\":3097:3099   */\n      0x20\n        /* \"#utility.yul\":3085:3094   */\n      dup3\n        /* \"#utility.yul\":3076:3083   */\n      dup5\n        /* \"#utility.yul\":3072:3095   */\n      sub\n        /* \"#utility.yul\":3068:3100   */\n      slt\n        /* \"#utility.yul\":3065:3184   */\n      iszero\n      tag_162\n      jumpi\n        /* \"#utility.yul\":3103:3182   */\n      tag_163\n      tag_100\n      jump\t// in\n    tag_163:\n        /* \"#utility.yul\":3065:3184   */\n    tag_162:\n        /* \"#utility.yul\":3223:3224   */\n      0x00\n        /* \"#utility.yul\":3248:3301   */\n      tag_164\n        /* \"#utility.yul\":3293:3300   */\n      dup5\n        /* \"#utility.yul\":3284:3290   */\n      dup3\n        /* \"#utility.yul\":3273:3282   */\n      dup6\n        /* \"#utility.yul\":3269:3291   */\n      add\n        /* \"#utility.yul\":3248:3301   */\n      tag_109\n      jump\t// in\n    tag_164:\n        /* \"#utility.yul\":3238:3301   */\n      swap2\n      pop\n        /* \"#utility.yul\":3194:3311   */\n      pop\n        /* \"#utility.yul\":2989:3318   */\n      swap3\n      swap2\n      pop\n      pop\n      jump\t// out\n        /* \"#utility.yul\":3324:3493   */\n    tag_110:\n        /* \"#utility.yul\":3408:3419   */\n      0x00\n        /* \"#utility.yul\":3442:3448   */\n      dup3\n        /* \"#utility.yul\":3437:3440   */\n      dup3\n        /* \"#utility.yul\":3430:3449   */\n      mstore\n        /* \"#utility.yul\":3482:3486   */\n      0x20\n        /* \"#utility.yul\":3477:3480   */\n      dup3\n        /* \"#utility.yul\":3473:3487   */\n      add\n        /* \"#utility.yul\":3458:3487   */\n      swap1\n      pop\n        /* \"#utility.yul\":3324:3493   */\n      swap3\n      swap2\n      pop\n      pop\n      jump\t// out\n        /* \"#utility.yul\":3499:3666   */\n    tag_111:\n        /* \"#utility.yul\":3639:3658   */\n      0x4465706f73697420746f6f20736d616c6c000000000000000000000000000000\n        /* \"#utility.yul\":3635:3636   */\n      0x00\n        /* \"#utility.yul\":3627:3633   */\n      dup3\n        /* \"#utility.yul\":3623:3637   */\n      add\n        /* \"#utility.yul\":3616:3659   */\n      mstore\n        /* \"#utility.yul\":3499:3666   */\n      pop\n      jump\t// out\n        /* \"#utility.yul\":3672:4038   */\n    tag_112:\n        /* \"#utility.yul\":3814:3817   */\n      0x00\n        /* \"#utility.yul\":3835:3902   */\n      tag_168\n        /* \"#utility.yul\":3899:3901   */\n      0x11\n        /* \"#utility.yul\":3894:3897   */\n      dup4\n        /* \"#utility.yul\":3835:3902   */\n      tag_110\n      jump\t// in\n    tag_168:\n        /* \"#utility.yul\":3828:3902   */\n      swap2\n      pop\n        /* \"#utility.yul\":3911:4004   */\n      tag_169\n        /* \"#utility.yul\":4000:4003   */\n      dup3\n        /* \"#utility.yul\":3911:4004   */\n      tag_111\n      jump\t// in\n    tag_169:\n        /* \"#utility.yul\":4029:4031   */\n      0x20\n        /* \"#utility.yul\":4024:4027   */\n      dup3\n        /* \"#utility.yul\":4020:4032   */\n      add\n        /* \"#utility.yul\":4013:4032   */\n      swap1\n      pop\n        /* \"#utility.yul\":3672:4038   */\n      swap2\n      swap1\n      pop\n      jump\t// out\n        /* \"#utility.yul\":4044:4463   */\n    tag_62:\n        /* \"#utility.yul\":4210:4214   */\n      0x00\n        /* \"#utility.yul\":4248:4250   */\n      0x20\n        /* \"#utility.yul\":4237:4246   */\n      dup3\n        /* \"#utility.yul\":4233:4251   */\n      add\n        /* \"#utility.yul\":4225:4251   */\n      swap1\n      pop\n        /* \"#utility.yul\":4297:4306   */\n      dup2\n        /* \"#utility.yul\":4291:4295   */\n      dup2\n        /* \"#utility.yul\":4287:4307   */\n      sub\n        /* \"#utility.yul\":4283:4284   */\n      0x00\n        /* \"#utility.yul\":4272:4281   */\n      dup4\n        /* \"#utility.yul\":4268:4285   */\n      add\n        /* \"#utility.yul\":4261:4308   */\n      mstore\n        /* \"#utility.yul\":4325:4456   */\n      tag_171\n        /* \"#utility.yul\":4451:4455   */\n      dup2\n        /* \"#utility.yul\":4325:4456   */\n      tag_112\n      jump\t// in\n    tag_171:\n        /* \"#utility.yul\":4317:4456   */\n      swap1\n      pop\n        /* \"#utility.yul\":4044:4463   */\n      swap2\n      swap1\n      pop\n      jump\t// out\n        /* \"#utility.yul\":4469:4649   */\n    tag_113:\n        /* \"#utility.yul\":4517:4594   */\n      0x4e487b7100000000000000000000000000000000000000000000000000000000\n        /* \"#utility.yul\":4514:4515   */\n      0x00\n        /* \"#utility.yul\":4507:4595   */\n      mstore\n        /* \"#utility.yul\":4614:4618   */\n      0x11\n        /* \"#utility.yul\":4611:4612   */\n      0x04\n        /* \"#utility.yul\":4604:4619   */\n      mstore\n        /* \"#utility.yul\":4638:4642   */\n      0x24\n        /* \"#utility.yul\":4635:4636   */\n      0x00\n        /* \"#utility.yul\":4628:4643   */\n      revert\n        /* \"#utility.yul\":4655:4846   */\n    tag_64:\n        /* \"#utility.yul\":4695:4698   */\n      0x00\n        /* \"#utility.yul\":4714:4734   */\n      tag_174\n        /* \"#utility.yul\":4732:4733   */\n      dup3\n        /* \"#utility.yul\":4714:4734   */\n      tag_102\n      jump\t// in\n    tag_174:\n        /* \"#utility.yul\":4709:4734   */\n      swap2\n      pop\n        /* \"#utility.yul\":4748:4768   */\n      tag_175\n        /* \"#utility.yul\":4766:4767   */\n      dup4\n        /* \"#utility.yul\":4748:4768   */\n      tag_102\n      jump\t// in\n    tag_175:\n        /* \"#utility.yul\":4743:4768   */\n      swap3\n      pop\n        /* \"#utility.yul\":4791:4792   */\n      dup3\n        /* \"#utility.yul\":4788:4789   */\n      dup3\n        /* \"#utility.yul\":4784:4793   */\n      add\n        /* \"#utility.yul\":4777:4793   */\n      swap1\n      pop\n        /* \"#utility.yul\":4812:4815   */\n      dup1\n        /* \"#utility.yul\":4809:4810   */\n      dup3\n        /* \"#utility.yul\":4806:4816   */\n      gt\n        /* \"#utility.yul\":4803:4839   */\n      iszero\n      tag_176\n      jumpi\n        /* \"#utility.yul\":4819:4837   */\n      tag_177\n      tag_113\n      jump\t// in\n    tag_177:\n        /* \"#utility.yul\":4803:4839   */\n    tag_176:\n        /* \"#utility.yul\":4655:4846   */\n      swap3\n      swap2\n      pop\n      pop\n      jump\t// out\n        /* \"#utility.yul\":4852:5018   */\n    tag_114:\n        /* \"#utility.yul\":4992:5010   */\n      0x4e6f7420656e6f7567682066756e647300000000000000000000000000000000\n        /* \"#utility.yul\":4988:4989   */\n      0x00\n        /* \"#utility.yul\":4980:4986   */\n      dup3\n        /* \"#utility.yul\":4976:4990   */\n      add\n        /* \"#utility.yul\":4969:5011   */\n      mstore\n        /* \"#utility.yul\":4852:5018   */\n      pop\n      jump\t// out\n        /* \"#utility.yul\":5024:5390   */\n    tag_115:\n        /* \"#utility.yul\":5166:5169   */\n      0x00\n        /* \"#utility.yul\":5187:5254   */\n      tag_180\n        /* \"#utility.yul\":5251:5253   */\n      0x10\n        /* \"#utility.yul\":5246:5249   */\n      dup4\n        /* \"#utility.yul\":5187:5254   */\n      tag_110\n      jump\t// in\n    tag_180:\n        /* \"#utility.yul\":5180:5254   */\n      swap2\n      pop\n        /* \"#utility.yul\":5263:5356   */\n      tag_181\n        /* \"#utility.yul\":5352:5355   */\n      dup3\n        /* \"#utility.yul\":5263:5356   */\n      tag_114\n      jump\t// in\n    tag_181:\n        /* \"#utility.yul\":5381:5383   */\n      0x20\n        /* \"#utility.yul\":5376:5379   */\n      dup3\n        /* \"#utility.yul\":5372:5384   */\n      add\n        /* \"#utility.yul\":5365:5384   */\n      swap1\n      pop\n        /* \"#utility.yul\":5024:5390   */\n      swap2\n      swap1\n      pop\n      jump\t// out\n        /* \"#utility.yul\":5396:5815   */\n    tag_70:\n        /* \"#utility.yul\":5562:5566   */\n      0x00\n        /* \"#utility.yul\":5600:5602   */\n      0x20\n        /* \"#utility.yul\":5589:5598   */\n      dup3\n        /* \"#utility.yul\":5585:5603   */\n      add\n        /* \"#utility.yul\":5577:5603   */\n      swap1\n      pop\n        /* \"#utility.yul\":5649:5658   */\n      dup2\n        /* \"#utility.yul\":5643:5647   */\n      dup2\n        /* \"#utility.yul\":5639:5659   */\n      sub\n        /* \"#utility.yul\":5635:5636   */\n      0x00\n        /* \"#utility.yul\":5624:5633   */\n      dup4\n        /* \"#utility.yul\":5620:5637   */\n      add\n        /* \"#utility.yul\":5613:5660   */\n      mstore\n        /* \"#utility.yul\":5677:5808   */\n      tag_183\n        /* \"#utility.yul\":5803:5807   */\n      dup2\n        /* \"#utility.yul\":5677:5808   */\n      tag_115\n      jump\t// in\n    tag_183:\n        /* \"#utility.yul\":5669:5808   */\n      swap1\n      pop\n        /* \"#utility.yul\":5396:5815   */\n      swap2\n      swap1\n      pop\n      jump\t// out\n        /* \"#utility.yul\":5821:5985   */\n    tag_116:\n        /* \"#utility.yul\":5961:5977   */\n      0x496e76616c696420616d6f756e74000000000000000000000000000000000000\n        /* \"#utility.yul\":5957:5958   */\n      0x00\n        /* \"#utility.yul\":5949:5955   */\n      dup3\n        /* \"#utility.yul\":5945:5959   */\n      add\n        /* \"#utility.yul\":5938:5978   */\n      mstore\n        /* \"#utility.yul\":5821:5985   */\n      pop\n      jump\t// out\n        /* \"#utility.yul\":5991:6357   */\n    tag_117:\n        /* \"#utility.yul\":6133:6136   */\n      0x00\n        /* \"#utility.yul\":6154:6221   */\n      tag_186\n        /* \"#utility.yul\":6218:6220   */\n      0x0e\n        /* \"#utility.yul\":6213:6216   */\n      dup4\n        /* \"#utility.yul\":6154:6221   */\n      tag_110\n      jump\t// in\n    tag_186:\n        /* \"#utility.yul\":6147:6221   */\n      swap2\n      pop\n        /* \"#utility.yul\":6230:6323   */\n      tag_187\n        /* \"#utility.yul\":6319:6322   */\n      dup3\n        /* \"#utility.yul\":6230:6323   */\n      tag_116\n      jump\t// in\n    tag_187:\n        /* \"#utility.yul\":6348:6350   */\n      0x20\n        /* \"#utility.yul\":6343:6346   */\n      dup3\n        /* \"#utility.yul\":6339:6351   */\n      add\n        /* \"#utility.yul\":6332:6351   */\n      swap1\n      pop\n        /* \"#utility.yul\":5991:6357   */\n      swap2\n      swap1\n      pop\n      jump\t// out\n        /* \"#utility.yul\":6363:6782   */\n    tag_76:\n        /* \"#utility.yul\":6529:6533   */\n      0x00\n        /* \"#utility.yul\":6567:6569   */\n      0x20\n        /* \"#utility.yul\":6556:6565   */\n      dup3\n        /* \"#utility.yul\":6552:6570   */\n      add\n        /* \"#utility.yul\":6544:6570   */\n      swap1\n      pop\n        /* \"#utility.yul\":6616:6625   */\n      dup2\n        /* \"#utility.yul\":6610:6614   */\n      dup2\n        /* \"#utility.yul\":6606:6626   */\n      sub\n        /* \"#utility.yul\":6602:6603   */\n      0x00\n        /* \"#utility.yul\":6591:6600   */\n      dup4\n        /* \"#utility.yul\":6587:6604   */\n      add\n        /* \"#utility.yul\":6580:6627   */\n      mstore\n        /* \"#utility.yul\":6644:6775   */\n      tag_189\n        /* \"#utility.yul\":6770:6774   */\n      dup2\n        /* \"#utility.yul\":6644:6775   */\n      tag_117\n      jump\t// in\n    tag_189:\n        /* \"#utility.yul\":6636:6775   */\n      swap1\n      pop\n        /* \"#utility.yul\":6363:6782   */\n      swap2\n      swap1\n      pop\n      jump\t// out\n        /* \"#utility.yul\":6788:6962   */\n    tag_118:\n        /* \"#utility.yul\":6928:6954   */\n      0x426f756e747920616c726561647920616c6c6f63617465640000000000000000\n        /* \"#utility.yul\":6924:6925   */\n      0x00\n        /* \"#utility.yul\":6916:6922   */\n      dup3\n        /* \"#utility.yul\":6912:6926   */\n      add\n        /* \"#utility.yul\":6905:6955   */\n      mstore\n        /* \"#utility.yul\":6788:6962   */\n      pop\n      jump\t// out\n        /* \"#utility.yul\":6968:7334   */\n    tag_119:\n        /* \"#utility.yul\":7110:7113   */\n      0x00\n        /* \"#utility.yul\":7131:7198   */\n      tag_192\n        /* \"#utility.yul\":7195:7197   */\n      0x18\n        /* \"#utility.yul\":7190:7193   */\n      dup4\n        /* \"#utility.yul\":7131:7198   */\n      tag_110\n      jump\t// in\n    tag_192:\n        /* \"#utility.yul\":7124:7198   */\n      swap2\n      pop\n        /* \"#utility.yul\":7207:7300   */\n      tag_193\n        /* \"#utility.yul\":7296:7299   */\n      dup3\n        /* \"#utility.yul\":7207:7300   */\n      tag_118\n      jump\t// in\n    tag_193:\n        /* \"#utility.yul\":7325:7327   */\n      0x20\n        /* \"#utility.yul\":7320:7323   */\n      dup3\n        /* \"#utility.yul\":7316:7328   */\n      add\n        /* \"#utility.yul\":7309:7328   */\n      swap1\n      pop\n        /* \"#utility.yul\":6968:7334   */\n      swap2\n      swap1\n      pop\n      jump\t// out\n        /* \"#utility.yul\":7340:7759   */\n    tag_79:\n        /* \"#utility.yul\":7506:7510   */\n      0x00\n        /* \"#utility.yul\":7544:7546   */\n      0x20\n        /* \"#utility.yul\":7533:7542   */\n      dup3\n        /* \"#utility.yul\":7529:7547   */\n      add\n        /* \"#utility.yul\":7521:7547   */\n      swap1\n      pop\n        /* \"#utility.yul\":7593:7602   */\n      dup2\n        /* \"#utility.yul\":7587:7591   */\n      dup2\n        /* \"#utility.yul\":7583:7603   */\n      sub\n        /* \"#utility.yul\":7579:7580   */\n      0x00\n        /* \"#utility.yul\":7568:7577   */\n      dup4\n        /* \"#utility.yul\":7564:7581   */\n      add\n        /* \"#utility.yul\":7557:7604   */\n      mstore\n        /* \"#utility.yul\":7621:7752   */\n      tag_195\n        /* \"#utility.yul\":7747:7751   */\n      dup2\n        /* \"#utility.yul\":7621:7752   */\n      tag_119\n      jump\t// in\n    tag_195:\n        /* \"#utility.yul\":7613:7752   */\n      swap1\n      pop\n        /* \"#utility.yul\":7340:7759   */\n      swap2\n      swap1\n      pop\n      jump\t// out\n        /* \"#utility.yul\":7765:7959   */\n    tag_81:\n        /* \"#utility.yul\":7805:7809   */\n      0x00\n        /* \"#utility.yul\":7825:7845   */\n      tag_197\n        /* \"#utility.yul\":7843:7844   */\n      dup3\n        /* \"#utility.yul\":7825:7845   */\n      tag_102\n      jump\t// in\n    tag_197:\n        /* \"#utility.yul\":7820:7845   */\n      swap2\n      pop\n        /* \"#utility.yul\":7859:7879   */\n      tag_198\n        /* \"#utility.yul\":7877:7878   */\n      dup4\n        /* \"#utility.yul\":7859:7879   */\n      tag_102\n      jump\t// in\n    tag_198:\n        /* \"#utility.yul\":7854:7879   */\n      swap3\n      pop\n        /* \"#utility.yul\":7903:7904   */\n      dup3\n        /* \"#utility.yul\":7900:7901   */\n      dup3\n        /* \"#utility.yul\":7896:7905   */\n      sub\n        /* \"#utility.yul\":7888:7905   */\n      swap1\n      pop\n        /* \"#utility.yul\":7927:7928   */\n      dup2\n        /* \"#utility.yul\":7921:7925   */\n      dup2\n        /* \"#utility.yul\":7918:7929   */\n      gt\n        /* \"#utility.yul\":7915:7952   */\n      iszero\n      tag_199\n      jumpi\n        /* \"#utility.yul\":7932:7950   */\n      tag_200\n      tag_113\n      jump\t// in\n    tag_200:\n        /* \"#utility.yul\":7915:7952   */\n    tag_199:\n        /* \"#utility.yul\":7765:7959   */\n      swap3\n      swap2\n      pop\n      pop\n      jump\t// out\n        /* \"#utility.yul\":7965:8141   */\n    tag_120:\n        /* \"#utility.yul\":8105:8133   */\n      0x496e73756666696369656e7420626f756e747920616d6f756e74000000000000\n        /* \"#utility.yul\":8101:8102   */\n      0x00\n        /* \"#utility.yul\":8093:8099   */\n      dup3\n        /* \"#utility.yul\":8089:8103   */\n      add\n        /* \"#utility.yul\":8082:8134   */\n      mstore\n        /* \"#utility.yul\":7965:8141   */\n      pop\n      jump\t// out\n        /* \"#utility.yul\":8147:8513   */\n    tag_121:\n        /* \"#utility.yul\":8289:8292   */\n      0x00\n        /* \"#utility.yul\":8310:8377   */\n      tag_203\n        /* \"#utility.yul\":8374:8376   */\n      0x1a\n        /* \"#utility.yul\":8369:8372   */\n      dup4\n        /* \"#utility.yul\":8310:8377   */\n      tag_110\n      jump\t// in\n    tag_203:\n        /* \"#utility.yul\":8303:8377   */\n      swap2\n      pop\n        /* \"#utility.yul\":8386:8479   */\n      tag_204\n        /* \"#utility.yul\":8475:8478   */\n      dup3\n        /* \"#utility.yul\":8386:8479   */\n      tag_120\n      jump\t// in\n    tag_204:\n        /* \"#utility.yul\":8504:8506   */\n      0x20\n        /* \"#utility.yul\":8499:8502   */\n      dup3\n        /* \"#utility.yul\":8495:8507   */\n      add\n        /* \"#utility.yul\":8488:8507   */\n      swap1\n      pop\n        /* \"#utility.yul\":8147:8513   */\n      swap2\n      swap1\n      pop\n      jump\t// out\n        /* \"#utility.yul\":8519:8938   */\n    tag_90:\n        /* \"#utility.yul\":8685:8689   */\n      0x00\n        /* \"#utility.yul\":8723:8725   */\n      0x20\n        /* \"#utility.yul\":8712:8721   */\n      dup3\n        /* \"#utility.yul\":8708:8726   */\n      add\n        /* \"#utility.yul\":8700:8726   */\n      swap1\n      pop\n        /* \"#utility.yul\":8772:8781   */\n      dup2\n        /* \"#utility.yul\":8766:8770   */\n      dup2\n        /* \"#utility.yul\":8762:8782   */\n      sub\n        /* \"#utility.yul\":8758:8759   */\n      0x00\n        /* \"#utility.yul\":8747:8756   */\n      dup4\n        /* \"#utility.yul\":8743:8760   */\n      add\n        /* \"#utility.yul\":8736:8783   */\n      mstore\n        /* \"#utility.yul\":8800:8931   */\n      tag_206\n        /* \"#utility.yul\":8926:8930   */\n      dup2\n        /* \"#utility.yul\":8800:8931   */\n      tag_121\n      jump\t// in\n    tag_206:\n        /* \"#utility.yul\":8792:8931   */\n      swap1\n      pop\n        /* \"#utility.yul\":8519:8938   */\n      swap2\n      swap1\n      pop\n      jump\t// out\n        /* \"#utility.yul\":8944:9125   */\n    tag_122:\n        /* \"#utility.yul\":9084:9117   */\n      0x54617267657420697373756520616c72656164792068617320626f756e747900\n        /* \"#utility.yul\":9080:9081   */\n      0x00\n        /* \"#utility.yul\":9072:9078   */\n      dup3\n        /* \"#utility.yul\":9068:9082   */\n      add\n        /* \"#utility.yul\":9061:9118   */\n      mstore\n        /* \"#utility.yul\":8944:9125   */\n      pop\n      jump\t// out\n        /* \"#utility.yul\":9131:9497   */\n    tag_123:\n        /* \"#utility.yul\":9273:9276   */\n      0x00\n        /* \"#utility.yul\":9294:9361   */\n      tag_209\n        /* \"#utility.yul\":9358:9360   */\n      0x1f\n        /* \"#utility.yul\":9353:9356   */\n      dup4\n        /* \"#utility.yul\":9294:9361   */\n      tag_110\n      jump\t// in\n    tag_209:\n        /* \"#utility.yul\":9287:9361   */\n      swap2\n      pop\n        /* \"#utility.yul\":9370:9463   */\n      tag_210\n        /* \"#utility.yul\":9459:9462   */\n      dup3\n        /* \"#utility.yul\":9370:9463   */\n      tag_122\n      jump\t// in\n    tag_210:\n        /* \"#utility.yul\":9488:9490   */\n      0x20\n        /* \"#utility.yul\":9483:9486   */\n      dup3\n        /* \"#utility.yul\":9479:9491   */\n      add\n        /* \"#utility.yul\":9472:9491   */\n      swap1\n      pop\n        /* \"#utility.yul\":9131:9497   */\n      swap2\n      swap1\n      pop\n      jump\t// out\n        /* \"#utility.yul\":9503:9922   */\n    tag_93:\n        /* \"#utility.yul\":9669:9673   */\n      0x00\n        /* \"#utility.yul\":9707:9709   */\n      0x20\n        /* \"#utility.yul\":9696:9705   */\n      dup3\n        /* \"#utility.yul\":9692:9710   */\n      add\n        /* \"#utility.yul\":9684:9710   */\n      swap1\n      pop\n        /* \"#utility.yul\":9756:9765   */\n      dup2\n        /* \"#utility.yul\":9750:9754   */\n      dup2\n        /* \"#utility.yul\":9746:9766   */\n      sub\n        /* \"#utility.yul\":9742:9743   */\n      0x00\n        /* \"#utility.yul\":9731:9740   */\n      dup4\n        /* \"#utility.yul\":9727:9744   */\n      add\n        /* \"#utility.yul\":9720:9767   */\n      mstore\n        /* \"#utility.yul\":9784:9915   */\n      tag_212\n        /* \"#utility.yul\":9910:9914   */\n      dup2\n        /* \"#utility.yul\":9784:9915   */\n      tag_123\n      jump\t// in\n    tag_212:\n        /* \"#utility.yul\":9776:9915   */\n      swap1\n      pop\n        /* \"#utility.yul\":9503:9922   */\n      swap2\n      swap1\n      pop\n      jump\t// out\n\n    auxdata: 0xa264697066735822122083a541943802e5555bd6b72f4e0fe3526e225a3d19a06328ef714b12d961c5bc64736f6c634300081a0033\n}\n",
				"bytecode": {
					"linkReferences": {},
					"object": "6080604052348015600e575f80fd5b50610c9e8061001c5f395ff3fe608060405260043610610089575f3560e01c8063b6f5cad211610058578063b6f5cad214610166578063b8b3d85b1461018e578063e1e158a5146101ca578063e2c41dbc146101f4578063fee69cb9146101fe57610098565b806303ce21861461009c57806321df103a146100d8578063454fa1b114610100578063968ed6001461013c57610098565b366100985761009661023a565b005b5f80fd5b3480156100a7575f80fd5b506100c260048036038101906100bd91906107ef565b61033f565b6040516100cf9190610829565b60405180910390f35b3480156100e3575f80fd5b506100fe60048036038101906100f99190610842565b610354565b005b34801561010b575f80fd5b50610126600480360381019061012191906107ef565b610565565b6040516101339190610829565b60405180910390f35b348015610147575f80fd5b5061015061057f565b60405161015d9190610829565b60405180910390f35b348015610171575f80fd5b5061018c60048036038101906101879190610880565b610585565b005b348015610199575f80fd5b506101b460048036038101906101af919061092a565b61073a565b6040516101c19190610829565b60405180910390f35b3480156101d5575f80fd5b506101de610780565b6040516101eb9190610829565b60405180910390f35b6101fc61023a565b005b348015610209575f80fd5b50610224600480360381019061021f919061092a565b61078b565b6040516102319190610829565b60405180910390f35b662386f26fc10000341015610284576040517f08c379a000000000000000000000000000000000000000000000000000000000815260040161027b906109af565b60405180910390fd5b3460015f3373ffffffffffffffffffffffffffffffffffffffff1673ffffffffffffffffffffffffffffffffffffffff1681526020019081526020015f205f8282546102d091906109fa565b925050819055503460035f8282546102e891906109fa565b925050819055503373ffffffffffffffffffffffffffffffffffffffff167f543ba50a5eec5e6178218e364b1d0f396157b3c8fa278522c2cb7fd99407d474346040516103359190610829565b60405180910390a2565b6002602052805f5260405f205f915090505481565b8060025f8281526020019081526020015f205460015f3373ffffffffffffffffffffffffffffffffffffffff1673ffffffffffffffffffffffffffffffffffffffff1681526020019081526020015f205410156103e6576040517f08c379a00000000000000000000000000000000000000000000000000000000081526004016103dd90610a77565b60405180910390fd5b61042d8260015f3373ffffffffffffffffffffffffffffffffffffffff1673ffffffffffffffffffffffffffffffffffffffff1681526020019081526020015f20546107a0565b61046c576040517f08c379a000000000000000000000000000000000000000000000000000000000815260040161046390610adf565b60405180910390fd5b5f60025f8581526020019081526020015f2054146104bf576040517f08c379a00000000000000000000000000000000000000000000000000000000081526004016104b690610b47565b60405180910390fd5b8160015f3373ffffffffffffffffffffffffffffffffffffffff1673ffffffffffffffffffffffffffffffffffffffff1681526020019081526020015f205f82825461050b9190610b65565b925050819055508160025f8581526020019081526020015f2081905550827ffaf7d24eca5c2ed2e63e0e70578db4ebda8019cff8040e61689979af8cd739b1836040516105589190610829565b60405180910390a2505050565b5f60025f8381526020019081526020015f20549050919050565b60035481565b8260025f8281526020019081526020015f205460015f3373ffffffffffffffffffffffffffffffffffffffff1673ffffffffffffffffffffffffffffffffffffffff1681526020019081526020015f20541015610617576040517f08c379a000000000000000000000000000000000000000000000000000000000815260040161060e90610a77565b60405180910390fd5b8160025f8681526020019081526020015f2054101561066b576040517f08c379a000000000000000000000000000000000000000000000000000000000815260040161066290610be2565b60405180910390fd5b5f60025f8581526020019081526020015f2054146106be576040517f08c379a00000000000000000000000000000000000000000000000000000000081526004016106b590610c4a565b60405180910390fd5b8160025f8681526020019081526020015f205f8282546106de9190610b65565b925050819055508160025f8581526020019081526020015f208190555082847f9a26cfe9143af653ecb2415e29f0888de1a4a6a8711824c24e166e081e43bbec8460405161072c9190610829565b60405180910390a350505050565b5f60015f8373ffffffffffffffffffffffffffffffffffffffff1673ffffffffffffffffffffffffffffffffffffffff1681526020019081526020015f20549050919050565b662386f26fc1000081565b6001602052805f5260405f205f915090505481565b5f80831180156107b05750818311155b905092915050565b5f80fd5b5f819050919050565b6107ce816107bc565b81146107d8575f80fd5b50565b5f813590506107e9816107c5565b92915050565b5f60208284031215610804576108036107b8565b5b5f610811848285016107db565b91505092915050565b610823816107bc565b82525050565b5f60208201905061083c5f83018461081a565b92915050565b5f8060408385031215610858576108576107b8565b5b5f610865858286016107db565b9250506020610876858286016107db565b9150509250929050565b5f805f60608486031215610897576108966107b8565b5b5f6108a4868287016107db565b93505060206108b5868287016107db565b92505060406108c6868287016107db565b9150509250925092565b5f73ffffffffffffffffffffffffffffffffffffffff82169050919050565b5f6108f9826108d0565b9050919050565b610909816108ef565b8114610913575f80fd5b50565b5f8135905061092481610900565b92915050565b5f6020828403121561093f5761093e6107b8565b5b5f61094c84828501610916565b91505092915050565b5f82825260208201905092915050565b7f4465706f73697420746f6f20736d616c6c0000000000000000000000000000005f82015250565b5f610999601183610955565b91506109a482610965565b602082019050919050565b5f6020820190508181035f8301526109c68161098d565b9050919050565b7f4e487b71000000000000000000000000000000000000000000000000000000005f52601160045260245ffd5b5f610a04826107bc565b9150610a0f836107bc565b9250828201905080821115610a2757610a266109cd565b5b92915050565b7f4e6f7420656e6f7567682066756e6473000000000000000000000000000000005f82015250565b5f610a61601083610955565b9150610a6c82610a2d565b602082019050919050565b5f6020820190508181035f830152610a8e81610a55565b9050919050565b7f496e76616c696420616d6f756e740000000000000000000000000000000000005f82015250565b5f610ac9600e83610955565b9150610ad482610a95565b602082019050919050565b5f6020820190508181035f830152610af681610abd565b9050919050565b7f426f756e747920616c726561647920616c6c6f636174656400000000000000005f82015250565b5f610b31601883610955565b9150610b3c82610afd565b602082019050919050565b5f6020820190508181035f830152610b5e81610b25565b9050919050565b5f610b6f826107bc565b9150610b7a836107bc565b9250828203905081811115610b9257610b916109cd565b5b92915050565b7f496e73756666696369656e7420626f756e747920616d6f756e740000000000005f82015250565b5f610bcc601a83610955565b9150610bd782610b98565b602082019050919050565b5f6020820190508181035f830152610bf981610bc0565b9050919050565b7f54617267657420697373756520616c72656164792068617320626f756e7479005f82015250565b5f610c34601f83610955565b9150610c3f82610c00565b602082019050919050565b5f6020820190508181035f830152610c6181610c28565b905091905056fea264697066735822122083a541943802e5555bd6b72f4e0fe3526e225a3d19a06328ef714b12d961c5bc64736f6c634300081a0033",
					"opcodes": "PUSH1 0x80 PUSH1 0x40 MSTORE CALLVALUE DUP1 ISZERO PUSH1 0xE JUMPI PUSH0 DUP1 REVERT JUMPDEST POP PUSH2 0xC9E DUP1 PUSH2 0x1C PUSH0 CODECOPY PUSH0 RETURN INVALID PUSH1 0x80 PUSH1 0x40 MSTORE PUSH1 0x4 CALLDATASIZE LT PUSH2 0x89 JUMPI PUSH0 CALLDATALOAD PUSH1 0xE0 SHR DUP1 PUSH4 0xB6F5CAD2 GT PUSH2 0x58 JUMPI DUP1 PUSH4 0xB6F5CAD2 EQ PUSH2 0x166 JUMPI DUP1 PUSH4 0xB8B3D85B EQ PUSH2 0x18E JUMPI DUP1 PUSH4 0xE1E158A5 EQ PUSH2 0x1CA JUMPI DUP1 PUSH4 0xE2C41DBC EQ PUSH2 0x1F4 JUMPI DUP1 PUSH4 0xFEE69CB9 EQ PUSH2 0x1FE JUMPI PUSH2 0x98 JUMP JUMPDEST DUP1 PUSH4 0x3CE2186 EQ PUSH2 0x9C JUMPI DUP1 PUSH4 0x21DF103A EQ PUSH2 0xD8 JUMPI DUP1 PUSH4 0x454FA1B1 EQ PUSH2 0x100 JUMPI DUP1 PUSH4 0x968ED600 EQ PUSH2 0x13C JUMPI PUSH2 0x98 JUMP JUMPDEST CALLDATASIZE PUSH2 0x98 JUMPI PUSH2 0x96 PUSH2 0x23A JUMP JUMPDEST STOP JUMPDEST PUSH0 DUP1 REVERT JUMPDEST CALLVALUE DUP1 ISZERO PUSH2 0xA7 JUMPI PUSH0 DUP1 REVERT JUMPDEST POP PUSH2 0xC2 PUSH1 0x4 DUP1 CALLDATASIZE SUB DUP2 ADD SWAP1 PUSH2 0xBD SWAP2 SWAP1 PUSH2 0x7EF JUMP JUMPDEST PUSH2 0x33F JUMP JUMPDEST PUSH1 0x40 MLOAD PUSH2 0xCF SWAP2 SWAP1 PUSH2 0x829 JUMP JUMPDEST PUSH1 0x40 MLOAD DUP1 SWAP2 SUB SWAP1 RETURN JUMPDEST CALLVALUE DUP1 ISZERO PUSH2 0xE3 JUMPI PUSH0 DUP1 REVERT JUMPDEST POP PUSH2 0xFE PUSH1 0x4 DUP1 CALLDATASIZE SUB DUP2 ADD SWAP1 PUSH2 0xF9 SWAP2 SWAP1 PUSH2 0x842 JUMP JUMPDEST PUSH2 0x354 JUMP JUMPDEST STOP JUMPDEST CALLVALUE DUP1 ISZERO PUSH2 0x10B JUMPI PUSH0 DUP1 REVERT JUMPDEST POP PUSH2 0x126 PUSH1 0x4 DUP1 CALLDATASIZE SUB DUP2 ADD SWAP1 PUSH2 0x121 SWAP2 SWAP1 PUSH2 0x7EF JUMP JUMPDEST PUSH2 0x565 JUMP JUMPDEST PUSH1 0x40 MLOAD PUSH2 0x133 SWAP2 SWAP1 PUSH2 0x829 JUMP JUMPDEST PUSH1 0x40 MLOAD DUP1 SWAP2 SUB SWAP1 RETURN JUMPDEST CALLVALUE DUP1 ISZERO PUSH2 0x147 JUMPI PUSH0 DUP1 REVERT JUMPDEST POP PUSH2 0x150 PUSH2 0x57F JUMP JUMPDEST PUSH1 0x40 MLOAD PUSH2 0x15D SWAP2 SWAP1 PUSH2 0x829 JUMP JUMPDEST PUSH1 0x40 MLOAD DUP1 SWAP2 SUB SWAP1 RETURN JUMPDEST CALLVALUE DUP1 ISZERO PUSH2 0x171 JUMPI PUSH0 DUP1 REVERT JUMPDEST POP PUSH2 0x18C PUSH1 0x4 DUP1 CALLDATASIZE SUB DUP2 ADD SWAP1 PUSH2 0x187 SWAP2 SWAP1 PUSH2 0x880 JUMP JUMPDEST PUSH2 0x585 JUMP JUMPDEST STOP JUMPDEST CALLVALUE DUP1 ISZERO PUSH2 0x199 JUMPI PUSH0 DUP1 REVERT JUMPDEST POP PUSH2 0x1B4 PUSH1 0x4 DUP1 CALLDATASIZE SUB DUP2 ADD SWAP1 PUSH2 0x1AF SWAP2 SWAP1 PUSH2 0x92A JUMP JUMPDEST PUSH2 0x73A JUMP JUMPDEST PUSH1 0x40 MLOAD PUSH2 0x1C1 SWAP2 SWAP1 PUSH2 0x829 JUMP JUMPDEST PUSH1 0x40 MLOAD DUP1 SWAP2 SUB SWAP1 RETURN JUMPDEST CALLVALUE DUP1 ISZERO PUSH2 0x1D5 JUMPI PUSH0 DUP1 REVERT JUMPDEST POP PUSH2 0x1DE PUSH2 0x780 JUMP JUMPDEST PUSH1 0x40 MLOAD PUSH2 0x1EB SWAP2 SWAP1 PUSH2 0x829 JUMP JUMPDEST PUSH1 0x40 MLOAD DUP1 SWAP2 SUB SWAP1 RETURN JUMPDEST PUSH2 0x1FC PUSH2 0x23A JUMP JUMPDEST STOP JUMPDEST CALLVALUE DUP1 ISZERO PUSH2 0x209 JUMPI PUSH0 DUP1 REVERT JUMPDEST POP PUSH2 0x224 PUSH1 0x4 DUP1 CALLDATASIZE SUB DUP2 ADD SWAP1 PUSH2 0x21F SWAP2 SWAP1 PUSH2 0x92A JUMP JUMPDEST PUSH2 0x78B JUMP JUMPDEST PUSH1 0x40 MLOAD PUSH2 0x231 SWAP2 SWAP1 PUSH2 0x829 JUMP JUMPDEST PUSH1 0x40 MLOAD DUP1 SWAP2 SUB SWAP1 RETURN JUMPDEST PUSH7 0x2386F26FC10000 CALLVALUE LT ISZERO PUSH2 0x284 JUMPI PUSH1 0x40 MLOAD PUSH32 0x8C379A000000000000000000000000000000000000000000000000000000000 DUP2 MSTORE PUSH1 0x4 ADD PUSH2 0x27B SWAP1 PUSH2 0x9AF JUMP JUMPDEST PUSH1 0x40 MLOAD DUP1 SWAP2 SUB SWAP1 REVERT JUMPDEST CALLVALUE PUSH1 0x1 PUSH0 CALLER PUSH20 0xFFFFFFFFFFFFFFFFFFFFFFFFFFFFFFFFFFFFFFFF AND PUSH20 0xFFFFFFFFFFFFFFFFFFFFFFFFFFFFFFFFFFFFFFFF AND DUP2 MSTORE PUSH1 0x20 ADD SWAP1 DUP2 MSTORE PUSH1 0x20 ADD PUSH0 KECCAK256 PUSH0 DUP3 DUP3 SLOAD PUSH2 0x2D0 SWAP2 SWAP1 PUSH2 0x9FA JUMP JUMPDEST SWAP3 POP POP DUP2 SWAP1 SSTORE POP CALLVALUE PUSH1 0x3 PUSH0 DUP3 DUP3 SLOAD PUSH2 0x2E8 SWAP2 SWAP1 PUSH2 0x9FA JUMP JUMPDEST SWAP3 POP POP DUP2 SWAP1 SSTORE POP CALLER PUSH20 0xFFFFFFFFFFFFFFFFFFFFFFFFFFFFFFFFFFFFFFFF AND PUSH32 0x543BA50A5EEC5E6178218E364B1D0F396157B3C8FA278522C2CB7FD99407D474 CALLVALUE PUSH1 0x40 MLOAD PUSH2 0x335 SWAP2 SWAP1 PUSH2 0x829 JUMP JUMPDEST PUSH1 0x40 MLOAD DUP1 SWAP2 SUB SWAP1 LOG2 JUMP JUMPDEST PUSH1 0x2 PUSH1 0x20 MSTORE DUP1 PUSH0 MSTORE PUSH1 0x40 PUSH0 KECCAK256 PUSH0 SWAP2 POP SWAP1 POP SLOAD DUP2 JUMP JUMPDEST DUP1 PUSH1 0x2 PUSH0 DUP3 DUP2 MSTORE PUSH1 0x20 ADD SWAP1 DUP2 MSTORE PUSH1 0x20 ADD PUSH0 KECCAK256 SLOAD PUSH1 0x1 PUSH0 CALLER PUSH20 0xFFFFFFFFFFFFFFFFFFFFFFFFFFFFFFFFFFFFFFFF AND PUSH20 0xFFFFFFFFFFFFFFFFFFFFFFFFFFFFFFFFFFFFFFFF AND DUP2 MSTORE PUSH1 0x20 ADD SWAP1 DUP2 MSTORE PUSH1 0x20 ADD PUSH0 KECCAK256 SLOAD LT ISZERO PUSH2 0x3E6 JUMPI PUSH1 0x40 MLOAD PUSH32 0x8C379A000000000000000000000000000000000000000000000000000000000 DUP2 MSTORE PUSH1 0x4 ADD PUSH2 0x3DD SWAP1 PUSH2 0xA77 JUMP JUMPDEST PUSH1 0x40 MLOAD DUP1 SWAP2 SUB SWAP1 REVERT JUMPDEST PUSH2 0x42D DUP3 PUSH1 0x1 PUSH0 CALLER PUSH20 0xFFFFFFFFFFFFFFFFFFFFFFFFFFFFFFFFFFFFFFFF AND PUSH20 0xFFFFFFFFFFFFFFFFFFFFFFFFFFFFFFFFFFFFFFFF AND DUP2 MSTORE PUSH1 0x20 ADD SWAP1 DUP2 MSTORE PUSH1 0x20 ADD PUSH0 KECCAK256 SLOAD PUSH2 0x7A0 JUMP JUMPDEST PUSH2 0x46C JUMPI PUSH1 0x40 MLOAD PUSH32 0x8C379A000000000000000000000000000000000000000000000000000000000 DUP2 MSTORE PUSH1 0x4 ADD PUSH2 0x463 SWAP1 PUSH2 0xADF JUMP JUMPDEST PUSH1 0x40 MLOAD DUP1 SWAP2 SUB SWAP1 REVERT JUMPDEST PUSH0 PUSH1 0x2 PUSH0 DUP6 DUP2 MSTORE PUSH1 0x20 ADD SWAP1 DUP2 MSTORE PUSH1 0x20 ADD PUSH0 KECCAK256 SLOAD EQ PUSH2 0x4BF JUMPI PUSH1 0x40 MLOAD PUSH32 0x8C379A000000000000000000000000000000000000000000000000000000000 DUP2 MSTORE PUSH1 0x4 ADD PUSH2 0x4B6 SWAP1 PUSH2 0xB47 JUMP JUMPDEST PUSH1 0x40 MLOAD DUP1 SWAP2 SUB SWAP1 REVERT JUMPDEST DUP2 PUSH1 0x1 PUSH0 CALLER PUSH20 0xFFFFFFFFFFFFFFFFFFFFFFFFFFFFFFFFFFFFFFFF AND PUSH20 0xFFFFFFFFFFFFFFFFFFFFFFFFFFFFFFFFFFFFFFFF AND DUP2 MSTORE PUSH1 0x20 ADD SWAP1 DUP2 MSTORE PUSH1 0x20 ADD PUSH0 KECCAK256 PUSH0 DUP3 DUP3 SLOAD PUSH2 0x50B SWAP2 SWAP1 PUSH2 0xB65 JUMP JUMPDEST SWAP3 POP POP DUP2 SWAP1 SSTORE POP DUP2 PUSH1 0x2 PUSH0 DUP6 DUP2 MSTORE PUSH1 0x20 ADD SWAP1 DUP2 MSTORE PUSH1 0x20 ADD PUSH0 KECCAK256 DUP2 SWAP1 SSTORE POP DUP3 PUSH32 0xFAF7D24ECA5C2ED2E63E0E70578DB4EBDA8019CFF8040E61689979AF8CD739B1 DUP4 PUSH1 0x40 MLOAD PUSH2 0x558 SWAP2 SWAP1 PUSH2 0x829 JUMP JUMPDEST PUSH1 0x40 MLOAD DUP1 SWAP2 SUB SWAP1 LOG2 POP POP POP JUMP JUMPDEST PUSH0 PUSH1 0x2 PUSH0 DUP4 DUP2 MSTORE PUSH1 0x20 ADD SWAP1 DUP2 MSTORE PUSH1 0x20 ADD PUSH0 KECCAK256 SLOAD SWAP1 POP SWAP2 SWAP1 POP JUMP JUMPDEST PUSH1 0x3 SLOAD DUP2 JUMP JUMPDEST DUP3 PUSH1 0x2 PUSH0 DUP3 DUP2 MSTORE PUSH1 0x20 ADD SWAP1 DUP2 MSTORE PUSH1 0x20 ADD PUSH0 KECCAK256 SLOAD PUSH1 0x1 PUSH0 CALLER PUSH20 0xFFFFFFFFFFFFFFFFFFFFFFFFFFFFFFFFFFFFFFFF AND PUSH20 0xFFFFFFFFFFFFFFFFFFFFFFFFFFFFFFFFFFFFFFFF AND DUP2 MSTORE PUSH1 0x20 ADD SWAP1 DUP2 MSTORE PUSH1 0x20 ADD PUSH0 KECCAK256 SLOAD LT ISZERO PUSH2 0x617 JUMPI PUSH1 0x40 MLOAD PUSH32 0x8C379A000000000000000000000000000000000000000000000000000000000 DUP2 MSTORE PUSH1 0x4 ADD PUSH2 0x60E SWAP1 PUSH2 0xA77 JUMP JUMPDEST PUSH1 0x40 MLOAD DUP1 SWAP2 SUB SWAP1 REVERT JUMPDEST DUP2 PUSH1 0x2 PUSH0 DUP7 DUP2 MSTORE PUSH1 0x20 ADD SWAP1 DUP2 MSTORE PUSH1 0x20 ADD PUSH0 KECCAK256 SLOAD LT ISZERO PUSH2 0x66B JUMPI PUSH1 0x40 MLOAD PUSH32 0x8C379A000000000000000000000000000000000000000000000000000000000 DUP2 MSTORE PUSH1 0x4 ADD PUSH2 0x662 SWAP1 PUSH2 0xBE2 JUMP JUMPDEST PUSH1 0x40 MLOAD DUP1 SWAP2 SUB SWAP1 REVERT JUMPDEST PUSH0 PUSH1 0x2 PUSH0 DUP6 DUP2 MSTORE PUSH1 0x20 ADD SWAP1 DUP2 MSTORE PUSH1 0x20 ADD PUSH0 KECCAK256 SLOAD EQ PUSH2 0x6BE JUMPI PUSH1 0x40 MLOAD PUSH32 0x8C379A000000000000000000000000000000000000000000000000000000000 DUP2 MSTORE PUSH1 0x4 ADD PUSH2 0x6B5 SWAP1 PUSH2 0xC4A JUMP JUMPDEST PUSH1 0x40 MLOAD DUP1 SWAP2 SUB SWAP1 REVERT JUMPDEST DUP2 PUSH1 0x2 PUSH0 DUP7 DUP2 MSTORE PUSH1 0x20 ADD SWAP1 DUP2 MSTORE PUSH1 0x20 ADD PUSH0 KECCAK256 PUSH0 DUP3 DUP3 SLOAD PUSH2 0x6DE SWAP2 SWAP1 PUSH2 0xB65 JUMP JUMPDEST SWAP3 POP POP DUP2 SWAP1 SSTORE POP DUP2 PUSH1 0x2 PUSH0 DUP6 DUP2 MSTORE PUSH1 0x20 ADD SWAP1 DUP2 MSTORE PUSH1 0x20 ADD PUSH0 KECCAK256 DUP2 SWAP1 SSTORE POP DUP3 DUP5 PUSH32 0x9A26CFE9143AF653ECB2415E29F0888DE1A4A6A8711824C24E166E081E43BBEC DUP5 PUSH1 0x40 MLOAD PUSH2 0x72C SWAP2 SWAP1 PUSH2 0x829 JUMP JUMPDEST PUSH1 0x40 MLOAD DUP1 SWAP2 SUB SWAP1 LOG3 POP POP POP POP JUMP JUMPDEST PUSH0 PUSH1 0x1 PUSH0 DUP4 PUSH20 0xFFFFFFFFFFFFFFFFFFFFFFFFFFFFFFFFFFFFFFFF AND PUSH20 0xFFFFFFFFFFFFFFFFFFFFFFFFFFFFFFFFFFFFFFFF AND DUP2 MSTORE PUSH1 0x20 ADD SWAP1 DUP2 MSTORE PUSH1 0x20 ADD PUSH0 KECCAK256 SLOAD SWAP1 POP SWAP2 SWAP1 POP JUMP JUMPDEST PUSH7 0x2386F26FC10000 DUP2 JUMP JUMPDEST PUSH1 0x1 PUSH1 0x20 MSTORE DUP1 PUSH0 MSTORE PUSH1 0x40 PUSH0 KECCAK256 PUSH0 SWAP2 POP SWAP1 POP SLOAD DUP2 JUMP JUMPDEST PUSH0 DUP1 DUP4 GT DUP1 ISZERO PUSH2 0x7B0 JUMPI POP DUP2 DUP4 GT ISZERO JUMPDEST SWAP1 POP SWAP3 SWAP2 POP POP JUMP JUMPDEST PUSH0 DUP1 REVERT JUMPDEST PUSH0 DUP2 SWAP1 POP SWAP2 SWAP1 POP JUMP JUMPDEST PUSH2 0x7CE DUP2 PUSH2 0x7BC JUMP JUMPDEST DUP2 EQ PUSH2 0x7D8 JUMPI PUSH0 DUP1 REVERT JUMPDEST POP JUMP JUMPDEST PUSH0 DUP2 CALLDATALOAD SWAP1 POP PUSH2 0x7E9 DUP2 PUSH2 0x7C5 JUMP JUMPDEST SWAP3 SWAP2 POP POP JUMP JUMPDEST PUSH0 PUSH1 0x20 DUP3 DUP5 SUB SLT ISZERO PUSH2 0x804 JUMPI PUSH2 0x803 PUSH2 0x7B8 JUMP JUMPDEST JUMPDEST PUSH0 PUSH2 0x811 DUP5 DUP3 DUP6 ADD PUSH2 0x7DB JUMP JUMPDEST SWAP2 POP POP SWAP3 SWAP2 POP POP JUMP JUMPDEST PUSH2 0x823 DUP2 PUSH2 0x7BC JUMP JUMPDEST DUP3 MSTORE POP POP JUMP JUMPDEST PUSH0 PUSH1 0x20 DUP3 ADD SWAP1 POP PUSH2 0x83C PUSH0 DUP4 ADD DUP5 PUSH2 0x81A JUMP JUMPDEST SWAP3 SWAP2 POP POP JUMP JUMPDEST PUSH0 DUP1 PUSH1 0x40 DUP4 DUP6 SUB SLT ISZERO PUSH2 0x858 JUMPI PUSH2 0x857 PUSH2 0x7B8 JUMP JUMPDEST JUMPDEST PUSH0 PUSH2 0x865 DUP6 DUP3 DUP7 ADD PUSH2 0x7DB JUMP JUMPDEST SWAP3 POP POP PUSH1 0x20 PUSH2 0x876 DUP6 DUP3 DUP7 ADD PUSH2 0x7DB JUMP JUMPDEST SWAP2 POP POP SWAP3 POP SWAP3 SWAP1 POP JUMP JUMPDEST PUSH0 DUP1 PUSH0 PUSH1 0x60 DUP5 DUP7 SUB SLT ISZERO PUSH2 0x897 JUMPI PUSH2 0x896 PUSH2 0x7B8 JUMP JUMPDEST JUMPDEST PUSH0 PUSH2 0x8A4 DUP7 DUP3 DUP8 ADD PUSH2 0x7DB JUMP JUMPDEST SWAP4 POP POP PUSH1 0x20 PUSH2 0x8B5 DUP7 DUP3 DUP8 ADD PUSH2 0x7DB JUMP JUMPDEST SWAP3 POP POP PUSH1 0x40 PUSH2 0x8C6 DUP7 DUP3 DUP8 ADD PUSH2 0x7DB JUMP JUMPDEST SWAP2 POP POP SWAP3 POP SWAP3 POP SWAP3 JUMP JUMPDEST PUSH0 PUSH20 0xFFFFFFFFFFFFFFFFFFFFFFFFFFFFFFFFFFFFFFFF DUP3 AND SWAP1 POP SWAP2 SWAP1 POP JUMP JUMPDEST PUSH0 PUSH2 0x8F9 DUP3 PUSH2 0x8D0 JUMP JUMPDEST SWAP1 POP SWAP2 SWAP1 POP JUMP JUMPDEST PUSH2 0x909 DUP2 PUSH2 0x8EF JUMP JUMPDEST DUP2 EQ PUSH2 0x913 JUMPI PUSH0 DUP1 REVERT JUMPDEST POP JUMP JUMPDEST PUSH0 DUP2 CALLDATALOAD SWAP1 POP PUSH2 0x924 DUP2 PUSH2 0x900 JUMP JUMPDEST SWAP3 SWAP2 POP POP JUMP JUMPDEST PUSH0 PUSH1 0x20 DUP3 DUP5 SUB SLT ISZERO PUSH2 0x93F JUMPI PUSH2 0x93E PUSH2 0x7B8 JUMP JUMPDEST JUMPDEST PUSH0 PUSH2 0x94C DUP5 DUP3 DUP6 ADD PUSH2 0x916 JUMP JUMPDEST SWAP2 POP POP SWAP3 SWAP2 POP POP JUMP JUMPDEST PUSH0 DUP3 DUP3 MSTORE PUSH1 0x20 DUP3 ADD SWAP1 POP SWAP3 SWAP2 POP POP JUMP JUMPDEST PUSH32 0x4465706F73697420746F6F20736D616C6C000000000000000000000000000000 PUSH0 DUP3 ADD MSTORE POP JUMP JUMPDEST PUSH0 PUSH2 0x999 PUSH1 0x11 DUP4 PUSH2 0x955 JUMP JUMPDEST SWAP2 POP PUSH2 0x9A4 DUP3 PUSH2 0x965 JUMP JUMPDEST PUSH1 0x20 DUP3 ADD SWAP1 POP SWAP2 SWAP1 POP JUMP JUMPDEST PUSH0 PUSH1 0x20 DUP3 ADD SWAP1 POP DUP2 DUP2 SUB PUSH0 DUP4 ADD MSTORE PUSH2 0x9C6 DUP2 PUSH2 0x98D JUMP JUMPDEST SWAP1 POP SWAP2 SWAP1 POP JUMP JUMPDEST PUSH32 0x4E487B7100000000000000000000000000000000000000000000000000000000 PUSH0 MSTORE PUSH1 0x11 PUSH1 0x4 MSTORE PUSH1 0x24 PUSH0 REVERT JUMPDEST PUSH0 PUSH2 0xA04 DUP3 PUSH2 0x7BC JUMP JUMPDEST SWAP2 POP PUSH2 0xA0F DUP4 PUSH2 0x7BC JUMP JUMPDEST SWAP3 POP DUP3 DUP3 ADD SWAP1 POP DUP1 DUP3 GT ISZERO PUSH2 0xA27 JUMPI PUSH2 0xA26 PUSH2 0x9CD JUMP JUMPDEST JUMPDEST SWAP3 SWAP2 POP POP JUMP JUMPDEST PUSH32 0x4E6F7420656E6F7567682066756E647300000000000000000000000000000000 PUSH0 DUP3 ADD MSTORE POP JUMP JUMPDEST PUSH0 PUSH2 0xA61 PUSH1 0x10 DUP4 PUSH2 0x955 JUMP JUMPDEST SWAP2 POP PUSH2 0xA6C DUP3 PUSH2 0xA2D JUMP JUMPDEST PUSH1 0x20 DUP3 ADD SWAP1 POP SWAP2 SWAP1 POP JUMP JUMPDEST PUSH0 PUSH1 0x20 DUP3 ADD SWAP1 POP DUP2 DUP2 SUB PUSH0 DUP4 ADD MSTORE PUSH2 0xA8E DUP2 PUSH2 0xA55 JUMP JUMPDEST SWAP1 POP SWAP2 SWAP1 POP JUMP JUMPDEST PUSH32 0x496E76616C696420616D6F756E74000000000000000000000000000000000000 PUSH0 DUP3 ADD MSTORE POP JUMP JUMPDEST PUSH0 PUSH2 0xAC9 PUSH1 0xE DUP4 PUSH2 0x955 JUMP JUMPDEST SWAP2 POP PUSH2 0xAD4 DUP3 PUSH2 0xA95 JUMP JUMPDEST PUSH1 0x20 DUP3 ADD SWAP1 POP SWAP2 SWAP1 POP JUMP JUMPDEST PUSH0 PUSH1 0x20 DUP3 ADD SWAP1 POP DUP2 DUP2 SUB PUSH0 DUP4 ADD MSTORE PUSH2 0xAF6 DUP2 PUSH2 0xABD JUMP JUMPDEST SWAP1 POP SWAP2 SWAP1 POP JUMP JUMPDEST PUSH32 0x426F756E747920616C726561647920616C6C6F63617465640000000000000000 PUSH0 DUP3 ADD MSTORE POP JUMP JUMPDEST PUSH0 PUSH2 0xB31 PUSH1 0x18 DUP4 PUSH2 0x955 JUMP JUMPDEST SWAP2 POP PUSH2 0xB3C DUP3 PUSH2 0xAFD JUMP JUMPDEST PUSH1 0x20 DUP3 ADD SWAP1 POP SWAP2 SWAP1 POP JUMP JUMPDEST PUSH0 PUSH1 0x20 DUP3 ADD SWAP1 POP DUP2 DUP2 SUB PUSH0 DUP4 ADD MSTORE PUSH2 0xB5E DUP2 PUSH2 0xB25 JUMP JUMPDEST SWAP1 POP SWAP2 SWAP1 POP JUMP JUMPDEST PUSH0 PUSH2 0xB6F DUP3 PUSH2 0x7BC JUMP JUMPDEST SWAP2 POP PUSH2 0xB7A DUP4 PUSH2 0x7BC JUMP JUMPDEST SWAP3 POP DUP3 DUP3 SUB SWAP1 POP DUP2 DUP2 GT ISZERO PUSH2 0xB92 JUMPI PUSH2 0xB91 PUSH2 0x9CD JUMP JUMPDEST JUMPDEST SWAP3 SWAP2 POP POP JUMP JUMPDEST PUSH32 0x496E73756666696369656E7420626F756E747920616D6F756E74000000000000 PUSH0 DUP3 ADD MSTORE POP JUMP JUMPDEST PUSH0 PUSH2 0xBCC PUSH1 0x1A DUP4 PUSH2 0x955 JUMP JUMPDEST SWAP2 POP PUSH2 0xBD7 DUP3 PUSH2 0xB98 JUMP JUMPDEST PUSH1 0x20 DUP3 ADD SWAP1 POP SWAP2 SWAP1 POP JUMP JUMPDEST PUSH0 PUSH1 0x20 DUP3 ADD SWAP1 POP DUP2 DUP2 SUB PUSH0 DUP4 ADD MSTORE PUSH2 0xBF9 DUP2 PUSH2 0xBC0 JUMP JUMPDEST SWAP1 POP SWAP2 SWAP1 POP JUMP JUMPDEST PUSH32 0x54617267657420697373756520616C72656164792068617320626F756E747900 PUSH0 DUP3 ADD MSTORE POP JUMP JUMPDEST PUSH0 PUSH2 0xC34 PUSH1 0x1F DUP4 PUSH2 0x955 JUMP JUMPDEST SWAP2 POP PUSH2 0xC3F DUP3 PUSH2 0xC00 JUMP JUMPDEST PUSH1 0x20 DUP3 ADD SWAP1 POP SWAP2 SWAP1 POP JUMP JUMPDEST PUSH0 PUSH1 0x20 DUP3 ADD SWAP1 POP DUP2 DUP2 SUB PUSH0 DUP4 ADD MSTORE PUSH2 0xC61 DUP2 PUSH2 0xC28 JUMP JUMPDEST SWAP1 POP SWAP2 SWAP1 POP JUMP INVALID LOG2 PUSH5 0x6970667358 0x22 SLT KECCAK256 DUP4 0xA5 COINBASE SWAP5 CODESIZE MUL 0xE5 SSTORE JUMPDEST 0xD6 0xB7 0x2F 0x4E 0xF 0xE3 MSTORE PUSH15 0x225A3D19A06328EF714B12D961C5BC PUSH5 0x736F6C6343 STOP ADDMOD BYTE STOP CALLER "
				},
				"gasEstimates": {
					"creation": {
						"codeDepositCost": "646000",
						"executionCost": "674",
						"totalCost": "646674"
					},
					"external": {
						"MIN_DEPOSIT()": "369",
						"allocateBounty(uint256,uint256)": "infinite",
						"depositFunds()": "infinite",
						"funderBalances(address)": "2890",
						"getFunderBalance(address)": "2851",
						"getIssueBounty(uint256)": "infinite",
						"issueBounties(uint256)": "infinite",
						"reallocateFunds(uint256,uint256,uint256)": "infinite",
						"totalFunds()": "2492"
					}
				},
				"methodIdentifiers": {
					"MIN_DEPOSIT()": "e1e158a5",
					"allocateBounty(uint256,uint256)": "21df103a",
					"depositFunds()": "e2c41dbc",
					"funderBalances(address)": "fee69cb9",
					"getFunderBalance(address)": "b8b3d85b",
					"getIssueBounty(uint256)": "454fa1b1",
					"issueBounties(uint256)": "03ce2186",
					"reallocateFunds(uint256,uint256,uint256)": "b6f5cad2",
					"totalFunds()": "968ed600"
				}
			},
			"storageLayout": {
				"storage": [
					{
						"astId": 12,
						"contract": "prog2005-2025/lab02/gitlab-fund/contracts/FundManager.sol:FundManager",
						"label": "_reentrancyContext",
						"offset": 0,
						"slot": "0",
						"type": "t_struct(NonReentrantContext)290_storage"
					},
					{
						"astId": 16,
						"contract": "prog2005-2025/lab02/gitlab-fund/contracts/FundManager.sol:FundManager",
						"label": "funderBalances",
						"offset": 0,
						"slot": "1",
						"type": "t_mapping(t_address,t_uint256)"
					},
					{
						"astId": 20,
						"contract": "prog2005-2025/lab02/gitlab-fund/contracts/FundManager.sol:FundManager",
						"label": "issueBounties",
						"offset": 0,
						"slot": "2",
						"type": "t_mapping(t_uint256,t_uint256)"
					},
					{
						"astId": 22,
						"contract": "prog2005-2025/lab02/gitlab-fund/contracts/FundManager.sol:FundManager",
						"label": "totalFunds",
						"offset": 0,
						"slot": "3",
						"type": "t_uint256"
					}
				],
				"types": {
					"t_address": {
						"encoding": "inplace",
						"label": "address",
						"numberOfBytes": "20"
					},
					"t_bytes32": {
						"encoding": "inplace",
						"label": "bytes32",
						"numberOfBytes": "32"
					},
					"t_mapping(t_address,t_uint256)": {
						"encoding": "mapping",
						"key": "t_address",
						"label": "mapping(address => uint256)",
						"numberOfBytes": "32",
						"value": "t_uint256"
					},
					"t_mapping(t_uint256,t_uint256)": {
						"encoding": "mapping",
						"key": "t_uint256",
						"label": "mapping(uint256 => uint256)",
						"numberOfBytes": "32",
						"value": "t_uint256"
					},
					"t_struct(NonReentrantContext)290_storage": {
						"encoding": "inplace",
						"label": "struct SecurityUtils.NonReentrantContext",
						"members": [
							{
								"astId": 289,
								"contract": "prog2005-2025/lab02/gitlab-fund/contracts/FundManager.sol:FundManager",
								"label": "_reentrancyGuardStatus",
								"offset": 0,
								"slot": "0",
								"type": "t_bytes32"
							}
						],
						"numberOfBytes": "32"
					},
					"t_uint256": {
						"encoding": "inplace",
						"label": "uint256",
						"numberOfBytes": "32"
					}
				}
			},
			"userdoc": {
				"kind": "user",
				"methods": {},
				"version": 1
			}
		}
	}
}