{
	"prog2005-2025/lab02/gitlab-fund/contracts/DeveloperPayouts.sol": {
		"DeveloperPayouts": {
			"abi": [
				{
					"inputs": [
						{
							"internalType": "address",
							"name": "_fundManagerAddr",
							"type": "address"
						},
						{
							"internalType": "address",
							"name": "_validatorMultiSig",
							"type": "address"
						}
					],
					"stateMutability": "nonpayable",
					"type": "constructor"
				},
				{
					"anonymous": false,
					"inputs": [
						{
							"indexed": true,
							"internalType": "uint256",
							"name": "issueId",
							"type": "uint256"
						},
						{
							"indexed": true,
							"internalType": "address",
							"name": "developer",
							"type": "address"
						}
					],
					"name": "BountyClaimed",
					"type": "event"
				},
				{
					"anonymous": false,
					"inputs": [
						{
							"indexed": true,
							"internalType": "uint256",
							"name": "issueId",
							"type": "uint256"
						},
						{
							"indexed": true,
							"internalType": "address",
							"name": "developer",
							"type": "address"
						}
					],
					"name": "ClaimCancelled",
					"type": "event"
				},
				{
					"anonymous": false,
					"inputs": [
						{
							"indexed": true,
							"internalType": "uint256",
							"name": "issueId",
							"type": "uint256"
						},
						{
							"indexed": true,
							"internalType": "address",
							"name": "developer",
							"type": "address"
						},
						{
							"indexed": false,
							"internalType": "uint256",
							"name": "amount",
							"type": "uint256"
						}
					],
					"name": "PayoutProcessed",
					"type": "event"
				},
				{
					"inputs": [],
					"name": "CLAIM_TIMEOUT",
					"outputs": [
						{
							"internalType": "uint256",
							"name": "",
							"type": "uint256"
						}
					],
					"stateMutability": "view",
					"type": "function"
				},
				{
					"inputs": [
						{
							"internalType": "uint256",
							"name": "issueId",
							"type": "uint256"
						}
					],
					"name": "cancelClaim",
					"outputs": [],
					"stateMutability": "nonpayable",
					"type": "function"
				},
				{
					"inputs": [
						{
							"internalType": "uint256",
							"name": "issueId",
							"type": "uint256"
						}
					],
					"name": "claimBounty",
					"outputs": [],
					"stateMutability": "nonpayable",
					"type": "function"
				},
				{
					"inputs": [
						{
							"internalType": "uint256",
							"name": "",
							"type": "uint256"
						}
					],
					"name": "claims",
					"outputs": [
						{
							"internalType": "address",
							"name": "developer",
							"type": "address"
						},
						{
							"internalType": "uint256",
							"name": "amount",
							"type": "uint256"
						},
						{
							"internalType": "bool",
							"name": "claimed",
							"type": "bool"
						},
						{
							"internalType": "bool",
							"name": "paid",
							"type": "bool"
						},
						{
							"internalType": "uint256",
							"name": "timestamp",
							"type": "uint256"
						}
					],
					"stateMutability": "view",
					"type": "function"
				},
				{
					"inputs": [],
					"name": "fundManager",
					"outputs": [
						{
							"internalType": "address",
							"name": "",
							"type": "address"
						}
					],
					"stateMutability": "view",
					"type": "function"
				},
				{
					"inputs": [
						{
							"internalType": "uint256",
							"name": "issueId",
							"type": "uint256"
						}
					],
					"name": "getClaimStatus",
					"outputs": [
						{
							"internalType": "bool",
							"name": "claimed",
							"type": "bool"
						},
						{
							"internalType": "address",
							"name": "developer",
							"type": "address"
						},
						{
							"internalType": "uint256",
							"name": "amount",
							"type": "uint256"
						}
					],
					"stateMutability": "view",
					"type": "function"
				},
				{
					"inputs": [],
					"name": "owner",
					"outputs": [
						{
							"internalType": "address",
							"name": "",
							"type": "address"
						}
					],
					"stateMutability": "view",
					"type": "function"
				},
				{
					"inputs": [
						{
							"internalType": "uint256",
							"name": "issueId",
							"type": "uint256"
						}
					],
					"name": "processPayout",
					"outputs": [],
					"stateMutability": "nonpayable",
					"type": "function"
				},
				{
					"inputs": [
						{
							"internalType": "address",
							"name": "_newValidator",
							"type": "address"
						}
					],
					"name": "updateValidator",
					"outputs": [],
					"stateMutability": "nonpayable",
					"type": "function"
				},
				{
					"inputs": [],
					"name": "validatorMultiSig",
					"outputs": [
						{
							"internalType": "contract IValidatorMultiSig",
							"name": "",
							"type": "address"
						}
					],
					"stateMutability": "view",
					"type": "function"
				},
				{
					"stateMutability": "payable",
					"type": "receive"
				}
			],
			"devdoc": {
				"kind": "dev",
				"methods": {},
				"version": 1
			},
			"evm": {
				"assembly": "    /* \"prog2005-2025/lab02/gitlab-fund/contracts/DeveloperPayouts.sol\":230:3888  contract DeveloperPayouts is IDeveloperPayouts {... */\n  mstore(0x40, 0xa0)\n    /* \"prog2005-2025/lab02/gitlab-fund/contracts/DeveloperPayouts.sol\":924:1309  constructor(address _fundManagerAddr, address _validatorMultiSig) {... */\n  callvalue\n  dup1\n  iszero\n  tag_1\n  jumpi\n  0x00\n  dup1\n  revert\ntag_1:\n  pop\n  mload(0x40)\n  sub(codesize, bytecodeSize)\n  dup1\n  bytecodeSize\n  dup4\n  codecopy\n  dup2\n  dup2\n  add\n  0x40\n  mstore\n  dup2\n  add\n  swap1\n  tag_2\n  swap2\n  swap1\n  tag_3\n  jump\t// in\ntag_2:\n    /* \"prog2005-2025/lab02/gitlab-fund/contracts/DeveloperPayouts.sol\":1036:1037  0 */\n  0x00\n    /* \"prog2005-2025/lab02/gitlab-fund/contracts/DeveloperPayouts.sol\":1008:1038  _fundManagerAddr != address(0) */\n  0xffffffffffffffffffffffffffffffffffffffff\n  and\n    /* \"prog2005-2025/lab02/gitlab-fund/contracts/DeveloperPayouts.sol\":1008:1024  _fundManagerAddr */\n  dup3\n    /* \"prog2005-2025/lab02/gitlab-fund/contracts/DeveloperPayouts.sol\":1008:1038  _fundManagerAddr != address(0) */\n  0xffffffffffffffffffffffffffffffffffffffff\n  and\n  sub\n    /* \"prog2005-2025/lab02/gitlab-fund/contracts/DeveloperPayouts.sol\":1000:1071  require(_fundManagerAddr != address(0), \"Invalid fund manager address\") */\n  tag_6\n  jumpi\n  mload(0x40)\n  0x08c379a000000000000000000000000000000000000000000000000000000000\n  dup2\n  mstore\n  0x04\n  add\n  tag_7\n  swap1\n  tag_8\n  jump\t// in\ntag_7:\n  mload(0x40)\n  dup1\n  swap2\n  sub\n  swap1\n  revert\ntag_6:\n    /* \"prog2005-2025/lab02/gitlab-fund/contracts/DeveloperPayouts.sol\":1119:1120  0 */\n  0x00\n    /* \"prog2005-2025/lab02/gitlab-fund/contracts/DeveloperPayouts.sol\":1089:1121  _validatorMultiSig != address(0) */\n  0xffffffffffffffffffffffffffffffffffffffff\n  and\n    /* \"prog2005-2025/lab02/gitlab-fund/contracts/DeveloperPayouts.sol\":1089:1107  _validatorMultiSig */\n  dup2\n    /* \"prog2005-2025/lab02/gitlab-fund/contracts/DeveloperPayouts.sol\":1089:1121  _validatorMultiSig != address(0) */\n  0xffffffffffffffffffffffffffffffffffffffff\n  and\n  sub\n    /* \"prog2005-2025/lab02/gitlab-fund/contracts/DeveloperPayouts.sol\":1081:1151  require(_validatorMultiSig != address(0), \"Invalid validator address\") */\n  tag_9\n  jumpi\n  mload(0x40)\n  0x08c379a000000000000000000000000000000000000000000000000000000000\n  dup2\n  mstore\n  0x04\n  add\n  tag_10\n  swap1\n  tag_11\n  jump\t// in\ntag_10:\n  mload(0x40)\n  dup1\n  swap2\n  sub\n  swap1\n  revert\ntag_9:\n    /* \"prog2005-2025/lab02/gitlab-fund/contracts/DeveloperPayouts.sol\":1189:1205  _fundManagerAddr */\n  dup2\n    /* \"prog2005-2025/lab02/gitlab-fund/contracts/DeveloperPayouts.sol\":1161:1206  _fundManager = IFundManager(_fundManagerAddr) */\n  0xffffffffffffffffffffffffffffffffffffffff\n  and\n  0x80\n  dup2\n  0xffffffffffffffffffffffffffffffffffffffff\n  and\n  dup2\n  mstore\n  pop\n  pop\n    /* \"prog2005-2025/lab02/gitlab-fund/contracts/DeveloperPayouts.sol\":1255:1273  _validatorMultiSig */\n  dup1\n    /* \"prog2005-2025/lab02/gitlab-fund/contracts/DeveloperPayouts.sol\":1216:1233  validatorMultiSig */\n  0x01\n  0x00\n    /* \"prog2005-2025/lab02/gitlab-fund/contracts/DeveloperPayouts.sol\":1216:1274  validatorMultiSig = IValidatorMultiSig(_validatorMultiSig) */\n  0x0100\n  exp\n  dup2\n  sload\n  dup2\n  0xffffffffffffffffffffffffffffffffffffffff\n  mul\n  not\n  and\n  swap1\n  dup4\n  0xffffffffffffffffffffffffffffffffffffffff\n  and\n  mul\n  or\n  swap1\n  sstore\n  pop\n    /* \"prog2005-2025/lab02/gitlab-fund/contracts/DeveloperPayouts.sol\":1292:1302  msg.sender */\n  caller\n    /* \"prog2005-2025/lab02/gitlab-fund/contracts/DeveloperPayouts.sol\":1284:1289  owner */\n  0x02\n  0x00\n    /* \"prog2005-2025/lab02/gitlab-fund/contracts/DeveloperPayouts.sol\":1284:1302  owner = msg.sender */\n  0x0100\n  exp\n  dup2\n  sload\n  dup2\n  0xffffffffffffffffffffffffffffffffffffffff\n  mul\n  not\n  and\n  swap1\n  dup4\n  0xffffffffffffffffffffffffffffffffffffffff\n  and\n  mul\n  or\n  swap1\n  sstore\n  pop\n    /* \"prog2005-2025/lab02/gitlab-fund/contracts/DeveloperPayouts.sol\":924:1309  constructor(address _fundManagerAddr, address _validatorMultiSig) {... */\n  pop\n  pop\n    /* \"prog2005-2025/lab02/gitlab-fund/contracts/DeveloperPayouts.sol\":230:3888  contract DeveloperPayouts is IDeveloperPayouts {... */\n  jump(tag_12)\n    /* \"#utility.yul\":88:205   */\ntag_14:\n    /* \"#utility.yul\":197:198   */\n  0x00\n    /* \"#utility.yul\":194:195   */\n  dup1\n    /* \"#utility.yul\":187:199   */\n  revert\n    /* \"#utility.yul\":334:460   */\ntag_16:\n    /* \"#utility.yul\":371:378   */\n  0x00\n    /* \"#utility.yul\":411:453   */\n  0xffffffffffffffffffffffffffffffffffffffff\n    /* \"#utility.yul\":404:409   */\n  dup3\n    /* \"#utility.yul\":400:454   */\n  and\n    /* \"#utility.yul\":389:454   */\n  swap1\n  pop\n    /* \"#utility.yul\":334:460   */\n  swap2\n  swap1\n  pop\n  jump\t// out\n    /* \"#utility.yul\":466:562   */\ntag_17:\n    /* \"#utility.yul\":503:510   */\n  0x00\n    /* \"#utility.yul\":532:556   */\n  tag_31\n    /* \"#utility.yul\":550:555   */\n  dup3\n    /* \"#utility.yul\":532:556   */\n  tag_16\n  jump\t// in\ntag_31:\n    /* \"#utility.yul\":521:556   */\n  swap1\n  pop\n    /* \"#utility.yul\":466:562   */\n  swap2\n  swap1\n  pop\n  jump\t// out\n    /* \"#utility.yul\":568:690   */\ntag_18:\n    /* \"#utility.yul\":641:665   */\n  tag_33\n    /* \"#utility.yul\":659:664   */\n  dup2\n    /* \"#utility.yul\":641:665   */\n  tag_17\n  jump\t// in\ntag_33:\n    /* \"#utility.yul\":634:639   */\n  dup2\n    /* \"#utility.yul\":631:666   */\n  eq\n    /* \"#utility.yul\":621:684   */\n  tag_34\n  jumpi\n    /* \"#utility.yul\":680:681   */\n  0x00\n    /* \"#utility.yul\":677:678   */\n  dup1\n    /* \"#utility.yul\":670:682   */\n  revert\n    /* \"#utility.yul\":621:684   */\ntag_34:\n    /* \"#utility.yul\":568:690   */\n  pop\n  jump\t// out\n    /* \"#utility.yul\":696:839   */\ntag_19:\n    /* \"#utility.yul\":753:758   */\n  0x00\n    /* \"#utility.yul\":784:790   */\n  dup2\n    /* \"#utility.yul\":778:791   */\n  mload\n    /* \"#utility.yul\":769:791   */\n  swap1\n  pop\n    /* \"#utility.yul\":800:833   */\n  tag_36\n    /* \"#utility.yul\":827:832   */\n  dup2\n    /* \"#utility.yul\":800:833   */\n  tag_18\n  jump\t// in\ntag_36:\n    /* \"#utility.yul\":696:839   */\n  swap3\n  swap2\n  pop\n  pop\n  jump\t// out\n    /* \"#utility.yul\":845:1352   */\ntag_3:\n    /* \"#utility.yul\":924:930   */\n  0x00\n    /* \"#utility.yul\":932:938   */\n  dup1\n    /* \"#utility.yul\":981:983   */\n  0x40\n    /* \"#utility.yul\":969:978   */\n  dup4\n    /* \"#utility.yul\":960:967   */\n  dup6\n    /* \"#utility.yul\":956:979   */\n  sub\n    /* \"#utility.yul\":952:984   */\n  slt\n    /* \"#utility.yul\":949:1068   */\n  iszero\n  tag_38\n  jumpi\n    /* \"#utility.yul\":987:1066   */\n  tag_39\n  tag_14\n  jump\t// in\ntag_39:\n    /* \"#utility.yul\":949:1068   */\ntag_38:\n    /* \"#utility.yul\":1107:1108   */\n  0x00\n    /* \"#utility.yul\":1132:1196   */\n  tag_40\n    /* \"#utility.yul\":1188:1195   */\n  dup6\n    /* \"#utility.yul\":1179:1185   */\n  dup3\n    /* \"#utility.yul\":1168:1177   */\n  dup7\n    /* \"#utility.yul\":1164:1186   */\n  add\n    /* \"#utility.yul\":1132:1196   */\n  tag_19\n  jump\t// in\ntag_40:\n    /* \"#utility.yul\":1122:1196   */\n  swap3\n  pop\n    /* \"#utility.yul\":1078:1206   */\n  pop\n    /* \"#utility.yul\":1245:1247   */\n  0x20\n    /* \"#utility.yul\":1271:1335   */\n  tag_41\n    /* \"#utility.yul\":1327:1334   */\n  dup6\n    /* \"#utility.yul\":1318:1324   */\n  dup3\n    /* \"#utility.yul\":1307:1316   */\n  dup7\n    /* \"#utility.yul\":1303:1325   */\n  add\n    /* \"#utility.yul\":1271:1335   */\n  tag_19\n  jump\t// in\ntag_41:\n    /* \"#utility.yul\":1261:1335   */\n  swap2\n  pop\n    /* \"#utility.yul\":1216:1345   */\n  pop\n    /* \"#utility.yul\":845:1352   */\n  swap3\n  pop\n  swap3\n  swap1\n  pop\n  jump\t// out\n    /* \"#utility.yul\":1358:1527   */\ntag_20:\n    /* \"#utility.yul\":1442:1453   */\n  0x00\n    /* \"#utility.yul\":1476:1482   */\n  dup3\n    /* \"#utility.yul\":1471:1474   */\n  dup3\n    /* \"#utility.yul\":1464:1483   */\n  mstore\n    /* \"#utility.yul\":1516:1520   */\n  0x20\n    /* \"#utility.yul\":1511:1514   */\n  dup3\n    /* \"#utility.yul\":1507:1521   */\n  add\n    /* \"#utility.yul\":1492:1521   */\n  swap1\n  pop\n    /* \"#utility.yul\":1358:1527   */\n  swap3\n  swap2\n  pop\n  pop\n  jump\t// out\n    /* \"#utility.yul\":1533:1711   */\ntag_21:\n    /* \"#utility.yul\":1673:1703   */\n  0x496e76616c69642066756e64206d616e61676572206164647265737300000000\n    /* \"#utility.yul\":1669:1670   */\n  0x00\n    /* \"#utility.yul\":1661:1667   */\n  dup3\n    /* \"#utility.yul\":1657:1671   */\n  add\n    /* \"#utility.yul\":1650:1704   */\n  mstore\n    /* \"#utility.yul\":1533:1711   */\n  pop\n  jump\t// out\n    /* \"#utility.yul\":1717:2083   */\ntag_22:\n    /* \"#utility.yul\":1859:1862   */\n  0x00\n    /* \"#utility.yul\":1880:1947   */\n  tag_45\n    /* \"#utility.yul\":1944:1946   */\n  0x1c\n    /* \"#utility.yul\":1939:1942   */\n  dup4\n    /* \"#utility.yul\":1880:1947   */\n  tag_20\n  jump\t// in\ntag_45:\n    /* \"#utility.yul\":1873:1947   */\n  swap2\n  pop\n    /* \"#utility.yul\":1956:2049   */\n  tag_46\n    /* \"#utility.yul\":2045:2048   */\n  dup3\n    /* \"#utility.yul\":1956:2049   */\n  tag_21\n  jump\t// in\ntag_46:\n    /* \"#utility.yul\":2074:2076   */\n  0x20\n    /* \"#utility.yul\":2069:2072   */\n  dup3\n    /* \"#utility.yul\":2065:2077   */\n  add\n    /* \"#utility.yul\":2058:2077   */\n  swap1\n  pop\n    /* \"#utility.yul\":1717:2083   */\n  swap2\n  swap1\n  pop\n  jump\t// out\n    /* \"#utility.yul\":2089:2508   */\ntag_8:\n    /* \"#utility.yul\":2255:2259   */\n  0x00\n    /* \"#utility.yul\":2293:2295   */\n  0x20\n    /* \"#utility.yul\":2282:2291   */\n  dup3\n    /* \"#utility.yul\":2278:2296   */\n  add\n    /* \"#utility.yul\":2270:2296   */\n  swap1\n  pop\n    /* \"#utility.yul\":2342:2351   */\n  dup2\n    /* \"#utility.yul\":2336:2340   */\n  dup2\n    /* \"#utility.yul\":2332:2352   */\n  sub\n    /* \"#utility.yul\":2328:2329   */\n  0x00\n    /* \"#utility.yul\":2317:2326   */\n  dup4\n    /* \"#utility.yul\":2313:2330   */\n  add\n    /* \"#utility.yul\":2306:2353   */\n  mstore\n    /* \"#utility.yul\":2370:2501   */\n  tag_48\n    /* \"#utility.yul\":2496:2500   */\n  dup2\n    /* \"#utility.yul\":2370:2501   */\n  tag_22\n  jump\t// in\ntag_48:\n    /* \"#utility.yul\":2362:2501   */\n  swap1\n  pop\n    /* \"#utility.yul\":2089:2508   */\n  swap2\n  swap1\n  pop\n  jump\t// out\n    /* \"#utility.yul\":2514:2689   */\ntag_23:\n    /* \"#utility.yul\":2654:2681   */\n  0x496e76616c69642076616c696461746f72206164647265737300000000000000\n    /* \"#utility.yul\":2650:2651   */\n  0x00\n    /* \"#utility.yul\":2642:2648   */\n  dup3\n    /* \"#utility.yul\":2638:2652   */\n  add\n    /* \"#utility.yul\":2631:2682   */\n  mstore\n    /* \"#utility.yul\":2514:2689   */\n  pop\n  jump\t// out\n    /* \"#utility.yul\":2695:3061   */\ntag_24:\n    /* \"#utility.yul\":2837:2840   */\n  0x00\n    /* \"#utility.yul\":2858:2925   */\n  tag_51\n    /* \"#utility.yul\":2922:2924   */\n  0x19\n    /* \"#utility.yul\":2917:2920   */\n  dup4\n    /* \"#utility.yul\":2858:2925   */\n  tag_20\n  jump\t// in\ntag_51:\n    /* \"#utility.yul\":2851:2925   */\n  swap2\n  pop\n    /* \"#utility.yul\":2934:3027   */\n  tag_52\n    /* \"#utility.yul\":3023:3026   */\n  dup3\n    /* \"#utility.yul\":2934:3027   */\n  tag_23\n  jump\t// in\ntag_52:\n    /* \"#utility.yul\":3052:3054   */\n  0x20\n    /* \"#utility.yul\":3047:3050   */\n  dup3\n    /* \"#utility.yul\":3043:3055   */\n  add\n    /* \"#utility.yul\":3036:3055   */\n  swap1\n  pop\n    /* \"#utility.yul\":2695:3061   */\n  swap2\n  swap1\n  pop\n  jump\t// out\n    /* \"#utility.yul\":3067:3486   */\ntag_11:\n    /* \"#utility.yul\":3233:3237   */\n  0x00\n    /* \"#utility.yul\":3271:3273   */\n  0x20\n    /* \"#utility.yul\":3260:3269   */\n  dup3\n    /* \"#utility.yul\":3256:3274   */\n  add\n    /* \"#utility.yul\":3248:3274   */\n  swap1\n  pop\n    /* \"#utility.yul\":3320:3329   */\n  dup2\n    /* \"#utility.yul\":3314:3318   */\n  dup2\n    /* \"#utility.yul\":3310:3330   */\n  sub\n    /* \"#utility.yul\":3306:3307   */\n  0x00\n    /* \"#utility.yul\":3295:3304   */\n  dup4\n    /* \"#utility.yul\":3291:3308   */\n  add\n    /* \"#utility.yul\":3284:3331   */\n  mstore\n    /* \"#utility.yul\":3348:3479   */\n  tag_54\n    /* \"#utility.yul\":3474:3478   */\n  dup2\n    /* \"#utility.yul\":3348:3479   */\n  tag_24\n  jump\t// in\ntag_54:\n    /* \"#utility.yul\":3340:3479   */\n  swap1\n  pop\n    /* \"#utility.yul\":3067:3486   */\n  swap2\n  swap1\n  pop\n  jump\t// out\n    /* \"prog2005-2025/lab02/gitlab-fund/contracts/DeveloperPayouts.sol\":230:3888  contract DeveloperPayouts is IDeveloperPayouts {... */\ntag_12:\n  mload(0x80)\n  codecopy(0x00, dataOffset(sub_0), dataSize(sub_0))\n  0x00\n  assignImmutable(\"0x9560168699514dcd528543d614e81b4f36adf182dc624d2f1eb91df8addd987e\")\n  return(0x00, dataSize(sub_0))\nstop\n\nsub_0: assembly {\n        /* \"prog2005-2025/lab02/gitlab-fund/contracts/DeveloperPayouts.sol\":230:3888  contract DeveloperPayouts is IDeveloperPayouts {... */\n      mstore(0x40, 0x80)\n      jumpi(tag_1, lt(calldatasize, 0x04))\n      shr(0xe0, calldataload(0x00))\n      dup1\n      0x8da5cb5b\n      gt\n      tag_13\n      jumpi\n      dup1\n      0x8da5cb5b\n      eq\n      tag_8\n      jumpi\n      dup1\n      0x9dc5e02f\n      eq\n      tag_9\n      jumpi\n      dup1\n      0xa888c2cd\n      eq\n      tag_10\n      jumpi\n      dup1\n      0xf1e2de14\n      eq\n      tag_11\n      jumpi\n      dup1\n      0xf5f5dd41\n      eq\n      tag_12\n      jumpi\n      jump(tag_2)\n    tag_13:\n      dup1\n      0x36dbd2f9\n      eq\n      tag_3\n      jumpi\n      dup1\n      0x44021ad7\n      eq\n      tag_4\n      jumpi\n      dup1\n      0x6209ec2d\n      eq\n      tag_5\n      jumpi\n      dup1\n      0x635b2770\n      eq\n      tag_6\n      jumpi\n      dup1\n      0x89ee68bf\n      eq\n      tag_7\n      jumpi\n      jump(tag_2)\n    tag_1:\n      jumpi(tag_2, calldatasize)\n      stop\n    tag_2:\n      0x00\n      dup1\n      revert\n        /* \"prog2005-2025/lab02/gitlab-fund/contracts/DeveloperPayouts.sol\":3194:3469  function getClaimStatus(uint256 issueId)... */\n    tag_3:\n      callvalue\n      dup1\n      iszero\n      tag_16\n      jumpi\n      0x00\n      dup1\n      revert\n    tag_16:\n      pop\n      tag_17\n      0x04\n      dup1\n      calldatasize\n      sub\n      dup2\n      add\n      swap1\n      tag_18\n      swap2\n      swap1\n      tag_19\n      jump\t// in\n    tag_18:\n      tag_20\n      jump\t// in\n    tag_17:\n      mload(0x40)\n      tag_21\n      swap4\n      swap3\n      swap2\n      swap1\n      tag_22\n      jump\t// in\n    tag_21:\n      mload(0x40)\n      dup1\n      swap2\n      sub\n      swap1\n      return\n        /* \"prog2005-2025/lab02/gitlab-fund/contracts/DeveloperPayouts.sol\":2115:2533  function claimBounty(uint256 issueId) external override onlyUnclaimedBounty(issueId) {... */\n    tag_4:\n      callvalue\n      dup1\n      iszero\n      tag_23\n      jumpi\n      0x00\n      dup1\n      revert\n    tag_23:\n      pop\n      tag_24\n      0x04\n      dup1\n      calldatasize\n      sub\n      dup2\n      add\n      swap1\n      tag_25\n      swap2\n      swap1\n      tag_19\n      jump\t// in\n    tag_25:\n      tag_26\n      jump\t// in\n    tag_24:\n      stop\n        /* \"prog2005-2025/lab02/gitlab-fund/contracts/DeveloperPayouts.sol\":1385:1494  function fundManager() external view override returns (address) {... */\n    tag_5:\n      callvalue\n      dup1\n      iszero\n      tag_27\n      jumpi\n      0x00\n      dup1\n      revert\n    tag_27:\n      pop\n      tag_28\n      tag_29\n      jump\t// in\n    tag_28:\n      mload(0x40)\n      tag_30\n      swap2\n      swap1\n      tag_31\n      jump\t// in\n    tag_30:\n      mload(0x40)\n      dup1\n      swap2\n      sub\n      swap1\n      return\n        /* \"prog2005-2025/lab02/gitlab-fund/contracts/DeveloperPayouts.sol\":1500:1712  function updateValidator(address _newValidator) external onlyOwner {... */\n    tag_6:\n      callvalue\n      dup1\n      iszero\n      tag_32\n      jumpi\n      0x00\n      dup1\n      revert\n    tag_32:\n      pop\n      tag_33\n      0x04\n      dup1\n      calldatasize\n      sub\n      dup2\n      add\n      swap1\n      tag_34\n      swap2\n      swap1\n      tag_35\n      jump\t// in\n    tag_34:\n      tag_36\n      jump\t// in\n    tag_33:\n      stop\n        /* \"prog2005-2025/lab02/gitlab-fund/contracts/DeveloperPayouts.sol\":2539:3188  function processPayout(uint256 issueId) external override {... */\n    tag_7:\n      callvalue\n      dup1\n      iszero\n      tag_37\n      jumpi\n      0x00\n      dup1\n      revert\n    tag_37:\n      pop\n      tag_38\n      0x04\n      dup1\n      calldatasize\n      sub\n      dup2\n      add\n      swap1\n      tag_39\n      swap2\n      swap1\n      tag_19\n      jump\t// in\n    tag_39:\n      tag_40\n      jump\t// in\n    tag_38:\n      stop\n        /* \"prog2005-2025/lab02/gitlab-fund/contracts/DeveloperPayouts.sol\":679:699  address public owner */\n    tag_8:\n      callvalue\n      dup1\n      iszero\n      tag_41\n      jumpi\n      0x00\n      dup1\n      revert\n    tag_41:\n      pop\n      tag_42\n      tag_43\n      jump\t// in\n    tag_42:\n      mload(0x40)\n      tag_44\n      swap2\n      swap1\n      tag_31\n      jump\t// in\n    tag_44:\n      mload(0x40)\n      dup1\n      swap2\n      sub\n      swap1\n      return\n        /* \"prog2005-2025/lab02/gitlab-fund/contracts/DeveloperPayouts.sol\":3475:3851  function cancelClaim(uint256 issueId) external override {... */\n    tag_9:\n      callvalue\n      dup1\n      iszero\n      tag_45\n      jumpi\n      0x00\n      dup1\n      revert\n    tag_45:\n      pop\n      tag_46\n      0x04\n      dup1\n      calldatasize\n      sub\n      dup2\n      add\n      swap1\n      tag_47\n      swap2\n      swap1\n      tag_19\n      jump\t// in\n    tag_47:\n      tag_48\n      jump\t// in\n    tag_46:\n      stop\n        /* \"prog2005-2025/lab02/gitlab-fund/contracts/DeveloperPayouts.sol\":706:745  mapping(uint256 => Claim) public claims */\n    tag_10:\n      callvalue\n      dup1\n      iszero\n      tag_49\n      jumpi\n      0x00\n      dup1\n      revert\n    tag_49:\n      pop\n      tag_50\n      0x04\n      dup1\n      calldatasize\n      sub\n      dup2\n      add\n      swap1\n      tag_51\n      swap2\n      swap1\n      tag_19\n      jump\t// in\n    tag_51:\n      tag_52\n      jump\t// in\n    tag_50:\n      mload(0x40)\n      tag_53\n      swap6\n      swap5\n      swap4\n      swap3\n      swap2\n      swap1\n      tag_54\n      jump\t// in\n    tag_53:\n      mload(0x40)\n      dup1\n      swap2\n      sub\n      swap1\n      return\n        /* \"prog2005-2025/lab02/gitlab-fund/contracts/DeveloperPayouts.sol\":630:673  IValidatorMultiSig public validatorMultiSig */\n    tag_11:\n      callvalue\n      dup1\n      iszero\n      tag_55\n      jumpi\n      0x00\n      dup1\n      revert\n    tag_55:\n      pop\n      tag_56\n      tag_57\n      jump\t// in\n    tag_56:\n      mload(0x40)\n      tag_58\n      swap2\n      swap1\n      tag_59\n      jump\t// in\n    tag_58:\n      mload(0x40)\n      dup1\n      swap2\n      sub\n      swap1\n      return\n        /* \"prog2005-2025/lab02/gitlab-fund/contracts/DeveloperPayouts.sol\":751:797  uint256 public constant CLAIM_TIMEOUT = 7 days */\n    tag_12:\n      callvalue\n      dup1\n      iszero\n      tag_60\n      jumpi\n      0x00\n      dup1\n      revert\n    tag_60:\n      pop\n      tag_61\n      tag_62\n      jump\t// in\n    tag_61:\n      mload(0x40)\n      tag_63\n      swap2\n      swap1\n      tag_64\n      jump\t// in\n    tag_63:\n      mload(0x40)\n      dup1\n      swap2\n      sub\n      swap1\n      return\n        /* \"prog2005-2025/lab02/gitlab-fund/contracts/DeveloperPayouts.sol\":3194:3469  function getClaimStatus(uint256 issueId)... */\n    tag_20:\n        /* \"prog2005-2025/lab02/gitlab-fund/contracts/DeveloperPayouts.sol\":3299:3311  bool claimed */\n      0x00\n        /* \"prog2005-2025/lab02/gitlab-fund/contracts/DeveloperPayouts.sol\":3313:3330  address developer */\n      dup1\n        /* \"prog2005-2025/lab02/gitlab-fund/contracts/DeveloperPayouts.sol\":3332:3346  uint256 amount */\n      0x00\n        /* \"prog2005-2025/lab02/gitlab-fund/contracts/DeveloperPayouts.sol\":3362:3381  Claim storage claim */\n      dup1\n        /* \"prog2005-2025/lab02/gitlab-fund/contracts/DeveloperPayouts.sol\":3384:3390  claims */\n      0x03\n        /* \"prog2005-2025/lab02/gitlab-fund/contracts/DeveloperPayouts.sol\":3384:3399  claims[issueId] */\n      0x00\n        /* \"prog2005-2025/lab02/gitlab-fund/contracts/DeveloperPayouts.sol\":3391:3398  issueId */\n      dup7\n        /* \"prog2005-2025/lab02/gitlab-fund/contracts/DeveloperPayouts.sol\":3384:3399  claims[issueId] */\n      dup2\n      mstore\n      0x20\n      add\n      swap1\n      dup2\n      mstore\n      0x20\n      add\n      0x00\n      keccak256\n        /* \"prog2005-2025/lab02/gitlab-fund/contracts/DeveloperPayouts.sol\":3362:3399  Claim storage claim = claims[issueId] */\n      swap1\n      pop\n        /* \"prog2005-2025/lab02/gitlab-fund/contracts/DeveloperPayouts.sol\":3417:3422  claim */\n      dup1\n        /* \"prog2005-2025/lab02/gitlab-fund/contracts/DeveloperPayouts.sol\":3417:3430  claim.claimed */\n      0x02\n      add\n      0x00\n      swap1\n      sload\n      swap1\n      0x0100\n      exp\n      swap1\n      div\n      0xff\n      and\n        /* \"prog2005-2025/lab02/gitlab-fund/contracts/DeveloperPayouts.sol\":3432:3437  claim */\n      dup2\n        /* \"prog2005-2025/lab02/gitlab-fund/contracts/DeveloperPayouts.sol\":3432:3447  claim.developer */\n      0x00\n      add\n      0x00\n      swap1\n      sload\n      swap1\n      0x0100\n      exp\n      swap1\n      div\n      0xffffffffffffffffffffffffffffffffffffffff\n      and\n        /* \"prog2005-2025/lab02/gitlab-fund/contracts/DeveloperPayouts.sol\":3449:3454  claim */\n      dup3\n        /* \"prog2005-2025/lab02/gitlab-fund/contracts/DeveloperPayouts.sol\":3449:3461  claim.amount */\n      0x01\n      add\n      sload\n        /* \"prog2005-2025/lab02/gitlab-fund/contracts/DeveloperPayouts.sol\":3409:3462  return (claim.claimed, claim.developer, claim.amount) */\n      swap4\n      pop\n      swap4\n      pop\n      swap4\n      pop\n      pop\n        /* \"prog2005-2025/lab02/gitlab-fund/contracts/DeveloperPayouts.sol\":3194:3469  function getClaimStatus(uint256 issueId)... */\n      swap2\n      swap4\n      swap1\n      swap3\n      pop\n      jump\t// out\n        /* \"prog2005-2025/lab02/gitlab-fund/contracts/DeveloperPayouts.sol\":2115:2533  function claimBounty(uint256 issueId) external override onlyUnclaimedBounty(issueId) {... */\n    tag_26:\n        /* \"prog2005-2025/lab02/gitlab-fund/contracts/DeveloperPayouts.sol\":2191:2198  issueId */\n      dup1\n        /* \"prog2005-2025/lab02/gitlab-fund/contracts/DeveloperPayouts.sol\":1774:1794  uint256 bountyAmount */\n      0x00\n        /* \"prog2005-2025/lab02/gitlab-fund/contracts/DeveloperPayouts.sol\":1797:1809  _fundManager */\n      immutable(\"0x9560168699514dcd528543d614e81b4f36adf182dc624d2f1eb91df8addd987e\")\n        /* \"prog2005-2025/lab02/gitlab-fund/contracts/DeveloperPayouts.sol\":1797:1824  _fundManager.getIssueBounty */\n      0xffffffffffffffffffffffffffffffffffffffff\n      and\n      0x454fa1b1\n        /* \"prog2005-2025/lab02/gitlab-fund/contracts/DeveloperPayouts.sol\":1825:1832  issueId */\n      dup4\n        /* \"prog2005-2025/lab02/gitlab-fund/contracts/DeveloperPayouts.sol\":1797:1833  _fundManager.getIssueBounty(issueId) */\n      mload(0x40)\n      dup3\n      0xffffffff\n      and\n      0xe0\n      shl\n      dup2\n      mstore\n      0x04\n      add\n      tag_67\n      swap2\n      swap1\n      tag_64\n      jump\t// in\n    tag_67:\n      0x20\n      mload(0x40)\n      dup1\n      dup4\n      sub\n      dup2\n      dup7\n      gas\n      staticcall\n      iszero\n      dup1\n      iszero\n      tag_69\n      jumpi\n      returndatasize\n      0x00\n      dup1\n      returndatacopy\n      revert(0x00, returndatasize)\n    tag_69:\n      pop\n      pop\n      pop\n      pop\n      mload(0x40)\n      returndatasize\n      not(0x1f)\n      0x1f\n      dup3\n      add\n      and\n      dup3\n      add\n      dup1\n      0x40\n      mstore\n      pop\n      dup2\n      add\n      swap1\n      tag_70\n      swap2\n      swap1\n      tag_71\n      jump\t// in\n    tag_70:\n        /* \"prog2005-2025/lab02/gitlab-fund/contracts/DeveloperPayouts.sol\":1774:1833  uint256 bountyAmount = _fundManager.getIssueBounty(issueId) */\n      swap1\n      pop\n        /* \"prog2005-2025/lab02/gitlab-fund/contracts/DeveloperPayouts.sol\":1866:1867  0 */\n      0x00\n        /* \"prog2005-2025/lab02/gitlab-fund/contracts/DeveloperPayouts.sol\":1851:1863  bountyAmount */\n      dup2\n        /* \"prog2005-2025/lab02/gitlab-fund/contracts/DeveloperPayouts.sol\":1851:1867  bountyAmount > 0 */\n      gt\n        /* \"prog2005-2025/lab02/gitlab-fund/contracts/DeveloperPayouts.sol\":1843:1896  require(bountyAmount > 0, \"No bounty for this issue\") */\n      tag_72\n      jumpi\n      mload(0x40)\n      0x08c379a000000000000000000000000000000000000000000000000000000000\n      dup2\n      mstore\n      0x04\n      add\n      tag_73\n      swap1\n      tag_74\n      jump\t// in\n    tag_73:\n      mload(0x40)\n      dup1\n      swap2\n      sub\n      swap1\n      revert\n    tag_72:\n        /* \"prog2005-2025/lab02/gitlab-fund/contracts/DeveloperPayouts.sol\":1920:1931  bool active */\n      0x00\n        /* \"prog2005-2025/lab02/gitlab-fund/contracts/DeveloperPayouts.sol\":1935:1947  _fundManager */\n      immutable(\"0x9560168699514dcd528543d614e81b4f36adf182dc624d2f1eb91df8addd987e\")\n        /* \"prog2005-2025/lab02/gitlab-fund/contracts/DeveloperPayouts.sol\":1935:1964  _fundManager.getBountyDetails */\n      0xffffffffffffffffffffffffffffffffffffffff\n      and\n      0xf0f284fc\n        /* \"prog2005-2025/lab02/gitlab-fund/contracts/DeveloperPayouts.sol\":1965:1972  issueId */\n      dup5\n        /* \"prog2005-2025/lab02/gitlab-fund/contracts/DeveloperPayouts.sol\":1935:1973  _fundManager.getBountyDetails(issueId) */\n      mload(0x40)\n      dup3\n      0xffffffff\n      and\n      0xe0\n      shl\n      dup2\n      mstore\n      0x04\n      add\n      tag_75\n      swap2\n      swap1\n      tag_64\n      jump\t// in\n    tag_75:\n      0x80\n      mload(0x40)\n      dup1\n      dup4\n      sub\n      dup2\n      dup7\n      gas\n      staticcall\n      iszero\n      dup1\n      iszero\n      tag_77\n      jumpi\n      returndatasize\n      0x00\n      dup1\n      returndatacopy\n      revert(0x00, returndatasize)\n    tag_77:\n      pop\n      pop\n      pop\n      pop\n      mload(0x40)\n      returndatasize\n      not(0x1f)\n      0x1f\n      dup3\n      add\n      and\n      dup3\n      add\n      dup1\n      0x40\n      mstore\n      pop\n      dup2\n      add\n      swap1\n      tag_78\n      swap2\n      swap1\n      tag_79\n      jump\t// in\n    tag_78:\n        /* \"prog2005-2025/lab02/gitlab-fund/contracts/DeveloperPayouts.sol\":1915:1973  (,,, bool active) = _fundManager.getBountyDetails(issueId) */\n      swap4\n      pop\n      pop\n      pop\n      pop\n        /* \"prog2005-2025/lab02/gitlab-fund/contracts/DeveloperPayouts.sol\":1991:1997  active */\n      dup1\n        /* \"prog2005-2025/lab02/gitlab-fund/contracts/DeveloperPayouts.sol\":1983:2022  require(active, \"Bounty is not active\") */\n      tag_80\n      jumpi\n      mload(0x40)\n      0x08c379a000000000000000000000000000000000000000000000000000000000\n      dup2\n      mstore\n      0x04\n      add\n      tag_81\n      swap1\n      tag_82\n      jump\t// in\n    tag_81:\n      mload(0x40)\n      dup1\n      swap2\n      sub\n      swap1\n      revert\n    tag_80:\n        /* \"prog2005-2025/lab02/gitlab-fund/contracts/DeveloperPayouts.sol\":2041:2047  claims */\n      0x03\n        /* \"prog2005-2025/lab02/gitlab-fund/contracts/DeveloperPayouts.sol\":2041:2056  claims[issueId] */\n      0x00\n        /* \"prog2005-2025/lab02/gitlab-fund/contracts/DeveloperPayouts.sol\":2048:2055  issueId */\n      dup5\n        /* \"prog2005-2025/lab02/gitlab-fund/contracts/DeveloperPayouts.sol\":2041:2056  claims[issueId] */\n      dup2\n      mstore\n      0x20\n      add\n      swap1\n      dup2\n      mstore\n      0x20\n      add\n      0x00\n      keccak256\n        /* \"prog2005-2025/lab02/gitlab-fund/contracts/DeveloperPayouts.sol\":2041:2064  claims[issueId].claimed */\n      0x02\n      add\n      0x00\n      swap1\n      sload\n      swap1\n      0x0100\n      exp\n      swap1\n      div\n      0xff\n      and\n        /* \"prog2005-2025/lab02/gitlab-fund/contracts/DeveloperPayouts.sol\":2040:2064  !claims[issueId].claimed */\n      iszero\n        /* \"prog2005-2025/lab02/gitlab-fund/contracts/DeveloperPayouts.sol\":2032:2091  require(!claims[issueId].claimed, \"Bounty already claimed\") */\n      tag_83\n      jumpi\n      mload(0x40)\n      0x08c379a000000000000000000000000000000000000000000000000000000000\n      dup2\n      mstore\n      0x04\n      add\n      tag_84\n      swap1\n      tag_85\n      jump\t// in\n    tag_84:\n      mload(0x40)\n      dup1\n      swap2\n      sub\n      swap1\n      revert\n    tag_83:\n        /* \"prog2005-2025/lab02/gitlab-fund/contracts/DeveloperPayouts.sol\":2210:2230  uint256 bountyAmount */\n      0x00\n        /* \"prog2005-2025/lab02/gitlab-fund/contracts/DeveloperPayouts.sol\":2233:2245  _fundManager */\n      immutable(\"0x9560168699514dcd528543d614e81b4f36adf182dc624d2f1eb91df8addd987e\")\n        /* \"prog2005-2025/lab02/gitlab-fund/contracts/DeveloperPayouts.sol\":2233:2260  _fundManager.getIssueBounty */\n      0xffffffffffffffffffffffffffffffffffffffff\n      and\n      0x454fa1b1\n        /* \"prog2005-2025/lab02/gitlab-fund/contracts/DeveloperPayouts.sol\":2261:2268  issueId */\n      dup7\n        /* \"prog2005-2025/lab02/gitlab-fund/contracts/DeveloperPayouts.sol\":2233:2269  _fundManager.getIssueBounty(issueId) */\n      mload(0x40)\n      dup3\n      0xffffffff\n      and\n      0xe0\n      shl\n      dup2\n      mstore\n      0x04\n      add\n      tag_87\n      swap2\n      swap1\n      tag_64\n      jump\t// in\n    tag_87:\n      0x20\n      mload(0x40)\n      dup1\n      dup4\n      sub\n      dup2\n      dup7\n      gas\n      staticcall\n      iszero\n      dup1\n      iszero\n      tag_89\n      jumpi\n      returndatasize\n      0x00\n      dup1\n      returndatacopy\n      revert(0x00, returndatasize)\n    tag_89:\n      pop\n      pop\n      pop\n      pop\n      mload(0x40)\n      returndatasize\n      not(0x1f)\n      0x1f\n      dup3\n      add\n      and\n      dup3\n      add\n      dup1\n      0x40\n      mstore\n      pop\n      dup2\n      add\n      swap1\n      tag_90\n      swap2\n      swap1\n      tag_71\n      jump\t// in\n    tag_90:\n        /* \"prog2005-2025/lab02/gitlab-fund/contracts/DeveloperPayouts.sol\":2210:2269  uint256 bountyAmount = _fundManager.getIssueBounty(issueId) */\n      swap1\n      pop\n        /* \"prog2005-2025/lab02/gitlab-fund/contracts/DeveloperPayouts.sol\":2298:2476  Claim({... */\n      mload(0x40)\n      dup1\n      0xa0\n      add\n      0x40\n      mstore\n      dup1\n        /* \"prog2005-2025/lab02/gitlab-fund/contracts/DeveloperPayouts.sol\":2329:2339  msg.sender */\n      caller\n        /* \"prog2005-2025/lab02/gitlab-fund/contracts/DeveloperPayouts.sol\":2298:2476  Claim({... */\n      0xffffffffffffffffffffffffffffffffffffffff\n      and\n      dup2\n      mstore\n      0x20\n      add\n        /* \"prog2005-2025/lab02/gitlab-fund/contracts/DeveloperPayouts.sol\":2361:2373  bountyAmount */\n      dup3\n        /* \"prog2005-2025/lab02/gitlab-fund/contracts/DeveloperPayouts.sol\":2298:2476  Claim({... */\n      dup2\n      mstore\n      0x20\n      add\n        /* \"prog2005-2025/lab02/gitlab-fund/contracts/DeveloperPayouts.sol\":2396:2400  true */\n      0x01\n        /* \"prog2005-2025/lab02/gitlab-fund/contracts/DeveloperPayouts.sol\":2298:2476  Claim({... */\n      iszero\n      iszero\n      dup2\n      mstore\n      0x20\n      add\n        /* \"prog2005-2025/lab02/gitlab-fund/contracts/DeveloperPayouts.sol\":2420:2425  false */\n      0x00\n        /* \"prog2005-2025/lab02/gitlab-fund/contracts/DeveloperPayouts.sol\":2298:2476  Claim({... */\n      iszero\n      iszero\n      dup2\n      mstore\n      0x20\n      add\n        /* \"prog2005-2025/lab02/gitlab-fund/contracts/DeveloperPayouts.sol\":2450:2465  block.timestamp */\n      timestamp\n        /* \"prog2005-2025/lab02/gitlab-fund/contracts/DeveloperPayouts.sol\":2298:2476  Claim({... */\n      dup2\n      mstore\n      pop\n        /* \"prog2005-2025/lab02/gitlab-fund/contracts/DeveloperPayouts.sol\":2280:2286  claims */\n      0x03\n        /* \"prog2005-2025/lab02/gitlab-fund/contracts/DeveloperPayouts.sol\":2280:2295  claims[issueId] */\n      0x00\n        /* \"prog2005-2025/lab02/gitlab-fund/contracts/DeveloperPayouts.sol\":2287:2294  issueId */\n      dup8\n        /* \"prog2005-2025/lab02/gitlab-fund/contracts/DeveloperPayouts.sol\":2280:2295  claims[issueId] */\n      dup2\n      mstore\n      0x20\n      add\n      swap1\n      dup2\n      mstore\n      0x20\n      add\n      0x00\n      keccak256\n        /* \"prog2005-2025/lab02/gitlab-fund/contracts/DeveloperPayouts.sol\":2280:2476  claims[issueId] = Claim({... */\n      0x00\n      dup3\n      add\n      mload\n      dup2\n      0x00\n      add\n      exp(0x0100, 0x00)\n      dup2\n      sload\n      dup2\n      0xffffffffffffffffffffffffffffffffffffffff\n      mul\n      not\n      and\n      swap1\n      dup4\n      0xffffffffffffffffffffffffffffffffffffffff\n      and\n      mul\n      or\n      swap1\n      sstore\n      pop\n      0x20\n      dup3\n      add\n      mload\n      dup2\n      0x01\n      add\n      sstore\n      0x40\n      dup3\n      add\n      mload\n      dup2\n      0x02\n      add\n      exp(0x0100, 0x00)\n      dup2\n      sload\n      dup2\n      0xff\n      mul\n      not\n      and\n      swap1\n      dup4\n      iszero\n      iszero\n      mul\n      or\n      swap1\n      sstore\n      pop\n      0x60\n      dup3\n      add\n      mload\n      dup2\n      0x02\n      add\n      exp(0x0100, 0x01)\n      dup2\n      sload\n      dup2\n      0xff\n      mul\n      not\n      and\n      swap1\n      dup4\n      iszero\n      iszero\n      mul\n      or\n      swap1\n      sstore\n      pop\n      0x80\n      dup3\n      add\n      mload\n      dup2\n      0x03\n      add\n      sstore\n      swap1\n      pop\n      pop\n        /* \"prog2005-2025/lab02/gitlab-fund/contracts/DeveloperPayouts.sol\":2515:2525  msg.sender */\n      caller\n        /* \"prog2005-2025/lab02/gitlab-fund/contracts/DeveloperPayouts.sol\":2492:2526  BountyClaimed(issueId, msg.sender) */\n      0xffffffffffffffffffffffffffffffffffffffff\n      and\n        /* \"prog2005-2025/lab02/gitlab-fund/contracts/DeveloperPayouts.sol\":2506:2513  issueId */\n      dup6\n        /* \"prog2005-2025/lab02/gitlab-fund/contracts/DeveloperPayouts.sol\":2492:2526  BountyClaimed(issueId, msg.sender) */\n      0xbf59c0d059a57ebf273b4b1643599fc4b48cf5effdd82113a740ed64d262ec93\n      mload(0x40)\n      mload(0x40)\n      dup1\n      swap2\n      sub\n      swap1\n      log3\n        /* \"prog2005-2025/lab02/gitlab-fund/contracts/DeveloperPayouts.sol\":2200:2533  {... */\n      pop\n        /* \"prog2005-2025/lab02/gitlab-fund/contracts/DeveloperPayouts.sol\":1764:2109  {... */\n      pop\n      pop\n        /* \"prog2005-2025/lab02/gitlab-fund/contracts/DeveloperPayouts.sol\":2115:2533  function claimBounty(uint256 issueId) external override onlyUnclaimedBounty(issueId) {... */\n      pop\n      pop\n      jump\t// out\n        /* \"prog2005-2025/lab02/gitlab-fund/contracts/DeveloperPayouts.sol\":1385:1494  function fundManager() external view override returns (address) {... */\n    tag_29:\n        /* \"prog2005-2025/lab02/gitlab-fund/contracts/DeveloperPayouts.sol\":1440:1447  address */\n      0x00\n        /* \"prog2005-2025/lab02/gitlab-fund/contracts/DeveloperPayouts.sol\":1474:1486  _fundManager */\n      immutable(\"0x9560168699514dcd528543d614e81b4f36adf182dc624d2f1eb91df8addd987e\")\n        /* \"prog2005-2025/lab02/gitlab-fund/contracts/DeveloperPayouts.sol\":1459:1487  return address(_fundManager) */\n      swap1\n      pop\n        /* \"prog2005-2025/lab02/gitlab-fund/contracts/DeveloperPayouts.sol\":1385:1494  function fundManager() external view override returns (address) {... */\n      swap1\n      jump\t// out\n        /* \"prog2005-2025/lab02/gitlab-fund/contracts/DeveloperPayouts.sol\":1500:1712  function updateValidator(address _newValidator) external onlyOwner {... */\n    tag_36:\n        /* \"prog2005-2025/lab02/gitlab-fund/contracts/DeveloperPayouts.sol\":857:862  owner */\n      0x02\n      0x00\n      swap1\n      sload\n      swap1\n      0x0100\n      exp\n      swap1\n      div\n      0xffffffffffffffffffffffffffffffffffffffff\n      and\n        /* \"prog2005-2025/lab02/gitlab-fund/contracts/DeveloperPayouts.sol\":843:862  msg.sender == owner */\n      0xffffffffffffffffffffffffffffffffffffffff\n      and\n        /* \"prog2005-2025/lab02/gitlab-fund/contracts/DeveloperPayouts.sol\":843:853  msg.sender */\n      caller\n        /* \"prog2005-2025/lab02/gitlab-fund/contracts/DeveloperPayouts.sol\":843:862  msg.sender == owner */\n      0xffffffffffffffffffffffffffffffffffffffff\n      and\n      eq\n        /* \"prog2005-2025/lab02/gitlab-fund/contracts/DeveloperPayouts.sol\":835:900  require(msg.sender == owner, \"Only owner can call this function\") */\n      tag_93\n      jumpi\n      mload(0x40)\n      0x08c379a000000000000000000000000000000000000000000000000000000000\n      dup2\n      mstore\n      0x04\n      add\n      tag_94\n      swap1\n      tag_95\n      jump\t// in\n    tag_94:\n      mload(0x40)\n      dup1\n      swap2\n      sub\n      swap1\n      revert\n    tag_93:\n        /* \"prog2005-2025/lab02/gitlab-fund/contracts/DeveloperPayouts.sol\":1610:1611  0 */\n      0x00\n        /* \"prog2005-2025/lab02/gitlab-fund/contracts/DeveloperPayouts.sol\":1585:1612  _newValidator != address(0) */\n      0xffffffffffffffffffffffffffffffffffffffff\n      and\n        /* \"prog2005-2025/lab02/gitlab-fund/contracts/DeveloperPayouts.sol\":1585:1598  _newValidator */\n      dup2\n        /* \"prog2005-2025/lab02/gitlab-fund/contracts/DeveloperPayouts.sol\":1585:1612  _newValidator != address(0) */\n      0xffffffffffffffffffffffffffffffffffffffff\n      and\n      sub\n        /* \"prog2005-2025/lab02/gitlab-fund/contracts/DeveloperPayouts.sol\":1577:1642  require(_newValidator != address(0), \"Invalid validator address\") */\n      tag_97\n      jumpi\n      mload(0x40)\n      0x08c379a000000000000000000000000000000000000000000000000000000000\n      dup2\n      mstore\n      0x04\n      add\n      tag_98\n      swap1\n      tag_99\n      jump\t// in\n    tag_98:\n      mload(0x40)\n      dup1\n      swap2\n      sub\n      swap1\n      revert\n    tag_97:\n        /* \"prog2005-2025/lab02/gitlab-fund/contracts/DeveloperPayouts.sol\":1691:1704  _newValidator */\n      dup1\n        /* \"prog2005-2025/lab02/gitlab-fund/contracts/DeveloperPayouts.sol\":1652:1669  validatorMultiSig */\n      0x01\n      0x00\n        /* \"prog2005-2025/lab02/gitlab-fund/contracts/DeveloperPayouts.sol\":1652:1705  validatorMultiSig = IValidatorMultiSig(_newValidator) */\n      0x0100\n      exp\n      dup2\n      sload\n      dup2\n      0xffffffffffffffffffffffffffffffffffffffff\n      mul\n      not\n      and\n      swap1\n      dup4\n      0xffffffffffffffffffffffffffffffffffffffff\n      and\n      mul\n      or\n      swap1\n      sstore\n      pop\n        /* \"prog2005-2025/lab02/gitlab-fund/contracts/DeveloperPayouts.sol\":1500:1712  function updateValidator(address _newValidator) external onlyOwner {... */\n      pop\n      jump\t// out\n        /* \"prog2005-2025/lab02/gitlab-fund/contracts/DeveloperPayouts.sol\":2539:3188  function processPayout(uint256 issueId) external override {... */\n    tag_40:\n        /* \"prog2005-2025/lab02/gitlab-fund/contracts/DeveloperPayouts.sol\":2607:2626  Claim storage claim */\n      0x00\n        /* \"prog2005-2025/lab02/gitlab-fund/contracts/DeveloperPayouts.sol\":2629:2635  claims */\n      0x03\n        /* \"prog2005-2025/lab02/gitlab-fund/contracts/DeveloperPayouts.sol\":2629:2644  claims[issueId] */\n      0x00\n        /* \"prog2005-2025/lab02/gitlab-fund/contracts/DeveloperPayouts.sol\":2636:2643  issueId */\n      dup4\n        /* \"prog2005-2025/lab02/gitlab-fund/contracts/DeveloperPayouts.sol\":2629:2644  claims[issueId] */\n      dup2\n      mstore\n      0x20\n      add\n      swap1\n      dup2\n      mstore\n      0x20\n      add\n      0x00\n      keccak256\n        /* \"prog2005-2025/lab02/gitlab-fund/contracts/DeveloperPayouts.sol\":2607:2644  Claim storage claim = claims[issueId] */\n      swap1\n      pop\n        /* \"prog2005-2025/lab02/gitlab-fund/contracts/DeveloperPayouts.sol\":2662:2667  claim */\n      dup1\n        /* \"prog2005-2025/lab02/gitlab-fund/contracts/DeveloperPayouts.sol\":2662:2675  claim.claimed */\n      0x02\n      add\n      0x00\n      swap1\n      sload\n      swap1\n      0x0100\n      exp\n      swap1\n      div\n      0xff\n      and\n        /* \"prog2005-2025/lab02/gitlab-fund/contracts/DeveloperPayouts.sol\":2654:2698  require(claim.claimed, \"Bounty not claimed\") */\n      tag_101\n      jumpi\n      mload(0x40)\n      0x08c379a000000000000000000000000000000000000000000000000000000000\n      dup2\n      mstore\n      0x04\n      add\n      tag_102\n      swap1\n      tag_103\n      jump\t// in\n    tag_102:\n      mload(0x40)\n      dup1\n      swap2\n      sub\n      swap1\n      revert\n    tag_101:\n        /* \"prog2005-2025/lab02/gitlab-fund/contracts/DeveloperPayouts.sol\":2717:2722  claim */\n      dup1\n        /* \"prog2005-2025/lab02/gitlab-fund/contracts/DeveloperPayouts.sol\":2717:2727  claim.paid */\n      0x02\n      add\n      0x01\n      swap1\n      sload\n      swap1\n      0x0100\n      exp\n      swap1\n      div\n      0xff\n      and\n        /* \"prog2005-2025/lab02/gitlab-fund/contracts/DeveloperPayouts.sol\":2716:2727  !claim.paid */\n      iszero\n        /* \"prog2005-2025/lab02/gitlab-fund/contracts/DeveloperPayouts.sol\":2708:2751  require(!claim.paid, \"Bounty already paid\") */\n      tag_104\n      jumpi\n      mload(0x40)\n      0x08c379a000000000000000000000000000000000000000000000000000000000\n      dup2\n      mstore\n      0x04\n      add\n      tag_105\n      swap1\n      tag_106\n      jump\t// in\n    tag_105:\n      mload(0x40)\n      dup1\n      swap2\n      sub\n      swap1\n      revert\n    tag_104:\n        /* \"prog2005-2025/lab02/gitlab-fund/contracts/DeveloperPayouts.sol\":791:797  7 days */\n      0x093a80\n        /* \"prog2005-2025/lab02/gitlab-fund/contracts/DeveloperPayouts.sol\":2788:2793  claim */\n      dup2\n        /* \"prog2005-2025/lab02/gitlab-fund/contracts/DeveloperPayouts.sol\":2788:2803  claim.timestamp */\n      0x03\n      add\n      sload\n        /* \"prog2005-2025/lab02/gitlab-fund/contracts/DeveloperPayouts.sol\":2788:2819  claim.timestamp + CLAIM_TIMEOUT */\n      tag_107\n      swap2\n      swap1\n      tag_108\n      jump\t// in\n    tag_107:\n        /* \"prog2005-2025/lab02/gitlab-fund/contracts/DeveloperPayouts.sol\":2769:2784  block.timestamp */\n      timestamp\n        /* \"prog2005-2025/lab02/gitlab-fund/contracts/DeveloperPayouts.sol\":2769:2819  block.timestamp <= claim.timestamp + CLAIM_TIMEOUT */\n      gt\n      iszero\n        /* \"prog2005-2025/lab02/gitlab-fund/contracts/DeveloperPayouts.sol\":2761:2837  require(block.timestamp <= claim.timestamp + CLAIM_TIMEOUT, \"Claim expired\") */\n      tag_109\n      jumpi\n      mload(0x40)\n      0x08c379a000000000000000000000000000000000000000000000000000000000\n      dup2\n      mstore\n      0x04\n      add\n      tag_110\n      swap1\n      tag_111\n      jump\t// in\n    tag_110:\n      mload(0x40)\n      dup1\n      swap2\n      sub\n      swap1\n      revert\n    tag_109:\n        /* \"prog2005-2025/lab02/gitlab-fund/contracts/DeveloperPayouts.sol\":2856:2873  validatorMultiSig */\n      0x01\n      0x00\n      swap1\n      sload\n      swap1\n      0x0100\n      exp\n      swap1\n      div\n      0xffffffffffffffffffffffffffffffffffffffff\n      and\n        /* \"prog2005-2025/lab02/gitlab-fund/contracts/DeveloperPayouts.sol\":2856:2884  validatorMultiSig.isApproved */\n      0xffffffffffffffffffffffffffffffffffffffff\n      and\n      0x56c31637\n        /* \"prog2005-2025/lab02/gitlab-fund/contracts/DeveloperPayouts.sol\":2885:2892  issueId */\n      dup4\n        /* \"prog2005-2025/lab02/gitlab-fund/contracts/DeveloperPayouts.sol\":2894:2899  claim */\n      dup4\n        /* \"prog2005-2025/lab02/gitlab-fund/contracts/DeveloperPayouts.sol\":2894:2909  claim.developer */\n      0x00\n      add\n      0x00\n      swap1\n      sload\n      swap1\n      0x0100\n      exp\n      swap1\n      div\n      0xffffffffffffffffffffffffffffffffffffffff\n      and\n        /* \"prog2005-2025/lab02/gitlab-fund/contracts/DeveloperPayouts.sol\":2856:2910  validatorMultiSig.isApproved(issueId, claim.developer) */\n      mload(0x40)\n      dup4\n      0xffffffff\n      and\n      0xe0\n      shl\n      dup2\n      mstore\n      0x04\n      add\n      tag_112\n      swap3\n      swap2\n      swap1\n      tag_113\n      jump\t// in\n    tag_112:\n      0x20\n      mload(0x40)\n      dup1\n      dup4\n      sub\n      dup2\n      dup7\n      gas\n      staticcall\n      iszero\n      dup1\n      iszero\n      tag_115\n      jumpi\n      returndatasize\n      0x00\n      dup1\n      returndatacopy\n      revert(0x00, returndatasize)\n    tag_115:\n      pop\n      pop\n      pop\n      pop\n      mload(0x40)\n      returndatasize\n      not(0x1f)\n      0x1f\n      dup3\n      add\n      and\n      dup3\n      add\n      dup1\n      0x40\n      mstore\n      pop\n      dup2\n      add\n      swap1\n      tag_116\n      swap2\n      swap1\n      tag_117\n      jump\t// in\n    tag_116:\n        /* \"prog2005-2025/lab02/gitlab-fund/contracts/DeveloperPayouts.sol\":2848:2953  require(validatorMultiSig.isApproved(issueId, claim.developer),... */\n      tag_118\n      jumpi\n      mload(0x40)\n      0x08c379a000000000000000000000000000000000000000000000000000000000\n      dup2\n      mstore\n      0x04\n      add\n      tag_119\n      swap1\n      tag_120\n      jump\t// in\n    tag_119:\n      mload(0x40)\n      dup1\n      swap2\n      sub\n      swap1\n      revert\n    tag_118:\n        /* \"prog2005-2025/lab02/gitlab-fund/contracts/DeveloperPayouts.sol\":2977:2981  true */\n      0x01\n        /* \"prog2005-2025/lab02/gitlab-fund/contracts/DeveloperPayouts.sol\":2964:2969  claim */\n      dup2\n        /* \"prog2005-2025/lab02/gitlab-fund/contracts/DeveloperPayouts.sol\":2964:2974  claim.paid */\n      0x02\n      add\n      0x01\n        /* \"prog2005-2025/lab02/gitlab-fund/contracts/DeveloperPayouts.sol\":2964:2981  claim.paid = true */\n      0x0100\n      exp\n      dup2\n      sload\n      dup2\n      0xff\n      mul\n      not\n      and\n      swap1\n      dup4\n      iszero\n      iszero\n      mul\n      or\n      swap1\n      sstore\n      pop\n        /* \"prog2005-2025/lab02/gitlab-fund/contracts/DeveloperPayouts.sol\":2993:3005  bool success */\n      0x00\n        /* \"prog2005-2025/lab02/gitlab-fund/contracts/DeveloperPayouts.sol\":3019:3024  claim */\n      dup2\n        /* \"prog2005-2025/lab02/gitlab-fund/contracts/DeveloperPayouts.sol\":3019:3034  claim.developer */\n      0x00\n      add\n      0x00\n      swap1\n      sload\n      swap1\n      0x0100\n      exp\n      swap1\n      div\n      0xffffffffffffffffffffffffffffffffffffffff\n      and\n        /* \"prog2005-2025/lab02/gitlab-fund/contracts/DeveloperPayouts.sol\":3011:3040  payable(claim.developer).call */\n      0xffffffffffffffffffffffffffffffffffffffff\n      and\n        /* \"prog2005-2025/lab02/gitlab-fund/contracts/DeveloperPayouts.sol\":3048:3053  claim */\n      dup3\n        /* \"prog2005-2025/lab02/gitlab-fund/contracts/DeveloperPayouts.sol\":3048:3060  claim.amount */\n      0x01\n      add\n      sload\n        /* \"prog2005-2025/lab02/gitlab-fund/contracts/DeveloperPayouts.sol\":3011:3065  payable(claim.developer).call{value: claim.amount}(\"\") */\n      mload(0x40)\n      tag_121\n      swap1\n      tag_122\n      jump\t// in\n    tag_121:\n      0x00\n      mload(0x40)\n      dup1\n      dup4\n      sub\n      dup2\n      dup6\n      dup8\n      gas\n      call\n      swap3\n      pop\n      pop\n      pop\n      returndatasize\n      dup1\n      0x00\n      dup2\n      eq\n      tag_125\n      jumpi\n      mload(0x40)\n      swap2\n      pop\n      and(add(returndatasize, 0x3f), not(0x1f))\n      dup3\n      add\n      0x40\n      mstore\n      returndatasize\n      dup3\n      mstore\n      returndatasize\n      0x00\n      0x20\n      dup5\n      add\n      returndatacopy\n      jump(tag_124)\n    tag_125:\n      0x60\n      swap2\n      pop\n    tag_124:\n      pop\n        /* \"prog2005-2025/lab02/gitlab-fund/contracts/DeveloperPayouts.sol\":2992:3065  (bool success, ) = payable(claim.developer).call{value: claim.amount}(\"\") */\n      pop\n      swap1\n      pop\n        /* \"prog2005-2025/lab02/gitlab-fund/contracts/DeveloperPayouts.sol\":3083:3090  success */\n      dup1\n        /* \"prog2005-2025/lab02/gitlab-fund/contracts/DeveloperPayouts.sol\":3075:3110  require(success, \"Transfer failed\") */\n      tag_126\n      jumpi\n      mload(0x40)\n      0x08c379a000000000000000000000000000000000000000000000000000000000\n      dup2\n      mstore\n      0x04\n      add\n      tag_127\n      swap1\n      tag_128\n      jump\t// in\n    tag_127:\n      mload(0x40)\n      dup1\n      swap2\n      sub\n      swap1\n      revert\n    tag_126:\n        /* \"prog2005-2025/lab02/gitlab-fund/contracts/DeveloperPayouts.sol\":3151:3156  claim */\n      dup2\n        /* \"prog2005-2025/lab02/gitlab-fund/contracts/DeveloperPayouts.sol\":3151:3166  claim.developer */\n      0x00\n      add\n      0x00\n      swap1\n      sload\n      swap1\n      0x0100\n      exp\n      swap1\n      div\n      0xffffffffffffffffffffffffffffffffffffffff\n      and\n        /* \"prog2005-2025/lab02/gitlab-fund/contracts/DeveloperPayouts.sol\":3126:3181  PayoutProcessed(issueId, claim.developer, claim.amount) */\n      0xffffffffffffffffffffffffffffffffffffffff\n      and\n        /* \"prog2005-2025/lab02/gitlab-fund/contracts/DeveloperPayouts.sol\":3142:3149  issueId */\n      dup4\n        /* \"prog2005-2025/lab02/gitlab-fund/contracts/DeveloperPayouts.sol\":3126:3181  PayoutProcessed(issueId, claim.developer, claim.amount) */\n      0xdc699d0c4948c96a3265f3c8997ad793f263f495e1809c0e2a2926c4da7fc797\n        /* \"prog2005-2025/lab02/gitlab-fund/contracts/DeveloperPayouts.sol\":3168:3173  claim */\n      dup5\n        /* \"prog2005-2025/lab02/gitlab-fund/contracts/DeveloperPayouts.sol\":3168:3180  claim.amount */\n      0x01\n      add\n      sload\n        /* \"prog2005-2025/lab02/gitlab-fund/contracts/DeveloperPayouts.sol\":3126:3181  PayoutProcessed(issueId, claim.developer, claim.amount) */\n      mload(0x40)\n      tag_129\n      swap2\n      swap1\n      tag_64\n      jump\t// in\n    tag_129:\n      mload(0x40)\n      dup1\n      swap2\n      sub\n      swap1\n      log3\n        /* \"prog2005-2025/lab02/gitlab-fund/contracts/DeveloperPayouts.sol\":2597:3188  {... */\n      pop\n      pop\n        /* \"prog2005-2025/lab02/gitlab-fund/contracts/DeveloperPayouts.sol\":2539:3188  function processPayout(uint256 issueId) external override {... */\n      pop\n      jump\t// out\n        /* \"prog2005-2025/lab02/gitlab-fund/contracts/DeveloperPayouts.sol\":679:699  address public owner */\n    tag_43:\n      0x02\n      0x00\n      swap1\n      sload\n      swap1\n      0x0100\n      exp\n      swap1\n      div\n      0xffffffffffffffffffffffffffffffffffffffff\n      and\n      dup2\n      jump\t// out\n        /* \"prog2005-2025/lab02/gitlab-fund/contracts/DeveloperPayouts.sol\":3475:3851  function cancelClaim(uint256 issueId) external override {... */\n    tag_48:\n        /* \"prog2005-2025/lab02/gitlab-fund/contracts/DeveloperPayouts.sol\":3541:3560  Claim storage claim */\n      0x00\n        /* \"prog2005-2025/lab02/gitlab-fund/contracts/DeveloperPayouts.sol\":3563:3569  claims */\n      0x03\n        /* \"prog2005-2025/lab02/gitlab-fund/contracts/DeveloperPayouts.sol\":3563:3578  claims[issueId] */\n      0x00\n        /* \"prog2005-2025/lab02/gitlab-fund/contracts/DeveloperPayouts.sol\":3570:3577  issueId */\n      dup4\n        /* \"prog2005-2025/lab02/gitlab-fund/contracts/DeveloperPayouts.sol\":3563:3578  claims[issueId] */\n      dup2\n      mstore\n      0x20\n      add\n      swap1\n      dup2\n      mstore\n      0x20\n      add\n      0x00\n      keccak256\n        /* \"prog2005-2025/lab02/gitlab-fund/contracts/DeveloperPayouts.sol\":3541:3578  Claim storage claim = claims[issueId] */\n      swap1\n      pop\n        /* \"prog2005-2025/lab02/gitlab-fund/contracts/DeveloperPayouts.sol\":3596:3601  claim */\n      dup1\n        /* \"prog2005-2025/lab02/gitlab-fund/contracts/DeveloperPayouts.sol\":3596:3609  claim.claimed */\n      0x02\n      add\n      0x00\n      swap1\n      sload\n      swap1\n      0x0100\n      exp\n      swap1\n      div\n      0xff\n      and\n        /* \"prog2005-2025/lab02/gitlab-fund/contracts/DeveloperPayouts.sol\":3588:3632  require(claim.claimed, \"Bounty not claimed\") */\n      tag_131\n      jumpi\n      mload(0x40)\n      0x08c379a000000000000000000000000000000000000000000000000000000000\n      dup2\n      mstore\n      0x04\n      add\n      tag_132\n      swap1\n      tag_103\n      jump\t// in\n    tag_132:\n      mload(0x40)\n      dup1\n      swap2\n      sub\n      swap1\n      revert\n    tag_131:\n        /* \"prog2005-2025/lab02/gitlab-fund/contracts/DeveloperPayouts.sol\":3651:3656  claim */\n      dup1\n        /* \"prog2005-2025/lab02/gitlab-fund/contracts/DeveloperPayouts.sol\":3651:3661  claim.paid */\n      0x02\n      add\n      0x01\n      swap1\n      sload\n      swap1\n      0x0100\n      exp\n      swap1\n      div\n      0xff\n      and\n        /* \"prog2005-2025/lab02/gitlab-fund/contracts/DeveloperPayouts.sol\":3650:3661  !claim.paid */\n      iszero\n        /* \"prog2005-2025/lab02/gitlab-fund/contracts/DeveloperPayouts.sol\":3642:3685  require(!claim.paid, \"Bounty already paid\") */\n      tag_133\n      jumpi\n      mload(0x40)\n      0x08c379a000000000000000000000000000000000000000000000000000000000\n      dup2\n      mstore\n      0x04\n      add\n      tag_134\n      swap1\n      tag_106\n      jump\t// in\n    tag_134:\n      mload(0x40)\n      dup1\n      swap2\n      sub\n      swap1\n      revert\n    tag_133:\n        /* \"prog2005-2025/lab02/gitlab-fund/contracts/DeveloperPayouts.sol\":3722:3732  msg.sender */\n      caller\n        /* \"prog2005-2025/lab02/gitlab-fund/contracts/DeveloperPayouts.sol\":3703:3732  claim.developer == msg.sender */\n      0xffffffffffffffffffffffffffffffffffffffff\n      and\n        /* \"prog2005-2025/lab02/gitlab-fund/contracts/DeveloperPayouts.sol\":3703:3708  claim */\n      dup2\n        /* \"prog2005-2025/lab02/gitlab-fund/contracts/DeveloperPayouts.sol\":3703:3718  claim.developer */\n      0x00\n      add\n      0x00\n      swap1\n      sload\n      swap1\n      0x0100\n      exp\n      swap1\n      div\n      0xffffffffffffffffffffffffffffffffffffffff\n      and\n        /* \"prog2005-2025/lab02/gitlab-fund/contracts/DeveloperPayouts.sol\":3703:3732  claim.developer == msg.sender */\n      0xffffffffffffffffffffffffffffffffffffffff\n      and\n      eq\n        /* \"prog2005-2025/lab02/gitlab-fund/contracts/DeveloperPayouts.sol\":3695:3760  require(claim.developer == msg.sender, \"Only claimer can cancel\") */\n      tag_135\n      jumpi\n      mload(0x40)\n      0x08c379a000000000000000000000000000000000000000000000000000000000\n      dup2\n      mstore\n      0x04\n      add\n      tag_136\n      swap1\n      tag_137\n      jump\t// in\n    tag_136:\n      mload(0x40)\n      dup1\n      swap2\n      sub\n      swap1\n      revert\n    tag_135:\n        /* \"prog2005-2025/lab02/gitlab-fund/contracts/DeveloperPayouts.sol\":3778:3784  claims */\n      0x03\n        /* \"prog2005-2025/lab02/gitlab-fund/contracts/DeveloperPayouts.sol\":3778:3793  claims[issueId] */\n      0x00\n        /* \"prog2005-2025/lab02/gitlab-fund/contracts/DeveloperPayouts.sol\":3785:3792  issueId */\n      dup4\n        /* \"prog2005-2025/lab02/gitlab-fund/contracts/DeveloperPayouts.sol\":3778:3793  claims[issueId] */\n      dup2\n      mstore\n      0x20\n      add\n      swap1\n      dup2\n      mstore\n      0x20\n      add\n      0x00\n      keccak256\n      0x00\n        /* \"prog2005-2025/lab02/gitlab-fund/contracts/DeveloperPayouts.sol\":3771:3793  delete claims[issueId] */\n      dup1\n      dup3\n      add\n      exp(0x0100, 0x00)\n      dup2\n      sload\n      swap1\n      0xffffffffffffffffffffffffffffffffffffffff\n      mul\n      not\n      and\n      swap1\n      sstore\n      0x01\n      dup3\n      add\n      0x00\n      swap1\n      sstore\n      0x02\n      dup3\n      add\n      exp(0x0100, 0x00)\n      dup2\n      sload\n      swap1\n      0xff\n      mul\n      not\n      and\n      swap1\n      sstore\n      0x02\n      dup3\n      add\n      exp(0x0100, 0x01)\n      dup2\n      sload\n      swap1\n      0xff\n      mul\n      not\n      and\n      swap1\n      sstore\n      0x03\n      dup3\n      add\n      0x00\n      swap1\n      sstore\n      pop\n      pop\n        /* \"prog2005-2025/lab02/gitlab-fund/contracts/DeveloperPayouts.sol\":3833:3843  msg.sender */\n      caller\n        /* \"prog2005-2025/lab02/gitlab-fund/contracts/DeveloperPayouts.sol\":3809:3844  ClaimCancelled(issueId, msg.sender) */\n      0xffffffffffffffffffffffffffffffffffffffff\n      and\n        /* \"prog2005-2025/lab02/gitlab-fund/contracts/DeveloperPayouts.sol\":3824:3831  issueId */\n      dup3\n        /* \"prog2005-2025/lab02/gitlab-fund/contracts/DeveloperPayouts.sol\":3809:3844  ClaimCancelled(issueId, msg.sender) */\n      0xb07c35948b3aa55af6baed77379d187e78a6e78bbe61fc2fe299f400607c441f\n      mload(0x40)\n      mload(0x40)\n      dup1\n      swap2\n      sub\n      swap1\n      log3\n        /* \"prog2005-2025/lab02/gitlab-fund/contracts/DeveloperPayouts.sol\":3531:3851  {... */\n      pop\n        /* \"prog2005-2025/lab02/gitlab-fund/contracts/DeveloperPayouts.sol\":3475:3851  function cancelClaim(uint256 issueId) external override {... */\n      pop\n      jump\t// out\n        /* \"prog2005-2025/lab02/gitlab-fund/contracts/DeveloperPayouts.sol\":706:745  mapping(uint256 => Claim) public claims */\n    tag_52:\n      mstore(0x20, 0x03)\n      dup1\n      0x00\n      mstore\n      keccak256(0x00, 0x40)\n      0x00\n      swap2\n      pop\n      swap1\n      pop\n      dup1\n      0x00\n      add\n      0x00\n      swap1\n      sload\n      swap1\n      0x0100\n      exp\n      swap1\n      div\n      0xffffffffffffffffffffffffffffffffffffffff\n      and\n      swap1\n      dup1\n      0x01\n      add\n      sload\n      swap1\n      dup1\n      0x02\n      add\n      0x00\n      swap1\n      sload\n      swap1\n      0x0100\n      exp\n      swap1\n      div\n      0xff\n      and\n      swap1\n      dup1\n      0x02\n      add\n      0x01\n      swap1\n      sload\n      swap1\n      0x0100\n      exp\n      swap1\n      div\n      0xff\n      and\n      swap1\n      dup1\n      0x03\n      add\n      sload\n      swap1\n      pop\n      dup6\n      jump\t// out\n        /* \"prog2005-2025/lab02/gitlab-fund/contracts/DeveloperPayouts.sol\":630:673  IValidatorMultiSig public validatorMultiSig */\n    tag_57:\n      0x01\n      0x00\n      swap1\n      sload\n      swap1\n      0x0100\n      exp\n      swap1\n      div\n      0xffffffffffffffffffffffffffffffffffffffff\n      and\n      dup2\n      jump\t// out\n        /* \"prog2005-2025/lab02/gitlab-fund/contracts/DeveloperPayouts.sol\":751:797  uint256 public constant CLAIM_TIMEOUT = 7 days */\n    tag_62:\n        /* \"prog2005-2025/lab02/gitlab-fund/contracts/DeveloperPayouts.sol\":791:797  7 days */\n      0x093a80\n        /* \"prog2005-2025/lab02/gitlab-fund/contracts/DeveloperPayouts.sol\":751:797  uint256 public constant CLAIM_TIMEOUT = 7 days */\n      dup2\n      jump\t// out\n        /* \"#utility.yul\":88:205   */\n    tag_139:\n        /* \"#utility.yul\":197:198   */\n      0x00\n        /* \"#utility.yul\":194:195   */\n      dup1\n        /* \"#utility.yul\":187:199   */\n      revert\n        /* \"#utility.yul\":334:411   */\n    tag_141:\n        /* \"#utility.yul\":371:378   */\n      0x00\n        /* \"#utility.yul\":400:405   */\n      dup2\n        /* \"#utility.yul\":389:405   */\n      swap1\n      pop\n        /* \"#utility.yul\":334:411   */\n      swap2\n      swap1\n      pop\n      jump\t// out\n        /* \"#utility.yul\":417:539   */\n    tag_142:\n        /* \"#utility.yul\":490:514   */\n      tag_194\n        /* \"#utility.yul\":508:513   */\n      dup2\n        /* \"#utility.yul\":490:514   */\n      tag_141\n      jump\t// in\n    tag_194:\n        /* \"#utility.yul\":483:488   */\n      dup2\n        /* \"#utility.yul\":480:515   */\n      eq\n        /* \"#utility.yul\":470:533   */\n      tag_195\n      jumpi\n        /* \"#utility.yul\":529:530   */\n      0x00\n        /* \"#utility.yul\":526:527   */\n      dup1\n        /* \"#utility.yul\":519:531   */\n      revert\n        /* \"#utility.yul\":470:533   */\n    tag_195:\n        /* \"#utility.yul\":417:539   */\n      pop\n      jump\t// out\n        /* \"#utility.yul\":545:684   */\n    tag_143:\n        /* \"#utility.yul\":591:596   */\n      0x00\n        /* \"#utility.yul\":629:635   */\n      dup2\n        /* \"#utility.yul\":616:636   */\n      calldataload\n        /* \"#utility.yul\":607:636   */\n      swap1\n      pop\n        /* \"#utility.yul\":645:678   */\n      tag_197\n        /* \"#utility.yul\":672:677   */\n      dup2\n        /* \"#utility.yul\":645:678   */\n      tag_142\n      jump\t// in\n    tag_197:\n        /* \"#utility.yul\":545:684   */\n      swap3\n      swap2\n      pop\n      pop\n      jump\t// out\n        /* \"#utility.yul\":690:1019   */\n    tag_19:\n        /* \"#utility.yul\":749:755   */\n      0x00\n        /* \"#utility.yul\":798:800   */\n      0x20\n        /* \"#utility.yul\":786:795   */\n      dup3\n        /* \"#utility.yul\":777:784   */\n      dup5\n        /* \"#utility.yul\":773:796   */\n      sub\n        /* \"#utility.yul\":769:801   */\n      slt\n        /* \"#utility.yul\":766:885   */\n      iszero\n      tag_199\n      jumpi\n        /* \"#utility.yul\":804:883   */\n      tag_200\n      tag_139\n      jump\t// in\n    tag_200:\n        /* \"#utility.yul\":766:885   */\n    tag_199:\n        /* \"#utility.yul\":924:925   */\n      0x00\n        /* \"#utility.yul\":949:1002   */\n      tag_201\n        /* \"#utility.yul\":994:1001   */\n      dup5\n        /* \"#utility.yul\":985:991   */\n      dup3\n        /* \"#utility.yul\":974:983   */\n      dup6\n        /* \"#utility.yul\":970:992   */\n      add\n        /* \"#utility.yul\":949:1002   */\n      tag_143\n      jump\t// in\n    tag_201:\n        /* \"#utility.yul\":939:1002   */\n      swap2\n      pop\n        /* \"#utility.yul\":895:1012   */\n      pop\n        /* \"#utility.yul\":690:1019   */\n      swap3\n      swap2\n      pop\n      pop\n      jump\t// out\n        /* \"#utility.yul\":1025:1115   */\n    tag_144:\n        /* \"#utility.yul\":1059:1066   */\n      0x00\n        /* \"#utility.yul\":1102:1107   */\n      dup2\n        /* \"#utility.yul\":1095:1108   */\n      iszero\n        /* \"#utility.yul\":1088:1109   */\n      iszero\n        /* \"#utility.yul\":1077:1109   */\n      swap1\n      pop\n        /* \"#utility.yul\":1025:1115   */\n      swap2\n      swap1\n      pop\n      jump\t// out\n        /* \"#utility.yul\":1121:1230   */\n    tag_145:\n        /* \"#utility.yul\":1202:1223   */\n      tag_204\n        /* \"#utility.yul\":1217:1222   */\n      dup2\n        /* \"#utility.yul\":1202:1223   */\n      tag_144\n      jump\t// in\n    tag_204:\n        /* \"#utility.yul\":1197:1200   */\n      dup3\n        /* \"#utility.yul\":1190:1224   */\n      mstore\n        /* \"#utility.yul\":1121:1230   */\n      pop\n      pop\n      jump\t// out\n        /* \"#utility.yul\":1236:1362   */\n    tag_146:\n        /* \"#utility.yul\":1273:1280   */\n      0x00\n        /* \"#utility.yul\":1313:1355   */\n      0xffffffffffffffffffffffffffffffffffffffff\n        /* \"#utility.yul\":1306:1311   */\n      dup3\n        /* \"#utility.yul\":1302:1356   */\n      and\n        /* \"#utility.yul\":1291:1356   */\n      swap1\n      pop\n        /* \"#utility.yul\":1236:1362   */\n      swap2\n      swap1\n      pop\n      jump\t// out\n        /* \"#utility.yul\":1368:1464   */\n    tag_147:\n        /* \"#utility.yul\":1405:1412   */\n      0x00\n        /* \"#utility.yul\":1434:1458   */\n      tag_207\n        /* \"#utility.yul\":1452:1457   */\n      dup3\n        /* \"#utility.yul\":1434:1458   */\n      tag_146\n      jump\t// in\n    tag_207:\n        /* \"#utility.yul\":1423:1458   */\n      swap1\n      pop\n        /* \"#utility.yul\":1368:1464   */\n      swap2\n      swap1\n      pop\n      jump\t// out\n        /* \"#utility.yul\":1470:1588   */\n    tag_148:\n        /* \"#utility.yul\":1557:1581   */\n      tag_209\n        /* \"#utility.yul\":1575:1580   */\n      dup2\n        /* \"#utility.yul\":1557:1581   */\n      tag_147\n      jump\t// in\n    tag_209:\n        /* \"#utility.yul\":1552:1555   */\n      dup3\n        /* \"#utility.yul\":1545:1582   */\n      mstore\n        /* \"#utility.yul\":1470:1588   */\n      pop\n      pop\n      jump\t// out\n        /* \"#utility.yul\":1594:1712   */\n    tag_149:\n        /* \"#utility.yul\":1681:1705   */\n      tag_211\n        /* \"#utility.yul\":1699:1704   */\n      dup2\n        /* \"#utility.yul\":1681:1705   */\n      tag_141\n      jump\t// in\n    tag_211:\n        /* \"#utility.yul\":1676:1679   */\n      dup3\n        /* \"#utility.yul\":1669:1706   */\n      mstore\n        /* \"#utility.yul\":1594:1712   */\n      pop\n      pop\n      jump\t// out\n        /* \"#utility.yul\":1718:2148   */\n    tag_22:\n        /* \"#utility.yul\":1861:1865   */\n      0x00\n        /* \"#utility.yul\":1899:1901   */\n      0x60\n        /* \"#utility.yul\":1888:1897   */\n      dup3\n        /* \"#utility.yul\":1884:1902   */\n      add\n        /* \"#utility.yul\":1876:1902   */\n      swap1\n      pop\n        /* \"#utility.yul\":1912:1977   */\n      tag_213\n        /* \"#utility.yul\":1974:1975   */\n      0x00\n        /* \"#utility.yul\":1963:1972   */\n      dup4\n        /* \"#utility.yul\":1959:1976   */\n      add\n        /* \"#utility.yul\":1950:1956   */\n      dup7\n        /* \"#utility.yul\":1912:1977   */\n      tag_145\n      jump\t// in\n    tag_213:\n        /* \"#utility.yul\":1987:2059   */\n      tag_214\n        /* \"#utility.yul\":2055:2057   */\n      0x20\n        /* \"#utility.yul\":2044:2053   */\n      dup4\n        /* \"#utility.yul\":2040:2058   */\n      add\n        /* \"#utility.yul\":2031:2037   */\n      dup6\n        /* \"#utility.yul\":1987:2059   */\n      tag_148\n      jump\t// in\n    tag_214:\n        /* \"#utility.yul\":2069:2141   */\n      tag_215\n        /* \"#utility.yul\":2137:2139   */\n      0x40\n        /* \"#utility.yul\":2126:2135   */\n      dup4\n        /* \"#utility.yul\":2122:2140   */\n      add\n        /* \"#utility.yul\":2113:2119   */\n      dup5\n        /* \"#utility.yul\":2069:2141   */\n      tag_149\n      jump\t// in\n    tag_215:\n        /* \"#utility.yul\":1718:2148   */\n      swap5\n      swap4\n      pop\n      pop\n      pop\n      pop\n      jump\t// out\n        /* \"#utility.yul\":2154:2376   */\n    tag_31:\n        /* \"#utility.yul\":2247:2251   */\n      0x00\n        /* \"#utility.yul\":2285:2287   */\n      0x20\n        /* \"#utility.yul\":2274:2283   */\n      dup3\n        /* \"#utility.yul\":2270:2288   */\n      add\n        /* \"#utility.yul\":2262:2288   */\n      swap1\n      pop\n        /* \"#utility.yul\":2298:2369   */\n      tag_217\n        /* \"#utility.yul\":2366:2367   */\n      0x00\n        /* \"#utility.yul\":2355:2364   */\n      dup4\n        /* \"#utility.yul\":2351:2368   */\n      add\n        /* \"#utility.yul\":2342:2348   */\n      dup5\n        /* \"#utility.yul\":2298:2369   */\n      tag_148\n      jump\t// in\n    tag_217:\n        /* \"#utility.yul\":2154:2376   */\n      swap3\n      swap2\n      pop\n      pop\n      jump\t// out\n        /* \"#utility.yul\":2382:2504   */\n    tag_150:\n        /* \"#utility.yul\":2455:2479   */\n      tag_219\n        /* \"#utility.yul\":2473:2478   */\n      dup2\n        /* \"#utility.yul\":2455:2479   */\n      tag_147\n      jump\t// in\n    tag_219:\n        /* \"#utility.yul\":2448:2453   */\n      dup2\n        /* \"#utility.yul\":2445:2480   */\n      eq\n        /* \"#utility.yul\":2435:2498   */\n      tag_220\n      jumpi\n        /* \"#utility.yul\":2494:2495   */\n      0x00\n        /* \"#utility.yul\":2491:2492   */\n      dup1\n        /* \"#utility.yul\":2484:2496   */\n      revert\n        /* \"#utility.yul\":2435:2498   */\n    tag_220:\n        /* \"#utility.yul\":2382:2504   */\n      pop\n      jump\t// out\n        /* \"#utility.yul\":2510:2649   */\n    tag_151:\n        /* \"#utility.yul\":2556:2561   */\n      0x00\n        /* \"#utility.yul\":2594:2600   */\n      dup2\n        /* \"#utility.yul\":2581:2601   */\n      calldataload\n        /* \"#utility.yul\":2572:2601   */\n      swap1\n      pop\n        /* \"#utility.yul\":2610:2643   */\n      tag_222\n        /* \"#utility.yul\":2637:2642   */\n      dup2\n        /* \"#utility.yul\":2610:2643   */\n      tag_150\n      jump\t// in\n    tag_222:\n        /* \"#utility.yul\":2510:2649   */\n      swap3\n      swap2\n      pop\n      pop\n      jump\t// out\n        /* \"#utility.yul\":2655:2984   */\n    tag_35:\n        /* \"#utility.yul\":2714:2720   */\n      0x00\n        /* \"#utility.yul\":2763:2765   */\n      0x20\n        /* \"#utility.yul\":2751:2760   */\n      dup3\n        /* \"#utility.yul\":2742:2749   */\n      dup5\n        /* \"#utility.yul\":2738:2761   */\n      sub\n        /* \"#utility.yul\":2734:2766   */\n      slt\n        /* \"#utility.yul\":2731:2850   */\n      iszero\n      tag_224\n      jumpi\n        /* \"#utility.yul\":2769:2848   */\n      tag_225\n      tag_139\n      jump\t// in\n    tag_225:\n        /* \"#utility.yul\":2731:2850   */\n    tag_224:\n        /* \"#utility.yul\":2889:2890   */\n      0x00\n        /* \"#utility.yul\":2914:2967   */\n      tag_226\n        /* \"#utility.yul\":2959:2966   */\n      dup5\n        /* \"#utility.yul\":2950:2956   */\n      dup3\n        /* \"#utility.yul\":2939:2948   */\n      dup6\n        /* \"#utility.yul\":2935:2957   */\n      add\n        /* \"#utility.yul\":2914:2967   */\n      tag_151\n      jump\t// in\n    tag_226:\n        /* \"#utility.yul\":2904:2967   */\n      swap2\n      pop\n        /* \"#utility.yul\":2860:2977   */\n      pop\n        /* \"#utility.yul\":2655:2984   */\n      swap3\n      swap2\n      pop\n      pop\n      jump\t// out\n        /* \"#utility.yul\":2990:3630   */\n    tag_54:\n        /* \"#utility.yul\":3183:3187   */\n      0x00\n        /* \"#utility.yul\":3221:3224   */\n      0xa0\n        /* \"#utility.yul\":3210:3219   */\n      dup3\n        /* \"#utility.yul\":3206:3225   */\n      add\n        /* \"#utility.yul\":3198:3225   */\n      swap1\n      pop\n        /* \"#utility.yul\":3235:3306   */\n      tag_228\n        /* \"#utility.yul\":3303:3304   */\n      0x00\n        /* \"#utility.yul\":3292:3301   */\n      dup4\n        /* \"#utility.yul\":3288:3305   */\n      add\n        /* \"#utility.yul\":3279:3285   */\n      dup9\n        /* \"#utility.yul\":3235:3306   */\n      tag_148\n      jump\t// in\n    tag_228:\n        /* \"#utility.yul\":3316:3388   */\n      tag_229\n        /* \"#utility.yul\":3384:3386   */\n      0x20\n        /* \"#utility.yul\":3373:3382   */\n      dup4\n        /* \"#utility.yul\":3369:3387   */\n      add\n        /* \"#utility.yul\":3360:3366   */\n      dup8\n        /* \"#utility.yul\":3316:3388   */\n      tag_149\n      jump\t// in\n    tag_229:\n        /* \"#utility.yul\":3398:3464   */\n      tag_230\n        /* \"#utility.yul\":3460:3462   */\n      0x40\n        /* \"#utility.yul\":3449:3458   */\n      dup4\n        /* \"#utility.yul\":3445:3463   */\n      add\n        /* \"#utility.yul\":3436:3442   */\n      dup7\n        /* \"#utility.yul\":3398:3464   */\n      tag_145\n      jump\t// in\n    tag_230:\n        /* \"#utility.yul\":3474:3540   */\n      tag_231\n        /* \"#utility.yul\":3536:3538   */\n      0x60\n        /* \"#utility.yul\":3525:3534   */\n      dup4\n        /* \"#utility.yul\":3521:3539   */\n      add\n        /* \"#utility.yul\":3512:3518   */\n      dup6\n        /* \"#utility.yul\":3474:3540   */\n      tag_145\n      jump\t// in\n    tag_231:\n        /* \"#utility.yul\":3550:3623   */\n      tag_232\n        /* \"#utility.yul\":3618:3621   */\n      0x80\n        /* \"#utility.yul\":3607:3616   */\n      dup4\n        /* \"#utility.yul\":3603:3622   */\n      add\n        /* \"#utility.yul\":3594:3600   */\n      dup5\n        /* \"#utility.yul\":3550:3623   */\n      tag_149\n      jump\t// in\n    tag_232:\n        /* \"#utility.yul\":2990:3630   */\n      swap7\n      swap6\n      pop\n      pop\n      pop\n      pop\n      pop\n      pop\n      jump\t// out\n        /* \"#utility.yul\":3636:3696   */\n    tag_152:\n        /* \"#utility.yul\":3664:3667   */\n      0x00\n        /* \"#utility.yul\":3685:3690   */\n      dup2\n        /* \"#utility.yul\":3678:3690   */\n      swap1\n      pop\n        /* \"#utility.yul\":3636:3696   */\n      swap2\n      swap1\n      pop\n      jump\t// out\n        /* \"#utility.yul\":3702:3844   */\n    tag_153:\n        /* \"#utility.yul\":3752:3761   */\n      0x00\n        /* \"#utility.yul\":3785:3838   */\n      tag_235\n        /* \"#utility.yul\":3803:3837   */\n      tag_236\n        /* \"#utility.yul\":3812:3836   */\n      tag_237\n        /* \"#utility.yul\":3830:3835   */\n      dup5\n        /* \"#utility.yul\":3812:3836   */\n      tag_146\n      jump\t// in\n    tag_237:\n        /* \"#utility.yul\":3803:3837   */\n      tag_152\n      jump\t// in\n    tag_236:\n        /* \"#utility.yul\":3785:3838   */\n      tag_146\n      jump\t// in\n    tag_235:\n        /* \"#utility.yul\":3772:3838   */\n      swap1\n      pop\n        /* \"#utility.yul\":3702:3844   */\n      swap2\n      swap1\n      pop\n      jump\t// out\n        /* \"#utility.yul\":3850:3976   */\n    tag_154:\n        /* \"#utility.yul\":3900:3909   */\n      0x00\n        /* \"#utility.yul\":3933:3970   */\n      tag_239\n        /* \"#utility.yul\":3964:3969   */\n      dup3\n        /* \"#utility.yul\":3933:3970   */\n      tag_153\n      jump\t// in\n    tag_239:\n        /* \"#utility.yul\":3920:3970   */\n      swap1\n      pop\n        /* \"#utility.yul\":3850:3976   */\n      swap2\n      swap1\n      pop\n      jump\t// out\n        /* \"#utility.yul\":3982:4134   */\n    tag_155:\n        /* \"#utility.yul\":4058:4067   */\n      0x00\n        /* \"#utility.yul\":4091:4128   */\n      tag_241\n        /* \"#utility.yul\":4122:4127   */\n      dup3\n        /* \"#utility.yul\":4091:4128   */\n      tag_154\n      jump\t// in\n    tag_241:\n        /* \"#utility.yul\":4078:4128   */\n      swap1\n      pop\n        /* \"#utility.yul\":3982:4134   */\n      swap2\n      swap1\n      pop\n      jump\t// out\n        /* \"#utility.yul\":4140:4323   */\n    tag_156:\n        /* \"#utility.yul\":4253:4316   */\n      tag_243\n        /* \"#utility.yul\":4310:4315   */\n      dup2\n        /* \"#utility.yul\":4253:4316   */\n      tag_155\n      jump\t// in\n    tag_243:\n        /* \"#utility.yul\":4248:4251   */\n      dup3\n        /* \"#utility.yul\":4241:4317   */\n      mstore\n        /* \"#utility.yul\":4140:4323   */\n      pop\n      pop\n      jump\t// out\n        /* \"#utility.yul\":4329:4603   */\n    tag_59:\n        /* \"#utility.yul\":4448:4452   */\n      0x00\n        /* \"#utility.yul\":4486:4488   */\n      0x20\n        /* \"#utility.yul\":4475:4484   */\n      dup3\n        /* \"#utility.yul\":4471:4489   */\n      add\n        /* \"#utility.yul\":4463:4489   */\n      swap1\n      pop\n        /* \"#utility.yul\":4499:4596   */\n      tag_245\n        /* \"#utility.yul\":4593:4594   */\n      0x00\n        /* \"#utility.yul\":4582:4591   */\n      dup4\n        /* \"#utility.yul\":4578:4595   */\n      add\n        /* \"#utility.yul\":4569:4575   */\n      dup5\n        /* \"#utility.yul\":4499:4596   */\n      tag_156\n      jump\t// in\n    tag_245:\n        /* \"#utility.yul\":4329:4603   */\n      swap3\n      swap2\n      pop\n      pop\n      jump\t// out\n        /* \"#utility.yul\":4609:4831   */\n    tag_64:\n        /* \"#utility.yul\":4702:4706   */\n      0x00\n        /* \"#utility.yul\":4740:4742   */\n      0x20\n        /* \"#utility.yul\":4729:4738   */\n      dup3\n        /* \"#utility.yul\":4725:4743   */\n      add\n        /* \"#utility.yul\":4717:4743   */\n      swap1\n      pop\n        /* \"#utility.yul\":4753:4824   */\n      tag_247\n        /* \"#utility.yul\":4821:4822   */\n      0x00\n        /* \"#utility.yul\":4810:4819   */\n      dup4\n        /* \"#utility.yul\":4806:4823   */\n      add\n        /* \"#utility.yul\":4797:4803   */\n      dup5\n        /* \"#utility.yul\":4753:4824   */\n      tag_149\n      jump\t// in\n    tag_247:\n        /* \"#utility.yul\":4609:4831   */\n      swap3\n      swap2\n      pop\n      pop\n      jump\t// out\n        /* \"#utility.yul\":4837:4980   */\n    tag_157:\n        /* \"#utility.yul\":4894:4899   */\n      0x00\n        /* \"#utility.yul\":4925:4931   */\n      dup2\n        /* \"#utility.yul\":4919:4932   */\n      mload\n        /* \"#utility.yul\":4910:4932   */\n      swap1\n      pop\n        /* \"#utility.yul\":4941:4974   */\n      tag_249\n        /* \"#utility.yul\":4968:4973   */\n      dup2\n        /* \"#utility.yul\":4941:4974   */\n      tag_142\n      jump\t// in\n    tag_249:\n        /* \"#utility.yul\":4837:4980   */\n      swap3\n      swap2\n      pop\n      pop\n      jump\t// out\n        /* \"#utility.yul\":4986:5337   */\n    tag_71:\n        /* \"#utility.yul\":5056:5062   */\n      0x00\n        /* \"#utility.yul\":5105:5107   */\n      0x20\n        /* \"#utility.yul\":5093:5102   */\n      dup3\n        /* \"#utility.yul\":5084:5091   */\n      dup5\n        /* \"#utility.yul\":5080:5103   */\n      sub\n        /* \"#utility.yul\":5076:5108   */\n      slt\n        /* \"#utility.yul\":5073:5192   */\n      iszero\n      tag_251\n      jumpi\n        /* \"#utility.yul\":5111:5190   */\n      tag_252\n      tag_139\n      jump\t// in\n    tag_252:\n        /* \"#utility.yul\":5073:5192   */\n    tag_251:\n        /* \"#utility.yul\":5231:5232   */\n      0x00\n        /* \"#utility.yul\":5256:5320   */\n      tag_253\n        /* \"#utility.yul\":5312:5319   */\n      dup5\n        /* \"#utility.yul\":5303:5309   */\n      dup3\n        /* \"#utility.yul\":5292:5301   */\n      dup6\n        /* \"#utility.yul\":5288:5310   */\n      add\n        /* \"#utility.yul\":5256:5320   */\n      tag_157\n      jump\t// in\n    tag_253:\n        /* \"#utility.yul\":5246:5320   */\n      swap2\n      pop\n        /* \"#utility.yul\":5202:5330   */\n      pop\n        /* \"#utility.yul\":4986:5337   */\n      swap3\n      swap2\n      pop\n      pop\n      jump\t// out\n        /* \"#utility.yul\":5343:5512   */\n    tag_158:\n        /* \"#utility.yul\":5427:5438   */\n      0x00\n        /* \"#utility.yul\":5461:5467   */\n      dup3\n        /* \"#utility.yul\":5456:5459   */\n      dup3\n        /* \"#utility.yul\":5449:5468   */\n      mstore\n        /* \"#utility.yul\":5501:5505   */\n      0x20\n        /* \"#utility.yul\":5496:5499   */\n      dup3\n        /* \"#utility.yul\":5492:5506   */\n      add\n        /* \"#utility.yul\":5477:5506   */\n      swap1\n      pop\n        /* \"#utility.yul\":5343:5512   */\n      swap3\n      swap2\n      pop\n      pop\n      jump\t// out\n        /* \"#utility.yul\":5518:5692   */\n    tag_159:\n        /* \"#utility.yul\":5658:5684   */\n      0x4e6f20626f756e747920666f7220746869732069737375650000000000000000\n        /* \"#utility.yul\":5654:5655   */\n      0x00\n        /* \"#utility.yul\":5646:5652   */\n      dup3\n        /* \"#utility.yul\":5642:5656   */\n      add\n        /* \"#utility.yul\":5635:5685   */\n      mstore\n        /* \"#utility.yul\":5518:5692   */\n      pop\n      jump\t// out\n        /* \"#utility.yul\":5698:6064   */\n    tag_160:\n        /* \"#utility.yul\":5840:5843   */\n      0x00\n        /* \"#utility.yul\":5861:5928   */\n      tag_257\n        /* \"#utility.yul\":5925:5927   */\n      0x18\n        /* \"#utility.yul\":5920:5923   */\n      dup4\n        /* \"#utility.yul\":5861:5928   */\n      tag_158\n      jump\t// in\n    tag_257:\n        /* \"#utility.yul\":5854:5928   */\n      swap2\n      pop\n        /* \"#utility.yul\":5937:6030   */\n      tag_258\n        /* \"#utility.yul\":6026:6029   */\n      dup3\n        /* \"#utility.yul\":5937:6030   */\n      tag_159\n      jump\t// in\n    tag_258:\n        /* \"#utility.yul\":6055:6057   */\n      0x20\n        /* \"#utility.yul\":6050:6053   */\n      dup3\n        /* \"#utility.yul\":6046:6058   */\n      add\n        /* \"#utility.yul\":6039:6058   */\n      swap1\n      pop\n        /* \"#utility.yul\":5698:6064   */\n      swap2\n      swap1\n      pop\n      jump\t// out\n        /* \"#utility.yul\":6070:6489   */\n    tag_74:\n        /* \"#utility.yul\":6236:6240   */\n      0x00\n        /* \"#utility.yul\":6274:6276   */\n      0x20\n        /* \"#utility.yul\":6263:6272   */\n      dup3\n        /* \"#utility.yul\":6259:6277   */\n      add\n        /* \"#utility.yul\":6251:6277   */\n      swap1\n      pop\n        /* \"#utility.yul\":6323:6332   */\n      dup2\n        /* \"#utility.yul\":6317:6321   */\n      dup2\n        /* \"#utility.yul\":6313:6333   */\n      sub\n        /* \"#utility.yul\":6309:6310   */\n      0x00\n        /* \"#utility.yul\":6298:6307   */\n      dup4\n        /* \"#utility.yul\":6294:6311   */\n      add\n        /* \"#utility.yul\":6287:6334   */\n      mstore\n        /* \"#utility.yul\":6351:6482   */\n      tag_260\n        /* \"#utility.yul\":6477:6481   */\n      dup2\n        /* \"#utility.yul\":6351:6482   */\n      tag_160\n      jump\t// in\n    tag_260:\n        /* \"#utility.yul\":6343:6482   */\n      swap1\n      pop\n        /* \"#utility.yul\":6070:6489   */\n      swap2\n      swap1\n      pop\n      jump\t// out\n        /* \"#utility.yul\":6495:6638   */\n    tag_161:\n        /* \"#utility.yul\":6552:6557   */\n      0x00\n        /* \"#utility.yul\":6583:6589   */\n      dup2\n        /* \"#utility.yul\":6577:6590   */\n      mload\n        /* \"#utility.yul\":6568:6590   */\n      swap1\n      pop\n        /* \"#utility.yul\":6599:6632   */\n      tag_262\n        /* \"#utility.yul\":6626:6631   */\n      dup2\n        /* \"#utility.yul\":6599:6632   */\n      tag_150\n      jump\t// in\n    tag_262:\n        /* \"#utility.yul\":6495:6638   */\n      swap3\n      swap2\n      pop\n      pop\n      jump\t// out\n        /* \"#utility.yul\":6644:6760   */\n    tag_162:\n        /* \"#utility.yul\":6714:6735   */\n      tag_264\n        /* \"#utility.yul\":6729:6734   */\n      dup2\n        /* \"#utility.yul\":6714:6735   */\n      tag_144\n      jump\t// in\n    tag_264:\n        /* \"#utility.yul\":6707:6712   */\n      dup2\n        /* \"#utility.yul\":6704:6736   */\n      eq\n        /* \"#utility.yul\":6694:6754   */\n      tag_265\n      jumpi\n        /* \"#utility.yul\":6750:6751   */\n      0x00\n        /* \"#utility.yul\":6747:6748   */\n      dup1\n        /* \"#utility.yul\":6740:6752   */\n      revert\n        /* \"#utility.yul\":6694:6754   */\n    tag_265:\n        /* \"#utility.yul\":6644:6760   */\n      pop\n      jump\t// out\n        /* \"#utility.yul\":6766:6903   */\n    tag_163:\n        /* \"#utility.yul\":6820:6825   */\n      0x00\n        /* \"#utility.yul\":6851:6857   */\n      dup2\n        /* \"#utility.yul\":6845:6858   */\n      mload\n        /* \"#utility.yul\":6836:6858   */\n      swap1\n      pop\n        /* \"#utility.yul\":6867:6897   */\n      tag_267\n        /* \"#utility.yul\":6891:6896   */\n      dup2\n        /* \"#utility.yul\":6867:6897   */\n      tag_162\n      jump\t// in\n    tag_267:\n        /* \"#utility.yul\":6766:6903   */\n      swap3\n      swap2\n      pop\n      pop\n      jump\t// out\n        /* \"#utility.yul\":6909:7723   */\n    tag_79:\n        /* \"#utility.yul\":7003:7009   */\n      0x00\n        /* \"#utility.yul\":7011:7017   */\n      dup1\n        /* \"#utility.yul\":7019:7025   */\n      0x00\n        /* \"#utility.yul\":7027:7033   */\n      dup1\n        /* \"#utility.yul\":7076:7079   */\n      0x80\n        /* \"#utility.yul\":7064:7073   */\n      dup6\n        /* \"#utility.yul\":7055:7062   */\n      dup8\n        /* \"#utility.yul\":7051:7074   */\n      sub\n        /* \"#utility.yul\":7047:7080   */\n      slt\n        /* \"#utility.yul\":7044:7164   */\n      iszero\n      tag_269\n      jumpi\n        /* \"#utility.yul\":7083:7162   */\n      tag_270\n      tag_139\n      jump\t// in\n    tag_270:\n        /* \"#utility.yul\":7044:7164   */\n    tag_269:\n        /* \"#utility.yul\":7203:7204   */\n      0x00\n        /* \"#utility.yul\":7228:7292   */\n      tag_271\n        /* \"#utility.yul\":7284:7291   */\n      dup8\n        /* \"#utility.yul\":7275:7281   */\n      dup3\n        /* \"#utility.yul\":7264:7273   */\n      dup9\n        /* \"#utility.yul\":7260:7282   */\n      add\n        /* \"#utility.yul\":7228:7292   */\n      tag_157\n      jump\t// in\n    tag_271:\n        /* \"#utility.yul\":7218:7292   */\n      swap5\n      pop\n        /* \"#utility.yul\":7174:7302   */\n      pop\n        /* \"#utility.yul\":7341:7343   */\n      0x20\n        /* \"#utility.yul\":7367:7431   */\n      tag_272\n        /* \"#utility.yul\":7423:7430   */\n      dup8\n        /* \"#utility.yul\":7414:7420   */\n      dup3\n        /* \"#utility.yul\":7403:7412   */\n      dup9\n        /* \"#utility.yul\":7399:7421   */\n      add\n        /* \"#utility.yul\":7367:7431   */\n      tag_161\n      jump\t// in\n    tag_272:\n        /* \"#utility.yul\":7357:7431   */\n      swap4\n      pop\n        /* \"#utility.yul\":7312:7441   */\n      pop\n        /* \"#utility.yul\":7480:7482   */\n      0x40\n        /* \"#utility.yul\":7506:7570   */\n      tag_273\n        /* \"#utility.yul\":7562:7569   */\n      dup8\n        /* \"#utility.yul\":7553:7559   */\n      dup3\n        /* \"#utility.yul\":7542:7551   */\n      dup9\n        /* \"#utility.yul\":7538:7560   */\n      add\n        /* \"#utility.yul\":7506:7570   */\n      tag_157\n      jump\t// in\n    tag_273:\n        /* \"#utility.yul\":7496:7570   */\n      swap3\n      pop\n        /* \"#utility.yul\":7451:7580   */\n      pop\n        /* \"#utility.yul\":7619:7621   */\n      0x60\n        /* \"#utility.yul\":7645:7706   */\n      tag_274\n        /* \"#utility.yul\":7698:7705   */\n      dup8\n        /* \"#utility.yul\":7689:7695   */\n      dup3\n        /* \"#utility.yul\":7678:7687   */\n      dup9\n        /* \"#utility.yul\":7674:7696   */\n      add\n        /* \"#utility.yul\":7645:7706   */\n      tag_163\n      jump\t// in\n    tag_274:\n        /* \"#utility.yul\":7635:7706   */\n      swap2\n      pop\n        /* \"#utility.yul\":7590:7716   */\n      pop\n        /* \"#utility.yul\":6909:7723   */\n      swap3\n      swap6\n      swap2\n      swap5\n      pop\n      swap3\n      pop\n      jump\t// out\n        /* \"#utility.yul\":7729:7899   */\n    tag_164:\n        /* \"#utility.yul\":7869:7891   */\n      0x426f756e7479206973206e6f7420616374697665000000000000000000000000\n        /* \"#utility.yul\":7865:7866   */\n      0x00\n        /* \"#utility.yul\":7857:7863   */\n      dup3\n        /* \"#utility.yul\":7853:7867   */\n      add\n        /* \"#utility.yul\":7846:7892   */\n      mstore\n        /* \"#utility.yul\":7729:7899   */\n      pop\n      jump\t// out\n        /* \"#utility.yul\":7905:8271   */\n    tag_165:\n        /* \"#utility.yul\":8047:8050   */\n      0x00\n        /* \"#utility.yul\":8068:8135   */\n      tag_277\n        /* \"#utility.yul\":8132:8134   */\n      0x14\n        /* \"#utility.yul\":8127:8130   */\n      dup4\n        /* \"#utility.yul\":8068:8135   */\n      tag_158\n      jump\t// in\n    tag_277:\n        /* \"#utility.yul\":8061:8135   */\n      swap2\n      pop\n        /* \"#utility.yul\":8144:8237   */\n      tag_278\n        /* \"#utility.yul\":8233:8236   */\n      dup3\n        /* \"#utility.yul\":8144:8237   */\n      tag_164\n      jump\t// in\n    tag_278:\n        /* \"#utility.yul\":8262:8264   */\n      0x20\n        /* \"#utility.yul\":8257:8260   */\n      dup3\n        /* \"#utility.yul\":8253:8265   */\n      add\n        /* \"#utility.yul\":8246:8265   */\n      swap1\n      pop\n        /* \"#utility.yul\":7905:8271   */\n      swap2\n      swap1\n      pop\n      jump\t// out\n        /* \"#utility.yul\":8277:8696   */\n    tag_82:\n        /* \"#utility.yul\":8443:8447   */\n      0x00\n        /* \"#utility.yul\":8481:8483   */\n      0x20\n        /* \"#utility.yul\":8470:8479   */\n      dup3\n        /* \"#utility.yul\":8466:8484   */\n      add\n        /* \"#utility.yul\":8458:8484   */\n      swap1\n      pop\n        /* \"#utility.yul\":8530:8539   */\n      dup2\n        /* \"#utility.yul\":8524:8528   */\n      dup2\n        /* \"#utility.yul\":8520:8540   */\n      sub\n        /* \"#utility.yul\":8516:8517   */\n      0x00\n        /* \"#utility.yul\":8505:8514   */\n      dup4\n        /* \"#utility.yul\":8501:8518   */\n      add\n        /* \"#utility.yul\":8494:8541   */\n      mstore\n        /* \"#utility.yul\":8558:8689   */\n      tag_280\n        /* \"#utility.yul\":8684:8688   */\n      dup2\n        /* \"#utility.yul\":8558:8689   */\n      tag_165\n      jump\t// in\n    tag_280:\n        /* \"#utility.yul\":8550:8689   */\n      swap1\n      pop\n        /* \"#utility.yul\":8277:8696   */\n      swap2\n      swap1\n      pop\n      jump\t// out\n        /* \"#utility.yul\":8702:8874   */\n    tag_166:\n        /* \"#utility.yul\":8842:8866   */\n      0x426f756e747920616c726561647920636c61696d656400000000000000000000\n        /* \"#utility.yul\":8838:8839   */\n      0x00\n        /* \"#utility.yul\":8830:8836   */\n      dup3\n        /* \"#utility.yul\":8826:8840   */\n      add\n        /* \"#utility.yul\":8819:8867   */\n      mstore\n        /* \"#utility.yul\":8702:8874   */\n      pop\n      jump\t// out\n        /* \"#utility.yul\":8880:9246   */\n    tag_167:\n        /* \"#utility.yul\":9022:9025   */\n      0x00\n        /* \"#utility.yul\":9043:9110   */\n      tag_283\n        /* \"#utility.yul\":9107:9109   */\n      0x16\n        /* \"#utility.yul\":9102:9105   */\n      dup4\n        /* \"#utility.yul\":9043:9110   */\n      tag_158\n      jump\t// in\n    tag_283:\n        /* \"#utility.yul\":9036:9110   */\n      swap2\n      pop\n        /* \"#utility.yul\":9119:9212   */\n      tag_284\n        /* \"#utility.yul\":9208:9211   */\n      dup3\n        /* \"#utility.yul\":9119:9212   */\n      tag_166\n      jump\t// in\n    tag_284:\n        /* \"#utility.yul\":9237:9239   */\n      0x20\n        /* \"#utility.yul\":9232:9235   */\n      dup3\n        /* \"#utility.yul\":9228:9240   */\n      add\n        /* \"#utility.yul\":9221:9240   */\n      swap1\n      pop\n        /* \"#utility.yul\":8880:9246   */\n      swap2\n      swap1\n      pop\n      jump\t// out\n        /* \"#utility.yul\":9252:9671   */\n    tag_85:\n        /* \"#utility.yul\":9418:9422   */\n      0x00\n        /* \"#utility.yul\":9456:9458   */\n      0x20\n        /* \"#utility.yul\":9445:9454   */\n      dup3\n        /* \"#utility.yul\":9441:9459   */\n      add\n        /* \"#utility.yul\":9433:9459   */\n      swap1\n      pop\n        /* \"#utility.yul\":9505:9514   */\n      dup2\n        /* \"#utility.yul\":9499:9503   */\n      dup2\n        /* \"#utility.yul\":9495:9515   */\n      sub\n        /* \"#utility.yul\":9491:9492   */\n      0x00\n        /* \"#utility.yul\":9480:9489   */\n      dup4\n        /* \"#utility.yul\":9476:9493   */\n      add\n        /* \"#utility.yul\":9469:9516   */\n      mstore\n        /* \"#utility.yul\":9533:9664   */\n      tag_286\n        /* \"#utility.yul\":9659:9663   */\n      dup2\n        /* \"#utility.yul\":9533:9664   */\n      tag_167\n      jump\t// in\n    tag_286:\n        /* \"#utility.yul\":9525:9664   */\n      swap1\n      pop\n        /* \"#utility.yul\":9252:9671   */\n      swap2\n      swap1\n      pop\n      jump\t// out\n        /* \"#utility.yul\":9677:9897   */\n    tag_168:\n        /* \"#utility.yul\":9817:9851   */\n      0x4f6e6c79206f776e65722063616e2063616c6c20746869732066756e6374696f\n        /* \"#utility.yul\":9813:9814   */\n      0x00\n        /* \"#utility.yul\":9805:9811   */\n      dup3\n        /* \"#utility.yul\":9801:9815   */\n      add\n        /* \"#utility.yul\":9794:9852   */\n      mstore\n        /* \"#utility.yul\":9886:9889   */\n      0x6e00000000000000000000000000000000000000000000000000000000000000\n        /* \"#utility.yul\":9881:9883   */\n      0x20\n        /* \"#utility.yul\":9873:9879   */\n      dup3\n        /* \"#utility.yul\":9869:9884   */\n      add\n        /* \"#utility.yul\":9862:9890   */\n      mstore\n        /* \"#utility.yul\":9677:9897   */\n      pop\n      jump\t// out\n        /* \"#utility.yul\":9903:10269   */\n    tag_169:\n        /* \"#utility.yul\":10045:10048   */\n      0x00\n        /* \"#utility.yul\":10066:10133   */\n      tag_289\n        /* \"#utility.yul\":10130:10132   */\n      0x21\n        /* \"#utility.yul\":10125:10128   */\n      dup4\n        /* \"#utility.yul\":10066:10133   */\n      tag_158\n      jump\t// in\n    tag_289:\n        /* \"#utility.yul\":10059:10133   */\n      swap2\n      pop\n        /* \"#utility.yul\":10142:10235   */\n      tag_290\n        /* \"#utility.yul\":10231:10234   */\n      dup3\n        /* \"#utility.yul\":10142:10235   */\n      tag_168\n      jump\t// in\n    tag_290:\n        /* \"#utility.yul\":10260:10262   */\n      0x40\n        /* \"#utility.yul\":10255:10258   */\n      dup3\n        /* \"#utility.yul\":10251:10263   */\n      add\n        /* \"#utility.yul\":10244:10263   */\n      swap1\n      pop\n        /* \"#utility.yul\":9903:10269   */\n      swap2\n      swap1\n      pop\n      jump\t// out\n        /* \"#utility.yul\":10275:10694   */\n    tag_95:\n        /* \"#utility.yul\":10441:10445   */\n      0x00\n        /* \"#utility.yul\":10479:10481   */\n      0x20\n        /* \"#utility.yul\":10468:10477   */\n      dup3\n        /* \"#utility.yul\":10464:10482   */\n      add\n        /* \"#utility.yul\":10456:10482   */\n      swap1\n      pop\n        /* \"#utility.yul\":10528:10537   */\n      dup2\n        /* \"#utility.yul\":10522:10526   */\n      dup2\n        /* \"#utility.yul\":10518:10538   */\n      sub\n        /* \"#utility.yul\":10514:10515   */\n      0x00\n        /* \"#utility.yul\":10503:10512   */\n      dup4\n        /* \"#utility.yul\":10499:10516   */\n      add\n        /* \"#utility.yul\":10492:10539   */\n      mstore\n        /* \"#utility.yul\":10556:10687   */\n      tag_292\n        /* \"#utility.yul\":10682:10686   */\n      dup2\n        /* \"#utility.yul\":10556:10687   */\n      tag_169\n      jump\t// in\n    tag_292:\n        /* \"#utility.yul\":10548:10687   */\n      swap1\n      pop\n        /* \"#utility.yul\":10275:10694   */\n      swap2\n      swap1\n      pop\n      jump\t// out\n        /* \"#utility.yul\":10700:10875   */\n    tag_170:\n        /* \"#utility.yul\":10840:10867   */\n      0x496e76616c69642076616c696461746f72206164647265737300000000000000\n        /* \"#utility.yul\":10836:10837   */\n      0x00\n        /* \"#utility.yul\":10828:10834   */\n      dup3\n        /* \"#utility.yul\":10824:10838   */\n      add\n        /* \"#utility.yul\":10817:10868   */\n      mstore\n        /* \"#utility.yul\":10700:10875   */\n      pop\n      jump\t// out\n        /* \"#utility.yul\":10881:11247   */\n    tag_171:\n        /* \"#utility.yul\":11023:11026   */\n      0x00\n        /* \"#utility.yul\":11044:11111   */\n      tag_295\n        /* \"#utility.yul\":11108:11110   */\n      0x19\n        /* \"#utility.yul\":11103:11106   */\n      dup4\n        /* \"#utility.yul\":11044:11111   */\n      tag_158\n      jump\t// in\n    tag_295:\n        /* \"#utility.yul\":11037:11111   */\n      swap2\n      pop\n        /* \"#utility.yul\":11120:11213   */\n      tag_296\n        /* \"#utility.yul\":11209:11212   */\n      dup3\n        /* \"#utility.yul\":11120:11213   */\n      tag_170\n      jump\t// in\n    tag_296:\n        /* \"#utility.yul\":11238:11240   */\n      0x20\n        /* \"#utility.yul\":11233:11236   */\n      dup3\n        /* \"#utility.yul\":11229:11241   */\n      add\n        /* \"#utility.yul\":11222:11241   */\n      swap1\n      pop\n        /* \"#utility.yul\":10881:11247   */\n      swap2\n      swap1\n      pop\n      jump\t// out\n        /* \"#utility.yul\":11253:11672   */\n    tag_99:\n        /* \"#utility.yul\":11419:11423   */\n      0x00\n        /* \"#utility.yul\":11457:11459   */\n      0x20\n        /* \"#utility.yul\":11446:11455   */\n      dup3\n        /* \"#utility.yul\":11442:11460   */\n      add\n        /* \"#utility.yul\":11434:11460   */\n      swap1\n      pop\n        /* \"#utility.yul\":11506:11515   */\n      dup2\n        /* \"#utility.yul\":11500:11504   */\n      dup2\n        /* \"#utility.yul\":11496:11516   */\n      sub\n        /* \"#utility.yul\":11492:11493   */\n      0x00\n        /* \"#utility.yul\":11481:11490   */\n      dup4\n        /* \"#utility.yul\":11477:11494   */\n      add\n        /* \"#utility.yul\":11470:11517   */\n      mstore\n        /* \"#utility.yul\":11534:11665   */\n      tag_298\n        /* \"#utility.yul\":11660:11664   */\n      dup2\n        /* \"#utility.yul\":11534:11665   */\n      tag_171\n      jump\t// in\n    tag_298:\n        /* \"#utility.yul\":11526:11665   */\n      swap1\n      pop\n        /* \"#utility.yul\":11253:11672   */\n      swap2\n      swap1\n      pop\n      jump\t// out\n        /* \"#utility.yul\":11678:11846   */\n    tag_172:\n        /* \"#utility.yul\":11818:11838   */\n      0x426f756e7479206e6f7420636c61696d65640000000000000000000000000000\n        /* \"#utility.yul\":11814:11815   */\n      0x00\n        /* \"#utility.yul\":11806:11812   */\n      dup3\n        /* \"#utility.yul\":11802:11816   */\n      add\n        /* \"#utility.yul\":11795:11839   */\n      mstore\n        /* \"#utility.yul\":11678:11846   */\n      pop\n      jump\t// out\n        /* \"#utility.yul\":11852:12218   */\n    tag_173:\n        /* \"#utility.yul\":11994:11997   */\n      0x00\n        /* \"#utility.yul\":12015:12082   */\n      tag_301\n        /* \"#utility.yul\":12079:12081   */\n      0x12\n        /* \"#utility.yul\":12074:12077   */\n      dup4\n        /* \"#utility.yul\":12015:12082   */\n      tag_158\n      jump\t// in\n    tag_301:\n        /* \"#utility.yul\":12008:12082   */\n      swap2\n      pop\n        /* \"#utility.yul\":12091:12184   */\n      tag_302\n        /* \"#utility.yul\":12180:12183   */\n      dup3\n        /* \"#utility.yul\":12091:12184   */\n      tag_172\n      jump\t// in\n    tag_302:\n        /* \"#utility.yul\":12209:12211   */\n      0x20\n        /* \"#utility.yul\":12204:12207   */\n      dup3\n        /* \"#utility.yul\":12200:12212   */\n      add\n        /* \"#utility.yul\":12193:12212   */\n      swap1\n      pop\n        /* \"#utility.yul\":11852:12218   */\n      swap2\n      swap1\n      pop\n      jump\t// out\n        /* \"#utility.yul\":12224:12643   */\n    tag_103:\n        /* \"#utility.yul\":12390:12394   */\n      0x00\n        /* \"#utility.yul\":12428:12430   */\n      0x20\n        /* \"#utility.yul\":12417:12426   */\n      dup3\n        /* \"#utility.yul\":12413:12431   */\n      add\n        /* \"#utility.yul\":12405:12431   */\n      swap1\n      pop\n        /* \"#utility.yul\":12477:12486   */\n      dup2\n        /* \"#utility.yul\":12471:12475   */\n      dup2\n        /* \"#utility.yul\":12467:12487   */\n      sub\n        /* \"#utility.yul\":12463:12464   */\n      0x00\n        /* \"#utility.yul\":12452:12461   */\n      dup4\n        /* \"#utility.yul\":12448:12465   */\n      add\n        /* \"#utility.yul\":12441:12488   */\n      mstore\n        /* \"#utility.yul\":12505:12636   */\n      tag_304\n        /* \"#utility.yul\":12631:12635   */\n      dup2\n        /* \"#utility.yul\":12505:12636   */\n      tag_173\n      jump\t// in\n    tag_304:\n        /* \"#utility.yul\":12497:12636   */\n      swap1\n      pop\n        /* \"#utility.yul\":12224:12643   */\n      swap2\n      swap1\n      pop\n      jump\t// out\n        /* \"#utility.yul\":12649:12818   */\n    tag_174:\n        /* \"#utility.yul\":12789:12810   */\n      0x426f756e747920616c7265616479207061696400000000000000000000000000\n        /* \"#utility.yul\":12785:12786   */\n      0x00\n        /* \"#utility.yul\":12777:12783   */\n      dup3\n        /* \"#utility.yul\":12773:12787   */\n      add\n        /* \"#utility.yul\":12766:12811   */\n      mstore\n        /* \"#utility.yul\":12649:12818   */\n      pop\n      jump\t// out\n        /* \"#utility.yul\":12824:13190   */\n    tag_175:\n        /* \"#utility.yul\":12966:12969   */\n      0x00\n        /* \"#utility.yul\":12987:13054   */\n      tag_307\n        /* \"#utility.yul\":13051:13053   */\n      0x13\n        /* \"#utility.yul\":13046:13049   */\n      dup4\n        /* \"#utility.yul\":12987:13054   */\n      tag_158\n      jump\t// in\n    tag_307:\n        /* \"#utility.yul\":12980:13054   */\n      swap2\n      pop\n        /* \"#utility.yul\":13063:13156   */\n      tag_308\n        /* \"#utility.yul\":13152:13155   */\n      dup3\n        /* \"#utility.yul\":13063:13156   */\n      tag_174\n      jump\t// in\n    tag_308:\n        /* \"#utility.yul\":13181:13183   */\n      0x20\n        /* \"#utility.yul\":13176:13179   */\n      dup3\n        /* \"#utility.yul\":13172:13184   */\n      add\n        /* \"#utility.yul\":13165:13184   */\n      swap1\n      pop\n        /* \"#utility.yul\":12824:13190   */\n      swap2\n      swap1\n      pop\n      jump\t// out\n        /* \"#utility.yul\":13196:13615   */\n    tag_106:\n        /* \"#utility.yul\":13362:13366   */\n      0x00\n        /* \"#utility.yul\":13400:13402   */\n      0x20\n        /* \"#utility.yul\":13389:13398   */\n      dup3\n        /* \"#utility.yul\":13385:13403   */\n      add\n        /* \"#utility.yul\":13377:13403   */\n      swap1\n      pop\n        /* \"#utility.yul\":13449:13458   */\n      dup2\n        /* \"#utility.yul\":13443:13447   */\n      dup2\n        /* \"#utility.yul\":13439:13459   */\n      sub\n        /* \"#utility.yul\":13435:13436   */\n      0x00\n        /* \"#utility.yul\":13424:13433   */\n      dup4\n        /* \"#utility.yul\":13420:13437   */\n      add\n        /* \"#utility.yul\":13413:13460   */\n      mstore\n        /* \"#utility.yul\":13477:13608   */\n      tag_310\n        /* \"#utility.yul\":13603:13607   */\n      dup2\n        /* \"#utility.yul\":13477:13608   */\n      tag_175\n      jump\t// in\n    tag_310:\n        /* \"#utility.yul\":13469:13608   */\n      swap1\n      pop\n        /* \"#utility.yul\":13196:13615   */\n      swap2\n      swap1\n      pop\n      jump\t// out\n        /* \"#utility.yul\":13621:13801   */\n    tag_176:\n        /* \"#utility.yul\":13669:13746   */\n      0x4e487b7100000000000000000000000000000000000000000000000000000000\n        /* \"#utility.yul\":13666:13667   */\n      0x00\n        /* \"#utility.yul\":13659:13747   */\n      mstore\n        /* \"#utility.yul\":13766:13770   */\n      0x11\n        /* \"#utility.yul\":13763:13764   */\n      0x04\n        /* \"#utility.yul\":13756:13771   */\n      mstore\n        /* \"#utility.yul\":13790:13794   */\n      0x24\n        /* \"#utility.yul\":13787:13788   */\n      0x00\n        /* \"#utility.yul\":13780:13795   */\n      revert\n        /* \"#utility.yul\":13807:13998   */\n    tag_108:\n        /* \"#utility.yul\":13847:13850   */\n      0x00\n        /* \"#utility.yul\":13866:13886   */\n      tag_313\n        /* \"#utility.yul\":13884:13885   */\n      dup3\n        /* \"#utility.yul\":13866:13886   */\n      tag_141\n      jump\t// in\n    tag_313:\n        /* \"#utility.yul\":13861:13886   */\n      swap2\n      pop\n        /* \"#utility.yul\":13900:13920   */\n      tag_314\n        /* \"#utility.yul\":13918:13919   */\n      dup4\n        /* \"#utility.yul\":13900:13920   */\n      tag_141\n      jump\t// in\n    tag_314:\n        /* \"#utility.yul\":13895:13920   */\n      swap3\n      pop\n        /* \"#utility.yul\":13943:13944   */\n      dup3\n        /* \"#utility.yul\":13940:13941   */\n      dup3\n        /* \"#utility.yul\":13936:13945   */\n      add\n        /* \"#utility.yul\":13929:13945   */\n      swap1\n      pop\n        /* \"#utility.yul\":13964:13967   */\n      dup1\n        /* \"#utility.yul\":13961:13962   */\n      dup3\n        /* \"#utility.yul\":13958:13968   */\n      gt\n        /* \"#utility.yul\":13955:13991   */\n      iszero\n      tag_315\n      jumpi\n        /* \"#utility.yul\":13971:13989   */\n      tag_316\n      tag_176\n      jump\t// in\n    tag_316:\n        /* \"#utility.yul\":13955:13991   */\n    tag_315:\n        /* \"#utility.yul\":13807:13998   */\n      swap3\n      swap2\n      pop\n      pop\n      jump\t// out\n        /* \"#utility.yul\":14004:14167   */\n    tag_177:\n        /* \"#utility.yul\":14144:14159   */\n      0x436c61696d206578706972656400000000000000000000000000000000000000\n        /* \"#utility.yul\":14140:14141   */\n      0x00\n        /* \"#utility.yul\":14132:14138   */\n      dup3\n        /* \"#utility.yul\":14128:14142   */\n      add\n        /* \"#utility.yul\":14121:14160   */\n      mstore\n        /* \"#utility.yul\":14004:14167   */\n      pop\n      jump\t// out\n        /* \"#utility.yul\":14173:14539   */\n    tag_178:\n        /* \"#utility.yul\":14315:14318   */\n      0x00\n        /* \"#utility.yul\":14336:14403   */\n      tag_319\n        /* \"#utility.yul\":14400:14402   */\n      0x0d\n        /* \"#utility.yul\":14395:14398   */\n      dup4\n        /* \"#utility.yul\":14336:14403   */\n      tag_158\n      jump\t// in\n    tag_319:\n        /* \"#utility.yul\":14329:14403   */\n      swap2\n      pop\n        /* \"#utility.yul\":14412:14505   */\n      tag_320\n        /* \"#utility.yul\":14501:14504   */\n      dup3\n        /* \"#utility.yul\":14412:14505   */\n      tag_177\n      jump\t// in\n    tag_320:\n        /* \"#utility.yul\":14530:14532   */\n      0x20\n        /* \"#utility.yul\":14525:14528   */\n      dup3\n        /* \"#utility.yul\":14521:14533   */\n      add\n        /* \"#utility.yul\":14514:14533   */\n      swap1\n      pop\n        /* \"#utility.yul\":14173:14539   */\n      swap2\n      swap1\n      pop\n      jump\t// out\n        /* \"#utility.yul\":14545:14964   */\n    tag_111:\n        /* \"#utility.yul\":14711:14715   */\n      0x00\n        /* \"#utility.yul\":14749:14751   */\n      0x20\n        /* \"#utility.yul\":14738:14747   */\n      dup3\n        /* \"#utility.yul\":14734:14752   */\n      add\n        /* \"#utility.yul\":14726:14752   */\n      swap1\n      pop\n        /* \"#utility.yul\":14798:14807   */\n      dup2\n        /* \"#utility.yul\":14792:14796   */\n      dup2\n        /* \"#utility.yul\":14788:14808   */\n      sub\n        /* \"#utility.yul\":14784:14785   */\n      0x00\n        /* \"#utility.yul\":14773:14782   */\n      dup4\n        /* \"#utility.yul\":14769:14786   */\n      add\n        /* \"#utility.yul\":14762:14809   */\n      mstore\n        /* \"#utility.yul\":14826:14957   */\n      tag_322\n        /* \"#utility.yul\":14952:14956   */\n      dup2\n        /* \"#utility.yul\":14826:14957   */\n      tag_178\n      jump\t// in\n    tag_322:\n        /* \"#utility.yul\":14818:14957   */\n      swap1\n      pop\n        /* \"#utility.yul\":14545:14964   */\n      swap2\n      swap1\n      pop\n      jump\t// out\n        /* \"#utility.yul\":14970:15302   */\n    tag_113:\n        /* \"#utility.yul\":15091:15095   */\n      0x00\n        /* \"#utility.yul\":15129:15131   */\n      0x40\n        /* \"#utility.yul\":15118:15127   */\n      dup3\n        /* \"#utility.yul\":15114:15132   */\n      add\n        /* \"#utility.yul\":15106:15132   */\n      swap1\n      pop\n        /* \"#utility.yul\":15142:15213   */\n      tag_324\n        /* \"#utility.yul\":15210:15211   */\n      0x00\n        /* \"#utility.yul\":15199:15208   */\n      dup4\n        /* \"#utility.yul\":15195:15212   */\n      add\n        /* \"#utility.yul\":15186:15192   */\n      dup6\n        /* \"#utility.yul\":15142:15213   */\n      tag_149\n      jump\t// in\n    tag_324:\n        /* \"#utility.yul\":15223:15295   */\n      tag_325\n        /* \"#utility.yul\":15291:15293   */\n      0x20\n        /* \"#utility.yul\":15280:15289   */\n      dup4\n        /* \"#utility.yul\":15276:15294   */\n      add\n        /* \"#utility.yul\":15267:15273   */\n      dup5\n        /* \"#utility.yul\":15223:15295   */\n      tag_148\n      jump\t// in\n    tag_325:\n        /* \"#utility.yul\":14970:15302   */\n      swap4\n      swap3\n      pop\n      pop\n      pop\n      jump\t// out\n        /* \"#utility.yul\":15308:15653   */\n    tag_117:\n        /* \"#utility.yul\":15375:15381   */\n      0x00\n        /* \"#utility.yul\":15424:15426   */\n      0x20\n        /* \"#utility.yul\":15412:15421   */\n      dup3\n        /* \"#utility.yul\":15403:15410   */\n      dup5\n        /* \"#utility.yul\":15399:15422   */\n      sub\n        /* \"#utility.yul\":15395:15427   */\n      slt\n        /* \"#utility.yul\":15392:15511   */\n      iszero\n      tag_327\n      jumpi\n        /* \"#utility.yul\":15430:15509   */\n      tag_328\n      tag_139\n      jump\t// in\n    tag_328:\n        /* \"#utility.yul\":15392:15511   */\n    tag_327:\n        /* \"#utility.yul\":15550:15551   */\n      0x00\n        /* \"#utility.yul\":15575:15636   */\n      tag_329\n        /* \"#utility.yul\":15628:15635   */\n      dup5\n        /* \"#utility.yul\":15619:15625   */\n      dup3\n        /* \"#utility.yul\":15608:15617   */\n      dup6\n        /* \"#utility.yul\":15604:15626   */\n      add\n        /* \"#utility.yul\":15575:15636   */\n      tag_163\n      jump\t// in\n    tag_329:\n        /* \"#utility.yul\":15565:15636   */\n      swap2\n      pop\n        /* \"#utility.yul\":15521:15646   */\n      pop\n        /* \"#utility.yul\":15308:15653   */\n      swap3\n      swap2\n      pop\n      pop\n      jump\t// out\n        /* \"#utility.yul\":15659:15835   */\n    tag_179:\n        /* \"#utility.yul\":15799:15827   */\n      0x4e6f7420617070726f7665642062792076616c696461746f7273000000000000\n        /* \"#utility.yul\":15795:15796   */\n      0x00\n        /* \"#utility.yul\":15787:15793   */\n      dup3\n        /* \"#utility.yul\":15783:15797   */\n      add\n        /* \"#utility.yul\":15776:15828   */\n      mstore\n        /* \"#utility.yul\":15659:15835   */\n      pop\n      jump\t// out\n        /* \"#utility.yul\":15841:16207   */\n    tag_180:\n        /* \"#utility.yul\":15983:15986   */\n      0x00\n        /* \"#utility.yul\":16004:16071   */\n      tag_332\n        /* \"#utility.yul\":16068:16070   */\n      0x1a\n        /* \"#utility.yul\":16063:16066   */\n      dup4\n        /* \"#utility.yul\":16004:16071   */\n      tag_158\n      jump\t// in\n    tag_332:\n        /* \"#utility.yul\":15997:16071   */\n      swap2\n      pop\n        /* \"#utility.yul\":16080:16173   */\n      tag_333\n        /* \"#utility.yul\":16169:16172   */\n      dup3\n        /* \"#utility.yul\":16080:16173   */\n      tag_179\n      jump\t// in\n    tag_333:\n        /* \"#utility.yul\":16198:16200   */\n      0x20\n        /* \"#utility.yul\":16193:16196   */\n      dup3\n        /* \"#utility.yul\":16189:16201   */\n      add\n        /* \"#utility.yul\":16182:16201   */\n      swap1\n      pop\n        /* \"#utility.yul\":15841:16207   */\n      swap2\n      swap1\n      pop\n      jump\t// out\n        /* \"#utility.yul\":16213:16632   */\n    tag_120:\n        /* \"#utility.yul\":16379:16383   */\n      0x00\n        /* \"#utility.yul\":16417:16419   */\n      0x20\n        /* \"#utility.yul\":16406:16415   */\n      dup3\n        /* \"#utility.yul\":16402:16420   */\n      add\n        /* \"#utility.yul\":16394:16420   */\n      swap1\n      pop\n        /* \"#utility.yul\":16466:16475   */\n      dup2\n        /* \"#utility.yul\":16460:16464   */\n      dup2\n        /* \"#utility.yul\":16456:16476   */\n      sub\n        /* \"#utility.yul\":16452:16453   */\n      0x00\n        /* \"#utility.yul\":16441:16450   */\n      dup4\n        /* \"#utility.yul\":16437:16454   */\n      add\n        /* \"#utility.yul\":16430:16477   */\n      mstore\n        /* \"#utility.yul\":16494:16625   */\n      tag_335\n        /* \"#utility.yul\":16620:16624   */\n      dup2\n        /* \"#utility.yul\":16494:16625   */\n      tag_180\n      jump\t// in\n    tag_335:\n        /* \"#utility.yul\":16486:16625   */\n      swap1\n      pop\n        /* \"#utility.yul\":16213:16632   */\n      swap2\n      swap1\n      pop\n      jump\t// out\n        /* \"#utility.yul\":16638:16785   */\n    tag_181:\n        /* \"#utility.yul\":16739:16750   */\n      0x00\n        /* \"#utility.yul\":16776:16779   */\n      dup2\n        /* \"#utility.yul\":16761:16779   */\n      swap1\n      pop\n        /* \"#utility.yul\":16638:16785   */\n      swap3\n      swap2\n      pop\n      pop\n      jump\t// out\n        /* \"#utility.yul\":16791:16905   */\n    tag_182:\n      pop\n      jump\t// out\n        /* \"#utility.yul\":16911:17309   */\n    tag_183:\n        /* \"#utility.yul\":17070:17073   */\n      0x00\n        /* \"#utility.yul\":17091:17174   */\n      tag_339\n        /* \"#utility.yul\":17172:17173   */\n      0x00\n        /* \"#utility.yul\":17167:17170   */\n      dup4\n        /* \"#utility.yul\":17091:17174   */\n      tag_181\n      jump\t// in\n    tag_339:\n        /* \"#utility.yul\":17084:17174   */\n      swap2\n      pop\n        /* \"#utility.yul\":17183:17276   */\n      tag_340\n        /* \"#utility.yul\":17272:17275   */\n      dup3\n        /* \"#utility.yul\":17183:17276   */\n      tag_182\n      jump\t// in\n    tag_340:\n        /* \"#utility.yul\":17301:17302   */\n      0x00\n        /* \"#utility.yul\":17296:17299   */\n      dup3\n        /* \"#utility.yul\":17292:17303   */\n      add\n        /* \"#utility.yul\":17285:17303   */\n      swap1\n      pop\n        /* \"#utility.yul\":16911:17309   */\n      swap2\n      swap1\n      pop\n      jump\t// out\n        /* \"#utility.yul\":17315:17694   */\n    tag_122:\n        /* \"#utility.yul\":17499:17502   */\n      0x00\n        /* \"#utility.yul\":17521:17668   */\n      tag_342\n        /* \"#utility.yul\":17664:17667   */\n      dup3\n        /* \"#utility.yul\":17521:17668   */\n      tag_183\n      jump\t// in\n    tag_342:\n        /* \"#utility.yul\":17514:17668   */\n      swap2\n      pop\n        /* \"#utility.yul\":17685:17688   */\n      dup2\n        /* \"#utility.yul\":17678:17688   */\n      swap1\n      pop\n        /* \"#utility.yul\":17315:17694   */\n      swap2\n      swap1\n      pop\n      jump\t// out\n        /* \"#utility.yul\":17700:17865   */\n    tag_184:\n        /* \"#utility.yul\":17840:17857   */\n      0x5472616e73666572206661696c65640000000000000000000000000000000000\n        /* \"#utility.yul\":17836:17837   */\n      0x00\n        /* \"#utility.yul\":17828:17834   */\n      dup3\n        /* \"#utility.yul\":17824:17838   */\n      add\n        /* \"#utility.yul\":17817:17858   */\n      mstore\n        /* \"#utility.yul\":17700:17865   */\n      pop\n      jump\t// out\n        /* \"#utility.yul\":17871:18237   */\n    tag_185:\n        /* \"#utility.yul\":18013:18016   */\n      0x00\n        /* \"#utility.yul\":18034:18101   */\n      tag_345\n        /* \"#utility.yul\":18098:18100   */\n      0x0f\n        /* \"#utility.yul\":18093:18096   */\n      dup4\n        /* \"#utility.yul\":18034:18101   */\n      tag_158\n      jump\t// in\n    tag_345:\n        /* \"#utility.yul\":18027:18101   */\n      swap2\n      pop\n        /* \"#utility.yul\":18110:18203   */\n      tag_346\n        /* \"#utility.yul\":18199:18202   */\n      dup3\n        /* \"#utility.yul\":18110:18203   */\n      tag_184\n      jump\t// in\n    tag_346:\n        /* \"#utility.yul\":18228:18230   */\n      0x20\n        /* \"#utility.yul\":18223:18226   */\n      dup3\n        /* \"#utility.yul\":18219:18231   */\n      add\n        /* \"#utility.yul\":18212:18231   */\n      swap1\n      pop\n        /* \"#utility.yul\":17871:18237   */\n      swap2\n      swap1\n      pop\n      jump\t// out\n        /* \"#utility.yul\":18243:18662   */\n    tag_128:\n        /* \"#utility.yul\":18409:18413   */\n      0x00\n        /* \"#utility.yul\":18447:18449   */\n      0x20\n        /* \"#utility.yul\":18436:18445   */\n      dup3\n        /* \"#utility.yul\":18432:18450   */\n      add\n        /* \"#utility.yul\":18424:18450   */\n      swap1\n      pop\n        /* \"#utility.yul\":18496:18505   */\n      dup2\n        /* \"#utility.yul\":18490:18494   */\n      dup2\n        /* \"#utility.yul\":18486:18506   */\n      sub\n        /* \"#utility.yul\":18482:18483   */\n      0x00\n        /* \"#utility.yul\":18471:18480   */\n      dup4\n        /* \"#utility.yul\":18467:18484   */\n      add\n        /* \"#utility.yul\":18460:18507   */\n      mstore\n        /* \"#utility.yul\":18524:18655   */\n      tag_348\n        /* \"#utility.yul\":18650:18654   */\n      dup2\n        /* \"#utility.yul\":18524:18655   */\n      tag_185\n      jump\t// in\n    tag_348:\n        /* \"#utility.yul\":18516:18655   */\n      swap1\n      pop\n        /* \"#utility.yul\":18243:18662   */\n      swap2\n      swap1\n      pop\n      jump\t// out\n        /* \"#utility.yul\":18668:18841   */\n    tag_186:\n        /* \"#utility.yul\":18808:18833   */\n      0x4f6e6c7920636c61696d65722063616e2063616e63656c000000000000000000\n        /* \"#utility.yul\":18804:18805   */\n      0x00\n        /* \"#utility.yul\":18796:18802   */\n      dup3\n        /* \"#utility.yul\":18792:18806   */\n      add\n        /* \"#utility.yul\":18785:18834   */\n      mstore\n        /* \"#utility.yul\":18668:18841   */\n      pop\n      jump\t// out\n        /* \"#utility.yul\":18847:19213   */\n    tag_187:\n        /* \"#utility.yul\":18989:18992   */\n      0x00\n        /* \"#utility.yul\":19010:19077   */\n      tag_351\n        /* \"#utility.yul\":19074:19076   */\n      0x17\n        /* \"#utility.yul\":19069:19072   */\n      dup4\n        /* \"#utility.yul\":19010:19077   */\n      tag_158\n      jump\t// in\n    tag_351:\n        /* \"#utility.yul\":19003:19077   */\n      swap2\n      pop\n        /* \"#utility.yul\":19086:19179   */\n      tag_352\n        /* \"#utility.yul\":19175:19178   */\n      dup3\n        /* \"#utility.yul\":19086:19179   */\n      tag_186\n      jump\t// in\n    tag_352:\n        /* \"#utility.yul\":19204:19206   */\n      0x20\n        /* \"#utility.yul\":19199:19202   */\n      dup3\n        /* \"#utility.yul\":19195:19207   */\n      add\n        /* \"#utility.yul\":19188:19207   */\n      swap1\n      pop\n        /* \"#utility.yul\":18847:19213   */\n      swap2\n      swap1\n      pop\n      jump\t// out\n        /* \"#utility.yul\":19219:19638   */\n    tag_137:\n        /* \"#utility.yul\":19385:19389   */\n      0x00\n        /* \"#utility.yul\":19423:19425   */\n      0x20\n        /* \"#utility.yul\":19412:19421   */\n      dup3\n        /* \"#utility.yul\":19408:19426   */\n      add\n        /* \"#utility.yul\":19400:19426   */\n      swap1\n      pop\n        /* \"#utility.yul\":19472:19481   */\n      dup2\n        /* \"#utility.yul\":19466:19470   */\n      dup2\n        /* \"#utility.yul\":19462:19482   */\n      sub\n        /* \"#utility.yul\":19458:19459   */\n      0x00\n        /* \"#utility.yul\":19447:19456   */\n      dup4\n        /* \"#utility.yul\":19443:19460   */\n      add\n        /* \"#utility.yul\":19436:19483   */\n      mstore\n        /* \"#utility.yul\":19500:19631   */\n      tag_354\n        /* \"#utility.yul\":19626:19630   */\n      dup2\n        /* \"#utility.yul\":19500:19631   */\n      tag_187\n      jump\t// in\n    tag_354:\n        /* \"#utility.yul\":19492:19631   */\n      swap1\n      pop\n        /* \"#utility.yul\":19219:19638   */\n      swap2\n      swap1\n      pop\n      jump\t// out\n\n    auxdata: 0xa2646970667358221220107c8e5404ca7652becbbb6dcbfdac9ad243948922041d9a4ef19f28cbed8ec764736f6c634300081a0033\n}\n",
				"bytecode": {
					"linkReferences": {},
					"object": "60a060405234801561000f575f80fd5b50604051611ab1380380611ab183398181016040528101906100319190610226565b5f73ffffffffffffffffffffffffffffffffffffffff168273ffffffffffffffffffffffffffffffffffffffff160361009f576040517f08c379a0000000000000000000000000000000000000000000000000000000008152600401610096906102be565b60405180910390fd5b5f73ffffffffffffffffffffffffffffffffffffffff168173ffffffffffffffffffffffffffffffffffffffff160361010d576040517f08c379a000000000000000000000000000000000000000000000000000000000815260040161010490610326565b60405180910390fd5b8173ffffffffffffffffffffffffffffffffffffffff1660808173ffffffffffffffffffffffffffffffffffffffff16815250508060015f6101000a81548173ffffffffffffffffffffffffffffffffffffffff021916908373ffffffffffffffffffffffffffffffffffffffff1602179055503360025f6101000a81548173ffffffffffffffffffffffffffffffffffffffff021916908373ffffffffffffffffffffffffffffffffffffffff1602179055505050610344565b5f80fd5b5f73ffffffffffffffffffffffffffffffffffffffff82169050919050565b5f6101f5826101cc565b9050919050565b610205816101eb565b811461020f575f80fd5b50565b5f81519050610220816101fc565b92915050565b5f806040838503121561023c5761023b6101c8565b5b5f61024985828601610212565b925050602061025a85828601610212565b9150509250929050565b5f82825260208201905092915050565b7f496e76616c69642066756e64206d616e616765722061646472657373000000005f82015250565b5f6102a8601c83610264565b91506102b382610274565b602082019050919050565b5f6020820190508181035f8301526102d58161029c565b9050919050565b7f496e76616c69642076616c696461746f722061646472657373000000000000005f82015250565b5f610310601983610264565b915061031b826102dc565b602082019050919050565b5f6020820190508181035f83015261033d81610304565b9050919050565b6080516117406103715f395f81816102c7015281816103a4015281816104e301526106b601526117405ff3fe608060405260043610610094575f3560e01c80638da5cb5b116100585780638da5cb5b1461017f5780639dc5e02f146101a9578063a888c2cd146101d1578063f1e2de1414610211578063f5f5dd411461023b5761009b565b806336dbd2f91461009f57806344021ad7146100dd5780636209ec2d14610105578063635b27701461012f57806389ee68bf146101575761009b565b3661009b57005b5f80fd5b3480156100aa575f80fd5b506100c560048036038101906100c09190610e74565b610265565b6040516100d493929190610f07565b60405180910390f35b3480156100e8575f80fd5b5061010360048036038101906100fe9190610e74565b6102c3565b005b348015610110575f80fd5b506101196106b3565b6040516101269190610f3c565b60405180910390f35b34801561013a575f80fd5b5061015560048036038101906101509190610f7f565b6106da565b005b348015610162575f80fd5b5061017d60048036038101906101789190610e74565b61081a565b005b34801561018a575f80fd5b50610193610b86565b6040516101a09190610f3c565b60405180910390f35b3480156101b4575f80fd5b506101cf60048036038101906101ca9190610e74565b610bab565b005b3480156101dc575f80fd5b506101f760048036038101906101f29190610e74565b610da7565b604051610208959493929190610faa565b60405180910390f35b34801561021c575f80fd5b50610225610e11565b6040516102329190611056565b60405180910390f35b348015610246575f80fd5b5061024f610e36565b60405161025c919061106f565b60405180910390f35b5f805f8060035f8681526020019081526020015f209050806002015f9054906101000a900460ff16815f015f9054906101000a900473ffffffffffffffffffffffffffffffffffffffff168260010154935093509350509193909250565b805f7f000000000000000000000000000000000000000000000000000000000000000073ffffffffffffffffffffffffffffffffffffffff1663454fa1b1836040518263ffffffff1660e01b815260040161031e919061106f565b602060405180830381865afa158015610339573d5f803e3d5ffd5b505050506040513d601f19601f8201168201806040525081019061035d919061109c565b90505f81116103a1576040517f08c379a000000000000000000000000000000000000000000000000000000000815260040161039890611121565b60405180910390fd5b5f7f000000000000000000000000000000000000000000000000000000000000000073ffffffffffffffffffffffffffffffffffffffff1663f0f284fc846040518263ffffffff1660e01b81526004016103fb919061106f565b608060405180830381865afa158015610416573d5f803e3d5ffd5b505050506040513d601f19601f8201168201806040525081019061043a919061117d565b93505050508061047f576040517f08c379a00000000000000000000000000000000000000000000000000000000081526004016104769061122b565b60405180910390fd5b60035f8481526020019081526020015f206002015f9054906101000a900460ff16156104e0576040517f08c379a00000000000000000000000000000000000000000000000000000000081526004016104d790611293565b60405180910390fd5b5f7f000000000000000000000000000000000000000000000000000000000000000073ffffffffffffffffffffffffffffffffffffffff1663454fa1b1866040518263ffffffff1660e01b815260040161053a919061106f565b602060405180830381865afa158015610555573d5f803e3d5ffd5b505050506040513d601f19601f82011682018060405250810190610579919061109c565b90506040518060a001604052803373ffffffffffffffffffffffffffffffffffffffff1681526020018281526020016001151581526020015f151581526020014281525060035f8781526020019081526020015f205f820151815f015f6101000a81548173ffffffffffffffffffffffffffffffffffffffff021916908373ffffffffffffffffffffffffffffffffffffffff160217905550602082015181600101556040820151816002015f6101000a81548160ff02191690831515021790555060608201518160020160016101000a81548160ff021916908315150217905550608082015181600301559050503373ffffffffffffffffffffffffffffffffffffffff16857fbf59c0d059a57ebf273b4b1643599fc4b48cf5effdd82113a740ed64d262ec9360405160405180910390a35050505050565b5f7f0000000000000000000000000000000000000000000000000000000000000000905090565b60025f9054906101000a900473ffffffffffffffffffffffffffffffffffffffff1673ffffffffffffffffffffffffffffffffffffffff163373ffffffffffffffffffffffffffffffffffffffff1614610769576040517f08c379a000000000000000000000000000000000000000000000000000000000815260040161076090611321565b60405180910390fd5b5f73ffffffffffffffffffffffffffffffffffffffff168173ffffffffffffffffffffffffffffffffffffffff16036107d7576040517f08c379a00000000000000000000000000000000000000000000000000000000081526004016107ce90611389565b60405180910390fd5b8060015f6101000a81548173ffffffffffffffffffffffffffffffffffffffff021916908373ffffffffffffffffffffffffffffffffffffffff16021790555050565b5f60035f8381526020019081526020015f209050806002015f9054906101000a900460ff1661087e576040517f08c379a0000000000000000000000000000000000000000000000000000000008152600401610875906113f1565b60405180910390fd5b8060020160019054906101000a900460ff16156108d0576040517f08c379a00000000000000000000000000000000000000000000000000000000081526004016108c790611459565b60405180910390fd5b62093a8081600301546108e391906114a4565b421115610925576040517f08c379a000000000000000000000000000000000000000000000000000000000815260040161091c90611521565b60405180910390fd5b60015f9054906101000a900473ffffffffffffffffffffffffffffffffffffffff1673ffffffffffffffffffffffffffffffffffffffff166356c3163783835f015f9054906101000a900473ffffffffffffffffffffffffffffffffffffffff166040518363ffffffff1660e01b81526004016109a392919061153f565b602060405180830381865afa1580156109be573d5f803e3d5ffd5b505050506040513d601f19601f820116820180604052508101906109e29190611566565b610a21576040517f08c379a0000000000000000000000000000000000000000000000000000000008152600401610a18906115db565b60405180910390fd5b60018160020160016101000a81548160ff0219169083151502179055505f815f015f9054906101000a900473ffffffffffffffffffffffffffffffffffffffff1673ffffffffffffffffffffffffffffffffffffffff168260010154604051610a8990611626565b5f6040518083038185875af1925050503d805f8114610ac3576040519150601f19603f3d011682016040523d82523d5f602084013e610ac8565b606091505b5050905080610b0c576040517f08c379a0000000000000000000000000000000000000000000000000000000008152600401610b0390611684565b60405180910390fd5b815f015f9054906101000a900473ffffffffffffffffffffffffffffffffffffffff1673ffffffffffffffffffffffffffffffffffffffff16837fdc699d0c4948c96a3265f3c8997ad793f263f495e1809c0e2a2926c4da7fc7978460010154604051610b79919061106f565b60405180910390a3505050565b60025f9054906101000a900473ffffffffffffffffffffffffffffffffffffffff1681565b5f60035f8381526020019081526020015f209050806002015f9054906101000a900460ff16610c0f576040517f08c379a0000000000000000000000000000000000000000000000000000000008152600401610c06906113f1565b60405180910390fd5b8060020160019054906101000a900460ff1615610c61576040517f08c379a0000000000000000000000000000000000000000000000000000000008152600401610c5890611459565b60405180910390fd5b3373ffffffffffffffffffffffffffffffffffffffff16815f015f9054906101000a900473ffffffffffffffffffffffffffffffffffffffff1673ffffffffffffffffffffffffffffffffffffffff1614610cf1576040517f08c379a0000000000000000000000000000000000000000000000000000000008152600401610ce8906116ec565b60405180910390fd5b60035f8381526020019081526020015f205f8082015f6101000a81549073ffffffffffffffffffffffffffffffffffffffff0219169055600182015f9055600282015f6101000a81549060ff02191690556002820160016101000a81549060ff0219169055600382015f905550503373ffffffffffffffffffffffffffffffffffffffff16827fb07c35948b3aa55af6baed77379d187e78a6e78bbe61fc2fe299f400607c441f60405160405180910390a35050565b6003602052805f5260405f205f91509050805f015f9054906101000a900473ffffffffffffffffffffffffffffffffffffffff1690806001015490806002015f9054906101000a900460ff16908060020160019054906101000a900460ff16908060030154905085565b60015f9054906101000a900473ffffffffffffffffffffffffffffffffffffffff1681565b62093a8081565b5f80fd5b5f819050919050565b610e5381610e41565b8114610e5d575f80fd5b50565b5f81359050610e6e81610e4a565b92915050565b5f60208284031215610e8957610e88610e3d565b5b5f610e9684828501610e60565b91505092915050565b5f8115159050919050565b610eb381610e9f565b82525050565b5f73ffffffffffffffffffffffffffffffffffffffff82169050919050565b5f610ee282610eb9565b9050919050565b610ef281610ed8565b82525050565b610f0181610e41565b82525050565b5f606082019050610f1a5f830186610eaa565b610f276020830185610ee9565b610f346040830184610ef8565b949350505050565b5f602082019050610f4f5f830184610ee9565b92915050565b610f5e81610ed8565b8114610f68575f80fd5b50565b5f81359050610f7981610f55565b92915050565b5f60208284031215610f9457610f93610e3d565b5b5f610fa184828501610f6b565b91505092915050565b5f60a082019050610fbd5f830188610ee9565b610fca6020830187610ef8565b610fd76040830186610eaa565b610fe46060830185610eaa565b610ff16080830184610ef8565b9695505050505050565b5f819050919050565b5f61101e61101961101484610eb9565b610ffb565b610eb9565b9050919050565b5f61102f82611004565b9050919050565b5f61104082611025565b9050919050565b61105081611036565b82525050565b5f6020820190506110695f830184611047565b92915050565b5f6020820190506110825f830184610ef8565b92915050565b5f8151905061109681610e4a565b92915050565b5f602082840312156110b1576110b0610e3d565b5b5f6110be84828501611088565b91505092915050565b5f82825260208201905092915050565b7f4e6f20626f756e747920666f72207468697320697373756500000000000000005f82015250565b5f61110b6018836110c7565b9150611116826110d7565b602082019050919050565b5f6020820190508181035f830152611138816110ff565b9050919050565b5f8151905061114d81610f55565b92915050565b61115c81610e9f565b8114611166575f80fd5b50565b5f8151905061117781611153565b92915050565b5f805f806080858703121561119557611194610e3d565b5b5f6111a287828801611088565b94505060206111b38782880161113f565b93505060406111c487828801611088565b92505060606111d587828801611169565b91505092959194509250565b7f426f756e7479206973206e6f74206163746976650000000000000000000000005f82015250565b5f6112156014836110c7565b9150611220826111e1565b602082019050919050565b5f6020820190508181035f83015261124281611209565b9050919050565b7f426f756e747920616c726561647920636c61696d6564000000000000000000005f82015250565b5f61127d6016836110c7565b915061128882611249565b602082019050919050565b5f6020820190508181035f8301526112aa81611271565b9050919050565b7f4f6e6c79206f776e65722063616e2063616c6c20746869732066756e6374696f5f8201527f6e00000000000000000000000000000000000000000000000000000000000000602082015250565b5f61130b6021836110c7565b9150611316826112b1565b604082019050919050565b5f6020820190508181035f830152611338816112ff565b9050919050565b7f496e76616c69642076616c696461746f722061646472657373000000000000005f82015250565b5f6113736019836110c7565b915061137e8261133f565b602082019050919050565b5f6020820190508181035f8301526113a081611367565b9050919050565b7f426f756e7479206e6f7420636c61696d656400000000000000000000000000005f82015250565b5f6113db6012836110c7565b91506113e6826113a7565b602082019050919050565b5f6020820190508181035f830152611408816113cf565b9050919050565b7f426f756e747920616c72656164792070616964000000000000000000000000005f82015250565b5f6114436013836110c7565b915061144e8261140f565b602082019050919050565b5f6020820190508181035f83015261147081611437565b9050919050565b7f4e487b71000000000000000000000000000000000000000000000000000000005f52601160045260245ffd5b5f6114ae82610e41565b91506114b983610e41565b92508282019050808211156114d1576114d0611477565b5b92915050565b7f436c61696d2065787069726564000000000000000000000000000000000000005f82015250565b5f61150b600d836110c7565b9150611516826114d7565b602082019050919050565b5f6020820190508181035f830152611538816114ff565b9050919050565b5f6040820190506115525f830185610ef8565b61155f6020830184610ee9565b9392505050565b5f6020828403121561157b5761157a610e3d565b5b5f61158884828501611169565b91505092915050565b7f4e6f7420617070726f7665642062792076616c696461746f72730000000000005f82015250565b5f6115c5601a836110c7565b91506115d082611591565b602082019050919050565b5f6020820190508181035f8301526115f2816115b9565b9050919050565b5f81905092915050565b50565b5f6116115f836115f9565b915061161c82611603565b5f82019050919050565b5f61163082611606565b9150819050919050565b7f5472616e73666572206661696c656400000000000000000000000000000000005f82015250565b5f61166e600f836110c7565b91506116798261163a565b602082019050919050565b5f6020820190508181035f83015261169b81611662565b9050919050565b7f4f6e6c7920636c61696d65722063616e2063616e63656c0000000000000000005f82015250565b5f6116d66017836110c7565b91506116e1826116a2565b602082019050919050565b5f6020820190508181035f830152611703816116ca565b905091905056fea2646970667358221220107c8e5404ca7652becbbb6dcbfdac9ad243948922041d9a4ef19f28cbed8ec764736f6c634300081a0033",
					"opcodes": "PUSH1 0xA0 PUSH1 0x40 MSTORE CALLVALUE DUP1 ISZERO PUSH2 0xF JUMPI PUSH0 DUP1 REVERT JUMPDEST POP PUSH1 0x40 MLOAD PUSH2 0x1AB1 CODESIZE SUB DUP1 PUSH2 0x1AB1 DUP4 CODECOPY DUP2 DUP2 ADD PUSH1 0x40 MSTORE DUP2 ADD SWAP1 PUSH2 0x31 SWAP2 SWAP1 PUSH2 0x226 JUMP JUMPDEST PUSH0 PUSH20 0xFFFFFFFFFFFFFFFFFFFFFFFFFFFFFFFFFFFFFFFF AND DUP3 PUSH20 0xFFFFFFFFFFFFFFFFFFFFFFFFFFFFFFFFFFFFFFFF AND SUB PUSH2 0x9F JUMPI PUSH1 0x40 MLOAD PUSH32 0x8C379A000000000000000000000000000000000000000000000000000000000 DUP2 MSTORE PUSH1 0x4 ADD PUSH2 0x96 SWAP1 PUSH2 0x2BE JUMP JUMPDEST PUSH1 0x40 MLOAD DUP1 SWAP2 SUB SWAP1 REVERT JUMPDEST PUSH0 PUSH20 0xFFFFFFFFFFFFFFFFFFFFFFFFFFFFFFFFFFFFFFFF AND DUP2 PUSH20 0xFFFFFFFFFFFFFFFFFFFFFFFFFFFFFFFFFFFFFFFF AND SUB PUSH2 0x10D JUMPI PUSH1 0x40 MLOAD PUSH32 0x8C379A000000000000000000000000000000000000000000000000000000000 DUP2 MSTORE PUSH1 0x4 ADD PUSH2 0x104 SWAP1 PUSH2 0x326 JUMP JUMPDEST PUSH1 0x40 MLOAD DUP1 SWAP2 SUB SWAP1 REVERT JUMPDEST DUP2 PUSH20 0xFFFFFFFFFFFFFFFFFFFFFFFFFFFFFFFFFFFFFFFF AND PUSH1 0x80 DUP2 PUSH20 0xFFFFFFFFFFFFFFFFFFFFFFFFFFFFFFFFFFFFFFFF AND DUP2 MSTORE POP POP DUP1 PUSH1 0x1 PUSH0 PUSH2 0x100 EXP DUP2 SLOAD DUP2 PUSH20 0xFFFFFFFFFFFFFFFFFFFFFFFFFFFFFFFFFFFFFFFF MUL NOT AND SWAP1 DUP4 PUSH20 0xFFFFFFFFFFFFFFFFFFFFFFFFFFFFFFFFFFFFFFFF AND MUL OR SWAP1 SSTORE POP CALLER PUSH1 0x2 PUSH0 PUSH2 0x100 EXP DUP2 SLOAD DUP2 PUSH20 0xFFFFFFFFFFFFFFFFFFFFFFFFFFFFFFFFFFFFFFFF MUL NOT AND SWAP1 DUP4 PUSH20 0xFFFFFFFFFFFFFFFFFFFFFFFFFFFFFFFFFFFFFFFF AND MUL OR SWAP1 SSTORE POP POP POP PUSH2 0x344 JUMP JUMPDEST PUSH0 DUP1 REVERT JUMPDEST PUSH0 PUSH20 0xFFFFFFFFFFFFFFFFFFFFFFFFFFFFFFFFFFFFFFFF DUP3 AND SWAP1 POP SWAP2 SWAP1 POP JUMP JUMPDEST PUSH0 PUSH2 0x1F5 DUP3 PUSH2 0x1CC JUMP JUMPDEST SWAP1 POP SWAP2 SWAP1 POP JUMP JUMPDEST PUSH2 0x205 DUP2 PUSH2 0x1EB JUMP JUMPDEST DUP2 EQ PUSH2 0x20F JUMPI PUSH0 DUP1 REVERT JUMPDEST POP JUMP JUMPDEST PUSH0 DUP2 MLOAD SWAP1 POP PUSH2 0x220 DUP2 PUSH2 0x1FC JUMP JUMPDEST SWAP3 SWAP2 POP POP JUMP JUMPDEST PUSH0 DUP1 PUSH1 0x40 DUP4 DUP6 SUB SLT ISZERO PUSH2 0x23C JUMPI PUSH2 0x23B PUSH2 0x1C8 JUMP JUMPDEST JUMPDEST PUSH0 PUSH2 0x249 DUP6 DUP3 DUP7 ADD PUSH2 0x212 JUMP JUMPDEST SWAP3 POP POP PUSH1 0x20 PUSH2 0x25A DUP6 DUP3 DUP7 ADD PUSH2 0x212 JUMP JUMPDEST SWAP2 POP POP SWAP3 POP SWAP3 SWAP1 POP JUMP JUMPDEST PUSH0 DUP3 DUP3 MSTORE PUSH1 0x20 DUP3 ADD SWAP1 POP SWAP3 SWAP2 POP POP JUMP JUMPDEST PUSH32 0x496E76616C69642066756E64206D616E61676572206164647265737300000000 PUSH0 DUP3 ADD MSTORE POP JUMP JUMPDEST PUSH0 PUSH2 0x2A8 PUSH1 0x1C DUP4 PUSH2 0x264 JUMP JUMPDEST SWAP2 POP PUSH2 0x2B3 DUP3 PUSH2 0x274 JUMP JUMPDEST PUSH1 0x20 DUP3 ADD SWAP1 POP SWAP2 SWAP1 POP JUMP JUMPDEST PUSH0 PUSH1 0x20 DUP3 ADD SWAP1 POP DUP2 DUP2 SUB PUSH0 DUP4 ADD MSTORE PUSH2 0x2D5 DUP2 PUSH2 0x29C JUMP JUMPDEST SWAP1 POP SWAP2 SWAP1 POP JUMP JUMPDEST PUSH32 0x496E76616C69642076616C696461746F72206164647265737300000000000000 PUSH0 DUP3 ADD MSTORE POP JUMP JUMPDEST PUSH0 PUSH2 0x310 PUSH1 0x19 DUP4 PUSH2 0x264 JUMP JUMPDEST SWAP2 POP PUSH2 0x31B DUP3 PUSH2 0x2DC JUMP JUMPDEST PUSH1 0x20 DUP3 ADD SWAP1 POP SWAP2 SWAP1 POP JUMP JUMPDEST PUSH0 PUSH1 0x20 DUP3 ADD SWAP1 POP DUP2 DUP2 SUB PUSH0 DUP4 ADD MSTORE PUSH2 0x33D DUP2 PUSH2 0x304 JUMP JUMPDEST SWAP1 POP SWAP2 SWAP1 POP JUMP JUMPDEST PUSH1 0x80 MLOAD PUSH2 0x1740 PUSH2 0x371 PUSH0 CODECOPY PUSH0 DUP2 DUP2 PUSH2 0x2C7 ADD MSTORE DUP2 DUP2 PUSH2 0x3A4 ADD MSTORE DUP2 DUP2 PUSH2 0x4E3 ADD MSTORE PUSH2 0x6B6 ADD MSTORE PUSH2 0x1740 PUSH0 RETURN INVALID PUSH1 0x80 PUSH1 0x40 MSTORE PUSH1 0x4 CALLDATASIZE LT PUSH2 0x94 JUMPI PUSH0 CALLDATALOAD PUSH1 0xE0 SHR DUP1 PUSH4 0x8DA5CB5B GT PUSH2 0x58 JUMPI DUP1 PUSH4 0x8DA5CB5B EQ PUSH2 0x17F JUMPI DUP1 PUSH4 0x9DC5E02F EQ PUSH2 0x1A9 JUMPI DUP1 PUSH4 0xA888C2CD EQ PUSH2 0x1D1 JUMPI DUP1 PUSH4 0xF1E2DE14 EQ PUSH2 0x211 JUMPI DUP1 PUSH4 0xF5F5DD41 EQ PUSH2 0x23B JUMPI PUSH2 0x9B JUMP JUMPDEST DUP1 PUSH4 0x36DBD2F9 EQ PUSH2 0x9F JUMPI DUP1 PUSH4 0x44021AD7 EQ PUSH2 0xDD JUMPI DUP1 PUSH4 0x6209EC2D EQ PUSH2 0x105 JUMPI DUP1 PUSH4 0x635B2770 EQ PUSH2 0x12F JUMPI DUP1 PUSH4 0x89EE68BF EQ PUSH2 0x157 JUMPI PUSH2 0x9B JUMP JUMPDEST CALLDATASIZE PUSH2 0x9B JUMPI STOP JUMPDEST PUSH0 DUP1 REVERT JUMPDEST CALLVALUE DUP1 ISZERO PUSH2 0xAA JUMPI PUSH0 DUP1 REVERT JUMPDEST POP PUSH2 0xC5 PUSH1 0x4 DUP1 CALLDATASIZE SUB DUP2 ADD SWAP1 PUSH2 0xC0 SWAP2 SWAP1 PUSH2 0xE74 JUMP JUMPDEST PUSH2 0x265 JUMP JUMPDEST PUSH1 0x40 MLOAD PUSH2 0xD4 SWAP4 SWAP3 SWAP2 SWAP1 PUSH2 0xF07 JUMP JUMPDEST PUSH1 0x40 MLOAD DUP1 SWAP2 SUB SWAP1 RETURN JUMPDEST CALLVALUE DUP1 ISZERO PUSH2 0xE8 JUMPI PUSH0 DUP1 REVERT JUMPDEST POP PUSH2 0x103 PUSH1 0x4 DUP1 CALLDATASIZE SUB DUP2 ADD SWAP1 PUSH2 0xFE SWAP2 SWAP1 PUSH2 0xE74 JUMP JUMPDEST PUSH2 0x2C3 JUMP JUMPDEST STOP JUMPDEST CALLVALUE DUP1 ISZERO PUSH2 0x110 JUMPI PUSH0 DUP1 REVERT JUMPDEST POP PUSH2 0x119 PUSH2 0x6B3 JUMP JUMPDEST PUSH1 0x40 MLOAD PUSH2 0x126 SWAP2 SWAP1 PUSH2 0xF3C JUMP JUMPDEST PUSH1 0x40 MLOAD DUP1 SWAP2 SUB SWAP1 RETURN JUMPDEST CALLVALUE DUP1 ISZERO PUSH2 0x13A JUMPI PUSH0 DUP1 REVERT JUMPDEST POP PUSH2 0x155 PUSH1 0x4 DUP1 CALLDATASIZE SUB DUP2 ADD SWAP1 PUSH2 0x150 SWAP2 SWAP1 PUSH2 0xF7F JUMP JUMPDEST PUSH2 0x6DA JUMP JUMPDEST STOP JUMPDEST CALLVALUE DUP1 ISZERO PUSH2 0x162 JUMPI PUSH0 DUP1 REVERT JUMPDEST POP PUSH2 0x17D PUSH1 0x4 DUP1 CALLDATASIZE SUB DUP2 ADD SWAP1 PUSH2 0x178 SWAP2 SWAP1 PUSH2 0xE74 JUMP JUMPDEST PUSH2 0x81A JUMP JUMPDEST STOP JUMPDEST CALLVALUE DUP1 ISZERO PUSH2 0x18A JUMPI PUSH0 DUP1 REVERT JUMPDEST POP PUSH2 0x193 PUSH2 0xB86 JUMP JUMPDEST PUSH1 0x40 MLOAD PUSH2 0x1A0 SWAP2 SWAP1 PUSH2 0xF3C JUMP JUMPDEST PUSH1 0x40 MLOAD DUP1 SWAP2 SUB SWAP1 RETURN JUMPDEST CALLVALUE DUP1 ISZERO PUSH2 0x1B4 JUMPI PUSH0 DUP1 REVERT JUMPDEST POP PUSH2 0x1CF PUSH1 0x4 DUP1 CALLDATASIZE SUB DUP2 ADD SWAP1 PUSH2 0x1CA SWAP2 SWAP1 PUSH2 0xE74 JUMP JUMPDEST PUSH2 0xBAB JUMP JUMPDEST STOP JUMPDEST CALLVALUE DUP1 ISZERO PUSH2 0x1DC JUMPI PUSH0 DUP1 REVERT JUMPDEST POP PUSH2 0x1F7 PUSH1 0x4 DUP1 CALLDATASIZE SUB DUP2 ADD SWAP1 PUSH2 0x1F2 SWAP2 SWAP1 PUSH2 0xE74 JUMP JUMPDEST PUSH2 0xDA7 JUMP JUMPDEST PUSH1 0x40 MLOAD PUSH2 0x208 SWAP6 SWAP5 SWAP4 SWAP3 SWAP2 SWAP1 PUSH2 0xFAA JUMP JUMPDEST PUSH1 0x40 MLOAD DUP1 SWAP2 SUB SWAP1 RETURN JUMPDEST CALLVALUE DUP1 ISZERO PUSH2 0x21C JUMPI PUSH0 DUP1 REVERT JUMPDEST POP PUSH2 0x225 PUSH2 0xE11 JUMP JUMPDEST PUSH1 0x40 MLOAD PUSH2 0x232 SWAP2 SWAP1 PUSH2 0x1056 JUMP JUMPDEST PUSH1 0x40 MLOAD DUP1 SWAP2 SUB SWAP1 RETURN JUMPDEST CALLVALUE DUP1 ISZERO PUSH2 0x246 JUMPI PUSH0 DUP1 REVERT JUMPDEST POP PUSH2 0x24F PUSH2 0xE36 JUMP JUMPDEST PUSH1 0x40 MLOAD PUSH2 0x25C SWAP2 SWAP1 PUSH2 0x106F JUMP JUMPDEST PUSH1 0x40 MLOAD DUP1 SWAP2 SUB SWAP1 RETURN JUMPDEST PUSH0 DUP1 PUSH0 DUP1 PUSH1 0x3 PUSH0 DUP7 DUP2 MSTORE PUSH1 0x20 ADD SWAP1 DUP2 MSTORE PUSH1 0x20 ADD PUSH0 KECCAK256 SWAP1 POP DUP1 PUSH1 0x2 ADD PUSH0 SWAP1 SLOAD SWAP1 PUSH2 0x100 EXP SWAP1 DIV PUSH1 0xFF AND DUP2 PUSH0 ADD PUSH0 SWAP1 SLOAD SWAP1 PUSH2 0x100 EXP SWAP1 DIV PUSH20 0xFFFFFFFFFFFFFFFFFFFFFFFFFFFFFFFFFFFFFFFF AND DUP3 PUSH1 0x1 ADD SLOAD SWAP4 POP SWAP4 POP SWAP4 POP POP SWAP2 SWAP4 SWAP1 SWAP3 POP JUMP JUMPDEST DUP1 PUSH0 PUSH32 0x0 PUSH20 0xFFFFFFFFFFFFFFFFFFFFFFFFFFFFFFFFFFFFFFFF AND PUSH4 0x454FA1B1 DUP4 PUSH1 0x40 MLOAD DUP3 PUSH4 0xFFFFFFFF AND PUSH1 0xE0 SHL DUP2 MSTORE PUSH1 0x4 ADD PUSH2 0x31E SWAP2 SWAP1 PUSH2 0x106F JUMP JUMPDEST PUSH1 0x20 PUSH1 0x40 MLOAD DUP1 DUP4 SUB DUP2 DUP7 GAS STATICCALL ISZERO DUP1 ISZERO PUSH2 0x339 JUMPI RETURNDATASIZE PUSH0 DUP1 RETURNDATACOPY RETURNDATASIZE PUSH0 REVERT JUMPDEST POP POP POP POP PUSH1 0x40 MLOAD RETURNDATASIZE PUSH1 0x1F NOT PUSH1 0x1F DUP3 ADD AND DUP3 ADD DUP1 PUSH1 0x40 MSTORE POP DUP2 ADD SWAP1 PUSH2 0x35D SWAP2 SWAP1 PUSH2 0x109C JUMP JUMPDEST SWAP1 POP PUSH0 DUP2 GT PUSH2 0x3A1 JUMPI PUSH1 0x40 MLOAD PUSH32 0x8C379A000000000000000000000000000000000000000000000000000000000 DUP2 MSTORE PUSH1 0x4 ADD PUSH2 0x398 SWAP1 PUSH2 0x1121 JUMP JUMPDEST PUSH1 0x40 MLOAD DUP1 SWAP2 SUB SWAP1 REVERT JUMPDEST PUSH0 PUSH32 0x0 PUSH20 0xFFFFFFFFFFFFFFFFFFFFFFFFFFFFFFFFFFFFFFFF AND PUSH4 0xF0F284FC DUP5 PUSH1 0x40 MLOAD DUP3 PUSH4 0xFFFFFFFF AND PUSH1 0xE0 SHL DUP2 MSTORE PUSH1 0x4 ADD PUSH2 0x3FB SWAP2 SWAP1 PUSH2 0x106F JUMP JUMPDEST PUSH1 0x80 PUSH1 0x40 MLOAD DUP1 DUP4 SUB DUP2 DUP7 GAS STATICCALL ISZERO DUP1 ISZERO PUSH2 0x416 JUMPI RETURNDATASIZE PUSH0 DUP1 RETURNDATACOPY RETURNDATASIZE PUSH0 REVERT JUMPDEST POP POP POP POP PUSH1 0x40 MLOAD RETURNDATASIZE PUSH1 0x1F NOT PUSH1 0x1F DUP3 ADD AND DUP3 ADD DUP1 PUSH1 0x40 MSTORE POP DUP2 ADD SWAP1 PUSH2 0x43A SWAP2 SWAP1 PUSH2 0x117D JUMP JUMPDEST SWAP4 POP POP POP POP DUP1 PUSH2 0x47F JUMPI PUSH1 0x40 MLOAD PUSH32 0x8C379A000000000000000000000000000000000000000000000000000000000 DUP2 MSTORE PUSH1 0x4 ADD PUSH2 0x476 SWAP1 PUSH2 0x122B JUMP JUMPDEST PUSH1 0x40 MLOAD DUP1 SWAP2 SUB SWAP1 REVERT JUMPDEST PUSH1 0x3 PUSH0 DUP5 DUP2 MSTORE PUSH1 0x20 ADD SWAP1 DUP2 MSTORE PUSH1 0x20 ADD PUSH0 KECCAK256 PUSH1 0x2 ADD PUSH0 SWAP1 SLOAD SWAP1 PUSH2 0x100 EXP SWAP1 DIV PUSH1 0xFF AND ISZERO PUSH2 0x4E0 JUMPI PUSH1 0x40 MLOAD PUSH32 0x8C379A000000000000000000000000000000000000000000000000000000000 DUP2 MSTORE PUSH1 0x4 ADD PUSH2 0x4D7 SWAP1 PUSH2 0x1293 JUMP JUMPDEST PUSH1 0x40 MLOAD DUP1 SWAP2 SUB SWAP1 REVERT JUMPDEST PUSH0 PUSH32 0x0 PUSH20 0xFFFFFFFFFFFFFFFFFFFFFFFFFFFFFFFFFFFFFFFF AND PUSH4 0x454FA1B1 DUP7 PUSH1 0x40 MLOAD DUP3 PUSH4 0xFFFFFFFF AND PUSH1 0xE0 SHL DUP2 MSTORE PUSH1 0x4 ADD PUSH2 0x53A SWAP2 SWAP1 PUSH2 0x106F JUMP JUMPDEST PUSH1 0x20 PUSH1 0x40 MLOAD DUP1 DUP4 SUB DUP2 DUP7 GAS STATICCALL ISZERO DUP1 ISZERO PUSH2 0x555 JUMPI RETURNDATASIZE PUSH0 DUP1 RETURNDATACOPY RETURNDATASIZE PUSH0 REVERT JUMPDEST POP POP POP POP PUSH1 0x40 MLOAD RETURNDATASIZE PUSH1 0x1F NOT PUSH1 0x1F DUP3 ADD AND DUP3 ADD DUP1 PUSH1 0x40 MSTORE POP DUP2 ADD SWAP1 PUSH2 0x579 SWAP2 SWAP1 PUSH2 0x109C JUMP JUMPDEST SWAP1 POP PUSH1 0x40 MLOAD DUP1 PUSH1 0xA0 ADD PUSH1 0x40 MSTORE DUP1 CALLER PUSH20 0xFFFFFFFFFFFFFFFFFFFFFFFFFFFFFFFFFFFFFFFF AND DUP2 MSTORE PUSH1 0x20 ADD DUP3 DUP2 MSTORE PUSH1 0x20 ADD PUSH1 0x1 ISZERO ISZERO DUP2 MSTORE PUSH1 0x20 ADD PUSH0 ISZERO ISZERO DUP2 MSTORE PUSH1 0x20 ADD TIMESTAMP DUP2 MSTORE POP PUSH1 0x3 PUSH0 DUP8 DUP2 MSTORE PUSH1 0x20 ADD SWAP1 DUP2 MSTORE PUSH1 0x20 ADD PUSH0 KECCAK256 PUSH0 DUP3 ADD MLOAD DUP2 PUSH0 ADD PUSH0 PUSH2 0x100 EXP DUP2 SLOAD DUP2 PUSH20 0xFFFFFFFFFFFFFFFFFFFFFFFFFFFFFFFFFFFFFFFF MUL NOT AND SWAP1 DUP4 PUSH20 0xFFFFFFFFFFFFFFFFFFFFFFFFFFFFFFFFFFFFFFFF AND MUL OR SWAP1 SSTORE POP PUSH1 0x20 DUP3 ADD MLOAD DUP2 PUSH1 0x1 ADD SSTORE PUSH1 0x40 DUP3 ADD MLOAD DUP2 PUSH1 0x2 ADD PUSH0 PUSH2 0x100 EXP DUP2 SLOAD DUP2 PUSH1 0xFF MUL NOT AND SWAP1 DUP4 ISZERO ISZERO MUL OR SWAP1 SSTORE POP PUSH1 0x60 DUP3 ADD MLOAD DUP2 PUSH1 0x2 ADD PUSH1 0x1 PUSH2 0x100 EXP DUP2 SLOAD DUP2 PUSH1 0xFF MUL NOT AND SWAP1 DUP4 ISZERO ISZERO MUL OR SWAP1 SSTORE POP PUSH1 0x80 DUP3 ADD MLOAD DUP2 PUSH1 0x3 ADD SSTORE SWAP1 POP POP CALLER PUSH20 0xFFFFFFFFFFFFFFFFFFFFFFFFFFFFFFFFFFFFFFFF AND DUP6 PUSH32 0xBF59C0D059A57EBF273B4B1643599FC4B48CF5EFFDD82113A740ED64D262EC93 PUSH1 0x40 MLOAD PUSH1 0x40 MLOAD DUP1 SWAP2 SUB SWAP1 LOG3 POP POP POP POP POP JUMP JUMPDEST PUSH0 PUSH32 0x0 SWAP1 POP SWAP1 JUMP JUMPDEST PUSH1 0x2 PUSH0 SWAP1 SLOAD SWAP1 PUSH2 0x100 EXP SWAP1 DIV PUSH20 0xFFFFFFFFFFFFFFFFFFFFFFFFFFFFFFFFFFFFFFFF AND PUSH20 0xFFFFFFFFFFFFFFFFFFFFFFFFFFFFFFFFFFFFFFFF AND CALLER PUSH20 0xFFFFFFFFFFFFFFFFFFFFFFFFFFFFFFFFFFFFFFFF AND EQ PUSH2 0x769 JUMPI PUSH1 0x40 MLOAD PUSH32 0x8C379A000000000000000000000000000000000000000000000000000000000 DUP2 MSTORE PUSH1 0x4 ADD PUSH2 0x760 SWAP1 PUSH2 0x1321 JUMP JUMPDEST PUSH1 0x40 MLOAD DUP1 SWAP2 SUB SWAP1 REVERT JUMPDEST PUSH0 PUSH20 0xFFFFFFFFFFFFFFFFFFFFFFFFFFFFFFFFFFFFFFFF AND DUP2 PUSH20 0xFFFFFFFFFFFFFFFFFFFFFFFFFFFFFFFFFFFFFFFF AND SUB PUSH2 0x7D7 JUMPI PUSH1 0x40 MLOAD PUSH32 0x8C379A000000000000000000000000000000000000000000000000000000000 DUP2 MSTORE PUSH1 0x4 ADD PUSH2 0x7CE SWAP1 PUSH2 0x1389 JUMP JUMPDEST PUSH1 0x40 MLOAD DUP1 SWAP2 SUB SWAP1 REVERT JUMPDEST DUP1 PUSH1 0x1 PUSH0 PUSH2 0x100 EXP DUP2 SLOAD DUP2 PUSH20 0xFFFFFFFFFFFFFFFFFFFFFFFFFFFFFFFFFFFFFFFF MUL NOT AND SWAP1 DUP4 PUSH20 0xFFFFFFFFFFFFFFFFFFFFFFFFFFFFFFFFFFFFFFFF AND MUL OR SWAP1 SSTORE POP POP JUMP JUMPDEST PUSH0 PUSH1 0x3 PUSH0 DUP4 DUP2 MSTORE PUSH1 0x20 ADD SWAP1 DUP2 MSTORE PUSH1 0x20 ADD PUSH0 KECCAK256 SWAP1 POP DUP1 PUSH1 0x2 ADD PUSH0 SWAP1 SLOAD SWAP1 PUSH2 0x100 EXP SWAP1 DIV PUSH1 0xFF AND PUSH2 0x87E JUMPI PUSH1 0x40 MLOAD PUSH32 0x8C379A000000000000000000000000000000000000000000000000000000000 DUP2 MSTORE PUSH1 0x4 ADD PUSH2 0x875 SWAP1 PUSH2 0x13F1 JUMP JUMPDEST PUSH1 0x40 MLOAD DUP1 SWAP2 SUB SWAP1 REVERT JUMPDEST DUP1 PUSH1 0x2 ADD PUSH1 0x1 SWAP1 SLOAD SWAP1 PUSH2 0x100 EXP SWAP1 DIV PUSH1 0xFF AND ISZERO PUSH2 0x8D0 JUMPI PUSH1 0x40 MLOAD PUSH32 0x8C379A000000000000000000000000000000000000000000000000000000000 DUP2 MSTORE PUSH1 0x4 ADD PUSH2 0x8C7 SWAP1 PUSH2 0x1459 JUMP JUMPDEST PUSH1 0x40 MLOAD DUP1 SWAP2 SUB SWAP1 REVERT JUMPDEST PUSH3 0x93A80 DUP2 PUSH1 0x3 ADD SLOAD PUSH2 0x8E3 SWAP2 SWAP1 PUSH2 0x14A4 JUMP JUMPDEST TIMESTAMP GT ISZERO PUSH2 0x925 JUMPI PUSH1 0x40 MLOAD PUSH32 0x8C379A000000000000000000000000000000000000000000000000000000000 DUP2 MSTORE PUSH1 0x4 ADD PUSH2 0x91C SWAP1 PUSH2 0x1521 JUMP JUMPDEST PUSH1 0x40 MLOAD DUP1 SWAP2 SUB SWAP1 REVERT JUMPDEST PUSH1 0x1 PUSH0 SWAP1 SLOAD SWAP1 PUSH2 0x100 EXP SWAP1 DIV PUSH20 0xFFFFFFFFFFFFFFFFFFFFFFFFFFFFFFFFFFFFFFFF AND PUSH20 0xFFFFFFFFFFFFFFFFFFFFFFFFFFFFFFFFFFFFFFFF AND PUSH4 0x56C31637 DUP4 DUP4 PUSH0 ADD PUSH0 SWAP1 SLOAD SWAP1 PUSH2 0x100 EXP SWAP1 DIV PUSH20 0xFFFFFFFFFFFFFFFFFFFFFFFFFFFFFFFFFFFFFFFF AND PUSH1 0x40 MLOAD DUP4 PUSH4 0xFFFFFFFF AND PUSH1 0xE0 SHL DUP2 MSTORE PUSH1 0x4 ADD PUSH2 0x9A3 SWAP3 SWAP2 SWAP1 PUSH2 0x153F JUMP JUMPDEST PUSH1 0x20 PUSH1 0x40 MLOAD DUP1 DUP4 SUB DUP2 DUP7 GAS STATICCALL ISZERO DUP1 ISZERO PUSH2 0x9BE JUMPI RETURNDATASIZE PUSH0 DUP1 RETURNDATACOPY RETURNDATASIZE PUSH0 REVERT JUMPDEST POP POP POP POP PUSH1 0x40 MLOAD RETURNDATASIZE PUSH1 0x1F NOT PUSH1 0x1F DUP3 ADD AND DUP3 ADD DUP1 PUSH1 0x40 MSTORE POP DUP2 ADD SWAP1 PUSH2 0x9E2 SWAP2 SWAP1 PUSH2 0x1566 JUMP JUMPDEST PUSH2 0xA21 JUMPI PUSH1 0x40 MLOAD PUSH32 0x8C379A000000000000000000000000000000000000000000000000000000000 DUP2 MSTORE PUSH1 0x4 ADD PUSH2 0xA18 SWAP1 PUSH2 0x15DB JUMP JUMPDEST PUSH1 0x40 MLOAD DUP1 SWAP2 SUB SWAP1 REVERT JUMPDEST PUSH1 0x1 DUP2 PUSH1 0x2 ADD PUSH1 0x1 PUSH2 0x100 EXP DUP2 SLOAD DUP2 PUSH1 0xFF MUL NOT AND SWAP1 DUP4 ISZERO ISZERO MUL OR SWAP1 SSTORE POP PUSH0 DUP2 PUSH0 ADD PUSH0 SWAP1 SLOAD SWAP1 PUSH2 0x100 EXP SWAP1 DIV PUSH20 0xFFFFFFFFFFFFFFFFFFFFFFFFFFFFFFFFFFFFFFFF AND PUSH20 0xFFFFFFFFFFFFFFFFFFFFFFFFFFFFFFFFFFFFFFFF AND DUP3 PUSH1 0x1 ADD SLOAD PUSH1 0x40 MLOAD PUSH2 0xA89 SWAP1 PUSH2 0x1626 JUMP JUMPDEST PUSH0 PUSH1 0x40 MLOAD DUP1 DUP4 SUB DUP2 DUP6 DUP8 GAS CALL SWAP3 POP POP POP RETURNDATASIZE DUP1 PUSH0 DUP2 EQ PUSH2 0xAC3 JUMPI PUSH1 0x40 MLOAD SWAP2 POP PUSH1 0x1F NOT PUSH1 0x3F RETURNDATASIZE ADD AND DUP3 ADD PUSH1 0x40 MSTORE RETURNDATASIZE DUP3 MSTORE RETURNDATASIZE PUSH0 PUSH1 0x20 DUP5 ADD RETURNDATACOPY PUSH2 0xAC8 JUMP JUMPDEST PUSH1 0x60 SWAP2 POP JUMPDEST POP POP SWAP1 POP DUP1 PUSH2 0xB0C JUMPI PUSH1 0x40 MLOAD PUSH32 0x8C379A000000000000000000000000000000000000000000000000000000000 DUP2 MSTORE PUSH1 0x4 ADD PUSH2 0xB03 SWAP1 PUSH2 0x1684 JUMP JUMPDEST PUSH1 0x40 MLOAD DUP1 SWAP2 SUB SWAP1 REVERT JUMPDEST DUP2 PUSH0 ADD PUSH0 SWAP1 SLOAD SWAP1 PUSH2 0x100 EXP SWAP1 DIV PUSH20 0xFFFFFFFFFFFFFFFFFFFFFFFFFFFFFFFFFFFFFFFF AND PUSH20 0xFFFFFFFFFFFFFFFFFFFFFFFFFFFFFFFFFFFFFFFF AND DUP4 PUSH32 0xDC699D0C4948C96A3265F3C8997AD793F263F495E1809C0E2A2926C4DA7FC797 DUP5 PUSH1 0x1 ADD SLOAD PUSH1 0x40 MLOAD PUSH2 0xB79 SWAP2 SWAP1 PUSH2 0x106F JUMP JUMPDEST PUSH1 0x40 MLOAD DUP1 SWAP2 SUB SWAP1 LOG3 POP POP POP JUMP JUMPDEST PUSH1 0x2 PUSH0 SWAP1 SLOAD SWAP1 PUSH2 0x100 EXP SWAP1 DIV PUSH20 0xFFFFFFFFFFFFFFFFFFFFFFFFFFFFFFFFFFFFFFFF AND DUP2 JUMP JUMPDEST PUSH0 PUSH1 0x3 PUSH0 DUP4 DUP2 MSTORE PUSH1 0x20 ADD SWAP1 DUP2 MSTORE PUSH1 0x20 ADD PUSH0 KECCAK256 SWAP1 POP DUP1 PUSH1 0x2 ADD PUSH0 SWAP1 SLOAD SWAP1 PUSH2 0x100 EXP SWAP1 DIV PUSH1 0xFF AND PUSH2 0xC0F JUMPI PUSH1 0x40 MLOAD PUSH32 0x8C379A000000000000000000000000000000000000000000000000000000000 DUP2 MSTORE PUSH1 0x4 ADD PUSH2 0xC06 SWAP1 PUSH2 0x13F1 JUMP JUMPDEST PUSH1 0x40 MLOAD DUP1 SWAP2 SUB SWAP1 REVERT JUMPDEST DUP1 PUSH1 0x2 ADD PUSH1 0x1 SWAP1 SLOAD SWAP1 PUSH2 0x100 EXP SWAP1 DIV PUSH1 0xFF AND ISZERO PUSH2 0xC61 JUMPI PUSH1 0x40 MLOAD PUSH32 0x8C379A000000000000000000000000000000000000000000000000000000000 DUP2 MSTORE PUSH1 0x4 ADD PUSH2 0xC58 SWAP1 PUSH2 0x1459 JUMP JUMPDEST PUSH1 0x40 MLOAD DUP1 SWAP2 SUB SWAP1 REVERT JUMPDEST CALLER PUSH20 0xFFFFFFFFFFFFFFFFFFFFFFFFFFFFFFFFFFFFFFFF AND DUP2 PUSH0 ADD PUSH0 SWAP1 SLOAD SWAP1 PUSH2 0x100 EXP SWAP1 DIV PUSH20 0xFFFFFFFFFFFFFFFFFFFFFFFFFFFFFFFFFFFFFFFF AND PUSH20 0xFFFFFFFFFFFFFFFFFFFFFFFFFFFFFFFFFFFFFFFF AND EQ PUSH2 0xCF1 JUMPI PUSH1 0x40 MLOAD PUSH32 0x8C379A000000000000000000000000000000000000000000000000000000000 DUP2 MSTORE PUSH1 0x4 ADD PUSH2 0xCE8 SWAP1 PUSH2 0x16EC JUMP JUMPDEST PUSH1 0x40 MLOAD DUP1 SWAP2 SUB SWAP1 REVERT JUMPDEST PUSH1 0x3 PUSH0 DUP4 DUP2 MSTORE PUSH1 0x20 ADD SWAP1 DUP2 MSTORE PUSH1 0x20 ADD PUSH0 KECCAK256 PUSH0 DUP1 DUP3 ADD PUSH0 PUSH2 0x100 EXP DUP2 SLOAD SWAP1 PUSH20 0xFFFFFFFFFFFFFFFFFFFFFFFFFFFFFFFFFFFFFFFF MUL NOT AND SWAP1 SSTORE PUSH1 0x1 DUP3 ADD PUSH0 SWAP1 SSTORE PUSH1 0x2 DUP3 ADD PUSH0 PUSH2 0x100 EXP DUP2 SLOAD SWAP1 PUSH1 0xFF MUL NOT AND SWAP1 SSTORE PUSH1 0x2 DUP3 ADD PUSH1 0x1 PUSH2 0x100 EXP DUP2 SLOAD SWAP1 PUSH1 0xFF MUL NOT AND SWAP1 SSTORE PUSH1 0x3 DUP3 ADD PUSH0 SWAP1 SSTORE POP POP CALLER PUSH20 0xFFFFFFFFFFFFFFFFFFFFFFFFFFFFFFFFFFFFFFFF AND DUP3 PUSH32 0xB07C35948B3AA55AF6BAED77379D187E78A6E78BBE61FC2FE299F400607C441F PUSH1 0x40 MLOAD PUSH1 0x40 MLOAD DUP1 SWAP2 SUB SWAP1 LOG3 POP POP JUMP JUMPDEST PUSH1 0x3 PUSH1 0x20 MSTORE DUP1 PUSH0 MSTORE PUSH1 0x40 PUSH0 KECCAK256 PUSH0 SWAP2 POP SWAP1 POP DUP1 PUSH0 ADD PUSH0 SWAP1 SLOAD SWAP1 PUSH2 0x100 EXP SWAP1 DIV PUSH20 0xFFFFFFFFFFFFFFFFFFFFFFFFFFFFFFFFFFFFFFFF AND SWAP1 DUP1 PUSH1 0x1 ADD SLOAD SWAP1 DUP1 PUSH1 0x2 ADD PUSH0 SWAP1 SLOAD SWAP1 PUSH2 0x100 EXP SWAP1 DIV PUSH1 0xFF AND SWAP1 DUP1 PUSH1 0x2 ADD PUSH1 0x1 SWAP1 SLOAD SWAP1 PUSH2 0x100 EXP SWAP1 DIV PUSH1 0xFF AND SWAP1 DUP1 PUSH1 0x3 ADD SLOAD SWAP1 POP DUP6 JUMP JUMPDEST PUSH1 0x1 PUSH0 SWAP1 SLOAD SWAP1 PUSH2 0x100 EXP SWAP1 DIV PUSH20 0xFFFFFFFFFFFFFFFFFFFFFFFFFFFFFFFFFFFFFFFF AND DUP2 JUMP JUMPDEST PUSH3 0x93A80 DUP2 JUMP JUMPDEST PUSH0 DUP1 REVERT JUMPDEST PUSH0 DUP2 SWAP1 POP SWAP2 SWAP1 POP JUMP JUMPDEST PUSH2 0xE53 DUP2 PUSH2 0xE41 JUMP JUMPDEST DUP2 EQ PUSH2 0xE5D JUMPI PUSH0 DUP1 REVERT JUMPDEST POP JUMP JUMPDEST PUSH0 DUP2 CALLDATALOAD SWAP1 POP PUSH2 0xE6E DUP2 PUSH2 0xE4A JUMP JUMPDEST SWAP3 SWAP2 POP POP JUMP JUMPDEST PUSH0 PUSH1 0x20 DUP3 DUP5 SUB SLT ISZERO PUSH2 0xE89 JUMPI PUSH2 0xE88 PUSH2 0xE3D JUMP JUMPDEST JUMPDEST PUSH0 PUSH2 0xE96 DUP5 DUP3 DUP6 ADD PUSH2 0xE60 JUMP JUMPDEST SWAP2 POP POP SWAP3 SWAP2 POP POP JUMP JUMPDEST PUSH0 DUP2 ISZERO ISZERO SWAP1 POP SWAP2 SWAP1 POP JUMP JUMPDEST PUSH2 0xEB3 DUP2 PUSH2 0xE9F JUMP JUMPDEST DUP3 MSTORE POP POP JUMP JUMPDEST PUSH0 PUSH20 0xFFFFFFFFFFFFFFFFFFFFFFFFFFFFFFFFFFFFFFFF DUP3 AND SWAP1 POP SWAP2 SWAP1 POP JUMP JUMPDEST PUSH0 PUSH2 0xEE2 DUP3 PUSH2 0xEB9 JUMP JUMPDEST SWAP1 POP SWAP2 SWAP1 POP JUMP JUMPDEST PUSH2 0xEF2 DUP2 PUSH2 0xED8 JUMP JUMPDEST DUP3 MSTORE POP POP JUMP JUMPDEST PUSH2 0xF01 DUP2 PUSH2 0xE41 JUMP JUMPDEST DUP3 MSTORE POP POP JUMP JUMPDEST PUSH0 PUSH1 0x60 DUP3 ADD SWAP1 POP PUSH2 0xF1A PUSH0 DUP4 ADD DUP7 PUSH2 0xEAA JUMP JUMPDEST PUSH2 0xF27 PUSH1 0x20 DUP4 ADD DUP6 PUSH2 0xEE9 JUMP JUMPDEST PUSH2 0xF34 PUSH1 0x40 DUP4 ADD DUP5 PUSH2 0xEF8 JUMP JUMPDEST SWAP5 SWAP4 POP POP POP POP JUMP JUMPDEST PUSH0 PUSH1 0x20 DUP3 ADD SWAP1 POP PUSH2 0xF4F PUSH0 DUP4 ADD DUP5 PUSH2 0xEE9 JUMP JUMPDEST SWAP3 SWAP2 POP POP JUMP JUMPDEST PUSH2 0xF5E DUP2 PUSH2 0xED8 JUMP JUMPDEST DUP2 EQ PUSH2 0xF68 JUMPI PUSH0 DUP1 REVERT JUMPDEST POP JUMP JUMPDEST PUSH0 DUP2 CALLDATALOAD SWAP1 POP PUSH2 0xF79 DUP2 PUSH2 0xF55 JUMP JUMPDEST SWAP3 SWAP2 POP POP JUMP JUMPDEST PUSH0 PUSH1 0x20 DUP3 DUP5 SUB SLT ISZERO PUSH2 0xF94 JUMPI PUSH2 0xF93 PUSH2 0xE3D JUMP JUMPDEST JUMPDEST PUSH0 PUSH2 0xFA1 DUP5 DUP3 DUP6 ADD PUSH2 0xF6B JUMP JUMPDEST SWAP2 POP POP SWAP3 SWAP2 POP POP JUMP JUMPDEST PUSH0 PUSH1 0xA0 DUP3 ADD SWAP1 POP PUSH2 0xFBD PUSH0 DUP4 ADD DUP9 PUSH2 0xEE9 JUMP JUMPDEST PUSH2 0xFCA PUSH1 0x20 DUP4 ADD DUP8 PUSH2 0xEF8 JUMP JUMPDEST PUSH2 0xFD7 PUSH1 0x40 DUP4 ADD DUP7 PUSH2 0xEAA JUMP JUMPDEST PUSH2 0xFE4 PUSH1 0x60 DUP4 ADD DUP6 PUSH2 0xEAA JUMP JUMPDEST PUSH2 0xFF1 PUSH1 0x80 DUP4 ADD DUP5 PUSH2 0xEF8 JUMP JUMPDEST SWAP7 SWAP6 POP POP POP POP POP POP JUMP JUMPDEST PUSH0 DUP2 SWAP1 POP SWAP2 SWAP1 POP JUMP JUMPDEST PUSH0 PUSH2 0x101E PUSH2 0x1019 PUSH2 0x1014 DUP5 PUSH2 0xEB9 JUMP JUMPDEST PUSH2 0xFFB JUMP JUMPDEST PUSH2 0xEB9 JUMP JUMPDEST SWAP1 POP SWAP2 SWAP1 POP JUMP JUMPDEST PUSH0 PUSH2 0x102F DUP3 PUSH2 0x1004 JUMP JUMPDEST SWAP1 POP SWAP2 SWAP1 POP JUMP JUMPDEST PUSH0 PUSH2 0x1040 DUP3 PUSH2 0x1025 JUMP JUMPDEST SWAP1 POP SWAP2 SWAP1 POP JUMP JUMPDEST PUSH2 0x1050 DUP2 PUSH2 0x1036 JUMP JUMPDEST DUP3 MSTORE POP POP JUMP JUMPDEST PUSH0 PUSH1 0x20 DUP3 ADD SWAP1 POP PUSH2 0x1069 PUSH0 DUP4 ADD DUP5 PUSH2 0x1047 JUMP JUMPDEST SWAP3 SWAP2 POP POP JUMP JUMPDEST PUSH0 PUSH1 0x20 DUP3 ADD SWAP1 POP PUSH2 0x1082 PUSH0 DUP4 ADD DUP5 PUSH2 0xEF8 JUMP JUMPDEST SWAP3 SWAP2 POP POP JUMP JUMPDEST PUSH0 DUP2 MLOAD SWAP1 POP PUSH2 0x1096 DUP2 PUSH2 0xE4A JUMP JUMPDEST SWAP3 SWAP2 POP POP JUMP JUMPDEST PUSH0 PUSH1 0x20 DUP3 DUP5 SUB SLT ISZERO PUSH2 0x10B1 JUMPI PUSH2 0x10B0 PUSH2 0xE3D JUMP JUMPDEST JUMPDEST PUSH0 PUSH2 0x10BE DUP5 DUP3 DUP6 ADD PUSH2 0x1088 JUMP JUMPDEST SWAP2 POP POP SWAP3 SWAP2 POP POP JUMP JUMPDEST PUSH0 DUP3 DUP3 MSTORE PUSH1 0x20 DUP3 ADD SWAP1 POP SWAP3 SWAP2 POP POP JUMP JUMPDEST PUSH32 0x4E6F20626F756E747920666F7220746869732069737375650000000000000000 PUSH0 DUP3 ADD MSTORE POP JUMP JUMPDEST PUSH0 PUSH2 0x110B PUSH1 0x18 DUP4 PUSH2 0x10C7 JUMP JUMPDEST SWAP2 POP PUSH2 0x1116 DUP3 PUSH2 0x10D7 JUMP JUMPDEST PUSH1 0x20 DUP3 ADD SWAP1 POP SWAP2 SWAP1 POP JUMP JUMPDEST PUSH0 PUSH1 0x20 DUP3 ADD SWAP1 POP DUP2 DUP2 SUB PUSH0 DUP4 ADD MSTORE PUSH2 0x1138 DUP2 PUSH2 0x10FF JUMP JUMPDEST SWAP1 POP SWAP2 SWAP1 POP JUMP JUMPDEST PUSH0 DUP2 MLOAD SWAP1 POP PUSH2 0x114D DUP2 PUSH2 0xF55 JUMP JUMPDEST SWAP3 SWAP2 POP POP JUMP JUMPDEST PUSH2 0x115C DUP2 PUSH2 0xE9F JUMP JUMPDEST DUP2 EQ PUSH2 0x1166 JUMPI PUSH0 DUP1 REVERT JUMPDEST POP JUMP JUMPDEST PUSH0 DUP2 MLOAD SWAP1 POP PUSH2 0x1177 DUP2 PUSH2 0x1153 JUMP JUMPDEST SWAP3 SWAP2 POP POP JUMP JUMPDEST PUSH0 DUP1 PUSH0 DUP1 PUSH1 0x80 DUP6 DUP8 SUB SLT ISZERO PUSH2 0x1195 JUMPI PUSH2 0x1194 PUSH2 0xE3D JUMP JUMPDEST JUMPDEST PUSH0 PUSH2 0x11A2 DUP8 DUP3 DUP9 ADD PUSH2 0x1088 JUMP JUMPDEST SWAP5 POP POP PUSH1 0x20 PUSH2 0x11B3 DUP8 DUP3 DUP9 ADD PUSH2 0x113F JUMP JUMPDEST SWAP4 POP POP PUSH1 0x40 PUSH2 0x11C4 DUP8 DUP3 DUP9 ADD PUSH2 0x1088 JUMP JUMPDEST SWAP3 POP POP PUSH1 0x60 PUSH2 0x11D5 DUP8 DUP3 DUP9 ADD PUSH2 0x1169 JUMP JUMPDEST SWAP2 POP POP SWAP3 SWAP6 SWAP2 SWAP5 POP SWAP3 POP JUMP JUMPDEST PUSH32 0x426F756E7479206973206E6F7420616374697665000000000000000000000000 PUSH0 DUP3 ADD MSTORE POP JUMP JUMPDEST PUSH0 PUSH2 0x1215 PUSH1 0x14 DUP4 PUSH2 0x10C7 JUMP JUMPDEST SWAP2 POP PUSH2 0x1220 DUP3 PUSH2 0x11E1 JUMP JUMPDEST PUSH1 0x20 DUP3 ADD SWAP1 POP SWAP2 SWAP1 POP JUMP JUMPDEST PUSH0 PUSH1 0x20 DUP3 ADD SWAP1 POP DUP2 DUP2 SUB PUSH0 DUP4 ADD MSTORE PUSH2 0x1242 DUP2 PUSH2 0x1209 JUMP JUMPDEST SWAP1 POP SWAP2 SWAP1 POP JUMP JUMPDEST PUSH32 0x426F756E747920616C726561647920636C61696D656400000000000000000000 PUSH0 DUP3 ADD MSTORE POP JUMP JUMPDEST PUSH0 PUSH2 0x127D PUSH1 0x16 DUP4 PUSH2 0x10C7 JUMP JUMPDEST SWAP2 POP PUSH2 0x1288 DUP3 PUSH2 0x1249 JUMP JUMPDEST PUSH1 0x20 DUP3 ADD SWAP1 POP SWAP2 SWAP1 POP JUMP JUMPDEST PUSH0 PUSH1 0x20 DUP3 ADD SWAP1 POP DUP2 DUP2 SUB PUSH0 DUP4 ADD MSTORE PUSH2 0x12AA DUP2 PUSH2 0x1271 JUMP JUMPDEST SWAP1 POP SWAP2 SWAP1 POP JUMP JUMPDEST PUSH32 0x4F6E6C79206F776E65722063616E2063616C6C20746869732066756E6374696F PUSH0 DUP3 ADD MSTORE PUSH32 0x6E00000000000000000000000000000000000000000000000000000000000000 PUSH1 0x20 DUP3 ADD MSTORE POP JUMP JUMPDEST PUSH0 PUSH2 0x130B PUSH1 0x21 DUP4 PUSH2 0x10C7 JUMP JUMPDEST SWAP2 POP PUSH2 0x1316 DUP3 PUSH2 0x12B1 JUMP JUMPDEST PUSH1 0x40 DUP3 ADD SWAP1 POP SWAP2 SWAP1 POP JUMP JUMPDEST PUSH0 PUSH1 0x20 DUP3 ADD SWAP1 POP DUP2 DUP2 SUB PUSH0 DUP4 ADD MSTORE PUSH2 0x1338 DUP2 PUSH2 0x12FF JUMP JUMPDEST SWAP1 POP SWAP2 SWAP1 POP JUMP JUMPDEST PUSH32 0x496E76616C69642076616C696461746F72206164647265737300000000000000 PUSH0 DUP3 ADD MSTORE POP JUMP JUMPDEST PUSH0 PUSH2 0x1373 PUSH1 0x19 DUP4 PUSH2 0x10C7 JUMP JUMPDEST SWAP2 POP PUSH2 0x137E DUP3 PUSH2 0x133F JUMP JUMPDEST PUSH1 0x20 DUP3 ADD SWAP1 POP SWAP2 SWAP1 POP JUMP JUMPDEST PUSH0 PUSH1 0x20 DUP3 ADD SWAP1 POP DUP2 DUP2 SUB PUSH0 DUP4 ADD MSTORE PUSH2 0x13A0 DUP2 PUSH2 0x1367 JUMP JUMPDEST SWAP1 POP SWAP2 SWAP1 POP JUMP JUMPDEST PUSH32 0x426F756E7479206E6F7420636C61696D65640000000000000000000000000000 PUSH0 DUP3 ADD MSTORE POP JUMP JUMPDEST PUSH0 PUSH2 0x13DB PUSH1 0x12 DUP4 PUSH2 0x10C7 JUMP JUMPDEST SWAP2 POP PUSH2 0x13E6 DUP3 PUSH2 0x13A7 JUMP JUMPDEST PUSH1 0x20 DUP3 ADD SWAP1 POP SWAP2 SWAP1 POP JUMP JUMPDEST PUSH0 PUSH1 0x20 DUP3 ADD SWAP1 POP DUP2 DUP2 SUB PUSH0 DUP4 ADD MSTORE PUSH2 0x1408 DUP2 PUSH2 0x13CF JUMP JUMPDEST SWAP1 POP SWAP2 SWAP1 POP JUMP JUMPDEST PUSH32 0x426F756E747920616C7265616479207061696400000000000000000000000000 PUSH0 DUP3 ADD MSTORE POP JUMP JUMPDEST PUSH0 PUSH2 0x1443 PUSH1 0x13 DUP4 PUSH2 0x10C7 JUMP JUMPDEST SWAP2 POP PUSH2 0x144E DUP3 PUSH2 0x140F JUMP JUMPDEST PUSH1 0x20 DUP3 ADD SWAP1 POP SWAP2 SWAP1 POP JUMP JUMPDEST PUSH0 PUSH1 0x20 DUP3 ADD SWAP1 POP DUP2 DUP2 SUB PUSH0 DUP4 ADD MSTORE PUSH2 0x1470 DUP2 PUSH2 0x1437 JUMP JUMPDEST SWAP1 POP SWAP2 SWAP1 POP JUMP JUMPDEST PUSH32 0x4E487B7100000000000000000000000000000000000000000000000000000000 PUSH0 MSTORE PUSH1 0x11 PUSH1 0x4 MSTORE PUSH1 0x24 PUSH0 REVERT JUMPDEST PUSH0 PUSH2 0x14AE DUP3 PUSH2 0xE41 JUMP JUMPDEST SWAP2 POP PUSH2 0x14B9 DUP4 PUSH2 0xE41 JUMP JUMPDEST SWAP3 POP DUP3 DUP3 ADD SWAP1 POP DUP1 DUP3 GT ISZERO PUSH2 0x14D1 JUMPI PUSH2 0x14D0 PUSH2 0x1477 JUMP JUMPDEST JUMPDEST SWAP3 SWAP2 POP POP JUMP JUMPDEST PUSH32 0x436C61696D206578706972656400000000000000000000000000000000000000 PUSH0 DUP3 ADD MSTORE POP JUMP JUMPDEST PUSH0 PUSH2 0x150B PUSH1 0xD DUP4 PUSH2 0x10C7 JUMP JUMPDEST SWAP2 POP PUSH2 0x1516 DUP3 PUSH2 0x14D7 JUMP JUMPDEST PUSH1 0x20 DUP3 ADD SWAP1 POP SWAP2 SWAP1 POP JUMP JUMPDEST PUSH0 PUSH1 0x20 DUP3 ADD SWAP1 POP DUP2 DUP2 SUB PUSH0 DUP4 ADD MSTORE PUSH2 0x1538 DUP2 PUSH2 0x14FF JUMP JUMPDEST SWAP1 POP SWAP2 SWAP1 POP JUMP JUMPDEST PUSH0 PUSH1 0x40 DUP3 ADD SWAP1 POP PUSH2 0x1552 PUSH0 DUP4 ADD DUP6 PUSH2 0xEF8 JUMP JUMPDEST PUSH2 0x155F PUSH1 0x20 DUP4 ADD DUP5 PUSH2 0xEE9 JUMP JUMPDEST SWAP4 SWAP3 POP POP POP JUMP JUMPDEST PUSH0 PUSH1 0x20 DUP3 DUP5 SUB SLT ISZERO PUSH2 0x157B JUMPI PUSH2 0x157A PUSH2 0xE3D JUMP JUMPDEST JUMPDEST PUSH0 PUSH2 0x1588 DUP5 DUP3 DUP6 ADD PUSH2 0x1169 JUMP JUMPDEST SWAP2 POP POP SWAP3 SWAP2 POP POP JUMP JUMPDEST PUSH32 0x4E6F7420617070726F7665642062792076616C696461746F7273000000000000 PUSH0 DUP3 ADD MSTORE POP JUMP JUMPDEST PUSH0 PUSH2 0x15C5 PUSH1 0x1A DUP4 PUSH2 0x10C7 JUMP JUMPDEST SWAP2 POP PUSH2 0x15D0 DUP3 PUSH2 0x1591 JUMP JUMPDEST PUSH1 0x20 DUP3 ADD SWAP1 POP SWAP2 SWAP1 POP JUMP JUMPDEST PUSH0 PUSH1 0x20 DUP3 ADD SWAP1 POP DUP2 DUP2 SUB PUSH0 DUP4 ADD MSTORE PUSH2 0x15F2 DUP2 PUSH2 0x15B9 JUMP JUMPDEST SWAP1 POP SWAP2 SWAP1 POP JUMP JUMPDEST PUSH0 DUP2 SWAP1 POP SWAP3 SWAP2 POP POP JUMP JUMPDEST POP JUMP JUMPDEST PUSH0 PUSH2 0x1611 PUSH0 DUP4 PUSH2 0x15F9 JUMP JUMPDEST SWAP2 POP PUSH2 0x161C DUP3 PUSH2 0x1603 JUMP JUMPDEST PUSH0 DUP3 ADD SWAP1 POP SWAP2 SWAP1 POP JUMP JUMPDEST PUSH0 PUSH2 0x1630 DUP3 PUSH2 0x1606 JUMP JUMPDEST SWAP2 POP DUP2 SWAP1 POP SWAP2 SWAP1 POP JUMP JUMPDEST PUSH32 0x5472616E73666572206661696C65640000000000000000000000000000000000 PUSH0 DUP3 ADD MSTORE POP JUMP JUMPDEST PUSH0 PUSH2 0x166E PUSH1 0xF DUP4 PUSH2 0x10C7 JUMP JUMPDEST SWAP2 POP PUSH2 0x1679 DUP3 PUSH2 0x163A JUMP JUMPDEST PUSH1 0x20 DUP3 ADD SWAP1 POP SWAP2 SWAP1 POP JUMP JUMPDEST PUSH0 PUSH1 0x20 DUP3 ADD SWAP1 POP DUP2 DUP2 SUB PUSH0 DUP4 ADD MSTORE PUSH2 0x169B DUP2 PUSH2 0x1662 JUMP JUMPDEST SWAP1 POP SWAP2 SWAP1 POP JUMP JUMPDEST PUSH32 0x4F6E6C7920636C61696D65722063616E2063616E63656C000000000000000000 PUSH0 DUP3 ADD MSTORE POP JUMP JUMPDEST PUSH0 PUSH2 0x16D6 PUSH1 0x17 DUP4 PUSH2 0x10C7 JUMP JUMPDEST SWAP2 POP PUSH2 0x16E1 DUP3 PUSH2 0x16A2 JUMP JUMPDEST PUSH1 0x20 DUP3 ADD SWAP1 POP SWAP2 SWAP1 POP JUMP JUMPDEST PUSH0 PUSH1 0x20 DUP3 ADD SWAP1 POP DUP2 DUP2 SUB PUSH0 DUP4 ADD MSTORE PUSH2 0x1703 DUP2 PUSH2 0x16CA JUMP JUMPDEST SWAP1 POP SWAP2 SWAP1 POP JUMP INVALID LOG2 PUSH5 0x6970667358 0x22 SLT KECCAK256 LT PUSH29 0x8E5404CA7652BECBBB6DCBFDAC9AD243948922041D9A4EF19F28CBED8E 0xC7 PUSH5 0x736F6C6343 STOP ADDMOD BYTE STOP CALLER "
				},
				"gasEstimates": {
					"creation": {
						"codeDepositCost": "1190400",
						"executionCost": "infinite",
						"totalCost": "infinite"
					},
					"external": {
						"CLAIM_TIMEOUT()": "413",
						"cancelClaim(uint256)": "91498",
						"claimBounty(uint256)": "infinite",
						"claims(uint256)": "infinite",
						"fundManager()": "infinite",
						"getClaimStatus(uint256)": "infinite",
						"owner()": "2508",
						"processPayout(uint256)": "infinite",
						"updateValidator(address)": "26985",
						"validatorMultiSig()": "infinite"
					}
				},
				"methodIdentifiers": {
					"CLAIM_TIMEOUT()": "f5f5dd41",
					"cancelClaim(uint256)": "9dc5e02f",
					"claimBounty(uint256)": "44021ad7",
					"claims(uint256)": "a888c2cd",
					"fundManager()": "6209ec2d",
					"getClaimStatus(uint256)": "36dbd2f9",
					"owner()": "8da5cb5b",
					"processPayout(uint256)": "89ee68bf",
					"updateValidator(address)": "635b2770",
					"validatorMultiSig()": "f1e2de14"
				}
			},
			"storageLayout": {
				"storage": [
					{
						"astId": 14,
						"contract": "prog2005-2025/lab02/gitlab-fund/contracts/DeveloperPayouts.sol:DeveloperPayouts",
						"label": "_reentrancyContext",
						"offset": 0,
						"slot": "0",
						"type": "t_struct(NonReentrantContext)603_storage"
					},
					{
						"astId": 31,
						"contract": "prog2005-2025/lab02/gitlab-fund/contracts/DeveloperPayouts.sol:DeveloperPayouts",
						"label": "validatorMultiSig",
						"offset": 0,
						"slot": "1",
						"type": "t_contract(IValidatorMultiSig)571"
					},
					{
						"astId": 33,
						"contract": "prog2005-2025/lab02/gitlab-fund/contracts/DeveloperPayouts.sol:DeveloperPayouts",
						"label": "owner",
						"offset": 0,
						"slot": "2",
						"type": "t_address"
					},
					{
						"astId": 38,
						"contract": "prog2005-2025/lab02/gitlab-fund/contracts/DeveloperPayouts.sol:DeveloperPayouts",
						"label": "claims",
						"offset": 0,
						"slot": "3",
						"type": "t_mapping(t_uint256,t_struct(Claim)25_storage)"
					}
				],
				"types": {
					"t_address": {
						"encoding": "inplace",
						"label": "address",
						"numberOfBytes": "20"
					},
					"t_bool": {
						"encoding": "inplace",
						"label": "bool",
						"numberOfBytes": "1"
					},
					"t_bytes32": {
						"encoding": "inplace",
						"label": "bytes32",
						"numberOfBytes": "32"
					},
					"t_contract(IValidatorMultiSig)571": {
						"encoding": "inplace",
						"label": "contract IValidatorMultiSig",
						"numberOfBytes": "20"
					},
					"t_mapping(t_uint256,t_struct(Claim)25_storage)": {
						"encoding": "mapping",
						"key": "t_uint256",
						"label": "mapping(uint256 => struct DeveloperPayouts.Claim)",
						"numberOfBytes": "32",
						"value": "t_struct(Claim)25_storage"
					},
					"t_struct(Claim)25_storage": {
						"encoding": "inplace",
						"label": "struct DeveloperPayouts.Claim",
						"members": [
							{
								"astId": 16,
								"contract": "prog2005-2025/lab02/gitlab-fund/contracts/DeveloperPayouts.sol:DeveloperPayouts",
								"label": "developer",
								"offset": 0,
								"slot": "0",
								"type": "t_address"
							},
							{
								"astId": 18,
								"contract": "prog2005-2025/lab02/gitlab-fund/contracts/DeveloperPayouts.sol:DeveloperPayouts",
								"label": "amount",
								"offset": 0,
								"slot": "1",
								"type": "t_uint256"
							},
							{
								"astId": 20,
								"contract": "prog2005-2025/lab02/gitlab-fund/contracts/DeveloperPayouts.sol:DeveloperPayouts",
								"label": "claimed",
								"offset": 0,
								"slot": "2",
								"type": "t_bool"
							},
							{
								"astId": 22,
								"contract": "prog2005-2025/lab02/gitlab-fund/contracts/DeveloperPayouts.sol:DeveloperPayouts",
								"label": "paid",
								"offset": 1,
								"slot": "2",
								"type": "t_bool"
							},
							{
								"astId": 24,
								"contract": "prog2005-2025/lab02/gitlab-fund/contracts/DeveloperPayouts.sol:DeveloperPayouts",
								"label": "timestamp",
								"offset": 0,
								"slot": "3",
								"type": "t_uint256"
							}
						],
						"numberOfBytes": "128"
					},
					"t_struct(NonReentrantContext)603_storage": {
						"encoding": "inplace",
						"label": "struct SecurityUtils.NonReentrantContext",
						"members": [
							{
								"astId": 602,
								"contract": "prog2005-2025/lab02/gitlab-fund/contracts/DeveloperPayouts.sol:DeveloperPayouts",
								"label": "_reentrancyGuardStatus",
								"offset": 0,
								"slot": "0",
								"type": "t_bytes32"
							}
						],
						"numberOfBytes": "32"
					},
					"t_uint256": {
						"encoding": "inplace",
						"label": "uint256",
						"numberOfBytes": "32"
					}
				}
			},
			"userdoc": {
				"kind": "user",
				"methods": {},
				"version": 1
			}
		}
	}
}