{
	"prog2005-2025/lab02/gitlab-fund/contracts/DeveloperPayouts.sol": {
		"DeveloperPayouts": {
			"abi": [
				{
					"inputs": [
						{
							"internalType": "address",
							"name": "_fundManager",
							"type": "address"
						},
						{
							"internalType": "address",
							"name": "_validatorMultiSig",
							"type": "address"
						}
					],
					"stateMutability": "nonpayable",
					"type": "constructor"
				},
				{
					"anonymous": false,
					"inputs": [
						{
							"indexed": true,
							"internalType": "uint256",
							"name": "issueId",
							"type": "uint256"
						},
						{
							"indexed": true,
							"internalType": "address",
							"name": "developer",
							"type": "address"
						}
					],
					"name": "BountyClaimed",
					"type": "event"
				},
				{
					"anonymous": false,
					"inputs": [
						{
							"indexed": true,
							"internalType": "uint256",
							"name": "issueId",
							"type": "uint256"
						},
						{
							"indexed": true,
							"internalType": "address",
							"name": "developer",
							"type": "address"
						}
					],
					"name": "ClaimCancelled",
					"type": "event"
				},
				{
					"anonymous": false,
					"inputs": [
						{
							"indexed": true,
							"internalType": "uint256",
							"name": "issueId",
							"type": "uint256"
						},
						{
							"indexed": true,
							"internalType": "address",
							"name": "developer",
							"type": "address"
						},
						{
							"indexed": false,
							"internalType": "uint256",
							"name": "amount",
							"type": "uint256"
						}
					],
					"name": "PayoutProcessed",
					"type": "event"
				},
				{
					"inputs": [],
					"name": "CLAIM_TIMEOUT",
					"outputs": [
						{
							"internalType": "uint256",
							"name": "",
							"type": "uint256"
						}
					],
					"stateMutability": "view",
					"type": "function"
				},
				{
					"inputs": [
						{
							"internalType": "uint256",
							"name": "issueId",
							"type": "uint256"
						}
					],
					"name": "cancelClaim",
					"outputs": [],
					"stateMutability": "nonpayable",
					"type": "function"
				},
				{
					"inputs": [
						{
							"internalType": "uint256",
							"name": "issueId",
							"type": "uint256"
						}
					],
					"name": "claimBounty",
					"outputs": [],
					"stateMutability": "nonpayable",
					"type": "function"
				},
				{
					"inputs": [
						{
							"internalType": "uint256",
							"name": "",
							"type": "uint256"
						}
					],
					"name": "claimTimestamps",
					"outputs": [
						{
							"internalType": "uint256",
							"name": "",
							"type": "uint256"
						}
					],
					"stateMutability": "view",
					"type": "function"
				},
				{
					"inputs": [
						{
							"internalType": "uint256",
							"name": "",
							"type": "uint256"
						}
					],
					"name": "claims",
					"outputs": [
						{
							"internalType": "address",
							"name": "developer",
							"type": "address"
						},
						{
							"internalType": "uint256",
							"name": "amount",
							"type": "uint256"
						},
						{
							"internalType": "bool",
							"name": "claimed",
							"type": "bool"
						},
						{
							"internalType": "bool",
							"name": "paid",
							"type": "bool"
						}
					],
					"stateMutability": "view",
					"type": "function"
				},
				{
					"inputs": [],
					"name": "fundManager",
					"outputs": [
						{
							"internalType": "contract IFundManager",
							"name": "",
							"type": "address"
						}
					],
					"stateMutability": "view",
					"type": "function"
				},
				{
					"inputs": [
						{
							"internalType": "uint256",
							"name": "issueId",
							"type": "uint256"
						}
					],
					"name": "getClaimStatus",
					"outputs": [
						{
							"internalType": "bool",
							"name": "claimed",
							"type": "bool"
						},
						{
							"internalType": "address",
							"name": "developer",
							"type": "address"
						},
						{
							"internalType": "uint256",
							"name": "amount",
							"type": "uint256"
						}
					],
					"stateMutability": "view",
					"type": "function"
				},
				{
					"inputs": [
						{
							"internalType": "uint256",
							"name": "issueId",
							"type": "uint256"
						}
					],
					"name": "isClaimExpired",
					"outputs": [
						{
							"internalType": "bool",
							"name": "",
							"type": "bool"
						}
					],
					"stateMutability": "view",
					"type": "function"
				},
				{
					"inputs": [
						{
							"internalType": "uint256",
							"name": "issueId",
							"type": "uint256"
						}
					],
					"name": "processPayout",
					"outputs": [],
					"stateMutability": "nonpayable",
					"type": "function"
				},
				{
					"inputs": [],
					"name": "validatorMultiSig",
					"outputs": [
						{
							"internalType": "contract IValidatorMultiSig",
							"name": "",
							"type": "address"
						}
					],
					"stateMutability": "view",
					"type": "function"
				},
				{
					"stateMutability": "payable",
					"type": "receive"
				}
			],
			"devdoc": {
				"kind": "dev",
				"methods": {
					"cancelClaim(uint256)": {
						"details": "Cancel a claim (can be called by the original claimer or automatically after timeout)",
						"params": {
							"issueId": "The GitLab issue ID"
						}
					},
					"claimBounty(uint256)": {
						"details": "Developer claims a bounty for an issue",
						"params": {
							"issueId": "The GitLab issue ID"
						}
					},
					"getClaimStatus(uint256)": {
						"details": "Get the current status of a claim",
						"params": {
							"issueId": "The GitLab issue ID"
						},
						"returns": {
							"amount": "The bounty amount",
							"claimed": "Whether the bounty has been claimed",
							"developer": "The address of the developer who claimed"
						}
					},
					"isClaimExpired(uint256)": {
						"details": "Check if a claim has expired",
						"params": {
							"issueId": "The GitLab issue ID"
						},
						"returns": {
							"_0": "bool Whether the claim has expired"
						}
					},
					"processPayout(uint256)": {
						"details": "Process payout for a claimed bounty after validator approval",
						"params": {
							"issueId": "The GitLab issue ID"
						}
					}
				},
				"version": 1
			},
			"evm": {
				"assembly": "    /* \"prog2005-2025/lab02/gitlab-fund/contracts/DeveloperPayouts.sol\":230:4824  contract DeveloperPayouts is IDeveloperPayouts {... */\n  mstore(0x40, 0xc0)\n    /* \"prog2005-2025/lab02/gitlab-fund/contracts/DeveloperPayouts.sol\":1001:1345  constructor(address _fundManager, address _validatorMultiSig) {... */\n  callvalue\n  dup1\n  iszero\n  tag_1\n  jumpi\n  0x00\n  dup1\n  revert\ntag_1:\n  pop\n  mload(0x40)\n  sub(codesize, bytecodeSize)\n  dup1\n  bytecodeSize\n  dup4\n  codecopy\n  dup2\n  dup2\n  add\n  0x40\n  mstore\n  dup2\n  add\n  swap1\n  tag_2\n  swap2\n  swap1\n  tag_3\n  jump\t// in\ntag_2:\n    /* \"prog2005-2025/lab02/gitlab-fund/contracts/DeveloperPayouts.sol\":1105:1106  0 */\n  0x00\n    /* \"prog2005-2025/lab02/gitlab-fund/contracts/DeveloperPayouts.sol\":1081:1107  _fundManager != address(0) */\n  0xffffffffffffffffffffffffffffffffffffffff\n  and\n    /* \"prog2005-2025/lab02/gitlab-fund/contracts/DeveloperPayouts.sol\":1081:1093  _fundManager */\n  dup3\n    /* \"prog2005-2025/lab02/gitlab-fund/contracts/DeveloperPayouts.sol\":1081:1107  _fundManager != address(0) */\n  0xffffffffffffffffffffffffffffffffffffffff\n  and\n  sub\n    /* \"prog2005-2025/lab02/gitlab-fund/contracts/DeveloperPayouts.sol\":1073:1140  require(_fundManager != address(0), \"Invalid fund manager address\") */\n  tag_6\n  jumpi\n  mload(0x40)\n  0x08c379a000000000000000000000000000000000000000000000000000000000\n  dup2\n  mstore\n  0x04\n  add\n  tag_7\n  swap1\n  tag_8\n  jump\t// in\ntag_7:\n  mload(0x40)\n  dup1\n  swap2\n  sub\n  swap1\n  revert\ntag_6:\n    /* \"prog2005-2025/lab02/gitlab-fund/contracts/DeveloperPayouts.sol\":1188:1189  0 */\n  0x00\n    /* \"prog2005-2025/lab02/gitlab-fund/contracts/DeveloperPayouts.sol\":1158:1190  _validatorMultiSig != address(0) */\n  0xffffffffffffffffffffffffffffffffffffffff\n  and\n    /* \"prog2005-2025/lab02/gitlab-fund/contracts/DeveloperPayouts.sol\":1158:1176  _validatorMultiSig */\n  dup2\n    /* \"prog2005-2025/lab02/gitlab-fund/contracts/DeveloperPayouts.sol\":1158:1190  _validatorMultiSig != address(0) */\n  0xffffffffffffffffffffffffffffffffffffffff\n  and\n  sub\n    /* \"prog2005-2025/lab02/gitlab-fund/contracts/DeveloperPayouts.sol\":1150:1220  require(_validatorMultiSig != address(0), \"Invalid validator address\") */\n  tag_9\n  jumpi\n  mload(0x40)\n  0x08c379a000000000000000000000000000000000000000000000000000000000\n  dup2\n  mstore\n  0x04\n  add\n  tag_10\n  swap1\n  tag_11\n  jump\t// in\ntag_10:\n  mload(0x40)\n  dup1\n  swap2\n  sub\n  swap1\n  revert\ntag_9:\n    /* \"prog2005-2025/lab02/gitlab-fund/contracts/DeveloperPayouts.sol\":1257:1269  _fundManager */\n  dup2\n    /* \"prog2005-2025/lab02/gitlab-fund/contracts/DeveloperPayouts.sol\":1230:1270  fundManager = IFundManager(_fundManager) */\n  0xffffffffffffffffffffffffffffffffffffffff\n  and\n  0x80\n  dup2\n  0xffffffffffffffffffffffffffffffffffffffff\n  and\n  dup2\n  mstore\n  pop\n  pop\n    /* \"prog2005-2025/lab02/gitlab-fund/contracts/DeveloperPayouts.sol\":1319:1337  _validatorMultiSig */\n  dup1\n    /* \"prog2005-2025/lab02/gitlab-fund/contracts/DeveloperPayouts.sol\":1280:1338  validatorMultiSig = IValidatorMultiSig(_validatorMultiSig) */\n  0xffffffffffffffffffffffffffffffffffffffff\n  and\n  0xa0\n  dup2\n  0xffffffffffffffffffffffffffffffffffffffff\n  and\n  dup2\n  mstore\n  pop\n  pop\n    /* \"prog2005-2025/lab02/gitlab-fund/contracts/DeveloperPayouts.sol\":1001:1345  constructor(address _fundManager, address _validatorMultiSig) {... */\n  pop\n  pop\n    /* \"prog2005-2025/lab02/gitlab-fund/contracts/DeveloperPayouts.sol\":230:4824  contract DeveloperPayouts is IDeveloperPayouts {... */\n  jump(tag_12)\n    /* \"#utility.yul\":88:205   */\ntag_14:\n    /* \"#utility.yul\":197:198   */\n  0x00\n    /* \"#utility.yul\":194:195   */\n  dup1\n    /* \"#utility.yul\":187:199   */\n  revert\n    /* \"#utility.yul\":334:460   */\ntag_16:\n    /* \"#utility.yul\":371:378   */\n  0x00\n    /* \"#utility.yul\":411:453   */\n  0xffffffffffffffffffffffffffffffffffffffff\n    /* \"#utility.yul\":404:409   */\n  dup3\n    /* \"#utility.yul\":400:454   */\n  and\n    /* \"#utility.yul\":389:454   */\n  swap1\n  pop\n    /* \"#utility.yul\":334:460   */\n  swap2\n  swap1\n  pop\n  jump\t// out\n    /* \"#utility.yul\":466:562   */\ntag_17:\n    /* \"#utility.yul\":503:510   */\n  0x00\n    /* \"#utility.yul\":532:556   */\n  tag_31\n    /* \"#utility.yul\":550:555   */\n  dup3\n    /* \"#utility.yul\":532:556   */\n  tag_16\n  jump\t// in\ntag_31:\n    /* \"#utility.yul\":521:556   */\n  swap1\n  pop\n    /* \"#utility.yul\":466:562   */\n  swap2\n  swap1\n  pop\n  jump\t// out\n    /* \"#utility.yul\":568:690   */\ntag_18:\n    /* \"#utility.yul\":641:665   */\n  tag_33\n    /* \"#utility.yul\":659:664   */\n  dup2\n    /* \"#utility.yul\":641:665   */\n  tag_17\n  jump\t// in\ntag_33:\n    /* \"#utility.yul\":634:639   */\n  dup2\n    /* \"#utility.yul\":631:666   */\n  eq\n    /* \"#utility.yul\":621:684   */\n  tag_34\n  jumpi\n    /* \"#utility.yul\":680:681   */\n  0x00\n    /* \"#utility.yul\":677:678   */\n  dup1\n    /* \"#utility.yul\":670:682   */\n  revert\n    /* \"#utility.yul\":621:684   */\ntag_34:\n    /* \"#utility.yul\":568:690   */\n  pop\n  jump\t// out\n    /* \"#utility.yul\":696:839   */\ntag_19:\n    /* \"#utility.yul\":753:758   */\n  0x00\n    /* \"#utility.yul\":784:790   */\n  dup2\n    /* \"#utility.yul\":778:791   */\n  mload\n    /* \"#utility.yul\":769:791   */\n  swap1\n  pop\n    /* \"#utility.yul\":800:833   */\n  tag_36\n    /* \"#utility.yul\":827:832   */\n  dup2\n    /* \"#utility.yul\":800:833   */\n  tag_18\n  jump\t// in\ntag_36:\n    /* \"#utility.yul\":696:839   */\n  swap3\n  swap2\n  pop\n  pop\n  jump\t// out\n    /* \"#utility.yul\":845:1352   */\ntag_3:\n    /* \"#utility.yul\":924:930   */\n  0x00\n    /* \"#utility.yul\":932:938   */\n  dup1\n    /* \"#utility.yul\":981:983   */\n  0x40\n    /* \"#utility.yul\":969:978   */\n  dup4\n    /* \"#utility.yul\":960:967   */\n  dup6\n    /* \"#utility.yul\":956:979   */\n  sub\n    /* \"#utility.yul\":952:984   */\n  slt\n    /* \"#utility.yul\":949:1068   */\n  iszero\n  tag_38\n  jumpi\n    /* \"#utility.yul\":987:1066   */\n  tag_39\n  tag_14\n  jump\t// in\ntag_39:\n    /* \"#utility.yul\":949:1068   */\ntag_38:\n    /* \"#utility.yul\":1107:1108   */\n  0x00\n    /* \"#utility.yul\":1132:1196   */\n  tag_40\n    /* \"#utility.yul\":1188:1195   */\n  dup6\n    /* \"#utility.yul\":1179:1185   */\n  dup3\n    /* \"#utility.yul\":1168:1177   */\n  dup7\n    /* \"#utility.yul\":1164:1186   */\n  add\n    /* \"#utility.yul\":1132:1196   */\n  tag_19\n  jump\t// in\ntag_40:\n    /* \"#utility.yul\":1122:1196   */\n  swap3\n  pop\n    /* \"#utility.yul\":1078:1206   */\n  pop\n    /* \"#utility.yul\":1245:1247   */\n  0x20\n    /* \"#utility.yul\":1271:1335   */\n  tag_41\n    /* \"#utility.yul\":1327:1334   */\n  dup6\n    /* \"#utility.yul\":1318:1324   */\n  dup3\n    /* \"#utility.yul\":1307:1316   */\n  dup7\n    /* \"#utility.yul\":1303:1325   */\n  add\n    /* \"#utility.yul\":1271:1335   */\n  tag_19\n  jump\t// in\ntag_41:\n    /* \"#utility.yul\":1261:1335   */\n  swap2\n  pop\n    /* \"#utility.yul\":1216:1345   */\n  pop\n    /* \"#utility.yul\":845:1352   */\n  swap3\n  pop\n  swap3\n  swap1\n  pop\n  jump\t// out\n    /* \"#utility.yul\":1358:1527   */\ntag_20:\n    /* \"#utility.yul\":1442:1453   */\n  0x00\n    /* \"#utility.yul\":1476:1482   */\n  dup3\n    /* \"#utility.yul\":1471:1474   */\n  dup3\n    /* \"#utility.yul\":1464:1483   */\n  mstore\n    /* \"#utility.yul\":1516:1520   */\n  0x20\n    /* \"#utility.yul\":1511:1514   */\n  dup3\n    /* \"#utility.yul\":1507:1521   */\n  add\n    /* \"#utility.yul\":1492:1521   */\n  swap1\n  pop\n    /* \"#utility.yul\":1358:1527   */\n  swap3\n  swap2\n  pop\n  pop\n  jump\t// out\n    /* \"#utility.yul\":1533:1711   */\ntag_21:\n    /* \"#utility.yul\":1673:1703   */\n  0x496e76616c69642066756e64206d616e61676572206164647265737300000000\n    /* \"#utility.yul\":1669:1670   */\n  0x00\n    /* \"#utility.yul\":1661:1667   */\n  dup3\n    /* \"#utility.yul\":1657:1671   */\n  add\n    /* \"#utility.yul\":1650:1704   */\n  mstore\n    /* \"#utility.yul\":1533:1711   */\n  pop\n  jump\t// out\n    /* \"#utility.yul\":1717:2083   */\ntag_22:\n    /* \"#utility.yul\":1859:1862   */\n  0x00\n    /* \"#utility.yul\":1880:1947   */\n  tag_45\n    /* \"#utility.yul\":1944:1946   */\n  0x1c\n    /* \"#utility.yul\":1939:1942   */\n  dup4\n    /* \"#utility.yul\":1880:1947   */\n  tag_20\n  jump\t// in\ntag_45:\n    /* \"#utility.yul\":1873:1947   */\n  swap2\n  pop\n    /* \"#utility.yul\":1956:2049   */\n  tag_46\n    /* \"#utility.yul\":2045:2048   */\n  dup3\n    /* \"#utility.yul\":1956:2049   */\n  tag_21\n  jump\t// in\ntag_46:\n    /* \"#utility.yul\":2074:2076   */\n  0x20\n    /* \"#utility.yul\":2069:2072   */\n  dup3\n    /* \"#utility.yul\":2065:2077   */\n  add\n    /* \"#utility.yul\":2058:2077   */\n  swap1\n  pop\n    /* \"#utility.yul\":1717:2083   */\n  swap2\n  swap1\n  pop\n  jump\t// out\n    /* \"#utility.yul\":2089:2508   */\ntag_8:\n    /* \"#utility.yul\":2255:2259   */\n  0x00\n    /* \"#utility.yul\":2293:2295   */\n  0x20\n    /* \"#utility.yul\":2282:2291   */\n  dup3\n    /* \"#utility.yul\":2278:2296   */\n  add\n    /* \"#utility.yul\":2270:2296   */\n  swap1\n  pop\n    /* \"#utility.yul\":2342:2351   */\n  dup2\n    /* \"#utility.yul\":2336:2340   */\n  dup2\n    /* \"#utility.yul\":2332:2352   */\n  sub\n    /* \"#utility.yul\":2328:2329   */\n  0x00\n    /* \"#utility.yul\":2317:2326   */\n  dup4\n    /* \"#utility.yul\":2313:2330   */\n  add\n    /* \"#utility.yul\":2306:2353   */\n  mstore\n    /* \"#utility.yul\":2370:2501   */\n  tag_48\n    /* \"#utility.yul\":2496:2500   */\n  dup2\n    /* \"#utility.yul\":2370:2501   */\n  tag_22\n  jump\t// in\ntag_48:\n    /* \"#utility.yul\":2362:2501   */\n  swap1\n  pop\n    /* \"#utility.yul\":2089:2508   */\n  swap2\n  swap1\n  pop\n  jump\t// out\n    /* \"#utility.yul\":2514:2689   */\ntag_23:\n    /* \"#utility.yul\":2654:2681   */\n  0x496e76616c69642076616c696461746f72206164647265737300000000000000\n    /* \"#utility.yul\":2650:2651   */\n  0x00\n    /* \"#utility.yul\":2642:2648   */\n  dup3\n    /* \"#utility.yul\":2638:2652   */\n  add\n    /* \"#utility.yul\":2631:2682   */\n  mstore\n    /* \"#utility.yul\":2514:2689   */\n  pop\n  jump\t// out\n    /* \"#utility.yul\":2695:3061   */\ntag_24:\n    /* \"#utility.yul\":2837:2840   */\n  0x00\n    /* \"#utility.yul\":2858:2925   */\n  tag_51\n    /* \"#utility.yul\":2922:2924   */\n  0x19\n    /* \"#utility.yul\":2917:2920   */\n  dup4\n    /* \"#utility.yul\":2858:2925   */\n  tag_20\n  jump\t// in\ntag_51:\n    /* \"#utility.yul\":2851:2925   */\n  swap2\n  pop\n    /* \"#utility.yul\":2934:3027   */\n  tag_52\n    /* \"#utility.yul\":3023:3026   */\n  dup3\n    /* \"#utility.yul\":2934:3027   */\n  tag_23\n  jump\t// in\ntag_52:\n    /* \"#utility.yul\":3052:3054   */\n  0x20\n    /* \"#utility.yul\":3047:3050   */\n  dup3\n    /* \"#utility.yul\":3043:3055   */\n  add\n    /* \"#utility.yul\":3036:3055   */\n  swap1\n  pop\n    /* \"#utility.yul\":2695:3061   */\n  swap2\n  swap1\n  pop\n  jump\t// out\n    /* \"#utility.yul\":3067:3486   */\ntag_11:\n    /* \"#utility.yul\":3233:3237   */\n  0x00\n    /* \"#utility.yul\":3271:3273   */\n  0x20\n    /* \"#utility.yul\":3260:3269   */\n  dup3\n    /* \"#utility.yul\":3256:3274   */\n  add\n    /* \"#utility.yul\":3248:3274   */\n  swap1\n  pop\n    /* \"#utility.yul\":3320:3329   */\n  dup2\n    /* \"#utility.yul\":3314:3318   */\n  dup2\n    /* \"#utility.yul\":3310:3330   */\n  sub\n    /* \"#utility.yul\":3306:3307   */\n  0x00\n    /* \"#utility.yul\":3295:3304   */\n  dup4\n    /* \"#utility.yul\":3291:3308   */\n  add\n    /* \"#utility.yul\":3284:3331   */\n  mstore\n    /* \"#utility.yul\":3348:3479   */\n  tag_54\n    /* \"#utility.yul\":3474:3478   */\n  dup2\n    /* \"#utility.yul\":3348:3479   */\n  tag_24\n  jump\t// in\ntag_54:\n    /* \"#utility.yul\":3340:3479   */\n  swap1\n  pop\n    /* \"#utility.yul\":3067:3486   */\n  swap2\n  swap1\n  pop\n  jump\t// out\n    /* \"prog2005-2025/lab02/gitlab-fund/contracts/DeveloperPayouts.sol\":230:4824  contract DeveloperPayouts is IDeveloperPayouts {... */\ntag_12:\n  mload(0x80)\n  mload(0xa0)\n  codecopy(0x00, dataOffset(sub_0), dataSize(sub_0))\n  0x00\n  assignImmutable(\"0x7749cc8014201da2069c21d93ba99c584b6f62d393fde534ed47eac227e31561\")\n  0x00\n  assignImmutable(\"0x9cce9eb03c9f29c6481fca9f0f942b15bef0bbbc47fda0ddb44df157019835d9\")\n  return(0x00, dataSize(sub_0))\nstop\n\nsub_0: assembly {\n        /* \"prog2005-2025/lab02/gitlab-fund/contracts/DeveloperPayouts.sol\":230:4824  contract DeveloperPayouts is IDeveloperPayouts {... */\n      mstore(0x40, 0x80)\n      jumpi(tag_1, lt(calldatasize, 0x04))\n      shr(0xe0, calldataload(0x00))\n      dup1\n      0x89ee68bf\n      gt\n      tag_13\n      jumpi\n      dup1\n      0x89ee68bf\n      eq\n      tag_8\n      jumpi\n      dup1\n      0x9dc5e02f\n      eq\n      tag_9\n      jumpi\n      dup1\n      0xa888c2cd\n      eq\n      tag_10\n      jumpi\n      dup1\n      0xf1e2de14\n      eq\n      tag_11\n      jumpi\n      dup1\n      0xf5f5dd41\n      eq\n      tag_12\n      jumpi\n      jump(tag_2)\n    tag_13:\n      dup1\n      0x11af4e7a\n      eq\n      tag_3\n      jumpi\n      dup1\n      0x36dbd2f9\n      eq\n      tag_4\n      jumpi\n      dup1\n      0x44021ad7\n      eq\n      tag_5\n      jumpi\n      dup1\n      0x6209ec2d\n      eq\n      tag_6\n      jumpi\n      dup1\n      0x8959c006\n      eq\n      tag_7\n      jumpi\n      jump(tag_2)\n    tag_1:\n      jumpi(tag_2, calldatasize)\n      stop\n    tag_2:\n      0x00\n      dup1\n      revert\n        /* \"prog2005-2025/lab02/gitlab-fund/contracts/DeveloperPayouts.sol\":944:994  mapping(uint256 => uint256) public claimTimestamps */\n    tag_3:\n      callvalue\n      dup1\n      iszero\n      tag_16\n      jumpi\n      0x00\n      dup1\n      revert\n    tag_16:\n      pop\n      tag_17\n      0x04\n      dup1\n      calldatasize\n      sub\n      dup2\n      add\n      swap1\n      tag_18\n      swap2\n      swap1\n      tag_19\n      jump\t// in\n    tag_18:\n      tag_20\n      jump\t// in\n    tag_17:\n      mload(0x40)\n      tag_21\n      swap2\n      swap1\n      tag_22\n      jump\t// in\n    tag_21:\n      mload(0x40)\n      dup1\n      swap2\n      sub\n      swap1\n      return\n        /* \"prog2005-2025/lab02/gitlab-fund/contracts/DeveloperPayouts.sol\":4089:4369  function getClaimStatus(uint256 issueId) ... */\n    tag_4:\n      callvalue\n      dup1\n      iszero\n      tag_23\n      jumpi\n      0x00\n      dup1\n      revert\n    tag_23:\n      pop\n      tag_24\n      0x04\n      dup1\n      calldatasize\n      sub\n      dup2\n      add\n      swap1\n      tag_25\n      swap2\n      swap1\n      tag_19\n      jump\t// in\n    tag_25:\n      tag_26\n      jump\t// in\n    tag_24:\n      mload(0x40)\n      tag_27\n      swap4\n      swap3\n      swap2\n      swap1\n      tag_28\n      jump\t// in\n    tag_27:\n      mload(0x40)\n      dup1\n      swap2\n      sub\n      swap1\n      return\n        /* \"prog2005-2025/lab02/gitlab-fund/contracts/DeveloperPayouts.sol\":1780:2266  function claimBounty(uint256 issueId) external override onlyUnclaimed(issueId) {... */\n    tag_5:\n      callvalue\n      dup1\n      iszero\n      tag_29\n      jumpi\n      0x00\n      dup1\n      revert\n    tag_29:\n      pop\n      tag_30\n      0x04\n      dup1\n      calldatasize\n      sub\n      dup2\n      add\n      swap1\n      tag_31\n      swap2\n      swap1\n      tag_19\n      jump\t// in\n    tag_31:\n      tag_32\n      jump\t// in\n    tag_30:\n      stop\n        /* \"prog2005-2025/lab02/gitlab-fund/contracts/DeveloperPayouts.sol\":605:646  IFundManager public immutable fundManager */\n    tag_6:\n      callvalue\n      dup1\n      iszero\n      tag_33\n      jumpi\n      0x00\n      dup1\n      revert\n    tag_33:\n      pop\n      tag_34\n      tag_35\n      jump\t// in\n    tag_34:\n      mload(0x40)\n      tag_36\n      swap2\n      swap1\n      tag_37\n      jump\t// in\n    tag_36:\n      mload(0x40)\n      dup1\n      swap2\n      sub\n      swap1\n      return\n        /* \"prog2005-2025/lab02/gitlab-fund/contracts/DeveloperPayouts.sol\":4524:4726  function isClaimExpired(uint256 issueId) public view returns (bool) {... */\n    tag_7:\n      callvalue\n      dup1\n      iszero\n      tag_38\n      jumpi\n      0x00\n      dup1\n      revert\n    tag_38:\n      pop\n      tag_39\n      0x04\n      dup1\n      calldatasize\n      sub\n      dup2\n      add\n      swap1\n      tag_40\n      swap2\n      swap1\n      tag_19\n      jump\t// in\n    tag_40:\n      tag_41\n      jump\t// in\n    tag_39:\n      mload(0x40)\n      tag_42\n      swap2\n      swap1\n      tag_43\n      jump\t// in\n    tag_42:\n      mload(0x40)\n      dup1\n      swap2\n      sub\n      swap1\n      return\n        /* \"prog2005-2025/lab02/gitlab-fund/contracts/DeveloperPayouts.sol\":2403:3157  function processPayout(uint256 issueId) external override onlyClaimed(issueId) {... */\n    tag_8:\n      callvalue\n      dup1\n      iszero\n      tag_44\n      jumpi\n      0x00\n      dup1\n      revert\n    tag_44:\n      pop\n      tag_45\n      0x04\n      dup1\n      calldatasize\n      sub\n      dup2\n      add\n      swap1\n      tag_46\n      swap2\n      swap1\n      tag_19\n      jump\t// in\n    tag_46:\n      tag_47\n      jump\t// in\n    tag_45:\n      stop\n        /* \"prog2005-2025/lab02/gitlab-fund/contracts/DeveloperPayouts.sol\":3319:3814  function cancelClaim(uint256 issueId) external override {... */\n    tag_9:\n      callvalue\n      dup1\n      iszero\n      tag_48\n      jumpi\n      0x00\n      dup1\n      revert\n    tag_48:\n      pop\n      tag_49\n      0x04\n      dup1\n      calldatasize\n      sub\n      dup2\n      add\n      swap1\n      tag_50\n      swap2\n      swap1\n      tag_19\n      jump\t// in\n    tag_50:\n      tag_51\n      jump\t// in\n    tag_49:\n      stop\n        /* \"prog2005-2025/lab02/gitlab-fund/contracts/DeveloperPayouts.sol\":758:797  mapping(uint256 => Claim) public claims */\n    tag_10:\n      callvalue\n      dup1\n      iszero\n      tag_52\n      jumpi\n      0x00\n      dup1\n      revert\n    tag_52:\n      pop\n      tag_53\n      0x04\n      dup1\n      calldatasize\n      sub\n      dup2\n      add\n      swap1\n      tag_54\n      swap2\n      swap1\n      tag_19\n      jump\t// in\n    tag_54:\n      tag_55\n      jump\t// in\n    tag_53:\n      mload(0x40)\n      tag_56\n      swap5\n      swap4\n      swap3\n      swap2\n      swap1\n      tag_57\n      jump\t// in\n    tag_56:\n      mload(0x40)\n      dup1\n      swap2\n      sub\n      swap1\n      return\n        /* \"prog2005-2025/lab02/gitlab-fund/contracts/DeveloperPayouts.sol\":652:705  IValidatorMultiSig public immutable validatorMultiSig */\n    tag_11:\n      callvalue\n      dup1\n      iszero\n      tag_58\n      jumpi\n      0x00\n      dup1\n      revert\n    tag_58:\n      pop\n      tag_59\n      tag_60\n      jump\t// in\n    tag_59:\n      mload(0x40)\n      tag_61\n      swap2\n      swap1\n      tag_62\n      jump\t// in\n    tag_61:\n      mload(0x40)\n      dup1\n      swap2\n      sub\n      swap1\n      return\n        /* \"prog2005-2025/lab02/gitlab-fund/contracts/DeveloperPayouts.sol\":846:892  uint256 public constant CLAIM_TIMEOUT = 7 days */\n    tag_12:\n      callvalue\n      dup1\n      iszero\n      tag_63\n      jumpi\n      0x00\n      dup1\n      revert\n    tag_63:\n      pop\n      tag_64\n      tag_65\n      jump\t// in\n    tag_64:\n      mload(0x40)\n      tag_66\n      swap2\n      swap1\n      tag_22\n      jump\t// in\n    tag_66:\n      mload(0x40)\n      dup1\n      swap2\n      sub\n      swap1\n      return\n        /* \"prog2005-2025/lab02/gitlab-fund/contracts/DeveloperPayouts.sol\":944:994  mapping(uint256 => uint256) public claimTimestamps */\n    tag_20:\n      mstore(0x20, 0x02)\n      dup1\n      0x00\n      mstore\n      keccak256(0x00, 0x40)\n      0x00\n      swap2\n      pop\n      swap1\n      pop\n      sload\n      dup2\n      jump\t// out\n        /* \"prog2005-2025/lab02/gitlab-fund/contracts/DeveloperPayouts.sol\":4089:4369  function getClaimStatus(uint256 issueId) ... */\n    tag_26:\n        /* \"prog2005-2025/lab02/gitlab-fund/contracts/DeveloperPayouts.sol\":4198:4210  bool claimed */\n      0x00\n        /* \"prog2005-2025/lab02/gitlab-fund/contracts/DeveloperPayouts.sol\":4212:4229  address developer */\n      dup1\n        /* \"prog2005-2025/lab02/gitlab-fund/contracts/DeveloperPayouts.sol\":4231:4245  uint256 amount */\n      0x00\n        /* \"prog2005-2025/lab02/gitlab-fund/contracts/DeveloperPayouts.sol\":4262:4281  Claim storage claim */\n      dup1\n        /* \"prog2005-2025/lab02/gitlab-fund/contracts/DeveloperPayouts.sol\":4284:4290  claims */\n      0x01\n        /* \"prog2005-2025/lab02/gitlab-fund/contracts/DeveloperPayouts.sol\":4284:4299  claims[issueId] */\n      0x00\n        /* \"prog2005-2025/lab02/gitlab-fund/contracts/DeveloperPayouts.sol\":4291:4298  issueId */\n      dup7\n        /* \"prog2005-2025/lab02/gitlab-fund/contracts/DeveloperPayouts.sol\":4284:4299  claims[issueId] */\n      dup2\n      mstore\n      0x20\n      add\n      swap1\n      dup2\n      mstore\n      0x20\n      add\n      0x00\n      keccak256\n        /* \"prog2005-2025/lab02/gitlab-fund/contracts/DeveloperPayouts.sol\":4262:4299  Claim storage claim = claims[issueId] */\n      swap1\n      pop\n        /* \"prog2005-2025/lab02/gitlab-fund/contracts/DeveloperPayouts.sol\":4317:4322  claim */\n      dup1\n        /* \"prog2005-2025/lab02/gitlab-fund/contracts/DeveloperPayouts.sol\":4317:4330  claim.claimed */\n      0x02\n      add\n      0x00\n      swap1\n      sload\n      swap1\n      0x0100\n      exp\n      swap1\n      div\n      0xff\n      and\n        /* \"prog2005-2025/lab02/gitlab-fund/contracts/DeveloperPayouts.sol\":4332:4337  claim */\n      dup2\n        /* \"prog2005-2025/lab02/gitlab-fund/contracts/DeveloperPayouts.sol\":4332:4347  claim.developer */\n      0x00\n      add\n      0x00\n      swap1\n      sload\n      swap1\n      0x0100\n      exp\n      swap1\n      div\n      0xffffffffffffffffffffffffffffffffffffffff\n      and\n        /* \"prog2005-2025/lab02/gitlab-fund/contracts/DeveloperPayouts.sol\":4349:4354  claim */\n      dup3\n        /* \"prog2005-2025/lab02/gitlab-fund/contracts/DeveloperPayouts.sol\":4349:4361  claim.amount */\n      0x01\n      add\n      sload\n        /* \"prog2005-2025/lab02/gitlab-fund/contracts/DeveloperPayouts.sol\":4309:4362  return (claim.claimed, claim.developer, claim.amount) */\n      swap4\n      pop\n      swap4\n      pop\n      swap4\n      pop\n      pop\n        /* \"prog2005-2025/lab02/gitlab-fund/contracts/DeveloperPayouts.sol\":4089:4369  function getClaimStatus(uint256 issueId) ... */\n      swap2\n      swap4\n      swap1\n      swap3\n      pop\n      jump\t// out\n        /* \"prog2005-2025/lab02/gitlab-fund/contracts/DeveloperPayouts.sol\":1780:2266  function claimBounty(uint256 issueId) external override onlyUnclaimed(issueId) {... */\n    tag_32:\n        /* \"prog2005-2025/lab02/gitlab-fund/contracts/DeveloperPayouts.sol\":1850:1857  issueId */\n      dup1\n        /* \"prog2005-2025/lab02/gitlab-fund/contracts/DeveloperPayouts.sol\":1410:1416  claims */\n      0x01\n        /* \"prog2005-2025/lab02/gitlab-fund/contracts/DeveloperPayouts.sol\":1410:1425  claims[issueId] */\n      0x00\n        /* \"prog2005-2025/lab02/gitlab-fund/contracts/DeveloperPayouts.sol\":1417:1424  issueId */\n      dup3\n        /* \"prog2005-2025/lab02/gitlab-fund/contracts/DeveloperPayouts.sol\":1410:1425  claims[issueId] */\n      dup2\n      mstore\n      0x20\n      add\n      swap1\n      dup2\n      mstore\n      0x20\n      add\n      0x00\n      keccak256\n        /* \"prog2005-2025/lab02/gitlab-fund/contracts/DeveloperPayouts.sol\":1410:1433  claims[issueId].claimed */\n      0x02\n      add\n      0x00\n      swap1\n      sload\n      swap1\n      0x0100\n      exp\n      swap1\n      div\n      0xff\n      and\n        /* \"prog2005-2025/lab02/gitlab-fund/contracts/DeveloperPayouts.sol\":1409:1433  !claims[issueId].claimed */\n      iszero\n        /* \"prog2005-2025/lab02/gitlab-fund/contracts/DeveloperPayouts.sol\":1401:1459  require(!claims[issueId].claimed, \"Issue already claimed\") */\n      tag_69\n      jumpi\n      mload(0x40)\n      0x08c379a000000000000000000000000000000000000000000000000000000000\n      dup2\n      mstore\n      0x04\n      add\n      tag_70\n      swap1\n      tag_71\n      jump\t// in\n    tag_70:\n      mload(0x40)\n      dup1\n      swap2\n      sub\n      swap1\n      revert\n    tag_69:\n        /* \"prog2005-2025/lab02/gitlab-fund/contracts/DeveloperPayouts.sol\":1869:1889  uint256 bountyAmount */\n      0x00\n        /* \"prog2005-2025/lab02/gitlab-fund/contracts/DeveloperPayouts.sol\":1892:1903  fundManager */\n      immutable(\"0x9cce9eb03c9f29c6481fca9f0f942b15bef0bbbc47fda0ddb44df157019835d9\")\n        /* \"prog2005-2025/lab02/gitlab-fund/contracts/DeveloperPayouts.sol\":1892:1918  fundManager.getIssueBounty */\n      0xffffffffffffffffffffffffffffffffffffffff\n      and\n      0x454fa1b1\n        /* \"prog2005-2025/lab02/gitlab-fund/contracts/DeveloperPayouts.sol\":1919:1926  issueId */\n      dup5\n        /* \"prog2005-2025/lab02/gitlab-fund/contracts/DeveloperPayouts.sol\":1892:1927  fundManager.getIssueBounty(issueId) */\n      mload(0x40)\n      dup3\n      0xffffffff\n      and\n      0xe0\n      shl\n      dup2\n      mstore\n      0x04\n      add\n      tag_73\n      swap2\n      swap1\n      tag_22\n      jump\t// in\n    tag_73:\n      0x20\n      mload(0x40)\n      dup1\n      dup4\n      sub\n      dup2\n      dup7\n      gas\n      staticcall\n      iszero\n      dup1\n      iszero\n      tag_75\n      jumpi\n      returndatasize\n      0x00\n      dup1\n      returndatacopy\n      revert(0x00, returndatasize)\n    tag_75:\n      pop\n      pop\n      pop\n      pop\n      mload(0x40)\n      returndatasize\n      not(0x1f)\n      0x1f\n      dup3\n      add\n      and\n      dup3\n      add\n      dup1\n      0x40\n      mstore\n      pop\n      dup2\n      add\n      swap1\n      tag_76\n      swap2\n      swap1\n      tag_77\n      jump\t// in\n    tag_76:\n        /* \"prog2005-2025/lab02/gitlab-fund/contracts/DeveloperPayouts.sol\":1869:1927  uint256 bountyAmount = fundManager.getIssueBounty(issueId) */\n      swap1\n      pop\n        /* \"prog2005-2025/lab02/gitlab-fund/contracts/DeveloperPayouts.sol\":1960:1961  0 */\n      0x00\n        /* \"prog2005-2025/lab02/gitlab-fund/contracts/DeveloperPayouts.sol\":1945:1957  bountyAmount */\n      dup2\n        /* \"prog2005-2025/lab02/gitlab-fund/contracts/DeveloperPayouts.sol\":1945:1961  bountyAmount > 0 */\n      gt\n        /* \"prog2005-2025/lab02/gitlab-fund/contracts/DeveloperPayouts.sol\":1937:1990  require(bountyAmount > 0, \"No bounty for this issue\") */\n      tag_78\n      jumpi\n      mload(0x40)\n      0x08c379a000000000000000000000000000000000000000000000000000000000\n      dup2\n      mstore\n      0x04\n      add\n      tag_79\n      swap1\n      tag_80\n      jump\t// in\n    tag_79:\n      mload(0x40)\n      dup1\n      swap2\n      sub\n      swap1\n      revert\n    tag_78:\n        /* \"prog2005-2025/lab02/gitlab-fund/contracts/DeveloperPayouts.sol\":2019:2157  Claim({... */\n      mload(0x40)\n      dup1\n      0x80\n      add\n      0x40\n      mstore\n      dup1\n        /* \"prog2005-2025/lab02/gitlab-fund/contracts/DeveloperPayouts.sol\":2050:2060  msg.sender */\n      caller\n        /* \"prog2005-2025/lab02/gitlab-fund/contracts/DeveloperPayouts.sol\":2019:2157  Claim({... */\n      0xffffffffffffffffffffffffffffffffffffffff\n      and\n      dup2\n      mstore\n      0x20\n      add\n        /* \"prog2005-2025/lab02/gitlab-fund/contracts/DeveloperPayouts.sol\":2082:2094  bountyAmount */\n      dup3\n        /* \"prog2005-2025/lab02/gitlab-fund/contracts/DeveloperPayouts.sol\":2019:2157  Claim({... */\n      dup2\n      mstore\n      0x20\n      add\n        /* \"prog2005-2025/lab02/gitlab-fund/contracts/DeveloperPayouts.sol\":2117:2121  true */\n      0x01\n        /* \"prog2005-2025/lab02/gitlab-fund/contracts/DeveloperPayouts.sol\":2019:2157  Claim({... */\n      iszero\n      iszero\n      dup2\n      mstore\n      0x20\n      add\n        /* \"prog2005-2025/lab02/gitlab-fund/contracts/DeveloperPayouts.sol\":2141:2146  false */\n      0x00\n        /* \"prog2005-2025/lab02/gitlab-fund/contracts/DeveloperPayouts.sol\":2019:2157  Claim({... */\n      iszero\n      iszero\n      dup2\n      mstore\n      pop\n        /* \"prog2005-2025/lab02/gitlab-fund/contracts/DeveloperPayouts.sol\":2001:2007  claims */\n      0x01\n        /* \"prog2005-2025/lab02/gitlab-fund/contracts/DeveloperPayouts.sol\":2001:2016  claims[issueId] */\n      0x00\n        /* \"prog2005-2025/lab02/gitlab-fund/contracts/DeveloperPayouts.sol\":2008:2015  issueId */\n      dup6\n        /* \"prog2005-2025/lab02/gitlab-fund/contracts/DeveloperPayouts.sol\":2001:2016  claims[issueId] */\n      dup2\n      mstore\n      0x20\n      add\n      swap1\n      dup2\n      mstore\n      0x20\n      add\n      0x00\n      keccak256\n        /* \"prog2005-2025/lab02/gitlab-fund/contracts/DeveloperPayouts.sol\":2001:2157  claims[issueId] = Claim({... */\n      0x00\n      dup3\n      add\n      mload\n      dup2\n      0x00\n      add\n      exp(0x0100, 0x00)\n      dup2\n      sload\n      dup2\n      0xffffffffffffffffffffffffffffffffffffffff\n      mul\n      not\n      and\n      swap1\n      dup4\n      0xffffffffffffffffffffffffffffffffffffffff\n      and\n      mul\n      or\n      swap1\n      sstore\n      pop\n      0x20\n      dup3\n      add\n      mload\n      dup2\n      0x01\n      add\n      sstore\n      0x40\n      dup3\n      add\n      mload\n      dup2\n      0x02\n      add\n      exp(0x0100, 0x00)\n      dup2\n      sload\n      dup2\n      0xff\n      mul\n      not\n      and\n      swap1\n      dup4\n      iszero\n      iszero\n      mul\n      or\n      swap1\n      sstore\n      pop\n      0x60\n      dup3\n      add\n      mload\n      dup2\n      0x02\n      add\n      exp(0x0100, 0x01)\n      dup2\n      sload\n      dup2\n      0xff\n      mul\n      not\n      and\n      swap1\n      dup4\n      iszero\n      iszero\n      mul\n      or\n      swap1\n      sstore\n      pop\n      swap1\n      pop\n      pop\n        /* \"prog2005-2025/lab02/gitlab-fund/contracts/DeveloperPayouts.sol\":2194:2209  block.timestamp */\n      timestamp\n        /* \"prog2005-2025/lab02/gitlab-fund/contracts/DeveloperPayouts.sol\":2167:2182  claimTimestamps */\n      0x02\n        /* \"prog2005-2025/lab02/gitlab-fund/contracts/DeveloperPayouts.sol\":2167:2191  claimTimestamps[issueId] */\n      0x00\n        /* \"prog2005-2025/lab02/gitlab-fund/contracts/DeveloperPayouts.sol\":2183:2190  issueId */\n      dup6\n        /* \"prog2005-2025/lab02/gitlab-fund/contracts/DeveloperPayouts.sol\":2167:2191  claimTimestamps[issueId] */\n      dup2\n      mstore\n      0x20\n      add\n      swap1\n      dup2\n      mstore\n      0x20\n      add\n      0x00\n      keccak256\n        /* \"prog2005-2025/lab02/gitlab-fund/contracts/DeveloperPayouts.sol\":2167:2209  claimTimestamps[issueId] = block.timestamp */\n      dup2\n      swap1\n      sstore\n      pop\n        /* \"prog2005-2025/lab02/gitlab-fund/contracts/DeveloperPayouts.sol\":2248:2258  msg.sender */\n      caller\n        /* \"prog2005-2025/lab02/gitlab-fund/contracts/DeveloperPayouts.sol\":2225:2259  BountyClaimed(issueId, msg.sender) */\n      0xffffffffffffffffffffffffffffffffffffffff\n      and\n        /* \"prog2005-2025/lab02/gitlab-fund/contracts/DeveloperPayouts.sol\":2239:2246  issueId */\n      dup4\n        /* \"prog2005-2025/lab02/gitlab-fund/contracts/DeveloperPayouts.sol\":2225:2259  BountyClaimed(issueId, msg.sender) */\n      0xbf59c0d059a57ebf273b4b1643599fc4b48cf5effdd82113a740ed64d262ec93\n      mload(0x40)\n      mload(0x40)\n      dup1\n      swap2\n      sub\n      swap1\n      log3\n        /* \"prog2005-2025/lab02/gitlab-fund/contracts/DeveloperPayouts.sol\":1859:2266  {... */\n      pop\n        /* \"prog2005-2025/lab02/gitlab-fund/contracts/DeveloperPayouts.sol\":1780:2266  function claimBounty(uint256 issueId) external override onlyUnclaimed(issueId) {... */\n      pop\n      pop\n      jump\t// out\n        /* \"prog2005-2025/lab02/gitlab-fund/contracts/DeveloperPayouts.sol\":605:646  IFundManager public immutable fundManager */\n    tag_35:\n      immutable(\"0x9cce9eb03c9f29c6481fca9f0f942b15bef0bbbc47fda0ddb44df157019835d9\")\n      dup2\n      jump\t// out\n        /* \"prog2005-2025/lab02/gitlab-fund/contracts/DeveloperPayouts.sol\":4524:4726  function isClaimExpired(uint256 issueId) public view returns (bool) {... */\n    tag_41:\n        /* \"prog2005-2025/lab02/gitlab-fund/contracts/DeveloperPayouts.sol\":4586:4590  bool */\n      0x00\n        /* \"prog2005-2025/lab02/gitlab-fund/contracts/DeveloperPayouts.sol\":4607:4613  claims */\n      0x01\n        /* \"prog2005-2025/lab02/gitlab-fund/contracts/DeveloperPayouts.sol\":4607:4622  claims[issueId] */\n      0x00\n        /* \"prog2005-2025/lab02/gitlab-fund/contracts/DeveloperPayouts.sol\":4614:4621  issueId */\n      dup4\n        /* \"prog2005-2025/lab02/gitlab-fund/contracts/DeveloperPayouts.sol\":4607:4622  claims[issueId] */\n      dup2\n      mstore\n      0x20\n      add\n      swap1\n      dup2\n      mstore\n      0x20\n      add\n      0x00\n      keccak256\n        /* \"prog2005-2025/lab02/gitlab-fund/contracts/DeveloperPayouts.sol\":4607:4630  claims[issueId].claimed */\n      0x02\n      add\n      0x00\n      swap1\n      sload\n      swap1\n      0x0100\n      exp\n      swap1\n      div\n      0xff\n      and\n        /* \"prog2005-2025/lab02/gitlab-fund/contracts/DeveloperPayouts.sol\":4602:4644  if (!claims[issueId].claimed) return false */\n      tag_82\n      jumpi\n        /* \"prog2005-2025/lab02/gitlab-fund/contracts/DeveloperPayouts.sol\":4639:4644  false */\n      0x00\n        /* \"prog2005-2025/lab02/gitlab-fund/contracts/DeveloperPayouts.sol\":4632:4644  return false */\n      swap1\n      pop\n      jump(tag_81)\n        /* \"prog2005-2025/lab02/gitlab-fund/contracts/DeveloperPayouts.sol\":4602:4644  if (!claims[issueId].claimed) return false */\n    tag_82:\n        /* \"prog2005-2025/lab02/gitlab-fund/contracts/DeveloperPayouts.sol\":886:892  7 days */\n      0x093a80\n        /* \"prog2005-2025/lab02/gitlab-fund/contracts/DeveloperPayouts.sol\":4679:4694  claimTimestamps */\n      0x02\n        /* \"prog2005-2025/lab02/gitlab-fund/contracts/DeveloperPayouts.sol\":4679:4703  claimTimestamps[issueId] */\n      0x00\n        /* \"prog2005-2025/lab02/gitlab-fund/contracts/DeveloperPayouts.sol\":4695:4702  issueId */\n      dup5\n        /* \"prog2005-2025/lab02/gitlab-fund/contracts/DeveloperPayouts.sol\":4679:4703  claimTimestamps[issueId] */\n      dup2\n      mstore\n      0x20\n      add\n      swap1\n      dup2\n      mstore\n      0x20\n      add\n      0x00\n      keccak256\n      sload\n        /* \"prog2005-2025/lab02/gitlab-fund/contracts/DeveloperPayouts.sol\":4679:4719  claimTimestamps[issueId] + CLAIM_TIMEOUT */\n      tag_83\n      swap2\n      swap1\n      tag_84\n      jump\t// in\n    tag_83:\n        /* \"prog2005-2025/lab02/gitlab-fund/contracts/DeveloperPayouts.sol\":4661:4676  block.timestamp */\n      timestamp\n        /* \"prog2005-2025/lab02/gitlab-fund/contracts/DeveloperPayouts.sol\":4661:4719  block.timestamp > claimTimestamps[issueId] + CLAIM_TIMEOUT */\n      gt\n        /* \"prog2005-2025/lab02/gitlab-fund/contracts/DeveloperPayouts.sol\":4654:4719  return block.timestamp > claimTimestamps[issueId] + CLAIM_TIMEOUT */\n      swap1\n      pop\n        /* \"prog2005-2025/lab02/gitlab-fund/contracts/DeveloperPayouts.sol\":4524:4726  function isClaimExpired(uint256 issueId) public view returns (bool) {... */\n    tag_81:\n      swap2\n      swap1\n      pop\n      jump\t// out\n        /* \"prog2005-2025/lab02/gitlab-fund/contracts/DeveloperPayouts.sol\":2403:3157  function processPayout(uint256 issueId) external override onlyClaimed(issueId) {... */\n    tag_47:\n        /* \"prog2005-2025/lab02/gitlab-fund/contracts/DeveloperPayouts.sol\":2473:2480  issueId */\n      dup1\n        /* \"prog2005-2025/lab02/gitlab-fund/contracts/DeveloperPayouts.sol\":1539:1545  claims */\n      0x01\n        /* \"prog2005-2025/lab02/gitlab-fund/contracts/DeveloperPayouts.sol\":1539:1554  claims[issueId] */\n      0x00\n        /* \"prog2005-2025/lab02/gitlab-fund/contracts/DeveloperPayouts.sol\":1546:1553  issueId */\n      dup3\n        /* \"prog2005-2025/lab02/gitlab-fund/contracts/DeveloperPayouts.sol\":1539:1554  claims[issueId] */\n      dup2\n      mstore\n      0x20\n      add\n      swap1\n      dup2\n      mstore\n      0x20\n      add\n      0x00\n      keccak256\n        /* \"prog2005-2025/lab02/gitlab-fund/contracts/DeveloperPayouts.sol\":1539:1562  claims[issueId].claimed */\n      0x02\n      add\n      0x00\n      swap1\n      sload\n      swap1\n      0x0100\n      exp\n      swap1\n      div\n      0xff\n      and\n        /* \"prog2005-2025/lab02/gitlab-fund/contracts/DeveloperPayouts.sol\":1531:1584  require(claims[issueId].claimed, \"Issue not claimed\") */\n      tag_86\n      jumpi\n      mload(0x40)\n      0x08c379a000000000000000000000000000000000000000000000000000000000\n      dup2\n      mstore\n      0x04\n      add\n      tag_87\n      swap1\n      tag_88\n      jump\t// in\n    tag_87:\n      mload(0x40)\n      dup1\n      swap2\n      sub\n      swap1\n      revert\n    tag_86:\n        /* \"prog2005-2025/lab02/gitlab-fund/contracts/DeveloperPayouts.sol\":1603:1609  claims */\n      0x01\n        /* \"prog2005-2025/lab02/gitlab-fund/contracts/DeveloperPayouts.sol\":1603:1618  claims[issueId] */\n      0x00\n        /* \"prog2005-2025/lab02/gitlab-fund/contracts/DeveloperPayouts.sol\":1610:1617  issueId */\n      dup3\n        /* \"prog2005-2025/lab02/gitlab-fund/contracts/DeveloperPayouts.sol\":1603:1618  claims[issueId] */\n      dup2\n      mstore\n      0x20\n      add\n      swap1\n      dup2\n      mstore\n      0x20\n      add\n      0x00\n      keccak256\n        /* \"prog2005-2025/lab02/gitlab-fund/contracts/DeveloperPayouts.sol\":1603:1623  claims[issueId].paid */\n      0x02\n      add\n      0x01\n      swap1\n      sload\n      swap1\n      0x0100\n      exp\n      swap1\n      div\n      0xff\n      and\n        /* \"prog2005-2025/lab02/gitlab-fund/contracts/DeveloperPayouts.sol\":1602:1623  !claims[issueId].paid */\n      iszero\n        /* \"prog2005-2025/lab02/gitlab-fund/contracts/DeveloperPayouts.sol\":1594:1647  require(!claims[issueId].paid, \"Bounty already paid\") */\n      tag_89\n      jumpi\n      mload(0x40)\n      0x08c379a000000000000000000000000000000000000000000000000000000000\n      dup2\n      mstore\n      0x04\n      add\n      tag_90\n      swap1\n      tag_91\n      jump\t// in\n    tag_90:\n      mload(0x40)\n      dup1\n      swap2\n      sub\n      swap1\n      revert\n    tag_89:\n        /* \"prog2005-2025/lab02/gitlab-fund/contracts/DeveloperPayouts.sol\":2492:2511  Claim storage claim */\n      0x00\n        /* \"prog2005-2025/lab02/gitlab-fund/contracts/DeveloperPayouts.sol\":2514:2520  claims */\n      0x01\n        /* \"prog2005-2025/lab02/gitlab-fund/contracts/DeveloperPayouts.sol\":2514:2529  claims[issueId] */\n      0x00\n        /* \"prog2005-2025/lab02/gitlab-fund/contracts/DeveloperPayouts.sol\":2521:2528  issueId */\n      dup5\n        /* \"prog2005-2025/lab02/gitlab-fund/contracts/DeveloperPayouts.sol\":2514:2529  claims[issueId] */\n      dup2\n      mstore\n      0x20\n      add\n      swap1\n      dup2\n      mstore\n      0x20\n      add\n      0x00\n      keccak256\n        /* \"prog2005-2025/lab02/gitlab-fund/contracts/DeveloperPayouts.sol\":2492:2529  Claim storage claim = claims[issueId] */\n      swap1\n      pop\n        /* \"prog2005-2025/lab02/gitlab-fund/contracts/DeveloperPayouts.sol\":2592:2609  validatorMultiSig */\n      immutable(\"0x7749cc8014201da2069c21d93ba99c584b6f62d393fde534ed47eac227e31561\")\n        /* \"prog2005-2025/lab02/gitlab-fund/contracts/DeveloperPayouts.sol\":2592:2620  validatorMultiSig.isApproved */\n      0xffffffffffffffffffffffffffffffffffffffff\n      and\n      0x56c31637\n        /* \"prog2005-2025/lab02/gitlab-fund/contracts/DeveloperPayouts.sol\":2621:2628  issueId */\n      dup5\n        /* \"prog2005-2025/lab02/gitlab-fund/contracts/DeveloperPayouts.sol\":2630:2635  claim */\n      dup4\n        /* \"prog2005-2025/lab02/gitlab-fund/contracts/DeveloperPayouts.sol\":2630:2645  claim.developer */\n      0x00\n      add\n      0x00\n      swap1\n      sload\n      swap1\n      0x0100\n      exp\n      swap1\n      div\n      0xffffffffffffffffffffffffffffffffffffffff\n      and\n        /* \"prog2005-2025/lab02/gitlab-fund/contracts/DeveloperPayouts.sol\":2592:2646  validatorMultiSig.isApproved(issueId, claim.developer) */\n      mload(0x40)\n      dup4\n      0xffffffff\n      and\n      0xe0\n      shl\n      dup2\n      mstore\n      0x04\n      add\n      tag_93\n      swap3\n      swap2\n      swap1\n      tag_94\n      jump\t// in\n    tag_93:\n      0x20\n      mload(0x40)\n      dup1\n      dup4\n      sub\n      dup2\n      dup7\n      gas\n      staticcall\n      iszero\n      dup1\n      iszero\n      tag_96\n      jumpi\n      returndatasize\n      0x00\n      dup1\n      returndatacopy\n      revert(0x00, returndatasize)\n    tag_96:\n      pop\n      pop\n      pop\n      pop\n      mload(0x40)\n      returndatasize\n      not(0x1f)\n      0x1f\n      dup3\n      add\n      and\n      dup3\n      add\n      dup1\n      0x40\n      mstore\n      pop\n      dup2\n      add\n      swap1\n      tag_97\n      swap2\n      swap1\n      tag_98\n      jump\t// in\n    tag_97:\n        /* \"prog2005-2025/lab02/gitlab-fund/contracts/DeveloperPayouts.sol\":2584:2677  require(validatorMultiSig.isApproved(issueId, claim.developer), \"Not approved by validators\") */\n      tag_99\n      jumpi\n      mload(0x40)\n      0x08c379a000000000000000000000000000000000000000000000000000000000\n      dup2\n      mstore\n      0x04\n      add\n      tag_100\n      swap1\n      tag_101\n      jump\t// in\n    tag_100:\n      mload(0x40)\n      dup1\n      swap2\n      sub\n      swap1\n      revert\n    tag_99:\n        /* \"prog2005-2025/lab02/gitlab-fund/contracts/DeveloperPayouts.sol\":886:892  7 days */\n      0x093a80\n        /* \"prog2005-2025/lab02/gitlab-fund/contracts/DeveloperPayouts.sol\":2764:2779  claimTimestamps */\n      0x02\n        /* \"prog2005-2025/lab02/gitlab-fund/contracts/DeveloperPayouts.sol\":2764:2788  claimTimestamps[issueId] */\n      0x00\n        /* \"prog2005-2025/lab02/gitlab-fund/contracts/DeveloperPayouts.sol\":2780:2787  issueId */\n      dup6\n        /* \"prog2005-2025/lab02/gitlab-fund/contracts/DeveloperPayouts.sol\":2764:2788  claimTimestamps[issueId] */\n      dup2\n      mstore\n      0x20\n      add\n      swap1\n      dup2\n      mstore\n      0x20\n      add\n      0x00\n      keccak256\n      sload\n        /* \"prog2005-2025/lab02/gitlab-fund/contracts/DeveloperPayouts.sol\":2764:2804  claimTimestamps[issueId] + CLAIM_TIMEOUT */\n      tag_102\n      swap2\n      swap1\n      tag_84\n      jump\t// in\n    tag_102:\n        /* \"prog2005-2025/lab02/gitlab-fund/contracts/DeveloperPayouts.sol\":2745:2760  block.timestamp */\n      timestamp\n        /* \"prog2005-2025/lab02/gitlab-fund/contracts/DeveloperPayouts.sol\":2745:2804  block.timestamp <= claimTimestamps[issueId] + CLAIM_TIMEOUT */\n      gt\n      iszero\n        /* \"prog2005-2025/lab02/gitlab-fund/contracts/DeveloperPayouts.sol\":2737:2822  require(block.timestamp <= claimTimestamps[issueId] + CLAIM_TIMEOUT, \"Claim expired\") */\n      tag_103\n      jumpi\n      mload(0x40)\n      0x08c379a000000000000000000000000000000000000000000000000000000000\n      dup2\n      mstore\n      0x04\n      add\n      tag_104\n      swap1\n      tag_105\n      jump\t// in\n    tag_104:\n      mload(0x40)\n      dup1\n      swap2\n      sub\n      swap1\n      revert\n    tag_103:\n        /* \"prog2005-2025/lab02/gitlab-fund/contracts/DeveloperPayouts.sol\":2908:2912  true */\n      0x01\n        /* \"prog2005-2025/lab02/gitlab-fund/contracts/DeveloperPayouts.sol\":2895:2900  claim */\n      dup2\n        /* \"prog2005-2025/lab02/gitlab-fund/contracts/DeveloperPayouts.sol\":2895:2905  claim.paid */\n      0x02\n      add\n      0x01\n        /* \"prog2005-2025/lab02/gitlab-fund/contracts/DeveloperPayouts.sol\":2895:2912  claim.paid = true */\n      0x0100\n      exp\n      dup2\n      sload\n      dup2\n      0xff\n      mul\n      not\n      and\n      swap1\n      dup4\n      iszero\n      iszero\n      mul\n      or\n      swap1\n      sstore\n      pop\n        /* \"prog2005-2025/lab02/gitlab-fund/contracts/DeveloperPayouts.sol\":2962:2974  bool success */\n      0x00\n        /* \"prog2005-2025/lab02/gitlab-fund/contracts/DeveloperPayouts.sol\":2988:2993  claim */\n      dup2\n        /* \"prog2005-2025/lab02/gitlab-fund/contracts/DeveloperPayouts.sol\":2988:3003  claim.developer */\n      0x00\n      add\n      0x00\n      swap1\n      sload\n      swap1\n      0x0100\n      exp\n      swap1\n      div\n      0xffffffffffffffffffffffffffffffffffffffff\n      and\n        /* \"prog2005-2025/lab02/gitlab-fund/contracts/DeveloperPayouts.sol\":2980:3009  payable(claim.developer).call */\n      0xffffffffffffffffffffffffffffffffffffffff\n      and\n        /* \"prog2005-2025/lab02/gitlab-fund/contracts/DeveloperPayouts.sol\":3017:3022  claim */\n      dup3\n        /* \"prog2005-2025/lab02/gitlab-fund/contracts/DeveloperPayouts.sol\":3017:3029  claim.amount */\n      0x01\n      add\n      sload\n        /* \"prog2005-2025/lab02/gitlab-fund/contracts/DeveloperPayouts.sol\":2980:3034  payable(claim.developer).call{value: claim.amount}(\"\") */\n      mload(0x40)\n      tag_106\n      swap1\n      tag_107\n      jump\t// in\n    tag_106:\n      0x00\n      mload(0x40)\n      dup1\n      dup4\n      sub\n      dup2\n      dup6\n      dup8\n      gas\n      call\n      swap3\n      pop\n      pop\n      pop\n      returndatasize\n      dup1\n      0x00\n      dup2\n      eq\n      tag_110\n      jumpi\n      mload(0x40)\n      swap2\n      pop\n      and(add(returndatasize, 0x3f), not(0x1f))\n      dup3\n      add\n      0x40\n      mstore\n      returndatasize\n      dup3\n      mstore\n      returndatasize\n      0x00\n      0x20\n      dup5\n      add\n      returndatacopy\n      jump(tag_109)\n    tag_110:\n      0x60\n      swap2\n      pop\n    tag_109:\n      pop\n        /* \"prog2005-2025/lab02/gitlab-fund/contracts/DeveloperPayouts.sol\":2961:3034  (bool success, ) = payable(claim.developer).call{value: claim.amount}(\"\") */\n      pop\n      swap1\n      pop\n        /* \"prog2005-2025/lab02/gitlab-fund/contracts/DeveloperPayouts.sol\":3052:3059  success */\n      dup1\n        /* \"prog2005-2025/lab02/gitlab-fund/contracts/DeveloperPayouts.sol\":3044:3079  require(success, \"Transfer failed\") */\n      tag_111\n      jumpi\n      mload(0x40)\n      0x08c379a000000000000000000000000000000000000000000000000000000000\n      dup2\n      mstore\n      0x04\n      add\n      tag_112\n      swap1\n      tag_113\n      jump\t// in\n    tag_112:\n      mload(0x40)\n      dup1\n      swap2\n      sub\n      swap1\n      revert\n    tag_111:\n        /* \"prog2005-2025/lab02/gitlab-fund/contracts/DeveloperPayouts.sol\":3120:3125  claim */\n      dup2\n        /* \"prog2005-2025/lab02/gitlab-fund/contracts/DeveloperPayouts.sol\":3120:3135  claim.developer */\n      0x00\n      add\n      0x00\n      swap1\n      sload\n      swap1\n      0x0100\n      exp\n      swap1\n      div\n      0xffffffffffffffffffffffffffffffffffffffff\n      and\n        /* \"prog2005-2025/lab02/gitlab-fund/contracts/DeveloperPayouts.sol\":3095:3150  PayoutProcessed(issueId, claim.developer, claim.amount) */\n      0xffffffffffffffffffffffffffffffffffffffff\n      and\n        /* \"prog2005-2025/lab02/gitlab-fund/contracts/DeveloperPayouts.sol\":3111:3118  issueId */\n      dup5\n        /* \"prog2005-2025/lab02/gitlab-fund/contracts/DeveloperPayouts.sol\":3095:3150  PayoutProcessed(issueId, claim.developer, claim.amount) */\n      0xdc699d0c4948c96a3265f3c8997ad793f263f495e1809c0e2a2926c4da7fc797\n        /* \"prog2005-2025/lab02/gitlab-fund/contracts/DeveloperPayouts.sol\":3137:3142  claim */\n      dup5\n        /* \"prog2005-2025/lab02/gitlab-fund/contracts/DeveloperPayouts.sol\":3137:3149  claim.amount */\n      0x01\n      add\n      sload\n        /* \"prog2005-2025/lab02/gitlab-fund/contracts/DeveloperPayouts.sol\":3095:3150  PayoutProcessed(issueId, claim.developer, claim.amount) */\n      mload(0x40)\n      tag_114\n      swap2\n      swap1\n      tag_22\n      jump\t// in\n    tag_114:\n      mload(0x40)\n      dup1\n      swap2\n      sub\n      swap1\n      log3\n        /* \"prog2005-2025/lab02/gitlab-fund/contracts/DeveloperPayouts.sol\":2482:3157  {... */\n      pop\n      pop\n        /* \"prog2005-2025/lab02/gitlab-fund/contracts/DeveloperPayouts.sol\":2403:3157  function processPayout(uint256 issueId) external override onlyClaimed(issueId) {... */\n      pop\n      pop\n      jump\t// out\n        /* \"prog2005-2025/lab02/gitlab-fund/contracts/DeveloperPayouts.sol\":3319:3814  function cancelClaim(uint256 issueId) external override {... */\n    tag_51:\n        /* \"prog2005-2025/lab02/gitlab-fund/contracts/DeveloperPayouts.sol\":3385:3404  Claim storage claim */\n      0x00\n        /* \"prog2005-2025/lab02/gitlab-fund/contracts/DeveloperPayouts.sol\":3407:3413  claims */\n      0x01\n        /* \"prog2005-2025/lab02/gitlab-fund/contracts/DeveloperPayouts.sol\":3407:3422  claims[issueId] */\n      0x00\n        /* \"prog2005-2025/lab02/gitlab-fund/contracts/DeveloperPayouts.sol\":3414:3421  issueId */\n      dup4\n        /* \"prog2005-2025/lab02/gitlab-fund/contracts/DeveloperPayouts.sol\":3407:3422  claims[issueId] */\n      dup2\n      mstore\n      0x20\n      add\n      swap1\n      dup2\n      mstore\n      0x20\n      add\n      0x00\n      keccak256\n        /* \"prog2005-2025/lab02/gitlab-fund/contracts/DeveloperPayouts.sol\":3385:3422  Claim storage claim = claims[issueId] */\n      swap1\n      pop\n        /* \"prog2005-2025/lab02/gitlab-fund/contracts/DeveloperPayouts.sol\":3440:3445  claim */\n      dup1\n        /* \"prog2005-2025/lab02/gitlab-fund/contracts/DeveloperPayouts.sol\":3440:3453  claim.claimed */\n      0x02\n      add\n      0x00\n      swap1\n      sload\n      swap1\n      0x0100\n      exp\n      swap1\n      div\n      0xff\n      and\n        /* \"prog2005-2025/lab02/gitlab-fund/contracts/DeveloperPayouts.sol\":3440:3468  claim.claimed && !claim.paid */\n      dup1\n      iszero\n      tag_116\n      jumpi\n      pop\n        /* \"prog2005-2025/lab02/gitlab-fund/contracts/DeveloperPayouts.sol\":3458:3463  claim */\n      dup1\n        /* \"prog2005-2025/lab02/gitlab-fund/contracts/DeveloperPayouts.sol\":3458:3468  claim.paid */\n      0x02\n      add\n      0x01\n      swap1\n      sload\n      swap1\n      0x0100\n      exp\n      swap1\n      div\n      0xff\n      and\n        /* \"prog2005-2025/lab02/gitlab-fund/contracts/DeveloperPayouts.sol\":3457:3468  !claim.paid */\n      iszero\n        /* \"prog2005-2025/lab02/gitlab-fund/contracts/DeveloperPayouts.sol\":3440:3468  claim.claimed && !claim.paid */\n    tag_116:\n        /* \"prog2005-2025/lab02/gitlab-fund/contracts/DeveloperPayouts.sol\":3432:3492  require(claim.claimed && !claim.paid, \"Invalid claim state\") */\n      tag_117\n      jumpi\n      mload(0x40)\n      0x08c379a000000000000000000000000000000000000000000000000000000000\n      dup2\n      mstore\n      0x04\n      add\n      tag_118\n      swap1\n      tag_119\n      jump\t// in\n    tag_118:\n      mload(0x40)\n      dup1\n      swap2\n      sub\n      swap1\n      revert\n    tag_117:\n        /* \"prog2005-2025/lab02/gitlab-fund/contracts/DeveloperPayouts.sol\":3537:3542  claim */\n      dup1\n        /* \"prog2005-2025/lab02/gitlab-fund/contracts/DeveloperPayouts.sol\":3537:3552  claim.developer */\n      0x00\n      add\n      0x00\n      swap1\n      sload\n      swap1\n      0x0100\n      exp\n      swap1\n      div\n      0xffffffffffffffffffffffffffffffffffffffff\n      and\n        /* \"prog2005-2025/lab02/gitlab-fund/contracts/DeveloperPayouts.sol\":3523:3552  msg.sender == claim.developer */\n      0xffffffffffffffffffffffffffffffffffffffff\n      and\n        /* \"prog2005-2025/lab02/gitlab-fund/contracts/DeveloperPayouts.sol\":3523:3533  msg.sender */\n      caller\n        /* \"prog2005-2025/lab02/gitlab-fund/contracts/DeveloperPayouts.sol\":3523:3552  msg.sender == claim.developer */\n      0xffffffffffffffffffffffffffffffffffffffff\n      and\n      eq\n        /* \"prog2005-2025/lab02/gitlab-fund/contracts/DeveloperPayouts.sol\":3523:3627  msg.sender == claim.developer || ... */\n      dup1\n      tag_120\n      jumpi\n      pop\n        /* \"prog2005-2025/lab02/gitlab-fund/contracts/DeveloperPayouts.sol\":886:892  7 days */\n      0x093a80\n        /* \"prog2005-2025/lab02/gitlab-fund/contracts/DeveloperPayouts.sol\":3587:3602  claimTimestamps */\n      0x02\n        /* \"prog2005-2025/lab02/gitlab-fund/contracts/DeveloperPayouts.sol\":3587:3611  claimTimestamps[issueId] */\n      0x00\n        /* \"prog2005-2025/lab02/gitlab-fund/contracts/DeveloperPayouts.sol\":3603:3610  issueId */\n      dup5\n        /* \"prog2005-2025/lab02/gitlab-fund/contracts/DeveloperPayouts.sol\":3587:3611  claimTimestamps[issueId] */\n      dup2\n      mstore\n      0x20\n      add\n      swap1\n      dup2\n      mstore\n      0x20\n      add\n      0x00\n      keccak256\n      sload\n        /* \"prog2005-2025/lab02/gitlab-fund/contracts/DeveloperPayouts.sol\":3587:3627  claimTimestamps[issueId] + CLAIM_TIMEOUT */\n      tag_121\n      swap2\n      swap1\n      tag_84\n      jump\t// in\n    tag_121:\n        /* \"prog2005-2025/lab02/gitlab-fund/contracts/DeveloperPayouts.sol\":3569:3584  block.timestamp */\n      timestamp\n        /* \"prog2005-2025/lab02/gitlab-fund/contracts/DeveloperPayouts.sol\":3569:3627  block.timestamp > claimTimestamps[issueId] + CLAIM_TIMEOUT */\n      gt\n        /* \"prog2005-2025/lab02/gitlab-fund/contracts/DeveloperPayouts.sol\":3523:3627  msg.sender == claim.developer || ... */\n    tag_120:\n        /* \"prog2005-2025/lab02/gitlab-fund/contracts/DeveloperPayouts.sol\":3502:3677  require(... */\n      tag_122\n      jumpi\n      mload(0x40)\n      0x08c379a000000000000000000000000000000000000000000000000000000000\n      dup2\n      mstore\n      0x04\n      add\n      tag_123\n      swap1\n      tag_124\n      jump\t// in\n    tag_123:\n      mload(0x40)\n      dup1\n      swap2\n      sub\n      swap1\n      revert\n    tag_122:\n        /* \"prog2005-2025/lab02/gitlab-fund/contracts/DeveloperPayouts.sol\":3695:3701  claims */\n      0x01\n        /* \"prog2005-2025/lab02/gitlab-fund/contracts/DeveloperPayouts.sol\":3695:3710  claims[issueId] */\n      0x00\n        /* \"prog2005-2025/lab02/gitlab-fund/contracts/DeveloperPayouts.sol\":3702:3709  issueId */\n      dup4\n        /* \"prog2005-2025/lab02/gitlab-fund/contracts/DeveloperPayouts.sol\":3695:3710  claims[issueId] */\n      dup2\n      mstore\n      0x20\n      add\n      swap1\n      dup2\n      mstore\n      0x20\n      add\n      0x00\n      keccak256\n      0x00\n        /* \"prog2005-2025/lab02/gitlab-fund/contracts/DeveloperPayouts.sol\":3688:3710  delete claims[issueId] */\n      dup1\n      dup3\n      add\n      exp(0x0100, 0x00)\n      dup2\n      sload\n      swap1\n      0xffffffffffffffffffffffffffffffffffffffff\n      mul\n      not\n      and\n      swap1\n      sstore\n      0x01\n      dup3\n      add\n      0x00\n      swap1\n      sstore\n      0x02\n      dup3\n      add\n      exp(0x0100, 0x00)\n      dup2\n      sload\n      swap1\n      0xff\n      mul\n      not\n      and\n      swap1\n      sstore\n      0x02\n      dup3\n      add\n      exp(0x0100, 0x01)\n      dup2\n      sload\n      swap1\n      0xff\n      mul\n      not\n      and\n      swap1\n      sstore\n      pop\n      pop\n        /* \"prog2005-2025/lab02/gitlab-fund/contracts/DeveloperPayouts.sol\":3727:3742  claimTimestamps */\n      0x02\n        /* \"prog2005-2025/lab02/gitlab-fund/contracts/DeveloperPayouts.sol\":3727:3751  claimTimestamps[issueId] */\n      0x00\n        /* \"prog2005-2025/lab02/gitlab-fund/contracts/DeveloperPayouts.sol\":3743:3750  issueId */\n      dup4\n        /* \"prog2005-2025/lab02/gitlab-fund/contracts/DeveloperPayouts.sol\":3727:3751  claimTimestamps[issueId] */\n      dup2\n      mstore\n      0x20\n      add\n      swap1\n      dup2\n      mstore\n      0x20\n      add\n      0x00\n      keccak256\n        /* \"prog2005-2025/lab02/gitlab-fund/contracts/DeveloperPayouts.sol\":3720:3751  delete claimTimestamps[issueId] */\n      0x00\n      swap1\n      sstore\n        /* \"prog2005-2025/lab02/gitlab-fund/contracts/DeveloperPayouts.sol\":3791:3796  claim */\n      dup1\n        /* \"prog2005-2025/lab02/gitlab-fund/contracts/DeveloperPayouts.sol\":3791:3806  claim.developer */\n      0x00\n      add\n      0x00\n      swap1\n      sload\n      swap1\n      0x0100\n      exp\n      swap1\n      div\n      0xffffffffffffffffffffffffffffffffffffffff\n      and\n        /* \"prog2005-2025/lab02/gitlab-fund/contracts/DeveloperPayouts.sol\":3767:3807  ClaimCancelled(issueId, claim.developer) */\n      0xffffffffffffffffffffffffffffffffffffffff\n      and\n        /* \"prog2005-2025/lab02/gitlab-fund/contracts/DeveloperPayouts.sol\":3782:3789  issueId */\n      dup3\n        /* \"prog2005-2025/lab02/gitlab-fund/contracts/DeveloperPayouts.sol\":3767:3807  ClaimCancelled(issueId, claim.developer) */\n      0xb07c35948b3aa55af6baed77379d187e78a6e78bbe61fc2fe299f400607c441f\n      mload(0x40)\n      mload(0x40)\n      dup1\n      swap2\n      sub\n      swap1\n      log3\n        /* \"prog2005-2025/lab02/gitlab-fund/contracts/DeveloperPayouts.sol\":3375:3814  {... */\n      pop\n        /* \"prog2005-2025/lab02/gitlab-fund/contracts/DeveloperPayouts.sol\":3319:3814  function cancelClaim(uint256 issueId) external override {... */\n      pop\n      jump\t// out\n        /* \"prog2005-2025/lab02/gitlab-fund/contracts/DeveloperPayouts.sol\":758:797  mapping(uint256 => Claim) public claims */\n    tag_55:\n      mstore(0x20, 0x01)\n      dup1\n      0x00\n      mstore\n      keccak256(0x00, 0x40)\n      0x00\n      swap2\n      pop\n      swap1\n      pop\n      dup1\n      0x00\n      add\n      0x00\n      swap1\n      sload\n      swap1\n      0x0100\n      exp\n      swap1\n      div\n      0xffffffffffffffffffffffffffffffffffffffff\n      and\n      swap1\n      dup1\n      0x01\n      add\n      sload\n      swap1\n      dup1\n      0x02\n      add\n      0x00\n      swap1\n      sload\n      swap1\n      0x0100\n      exp\n      swap1\n      div\n      0xff\n      and\n      swap1\n      dup1\n      0x02\n      add\n      0x01\n      swap1\n      sload\n      swap1\n      0x0100\n      exp\n      swap1\n      div\n      0xff\n      and\n      swap1\n      pop\n      dup5\n      jump\t// out\n        /* \"prog2005-2025/lab02/gitlab-fund/contracts/DeveloperPayouts.sol\":652:705  IValidatorMultiSig public immutable validatorMultiSig */\n    tag_60:\n      immutable(\"0x7749cc8014201da2069c21d93ba99c584b6f62d393fde534ed47eac227e31561\")\n      dup2\n      jump\t// out\n        /* \"prog2005-2025/lab02/gitlab-fund/contracts/DeveloperPayouts.sol\":846:892  uint256 public constant CLAIM_TIMEOUT = 7 days */\n    tag_65:\n        /* \"prog2005-2025/lab02/gitlab-fund/contracts/DeveloperPayouts.sol\":886:892  7 days */\n      0x093a80\n        /* \"prog2005-2025/lab02/gitlab-fund/contracts/DeveloperPayouts.sol\":846:892  uint256 public constant CLAIM_TIMEOUT = 7 days */\n      dup2\n      jump\t// out\n        /* \"#utility.yul\":88:205   */\n    tag_126:\n        /* \"#utility.yul\":197:198   */\n      0x00\n        /* \"#utility.yul\":194:195   */\n      dup1\n        /* \"#utility.yul\":187:199   */\n      revert\n        /* \"#utility.yul\":334:411   */\n    tag_128:\n        /* \"#utility.yul\":371:378   */\n      0x00\n        /* \"#utility.yul\":400:405   */\n      dup2\n        /* \"#utility.yul\":389:405   */\n      swap1\n      pop\n        /* \"#utility.yul\":334:411   */\n      swap2\n      swap1\n      pop\n      jump\t// out\n        /* \"#utility.yul\":417:539   */\n    tag_129:\n        /* \"#utility.yul\":490:514   */\n      tag_176\n        /* \"#utility.yul\":508:513   */\n      dup2\n        /* \"#utility.yul\":490:514   */\n      tag_128\n      jump\t// in\n    tag_176:\n        /* \"#utility.yul\":483:488   */\n      dup2\n        /* \"#utility.yul\":480:515   */\n      eq\n        /* \"#utility.yul\":470:533   */\n      tag_177\n      jumpi\n        /* \"#utility.yul\":529:530   */\n      0x00\n        /* \"#utility.yul\":526:527   */\n      dup1\n        /* \"#utility.yul\":519:531   */\n      revert\n        /* \"#utility.yul\":470:533   */\n    tag_177:\n        /* \"#utility.yul\":417:539   */\n      pop\n      jump\t// out\n        /* \"#utility.yul\":545:684   */\n    tag_130:\n        /* \"#utility.yul\":591:596   */\n      0x00\n        /* \"#utility.yul\":629:635   */\n      dup2\n        /* \"#utility.yul\":616:636   */\n      calldataload\n        /* \"#utility.yul\":607:636   */\n      swap1\n      pop\n        /* \"#utility.yul\":645:678   */\n      tag_179\n        /* \"#utility.yul\":672:677   */\n      dup2\n        /* \"#utility.yul\":645:678   */\n      tag_129\n      jump\t// in\n    tag_179:\n        /* \"#utility.yul\":545:684   */\n      swap3\n      swap2\n      pop\n      pop\n      jump\t// out\n        /* \"#utility.yul\":690:1019   */\n    tag_19:\n        /* \"#utility.yul\":749:755   */\n      0x00\n        /* \"#utility.yul\":798:800   */\n      0x20\n        /* \"#utility.yul\":786:795   */\n      dup3\n        /* \"#utility.yul\":777:784   */\n      dup5\n        /* \"#utility.yul\":773:796   */\n      sub\n        /* \"#utility.yul\":769:801   */\n      slt\n        /* \"#utility.yul\":766:885   */\n      iszero\n      tag_181\n      jumpi\n        /* \"#utility.yul\":804:883   */\n      tag_182\n      tag_126\n      jump\t// in\n    tag_182:\n        /* \"#utility.yul\":766:885   */\n    tag_181:\n        /* \"#utility.yul\":924:925   */\n      0x00\n        /* \"#utility.yul\":949:1002   */\n      tag_183\n        /* \"#utility.yul\":994:1001   */\n      dup5\n        /* \"#utility.yul\":985:991   */\n      dup3\n        /* \"#utility.yul\":974:983   */\n      dup6\n        /* \"#utility.yul\":970:992   */\n      add\n        /* \"#utility.yul\":949:1002   */\n      tag_130\n      jump\t// in\n    tag_183:\n        /* \"#utility.yul\":939:1002   */\n      swap2\n      pop\n        /* \"#utility.yul\":895:1012   */\n      pop\n        /* \"#utility.yul\":690:1019   */\n      swap3\n      swap2\n      pop\n      pop\n      jump\t// out\n        /* \"#utility.yul\":1025:1143   */\n    tag_131:\n        /* \"#utility.yul\":1112:1136   */\n      tag_185\n        /* \"#utility.yul\":1130:1135   */\n      dup2\n        /* \"#utility.yul\":1112:1136   */\n      tag_128\n      jump\t// in\n    tag_185:\n        /* \"#utility.yul\":1107:1110   */\n      dup3\n        /* \"#utility.yul\":1100:1137   */\n      mstore\n        /* \"#utility.yul\":1025:1143   */\n      pop\n      pop\n      jump\t// out\n        /* \"#utility.yul\":1149:1371   */\n    tag_22:\n        /* \"#utility.yul\":1242:1246   */\n      0x00\n        /* \"#utility.yul\":1280:1282   */\n      0x20\n        /* \"#utility.yul\":1269:1278   */\n      dup3\n        /* \"#utility.yul\":1265:1283   */\n      add\n        /* \"#utility.yul\":1257:1283   */\n      swap1\n      pop\n        /* \"#utility.yul\":1293:1364   */\n      tag_187\n        /* \"#utility.yul\":1361:1362   */\n      0x00\n        /* \"#utility.yul\":1350:1359   */\n      dup4\n        /* \"#utility.yul\":1346:1363   */\n      add\n        /* \"#utility.yul\":1337:1343   */\n      dup5\n        /* \"#utility.yul\":1293:1364   */\n      tag_131\n      jump\t// in\n    tag_187:\n        /* \"#utility.yul\":1149:1371   */\n      swap3\n      swap2\n      pop\n      pop\n      jump\t// out\n        /* \"#utility.yul\":1377:1467   */\n    tag_132:\n        /* \"#utility.yul\":1411:1418   */\n      0x00\n        /* \"#utility.yul\":1454:1459   */\n      dup2\n        /* \"#utility.yul\":1447:1460   */\n      iszero\n        /* \"#utility.yul\":1440:1461   */\n      iszero\n        /* \"#utility.yul\":1429:1461   */\n      swap1\n      pop\n        /* \"#utility.yul\":1377:1467   */\n      swap2\n      swap1\n      pop\n      jump\t// out\n        /* \"#utility.yul\":1473:1582   */\n    tag_133:\n        /* \"#utility.yul\":1554:1575   */\n      tag_190\n        /* \"#utility.yul\":1569:1574   */\n      dup2\n        /* \"#utility.yul\":1554:1575   */\n      tag_132\n      jump\t// in\n    tag_190:\n        /* \"#utility.yul\":1549:1552   */\n      dup3\n        /* \"#utility.yul\":1542:1576   */\n      mstore\n        /* \"#utility.yul\":1473:1582   */\n      pop\n      pop\n      jump\t// out\n        /* \"#utility.yul\":1588:1714   */\n    tag_134:\n        /* \"#utility.yul\":1625:1632   */\n      0x00\n        /* \"#utility.yul\":1665:1707   */\n      0xffffffffffffffffffffffffffffffffffffffff\n        /* \"#utility.yul\":1658:1663   */\n      dup3\n        /* \"#utility.yul\":1654:1708   */\n      and\n        /* \"#utility.yul\":1643:1708   */\n      swap1\n      pop\n        /* \"#utility.yul\":1588:1714   */\n      swap2\n      swap1\n      pop\n      jump\t// out\n        /* \"#utility.yul\":1720:1816   */\n    tag_135:\n        /* \"#utility.yul\":1757:1764   */\n      0x00\n        /* \"#utility.yul\":1786:1810   */\n      tag_193\n        /* \"#utility.yul\":1804:1809   */\n      dup3\n        /* \"#utility.yul\":1786:1810   */\n      tag_134\n      jump\t// in\n    tag_193:\n        /* \"#utility.yul\":1775:1810   */\n      swap1\n      pop\n        /* \"#utility.yul\":1720:1816   */\n      swap2\n      swap1\n      pop\n      jump\t// out\n        /* \"#utility.yul\":1822:1940   */\n    tag_136:\n        /* \"#utility.yul\":1909:1933   */\n      tag_195\n        /* \"#utility.yul\":1927:1932   */\n      dup2\n        /* \"#utility.yul\":1909:1933   */\n      tag_135\n      jump\t// in\n    tag_195:\n        /* \"#utility.yul\":1904:1907   */\n      dup3\n        /* \"#utility.yul\":1897:1934   */\n      mstore\n        /* \"#utility.yul\":1822:1940   */\n      pop\n      pop\n      jump\t// out\n        /* \"#utility.yul\":1946:2376   */\n    tag_28:\n        /* \"#utility.yul\":2089:2093   */\n      0x00\n        /* \"#utility.yul\":2127:2129   */\n      0x60\n        /* \"#utility.yul\":2116:2125   */\n      dup3\n        /* \"#utility.yul\":2112:2130   */\n      add\n        /* \"#utility.yul\":2104:2130   */\n      swap1\n      pop\n        /* \"#utility.yul\":2140:2205   */\n      tag_197\n        /* \"#utility.yul\":2202:2203   */\n      0x00\n        /* \"#utility.yul\":2191:2200   */\n      dup4\n        /* \"#utility.yul\":2187:2204   */\n      add\n        /* \"#utility.yul\":2178:2184   */\n      dup7\n        /* \"#utility.yul\":2140:2205   */\n      tag_133\n      jump\t// in\n    tag_197:\n        /* \"#utility.yul\":2215:2287   */\n      tag_198\n        /* \"#utility.yul\":2283:2285   */\n      0x20\n        /* \"#utility.yul\":2272:2281   */\n      dup4\n        /* \"#utility.yul\":2268:2286   */\n      add\n        /* \"#utility.yul\":2259:2265   */\n      dup6\n        /* \"#utility.yul\":2215:2287   */\n      tag_136\n      jump\t// in\n    tag_198:\n        /* \"#utility.yul\":2297:2369   */\n      tag_199\n        /* \"#utility.yul\":2365:2367   */\n      0x40\n        /* \"#utility.yul\":2354:2363   */\n      dup4\n        /* \"#utility.yul\":2350:2368   */\n      add\n        /* \"#utility.yul\":2341:2347   */\n      dup5\n        /* \"#utility.yul\":2297:2369   */\n      tag_131\n      jump\t// in\n    tag_199:\n        /* \"#utility.yul\":1946:2376   */\n      swap5\n      swap4\n      pop\n      pop\n      pop\n      pop\n      jump\t// out\n        /* \"#utility.yul\":2382:2442   */\n    tag_137:\n        /* \"#utility.yul\":2410:2413   */\n      0x00\n        /* \"#utility.yul\":2431:2436   */\n      dup2\n        /* \"#utility.yul\":2424:2436   */\n      swap1\n      pop\n        /* \"#utility.yul\":2382:2442   */\n      swap2\n      swap1\n      pop\n      jump\t// out\n        /* \"#utility.yul\":2448:2590   */\n    tag_138:\n        /* \"#utility.yul\":2498:2507   */\n      0x00\n        /* \"#utility.yul\":2531:2584   */\n      tag_202\n        /* \"#utility.yul\":2549:2583   */\n      tag_203\n        /* \"#utility.yul\":2558:2582   */\n      tag_204\n        /* \"#utility.yul\":2576:2581   */\n      dup5\n        /* \"#utility.yul\":2558:2582   */\n      tag_134\n      jump\t// in\n    tag_204:\n        /* \"#utility.yul\":2549:2583   */\n      tag_137\n      jump\t// in\n    tag_203:\n        /* \"#utility.yul\":2531:2584   */\n      tag_134\n      jump\t// in\n    tag_202:\n        /* \"#utility.yul\":2518:2584   */\n      swap1\n      pop\n        /* \"#utility.yul\":2448:2590   */\n      swap2\n      swap1\n      pop\n      jump\t// out\n        /* \"#utility.yul\":2596:2722   */\n    tag_139:\n        /* \"#utility.yul\":2646:2655   */\n      0x00\n        /* \"#utility.yul\":2679:2716   */\n      tag_206\n        /* \"#utility.yul\":2710:2715   */\n      dup3\n        /* \"#utility.yul\":2679:2716   */\n      tag_138\n      jump\t// in\n    tag_206:\n        /* \"#utility.yul\":2666:2716   */\n      swap1\n      pop\n        /* \"#utility.yul\":2596:2722   */\n      swap2\n      swap1\n      pop\n      jump\t// out\n        /* \"#utility.yul\":2728:2874   */\n    tag_140:\n        /* \"#utility.yul\":2798:2807   */\n      0x00\n        /* \"#utility.yul\":2831:2868   */\n      tag_208\n        /* \"#utility.yul\":2862:2867   */\n      dup3\n        /* \"#utility.yul\":2831:2868   */\n      tag_139\n      jump\t// in\n    tag_208:\n        /* \"#utility.yul\":2818:2868   */\n      swap1\n      pop\n        /* \"#utility.yul\":2728:2874   */\n      swap2\n      swap1\n      pop\n      jump\t// out\n        /* \"#utility.yul\":2880:3051   */\n    tag_141:\n        /* \"#utility.yul\":2987:3044   */\n      tag_210\n        /* \"#utility.yul\":3038:3043   */\n      dup2\n        /* \"#utility.yul\":2987:3044   */\n      tag_140\n      jump\t// in\n    tag_210:\n        /* \"#utility.yul\":2982:2985   */\n      dup3\n        /* \"#utility.yul\":2975:3045   */\n      mstore\n        /* \"#utility.yul\":2880:3051   */\n      pop\n      pop\n      jump\t// out\n        /* \"#utility.yul\":3057:3319   */\n    tag_37:\n        /* \"#utility.yul\":3170:3174   */\n      0x00\n        /* \"#utility.yul\":3208:3210   */\n      0x20\n        /* \"#utility.yul\":3197:3206   */\n      dup3\n        /* \"#utility.yul\":3193:3211   */\n      add\n        /* \"#utility.yul\":3185:3211   */\n      swap1\n      pop\n        /* \"#utility.yul\":3221:3312   */\n      tag_212\n        /* \"#utility.yul\":3309:3310   */\n      0x00\n        /* \"#utility.yul\":3298:3307   */\n      dup4\n        /* \"#utility.yul\":3294:3311   */\n      add\n        /* \"#utility.yul\":3285:3291   */\n      dup5\n        /* \"#utility.yul\":3221:3312   */\n      tag_141\n      jump\t// in\n    tag_212:\n        /* \"#utility.yul\":3057:3319   */\n      swap3\n      swap2\n      pop\n      pop\n      jump\t// out\n        /* \"#utility.yul\":3325:3535   */\n    tag_43:\n        /* \"#utility.yul\":3412:3416   */\n      0x00\n        /* \"#utility.yul\":3450:3452   */\n      0x20\n        /* \"#utility.yul\":3439:3448   */\n      dup3\n        /* \"#utility.yul\":3435:3453   */\n      add\n        /* \"#utility.yul\":3427:3453   */\n      swap1\n      pop\n        /* \"#utility.yul\":3463:3528   */\n      tag_214\n        /* \"#utility.yul\":3525:3526   */\n      0x00\n        /* \"#utility.yul\":3514:3523   */\n      dup4\n        /* \"#utility.yul\":3510:3527   */\n      add\n        /* \"#utility.yul\":3501:3507   */\n      dup5\n        /* \"#utility.yul\":3463:3528   */\n      tag_133\n      jump\t// in\n    tag_214:\n        /* \"#utility.yul\":3325:3535   */\n      swap3\n      swap2\n      pop\n      pop\n      jump\t// out\n        /* \"#utility.yul\":3541:4070   */\n    tag_57:\n        /* \"#utility.yul\":3706:3710   */\n      0x00\n        /* \"#utility.yul\":3744:3747   */\n      0x80\n        /* \"#utility.yul\":3733:3742   */\n      dup3\n        /* \"#utility.yul\":3729:3748   */\n      add\n        /* \"#utility.yul\":3721:3748   */\n      swap1\n      pop\n        /* \"#utility.yul\":3758:3829   */\n      tag_216\n        /* \"#utility.yul\":3826:3827   */\n      0x00\n        /* \"#utility.yul\":3815:3824   */\n      dup4\n        /* \"#utility.yul\":3811:3828   */\n      add\n        /* \"#utility.yul\":3802:3808   */\n      dup8\n        /* \"#utility.yul\":3758:3829   */\n      tag_136\n      jump\t// in\n    tag_216:\n        /* \"#utility.yul\":3839:3911   */\n      tag_217\n        /* \"#utility.yul\":3907:3909   */\n      0x20\n        /* \"#utility.yul\":3896:3905   */\n      dup4\n        /* \"#utility.yul\":3892:3910   */\n      add\n        /* \"#utility.yul\":3883:3889   */\n      dup7\n        /* \"#utility.yul\":3839:3911   */\n      tag_131\n      jump\t// in\n    tag_217:\n        /* \"#utility.yul\":3921:3987   */\n      tag_218\n        /* \"#utility.yul\":3983:3985   */\n      0x40\n        /* \"#utility.yul\":3972:3981   */\n      dup4\n        /* \"#utility.yul\":3968:3986   */\n      add\n        /* \"#utility.yul\":3959:3965   */\n      dup6\n        /* \"#utility.yul\":3921:3987   */\n      tag_133\n      jump\t// in\n    tag_218:\n        /* \"#utility.yul\":3997:4063   */\n      tag_219\n        /* \"#utility.yul\":4059:4061   */\n      0x60\n        /* \"#utility.yul\":4048:4057   */\n      dup4\n        /* \"#utility.yul\":4044:4062   */\n      add\n        /* \"#utility.yul\":4035:4041   */\n      dup5\n        /* \"#utility.yul\":3997:4063   */\n      tag_133\n      jump\t// in\n    tag_219:\n        /* \"#utility.yul\":3541:4070   */\n      swap6\n      swap5\n      pop\n      pop\n      pop\n      pop\n      pop\n      jump\t// out\n        /* \"#utility.yul\":4076:4228   */\n    tag_142:\n        /* \"#utility.yul\":4152:4161   */\n      0x00\n        /* \"#utility.yul\":4185:4222   */\n      tag_221\n        /* \"#utility.yul\":4216:4221   */\n      dup3\n        /* \"#utility.yul\":4185:4222   */\n      tag_139\n      jump\t// in\n    tag_221:\n        /* \"#utility.yul\":4172:4222   */\n      swap1\n      pop\n        /* \"#utility.yul\":4076:4228   */\n      swap2\n      swap1\n      pop\n      jump\t// out\n        /* \"#utility.yul\":4234:4417   */\n    tag_143:\n        /* \"#utility.yul\":4347:4410   */\n      tag_223\n        /* \"#utility.yul\":4404:4409   */\n      dup2\n        /* \"#utility.yul\":4347:4410   */\n      tag_142\n      jump\t// in\n    tag_223:\n        /* \"#utility.yul\":4342:4345   */\n      dup3\n        /* \"#utility.yul\":4335:4411   */\n      mstore\n        /* \"#utility.yul\":4234:4417   */\n      pop\n      pop\n      jump\t// out\n        /* \"#utility.yul\":4423:4697   */\n    tag_62:\n        /* \"#utility.yul\":4542:4546   */\n      0x00\n        /* \"#utility.yul\":4580:4582   */\n      0x20\n        /* \"#utility.yul\":4569:4578   */\n      dup3\n        /* \"#utility.yul\":4565:4583   */\n      add\n        /* \"#utility.yul\":4557:4583   */\n      swap1\n      pop\n        /* \"#utility.yul\":4593:4690   */\n      tag_225\n        /* \"#utility.yul\":4687:4688   */\n      0x00\n        /* \"#utility.yul\":4676:4685   */\n      dup4\n        /* \"#utility.yul\":4672:4689   */\n      add\n        /* \"#utility.yul\":4663:4669   */\n      dup5\n        /* \"#utility.yul\":4593:4690   */\n      tag_143\n      jump\t// in\n    tag_225:\n        /* \"#utility.yul\":4423:4697   */\n      swap3\n      swap2\n      pop\n      pop\n      jump\t// out\n        /* \"#utility.yul\":4703:4872   */\n    tag_144:\n        /* \"#utility.yul\":4787:4798   */\n      0x00\n        /* \"#utility.yul\":4821:4827   */\n      dup3\n        /* \"#utility.yul\":4816:4819   */\n      dup3\n        /* \"#utility.yul\":4809:4828   */\n      mstore\n        /* \"#utility.yul\":4861:4865   */\n      0x20\n        /* \"#utility.yul\":4856:4859   */\n      dup3\n        /* \"#utility.yul\":4852:4866   */\n      add\n        /* \"#utility.yul\":4837:4866   */\n      swap1\n      pop\n        /* \"#utility.yul\":4703:4872   */\n      swap3\n      swap2\n      pop\n      pop\n      jump\t// out\n        /* \"#utility.yul\":4878:5049   */\n    tag_145:\n        /* \"#utility.yul\":5018:5041   */\n      0x497373756520616c726561647920636c61696d65640000000000000000000000\n        /* \"#utility.yul\":5014:5015   */\n      0x00\n        /* \"#utility.yul\":5006:5012   */\n      dup3\n        /* \"#utility.yul\":5002:5016   */\n      add\n        /* \"#utility.yul\":4995:5042   */\n      mstore\n        /* \"#utility.yul\":4878:5049   */\n      pop\n      jump\t// out\n        /* \"#utility.yul\":5055:5421   */\n    tag_146:\n        /* \"#utility.yul\":5197:5200   */\n      0x00\n        /* \"#utility.yul\":5218:5285   */\n      tag_229\n        /* \"#utility.yul\":5282:5284   */\n      0x15\n        /* \"#utility.yul\":5277:5280   */\n      dup4\n        /* \"#utility.yul\":5218:5285   */\n      tag_144\n      jump\t// in\n    tag_229:\n        /* \"#utility.yul\":5211:5285   */\n      swap2\n      pop\n        /* \"#utility.yul\":5294:5387   */\n      tag_230\n        /* \"#utility.yul\":5383:5386   */\n      dup3\n        /* \"#utility.yul\":5294:5387   */\n      tag_145\n      jump\t// in\n    tag_230:\n        /* \"#utility.yul\":5412:5414   */\n      0x20\n        /* \"#utility.yul\":5407:5410   */\n      dup3\n        /* \"#utility.yul\":5403:5415   */\n      add\n        /* \"#utility.yul\":5396:5415   */\n      swap1\n      pop\n        /* \"#utility.yul\":5055:5421   */\n      swap2\n      swap1\n      pop\n      jump\t// out\n        /* \"#utility.yul\":5427:5846   */\n    tag_71:\n        /* \"#utility.yul\":5593:5597   */\n      0x00\n        /* \"#utility.yul\":5631:5633   */\n      0x20\n        /* \"#utility.yul\":5620:5629   */\n      dup3\n        /* \"#utility.yul\":5616:5634   */\n      add\n        /* \"#utility.yul\":5608:5634   */\n      swap1\n      pop\n        /* \"#utility.yul\":5680:5689   */\n      dup2\n        /* \"#utility.yul\":5674:5678   */\n      dup2\n        /* \"#utility.yul\":5670:5690   */\n      sub\n        /* \"#utility.yul\":5666:5667   */\n      0x00\n        /* \"#utility.yul\":5655:5664   */\n      dup4\n        /* \"#utility.yul\":5651:5668   */\n      add\n        /* \"#utility.yul\":5644:5691   */\n      mstore\n        /* \"#utility.yul\":5708:5839   */\n      tag_232\n        /* \"#utility.yul\":5834:5838   */\n      dup2\n        /* \"#utility.yul\":5708:5839   */\n      tag_146\n      jump\t// in\n    tag_232:\n        /* \"#utility.yul\":5700:5839   */\n      swap1\n      pop\n        /* \"#utility.yul\":5427:5846   */\n      swap2\n      swap1\n      pop\n      jump\t// out\n        /* \"#utility.yul\":5852:5995   */\n    tag_147:\n        /* \"#utility.yul\":5909:5914   */\n      0x00\n        /* \"#utility.yul\":5940:5946   */\n      dup2\n        /* \"#utility.yul\":5934:5947   */\n      mload\n        /* \"#utility.yul\":5925:5947   */\n      swap1\n      pop\n        /* \"#utility.yul\":5956:5989   */\n      tag_234\n        /* \"#utility.yul\":5983:5988   */\n      dup2\n        /* \"#utility.yul\":5956:5989   */\n      tag_129\n      jump\t// in\n    tag_234:\n        /* \"#utility.yul\":5852:5995   */\n      swap3\n      swap2\n      pop\n      pop\n      jump\t// out\n        /* \"#utility.yul\":6001:6352   */\n    tag_77:\n        /* \"#utility.yul\":6071:6077   */\n      0x00\n        /* \"#utility.yul\":6120:6122   */\n      0x20\n        /* \"#utility.yul\":6108:6117   */\n      dup3\n        /* \"#utility.yul\":6099:6106   */\n      dup5\n        /* \"#utility.yul\":6095:6118   */\n      sub\n        /* \"#utility.yul\":6091:6123   */\n      slt\n        /* \"#utility.yul\":6088:6207   */\n      iszero\n      tag_236\n      jumpi\n        /* \"#utility.yul\":6126:6205   */\n      tag_237\n      tag_126\n      jump\t// in\n    tag_237:\n        /* \"#utility.yul\":6088:6207   */\n    tag_236:\n        /* \"#utility.yul\":6246:6247   */\n      0x00\n        /* \"#utility.yul\":6271:6335   */\n      tag_238\n        /* \"#utility.yul\":6327:6334   */\n      dup5\n        /* \"#utility.yul\":6318:6324   */\n      dup3\n        /* \"#utility.yul\":6307:6316   */\n      dup6\n        /* \"#utility.yul\":6303:6325   */\n      add\n        /* \"#utility.yul\":6271:6335   */\n      tag_147\n      jump\t// in\n    tag_238:\n        /* \"#utility.yul\":6261:6335   */\n      swap2\n      pop\n        /* \"#utility.yul\":6217:6345   */\n      pop\n        /* \"#utility.yul\":6001:6352   */\n      swap3\n      swap2\n      pop\n      pop\n      jump\t// out\n        /* \"#utility.yul\":6358:6532   */\n    tag_148:\n        /* \"#utility.yul\":6498:6524   */\n      0x4e6f20626f756e747920666f7220746869732069737375650000000000000000\n        /* \"#utility.yul\":6494:6495   */\n      0x00\n        /* \"#utility.yul\":6486:6492   */\n      dup3\n        /* \"#utility.yul\":6482:6496   */\n      add\n        /* \"#utility.yul\":6475:6525   */\n      mstore\n        /* \"#utility.yul\":6358:6532   */\n      pop\n      jump\t// out\n        /* \"#utility.yul\":6538:6904   */\n    tag_149:\n        /* \"#utility.yul\":6680:6683   */\n      0x00\n        /* \"#utility.yul\":6701:6768   */\n      tag_241\n        /* \"#utility.yul\":6765:6767   */\n      0x18\n        /* \"#utility.yul\":6760:6763   */\n      dup4\n        /* \"#utility.yul\":6701:6768   */\n      tag_144\n      jump\t// in\n    tag_241:\n        /* \"#utility.yul\":6694:6768   */\n      swap2\n      pop\n        /* \"#utility.yul\":6777:6870   */\n      tag_242\n        /* \"#utility.yul\":6866:6869   */\n      dup3\n        /* \"#utility.yul\":6777:6870   */\n      tag_148\n      jump\t// in\n    tag_242:\n        /* \"#utility.yul\":6895:6897   */\n      0x20\n        /* \"#utility.yul\":6890:6893   */\n      dup3\n        /* \"#utility.yul\":6886:6898   */\n      add\n        /* \"#utility.yul\":6879:6898   */\n      swap1\n      pop\n        /* \"#utility.yul\":6538:6904   */\n      swap2\n      swap1\n      pop\n      jump\t// out\n        /* \"#utility.yul\":6910:7329   */\n    tag_80:\n        /* \"#utility.yul\":7076:7080   */\n      0x00\n        /* \"#utility.yul\":7114:7116   */\n      0x20\n        /* \"#utility.yul\":7103:7112   */\n      dup3\n        /* \"#utility.yul\":7099:7117   */\n      add\n        /* \"#utility.yul\":7091:7117   */\n      swap1\n      pop\n        /* \"#utility.yul\":7163:7172   */\n      dup2\n        /* \"#utility.yul\":7157:7161   */\n      dup2\n        /* \"#utility.yul\":7153:7173   */\n      sub\n        /* \"#utility.yul\":7149:7150   */\n      0x00\n        /* \"#utility.yul\":7138:7147   */\n      dup4\n        /* \"#utility.yul\":7134:7151   */\n      add\n        /* \"#utility.yul\":7127:7174   */\n      mstore\n        /* \"#utility.yul\":7191:7322   */\n      tag_244\n        /* \"#utility.yul\":7317:7321   */\n      dup2\n        /* \"#utility.yul\":7191:7322   */\n      tag_149\n      jump\t// in\n    tag_244:\n        /* \"#utility.yul\":7183:7322   */\n      swap1\n      pop\n        /* \"#utility.yul\":6910:7329   */\n      swap2\n      swap1\n      pop\n      jump\t// out\n        /* \"#utility.yul\":7335:7515   */\n    tag_150:\n        /* \"#utility.yul\":7383:7460   */\n      0x4e487b7100000000000000000000000000000000000000000000000000000000\n        /* \"#utility.yul\":7380:7381   */\n      0x00\n        /* \"#utility.yul\":7373:7461   */\n      mstore\n        /* \"#utility.yul\":7480:7484   */\n      0x11\n        /* \"#utility.yul\":7477:7478   */\n      0x04\n        /* \"#utility.yul\":7470:7485   */\n      mstore\n        /* \"#utility.yul\":7504:7508   */\n      0x24\n        /* \"#utility.yul\":7501:7502   */\n      0x00\n        /* \"#utility.yul\":7494:7509   */\n      revert\n        /* \"#utility.yul\":7521:7712   */\n    tag_84:\n        /* \"#utility.yul\":7561:7564   */\n      0x00\n        /* \"#utility.yul\":7580:7600   */\n      tag_247\n        /* \"#utility.yul\":7598:7599   */\n      dup3\n        /* \"#utility.yul\":7580:7600   */\n      tag_128\n      jump\t// in\n    tag_247:\n        /* \"#utility.yul\":7575:7600   */\n      swap2\n      pop\n        /* \"#utility.yul\":7614:7634   */\n      tag_248\n        /* \"#utility.yul\":7632:7633   */\n      dup4\n        /* \"#utility.yul\":7614:7634   */\n      tag_128\n      jump\t// in\n    tag_248:\n        /* \"#utility.yul\":7609:7634   */\n      swap3\n      pop\n        /* \"#utility.yul\":7657:7658   */\n      dup3\n        /* \"#utility.yul\":7654:7655   */\n      dup3\n        /* \"#utility.yul\":7650:7659   */\n      add\n        /* \"#utility.yul\":7643:7659   */\n      swap1\n      pop\n        /* \"#utility.yul\":7678:7681   */\n      dup1\n        /* \"#utility.yul\":7675:7676   */\n      dup3\n        /* \"#utility.yul\":7672:7682   */\n      gt\n        /* \"#utility.yul\":7669:7705   */\n      iszero\n      tag_249\n      jumpi\n        /* \"#utility.yul\":7685:7703   */\n      tag_250\n      tag_150\n      jump\t// in\n    tag_250:\n        /* \"#utility.yul\":7669:7705   */\n    tag_249:\n        /* \"#utility.yul\":7521:7712   */\n      swap3\n      swap2\n      pop\n      pop\n      jump\t// out\n        /* \"#utility.yul\":7718:7885   */\n    tag_151:\n        /* \"#utility.yul\":7858:7877   */\n      0x4973737565206e6f7420636c61696d6564000000000000000000000000000000\n        /* \"#utility.yul\":7854:7855   */\n      0x00\n        /* \"#utility.yul\":7846:7852   */\n      dup3\n        /* \"#utility.yul\":7842:7856   */\n      add\n        /* \"#utility.yul\":7835:7878   */\n      mstore\n        /* \"#utility.yul\":7718:7885   */\n      pop\n      jump\t// out\n        /* \"#utility.yul\":7891:8257   */\n    tag_152:\n        /* \"#utility.yul\":8033:8036   */\n      0x00\n        /* \"#utility.yul\":8054:8121   */\n      tag_253\n        /* \"#utility.yul\":8118:8120   */\n      0x11\n        /* \"#utility.yul\":8113:8116   */\n      dup4\n        /* \"#utility.yul\":8054:8121   */\n      tag_144\n      jump\t// in\n    tag_253:\n        /* \"#utility.yul\":8047:8121   */\n      swap2\n      pop\n        /* \"#utility.yul\":8130:8223   */\n      tag_254\n        /* \"#utility.yul\":8219:8222   */\n      dup3\n        /* \"#utility.yul\":8130:8223   */\n      tag_151\n      jump\t// in\n    tag_254:\n        /* \"#utility.yul\":8248:8250   */\n      0x20\n        /* \"#utility.yul\":8243:8246   */\n      dup3\n        /* \"#utility.yul\":8239:8251   */\n      add\n        /* \"#utility.yul\":8232:8251   */\n      swap1\n      pop\n        /* \"#utility.yul\":7891:8257   */\n      swap2\n      swap1\n      pop\n      jump\t// out\n        /* \"#utility.yul\":8263:8682   */\n    tag_88:\n        /* \"#utility.yul\":8429:8433   */\n      0x00\n        /* \"#utility.yul\":8467:8469   */\n      0x20\n        /* \"#utility.yul\":8456:8465   */\n      dup3\n        /* \"#utility.yul\":8452:8470   */\n      add\n        /* \"#utility.yul\":8444:8470   */\n      swap1\n      pop\n        /* \"#utility.yul\":8516:8525   */\n      dup2\n        /* \"#utility.yul\":8510:8514   */\n      dup2\n        /* \"#utility.yul\":8506:8526   */\n      sub\n        /* \"#utility.yul\":8502:8503   */\n      0x00\n        /* \"#utility.yul\":8491:8500   */\n      dup4\n        /* \"#utility.yul\":8487:8504   */\n      add\n        /* \"#utility.yul\":8480:8527   */\n      mstore\n        /* \"#utility.yul\":8544:8675   */\n      tag_256\n        /* \"#utility.yul\":8670:8674   */\n      dup2\n        /* \"#utility.yul\":8544:8675   */\n      tag_152\n      jump\t// in\n    tag_256:\n        /* \"#utility.yul\":8536:8675   */\n      swap1\n      pop\n        /* \"#utility.yul\":8263:8682   */\n      swap2\n      swap1\n      pop\n      jump\t// out\n        /* \"#utility.yul\":8688:8857   */\n    tag_153:\n        /* \"#utility.yul\":8828:8849   */\n      0x426f756e747920616c7265616479207061696400000000000000000000000000\n        /* \"#utility.yul\":8824:8825   */\n      0x00\n        /* \"#utility.yul\":8816:8822   */\n      dup3\n        /* \"#utility.yul\":8812:8826   */\n      add\n        /* \"#utility.yul\":8805:8850   */\n      mstore\n        /* \"#utility.yul\":8688:8857   */\n      pop\n      jump\t// out\n        /* \"#utility.yul\":8863:9229   */\n    tag_154:\n        /* \"#utility.yul\":9005:9008   */\n      0x00\n        /* \"#utility.yul\":9026:9093   */\n      tag_259\n        /* \"#utility.yul\":9090:9092   */\n      0x13\n        /* \"#utility.yul\":9085:9088   */\n      dup4\n        /* \"#utility.yul\":9026:9093   */\n      tag_144\n      jump\t// in\n    tag_259:\n        /* \"#utility.yul\":9019:9093   */\n      swap2\n      pop\n        /* \"#utility.yul\":9102:9195   */\n      tag_260\n        /* \"#utility.yul\":9191:9194   */\n      dup3\n        /* \"#utility.yul\":9102:9195   */\n      tag_153\n      jump\t// in\n    tag_260:\n        /* \"#utility.yul\":9220:9222   */\n      0x20\n        /* \"#utility.yul\":9215:9218   */\n      dup3\n        /* \"#utility.yul\":9211:9223   */\n      add\n        /* \"#utility.yul\":9204:9223   */\n      swap1\n      pop\n        /* \"#utility.yul\":8863:9229   */\n      swap2\n      swap1\n      pop\n      jump\t// out\n        /* \"#utility.yul\":9235:9654   */\n    tag_91:\n        /* \"#utility.yul\":9401:9405   */\n      0x00\n        /* \"#utility.yul\":9439:9441   */\n      0x20\n        /* \"#utility.yul\":9428:9437   */\n      dup3\n        /* \"#utility.yul\":9424:9442   */\n      add\n        /* \"#utility.yul\":9416:9442   */\n      swap1\n      pop\n        /* \"#utility.yul\":9488:9497   */\n      dup2\n        /* \"#utility.yul\":9482:9486   */\n      dup2\n        /* \"#utility.yul\":9478:9498   */\n      sub\n        /* \"#utility.yul\":9474:9475   */\n      0x00\n        /* \"#utility.yul\":9463:9472   */\n      dup4\n        /* \"#utility.yul\":9459:9476   */\n      add\n        /* \"#utility.yul\":9452:9499   */\n      mstore\n        /* \"#utility.yul\":9516:9647   */\n      tag_262\n        /* \"#utility.yul\":9642:9646   */\n      dup2\n        /* \"#utility.yul\":9516:9647   */\n      tag_154\n      jump\t// in\n    tag_262:\n        /* \"#utility.yul\":9508:9647   */\n      swap1\n      pop\n        /* \"#utility.yul\":9235:9654   */\n      swap2\n      swap1\n      pop\n      jump\t// out\n        /* \"#utility.yul\":9660:9992   */\n    tag_94:\n        /* \"#utility.yul\":9781:9785   */\n      0x00\n        /* \"#utility.yul\":9819:9821   */\n      0x40\n        /* \"#utility.yul\":9808:9817   */\n      dup3\n        /* \"#utility.yul\":9804:9822   */\n      add\n        /* \"#utility.yul\":9796:9822   */\n      swap1\n      pop\n        /* \"#utility.yul\":9832:9903   */\n      tag_264\n        /* \"#utility.yul\":9900:9901   */\n      0x00\n        /* \"#utility.yul\":9889:9898   */\n      dup4\n        /* \"#utility.yul\":9885:9902   */\n      add\n        /* \"#utility.yul\":9876:9882   */\n      dup6\n        /* \"#utility.yul\":9832:9903   */\n      tag_131\n      jump\t// in\n    tag_264:\n        /* \"#utility.yul\":9913:9985   */\n      tag_265\n        /* \"#utility.yul\":9981:9983   */\n      0x20\n        /* \"#utility.yul\":9970:9979   */\n      dup4\n        /* \"#utility.yul\":9966:9984   */\n      add\n        /* \"#utility.yul\":9957:9963   */\n      dup5\n        /* \"#utility.yul\":9913:9985   */\n      tag_136\n      jump\t// in\n    tag_265:\n        /* \"#utility.yul\":9660:9992   */\n      swap4\n      swap3\n      pop\n      pop\n      pop\n      jump\t// out\n        /* \"#utility.yul\":9998:10114   */\n    tag_155:\n        /* \"#utility.yul\":10068:10089   */\n      tag_267\n        /* \"#utility.yul\":10083:10088   */\n      dup2\n        /* \"#utility.yul\":10068:10089   */\n      tag_132\n      jump\t// in\n    tag_267:\n        /* \"#utility.yul\":10061:10066   */\n      dup2\n        /* \"#utility.yul\":10058:10090   */\n      eq\n        /* \"#utility.yul\":10048:10108   */\n      tag_268\n      jumpi\n        /* \"#utility.yul\":10104:10105   */\n      0x00\n        /* \"#utility.yul\":10101:10102   */\n      dup1\n        /* \"#utility.yul\":10094:10106   */\n      revert\n        /* \"#utility.yul\":10048:10108   */\n    tag_268:\n        /* \"#utility.yul\":9998:10114   */\n      pop\n      jump\t// out\n        /* \"#utility.yul\":10120:10257   */\n    tag_156:\n        /* \"#utility.yul\":10174:10179   */\n      0x00\n        /* \"#utility.yul\":10205:10211   */\n      dup2\n        /* \"#utility.yul\":10199:10212   */\n      mload\n        /* \"#utility.yul\":10190:10212   */\n      swap1\n      pop\n        /* \"#utility.yul\":10221:10251   */\n      tag_270\n        /* \"#utility.yul\":10245:10250   */\n      dup2\n        /* \"#utility.yul\":10221:10251   */\n      tag_155\n      jump\t// in\n    tag_270:\n        /* \"#utility.yul\":10120:10257   */\n      swap3\n      swap2\n      pop\n      pop\n      jump\t// out\n        /* \"#utility.yul\":10263:10608   */\n    tag_98:\n        /* \"#utility.yul\":10330:10336   */\n      0x00\n        /* \"#utility.yul\":10379:10381   */\n      0x20\n        /* \"#utility.yul\":10367:10376   */\n      dup3\n        /* \"#utility.yul\":10358:10365   */\n      dup5\n        /* \"#utility.yul\":10354:10377   */\n      sub\n        /* \"#utility.yul\":10350:10382   */\n      slt\n        /* \"#utility.yul\":10347:10466   */\n      iszero\n      tag_272\n      jumpi\n        /* \"#utility.yul\":10385:10464   */\n      tag_273\n      tag_126\n      jump\t// in\n    tag_273:\n        /* \"#utility.yul\":10347:10466   */\n    tag_272:\n        /* \"#utility.yul\":10505:10506   */\n      0x00\n        /* \"#utility.yul\":10530:10591   */\n      tag_274\n        /* \"#utility.yul\":10583:10590   */\n      dup5\n        /* \"#utility.yul\":10574:10580   */\n      dup3\n        /* \"#utility.yul\":10563:10572   */\n      dup6\n        /* \"#utility.yul\":10559:10581   */\n      add\n        /* \"#utility.yul\":10530:10591   */\n      tag_156\n      jump\t// in\n    tag_274:\n        /* \"#utility.yul\":10520:10591   */\n      swap2\n      pop\n        /* \"#utility.yul\":10476:10601   */\n      pop\n        /* \"#utility.yul\":10263:10608   */\n      swap3\n      swap2\n      pop\n      pop\n      jump\t// out\n        /* \"#utility.yul\":10614:10790   */\n    tag_157:\n        /* \"#utility.yul\":10754:10782   */\n      0x4e6f7420617070726f7665642062792076616c696461746f7273000000000000\n        /* \"#utility.yul\":10750:10751   */\n      0x00\n        /* \"#utility.yul\":10742:10748   */\n      dup3\n        /* \"#utility.yul\":10738:10752   */\n      add\n        /* \"#utility.yul\":10731:10783   */\n      mstore\n        /* \"#utility.yul\":10614:10790   */\n      pop\n      jump\t// out\n        /* \"#utility.yul\":10796:11162   */\n    tag_158:\n        /* \"#utility.yul\":10938:10941   */\n      0x00\n        /* \"#utility.yul\":10959:11026   */\n      tag_277\n        /* \"#utility.yul\":11023:11025   */\n      0x1a\n        /* \"#utility.yul\":11018:11021   */\n      dup4\n        /* \"#utility.yul\":10959:11026   */\n      tag_144\n      jump\t// in\n    tag_277:\n        /* \"#utility.yul\":10952:11026   */\n      swap2\n      pop\n        /* \"#utility.yul\":11035:11128   */\n      tag_278\n        /* \"#utility.yul\":11124:11127   */\n      dup3\n        /* \"#utility.yul\":11035:11128   */\n      tag_157\n      jump\t// in\n    tag_278:\n        /* \"#utility.yul\":11153:11155   */\n      0x20\n        /* \"#utility.yul\":11148:11151   */\n      dup3\n        /* \"#utility.yul\":11144:11156   */\n      add\n        /* \"#utility.yul\":11137:11156   */\n      swap1\n      pop\n        /* \"#utility.yul\":10796:11162   */\n      swap2\n      swap1\n      pop\n      jump\t// out\n        /* \"#utility.yul\":11168:11587   */\n    tag_101:\n        /* \"#utility.yul\":11334:11338   */\n      0x00\n        /* \"#utility.yul\":11372:11374   */\n      0x20\n        /* \"#utility.yul\":11361:11370   */\n      dup3\n        /* \"#utility.yul\":11357:11375   */\n      add\n        /* \"#utility.yul\":11349:11375   */\n      swap1\n      pop\n        /* \"#utility.yul\":11421:11430   */\n      dup2\n        /* \"#utility.yul\":11415:11419   */\n      dup2\n        /* \"#utility.yul\":11411:11431   */\n      sub\n        /* \"#utility.yul\":11407:11408   */\n      0x00\n        /* \"#utility.yul\":11396:11405   */\n      dup4\n        /* \"#utility.yul\":11392:11409   */\n      add\n        /* \"#utility.yul\":11385:11432   */\n      mstore\n        /* \"#utility.yul\":11449:11580   */\n      tag_280\n        /* \"#utility.yul\":11575:11579   */\n      dup2\n        /* \"#utility.yul\":11449:11580   */\n      tag_158\n      jump\t// in\n    tag_280:\n        /* \"#utility.yul\":11441:11580   */\n      swap1\n      pop\n        /* \"#utility.yul\":11168:11587   */\n      swap2\n      swap1\n      pop\n      jump\t// out\n        /* \"#utility.yul\":11593:11756   */\n    tag_159:\n        /* \"#utility.yul\":11733:11748   */\n      0x436c61696d206578706972656400000000000000000000000000000000000000\n        /* \"#utility.yul\":11729:11730   */\n      0x00\n        /* \"#utility.yul\":11721:11727   */\n      dup3\n        /* \"#utility.yul\":11717:11731   */\n      add\n        /* \"#utility.yul\":11710:11749   */\n      mstore\n        /* \"#utility.yul\":11593:11756   */\n      pop\n      jump\t// out\n        /* \"#utility.yul\":11762:12128   */\n    tag_160:\n        /* \"#utility.yul\":11904:11907   */\n      0x00\n        /* \"#utility.yul\":11925:11992   */\n      tag_283\n        /* \"#utility.yul\":11989:11991   */\n      0x0d\n        /* \"#utility.yul\":11984:11987   */\n      dup4\n        /* \"#utility.yul\":11925:11992   */\n      tag_144\n      jump\t// in\n    tag_283:\n        /* \"#utility.yul\":11918:11992   */\n      swap2\n      pop\n        /* \"#utility.yul\":12001:12094   */\n      tag_284\n        /* \"#utility.yul\":12090:12093   */\n      dup3\n        /* \"#utility.yul\":12001:12094   */\n      tag_159\n      jump\t// in\n    tag_284:\n        /* \"#utility.yul\":12119:12121   */\n      0x20\n        /* \"#utility.yul\":12114:12117   */\n      dup3\n        /* \"#utility.yul\":12110:12122   */\n      add\n        /* \"#utility.yul\":12103:12122   */\n      swap1\n      pop\n        /* \"#utility.yul\":11762:12128   */\n      swap2\n      swap1\n      pop\n      jump\t// out\n        /* \"#utility.yul\":12134:12553   */\n    tag_105:\n        /* \"#utility.yul\":12300:12304   */\n      0x00\n        /* \"#utility.yul\":12338:12340   */\n      0x20\n        /* \"#utility.yul\":12327:12336   */\n      dup3\n        /* \"#utility.yul\":12323:12341   */\n      add\n        /* \"#utility.yul\":12315:12341   */\n      swap1\n      pop\n        /* \"#utility.yul\":12387:12396   */\n      dup2\n        /* \"#utility.yul\":12381:12385   */\n      dup2\n        /* \"#utility.yul\":12377:12397   */\n      sub\n        /* \"#utility.yul\":12373:12374   */\n      0x00\n        /* \"#utility.yul\":12362:12371   */\n      dup4\n        /* \"#utility.yul\":12358:12375   */\n      add\n        /* \"#utility.yul\":12351:12398   */\n      mstore\n        /* \"#utility.yul\":12415:12546   */\n      tag_286\n        /* \"#utility.yul\":12541:12545   */\n      dup2\n        /* \"#utility.yul\":12415:12546   */\n      tag_160\n      jump\t// in\n    tag_286:\n        /* \"#utility.yul\":12407:12546   */\n      swap1\n      pop\n        /* \"#utility.yul\":12134:12553   */\n      swap2\n      swap1\n      pop\n      jump\t// out\n        /* \"#utility.yul\":12559:12706   */\n    tag_161:\n        /* \"#utility.yul\":12660:12671   */\n      0x00\n        /* \"#utility.yul\":12697:12700   */\n      dup2\n        /* \"#utility.yul\":12682:12700   */\n      swap1\n      pop\n        /* \"#utility.yul\":12559:12706   */\n      swap3\n      swap2\n      pop\n      pop\n      jump\t// out\n        /* \"#utility.yul\":12712:12826   */\n    tag_162:\n      pop\n      jump\t// out\n        /* \"#utility.yul\":12832:13230   */\n    tag_163:\n        /* \"#utility.yul\":12991:12994   */\n      0x00\n        /* \"#utility.yul\":13012:13095   */\n      tag_290\n        /* \"#utility.yul\":13093:13094   */\n      0x00\n        /* \"#utility.yul\":13088:13091   */\n      dup4\n        /* \"#utility.yul\":13012:13095   */\n      tag_161\n      jump\t// in\n    tag_290:\n        /* \"#utility.yul\":13005:13095   */\n      swap2\n      pop\n        /* \"#utility.yul\":13104:13197   */\n      tag_291\n        /* \"#utility.yul\":13193:13196   */\n      dup3\n        /* \"#utility.yul\":13104:13197   */\n      tag_162\n      jump\t// in\n    tag_291:\n        /* \"#utility.yul\":13222:13223   */\n      0x00\n        /* \"#utility.yul\":13217:13220   */\n      dup3\n        /* \"#utility.yul\":13213:13224   */\n      add\n        /* \"#utility.yul\":13206:13224   */\n      swap1\n      pop\n        /* \"#utility.yul\":12832:13230   */\n      swap2\n      swap1\n      pop\n      jump\t// out\n        /* \"#utility.yul\":13236:13615   */\n    tag_107:\n        /* \"#utility.yul\":13420:13423   */\n      0x00\n        /* \"#utility.yul\":13442:13589   */\n      tag_293\n        /* \"#utility.yul\":13585:13588   */\n      dup3\n        /* \"#utility.yul\":13442:13589   */\n      tag_163\n      jump\t// in\n    tag_293:\n        /* \"#utility.yul\":13435:13589   */\n      swap2\n      pop\n        /* \"#utility.yul\":13606:13609   */\n      dup2\n        /* \"#utility.yul\":13599:13609   */\n      swap1\n      pop\n        /* \"#utility.yul\":13236:13615   */\n      swap2\n      swap1\n      pop\n      jump\t// out\n        /* \"#utility.yul\":13621:13786   */\n    tag_164:\n        /* \"#utility.yul\":13761:13778   */\n      0x5472616e73666572206661696c65640000000000000000000000000000000000\n        /* \"#utility.yul\":13757:13758   */\n      0x00\n        /* \"#utility.yul\":13749:13755   */\n      dup3\n        /* \"#utility.yul\":13745:13759   */\n      add\n        /* \"#utility.yul\":13738:13779   */\n      mstore\n        /* \"#utility.yul\":13621:13786   */\n      pop\n      jump\t// out\n        /* \"#utility.yul\":13792:14158   */\n    tag_165:\n        /* \"#utility.yul\":13934:13937   */\n      0x00\n        /* \"#utility.yul\":13955:14022   */\n      tag_296\n        /* \"#utility.yul\":14019:14021   */\n      0x0f\n        /* \"#utility.yul\":14014:14017   */\n      dup4\n        /* \"#utility.yul\":13955:14022   */\n      tag_144\n      jump\t// in\n    tag_296:\n        /* \"#utility.yul\":13948:14022   */\n      swap2\n      pop\n        /* \"#utility.yul\":14031:14124   */\n      tag_297\n        /* \"#utility.yul\":14120:14123   */\n      dup3\n        /* \"#utility.yul\":14031:14124   */\n      tag_164\n      jump\t// in\n    tag_297:\n        /* \"#utility.yul\":14149:14151   */\n      0x20\n        /* \"#utility.yul\":14144:14147   */\n      dup3\n        /* \"#utility.yul\":14140:14152   */\n      add\n        /* \"#utility.yul\":14133:14152   */\n      swap1\n      pop\n        /* \"#utility.yul\":13792:14158   */\n      swap2\n      swap1\n      pop\n      jump\t// out\n        /* \"#utility.yul\":14164:14583   */\n    tag_113:\n        /* \"#utility.yul\":14330:14334   */\n      0x00\n        /* \"#utility.yul\":14368:14370   */\n      0x20\n        /* \"#utility.yul\":14357:14366   */\n      dup3\n        /* \"#utility.yul\":14353:14371   */\n      add\n        /* \"#utility.yul\":14345:14371   */\n      swap1\n      pop\n        /* \"#utility.yul\":14417:14426   */\n      dup2\n        /* \"#utility.yul\":14411:14415   */\n      dup2\n        /* \"#utility.yul\":14407:14427   */\n      sub\n        /* \"#utility.yul\":14403:14404   */\n      0x00\n        /* \"#utility.yul\":14392:14401   */\n      dup4\n        /* \"#utility.yul\":14388:14405   */\n      add\n        /* \"#utility.yul\":14381:14428   */\n      mstore\n        /* \"#utility.yul\":14445:14576   */\n      tag_299\n        /* \"#utility.yul\":14571:14575   */\n      dup2\n        /* \"#utility.yul\":14445:14576   */\n      tag_165\n      jump\t// in\n    tag_299:\n        /* \"#utility.yul\":14437:14576   */\n      swap1\n      pop\n        /* \"#utility.yul\":14164:14583   */\n      swap2\n      swap1\n      pop\n      jump\t// out\n        /* \"#utility.yul\":14589:14758   */\n    tag_166:\n        /* \"#utility.yul\":14729:14750   */\n      0x496e76616c696420636c61696d20737461746500000000000000000000000000\n        /* \"#utility.yul\":14725:14726   */\n      0x00\n        /* \"#utility.yul\":14717:14723   */\n      dup3\n        /* \"#utility.yul\":14713:14727   */\n      add\n        /* \"#utility.yul\":14706:14751   */\n      mstore\n        /* \"#utility.yul\":14589:14758   */\n      pop\n      jump\t// out\n        /* \"#utility.yul\":14764:15130   */\n    tag_167:\n        /* \"#utility.yul\":14906:14909   */\n      0x00\n        /* \"#utility.yul\":14927:14994   */\n      tag_302\n        /* \"#utility.yul\":14991:14993   */\n      0x13\n        /* \"#utility.yul\":14986:14989   */\n      dup4\n        /* \"#utility.yul\":14927:14994   */\n      tag_144\n      jump\t// in\n    tag_302:\n        /* \"#utility.yul\":14920:14994   */\n      swap2\n      pop\n        /* \"#utility.yul\":15003:15096   */\n      tag_303\n        /* \"#utility.yul\":15092:15095   */\n      dup3\n        /* \"#utility.yul\":15003:15096   */\n      tag_166\n      jump\t// in\n    tag_303:\n        /* \"#utility.yul\":15121:15123   */\n      0x20\n        /* \"#utility.yul\":15116:15119   */\n      dup3\n        /* \"#utility.yul\":15112:15124   */\n      add\n        /* \"#utility.yul\":15105:15124   */\n      swap1\n      pop\n        /* \"#utility.yul\":14764:15130   */\n      swap2\n      swap1\n      pop\n      jump\t// out\n        /* \"#utility.yul\":15136:15555   */\n    tag_119:\n        /* \"#utility.yul\":15302:15306   */\n      0x00\n        /* \"#utility.yul\":15340:15342   */\n      0x20\n        /* \"#utility.yul\":15329:15338   */\n      dup3\n        /* \"#utility.yul\":15325:15343   */\n      add\n        /* \"#utility.yul\":15317:15343   */\n      swap1\n      pop\n        /* \"#utility.yul\":15389:15398   */\n      dup2\n        /* \"#utility.yul\":15383:15387   */\n      dup2\n        /* \"#utility.yul\":15379:15399   */\n      sub\n        /* \"#utility.yul\":15375:15376   */\n      0x00\n        /* \"#utility.yul\":15364:15373   */\n      dup4\n        /* \"#utility.yul\":15360:15377   */\n      add\n        /* \"#utility.yul\":15353:15400   */\n      mstore\n        /* \"#utility.yul\":15417:15548   */\n      tag_305\n        /* \"#utility.yul\":15543:15547   */\n      dup2\n        /* \"#utility.yul\":15417:15548   */\n      tag_167\n      jump\t// in\n    tag_305:\n        /* \"#utility.yul\":15409:15548   */\n      swap1\n      pop\n        /* \"#utility.yul\":15136:15555   */\n      swap2\n      swap1\n      pop\n      jump\t// out\n        /* \"#utility.yul\":15561:15735   */\n    tag_168:\n        /* \"#utility.yul\":15701:15727   */\n      0x4e6f7420617574686f72697a656420746f2063616e63656c0000000000000000\n        /* \"#utility.yul\":15697:15698   */\n      0x00\n        /* \"#utility.yul\":15689:15695   */\n      dup3\n        /* \"#utility.yul\":15685:15699   */\n      add\n        /* \"#utility.yul\":15678:15728   */\n      mstore\n        /* \"#utility.yul\":15561:15735   */\n      pop\n      jump\t// out\n        /* \"#utility.yul\":15741:16107   */\n    tag_169:\n        /* \"#utility.yul\":15883:15886   */\n      0x00\n        /* \"#utility.yul\":15904:15971   */\n      tag_308\n        /* \"#utility.yul\":15968:15970   */\n      0x18\n        /* \"#utility.yul\":15963:15966   */\n      dup4\n        /* \"#utility.yul\":15904:15971   */\n      tag_144\n      jump\t// in\n    tag_308:\n        /* \"#utility.yul\":15897:15971   */\n      swap2\n      pop\n        /* \"#utility.yul\":15980:16073   */\n      tag_309\n        /* \"#utility.yul\":16069:16072   */\n      dup3\n        /* \"#utility.yul\":15980:16073   */\n      tag_168\n      jump\t// in\n    tag_309:\n        /* \"#utility.yul\":16098:16100   */\n      0x20\n        /* \"#utility.yul\":16093:16096   */\n      dup3\n        /* \"#utility.yul\":16089:16101   */\n      add\n        /* \"#utility.yul\":16082:16101   */\n      swap1\n      pop\n        /* \"#utility.yul\":15741:16107   */\n      swap2\n      swap1\n      pop\n      jump\t// out\n        /* \"#utility.yul\":16113:16532   */\n    tag_124:\n        /* \"#utility.yul\":16279:16283   */\n      0x00\n        /* \"#utility.yul\":16317:16319   */\n      0x20\n        /* \"#utility.yul\":16306:16315   */\n      dup3\n        /* \"#utility.yul\":16302:16320   */\n      add\n        /* \"#utility.yul\":16294:16320   */\n      swap1\n      pop\n        /* \"#utility.yul\":16366:16375   */\n      dup2\n        /* \"#utility.yul\":16360:16364   */\n      dup2\n        /* \"#utility.yul\":16356:16376   */\n      sub\n        /* \"#utility.yul\":16352:16353   */\n      0x00\n        /* \"#utility.yul\":16341:16350   */\n      dup4\n        /* \"#utility.yul\":16337:16354   */\n      add\n        /* \"#utility.yul\":16330:16377   */\n      mstore\n        /* \"#utility.yul\":16394:16525   */\n      tag_311\n        /* \"#utility.yul\":16520:16524   */\n      dup2\n        /* \"#utility.yul\":16394:16525   */\n      tag_169\n      jump\t// in\n    tag_311:\n        /* \"#utility.yul\":16386:16525   */\n      swap1\n      pop\n        /* \"#utility.yul\":16113:16532   */\n      swap2\n      swap1\n      pop\n      jump\t// out\n\n    auxdata: 0xa26469706673582212202b74040651a770691929175f9100a32695f691ab8078843cec02ab4f1e2004a764736f6c634300081a0033\n}\n",
				"bytecode": {
					"linkReferences": {},
					"object": "60c060405234801561000f575f80fd5b506040516116cc3803806116cc833981810160405281019061003191906101da565b5f73ffffffffffffffffffffffffffffffffffffffff168273ffffffffffffffffffffffffffffffffffffffff160361009f576040517f08c379a000000000000000000000000000000000000000000000000000000000815260040161009690610272565b60405180910390fd5b5f73ffffffffffffffffffffffffffffffffffffffff168173ffffffffffffffffffffffffffffffffffffffff160361010d576040517f08c379a0000000000000000000000000000000000000000000000000000000008152600401610104906102da565b60405180910390fd5b8173ffffffffffffffffffffffffffffffffffffffff1660808173ffffffffffffffffffffffffffffffffffffffff16815250508073ffffffffffffffffffffffffffffffffffffffff1660a08173ffffffffffffffffffffffffffffffffffffffff168152505050506102f8565b5f80fd5b5f73ffffffffffffffffffffffffffffffffffffffff82169050919050565b5f6101a982610180565b9050919050565b6101b98161019f565b81146101c3575f80fd5b50565b5f815190506101d4816101b0565b92915050565b5f80604083850312156101f0576101ef61017c565b5b5f6101fd858286016101c6565b925050602061020e858286016101c6565b9150509250929050565b5f82825260208201905092915050565b7f496e76616c69642066756e64206d616e616765722061646472657373000000005f82015250565b5f61025c601c83610218565b915061026782610228565b602082019050919050565b5f6020820190508181035f83015261028981610250565b9050919050565b7f496e76616c69642076616c696461746f722061646472657373000000000000005f82015250565b5f6102c4601983610218565b91506102cf82610290565b602082019050919050565b5f6020820190508181035f8301526102f1816102b8565b9050919050565b60805160a0516113a56103275f395f81816106cd0152610c1101525f8181610362015261057a01526113a55ff3fe608060405260043610610094575f3560e01c806389ee68bf1161005857806389ee68bf146101a75780639dc5e02f146101cf578063a888c2cd146101f7578063f1e2de1414610236578063f5f5dd41146102605761009b565b806311af4e7a1461009f57806336dbd2f9146100db57806344021ad7146101195780636209ec2d146101415780638959c0061461016b5761009b565b3661009b57005b5f80fd5b3480156100aa575f80fd5b506100c560048036038101906100c09190610c71565b61028a565b6040516100d29190610cab565b60405180910390f35b3480156100e6575f80fd5b5061010160048036038101906100fc9190610c71565b61029f565b60405161011093929190610d1d565b60405180910390f35b348015610124575f80fd5b5061013f600480360381019061013a9190610c71565b6102fd565b005b34801561014c575f80fd5b50610155610578565b6040516101629190610dad565b60405180910390f35b348015610176575f80fd5b50610191600480360381019061018c9190610c71565b61059c565b60405161019e9190610dc6565b60405180910390f35b3480156101b2575f80fd5b506101cd60048036038101906101c89190610c71565b6105f4565b005b3480156101da575f80fd5b506101f560048036038101906101f09190610c71565b61098e565b005b348015610202575f80fd5b5061021d60048036038101906102189190610c71565b610bab565b60405161022d9493929190610ddf565b60405180910390f35b348015610241575f80fd5b5061024a610c0f565b6040516102579190610e42565b60405180910390f35b34801561026b575f80fd5b50610274610c33565b6040516102819190610cab565b60405180910390f35b6002602052805f5260405f205f915090505481565b5f805f8060015f8681526020019081526020015f209050806002015f9054906101000a900460ff16815f015f9054906101000a900473ffffffffffffffffffffffffffffffffffffffff168260010154935093509350509193909250565b8060015f8281526020019081526020015f206002015f9054906101000a900460ff161561035f576040517f08c379a000000000000000000000000000000000000000000000000000000000815260040161035690610eb5565b60405180910390fd5b5f7f000000000000000000000000000000000000000000000000000000000000000073ffffffffffffffffffffffffffffffffffffffff1663454fa1b1846040518263ffffffff1660e01b81526004016103b99190610cab565b602060405180830381865afa1580156103d4573d5f803e3d5ffd5b505050506040513d601f19601f820116820180604052508101906103f89190610ee7565b90505f811161043c576040517f08c379a000000000000000000000000000000000000000000000000000000000815260040161043390610f5c565b60405180910390fd5b60405180608001604052803373ffffffffffffffffffffffffffffffffffffffff1681526020018281526020016001151581526020015f151581525060015f8581526020019081526020015f205f820151815f015f6101000a81548173ffffffffffffffffffffffffffffffffffffffff021916908373ffffffffffffffffffffffffffffffffffffffff160217905550602082015181600101556040820151816002015f6101000a81548160ff02191690831515021790555060608201518160020160016101000a81548160ff0219169083151502179055509050504260025f8581526020019081526020015f20819055503373ffffffffffffffffffffffffffffffffffffffff16837fbf59c0d059a57ebf273b4b1643599fc4b48cf5effdd82113a740ed64d262ec9360405160405180910390a3505050565b7f000000000000000000000000000000000000000000000000000000000000000081565b5f60015f8381526020019081526020015f206002015f9054906101000a900460ff166105ca575f90506105ef565b62093a8060025f8481526020019081526020015f20546105ea9190610fa7565b421190505b919050565b8060015f8281526020019081526020015f206002015f9054906101000a900460ff16610655576040517f08c379a000000000000000000000000000000000000000000000000000000000815260040161064c90611024565b60405180910390fd5b60015f8281526020019081526020015f2060020160019054906101000a900460ff16156106b7576040517f08c379a00000000000000000000000000000000000000000000000000000000081526004016106ae9061108c565b60405180910390fd5b5f60015f8481526020019081526020015f2090507f000000000000000000000000000000000000000000000000000000000000000073ffffffffffffffffffffffffffffffffffffffff166356c3163784835f015f9054906101000a900473ffffffffffffffffffffffffffffffffffffffff166040518363ffffffff1660e01b81526004016107489291906110aa565b602060405180830381865afa158015610763573d5f803e3d5ffd5b505050506040513d601f19601f8201168201806040525081019061078791906110fb565b6107c6576040517f08c379a00000000000000000000000000000000000000000000000000000000081526004016107bd90611170565b60405180910390fd5b62093a8060025f8581526020019081526020015f20546107e69190610fa7565b421115610828576040517f08c379a000000000000000000000000000000000000000000000000000000000815260040161081f906111d8565b60405180910390fd5b60018160020160016101000a81548160ff0219169083151502179055505f815f015f9054906101000a900473ffffffffffffffffffffffffffffffffffffffff1673ffffffffffffffffffffffffffffffffffffffff16826001015460405161089090611223565b5f6040518083038185875af1925050503d805f81146108ca576040519150601f19603f3d011682016040523d82523d5f602084013e6108cf565b606091505b5050905080610913576040517f08c379a000000000000000000000000000000000000000000000000000000000815260040161090a90611281565b60405180910390fd5b815f015f9054906101000a900473ffffffffffffffffffffffffffffffffffffffff1673ffffffffffffffffffffffffffffffffffffffff16847fdc699d0c4948c96a3265f3c8997ad793f263f495e1809c0e2a2926c4da7fc79784600101546040516109809190610cab565b60405180910390a350505050565b5f60015f8381526020019081526020015f209050806002015f9054906101000a900460ff1680156109ce57508060020160019054906101000a900460ff16155b610a0d576040517f08c379a0000000000000000000000000000000000000000000000000000000008152600401610a04906112e9565b60405180910390fd5b805f015f9054906101000a900473ffffffffffffffffffffffffffffffffffffffff1673ffffffffffffffffffffffffffffffffffffffff163373ffffffffffffffffffffffffffffffffffffffff161480610a87575062093a8060025f8481526020019081526020015f2054610a849190610fa7565b42115b610ac6576040517f08c379a0000000000000000000000000000000000000000000000000000000008152600401610abd90611351565b60405180910390fd5b60015f8381526020019081526020015f205f8082015f6101000a81549073ffffffffffffffffffffffffffffffffffffffff0219169055600182015f9055600282015f6101000a81549060ff02191690556002820160016101000a81549060ff0219169055505060025f8381526020019081526020015f205f9055805f015f9054906101000a900473ffffffffffffffffffffffffffffffffffffffff1673ffffffffffffffffffffffffffffffffffffffff16827fb07c35948b3aa55af6baed77379d187e78a6e78bbe61fc2fe299f400607c441f60405160405180910390a35050565b6001602052805f5260405f205f91509050805f015f9054906101000a900473ffffffffffffffffffffffffffffffffffffffff1690806001015490806002015f9054906101000a900460ff16908060020160019054906101000a900460ff16905084565b7f000000000000000000000000000000000000000000000000000000000000000081565b62093a8081565b5f80fd5b5f819050919050565b610c5081610c3e565b8114610c5a575f80fd5b50565b5f81359050610c6b81610c47565b92915050565b5f60208284031215610c8657610c85610c3a565b5b5f610c9384828501610c5d565b91505092915050565b610ca581610c3e565b82525050565b5f602082019050610cbe5f830184610c9c565b92915050565b5f8115159050919050565b610cd881610cc4565b82525050565b5f73ffffffffffffffffffffffffffffffffffffffff82169050919050565b5f610d0782610cde565b9050919050565b610d1781610cfd565b82525050565b5f606082019050610d305f830186610ccf565b610d3d6020830185610d0e565b610d4a6040830184610c9c565b949350505050565b5f819050919050565b5f610d75610d70610d6b84610cde565b610d52565b610cde565b9050919050565b5f610d8682610d5b565b9050919050565b5f610d9782610d7c565b9050919050565b610da781610d8d565b82525050565b5f602082019050610dc05f830184610d9e565b92915050565b5f602082019050610dd95f830184610ccf565b92915050565b5f608082019050610df25f830187610d0e565b610dff6020830186610c9c565b610e0c6040830185610ccf565b610e196060830184610ccf565b95945050505050565b5f610e2c82610d7c565b9050919050565b610e3c81610e22565b82525050565b5f602082019050610e555f830184610e33565b92915050565b5f82825260208201905092915050565b7f497373756520616c726561647920636c61696d656400000000000000000000005f82015250565b5f610e9f601583610e5b565b9150610eaa82610e6b565b602082019050919050565b5f6020820190508181035f830152610ecc81610e93565b9050919050565b5f81519050610ee181610c47565b92915050565b5f60208284031215610efc57610efb610c3a565b5b5f610f0984828501610ed3565b91505092915050565b7f4e6f20626f756e747920666f72207468697320697373756500000000000000005f82015250565b5f610f46601883610e5b565b9150610f5182610f12565b602082019050919050565b5f6020820190508181035f830152610f7381610f3a565b9050919050565b7f4e487b71000000000000000000000000000000000000000000000000000000005f52601160045260245ffd5b5f610fb182610c3e565b9150610fbc83610c3e565b9250828201905080821115610fd457610fd3610f7a565b5b92915050565b7f4973737565206e6f7420636c61696d65640000000000000000000000000000005f82015250565b5f61100e601183610e5b565b915061101982610fda565b602082019050919050565b5f6020820190508181035f83015261103b81611002565b9050919050565b7f426f756e747920616c72656164792070616964000000000000000000000000005f82015250565b5f611076601383610e5b565b915061108182611042565b602082019050919050565b5f6020820190508181035f8301526110a38161106a565b9050919050565b5f6040820190506110bd5f830185610c9c565b6110ca6020830184610d0e565b9392505050565b6110da81610cc4565b81146110e4575f80fd5b50565b5f815190506110f5816110d1565b92915050565b5f602082840312156111105761110f610c3a565b5b5f61111d848285016110e7565b91505092915050565b7f4e6f7420617070726f7665642062792076616c696461746f72730000000000005f82015250565b5f61115a601a83610e5b565b915061116582611126565b602082019050919050565b5f6020820190508181035f8301526111878161114e565b9050919050565b7f436c61696d2065787069726564000000000000000000000000000000000000005f82015250565b5f6111c2600d83610e5b565b91506111cd8261118e565b602082019050919050565b5f6020820190508181035f8301526111ef816111b6565b9050919050565b5f81905092915050565b50565b5f61120e5f836111f6565b915061121982611200565b5f82019050919050565b5f61122d82611203565b9150819050919050565b7f5472616e73666572206661696c656400000000000000000000000000000000005f82015250565b5f61126b600f83610e5b565b915061127682611237565b602082019050919050565b5f6020820190508181035f8301526112988161125f565b9050919050565b7f496e76616c696420636c61696d207374617465000000000000000000000000005f82015250565b5f6112d3601383610e5b565b91506112de8261129f565b602082019050919050565b5f6020820190508181035f830152611300816112c7565b9050919050565b7f4e6f7420617574686f72697a656420746f2063616e63656c00000000000000005f82015250565b5f61133b601883610e5b565b915061134682611307565b602082019050919050565b5f6020820190508181035f8301526113688161132f565b905091905056fea26469706673582212202b74040651a770691929175f9100a32695f691ab8078843cec02ab4f1e2004a764736f6c634300081a0033",
					"opcodes": "PUSH1 0xC0 PUSH1 0x40 MSTORE CALLVALUE DUP1 ISZERO PUSH2 0xF JUMPI PUSH0 DUP1 REVERT JUMPDEST POP PUSH1 0x40 MLOAD PUSH2 0x16CC CODESIZE SUB DUP1 PUSH2 0x16CC DUP4 CODECOPY DUP2 DUP2 ADD PUSH1 0x40 MSTORE DUP2 ADD SWAP1 PUSH2 0x31 SWAP2 SWAP1 PUSH2 0x1DA JUMP JUMPDEST PUSH0 PUSH20 0xFFFFFFFFFFFFFFFFFFFFFFFFFFFFFFFFFFFFFFFF AND DUP3 PUSH20 0xFFFFFFFFFFFFFFFFFFFFFFFFFFFFFFFFFFFFFFFF AND SUB PUSH2 0x9F JUMPI PUSH1 0x40 MLOAD PUSH32 0x8C379A000000000000000000000000000000000000000000000000000000000 DUP2 MSTORE PUSH1 0x4 ADD PUSH2 0x96 SWAP1 PUSH2 0x272 JUMP JUMPDEST PUSH1 0x40 MLOAD DUP1 SWAP2 SUB SWAP1 REVERT JUMPDEST PUSH0 PUSH20 0xFFFFFFFFFFFFFFFFFFFFFFFFFFFFFFFFFFFFFFFF AND DUP2 PUSH20 0xFFFFFFFFFFFFFFFFFFFFFFFFFFFFFFFFFFFFFFFF AND SUB PUSH2 0x10D JUMPI PUSH1 0x40 MLOAD PUSH32 0x8C379A000000000000000000000000000000000000000000000000000000000 DUP2 MSTORE PUSH1 0x4 ADD PUSH2 0x104 SWAP1 PUSH2 0x2DA JUMP JUMPDEST PUSH1 0x40 MLOAD DUP1 SWAP2 SUB SWAP1 REVERT JUMPDEST DUP2 PUSH20 0xFFFFFFFFFFFFFFFFFFFFFFFFFFFFFFFFFFFFFFFF AND PUSH1 0x80 DUP2 PUSH20 0xFFFFFFFFFFFFFFFFFFFFFFFFFFFFFFFFFFFFFFFF AND DUP2 MSTORE POP POP DUP1 PUSH20 0xFFFFFFFFFFFFFFFFFFFFFFFFFFFFFFFFFFFFFFFF AND PUSH1 0xA0 DUP2 PUSH20 0xFFFFFFFFFFFFFFFFFFFFFFFFFFFFFFFFFFFFFFFF AND DUP2 MSTORE POP POP POP POP PUSH2 0x2F8 JUMP JUMPDEST PUSH0 DUP1 REVERT JUMPDEST PUSH0 PUSH20 0xFFFFFFFFFFFFFFFFFFFFFFFFFFFFFFFFFFFFFFFF DUP3 AND SWAP1 POP SWAP2 SWAP1 POP JUMP JUMPDEST PUSH0 PUSH2 0x1A9 DUP3 PUSH2 0x180 JUMP JUMPDEST SWAP1 POP SWAP2 SWAP1 POP JUMP JUMPDEST PUSH2 0x1B9 DUP2 PUSH2 0x19F JUMP JUMPDEST DUP2 EQ PUSH2 0x1C3 JUMPI PUSH0 DUP1 REVERT JUMPDEST POP JUMP JUMPDEST PUSH0 DUP2 MLOAD SWAP1 POP PUSH2 0x1D4 DUP2 PUSH2 0x1B0 JUMP JUMPDEST SWAP3 SWAP2 POP POP JUMP JUMPDEST PUSH0 DUP1 PUSH1 0x40 DUP4 DUP6 SUB SLT ISZERO PUSH2 0x1F0 JUMPI PUSH2 0x1EF PUSH2 0x17C JUMP JUMPDEST JUMPDEST PUSH0 PUSH2 0x1FD DUP6 DUP3 DUP7 ADD PUSH2 0x1C6 JUMP JUMPDEST SWAP3 POP POP PUSH1 0x20 PUSH2 0x20E DUP6 DUP3 DUP7 ADD PUSH2 0x1C6 JUMP JUMPDEST SWAP2 POP POP SWAP3 POP SWAP3 SWAP1 POP JUMP JUMPDEST PUSH0 DUP3 DUP3 MSTORE PUSH1 0x20 DUP3 ADD SWAP1 POP SWAP3 SWAP2 POP POP JUMP JUMPDEST PUSH32 0x496E76616C69642066756E64206D616E61676572206164647265737300000000 PUSH0 DUP3 ADD MSTORE POP JUMP JUMPDEST PUSH0 PUSH2 0x25C PUSH1 0x1C DUP4 PUSH2 0x218 JUMP JUMPDEST SWAP2 POP PUSH2 0x267 DUP3 PUSH2 0x228 JUMP JUMPDEST PUSH1 0x20 DUP3 ADD SWAP1 POP SWAP2 SWAP1 POP JUMP JUMPDEST PUSH0 PUSH1 0x20 DUP3 ADD SWAP1 POP DUP2 DUP2 SUB PUSH0 DUP4 ADD MSTORE PUSH2 0x289 DUP2 PUSH2 0x250 JUMP JUMPDEST SWAP1 POP SWAP2 SWAP1 POP JUMP JUMPDEST PUSH32 0x496E76616C69642076616C696461746F72206164647265737300000000000000 PUSH0 DUP3 ADD MSTORE POP JUMP JUMPDEST PUSH0 PUSH2 0x2C4 PUSH1 0x19 DUP4 PUSH2 0x218 JUMP JUMPDEST SWAP2 POP PUSH2 0x2CF DUP3 PUSH2 0x290 JUMP JUMPDEST PUSH1 0x20 DUP3 ADD SWAP1 POP SWAP2 SWAP1 POP JUMP JUMPDEST PUSH0 PUSH1 0x20 DUP3 ADD SWAP1 POP DUP2 DUP2 SUB PUSH0 DUP4 ADD MSTORE PUSH2 0x2F1 DUP2 PUSH2 0x2B8 JUMP JUMPDEST SWAP1 POP SWAP2 SWAP1 POP JUMP JUMPDEST PUSH1 0x80 MLOAD PUSH1 0xA0 MLOAD PUSH2 0x13A5 PUSH2 0x327 PUSH0 CODECOPY PUSH0 DUP2 DUP2 PUSH2 0x6CD ADD MSTORE PUSH2 0xC11 ADD MSTORE PUSH0 DUP2 DUP2 PUSH2 0x362 ADD MSTORE PUSH2 0x57A ADD MSTORE PUSH2 0x13A5 PUSH0 RETURN INVALID PUSH1 0x80 PUSH1 0x40 MSTORE PUSH1 0x4 CALLDATASIZE LT PUSH2 0x94 JUMPI PUSH0 CALLDATALOAD PUSH1 0xE0 SHR DUP1 PUSH4 0x89EE68BF GT PUSH2 0x58 JUMPI DUP1 PUSH4 0x89EE68BF EQ PUSH2 0x1A7 JUMPI DUP1 PUSH4 0x9DC5E02F EQ PUSH2 0x1CF JUMPI DUP1 PUSH4 0xA888C2CD EQ PUSH2 0x1F7 JUMPI DUP1 PUSH4 0xF1E2DE14 EQ PUSH2 0x236 JUMPI DUP1 PUSH4 0xF5F5DD41 EQ PUSH2 0x260 JUMPI PUSH2 0x9B JUMP JUMPDEST DUP1 PUSH4 0x11AF4E7A EQ PUSH2 0x9F JUMPI DUP1 PUSH4 0x36DBD2F9 EQ PUSH2 0xDB JUMPI DUP1 PUSH4 0x44021AD7 EQ PUSH2 0x119 JUMPI DUP1 PUSH4 0x6209EC2D EQ PUSH2 0x141 JUMPI DUP1 PUSH4 0x8959C006 EQ PUSH2 0x16B JUMPI PUSH2 0x9B JUMP JUMPDEST CALLDATASIZE PUSH2 0x9B JUMPI STOP JUMPDEST PUSH0 DUP1 REVERT JUMPDEST CALLVALUE DUP1 ISZERO PUSH2 0xAA JUMPI PUSH0 DUP1 REVERT JUMPDEST POP PUSH2 0xC5 PUSH1 0x4 DUP1 CALLDATASIZE SUB DUP2 ADD SWAP1 PUSH2 0xC0 SWAP2 SWAP1 PUSH2 0xC71 JUMP JUMPDEST PUSH2 0x28A JUMP JUMPDEST PUSH1 0x40 MLOAD PUSH2 0xD2 SWAP2 SWAP1 PUSH2 0xCAB JUMP JUMPDEST PUSH1 0x40 MLOAD DUP1 SWAP2 SUB SWAP1 RETURN JUMPDEST CALLVALUE DUP1 ISZERO PUSH2 0xE6 JUMPI PUSH0 DUP1 REVERT JUMPDEST POP PUSH2 0x101 PUSH1 0x4 DUP1 CALLDATASIZE SUB DUP2 ADD SWAP1 PUSH2 0xFC SWAP2 SWAP1 PUSH2 0xC71 JUMP JUMPDEST PUSH2 0x29F JUMP JUMPDEST PUSH1 0x40 MLOAD PUSH2 0x110 SWAP4 SWAP3 SWAP2 SWAP1 PUSH2 0xD1D JUMP JUMPDEST PUSH1 0x40 MLOAD DUP1 SWAP2 SUB SWAP1 RETURN JUMPDEST CALLVALUE DUP1 ISZERO PUSH2 0x124 JUMPI PUSH0 DUP1 REVERT JUMPDEST POP PUSH2 0x13F PUSH1 0x4 DUP1 CALLDATASIZE SUB DUP2 ADD SWAP1 PUSH2 0x13A SWAP2 SWAP1 PUSH2 0xC71 JUMP JUMPDEST PUSH2 0x2FD JUMP JUMPDEST STOP JUMPDEST CALLVALUE DUP1 ISZERO PUSH2 0x14C JUMPI PUSH0 DUP1 REVERT JUMPDEST POP PUSH2 0x155 PUSH2 0x578 JUMP JUMPDEST PUSH1 0x40 MLOAD PUSH2 0x162 SWAP2 SWAP1 PUSH2 0xDAD JUMP JUMPDEST PUSH1 0x40 MLOAD DUP1 SWAP2 SUB SWAP1 RETURN JUMPDEST CALLVALUE DUP1 ISZERO PUSH2 0x176 JUMPI PUSH0 DUP1 REVERT JUMPDEST POP PUSH2 0x191 PUSH1 0x4 DUP1 CALLDATASIZE SUB DUP2 ADD SWAP1 PUSH2 0x18C SWAP2 SWAP1 PUSH2 0xC71 JUMP JUMPDEST PUSH2 0x59C JUMP JUMPDEST PUSH1 0x40 MLOAD PUSH2 0x19E SWAP2 SWAP1 PUSH2 0xDC6 JUMP JUMPDEST PUSH1 0x40 MLOAD DUP1 SWAP2 SUB SWAP1 RETURN JUMPDEST CALLVALUE DUP1 ISZERO PUSH2 0x1B2 JUMPI PUSH0 DUP1 REVERT JUMPDEST POP PUSH2 0x1CD PUSH1 0x4 DUP1 CALLDATASIZE SUB DUP2 ADD SWAP1 PUSH2 0x1C8 SWAP2 SWAP1 PUSH2 0xC71 JUMP JUMPDEST PUSH2 0x5F4 JUMP JUMPDEST STOP JUMPDEST CALLVALUE DUP1 ISZERO PUSH2 0x1DA JUMPI PUSH0 DUP1 REVERT JUMPDEST POP PUSH2 0x1F5 PUSH1 0x4 DUP1 CALLDATASIZE SUB DUP2 ADD SWAP1 PUSH2 0x1F0 SWAP2 SWAP1 PUSH2 0xC71 JUMP JUMPDEST PUSH2 0x98E JUMP JUMPDEST STOP JUMPDEST CALLVALUE DUP1 ISZERO PUSH2 0x202 JUMPI PUSH0 DUP1 REVERT JUMPDEST POP PUSH2 0x21D PUSH1 0x4 DUP1 CALLDATASIZE SUB DUP2 ADD SWAP1 PUSH2 0x218 SWAP2 SWAP1 PUSH2 0xC71 JUMP JUMPDEST PUSH2 0xBAB JUMP JUMPDEST PUSH1 0x40 MLOAD PUSH2 0x22D SWAP5 SWAP4 SWAP3 SWAP2 SWAP1 PUSH2 0xDDF JUMP JUMPDEST PUSH1 0x40 MLOAD DUP1 SWAP2 SUB SWAP1 RETURN JUMPDEST CALLVALUE DUP1 ISZERO PUSH2 0x241 JUMPI PUSH0 DUP1 REVERT JUMPDEST POP PUSH2 0x24A PUSH2 0xC0F JUMP JUMPDEST PUSH1 0x40 MLOAD PUSH2 0x257 SWAP2 SWAP1 PUSH2 0xE42 JUMP JUMPDEST PUSH1 0x40 MLOAD DUP1 SWAP2 SUB SWAP1 RETURN JUMPDEST CALLVALUE DUP1 ISZERO PUSH2 0x26B JUMPI PUSH0 DUP1 REVERT JUMPDEST POP PUSH2 0x274 PUSH2 0xC33 JUMP JUMPDEST PUSH1 0x40 MLOAD PUSH2 0x281 SWAP2 SWAP1 PUSH2 0xCAB JUMP JUMPDEST PUSH1 0x40 MLOAD DUP1 SWAP2 SUB SWAP1 RETURN JUMPDEST PUSH1 0x2 PUSH1 0x20 MSTORE DUP1 PUSH0 MSTORE PUSH1 0x40 PUSH0 KECCAK256 PUSH0 SWAP2 POP SWAP1 POP SLOAD DUP2 JUMP JUMPDEST PUSH0 DUP1 PUSH0 DUP1 PUSH1 0x1 PUSH0 DUP7 DUP2 MSTORE PUSH1 0x20 ADD SWAP1 DUP2 MSTORE PUSH1 0x20 ADD PUSH0 KECCAK256 SWAP1 POP DUP1 PUSH1 0x2 ADD PUSH0 SWAP1 SLOAD SWAP1 PUSH2 0x100 EXP SWAP1 DIV PUSH1 0xFF AND DUP2 PUSH0 ADD PUSH0 SWAP1 SLOAD SWAP1 PUSH2 0x100 EXP SWAP1 DIV PUSH20 0xFFFFFFFFFFFFFFFFFFFFFFFFFFFFFFFFFFFFFFFF AND DUP3 PUSH1 0x1 ADD SLOAD SWAP4 POP SWAP4 POP SWAP4 POP POP SWAP2 SWAP4 SWAP1 SWAP3 POP JUMP JUMPDEST DUP1 PUSH1 0x1 PUSH0 DUP3 DUP2 MSTORE PUSH1 0x20 ADD SWAP1 DUP2 MSTORE PUSH1 0x20 ADD PUSH0 KECCAK256 PUSH1 0x2 ADD PUSH0 SWAP1 SLOAD SWAP1 PUSH2 0x100 EXP SWAP1 DIV PUSH1 0xFF AND ISZERO PUSH2 0x35F JUMPI PUSH1 0x40 MLOAD PUSH32 0x8C379A000000000000000000000000000000000000000000000000000000000 DUP2 MSTORE PUSH1 0x4 ADD PUSH2 0x356 SWAP1 PUSH2 0xEB5 JUMP JUMPDEST PUSH1 0x40 MLOAD DUP1 SWAP2 SUB SWAP1 REVERT JUMPDEST PUSH0 PUSH32 0x0 PUSH20 0xFFFFFFFFFFFFFFFFFFFFFFFFFFFFFFFFFFFFFFFF AND PUSH4 0x454FA1B1 DUP5 PUSH1 0x40 MLOAD DUP3 PUSH4 0xFFFFFFFF AND PUSH1 0xE0 SHL DUP2 MSTORE PUSH1 0x4 ADD PUSH2 0x3B9 SWAP2 SWAP1 PUSH2 0xCAB JUMP JUMPDEST PUSH1 0x20 PUSH1 0x40 MLOAD DUP1 DUP4 SUB DUP2 DUP7 GAS STATICCALL ISZERO DUP1 ISZERO PUSH2 0x3D4 JUMPI RETURNDATASIZE PUSH0 DUP1 RETURNDATACOPY RETURNDATASIZE PUSH0 REVERT JUMPDEST POP POP POP POP PUSH1 0x40 MLOAD RETURNDATASIZE PUSH1 0x1F NOT PUSH1 0x1F DUP3 ADD AND DUP3 ADD DUP1 PUSH1 0x40 MSTORE POP DUP2 ADD SWAP1 PUSH2 0x3F8 SWAP2 SWAP1 PUSH2 0xEE7 JUMP JUMPDEST SWAP1 POP PUSH0 DUP2 GT PUSH2 0x43C JUMPI PUSH1 0x40 MLOAD PUSH32 0x8C379A000000000000000000000000000000000000000000000000000000000 DUP2 MSTORE PUSH1 0x4 ADD PUSH2 0x433 SWAP1 PUSH2 0xF5C JUMP JUMPDEST PUSH1 0x40 MLOAD DUP1 SWAP2 SUB SWAP1 REVERT JUMPDEST PUSH1 0x40 MLOAD DUP1 PUSH1 0x80 ADD PUSH1 0x40 MSTORE DUP1 CALLER PUSH20 0xFFFFFFFFFFFFFFFFFFFFFFFFFFFFFFFFFFFFFFFF AND DUP2 MSTORE PUSH1 0x20 ADD DUP3 DUP2 MSTORE PUSH1 0x20 ADD PUSH1 0x1 ISZERO ISZERO DUP2 MSTORE PUSH1 0x20 ADD PUSH0 ISZERO ISZERO DUP2 MSTORE POP PUSH1 0x1 PUSH0 DUP6 DUP2 MSTORE PUSH1 0x20 ADD SWAP1 DUP2 MSTORE PUSH1 0x20 ADD PUSH0 KECCAK256 PUSH0 DUP3 ADD MLOAD DUP2 PUSH0 ADD PUSH0 PUSH2 0x100 EXP DUP2 SLOAD DUP2 PUSH20 0xFFFFFFFFFFFFFFFFFFFFFFFFFFFFFFFFFFFFFFFF MUL NOT AND SWAP1 DUP4 PUSH20 0xFFFFFFFFFFFFFFFFFFFFFFFFFFFFFFFFFFFFFFFF AND MUL OR SWAP1 SSTORE POP PUSH1 0x20 DUP3 ADD MLOAD DUP2 PUSH1 0x1 ADD SSTORE PUSH1 0x40 DUP3 ADD MLOAD DUP2 PUSH1 0x2 ADD PUSH0 PUSH2 0x100 EXP DUP2 SLOAD DUP2 PUSH1 0xFF MUL NOT AND SWAP1 DUP4 ISZERO ISZERO MUL OR SWAP1 SSTORE POP PUSH1 0x60 DUP3 ADD MLOAD DUP2 PUSH1 0x2 ADD PUSH1 0x1 PUSH2 0x100 EXP DUP2 SLOAD DUP2 PUSH1 0xFF MUL NOT AND SWAP1 DUP4 ISZERO ISZERO MUL OR SWAP1 SSTORE POP SWAP1 POP POP TIMESTAMP PUSH1 0x2 PUSH0 DUP6 DUP2 MSTORE PUSH1 0x20 ADD SWAP1 DUP2 MSTORE PUSH1 0x20 ADD PUSH0 KECCAK256 DUP2 SWAP1 SSTORE POP CALLER PUSH20 0xFFFFFFFFFFFFFFFFFFFFFFFFFFFFFFFFFFFFFFFF AND DUP4 PUSH32 0xBF59C0D059A57EBF273B4B1643599FC4B48CF5EFFDD82113A740ED64D262EC93 PUSH1 0x40 MLOAD PUSH1 0x40 MLOAD DUP1 SWAP2 SUB SWAP1 LOG3 POP POP POP JUMP JUMPDEST PUSH32 0x0 DUP2 JUMP JUMPDEST PUSH0 PUSH1 0x1 PUSH0 DUP4 DUP2 MSTORE PUSH1 0x20 ADD SWAP1 DUP2 MSTORE PUSH1 0x20 ADD PUSH0 KECCAK256 PUSH1 0x2 ADD PUSH0 SWAP1 SLOAD SWAP1 PUSH2 0x100 EXP SWAP1 DIV PUSH1 0xFF AND PUSH2 0x5CA JUMPI PUSH0 SWAP1 POP PUSH2 0x5EF JUMP JUMPDEST PUSH3 0x93A80 PUSH1 0x2 PUSH0 DUP5 DUP2 MSTORE PUSH1 0x20 ADD SWAP1 DUP2 MSTORE PUSH1 0x20 ADD PUSH0 KECCAK256 SLOAD PUSH2 0x5EA SWAP2 SWAP1 PUSH2 0xFA7 JUMP JUMPDEST TIMESTAMP GT SWAP1 POP JUMPDEST SWAP2 SWAP1 POP JUMP JUMPDEST DUP1 PUSH1 0x1 PUSH0 DUP3 DUP2 MSTORE PUSH1 0x20 ADD SWAP1 DUP2 MSTORE PUSH1 0x20 ADD PUSH0 KECCAK256 PUSH1 0x2 ADD PUSH0 SWAP1 SLOAD SWAP1 PUSH2 0x100 EXP SWAP1 DIV PUSH1 0xFF AND PUSH2 0x655 JUMPI PUSH1 0x40 MLOAD PUSH32 0x8C379A000000000000000000000000000000000000000000000000000000000 DUP2 MSTORE PUSH1 0x4 ADD PUSH2 0x64C SWAP1 PUSH2 0x1024 JUMP JUMPDEST PUSH1 0x40 MLOAD DUP1 SWAP2 SUB SWAP1 REVERT JUMPDEST PUSH1 0x1 PUSH0 DUP3 DUP2 MSTORE PUSH1 0x20 ADD SWAP1 DUP2 MSTORE PUSH1 0x20 ADD PUSH0 KECCAK256 PUSH1 0x2 ADD PUSH1 0x1 SWAP1 SLOAD SWAP1 PUSH2 0x100 EXP SWAP1 DIV PUSH1 0xFF AND ISZERO PUSH2 0x6B7 JUMPI PUSH1 0x40 MLOAD PUSH32 0x8C379A000000000000000000000000000000000000000000000000000000000 DUP2 MSTORE PUSH1 0x4 ADD PUSH2 0x6AE SWAP1 PUSH2 0x108C JUMP JUMPDEST PUSH1 0x40 MLOAD DUP1 SWAP2 SUB SWAP1 REVERT JUMPDEST PUSH0 PUSH1 0x1 PUSH0 DUP5 DUP2 MSTORE PUSH1 0x20 ADD SWAP1 DUP2 MSTORE PUSH1 0x20 ADD PUSH0 KECCAK256 SWAP1 POP PUSH32 0x0 PUSH20 0xFFFFFFFFFFFFFFFFFFFFFFFFFFFFFFFFFFFFFFFF AND PUSH4 0x56C31637 DUP5 DUP4 PUSH0 ADD PUSH0 SWAP1 SLOAD SWAP1 PUSH2 0x100 EXP SWAP1 DIV PUSH20 0xFFFFFFFFFFFFFFFFFFFFFFFFFFFFFFFFFFFFFFFF AND PUSH1 0x40 MLOAD DUP4 PUSH4 0xFFFFFFFF AND PUSH1 0xE0 SHL DUP2 MSTORE PUSH1 0x4 ADD PUSH2 0x748 SWAP3 SWAP2 SWAP1 PUSH2 0x10AA JUMP JUMPDEST PUSH1 0x20 PUSH1 0x40 MLOAD DUP1 DUP4 SUB DUP2 DUP7 GAS STATICCALL ISZERO DUP1 ISZERO PUSH2 0x763 JUMPI RETURNDATASIZE PUSH0 DUP1 RETURNDATACOPY RETURNDATASIZE PUSH0 REVERT JUMPDEST POP POP POP POP PUSH1 0x40 MLOAD RETURNDATASIZE PUSH1 0x1F NOT PUSH1 0x1F DUP3 ADD AND DUP3 ADD DUP1 PUSH1 0x40 MSTORE POP DUP2 ADD SWAP1 PUSH2 0x787 SWAP2 SWAP1 PUSH2 0x10FB JUMP JUMPDEST PUSH2 0x7C6 JUMPI PUSH1 0x40 MLOAD PUSH32 0x8C379A000000000000000000000000000000000000000000000000000000000 DUP2 MSTORE PUSH1 0x4 ADD PUSH2 0x7BD SWAP1 PUSH2 0x1170 JUMP JUMPDEST PUSH1 0x40 MLOAD DUP1 SWAP2 SUB SWAP1 REVERT JUMPDEST PUSH3 0x93A80 PUSH1 0x2 PUSH0 DUP6 DUP2 MSTORE PUSH1 0x20 ADD SWAP1 DUP2 MSTORE PUSH1 0x20 ADD PUSH0 KECCAK256 SLOAD PUSH2 0x7E6 SWAP2 SWAP1 PUSH2 0xFA7 JUMP JUMPDEST TIMESTAMP GT ISZERO PUSH2 0x828 JUMPI PUSH1 0x40 MLOAD PUSH32 0x8C379A000000000000000000000000000000000000000000000000000000000 DUP2 MSTORE PUSH1 0x4 ADD PUSH2 0x81F SWAP1 PUSH2 0x11D8 JUMP JUMPDEST PUSH1 0x40 MLOAD DUP1 SWAP2 SUB SWAP1 REVERT JUMPDEST PUSH1 0x1 DUP2 PUSH1 0x2 ADD PUSH1 0x1 PUSH2 0x100 EXP DUP2 SLOAD DUP2 PUSH1 0xFF MUL NOT AND SWAP1 DUP4 ISZERO ISZERO MUL OR SWAP1 SSTORE POP PUSH0 DUP2 PUSH0 ADD PUSH0 SWAP1 SLOAD SWAP1 PUSH2 0x100 EXP SWAP1 DIV PUSH20 0xFFFFFFFFFFFFFFFFFFFFFFFFFFFFFFFFFFFFFFFF AND PUSH20 0xFFFFFFFFFFFFFFFFFFFFFFFFFFFFFFFFFFFFFFFF AND DUP3 PUSH1 0x1 ADD SLOAD PUSH1 0x40 MLOAD PUSH2 0x890 SWAP1 PUSH2 0x1223 JUMP JUMPDEST PUSH0 PUSH1 0x40 MLOAD DUP1 DUP4 SUB DUP2 DUP6 DUP8 GAS CALL SWAP3 POP POP POP RETURNDATASIZE DUP1 PUSH0 DUP2 EQ PUSH2 0x8CA JUMPI PUSH1 0x40 MLOAD SWAP2 POP PUSH1 0x1F NOT PUSH1 0x3F RETURNDATASIZE ADD AND DUP3 ADD PUSH1 0x40 MSTORE RETURNDATASIZE DUP3 MSTORE RETURNDATASIZE PUSH0 PUSH1 0x20 DUP5 ADD RETURNDATACOPY PUSH2 0x8CF JUMP JUMPDEST PUSH1 0x60 SWAP2 POP JUMPDEST POP POP SWAP1 POP DUP1 PUSH2 0x913 JUMPI PUSH1 0x40 MLOAD PUSH32 0x8C379A000000000000000000000000000000000000000000000000000000000 DUP2 MSTORE PUSH1 0x4 ADD PUSH2 0x90A SWAP1 PUSH2 0x1281 JUMP JUMPDEST PUSH1 0x40 MLOAD DUP1 SWAP2 SUB SWAP1 REVERT JUMPDEST DUP2 PUSH0 ADD PUSH0 SWAP1 SLOAD SWAP1 PUSH2 0x100 EXP SWAP1 DIV PUSH20 0xFFFFFFFFFFFFFFFFFFFFFFFFFFFFFFFFFFFFFFFF AND PUSH20 0xFFFFFFFFFFFFFFFFFFFFFFFFFFFFFFFFFFFFFFFF AND DUP5 PUSH32 0xDC699D0C4948C96A3265F3C8997AD793F263F495E1809C0E2A2926C4DA7FC797 DUP5 PUSH1 0x1 ADD SLOAD PUSH1 0x40 MLOAD PUSH2 0x980 SWAP2 SWAP1 PUSH2 0xCAB JUMP JUMPDEST PUSH1 0x40 MLOAD DUP1 SWAP2 SUB SWAP1 LOG3 POP POP POP POP JUMP JUMPDEST PUSH0 PUSH1 0x1 PUSH0 DUP4 DUP2 MSTORE PUSH1 0x20 ADD SWAP1 DUP2 MSTORE PUSH1 0x20 ADD PUSH0 KECCAK256 SWAP1 POP DUP1 PUSH1 0x2 ADD PUSH0 SWAP1 SLOAD SWAP1 PUSH2 0x100 EXP SWAP1 DIV PUSH1 0xFF AND DUP1 ISZERO PUSH2 0x9CE JUMPI POP DUP1 PUSH1 0x2 ADD PUSH1 0x1 SWAP1 SLOAD SWAP1 PUSH2 0x100 EXP SWAP1 DIV PUSH1 0xFF AND ISZERO JUMPDEST PUSH2 0xA0D JUMPI PUSH1 0x40 MLOAD PUSH32 0x8C379A000000000000000000000000000000000000000000000000000000000 DUP2 MSTORE PUSH1 0x4 ADD PUSH2 0xA04 SWAP1 PUSH2 0x12E9 JUMP JUMPDEST PUSH1 0x40 MLOAD DUP1 SWAP2 SUB SWAP1 REVERT JUMPDEST DUP1 PUSH0 ADD PUSH0 SWAP1 SLOAD SWAP1 PUSH2 0x100 EXP SWAP1 DIV PUSH20 0xFFFFFFFFFFFFFFFFFFFFFFFFFFFFFFFFFFFFFFFF AND PUSH20 0xFFFFFFFFFFFFFFFFFFFFFFFFFFFFFFFFFFFFFFFF AND CALLER PUSH20 0xFFFFFFFFFFFFFFFFFFFFFFFFFFFFFFFFFFFFFFFF AND EQ DUP1 PUSH2 0xA87 JUMPI POP PUSH3 0x93A80 PUSH1 0x2 PUSH0 DUP5 DUP2 MSTORE PUSH1 0x20 ADD SWAP1 DUP2 MSTORE PUSH1 0x20 ADD PUSH0 KECCAK256 SLOAD PUSH2 0xA84 SWAP2 SWAP1 PUSH2 0xFA7 JUMP JUMPDEST TIMESTAMP GT JUMPDEST PUSH2 0xAC6 JUMPI PUSH1 0x40 MLOAD PUSH32 0x8C379A000000000000000000000000000000000000000000000000000000000 DUP2 MSTORE PUSH1 0x4 ADD PUSH2 0xABD SWAP1 PUSH2 0x1351 JUMP JUMPDEST PUSH1 0x40 MLOAD DUP1 SWAP2 SUB SWAP1 REVERT JUMPDEST PUSH1 0x1 PUSH0 DUP4 DUP2 MSTORE PUSH1 0x20 ADD SWAP1 DUP2 MSTORE PUSH1 0x20 ADD PUSH0 KECCAK256 PUSH0 DUP1 DUP3 ADD PUSH0 PUSH2 0x100 EXP DUP2 SLOAD SWAP1 PUSH20 0xFFFFFFFFFFFFFFFFFFFFFFFFFFFFFFFFFFFFFFFF MUL NOT AND SWAP1 SSTORE PUSH1 0x1 DUP3 ADD PUSH0 SWAP1 SSTORE PUSH1 0x2 DUP3 ADD PUSH0 PUSH2 0x100 EXP DUP2 SLOAD SWAP1 PUSH1 0xFF MUL NOT AND SWAP1 SSTORE PUSH1 0x2 DUP3 ADD PUSH1 0x1 PUSH2 0x100 EXP DUP2 SLOAD SWAP1 PUSH1 0xFF MUL NOT AND SWAP1 SSTORE POP POP PUSH1 0x2 PUSH0 DUP4 DUP2 MSTORE PUSH1 0x20 ADD SWAP1 DUP2 MSTORE PUSH1 0x20 ADD PUSH0 KECCAK256 PUSH0 SWAP1 SSTORE DUP1 PUSH0 ADD PUSH0 SWAP1 SLOAD SWAP1 PUSH2 0x100 EXP SWAP1 DIV PUSH20 0xFFFFFFFFFFFFFFFFFFFFFFFFFFFFFFFFFFFFFFFF AND PUSH20 0xFFFFFFFFFFFFFFFFFFFFFFFFFFFFFFFFFFFFFFFF AND DUP3 PUSH32 0xB07C35948B3AA55AF6BAED77379D187E78A6E78BBE61FC2FE299F400607C441F PUSH1 0x40 MLOAD PUSH1 0x40 MLOAD DUP1 SWAP2 SUB SWAP1 LOG3 POP POP JUMP JUMPDEST PUSH1 0x1 PUSH1 0x20 MSTORE DUP1 PUSH0 MSTORE PUSH1 0x40 PUSH0 KECCAK256 PUSH0 SWAP2 POP SWAP1 POP DUP1 PUSH0 ADD PUSH0 SWAP1 SLOAD SWAP1 PUSH2 0x100 EXP SWAP1 DIV PUSH20 0xFFFFFFFFFFFFFFFFFFFFFFFFFFFFFFFFFFFFFFFF AND SWAP1 DUP1 PUSH1 0x1 ADD SLOAD SWAP1 DUP1 PUSH1 0x2 ADD PUSH0 SWAP1 SLOAD SWAP1 PUSH2 0x100 EXP SWAP1 DIV PUSH1 0xFF AND SWAP1 DUP1 PUSH1 0x2 ADD PUSH1 0x1 SWAP1 SLOAD SWAP1 PUSH2 0x100 EXP SWAP1 DIV PUSH1 0xFF AND SWAP1 POP DUP5 JUMP JUMPDEST PUSH32 0x0 DUP2 JUMP JUMPDEST PUSH3 0x93A80 DUP2 JUMP JUMPDEST PUSH0 DUP1 REVERT JUMPDEST PUSH0 DUP2 SWAP1 POP SWAP2 SWAP1 POP JUMP JUMPDEST PUSH2 0xC50 DUP2 PUSH2 0xC3E JUMP JUMPDEST DUP2 EQ PUSH2 0xC5A JUMPI PUSH0 DUP1 REVERT JUMPDEST POP JUMP JUMPDEST PUSH0 DUP2 CALLDATALOAD SWAP1 POP PUSH2 0xC6B DUP2 PUSH2 0xC47 JUMP JUMPDEST SWAP3 SWAP2 POP POP JUMP JUMPDEST PUSH0 PUSH1 0x20 DUP3 DUP5 SUB SLT ISZERO PUSH2 0xC86 JUMPI PUSH2 0xC85 PUSH2 0xC3A JUMP JUMPDEST JUMPDEST PUSH0 PUSH2 0xC93 DUP5 DUP3 DUP6 ADD PUSH2 0xC5D JUMP JUMPDEST SWAP2 POP POP SWAP3 SWAP2 POP POP JUMP JUMPDEST PUSH2 0xCA5 DUP2 PUSH2 0xC3E JUMP JUMPDEST DUP3 MSTORE POP POP JUMP JUMPDEST PUSH0 PUSH1 0x20 DUP3 ADD SWAP1 POP PUSH2 0xCBE PUSH0 DUP4 ADD DUP5 PUSH2 0xC9C JUMP JUMPDEST SWAP3 SWAP2 POP POP JUMP JUMPDEST PUSH0 DUP2 ISZERO ISZERO SWAP1 POP SWAP2 SWAP1 POP JUMP JUMPDEST PUSH2 0xCD8 DUP2 PUSH2 0xCC4 JUMP JUMPDEST DUP3 MSTORE POP POP JUMP JUMPDEST PUSH0 PUSH20 0xFFFFFFFFFFFFFFFFFFFFFFFFFFFFFFFFFFFFFFFF DUP3 AND SWAP1 POP SWAP2 SWAP1 POP JUMP JUMPDEST PUSH0 PUSH2 0xD07 DUP3 PUSH2 0xCDE JUMP JUMPDEST SWAP1 POP SWAP2 SWAP1 POP JUMP JUMPDEST PUSH2 0xD17 DUP2 PUSH2 0xCFD JUMP JUMPDEST DUP3 MSTORE POP POP JUMP JUMPDEST PUSH0 PUSH1 0x60 DUP3 ADD SWAP1 POP PUSH2 0xD30 PUSH0 DUP4 ADD DUP7 PUSH2 0xCCF JUMP JUMPDEST PUSH2 0xD3D PUSH1 0x20 DUP4 ADD DUP6 PUSH2 0xD0E JUMP JUMPDEST PUSH2 0xD4A PUSH1 0x40 DUP4 ADD DUP5 PUSH2 0xC9C JUMP JUMPDEST SWAP5 SWAP4 POP POP POP POP JUMP JUMPDEST PUSH0 DUP2 SWAP1 POP SWAP2 SWAP1 POP JUMP JUMPDEST PUSH0 PUSH2 0xD75 PUSH2 0xD70 PUSH2 0xD6B DUP5 PUSH2 0xCDE JUMP JUMPDEST PUSH2 0xD52 JUMP JUMPDEST PUSH2 0xCDE JUMP JUMPDEST SWAP1 POP SWAP2 SWAP1 POP JUMP JUMPDEST PUSH0 PUSH2 0xD86 DUP3 PUSH2 0xD5B JUMP JUMPDEST SWAP1 POP SWAP2 SWAP1 POP JUMP JUMPDEST PUSH0 PUSH2 0xD97 DUP3 PUSH2 0xD7C JUMP JUMPDEST SWAP1 POP SWAP2 SWAP1 POP JUMP JUMPDEST PUSH2 0xDA7 DUP2 PUSH2 0xD8D JUMP JUMPDEST DUP3 MSTORE POP POP JUMP JUMPDEST PUSH0 PUSH1 0x20 DUP3 ADD SWAP1 POP PUSH2 0xDC0 PUSH0 DUP4 ADD DUP5 PUSH2 0xD9E JUMP JUMPDEST SWAP3 SWAP2 POP POP JUMP JUMPDEST PUSH0 PUSH1 0x20 DUP3 ADD SWAP1 POP PUSH2 0xDD9 PUSH0 DUP4 ADD DUP5 PUSH2 0xCCF JUMP JUMPDEST SWAP3 SWAP2 POP POP JUMP JUMPDEST PUSH0 PUSH1 0x80 DUP3 ADD SWAP1 POP PUSH2 0xDF2 PUSH0 DUP4 ADD DUP8 PUSH2 0xD0E JUMP JUMPDEST PUSH2 0xDFF PUSH1 0x20 DUP4 ADD DUP7 PUSH2 0xC9C JUMP JUMPDEST PUSH2 0xE0C PUSH1 0x40 DUP4 ADD DUP6 PUSH2 0xCCF JUMP JUMPDEST PUSH2 0xE19 PUSH1 0x60 DUP4 ADD DUP5 PUSH2 0xCCF JUMP JUMPDEST SWAP6 SWAP5 POP POP POP POP POP JUMP JUMPDEST PUSH0 PUSH2 0xE2C DUP3 PUSH2 0xD7C JUMP JUMPDEST SWAP1 POP SWAP2 SWAP1 POP JUMP JUMPDEST PUSH2 0xE3C DUP2 PUSH2 0xE22 JUMP JUMPDEST DUP3 MSTORE POP POP JUMP JUMPDEST PUSH0 PUSH1 0x20 DUP3 ADD SWAP1 POP PUSH2 0xE55 PUSH0 DUP4 ADD DUP5 PUSH2 0xE33 JUMP JUMPDEST SWAP3 SWAP2 POP POP JUMP JUMPDEST PUSH0 DUP3 DUP3 MSTORE PUSH1 0x20 DUP3 ADD SWAP1 POP SWAP3 SWAP2 POP POP JUMP JUMPDEST PUSH32 0x497373756520616C726561647920636C61696D65640000000000000000000000 PUSH0 DUP3 ADD MSTORE POP JUMP JUMPDEST PUSH0 PUSH2 0xE9F PUSH1 0x15 DUP4 PUSH2 0xE5B JUMP JUMPDEST SWAP2 POP PUSH2 0xEAA DUP3 PUSH2 0xE6B JUMP JUMPDEST PUSH1 0x20 DUP3 ADD SWAP1 POP SWAP2 SWAP1 POP JUMP JUMPDEST PUSH0 PUSH1 0x20 DUP3 ADD SWAP1 POP DUP2 DUP2 SUB PUSH0 DUP4 ADD MSTORE PUSH2 0xECC DUP2 PUSH2 0xE93 JUMP JUMPDEST SWAP1 POP SWAP2 SWAP1 POP JUMP JUMPDEST PUSH0 DUP2 MLOAD SWAP1 POP PUSH2 0xEE1 DUP2 PUSH2 0xC47 JUMP JUMPDEST SWAP3 SWAP2 POP POP JUMP JUMPDEST PUSH0 PUSH1 0x20 DUP3 DUP5 SUB SLT ISZERO PUSH2 0xEFC JUMPI PUSH2 0xEFB PUSH2 0xC3A JUMP JUMPDEST JUMPDEST PUSH0 PUSH2 0xF09 DUP5 DUP3 DUP6 ADD PUSH2 0xED3 JUMP JUMPDEST SWAP2 POP POP SWAP3 SWAP2 POP POP JUMP JUMPDEST PUSH32 0x4E6F20626F756E747920666F7220746869732069737375650000000000000000 PUSH0 DUP3 ADD MSTORE POP JUMP JUMPDEST PUSH0 PUSH2 0xF46 PUSH1 0x18 DUP4 PUSH2 0xE5B JUMP JUMPDEST SWAP2 POP PUSH2 0xF51 DUP3 PUSH2 0xF12 JUMP JUMPDEST PUSH1 0x20 DUP3 ADD SWAP1 POP SWAP2 SWAP1 POP JUMP JUMPDEST PUSH0 PUSH1 0x20 DUP3 ADD SWAP1 POP DUP2 DUP2 SUB PUSH0 DUP4 ADD MSTORE PUSH2 0xF73 DUP2 PUSH2 0xF3A JUMP JUMPDEST SWAP1 POP SWAP2 SWAP1 POP JUMP JUMPDEST PUSH32 0x4E487B7100000000000000000000000000000000000000000000000000000000 PUSH0 MSTORE PUSH1 0x11 PUSH1 0x4 MSTORE PUSH1 0x24 PUSH0 REVERT JUMPDEST PUSH0 PUSH2 0xFB1 DUP3 PUSH2 0xC3E JUMP JUMPDEST SWAP2 POP PUSH2 0xFBC DUP4 PUSH2 0xC3E JUMP JUMPDEST SWAP3 POP DUP3 DUP3 ADD SWAP1 POP DUP1 DUP3 GT ISZERO PUSH2 0xFD4 JUMPI PUSH2 0xFD3 PUSH2 0xF7A JUMP JUMPDEST JUMPDEST SWAP3 SWAP2 POP POP JUMP JUMPDEST PUSH32 0x4973737565206E6F7420636C61696D6564000000000000000000000000000000 PUSH0 DUP3 ADD MSTORE POP JUMP JUMPDEST PUSH0 PUSH2 0x100E PUSH1 0x11 DUP4 PUSH2 0xE5B JUMP JUMPDEST SWAP2 POP PUSH2 0x1019 DUP3 PUSH2 0xFDA JUMP JUMPDEST PUSH1 0x20 DUP3 ADD SWAP1 POP SWAP2 SWAP1 POP JUMP JUMPDEST PUSH0 PUSH1 0x20 DUP3 ADD SWAP1 POP DUP2 DUP2 SUB PUSH0 DUP4 ADD MSTORE PUSH2 0x103B DUP2 PUSH2 0x1002 JUMP JUMPDEST SWAP1 POP SWAP2 SWAP1 POP JUMP JUMPDEST PUSH32 0x426F756E747920616C7265616479207061696400000000000000000000000000 PUSH0 DUP3 ADD MSTORE POP JUMP JUMPDEST PUSH0 PUSH2 0x1076 PUSH1 0x13 DUP4 PUSH2 0xE5B JUMP JUMPDEST SWAP2 POP PUSH2 0x1081 DUP3 PUSH2 0x1042 JUMP JUMPDEST PUSH1 0x20 DUP3 ADD SWAP1 POP SWAP2 SWAP1 POP JUMP JUMPDEST PUSH0 PUSH1 0x20 DUP3 ADD SWAP1 POP DUP2 DUP2 SUB PUSH0 DUP4 ADD MSTORE PUSH2 0x10A3 DUP2 PUSH2 0x106A JUMP JUMPDEST SWAP1 POP SWAP2 SWAP1 POP JUMP JUMPDEST PUSH0 PUSH1 0x40 DUP3 ADD SWAP1 POP PUSH2 0x10BD PUSH0 DUP4 ADD DUP6 PUSH2 0xC9C JUMP JUMPDEST PUSH2 0x10CA PUSH1 0x20 DUP4 ADD DUP5 PUSH2 0xD0E JUMP JUMPDEST SWAP4 SWAP3 POP POP POP JUMP JUMPDEST PUSH2 0x10DA DUP2 PUSH2 0xCC4 JUMP JUMPDEST DUP2 EQ PUSH2 0x10E4 JUMPI PUSH0 DUP1 REVERT JUMPDEST POP JUMP JUMPDEST PUSH0 DUP2 MLOAD SWAP1 POP PUSH2 0x10F5 DUP2 PUSH2 0x10D1 JUMP JUMPDEST SWAP3 SWAP2 POP POP JUMP JUMPDEST PUSH0 PUSH1 0x20 DUP3 DUP5 SUB SLT ISZERO PUSH2 0x1110 JUMPI PUSH2 0x110F PUSH2 0xC3A JUMP JUMPDEST JUMPDEST PUSH0 PUSH2 0x111D DUP5 DUP3 DUP6 ADD PUSH2 0x10E7 JUMP JUMPDEST SWAP2 POP POP SWAP3 SWAP2 POP POP JUMP JUMPDEST PUSH32 0x4E6F7420617070726F7665642062792076616C696461746F7273000000000000 PUSH0 DUP3 ADD MSTORE POP JUMP JUMPDEST PUSH0 PUSH2 0x115A PUSH1 0x1A DUP4 PUSH2 0xE5B JUMP JUMPDEST SWAP2 POP PUSH2 0x1165 DUP3 PUSH2 0x1126 JUMP JUMPDEST PUSH1 0x20 DUP3 ADD SWAP1 POP SWAP2 SWAP1 POP JUMP JUMPDEST PUSH0 PUSH1 0x20 DUP3 ADD SWAP1 POP DUP2 DUP2 SUB PUSH0 DUP4 ADD MSTORE PUSH2 0x1187 DUP2 PUSH2 0x114E JUMP JUMPDEST SWAP1 POP SWAP2 SWAP1 POP JUMP JUMPDEST PUSH32 0x436C61696D206578706972656400000000000000000000000000000000000000 PUSH0 DUP3 ADD MSTORE POP JUMP JUMPDEST PUSH0 PUSH2 0x11C2 PUSH1 0xD DUP4 PUSH2 0xE5B JUMP JUMPDEST SWAP2 POP PUSH2 0x11CD DUP3 PUSH2 0x118E JUMP JUMPDEST PUSH1 0x20 DUP3 ADD SWAP1 POP SWAP2 SWAP1 POP JUMP JUMPDEST PUSH0 PUSH1 0x20 DUP3 ADD SWAP1 POP DUP2 DUP2 SUB PUSH0 DUP4 ADD MSTORE PUSH2 0x11EF DUP2 PUSH2 0x11B6 JUMP JUMPDEST SWAP1 POP SWAP2 SWAP1 POP JUMP JUMPDEST PUSH0 DUP2 SWAP1 POP SWAP3 SWAP2 POP POP JUMP JUMPDEST POP JUMP JUMPDEST PUSH0 PUSH2 0x120E PUSH0 DUP4 PUSH2 0x11F6 JUMP JUMPDEST SWAP2 POP PUSH2 0x1219 DUP3 PUSH2 0x1200 JUMP JUMPDEST PUSH0 DUP3 ADD SWAP1 POP SWAP2 SWAP1 POP JUMP JUMPDEST PUSH0 PUSH2 0x122D DUP3 PUSH2 0x1203 JUMP JUMPDEST SWAP2 POP DUP2 SWAP1 POP SWAP2 SWAP1 POP JUMP JUMPDEST PUSH32 0x5472616E73666572206661696C65640000000000000000000000000000000000 PUSH0 DUP3 ADD MSTORE POP JUMP JUMPDEST PUSH0 PUSH2 0x126B PUSH1 0xF DUP4 PUSH2 0xE5B JUMP JUMPDEST SWAP2 POP PUSH2 0x1276 DUP3 PUSH2 0x1237 JUMP JUMPDEST PUSH1 0x20 DUP3 ADD SWAP1 POP SWAP2 SWAP1 POP JUMP JUMPDEST PUSH0 PUSH1 0x20 DUP3 ADD SWAP1 POP DUP2 DUP2 SUB PUSH0 DUP4 ADD MSTORE PUSH2 0x1298 DUP2 PUSH2 0x125F JUMP JUMPDEST SWAP1 POP SWAP2 SWAP1 POP JUMP JUMPDEST PUSH32 0x496E76616C696420636C61696D20737461746500000000000000000000000000 PUSH0 DUP3 ADD MSTORE POP JUMP JUMPDEST PUSH0 PUSH2 0x12D3 PUSH1 0x13 DUP4 PUSH2 0xE5B JUMP JUMPDEST SWAP2 POP PUSH2 0x12DE DUP3 PUSH2 0x129F JUMP JUMPDEST PUSH1 0x20 DUP3 ADD SWAP1 POP SWAP2 SWAP1 POP JUMP JUMPDEST PUSH0 PUSH1 0x20 DUP3 ADD SWAP1 POP DUP2 DUP2 SUB PUSH0 DUP4 ADD MSTORE PUSH2 0x1300 DUP2 PUSH2 0x12C7 JUMP JUMPDEST SWAP1 POP SWAP2 SWAP1 POP JUMP JUMPDEST PUSH32 0x4E6F7420617574686F72697A656420746F2063616E63656C0000000000000000 PUSH0 DUP3 ADD MSTORE POP JUMP JUMPDEST PUSH0 PUSH2 0x133B PUSH1 0x18 DUP4 PUSH2 0xE5B JUMP JUMPDEST SWAP2 POP PUSH2 0x1346 DUP3 PUSH2 0x1307 JUMP JUMPDEST PUSH1 0x20 DUP3 ADD SWAP1 POP SWAP2 SWAP1 POP JUMP JUMPDEST PUSH0 PUSH1 0x20 DUP3 ADD SWAP1 POP DUP2 DUP2 SUB PUSH0 DUP4 ADD MSTORE PUSH2 0x1368 DUP2 PUSH2 0x132F JUMP JUMPDEST SWAP1 POP SWAP2 SWAP1 POP JUMP INVALID LOG2 PUSH5 0x6970667358 0x22 SLT KECCAK256 0x2B PUSH21 0x40651A770691929175F9100A32695F691AB807884 EXTCODECOPY 0xEC MUL 0xAB 0x4F 0x1E KECCAK256 DIV 0xA7 PUSH5 0x736F6C6343 STOP ADDMOD BYTE STOP CALLER "
				},
				"gasEstimates": {
					"creation": {
						"codeDepositCost": "1005800",
						"executionCost": "infinite",
						"totalCost": "infinite"
					},
					"external": {
						"CLAIM_TIMEOUT()": "413",
						"cancelClaim(uint256)": "infinite",
						"claimBounty(uint256)": "infinite",
						"claimTimestamps(uint256)": "infinite",
						"claims(uint256)": "infinite",
						"fundManager()": "infinite",
						"getClaimStatus(uint256)": "infinite",
						"isClaimExpired(uint256)": "infinite",
						"processPayout(uint256)": "infinite",
						"validatorMultiSig()": "infinite"
					}
				},
				"methodIdentifiers": {
					"CLAIM_TIMEOUT()": "f5f5dd41",
					"cancelClaim(uint256)": "9dc5e02f",
					"claimBounty(uint256)": "44021ad7",
					"claimTimestamps(uint256)": "11af4e7a",
					"claims(uint256)": "a888c2cd",
					"fundManager()": "6209ec2d",
					"getClaimStatus(uint256)": "36dbd2f9",
					"isClaimExpired(uint256)": "8959c006",
					"processPayout(uint256)": "89ee68bf",
					"validatorMultiSig()": "f1e2de14"
				}
			},
			"storageLayout": {
				"storage": [
					{
						"astId": 14,
						"contract": "prog2005-2025/lab02/gitlab-fund/contracts/DeveloperPayouts.sol:DeveloperPayouts",
						"label": "_reentrancyContext",
						"offset": 0,
						"slot": "0",
						"type": "t_struct(NonReentrantContext)559_storage"
					},
					{
						"astId": 34,
						"contract": "prog2005-2025/lab02/gitlab-fund/contracts/DeveloperPayouts.sol:DeveloperPayouts",
						"label": "claims",
						"offset": 0,
						"slot": "1",
						"type": "t_mapping(t_uint256,t_struct(Claim)23_storage)"
					},
					{
						"astId": 41,
						"contract": "prog2005-2025/lab02/gitlab-fund/contracts/DeveloperPayouts.sol:DeveloperPayouts",
						"label": "claimTimestamps",
						"offset": 0,
						"slot": "2",
						"type": "t_mapping(t_uint256,t_uint256)"
					}
				],
				"types": {
					"t_address": {
						"encoding": "inplace",
						"label": "address",
						"numberOfBytes": "20"
					},
					"t_bool": {
						"encoding": "inplace",
						"label": "bool",
						"numberOfBytes": "1"
					},
					"t_bytes32": {
						"encoding": "inplace",
						"label": "bytes32",
						"numberOfBytes": "32"
					},
					"t_mapping(t_uint256,t_struct(Claim)23_storage)": {
						"encoding": "mapping",
						"key": "t_uint256",
						"label": "mapping(uint256 => struct DeveloperPayouts.Claim)",
						"numberOfBytes": "32",
						"value": "t_struct(Claim)23_storage"
					},
					"t_mapping(t_uint256,t_uint256)": {
						"encoding": "mapping",
						"key": "t_uint256",
						"label": "mapping(uint256 => uint256)",
						"numberOfBytes": "32",
						"value": "t_uint256"
					},
					"t_struct(Claim)23_storage": {
						"encoding": "inplace",
						"label": "struct DeveloperPayouts.Claim",
						"members": [
							{
								"astId": 16,
								"contract": "prog2005-2025/lab02/gitlab-fund/contracts/DeveloperPayouts.sol:DeveloperPayouts",
								"label": "developer",
								"offset": 0,
								"slot": "0",
								"type": "t_address"
							},
							{
								"astId": 18,
								"contract": "prog2005-2025/lab02/gitlab-fund/contracts/DeveloperPayouts.sol:DeveloperPayouts",
								"label": "amount",
								"offset": 0,
								"slot": "1",
								"type": "t_uint256"
							},
							{
								"astId": 20,
								"contract": "prog2005-2025/lab02/gitlab-fund/contracts/DeveloperPayouts.sol:DeveloperPayouts",
								"label": "claimed",
								"offset": 0,
								"slot": "2",
								"type": "t_bool"
							},
							{
								"astId": 22,
								"contract": "prog2005-2025/lab02/gitlab-fund/contracts/DeveloperPayouts.sol:DeveloperPayouts",
								"label": "paid",
								"offset": 1,
								"slot": "2",
								"type": "t_bool"
							}
						],
						"numberOfBytes": "96"
					},
					"t_struct(NonReentrantContext)559_storage": {
						"encoding": "inplace",
						"label": "struct SecurityUtils.NonReentrantContext",
						"members": [
							{
								"astId": 558,
								"contract": "prog2005-2025/lab02/gitlab-fund/contracts/DeveloperPayouts.sol:DeveloperPayouts",
								"label": "_reentrancyGuardStatus",
								"offset": 0,
								"slot": "0",
								"type": "t_bytes32"
							}
						],
						"numberOfBytes": "32"
					},
					"t_uint256": {
						"encoding": "inplace",
						"label": "uint256",
						"numberOfBytes": "32"
					}
				}
			},
			"userdoc": {
				"kind": "user",
				"methods": {},
				"version": 1
			}
		}
	}
}