{
	"prog2005-2025/lab01/task2/RockPapirScissors.sol": {
		"RockPaperScissors": {
			"abi": [
				{
					"anonymous": false,
					"inputs": [
						{
							"indexed": true,
							"internalType": "address",
							"name": "player",
							"type": "address"
						},
						{
							"indexed": false,
							"internalType": "bytes32",
							"name": "hashedVote",
							"type": "bytes32"
						}
					],
					"name": "Played",
					"type": "event"
				},
				{
					"anonymous": false,
					"inputs": [
						{
							"indexed": true,
							"internalType": "address",
							"name": "player",
							"type": "address"
						},
						{
							"indexed": false,
							"internalType": "string",
							"name": "vote",
							"type": "string"
						}
					],
					"name": "Revealed",
					"type": "event"
				},
				{
					"anonymous": false,
					"inputs": [
						{
							"indexed": true,
							"internalType": "address",
							"name": "player",
							"type": "address"
						},
						{
							"indexed": false,
							"internalType": "uint256",
							"name": "amount",
							"type": "uint256"
						}
					],
					"name": "Withdrawn",
					"type": "event"
				},
				{
					"inputs": [],
					"name": "bet",
					"outputs": [
						{
							"internalType": "uint256",
							"name": "",
							"type": "uint256"
						}
					],
					"stateMutability": "view",
					"type": "function"
				},
				{
					"inputs": [],
					"name": "commit1",
					"outputs": [
						{
							"internalType": "bytes32",
							"name": "",
							"type": "bytes32"
						}
					],
					"stateMutability": "view",
					"type": "function"
				},
				{
					"inputs": [],
					"name": "commit2",
					"outputs": [
						{
							"internalType": "bytes32",
							"name": "",
							"type": "bytes32"
						}
					],
					"stateMutability": "view",
					"type": "function"
				},
				{
					"inputs": [],
					"name": "gameCompleted",
					"outputs": [
						{
							"internalType": "bool",
							"name": "",
							"type": "bool"
						}
					],
					"stateMutability": "view",
					"type": "function"
				},
				{
					"inputs": [],
					"name": "gameStartTime",
					"outputs": [
						{
							"internalType": "uint256",
							"name": "",
							"type": "uint256"
						}
					],
					"stateMutability": "view",
					"type": "function"
				},
				{
					"inputs": [],
					"name": "move1",
					"outputs": [
						{
							"internalType": "string",
							"name": "",
							"type": "string"
						}
					],
					"stateMutability": "view",
					"type": "function"
				},
				{
					"inputs": [],
					"name": "move2",
					"outputs": [
						{
							"internalType": "string",
							"name": "",
							"type": "string"
						}
					],
					"stateMutability": "view",
					"type": "function"
				},
				{
					"inputs": [
						{
							"internalType": "address",
							"name": "",
							"type": "address"
						}
					],
					"name": "pendingWithdrawals",
					"outputs": [
						{
							"internalType": "uint256",
							"name": "",
							"type": "uint256"
						}
					],
					"stateMutability": "view",
					"type": "function"
				},
				{
					"inputs": [
						{
							"internalType": "bytes32",
							"name": "_commitment",
							"type": "bytes32"
						}
					],
					"name": "play",
					"outputs": [],
					"stateMutability": "payable",
					"type": "function"
				},
				{
					"inputs": [],
					"name": "player1",
					"outputs": [
						{
							"internalType": "address",
							"name": "",
							"type": "address"
						}
					],
					"stateMutability": "view",
					"type": "function"
				},
				{
					"inputs": [],
					"name": "player2",
					"outputs": [
						{
							"internalType": "address",
							"name": "",
							"type": "address"
						}
					],
					"stateMutability": "view",
					"type": "function"
				},
				{
					"inputs": [
						{
							"internalType": "string",
							"name": "_move",
							"type": "string"
						},
						{
							"internalType": "string",
							"name": "_salt",
							"type": "string"
						}
					],
					"name": "reveal",
					"outputs": [],
					"stateMutability": "nonpayable",
					"type": "function"
				},
				{
					"inputs": [],
					"name": "revealTimeout",
					"outputs": [
						{
							"internalType": "uint256",
							"name": "",
							"type": "uint256"
						}
					],
					"stateMutability": "view",
					"type": "function"
				},
				{
					"inputs": [],
					"name": "revealed1",
					"outputs": [
						{
							"internalType": "bool",
							"name": "",
							"type": "bool"
						}
					],
					"stateMutability": "view",
					"type": "function"
				},
				{
					"inputs": [],
					"name": "revealed2",
					"outputs": [
						{
							"internalType": "bool",
							"name": "",
							"type": "bool"
						}
					],
					"stateMutability": "view",
					"type": "function"
				},
				{
					"inputs": [],
					"name": "tie",
					"outputs": [
						{
							"internalType": "bool",
							"name": "",
							"type": "bool"
						}
					],
					"stateMutability": "view",
					"type": "function"
				},
				{
					"inputs": [],
					"name": "winner",
					"outputs": [
						{
							"internalType": "address",
							"name": "",
							"type": "address"
						}
					],
					"stateMutability": "view",
					"type": "function"
				},
				{
					"inputs": [],
					"name": "withdraw",
					"outputs": [],
					"stateMutability": "nonpayable",
					"type": "function"
				},
				{
					"stateMutability": "payable",
					"type": "receive"
				}
			],
			"devdoc": {
				"kind": "dev",
				"methods": {},
				"version": 1
			},
			"evm": {
				"assembly": "    /* \"prog2005-2025/lab01/task2/RockPapirScissors.sol\":1502:11409  contract RockPaperScissors {... */\n  mstore(0x40, 0x80)\n  callvalue\n  dup1\n  iszero\n  tag_1\n  jumpi\n  0x00\n  dup1\n  revert\ntag_1:\n  pop\n  dataSize(sub_0)\n  dup1\n  dataOffset(sub_0)\n  0x00\n  codecopy\n  0x00\n  return\nstop\n\nsub_0: assembly {\n        /* \"prog2005-2025/lab01/task2/RockPapirScissors.sol\":1502:11409  contract RockPaperScissors {... */\n      mstore(0x40, 0x80)\n      jumpi(tag_1, lt(calldatasize, 0x04))\n      shr(0xe0, calldataload(0x00))\n      dup1\n      0x9f663fb8\n      gt\n      tag_21\n      jumpi\n      dup1\n      0xd30895e4\n      gt\n      tag_22\n      jumpi\n      dup1\n      0xd30895e4\n      eq\n      tag_16\n      jumpi\n      dup1\n      0xd6f5c939\n      eq\n      tag_17\n      jumpi\n      dup1\n      0xdfbf53ae\n      eq\n      tag_18\n      jumpi\n      dup1\n      0xf3f43703\n      eq\n      tag_19\n      jumpi\n      dup1\n      0xfeac8570\n      eq\n      tag_20\n      jumpi\n      jump(tag_2)\n    tag_22:\n      dup1\n      0x9f663fb8\n      eq\n      tag_12\n      jumpi\n      dup1\n      0xa45801a2\n      eq\n      tag_13\n      jumpi\n      dup1\n      0xc78eb546\n      eq\n      tag_14\n      jumpi\n      dup1\n      0xc7a1865b\n      eq\n      tag_15\n      jumpi\n      jump(tag_2)\n    tag_21:\n      dup1\n      0x3ccfd60b\n      gt\n      tag_23\n      jumpi\n      dup1\n      0x3ccfd60b\n      eq\n      tag_7\n      jumpi\n      dup1\n      0x4376cb34\n      eq\n      tag_8\n      jumpi\n      dup1\n      0x4d699f00\n      eq\n      tag_9\n      jumpi\n      dup1\n      0x59a5f12d\n      eq\n      tag_10\n      jumpi\n      dup1\n      0x5ba1b2c7\n      eq\n      tag_11\n      jumpi\n      jump(tag_2)\n    tag_23:\n      dup1\n      0x0252b995\n      eq\n      tag_3\n      jumpi\n      dup1\n      0x11610c25\n      eq\n      tag_4\n      jumpi\n      dup1\n      0x33d85d44\n      eq\n      tag_5\n      jumpi\n      dup1\n      0x378b69eb\n      eq\n      tag_6\n      jumpi\n      jump(tag_2)\n    tag_1:\n      jumpi(tag_2, calldatasize)\n      stop\n    tag_2:\n      0x00\n      dup1\n      revert\n        /* \"prog2005-2025/lab01/task2/RockPapirScissors.sol\":2518:2546  uint256 public gameStartTime */\n    tag_3:\n      callvalue\n      dup1\n      iszero\n      tag_26\n      jumpi\n      0x00\n      dup1\n      revert\n    tag_26:\n      pop\n      tag_27\n      tag_28\n      jump\t// in\n    tag_27:\n      mload(0x40)\n      tag_29\n      swap2\n      swap1\n      tag_30\n      jump\t// in\n    tag_29:\n      mload(0x40)\n      dup1\n      swap2\n      sub\n      swap1\n      return\n        /* \"prog2005-2025/lab01/task2/RockPapirScissors.sol\":1955:1973  uint256 public bet */\n    tag_4:\n      callvalue\n      dup1\n      iszero\n      tag_31\n      jumpi\n      0x00\n      dup1\n      revert\n    tag_31:\n      pop\n      tag_32\n      tag_33\n      jump\t// in\n    tag_32:\n      mload(0x40)\n      tag_34\n      swap2\n      swap1\n      tag_30\n      jump\t// in\n    tag_34:\n      mload(0x40)\n      dup1\n      swap2\n      sub\n      swap1\n      return\n        /* \"prog2005-2025/lab01/task2/RockPapirScissors.sol\":2356:2375  string public move1 */\n    tag_5:\n      callvalue\n      dup1\n      iszero\n      tag_35\n      jumpi\n      0x00\n      dup1\n      revert\n    tag_35:\n      pop\n      tag_36\n      tag_37\n      jump\t// in\n    tag_36:\n      mload(0x40)\n      tag_38\n      swap2\n      swap1\n      tag_39\n      jump\t// in\n    tag_38:\n      mload(0x40)\n      dup1\n      swap2\n      sub\n      swap1\n      return\n        /* \"prog2005-2025/lab01/task2/RockPapirScissors.sol\":2200:2221  bool public revealed1 */\n    tag_6:\n      callvalue\n      dup1\n      iszero\n      tag_40\n      jumpi\n      0x00\n      dup1\n      revert\n    tag_40:\n      pop\n      tag_41\n      tag_42\n      jump\t// in\n    tag_41:\n      mload(0x40)\n      tag_43\n      swap2\n      swap1\n      tag_44\n      jump\t// in\n    tag_43:\n      mload(0x40)\n      dup1\n      swap2\n      sub\n      swap1\n      return\n        /* \"prog2005-2025/lab01/task2/RockPapirScissors.sol\":8906:10736  function withdraw() external {... */\n    tag_7:\n      callvalue\n      dup1\n      iszero\n      tag_45\n      jumpi\n      0x00\n      dup1\n      revert\n    tag_45:\n      pop\n      tag_46\n      tag_47\n      jump\t// in\n    tag_46:\n      stop\n        /* \"prog2005-2025/lab01/task2/RockPapirScissors.sol\":1807:1856  uint256 public constant revealTimeout = 5 minutes */\n    tag_8:\n      callvalue\n      dup1\n      iszero\n      tag_48\n      jumpi\n      0x00\n      dup1\n      revert\n    tag_48:\n      pop\n      tag_49\n      tag_50\n      jump\t// in\n    tag_49:\n      mload(0x40)\n      tag_51\n      swap2\n      swap1\n      tag_30\n      jump\t// in\n    tag_51:\n      mload(0x40)\n      dup1\n      swap2\n      sub\n      swap1\n      return\n        /* \"prog2005-2025/lab01/task2/RockPapirScissors.sol\":2618:2643  bool public gameCompleted */\n    tag_9:\n      callvalue\n      dup1\n      iszero\n      tag_52\n      jumpi\n      0x00\n      dup1\n      revert\n    tag_52:\n      pop\n      tag_53\n      tag_54\n      jump\t// in\n    tag_53:\n      mload(0x40)\n      tag_55\n      swap2\n      swap1\n      tag_44\n      jump\t// in\n    tag_55:\n      mload(0x40)\n      dup1\n      swap2\n      sub\n      swap1\n      return\n        /* \"prog2005-2025/lab01/task2/RockPapirScissors.sol\":1927:1949  address public player2 */\n    tag_10:\n      callvalue\n      dup1\n      iszero\n      tag_56\n      jumpi\n      0x00\n      dup1\n      revert\n    tag_56:\n      pop\n      tag_57\n      tag_58\n      jump\t// in\n    tag_57:\n      mload(0x40)\n      tag_59\n      swap2\n      swap1\n      tag_60\n      jump\t// in\n    tag_59:\n      mload(0x40)\n      dup1\n      swap2\n      sub\n      swap1\n      return\n        /* \"prog2005-2025/lab01/task2/RockPapirScissors.sol\":5126:6736  function reveal(string calldata _move, string calldata _salt) external {... */\n    tag_11:\n      callvalue\n      dup1\n      iszero\n      tag_61\n      jumpi\n      0x00\n      dup1\n      revert\n    tag_61:\n      pop\n      tag_62\n      0x04\n      dup1\n      calldatasize\n      sub\n      dup2\n      add\n      swap1\n      tag_63\n      swap2\n      swap1\n      tag_64\n      jump\t// in\n    tag_63:\n      tag_65\n      jump\t// in\n    tag_62:\n      stop\n        /* \"prog2005-2025/lab01/task2/RockPapirScissors.sol\":2052:2074  bytes32 public commit1 */\n    tag_12:\n      callvalue\n      dup1\n      iszero\n      tag_66\n      jumpi\n      0x00\n      dup1\n      revert\n    tag_66:\n      pop\n      tag_67\n      tag_68\n      jump\t// in\n    tag_67:\n      mload(0x40)\n      tag_69\n      swap2\n      swap1\n      tag_70\n      jump\t// in\n    tag_69:\n      mload(0x40)\n      dup1\n      swap2\n      sub\n      swap1\n      return\n        /* \"prog2005-2025/lab01/task2/RockPapirScissors.sol\":2278:2299  bool public revealed2 */\n    tag_13:\n      callvalue\n      dup1\n      iszero\n      tag_71\n      jumpi\n      0x00\n      dup1\n      revert\n    tag_71:\n      pop\n      tag_72\n      tag_73\n      jump\t// in\n    tag_72:\n      mload(0x40)\n      tag_74\n      swap2\n      swap1\n      tag_44\n      jump\t// in\n    tag_74:\n      mload(0x40)\n      dup1\n      swap2\n      sub\n      swap1\n      return\n        /* \"prog2005-2025/lab01/task2/RockPapirScissors.sol\":2437:2456  string public move2 */\n    tag_14:\n      callvalue\n      dup1\n      iszero\n      tag_75\n      jumpi\n      0x00\n      dup1\n      revert\n    tag_75:\n      pop\n      tag_76\n      tag_77\n      jump\t// in\n    tag_76:\n      mload(0x40)\n      tag_78\n      swap2\n      swap1\n      tag_39\n      jump\t// in\n    tag_78:\n      mload(0x40)\n      dup1\n      swap2\n      sub\n      swap1\n      return\n        /* \"prog2005-2025/lab01/task2/RockPapirScissors.sol\":3602:4594  function play(bytes32 _commitment) external payable {... */\n    tag_15:\n      tag_79\n      0x04\n      dup1\n      calldatasize\n      sub\n      dup2\n      add\n      swap1\n      tag_80\n      swap2\n      swap1\n      tag_81\n      jump\t// in\n    tag_80:\n      tag_82\n      jump\t// in\n    tag_79:\n      stop\n        /* \"prog2005-2025/lab01/task2/RockPapirScissors.sol\":1899:1921  address public player1 */\n    tag_16:\n      callvalue\n      dup1\n      iszero\n      tag_83\n      jumpi\n      0x00\n      dup1\n      revert\n    tag_83:\n      pop\n      tag_84\n      tag_85\n      jump\t// in\n    tag_84:\n      mload(0x40)\n      tag_86\n      swap2\n      swap1\n      tag_60\n      jump\t// in\n    tag_86:\n      mload(0x40)\n      dup1\n      swap2\n      sub\n      swap1\n      return\n        /* \"prog2005-2025/lab01/task2/RockPapirScissors.sol\":2793:2808  bool public tie */\n    tag_17:\n      callvalue\n      dup1\n      iszero\n      tag_87\n      jumpi\n      0x00\n      dup1\n      revert\n    tag_87:\n      pop\n      tag_88\n      tag_89\n      jump\t// in\n    tag_88:\n      mload(0x40)\n      tag_90\n      swap2\n      swap1\n      tag_44\n      jump\t// in\n    tag_90:\n      mload(0x40)\n      dup1\n      swap2\n      sub\n      swap1\n      return\n        /* \"prog2005-2025/lab01/task2/RockPapirScissors.sol\":2724:2745  address public winner */\n    tag_18:\n      callvalue\n      dup1\n      iszero\n      tag_91\n      jumpi\n      0x00\n      dup1\n      revert\n    tag_91:\n      pop\n      tag_92\n      tag_93\n      jump\t// in\n    tag_92:\n      mload(0x40)\n      tag_94\n      swap2\n      swap1\n      tag_60\n      jump\t// in\n    tag_94:\n      mload(0x40)\n      dup1\n      swap2\n      sub\n      swap1\n      return\n        /* \"prog2005-2025/lab01/task2/RockPapirScissors.sol\":2985:3038  mapping(address => uint256) public pendingWithdrawals */\n    tag_19:\n      callvalue\n      dup1\n      iszero\n      tag_95\n      jumpi\n      0x00\n      dup1\n      revert\n    tag_95:\n      pop\n      tag_96\n      0x04\n      dup1\n      calldatasize\n      sub\n      dup2\n      add\n      swap1\n      tag_97\n      swap2\n      swap1\n      tag_98\n      jump\t// in\n    tag_97:\n      tag_99\n      jump\t// in\n    tag_96:\n      mload(0x40)\n      tag_100\n      swap2\n      swap1\n      tag_30\n      jump\t// in\n    tag_100:\n      mload(0x40)\n      dup1\n      swap2\n      sub\n      swap1\n      return\n        /* \"prog2005-2025/lab01/task2/RockPapirScissors.sol\":2126:2148  bytes32 public commit2 */\n    tag_20:\n      callvalue\n      dup1\n      iszero\n      tag_101\n      jumpi\n      0x00\n      dup1\n      revert\n    tag_101:\n      pop\n      tag_102\n      tag_103\n      jump\t// in\n    tag_102:\n      mload(0x40)\n      tag_104\n      swap2\n      swap1\n      tag_70\n      jump\t// in\n    tag_104:\n      mload(0x40)\n      dup1\n      swap2\n      sub\n      swap1\n      return\n        /* \"prog2005-2025/lab01/task2/RockPapirScissors.sol\":2518:2546  uint256 public gameStartTime */\n    tag_28:\n      sload(0x08)\n      dup2\n      jump\t// out\n        /* \"prog2005-2025/lab01/task2/RockPapirScissors.sol\":1955:1973  uint256 public bet */\n    tag_33:\n      sload(0x02)\n      dup2\n      jump\t// out\n        /* \"prog2005-2025/lab01/task2/RockPapirScissors.sol\":2356:2375  string public move1 */\n    tag_37:\n      0x06\n      dup1\n      sload\n      tag_105\n      swap1\n      tag_106\n      jump\t// in\n    tag_105:\n      dup1\n      0x1f\n      add\n      0x20\n      dup1\n      swap2\n      div\n      mul\n      0x20\n      add\n      mload(0x40)\n      swap1\n      dup2\n      add\n      0x40\n      mstore\n      dup1\n      swap3\n      swap2\n      swap1\n      dup2\n      dup2\n      mstore\n      0x20\n      add\n      dup3\n      dup1\n      sload\n      tag_107\n      swap1\n      tag_106\n      jump\t// in\n    tag_107:\n      dup1\n      iszero\n      tag_108\n      jumpi\n      dup1\n      0x1f\n      lt\n      tag_109\n      jumpi\n      0x0100\n      dup1\n      dup4\n      sload\n      div\n      mul\n      dup4\n      mstore\n      swap2\n      0x20\n      add\n      swap2\n      jump(tag_108)\n    tag_109:\n      dup3\n      add\n      swap2\n      swap1\n      0x00\n      mstore\n      keccak256(0x00, 0x20)\n      swap1\n    tag_110:\n      dup2\n      sload\n      dup2\n      mstore\n      swap1\n      0x01\n      add\n      swap1\n      0x20\n      add\n      dup1\n      dup4\n      gt\n      tag_110\n      jumpi\n      dup3\n      swap1\n      sub\n      0x1f\n      and\n      dup3\n      add\n      swap2\n    tag_108:\n      pop\n      pop\n      pop\n      pop\n      pop\n      dup2\n      jump\t// out\n        /* \"prog2005-2025/lab01/task2/RockPapirScissors.sol\":2200:2221  bool public revealed1 */\n    tag_42:\n      0x05\n      0x00\n      swap1\n      sload\n      swap1\n      0x0100\n      exp\n      swap1\n      div\n      0xff\n      and\n      dup2\n      jump\t// out\n        /* \"prog2005-2025/lab01/task2/RockPapirScissors.sol\":8906:10736  function withdraw() external {... */\n    tag_47:\n        /* \"prog2005-2025/lab01/task2/RockPapirScissors.sol\":9042:9055  gameCompleted */\n      0x09\n      0x00\n      swap1\n      sload\n      swap1\n      0x0100\n      exp\n      swap1\n      div\n      0xff\n      and\n        /* \"prog2005-2025/lab01/task2/RockPapirScissors.sol\":9041:9055  !gameCompleted */\n      iszero\n        /* \"prog2005-2025/lab01/task2/RockPapirScissors.sol\":9041:9080  !gameCompleted && player2 != address(0) */\n      dup1\n      iszero\n      tag_112\n      jumpi\n      pop\n        /* \"prog2005-2025/lab01/task2/RockPapirScissors.sol\":9078:9079  0 */\n      0x00\n        /* \"prog2005-2025/lab01/task2/RockPapirScissors.sol\":9059:9080  player2 != address(0) */\n      0xffffffffffffffffffffffffffffffffffffffff\n      and\n        /* \"prog2005-2025/lab01/task2/RockPapirScissors.sol\":9059:9066  player2 */\n      0x01\n      0x00\n      swap1\n      sload\n      swap1\n      0x0100\n      exp\n      swap1\n      div\n      0xffffffffffffffffffffffffffffffffffffffff\n      and\n        /* \"prog2005-2025/lab01/task2/RockPapirScissors.sol\":9059:9080  player2 != address(0) */\n      0xffffffffffffffffffffffffffffffffffffffff\n      and\n      eq\n      iszero\n        /* \"prog2005-2025/lab01/task2/RockPapirScissors.sol\":9041:9080  !gameCompleted && player2 != address(0) */\n    tag_112:\n        /* \"prog2005-2025/lab01/task2/RockPapirScissors.sol\":9037:10023  if (!gameCompleted && player2 != address(0)) {... */\n      iszero\n      tag_113\n      jumpi\n        /* \"prog2005-2025/lab01/task2/RockPapirScissors.sol\":1847:1856  5 minutes */\n      0x012c\n        /* \"prog2005-2025/lab01/task2/RockPapirScissors.sol\":9184:9197  gameStartTime */\n      sload(0x08)\n        /* \"prog2005-2025/lab01/task2/RockPapirScissors.sol\":9184:9213  gameStartTime + revealTimeout */\n      tag_114\n      swap2\n      swap1\n      tag_115\n      jump\t// in\n    tag_114:\n        /* \"prog2005-2025/lab01/task2/RockPapirScissors.sol\":9165:9180  block.timestamp */\n      timestamp\n        /* \"prog2005-2025/lab01/task2/RockPapirScissors.sol\":9165:9213  block.timestamp >= gameStartTime + revealTimeout */\n      lt\n        /* \"prog2005-2025/lab01/task2/RockPapirScissors.sol\":9161:10013  if (block.timestamp >= gameStartTime + revealTimeout) {... */\n      tag_116\n      jumpi\n        /* \"prog2005-2025/lab01/task2/RockPapirScissors.sol\":9318:9327  revealed1 */\n      0x05\n      0x00\n      swap1\n      sload\n      swap1\n      0x0100\n      exp\n      swap1\n      div\n      0xff\n      and\n        /* \"prog2005-2025/lab01/task2/RockPapirScissors.sol\":9318:9341  revealed1 && !revealed2 */\n      dup1\n      iszero\n      tag_117\n      jumpi\n      pop\n        /* \"prog2005-2025/lab01/task2/RockPapirScissors.sol\":9332:9341  revealed2 */\n      0x05\n      0x01\n      swap1\n      sload\n      swap1\n      0x0100\n      exp\n      swap1\n      div\n      0xff\n      and\n        /* \"prog2005-2025/lab01/task2/RockPapirScissors.sol\":9331:9341  !revealed2 */\n      iszero\n        /* \"prog2005-2025/lab01/task2/RockPapirScissors.sol\":9318:9341  revealed1 && !revealed2 */\n    tag_117:\n        /* \"prog2005-2025/lab01/task2/RockPapirScissors.sol\":9314:9901  if (revealed1 && !revealed2) {... */\n      iszero\n      tag_118\n      jumpi\n        /* \"prog2005-2025/lab01/task2/RockPapirScissors.sol\":9374:9381  player1 */\n      0x00\n      dup1\n      sload\n      swap1\n      0x0100\n      exp\n      swap1\n      div\n      0xffffffffffffffffffffffffffffffffffffffff\n      and\n        /* \"prog2005-2025/lab01/task2/RockPapirScissors.sol\":9365:9371  winner */\n      0x09\n      0x01\n        /* \"prog2005-2025/lab01/task2/RockPapirScissors.sol\":9365:9381  winner = player1 */\n      0x0100\n      exp\n      dup2\n      sload\n      dup2\n      0xffffffffffffffffffffffffffffffffffffffff\n      mul\n      not\n      and\n      swap1\n      dup4\n      0xffffffffffffffffffffffffffffffffffffffff\n      and\n      mul\n      or\n      swap1\n      sstore\n      pop\n        /* \"prog2005-2025/lab01/task2/RockPapirScissors.sol\":9419:9423  true */\n      0x01\n        /* \"prog2005-2025/lab01/task2/RockPapirScissors.sol\":9403:9416  gameCompleted */\n      0x09\n      0x00\n        /* \"prog2005-2025/lab01/task2/RockPapirScissors.sol\":9403:9423  gameCompleted = true */\n      0x0100\n      exp\n      dup2\n      sload\n      dup2\n      0xff\n      mul\n      not\n      and\n      swap1\n      dup4\n      iszero\n      iszero\n      mul\n      or\n      swap1\n      sstore\n      pop\n        /* \"prog2005-2025/lab01/task2/RockPapirScissors.sol\":9481:9482  2 */\n      0x02\n        /* \"prog2005-2025/lab01/task2/RockPapirScissors.sol\":9475:9478  bet */\n      dup1\n      sload\n        /* \"prog2005-2025/lab01/task2/RockPapirScissors.sol\":9475:9482  bet * 2 */\n      tag_119\n      swap2\n      swap1\n      tag_120\n      jump\t// in\n    tag_119:\n        /* \"prog2005-2025/lab01/task2/RockPapirScissors.sol\":9445:9463  pendingWithdrawals */\n      0x0a\n        /* \"prog2005-2025/lab01/task2/RockPapirScissors.sol\":9445:9472  pendingWithdrawals[player1] */\n      0x00\n        /* \"prog2005-2025/lab01/task2/RockPapirScissors.sol\":9464:9471  player1 */\n      dup1\n      0x00\n      swap1\n      sload\n      swap1\n      0x0100\n      exp\n      swap1\n      div\n      0xffffffffffffffffffffffffffffffffffffffff\n      and\n        /* \"prog2005-2025/lab01/task2/RockPapirScissors.sol\":9445:9472  pendingWithdrawals[player1] */\n      0xffffffffffffffffffffffffffffffffffffffff\n      and\n      0xffffffffffffffffffffffffffffffffffffffff\n      and\n      dup2\n      mstore\n      0x20\n      add\n      swap1\n      dup2\n      mstore\n      0x20\n      add\n      0x00\n      keccak256\n        /* \"prog2005-2025/lab01/task2/RockPapirScissors.sol\":9445:9482  pendingWithdrawals[player1] = bet * 2 */\n      dup2\n      swap1\n      sstore\n      pop\n        /* \"prog2005-2025/lab01/task2/RockPapirScissors.sol\":9314:9901  if (revealed1 && !revealed2) {... */\n      jump(tag_121)\n    tag_118:\n        /* \"prog2005-2025/lab01/task2/RockPapirScissors.sol\":9511:9520  revealed2 */\n      0x05\n      0x01\n      swap1\n      sload\n      swap1\n      0x0100\n      exp\n      swap1\n      div\n      0xff\n      and\n        /* \"prog2005-2025/lab01/task2/RockPapirScissors.sol\":9511:9534  revealed2 && !revealed1 */\n      dup1\n      iszero\n      tag_122\n      jumpi\n      pop\n        /* \"prog2005-2025/lab01/task2/RockPapirScissors.sol\":9525:9534  revealed1 */\n      0x05\n      0x00\n      swap1\n      sload\n      swap1\n      0x0100\n      exp\n      swap1\n      div\n      0xff\n      and\n        /* \"prog2005-2025/lab01/task2/RockPapirScissors.sol\":9524:9534  !revealed1 */\n      iszero\n        /* \"prog2005-2025/lab01/task2/RockPapirScissors.sol\":9511:9534  revealed2 && !revealed1 */\n    tag_122:\n        /* \"prog2005-2025/lab01/task2/RockPapirScissors.sol\":9507:9901  if (revealed2 && !revealed1) {... */\n      iszero\n      tag_123\n      jumpi\n        /* \"prog2005-2025/lab01/task2/RockPapirScissors.sol\":9672:9679  player2 */\n      0x01\n      0x00\n      swap1\n      sload\n      swap1\n      0x0100\n      exp\n      swap1\n      div\n      0xffffffffffffffffffffffffffffffffffffffff\n      and\n        /* \"prog2005-2025/lab01/task2/RockPapirScissors.sol\":9663:9669  winner */\n      0x09\n      0x01\n        /* \"prog2005-2025/lab01/task2/RockPapirScissors.sol\":9663:9679  winner = player2 */\n      0x0100\n      exp\n      dup2\n      sload\n      dup2\n      0xffffffffffffffffffffffffffffffffffffffff\n      mul\n      not\n      and\n      swap1\n      dup4\n      0xffffffffffffffffffffffffffffffffffffffff\n      and\n      mul\n      or\n      swap1\n      sstore\n      pop\n        /* \"prog2005-2025/lab01/task2/RockPapirScissors.sol\":9717:9721  true */\n      0x01\n        /* \"prog2005-2025/lab01/task2/RockPapirScissors.sol\":9701:9714  gameCompleted */\n      0x09\n      0x00\n        /* \"prog2005-2025/lab01/task2/RockPapirScissors.sol\":9701:9721  gameCompleted = true */\n      0x0100\n      exp\n      dup2\n      sload\n      dup2\n      0xff\n      mul\n      not\n      and\n      swap1\n      dup4\n      iszero\n      iszero\n      mul\n      or\n      swap1\n      sstore\n      pop\n        /* \"prog2005-2025/lab01/task2/RockPapirScissors.sol\":9779:9780  2 */\n      0x02\n        /* \"prog2005-2025/lab01/task2/RockPapirScissors.sol\":9773:9776  bet */\n      dup1\n      sload\n        /* \"prog2005-2025/lab01/task2/RockPapirScissors.sol\":9773:9780  bet * 2 */\n      tag_124\n      swap2\n      swap1\n      tag_120\n      jump\t// in\n    tag_124:\n        /* \"prog2005-2025/lab01/task2/RockPapirScissors.sol\":9743:9761  pendingWithdrawals */\n      0x0a\n        /* \"prog2005-2025/lab01/task2/RockPapirScissors.sol\":9743:9770  pendingWithdrawals[player2] */\n      0x00\n        /* \"prog2005-2025/lab01/task2/RockPapirScissors.sol\":9762:9769  player2 */\n      0x01\n      0x00\n      swap1\n      sload\n      swap1\n      0x0100\n      exp\n      swap1\n      div\n      0xffffffffffffffffffffffffffffffffffffffff\n      and\n        /* \"prog2005-2025/lab01/task2/RockPapirScissors.sol\":9743:9770  pendingWithdrawals[player2] */\n      0xffffffffffffffffffffffffffffffffffffffff\n      and\n      0xffffffffffffffffffffffffffffffffffffffff\n      and\n      dup2\n      mstore\n      0x20\n      add\n      swap1\n      dup2\n      mstore\n      0x20\n      add\n      0x00\n      keccak256\n        /* \"prog2005-2025/lab01/task2/RockPapirScissors.sol\":9743:9780  pendingWithdrawals[player2] = bet * 2 */\n      dup2\n      swap1\n      sstore\n      pop\n        /* \"prog2005-2025/lab01/task2/RockPapirScissors.sol\":9507:9901  if (revealed2 && !revealed1) {... */\n      jump(tag_125)\n    tag_123:\n        /* \"prog2005-2025/lab01/task2/RockPapirScissors.sol\":9827:9882  revert(\"No reveal made by any player; cannot withdraw\") */\n      mload(0x40)\n      0x08c379a000000000000000000000000000000000000000000000000000000000\n      dup2\n      mstore\n      0x04\n      add\n      tag_126\n      swap1\n      tag_127\n      jump\t// in\n    tag_126:\n      mload(0x40)\n      dup1\n      swap2\n      sub\n      swap1\n      revert\n        /* \"prog2005-2025/lab01/task2/RockPapirScissors.sol\":9507:9901  if (revealed2 && !revealed1) {... */\n    tag_125:\n        /* \"prog2005-2025/lab01/task2/RockPapirScissors.sol\":9314:9901  if (revealed1 && !revealed2) {... */\n    tag_121:\n        /* \"prog2005-2025/lab01/task2/RockPapirScissors.sol\":9161:10013  if (block.timestamp >= gameStartTime + revealTimeout) {... */\n      jump(tag_128)\n    tag_116:\n        /* \"prog2005-2025/lab01/task2/RockPapirScissors.sol\":9939:9998  revert(\"Game not completed and reveal timeout not reached\") */\n      mload(0x40)\n      0x08c379a000000000000000000000000000000000000000000000000000000000\n      dup2\n      mstore\n      0x04\n      add\n      tag_129\n      swap1\n      tag_130\n      jump\t// in\n    tag_129:\n      mload(0x40)\n      dup1\n      swap2\n      sub\n      swap1\n      revert\n        /* \"prog2005-2025/lab01/task2/RockPapirScissors.sol\":9161:10013  if (block.timestamp >= gameStartTime + revealTimeout) {... */\n    tag_128:\n        /* \"prog2005-2025/lab01/task2/RockPapirScissors.sol\":9037:10023  if (!gameCompleted && player2 != address(0)) {... */\n    tag_113:\n        /* \"prog2005-2025/lab01/task2/RockPapirScissors.sol\":10041:10055  uint256 amount */\n      0x00\n        /* \"prog2005-2025/lab01/task2/RockPapirScissors.sol\":10058:10076  pendingWithdrawals */\n      0x0a\n        /* \"prog2005-2025/lab01/task2/RockPapirScissors.sol\":10058:10088  pendingWithdrawals[msg.sender] */\n      0x00\n        /* \"prog2005-2025/lab01/task2/RockPapirScissors.sol\":10077:10087  msg.sender */\n      caller\n        /* \"prog2005-2025/lab01/task2/RockPapirScissors.sol\":10058:10088  pendingWithdrawals[msg.sender] */\n      0xffffffffffffffffffffffffffffffffffffffff\n      and\n      0xffffffffffffffffffffffffffffffffffffffff\n      and\n      dup2\n      mstore\n      0x20\n      add\n      swap1\n      dup2\n      mstore\n      0x20\n      add\n      0x00\n      keccak256\n      sload\n        /* \"prog2005-2025/lab01/task2/RockPapirScissors.sol\":10041:10088  uint256 amount = pendingWithdrawals[msg.sender] */\n      swap1\n      pop\n        /* \"prog2005-2025/lab01/task2/RockPapirScissors.sol\":10115:10116  0 */\n      0x00\n        /* \"prog2005-2025/lab01/task2/RockPapirScissors.sol\":10106:10112  amount */\n      dup2\n        /* \"prog2005-2025/lab01/task2/RockPapirScissors.sol\":10106:10116  amount > 0 */\n      gt\n        /* \"prog2005-2025/lab01/task2/RockPapirScissors.sol\":10098:10154  require(amount > 0, \"No funds available for withdrawal\") */\n      tag_131\n      jumpi\n      mload(0x40)\n      0x08c379a000000000000000000000000000000000000000000000000000000000\n      dup2\n      mstore\n      0x04\n      add\n      tag_132\n      swap1\n      tag_133\n      jump\t// in\n    tag_132:\n      mload(0x40)\n      dup1\n      swap2\n      sub\n      swap1\n      revert\n    tag_131:\n        /* \"prog2005-2025/lab01/task2/RockPapirScissors.sol\":10286:10287  0 */\n      0x00\n        /* \"prog2005-2025/lab01/task2/RockPapirScissors.sol\":10253:10271  pendingWithdrawals */\n      0x0a\n        /* \"prog2005-2025/lab01/task2/RockPapirScissors.sol\":10253:10283  pendingWithdrawals[msg.sender] */\n      0x00\n        /* \"prog2005-2025/lab01/task2/RockPapirScissors.sol\":10272:10282  msg.sender */\n      caller\n        /* \"prog2005-2025/lab01/task2/RockPapirScissors.sol\":10253:10283  pendingWithdrawals[msg.sender] */\n      0xffffffffffffffffffffffffffffffffffffffff\n      and\n      0xffffffffffffffffffffffffffffffffffffffff\n      and\n      dup2\n      mstore\n      0x20\n      add\n      swap1\n      dup2\n      mstore\n      0x20\n      add\n      0x00\n      keccak256\n        /* \"prog2005-2025/lab01/task2/RockPapirScissors.sol\":10253:10287  pendingWithdrawals[msg.sender] = 0 */\n      dup2\n      swap1\n      sstore\n      pop\n        /* \"prog2005-2025/lab01/task2/RockPapirScissors.sol\":10298:10310  bool success */\n      0x00\n        /* \"prog2005-2025/lab01/task2/RockPapirScissors.sol\":10316:10326  msg.sender */\n      caller\n        /* \"prog2005-2025/lab01/task2/RockPapirScissors.sol\":10316:10331  msg.sender.call */\n      0xffffffffffffffffffffffffffffffffffffffff\n      and\n        /* \"prog2005-2025/lab01/task2/RockPapirScissors.sol\":10339:10345  amount */\n      dup3\n        /* \"prog2005-2025/lab01/task2/RockPapirScissors.sol\":10316:10350  msg.sender.call{value: amount}(\"\") */\n      mload(0x40)\n      tag_134\n      swap1\n      tag_135\n      jump\t// in\n    tag_134:\n      0x00\n      mload(0x40)\n      dup1\n      dup4\n      sub\n      dup2\n      dup6\n      dup8\n      gas\n      call\n      swap3\n      pop\n      pop\n      pop\n      returndatasize\n      dup1\n      0x00\n      dup2\n      eq\n      tag_138\n      jumpi\n      mload(0x40)\n      swap2\n      pop\n      and(add(returndatasize, 0x3f), not(0x1f))\n      dup3\n      add\n      0x40\n      mstore\n      returndatasize\n      dup3\n      mstore\n      returndatasize\n      0x00\n      0x20\n      dup5\n      add\n      returndatacopy\n      jump(tag_137)\n    tag_138:\n      0x60\n      swap2\n      pop\n    tag_137:\n      pop\n        /* \"prog2005-2025/lab01/task2/RockPapirScissors.sol\":10297:10350  (bool success, ) = msg.sender.call{value: amount}(\"\") */\n      pop\n      swap1\n      pop\n        /* \"prog2005-2025/lab01/task2/RockPapirScissors.sol\":10368:10375  success */\n      dup1\n        /* \"prog2005-2025/lab01/task2/RockPapirScissors.sol\":10360:10406  require(success, \"Withdrawal transfer failed\") */\n      tag_139\n      jumpi\n      mload(0x40)\n      0x08c379a000000000000000000000000000000000000000000000000000000000\n      dup2\n      mstore\n      0x04\n      add\n      tag_140\n      swap1\n      tag_141\n      jump\t// in\n    tag_140:\n      mload(0x40)\n      dup1\n      swap2\n      sub\n      swap1\n      revert\n    tag_139:\n        /* \"prog2005-2025/lab01/task2/RockPapirScissors.sol\":10431:10441  msg.sender */\n      caller\n        /* \"prog2005-2025/lab01/task2/RockPapirScissors.sol\":10421:10450  Withdrawn(msg.sender, amount) */\n      0xffffffffffffffffffffffffffffffffffffffff\n      and\n      0x7084f5476618d8e60b11ef0d7d3f06914655adb8793e28ff7f018d4c76d505d5\n        /* \"prog2005-2025/lab01/task2/RockPapirScissors.sol\":10443:10449  amount */\n      dup4\n        /* \"prog2005-2025/lab01/task2/RockPapirScissors.sol\":10421:10450  Withdrawn(msg.sender, amount) */\n      mload(0x40)\n      tag_142\n      swap2\n      swap1\n      tag_30\n      jump\t// in\n    tag_142:\n      mload(0x40)\n      dup1\n      swap2\n      sub\n      swap1\n      log2\n        /* \"prog2005-2025/lab01/task2/RockPapirScissors.sol\":10573:10586  gameCompleted */\n      0x09\n      0x00\n      swap1\n      sload\n      swap1\n      0x0100\n      exp\n      swap1\n      div\n      0xff\n      and\n        /* \"prog2005-2025/lab01/task2/RockPapirScissors.sol\":10570:10730  if(gameCompleted) {... */\n      iszero\n      tag_143\n      jumpi\n        /* \"prog2005-2025/lab01/task2/RockPapirScissors.sol\":10636:10637  0 */\n      0x00\n        /* \"prog2005-2025/lab01/task2/RockPapirScissors.sol\":10605:10623  pendingWithdrawals */\n      0x0a\n        /* \"prog2005-2025/lab01/task2/RockPapirScissors.sol\":10605:10632  pendingWithdrawals[player1] */\n      0x00\n        /* \"prog2005-2025/lab01/task2/RockPapirScissors.sol\":10624:10631  player1 */\n      dup1\n      0x00\n      swap1\n      sload\n      swap1\n      0x0100\n      exp\n      swap1\n      div\n      0xffffffffffffffffffffffffffffffffffffffff\n      and\n        /* \"prog2005-2025/lab01/task2/RockPapirScissors.sol\":10605:10632  pendingWithdrawals[player1] */\n      0xffffffffffffffffffffffffffffffffffffffff\n      and\n      0xffffffffffffffffffffffffffffffffffffffff\n      and\n      dup2\n      mstore\n      0x20\n      add\n      swap1\n      dup2\n      mstore\n      0x20\n      add\n      0x00\n      keccak256\n      sload\n        /* \"prog2005-2025/lab01/task2/RockPapirScissors.sol\":10605:10637  pendingWithdrawals[player1] == 0 */\n      eq\n        /* \"prog2005-2025/lab01/task2/RockPapirScissors.sol\":10605:10673  pendingWithdrawals[player1] == 0 && pendingWithdrawals[player2] == 0 */\n      dup1\n      iszero\n      tag_144\n      jumpi\n      pop\n        /* \"prog2005-2025/lab01/task2/RockPapirScissors.sol\":10672:10673  0 */\n      0x00\n        /* \"prog2005-2025/lab01/task2/RockPapirScissors.sol\":10641:10659  pendingWithdrawals */\n      0x0a\n        /* \"prog2005-2025/lab01/task2/RockPapirScissors.sol\":10641:10668  pendingWithdrawals[player2] */\n      0x00\n        /* \"prog2005-2025/lab01/task2/RockPapirScissors.sol\":10660:10667  player2 */\n      0x01\n      0x00\n      swap1\n      sload\n      swap1\n      0x0100\n      exp\n      swap1\n      div\n      0xffffffffffffffffffffffffffffffffffffffff\n      and\n        /* \"prog2005-2025/lab01/task2/RockPapirScissors.sol\":10641:10668  pendingWithdrawals[player2] */\n      0xffffffffffffffffffffffffffffffffffffffff\n      and\n      0xffffffffffffffffffffffffffffffffffffffff\n      and\n      dup2\n      mstore\n      0x20\n      add\n      swap1\n      dup2\n      mstore\n      0x20\n      add\n      0x00\n      keccak256\n      sload\n        /* \"prog2005-2025/lab01/task2/RockPapirScissors.sol\":10641:10673  pendingWithdrawals[player2] == 0 */\n      eq\n        /* \"prog2005-2025/lab01/task2/RockPapirScissors.sol\":10605:10673  pendingWithdrawals[player1] == 0 && pendingWithdrawals[player2] == 0 */\n    tag_144:\n        /* \"prog2005-2025/lab01/task2/RockPapirScissors.sol\":10602:10720  if(pendingWithdrawals[player1] == 0 && pendingWithdrawals[player2] == 0) {... */\n      iszero\n      tag_145\n      jumpi\n        /* \"prog2005-2025/lab01/task2/RockPapirScissors.sol\":10693:10705  _resetGame() */\n      tag_146\n        /* \"prog2005-2025/lab01/task2/RockPapirScissors.sol\":10693:10703  _resetGame */\n      tag_147\n        /* \"prog2005-2025/lab01/task2/RockPapirScissors.sol\":10693:10705  _resetGame() */\n      jump\t// in\n    tag_146:\n        /* \"prog2005-2025/lab01/task2/RockPapirScissors.sol\":10602:10720  if(pendingWithdrawals[player1] == 0 && pendingWithdrawals[player2] == 0) {... */\n    tag_145:\n        /* \"prog2005-2025/lab01/task2/RockPapirScissors.sol\":10570:10730  if(gameCompleted) {... */\n    tag_143:\n        /* \"prog2005-2025/lab01/task2/RockPapirScissors.sol\":8935:10736  {... */\n      pop\n      pop\n        /* \"prog2005-2025/lab01/task2/RockPapirScissors.sol\":8906:10736  function withdraw() external {... */\n      jump\t// out\n        /* \"prog2005-2025/lab01/task2/RockPapirScissors.sol\":1807:1856  uint256 public constant revealTimeout = 5 minutes */\n    tag_50:\n        /* \"prog2005-2025/lab01/task2/RockPapirScissors.sol\":1847:1856  5 minutes */\n      0x012c\n        /* \"prog2005-2025/lab01/task2/RockPapirScissors.sol\":1807:1856  uint256 public constant revealTimeout = 5 minutes */\n      dup2\n      jump\t// out\n        /* \"prog2005-2025/lab01/task2/RockPapirScissors.sol\":2618:2643  bool public gameCompleted */\n    tag_54:\n      0x09\n      0x00\n      swap1\n      sload\n      swap1\n      0x0100\n      exp\n      swap1\n      div\n      0xff\n      and\n      dup2\n      jump\t// out\n        /* \"prog2005-2025/lab01/task2/RockPapirScissors.sol\":1927:1949  address public player2 */\n    tag_58:\n      0x01\n      0x00\n      swap1\n      sload\n      swap1\n      0x0100\n      exp\n      swap1\n      div\n      0xffffffffffffffffffffffffffffffffffffffff\n      and\n      dup2\n      jump\t// out\n        /* \"prog2005-2025/lab01/task2/RockPapirScissors.sol\":5126:6736  function reveal(string calldata _move, string calldata _salt) external {... */\n    tag_65:\n        /* \"prog2005-2025/lab01/task2/RockPapirScissors.sol\":5297:5304  player1 */\n      0x00\n      dup1\n      sload\n      swap1\n      0x0100\n      exp\n      swap1\n      div\n      0xffffffffffffffffffffffffffffffffffffffff\n      and\n        /* \"prog2005-2025/lab01/task2/RockPapirScissors.sol\":5283:5304  msg.sender == player1 */\n      0xffffffffffffffffffffffffffffffffffffffff\n      and\n        /* \"prog2005-2025/lab01/task2/RockPapirScissors.sol\":5283:5293  msg.sender */\n      caller\n        /* \"prog2005-2025/lab01/task2/RockPapirScissors.sol\":5283:5304  msg.sender == player1 */\n      0xffffffffffffffffffffffffffffffffffffffff\n      and\n      eq\n        /* \"prog2005-2025/lab01/task2/RockPapirScissors.sol\":5283:5329  msg.sender == player1 || msg.sender == player2 */\n      dup1\n      tag_149\n      jumpi\n      pop\n        /* \"prog2005-2025/lab01/task2/RockPapirScissors.sol\":5322:5329  player2 */\n      0x01\n      0x00\n      swap1\n      sload\n      swap1\n      0x0100\n      exp\n      swap1\n      div\n      0xffffffffffffffffffffffffffffffffffffffff\n      and\n        /* \"prog2005-2025/lab01/task2/RockPapirScissors.sol\":5308:5329  msg.sender == player2 */\n      0xffffffffffffffffffffffffffffffffffffffff\n      and\n        /* \"prog2005-2025/lab01/task2/RockPapirScissors.sol\":5308:5318  msg.sender */\n      caller\n        /* \"prog2005-2025/lab01/task2/RockPapirScissors.sol\":5308:5329  msg.sender == player2 */\n      0xffffffffffffffffffffffffffffffffffffffff\n      and\n      eq\n        /* \"prog2005-2025/lab01/task2/RockPapirScissors.sol\":5283:5329  msg.sender == player1 || msg.sender == player2 */\n    tag_149:\n        /* \"prog2005-2025/lab01/task2/RockPapirScissors.sol\":5275:5351  require(msg.sender == player1 || msg.sender == player2, \"Not a participant\") */\n      tag_150\n      jumpi\n      mload(0x40)\n      0x08c379a000000000000000000000000000000000000000000000000000000000\n      dup2\n      mstore\n      0x04\n      add\n      tag_151\n      swap1\n      tag_152\n      jump\t// in\n    tag_151:\n      mload(0x40)\n      dup1\n      swap2\n      sub\n      swap1\n      revert\n    tag_150:\n        /* \"prog2005-2025/lab01/task2/RockPapirScissors.sol\":5443:5465  bytes memory moveBytes */\n      0x00\n        /* \"prog2005-2025/lab01/task2/RockPapirScissors.sol\":5474:5479  _move */\n      dup5\n      dup5\n        /* \"prog2005-2025/lab01/task2/RockPapirScissors.sol\":5443:5480  bytes memory moveBytes = bytes(_move) */\n      dup1\n      dup1\n      0x1f\n      add\n      0x20\n      dup1\n      swap2\n      div\n      mul\n      0x20\n      add\n      mload(0x40)\n      swap1\n      dup2\n      add\n      0x40\n      mstore\n      dup1\n      swap4\n      swap3\n      swap2\n      swap1\n      dup2\n      dup2\n      mstore\n      0x20\n      add\n      dup4\n      dup4\n      dup1\n      dup3\n      dup5\n      calldatacopy\n      0x00\n      dup2\n      dup5\n      add\n      mstore\n      not(0x1f)\n      0x1f\n      dup3\n      add\n      and\n      swap1\n      pop\n      dup1\n      dup4\n      add\n      swap3\n      pop\n      pop\n      pop\n      pop\n      pop\n      pop\n      pop\n      swap1\n      pop\n        /* \"prog2005-2025/lab01/task2/RockPapirScissors.sol\":5518:5519  1 */\n      0x01\n        /* \"prog2005-2025/lab01/task2/RockPapirScissors.sol\":5498:5507  moveBytes */\n      dup2\n        /* \"prog2005-2025/lab01/task2/RockPapirScissors.sol\":5498:5514  moveBytes.length */\n      mload\n        /* \"prog2005-2025/lab01/task2/RockPapirScissors.sol\":5498:5519  moveBytes.length == 1 */\n      eq\n        /* \"prog2005-2025/lab01/task2/RockPapirScissors.sol\":5490:5555  require(moveBytes.length == 1, \"Move must be a single character\") */\n      tag_153\n      jumpi\n      mload(0x40)\n      0x08c379a000000000000000000000000000000000000000000000000000000000\n      dup2\n      mstore\n      0x04\n      add\n      tag_154\n      swap1\n      tag_155\n      jump\t// in\n    tag_154:\n      mload(0x40)\n      dup1\n      swap2\n      sub\n      swap1\n      revert\n    tag_153:\n        /* \"prog2005-2025/lab01/task2/RockPapirScissors.sol\":5565:5580  bytes1 moveChar */\n      0x00\n        /* \"prog2005-2025/lab01/task2/RockPapirScissors.sol\":5583:5592  moveBytes */\n      dup2\n        /* \"prog2005-2025/lab01/task2/RockPapirScissors.sol\":5593:5594  0 */\n      0x00\n        /* \"prog2005-2025/lab01/task2/RockPapirScissors.sol\":5583:5595  moveBytes[0] */\n      dup2\n      mload\n      dup2\n      lt\n      tag_156\n      jumpi\n      tag_157\n      tag_158\n      jump\t// in\n    tag_157:\n    tag_156:\n      0x20\n      add\n      add\n      mload\n      0xf8\n      shr\n      0xf8\n      shl\n        /* \"prog2005-2025/lab01/task2/RockPapirScissors.sol\":5565:5595  bytes1 moveChar = moveBytes[0] */\n      swap1\n      pop\n        /* \"prog2005-2025/lab01/task2/RockPapirScissors.sol\":5638:5649  bytes1(\"R\") */\n      0x5200000000000000000000000000000000000000000000000000000000000000\n        /* \"prog2005-2025/lab01/task2/RockPapirScissors.sol\":5626:5649  moveChar == bytes1(\"R\") */\n      not(0xffffffffffffffffffffffffffffffffffffffffffffffffffffffffffffff)\n      and\n        /* \"prog2005-2025/lab01/task2/RockPapirScissors.sol\":5626:5634  moveChar */\n      dup2\n        /* \"prog2005-2025/lab01/task2/RockPapirScissors.sol\":5626:5649  moveChar == bytes1(\"R\") */\n      not(0xffffffffffffffffffffffffffffffffffffffffffffffffffffffffffffff)\n      and\n      eq\n        /* \"prog2005-2025/lab01/task2/RockPapirScissors.sol\":5626:5688  moveChar == bytes1(\"R\") ||... */\n      dup1\n      tag_159\n      jumpi\n      pop\n        /* \"prog2005-2025/lab01/task2/RockPapirScissors.sol\":5677:5688  bytes1(\"P\") */\n      0x5000000000000000000000000000000000000000000000000000000000000000\n        /* \"prog2005-2025/lab01/task2/RockPapirScissors.sol\":5665:5688  moveChar == bytes1(\"P\") */\n      not(0xffffffffffffffffffffffffffffffffffffffffffffffffffffffffffffff)\n      and\n        /* \"prog2005-2025/lab01/task2/RockPapirScissors.sol\":5665:5673  moveChar */\n      dup2\n        /* \"prog2005-2025/lab01/task2/RockPapirScissors.sol\":5665:5688  moveChar == bytes1(\"P\") */\n      not(0xffffffffffffffffffffffffffffffffffffffffffffffffffffffffffffff)\n      and\n      eq\n        /* \"prog2005-2025/lab01/task2/RockPapirScissors.sol\":5626:5688  moveChar == bytes1(\"R\") ||... */\n    tag_159:\n        /* \"prog2005-2025/lab01/task2/RockPapirScissors.sol\":5626:5727  moveChar == bytes1(\"R\") ||... */\n      dup1\n      tag_160\n      jumpi\n      pop\n        /* \"prog2005-2025/lab01/task2/RockPapirScissors.sol\":5716:5727  bytes1(\"S\") */\n      0x5300000000000000000000000000000000000000000000000000000000000000\n        /* \"prog2005-2025/lab01/task2/RockPapirScissors.sol\":5704:5727  moveChar == bytes1(\"S\") */\n      not(0xffffffffffffffffffffffffffffffffffffffffffffffffffffffffffffff)\n      and\n        /* \"prog2005-2025/lab01/task2/RockPapirScissors.sol\":5704:5712  moveChar */\n      dup2\n        /* \"prog2005-2025/lab01/task2/RockPapirScissors.sol\":5704:5727  moveChar == bytes1(\"S\") */\n      not(0xffffffffffffffffffffffffffffffffffffffffffffffffffffffffffffff)\n      and\n      eq\n        /* \"prog2005-2025/lab01/task2/RockPapirScissors.sol\":5626:5727  moveChar == bytes1(\"R\") ||... */\n    tag_160:\n        /* \"prog2005-2025/lab01/task2/RockPapirScissors.sol\":5605:5787  require(... */\n      tag_161\n      jumpi\n      mload(0x40)\n      0x08c379a000000000000000000000000000000000000000000000000000000000\n      dup2\n      mstore\n      0x04\n      add\n      tag_162\n      swap1\n      tag_163\n      jump\t// in\n    tag_162:\n      mload(0x40)\n      dup1\n      swap2\n      sub\n      swap1\n      revert\n    tag_161:\n        /* \"prog2005-2025/lab01/task2/RockPapirScissors.sol\":5867:5887  bytes32 computedHash */\n      0x00\n        /* \"prog2005-2025/lab01/task2/RockPapirScissors.sol\":5917:5922  _move */\n      dup7\n      dup7\n        /* \"prog2005-2025/lab01/task2/RockPapirScissors.sol\":5924:5929  _salt */\n      dup7\n      dup7\n        /* \"prog2005-2025/lab01/task2/RockPapirScissors.sol\":5900:5930  abi.encodePacked(_move, _salt) */\n      add(0x20, mload(0x40))\n      tag_164\n      swap5\n      swap4\n      swap3\n      swap2\n      swap1\n      tag_165\n      jump\t// in\n    tag_164:\n      mload(0x40)\n      0x20\n      dup2\n      dup4\n      sub\n      sub\n      dup2\n      mstore\n      swap1\n      0x40\n      mstore\n        /* \"prog2005-2025/lab01/task2/RockPapirScissors.sol\":5890:5931  keccak256(abi.encodePacked(_move, _salt)) */\n      dup1\n      mload\n      swap1\n      0x20\n      add\n      keccak256\n        /* \"prog2005-2025/lab01/task2/RockPapirScissors.sol\":5867:5931  bytes32 computedHash = keccak256(abi.encodePacked(_move, _salt)) */\n      swap1\n      pop\n        /* \"prog2005-2025/lab01/task2/RockPapirScissors.sol\":6007:6014  player1 */\n      0x00\n      dup1\n      sload\n      swap1\n      0x0100\n      exp\n      swap1\n      div\n      0xffffffffffffffffffffffffffffffffffffffff\n      and\n        /* \"prog2005-2025/lab01/task2/RockPapirScissors.sol\":5993:6014  msg.sender == player1 */\n      0xffffffffffffffffffffffffffffffffffffffff\n      and\n        /* \"prog2005-2025/lab01/task2/RockPapirScissors.sol\":5993:6003  msg.sender */\n      caller\n        /* \"prog2005-2025/lab01/task2/RockPapirScissors.sol\":5993:6014  msg.sender == player1 */\n      0xffffffffffffffffffffffffffffffffffffffff\n      and\n      sub\n        /* \"prog2005-2025/lab01/task2/RockPapirScissors.sol\":5989:6571  if (msg.sender == player1) {... */\n      tag_166\n      jumpi\n        /* \"prog2005-2025/lab01/task2/RockPapirScissors.sol\":6039:6048  revealed1 */\n      0x05\n      0x00\n      swap1\n      sload\n      swap1\n      0x0100\n      exp\n      swap1\n      div\n      0xff\n      and\n        /* \"prog2005-2025/lab01/task2/RockPapirScissors.sol\":6038:6048  !revealed1 */\n      iszero\n        /* \"prog2005-2025/lab01/task2/RockPapirScissors.sol\":6030:6077  require(!revealed1, \"Player1 already revealed\") */\n      tag_167\n      jumpi\n      mload(0x40)\n      0x08c379a000000000000000000000000000000000000000000000000000000000\n      dup2\n      mstore\n      0x04\n      add\n      tag_168\n      swap1\n      tag_169\n      jump\t// in\n    tag_168:\n      mload(0x40)\n      dup1\n      swap2\n      sub\n      swap1\n      revert\n    tag_167:\n        /* \"prog2005-2025/lab01/task2/RockPapirScissors.sol\":6115:6122  commit1 */\n      sload(0x03)\n        /* \"prog2005-2025/lab01/task2/RockPapirScissors.sol\":6099:6111  computedHash */\n      dup2\n        /* \"prog2005-2025/lab01/task2/RockPapirScissors.sol\":6099:6122  computedHash == commit1 */\n      eq\n        /* \"prog2005-2025/lab01/task2/RockPapirScissors.sol\":6091:6153  require(computedHash == commit1, \"Invalid reveal for player1\") */\n      tag_170\n      jumpi\n      mload(0x40)\n      0x08c379a000000000000000000000000000000000000000000000000000000000\n      dup2\n      mstore\n      0x04\n      add\n      tag_171\n      swap1\n      tag_172\n      jump\t// in\n    tag_171:\n      mload(0x40)\n      dup1\n      swap2\n      sub\n      swap1\n      revert\n    tag_170:\n        /* \"prog2005-2025/lab01/task2/RockPapirScissors.sol\":6179:6183  true */\n      0x01\n        /* \"prog2005-2025/lab01/task2/RockPapirScissors.sol\":6167:6176  revealed1 */\n      0x05\n      0x00\n        /* \"prog2005-2025/lab01/task2/RockPapirScissors.sol\":6167:6183  revealed1 = true */\n      0x0100\n      exp\n      dup2\n      sload\n      dup2\n      0xff\n      mul\n      not\n      and\n      swap1\n      dup4\n      iszero\n      iszero\n      mul\n      or\n      swap1\n      sstore\n      pop\n        /* \"prog2005-2025/lab01/task2/RockPapirScissors.sol\":6205:6210  _move */\n      dup7\n      dup7\n        /* \"prog2005-2025/lab01/task2/RockPapirScissors.sol\":6197:6202  move1 */\n      0x06\n        /* \"prog2005-2025/lab01/task2/RockPapirScissors.sol\":6197:6210  move1 = _move */\n      swap2\n      dup3\n      tag_173\n      swap3\n      swap2\n      swap1\n      tag_174\n      jump\t// in\n    tag_173:\n      pop\n        /* \"prog2005-2025/lab01/task2/RockPapirScissors.sol\":6238:6248  msg.sender */\n      caller\n        /* \"prog2005-2025/lab01/task2/RockPapirScissors.sol\":6229:6256  Revealed(msg.sender, _move) */\n      0xffffffffffffffffffffffffffffffffffffffff\n      and\n      0xee22ca58eb93549cf1b11737946f98a22ff5191a499f5839f6a9e7eb40dcb152\n        /* \"prog2005-2025/lab01/task2/RockPapirScissors.sol\":6250:6255  _move */\n      dup9\n      dup9\n        /* \"prog2005-2025/lab01/task2/RockPapirScissors.sol\":6229:6256  Revealed(msg.sender, _move) */\n      mload(0x40)\n      tag_175\n      swap3\n      swap2\n      swap1\n      tag_176\n      jump\t// in\n    tag_175:\n      mload(0x40)\n      dup1\n      swap2\n      sub\n      swap1\n      log2\n        /* \"prog2005-2025/lab01/task2/RockPapirScissors.sol\":5989:6571  if (msg.sender == player1) {... */\n      jump(tag_177)\n    tag_166:\n        /* \"prog2005-2025/lab01/task2/RockPapirScissors.sol\":6343:6352  revealed2 */\n      0x05\n      0x01\n      swap1\n      sload\n      swap1\n      0x0100\n      exp\n      swap1\n      div\n      0xff\n      and\n        /* \"prog2005-2025/lab01/task2/RockPapirScissors.sol\":6342:6352  !revealed2 */\n      iszero\n        /* \"prog2005-2025/lab01/task2/RockPapirScissors.sol\":6334:6381  require(!revealed2, \"Player2 already revealed\") */\n      tag_178\n      jumpi\n      mload(0x40)\n      0x08c379a000000000000000000000000000000000000000000000000000000000\n      dup2\n      mstore\n      0x04\n      add\n      tag_179\n      swap1\n      tag_180\n      jump\t// in\n    tag_179:\n      mload(0x40)\n      dup1\n      swap2\n      sub\n      swap1\n      revert\n    tag_178:\n        /* \"prog2005-2025/lab01/task2/RockPapirScissors.sol\":6419:6426  commit2 */\n      sload(0x04)\n        /* \"prog2005-2025/lab01/task2/RockPapirScissors.sol\":6403:6415  computedHash */\n      dup2\n        /* \"prog2005-2025/lab01/task2/RockPapirScissors.sol\":6403:6426  computedHash == commit2 */\n      eq\n        /* \"prog2005-2025/lab01/task2/RockPapirScissors.sol\":6395:6457  require(computedHash == commit2, \"Invalid reveal for player2\") */\n      tag_181\n      jumpi\n      mload(0x40)\n      0x08c379a000000000000000000000000000000000000000000000000000000000\n      dup2\n      mstore\n      0x04\n      add\n      tag_182\n      swap1\n      tag_183\n      jump\t// in\n    tag_182:\n      mload(0x40)\n      dup1\n      swap2\n      sub\n      swap1\n      revert\n    tag_181:\n        /* \"prog2005-2025/lab01/task2/RockPapirScissors.sol\":6483:6487  true */\n      0x01\n        /* \"prog2005-2025/lab01/task2/RockPapirScissors.sol\":6471:6480  revealed2 */\n      0x05\n      0x01\n        /* \"prog2005-2025/lab01/task2/RockPapirScissors.sol\":6471:6487  revealed2 = true */\n      0x0100\n      exp\n      dup2\n      sload\n      dup2\n      0xff\n      mul\n      not\n      and\n      swap1\n      dup4\n      iszero\n      iszero\n      mul\n      or\n      swap1\n      sstore\n      pop\n        /* \"prog2005-2025/lab01/task2/RockPapirScissors.sol\":6509:6514  _move */\n      dup7\n      dup7\n        /* \"prog2005-2025/lab01/task2/RockPapirScissors.sol\":6501:6506  move2 */\n      0x07\n        /* \"prog2005-2025/lab01/task2/RockPapirScissors.sol\":6501:6514  move2 = _move */\n      swap2\n      dup3\n      tag_184\n      swap3\n      swap2\n      swap1\n      tag_174\n      jump\t// in\n    tag_184:\n      pop\n        /* \"prog2005-2025/lab01/task2/RockPapirScissors.sol\":6542:6552  msg.sender */\n      caller\n        /* \"prog2005-2025/lab01/task2/RockPapirScissors.sol\":6533:6560  Revealed(msg.sender, _move) */\n      0xffffffffffffffffffffffffffffffffffffffff\n      and\n      0xee22ca58eb93549cf1b11737946f98a22ff5191a499f5839f6a9e7eb40dcb152\n        /* \"prog2005-2025/lab01/task2/RockPapirScissors.sol\":6554:6559  _move */\n      dup9\n      dup9\n        /* \"prog2005-2025/lab01/task2/RockPapirScissors.sol\":6533:6560  Revealed(msg.sender, _move) */\n      mload(0x40)\n      tag_185\n      swap3\n      swap2\n      swap1\n      tag_176\n      jump\t// in\n    tag_185:\n      mload(0x40)\n      dup1\n      swap2\n      sub\n      swap1\n      log2\n        /* \"prog2005-2025/lab01/task2/RockPapirScissors.sol\":5989:6571  if (msg.sender == player1) {... */\n    tag_177:\n        /* \"prog2005-2025/lab01/task2/RockPapirScissors.sol\":6663:6672  revealed1 */\n      0x05\n      0x00\n      swap1\n      sload\n      swap1\n      0x0100\n      exp\n      swap1\n      div\n      0xff\n      and\n        /* \"prog2005-2025/lab01/task2/RockPapirScissors.sol\":6663:6685  revealed1 && revealed2 */\n      dup1\n      iszero\n      tag_186\n      jumpi\n      pop\n        /* \"prog2005-2025/lab01/task2/RockPapirScissors.sol\":6676:6685  revealed2 */\n      0x05\n      0x01\n      swap1\n      sload\n      swap1\n      0x0100\n      exp\n      swap1\n      div\n      0xff\n      and\n        /* \"prog2005-2025/lab01/task2/RockPapirScissors.sol\":6663:6685  revealed1 && revealed2 */\n    tag_186:\n        /* \"prog2005-2025/lab01/task2/RockPapirScissors.sol\":6659:6730  if (revealed1 && revealed2) {... */\n      iszero\n      tag_187\n      jumpi\n        /* \"prog2005-2025/lab01/task2/RockPapirScissors.sol\":6701:6719  _determineWinner() */\n      tag_188\n        /* \"prog2005-2025/lab01/task2/RockPapirScissors.sol\":6701:6717  _determineWinner */\n      tag_189\n        /* \"prog2005-2025/lab01/task2/RockPapirScissors.sol\":6701:6719  _determineWinner() */\n      jump\t// in\n    tag_188:\n        /* \"prog2005-2025/lab01/task2/RockPapirScissors.sol\":6659:6730  if (revealed1 && revealed2) {... */\n    tag_187:\n        /* \"prog2005-2025/lab01/task2/RockPapirScissors.sol\":5197:6736  {... */\n      pop\n      pop\n      pop\n        /* \"prog2005-2025/lab01/task2/RockPapirScissors.sol\":5126:6736  function reveal(string calldata _move, string calldata _salt) external {... */\n      pop\n      pop\n      pop\n      pop\n      jump\t// out\n        /* \"prog2005-2025/lab01/task2/RockPapirScissors.sol\":2052:2074  bytes32 public commit1 */\n    tag_68:\n      sload(0x03)\n      dup2\n      jump\t// out\n        /* \"prog2005-2025/lab01/task2/RockPapirScissors.sol\":2278:2299  bool public revealed2 */\n    tag_73:\n      0x05\n      0x01\n      swap1\n      sload\n      swap1\n      0x0100\n      exp\n      swap1\n      div\n      0xff\n      and\n      dup2\n      jump\t// out\n        /* \"prog2005-2025/lab01/task2/RockPapirScissors.sol\":2437:2456  string public move2 */\n    tag_77:\n      0x07\n      dup1\n      sload\n      tag_190\n      swap1\n      tag_106\n      jump\t// in\n    tag_190:\n      dup1\n      0x1f\n      add\n      0x20\n      dup1\n      swap2\n      div\n      mul\n      0x20\n      add\n      mload(0x40)\n      swap1\n      dup2\n      add\n      0x40\n      mstore\n      dup1\n      swap3\n      swap2\n      swap1\n      dup2\n      dup2\n      mstore\n      0x20\n      add\n      dup3\n      dup1\n      sload\n      tag_191\n      swap1\n      tag_106\n      jump\t// in\n    tag_191:\n      dup1\n      iszero\n      tag_192\n      jumpi\n      dup1\n      0x1f\n      lt\n      tag_193\n      jumpi\n      0x0100\n      dup1\n      dup4\n      sload\n      div\n      mul\n      dup4\n      mstore\n      swap2\n      0x20\n      add\n      swap2\n      jump(tag_192)\n    tag_193:\n      dup3\n      add\n      swap2\n      swap1\n      0x00\n      mstore\n      keccak256(0x00, 0x20)\n      swap1\n    tag_194:\n      dup2\n      sload\n      dup2\n      mstore\n      swap1\n      0x01\n      add\n      swap1\n      0x20\n      add\n      dup1\n      dup4\n      gt\n      tag_194\n      jumpi\n      dup3\n      swap1\n      sub\n      0x1f\n      and\n      dup3\n      add\n      swap2\n    tag_192:\n      pop\n      pop\n      pop\n      pop\n      pop\n      dup2\n      jump\t// out\n        /* \"prog2005-2025/lab01/task2/RockPapirScissors.sol\":3602:4594  function play(bytes32 _commitment) external payable {... */\n    tag_82:\n        /* \"prog2005-2025/lab01/task2/RockPapirScissors.sol\":3684:3685  0 */\n      0x00\n        /* \"prog2005-2025/lab01/task2/RockPapirScissors.sol\":3672:3681  msg.value */\n      callvalue\n        /* \"prog2005-2025/lab01/task2/RockPapirScissors.sol\":3672:3685  msg.value > 0 */\n      gt\n        /* \"prog2005-2025/lab01/task2/RockPapirScissors.sol\":3664:3712  require(msg.value > 0, \"Stake must be non-zero\") */\n      tag_196\n      jumpi\n      mload(0x40)\n      0x08c379a000000000000000000000000000000000000000000000000000000000\n      dup2\n      mstore\n      0x04\n      add\n      tag_197\n      swap1\n      tag_198\n      jump\t// in\n    tag_197:\n      mload(0x40)\n      dup1\n      swap2\n      sub\n      swap1\n      revert\n    tag_196:\n        /* \"prog2005-2025/lab01/task2/RockPapirScissors.sol\":3811:3812  0 */\n      0x00\n        /* \"prog2005-2025/lab01/task2/RockPapirScissors.sol\":3792:3813  player1 == address(0) */\n      0xffffffffffffffffffffffffffffffffffffffff\n      and\n        /* \"prog2005-2025/lab01/task2/RockPapirScissors.sol\":3792:3799  player1 */\n      0x00\n      dup1\n      sload\n      swap1\n      0x0100\n      exp\n      swap1\n      div\n      0xffffffffffffffffffffffffffffffffffffffff\n      and\n        /* \"prog2005-2025/lab01/task2/RockPapirScissors.sol\":3792:3813  player1 == address(0) */\n      0xffffffffffffffffffffffffffffffffffffffff\n      and\n      sub\n        /* \"prog2005-2025/lab01/task2/RockPapirScissors.sol\":3788:4588  if (player1 == address(0)) {... */\n      tag_199\n      jumpi\n        /* \"prog2005-2025/lab01/task2/RockPapirScissors.sol\":3839:3849  msg.sender */\n      caller\n        /* \"prog2005-2025/lab01/task2/RockPapirScissors.sol\":3829:3836  player1 */\n      0x00\n      dup1\n        /* \"prog2005-2025/lab01/task2/RockPapirScissors.sol\":3829:3849  player1 = msg.sender */\n      0x0100\n      exp\n      dup2\n      sload\n      dup2\n      0xffffffffffffffffffffffffffffffffffffffff\n      mul\n      not\n      and\n      swap1\n      dup4\n      0xffffffffffffffffffffffffffffffffffffffff\n      and\n      mul\n      or\n      swap1\n      sstore\n      pop\n        /* \"prog2005-2025/lab01/task2/RockPapirScissors.sol\":3873:3884  _commitment */\n      dup1\n        /* \"prog2005-2025/lab01/task2/RockPapirScissors.sol\":3863:3870  commit1 */\n      0x03\n        /* \"prog2005-2025/lab01/task2/RockPapirScissors.sol\":3863:3884  commit1 = _commitment */\n      dup2\n      swap1\n      sstore\n      pop\n        /* \"prog2005-2025/lab01/task2/RockPapirScissors.sol\":3904:3913  msg.value */\n      callvalue\n        /* \"prog2005-2025/lab01/task2/RockPapirScissors.sol\":3898:3901  bet */\n      0x02\n        /* \"prog2005-2025/lab01/task2/RockPapirScissors.sol\":3898:3913  bet = msg.value */\n      dup2\n      swap1\n      sstore\n      pop\n        /* \"prog2005-2025/lab01/task2/RockPapirScissors.sol\":3939:3949  msg.sender */\n      caller\n        /* \"prog2005-2025/lab01/task2/RockPapirScissors.sol\":3932:3963  Played(msg.sender, _commitment) */\n      0xffffffffffffffffffffffffffffffffffffffff\n      and\n      0xa563b85fc6323995d96ceafe952aabc2a413b957735468172e9e7019e5ce7cf2\n        /* \"prog2005-2025/lab01/task2/RockPapirScissors.sol\":3951:3962  _commitment */\n      dup3\n        /* \"prog2005-2025/lab01/task2/RockPapirScissors.sol\":3932:3963  Played(msg.sender, _commitment) */\n      mload(0x40)\n      tag_200\n      swap2\n      swap1\n      tag_70\n      jump\t// in\n    tag_200:\n      mload(0x40)\n      dup1\n      swap2\n      sub\n      swap1\n      log2\n        /* \"prog2005-2025/lab01/task2/RockPapirScissors.sol\":3788:4588  if (player1 == address(0)) {... */\n      jump(tag_201)\n    tag_199:\n        /* \"prog2005-2025/lab01/task2/RockPapirScissors.sol\":4127:4128  0 */\n      0x00\n        /* \"prog2005-2025/lab01/task2/RockPapirScissors.sol\":4108:4129  player2 == address(0) */\n      0xffffffffffffffffffffffffffffffffffffffff\n      and\n        /* \"prog2005-2025/lab01/task2/RockPapirScissors.sol\":4108:4115  player2 */\n      0x01\n      0x00\n      swap1\n      sload\n      swap1\n      0x0100\n      exp\n      swap1\n      div\n      0xffffffffffffffffffffffffffffffffffffffff\n      and\n        /* \"prog2005-2025/lab01/task2/RockPapirScissors.sol\":4108:4129  player2 == address(0) */\n      0xffffffffffffffffffffffffffffffffffffffff\n      and\n      eq\n        /* \"prog2005-2025/lab01/task2/RockPapirScissors.sol\":4100:4162  require(player2 == address(0), \"Game already has two players\") */\n      tag_202\n      jumpi\n      mload(0x40)\n      0x08c379a000000000000000000000000000000000000000000000000000000000\n      dup2\n      mstore\n      0x04\n      add\n      tag_203\n      swap1\n      tag_204\n      jump\t// in\n    tag_203:\n      mload(0x40)\n      dup1\n      swap2\n      sub\n      swap1\n      revert\n    tag_202:\n        /* \"prog2005-2025/lab01/task2/RockPapirScissors.sol\":4198:4205  player1 */\n      0x00\n      dup1\n      sload\n      swap1\n      0x0100\n      exp\n      swap1\n      div\n      0xffffffffffffffffffffffffffffffffffffffff\n      and\n        /* \"prog2005-2025/lab01/task2/RockPapirScissors.sol\":4184:4205  msg.sender != player1 */\n      0xffffffffffffffffffffffffffffffffffffffff\n      and\n        /* \"prog2005-2025/lab01/task2/RockPapirScissors.sol\":4184:4194  msg.sender */\n      caller\n        /* \"prog2005-2025/lab01/task2/RockPapirScissors.sol\":4184:4205  msg.sender != player1 */\n      0xffffffffffffffffffffffffffffffffffffffff\n      and\n      sub\n        /* \"prog2005-2025/lab01/task2/RockPapirScissors.sol\":4176:4238  require(msg.sender != player1, \"Cannot play against yourself\") */\n      tag_205\n      jumpi\n      mload(0x40)\n      0x08c379a000000000000000000000000000000000000000000000000000000000\n      dup2\n      mstore\n      0x04\n      add\n      tag_206\n      swap1\n      tag_207\n      jump\t// in\n    tag_206:\n      mload(0x40)\n      dup1\n      swap2\n      sub\n      swap1\n      revert\n    tag_205:\n        /* \"prog2005-2025/lab01/task2/RockPapirScissors.sol\":4274:4277  bet */\n      sload(0x02)\n        /* \"prog2005-2025/lab01/task2/RockPapirScissors.sol\":4261:4270  msg.value */\n      callvalue\n        /* \"prog2005-2025/lab01/task2/RockPapirScissors.sol\":4261:4277  msg.value == bet */\n      eq\n        /* \"prog2005-2025/lab01/task2/RockPapirScissors.sol\":4253:4314  require(msg.value == bet, \"Stake must match player1's stake\") */\n      tag_208\n      jumpi\n      mload(0x40)\n      0x08c379a000000000000000000000000000000000000000000000000000000000\n      dup2\n      mstore\n      0x04\n      add\n      tag_209\n      swap1\n      tag_210\n      jump\t// in\n    tag_209:\n      mload(0x40)\n      dup1\n      swap2\n      sub\n      swap1\n      revert\n    tag_208:\n        /* \"prog2005-2025/lab01/task2/RockPapirScissors.sol\":4351:4361  msg.sender */\n      caller\n        /* \"prog2005-2025/lab01/task2/RockPapirScissors.sol\":4341:4348  player2 */\n      0x01\n      0x00\n        /* \"prog2005-2025/lab01/task2/RockPapirScissors.sol\":4341:4361  player2 = msg.sender */\n      0x0100\n      exp\n      dup2\n      sload\n      dup2\n      0xffffffffffffffffffffffffffffffffffffffff\n      mul\n      not\n      and\n      swap1\n      dup4\n      0xffffffffffffffffffffffffffffffffffffffff\n      and\n      mul\n      or\n      swap1\n      sstore\n      pop\n        /* \"prog2005-2025/lab01/task2/RockPapirScissors.sol\":4385:4396  _commitment */\n      dup1\n        /* \"prog2005-2025/lab01/task2/RockPapirScissors.sol\":4375:4382  commit2 */\n      0x04\n        /* \"prog2005-2025/lab01/task2/RockPapirScissors.sol\":4375:4396  commit2 = _commitment */\n      dup2\n      swap1\n      sstore\n      pop\n        /* \"prog2005-2025/lab01/task2/RockPapirScissors.sol\":4512:4527  block.timestamp */\n      timestamp\n        /* \"prog2005-2025/lab01/task2/RockPapirScissors.sol\":4496:4509  gameStartTime */\n      0x08\n        /* \"prog2005-2025/lab01/task2/RockPapirScissors.sol\":4496:4527  gameStartTime = block.timestamp */\n      dup2\n      swap1\n      sstore\n      pop\n        /* \"prog2005-2025/lab01/task2/RockPapirScissors.sol\":4553:4563  msg.sender */\n      caller\n        /* \"prog2005-2025/lab01/task2/RockPapirScissors.sol\":4546:4577  Played(msg.sender, _commitment) */\n      0xffffffffffffffffffffffffffffffffffffffff\n      and\n      0xa563b85fc6323995d96ceafe952aabc2a413b957735468172e9e7019e5ce7cf2\n        /* \"prog2005-2025/lab01/task2/RockPapirScissors.sol\":4565:4576  _commitment */\n      dup3\n        /* \"prog2005-2025/lab01/task2/RockPapirScissors.sol\":4546:4577  Played(msg.sender, _commitment) */\n      mload(0x40)\n      tag_211\n      swap2\n      swap1\n      tag_70\n      jump\t// in\n    tag_211:\n      mload(0x40)\n      dup1\n      swap2\n      sub\n      swap1\n      log2\n        /* \"prog2005-2025/lab01/task2/RockPapirScissors.sol\":3788:4588  if (player1 == address(0)) {... */\n    tag_201:\n        /* \"prog2005-2025/lab01/task2/RockPapirScissors.sol\":3602:4594  function play(bytes32 _commitment) external payable {... */\n      pop\n      jump\t// out\n        /* \"prog2005-2025/lab01/task2/RockPapirScissors.sol\":1899:1921  address public player1 */\n    tag_85:\n      0x00\n      dup1\n      sload\n      swap1\n      0x0100\n      exp\n      swap1\n      div\n      0xffffffffffffffffffffffffffffffffffffffff\n      and\n      dup2\n      jump\t// out\n        /* \"prog2005-2025/lab01/task2/RockPapirScissors.sol\":2793:2808  bool public tie */\n    tag_89:\n      0x09\n      0x15\n      swap1\n      sload\n      swap1\n      0x0100\n      exp\n      swap1\n      div\n      0xff\n      and\n      dup2\n      jump\t// out\n        /* \"prog2005-2025/lab01/task2/RockPapirScissors.sol\":2724:2745  address public winner */\n    tag_93:\n      0x09\n      0x01\n      swap1\n      sload\n      swap1\n      0x0100\n      exp\n      swap1\n      div\n      0xffffffffffffffffffffffffffffffffffffffff\n      and\n      dup2\n      jump\t// out\n        /* \"prog2005-2025/lab01/task2/RockPapirScissors.sol\":2985:3038  mapping(address => uint256) public pendingWithdrawals */\n    tag_99:\n      mstore(0x20, 0x0a)\n      dup1\n      0x00\n      mstore\n      keccak256(0x00, 0x40)\n      0x00\n      swap2\n      pop\n      swap1\n      pop\n      sload\n      dup2\n      jump\t// out\n        /* \"prog2005-2025/lab01/task2/RockPapirScissors.sol\":2126:2148  bytes32 public commit2 */\n    tag_103:\n      sload(0x04)\n      dup2\n      jump\t// out\n        /* \"prog2005-2025/lab01/task2/RockPapirScissors.sol\":10951:11310  function _resetGame() internal {... */\n    tag_147:\n        /* \"prog2005-2025/lab01/task2/RockPapirScissors.sol\":11010:11011  0 */\n      0x00\n        /* \"prog2005-2025/lab01/task2/RockPapirScissors.sol\":10992:10999  player1 */\n      dup1\n      0x00\n        /* \"prog2005-2025/lab01/task2/RockPapirScissors.sol\":10992:11012  player1 = address(0) */\n      0x0100\n      exp\n      dup2\n      sload\n      dup2\n      0xffffffffffffffffffffffffffffffffffffffff\n      mul\n      not\n      and\n      swap1\n      dup4\n      0xffffffffffffffffffffffffffffffffffffffff\n      and\n      mul\n      or\n      swap1\n      sstore\n      pop\n        /* \"prog2005-2025/lab01/task2/RockPapirScissors.sol\":11040:11041  0 */\n      0x00\n        /* \"prog2005-2025/lab01/task2/RockPapirScissors.sol\":11022:11029  player2 */\n      0x01\n      0x00\n        /* \"prog2005-2025/lab01/task2/RockPapirScissors.sol\":11022:11042  player2 = address(0) */\n      0x0100\n      exp\n      dup2\n      sload\n      dup2\n      0xffffffffffffffffffffffffffffffffffffffff\n      mul\n      not\n      and\n      swap1\n      dup4\n      0xffffffffffffffffffffffffffffffffffffffff\n      and\n      mul\n      or\n      swap1\n      sstore\n      pop\n        /* \"prog2005-2025/lab01/task2/RockPapirScissors.sol\":11058:11059  0 */\n      0x00\n        /* \"prog2005-2025/lab01/task2/RockPapirScissors.sol\":11052:11055  bet */\n      0x02\n        /* \"prog2005-2025/lab01/task2/RockPapirScissors.sol\":11052:11059  bet = 0 */\n      dup2\n      swap1\n      sstore\n      pop\n        /* \"prog2005-2025/lab01/task2/RockPapirScissors.sol\":11079:11080  0 */\n      0x00\n        /* \"prog2005-2025/lab01/task2/RockPapirScissors.sol\":11069:11080  commit1 = 0 */\n      dup1\n      shl\n        /* \"prog2005-2025/lab01/task2/RockPapirScissors.sol\":11069:11076  commit1 */\n      0x03\n        /* \"prog2005-2025/lab01/task2/RockPapirScissors.sol\":11069:11080  commit1 = 0 */\n      dup2\n      swap1\n      sstore\n      pop\n        /* \"prog2005-2025/lab01/task2/RockPapirScissors.sol\":11100:11101  0 */\n      0x00\n        /* \"prog2005-2025/lab01/task2/RockPapirScissors.sol\":11090:11101  commit2 = 0 */\n      dup1\n      shl\n        /* \"prog2005-2025/lab01/task2/RockPapirScissors.sol\":11090:11097  commit2 */\n      0x04\n        /* \"prog2005-2025/lab01/task2/RockPapirScissors.sol\":11090:11101  commit2 = 0 */\n      dup2\n      swap1\n      sstore\n      pop\n        /* \"prog2005-2025/lab01/task2/RockPapirScissors.sol\":11123:11128  false */\n      0x00\n        /* \"prog2005-2025/lab01/task2/RockPapirScissors.sol\":11111:11120  revealed1 */\n      0x05\n      0x00\n        /* \"prog2005-2025/lab01/task2/RockPapirScissors.sol\":11111:11128  revealed1 = false */\n      0x0100\n      exp\n      dup2\n      sload\n      dup2\n      0xff\n      mul\n      not\n      and\n      swap1\n      dup4\n      iszero\n      iszero\n      mul\n      or\n      swap1\n      sstore\n      pop\n        /* \"prog2005-2025/lab01/task2/RockPapirScissors.sol\":11150:11155  false */\n      0x00\n        /* \"prog2005-2025/lab01/task2/RockPapirScissors.sol\":11138:11147  revealed2 */\n      0x05\n      0x01\n        /* \"prog2005-2025/lab01/task2/RockPapirScissors.sol\":11138:11155  revealed2 = false */\n      0x0100\n      exp\n      dup2\n      sload\n      dup2\n      0xff\n      mul\n      not\n      and\n      swap1\n      dup4\n      iszero\n      iszero\n      mul\n      or\n      swap1\n      sstore\n      pop\n        /* \"prog2005-2025/lab01/task2/RockPapirScissors.sol\":11165:11175  move1 = \"\" */\n      mload(0x40)\n      dup1\n      0x20\n      add\n      0x40\n      mstore\n      dup1\n      0x00\n      dup2\n      mstore\n      pop\n        /* \"prog2005-2025/lab01/task2/RockPapirScissors.sol\":11165:11170  move1 */\n      0x06\n        /* \"prog2005-2025/lab01/task2/RockPapirScissors.sol\":11165:11175  move1 = \"\" */\n      swap1\n      dup2\n      tag_213\n      swap2\n      swap1\n      tag_214\n      jump\t// in\n    tag_213:\n      pop\n        /* \"prog2005-2025/lab01/task2/RockPapirScissors.sol\":11185:11195  move2 = \"\" */\n      mload(0x40)\n      dup1\n      0x20\n      add\n      0x40\n      mstore\n      dup1\n      0x00\n      dup2\n      mstore\n      pop\n        /* \"prog2005-2025/lab01/task2/RockPapirScissors.sol\":11185:11190  move2 */\n      0x07\n        /* \"prog2005-2025/lab01/task2/RockPapirScissors.sol\":11185:11195  move2 = \"\" */\n      swap1\n      dup2\n      tag_215\n      swap2\n      swap1\n      tag_214\n      jump\t// in\n    tag_215:\n      pop\n        /* \"prog2005-2025/lab01/task2/RockPapirScissors.sol\":11221:11222  0 */\n      0x00\n        /* \"prog2005-2025/lab01/task2/RockPapirScissors.sol\":11205:11218  gameStartTime */\n      0x08\n        /* \"prog2005-2025/lab01/task2/RockPapirScissors.sol\":11205:11222  gameStartTime = 0 */\n      dup2\n      swap1\n      sstore\n      pop\n        /* \"prog2005-2025/lab01/task2/RockPapirScissors.sol\":11248:11253  false */\n      0x00\n        /* \"prog2005-2025/lab01/task2/RockPapirScissors.sol\":11232:11245  gameCompleted */\n      0x09\n      0x00\n        /* \"prog2005-2025/lab01/task2/RockPapirScissors.sol\":11232:11253  gameCompleted = false */\n      0x0100\n      exp\n      dup2\n      sload\n      dup2\n      0xff\n      mul\n      not\n      and\n      swap1\n      dup4\n      iszero\n      iszero\n      mul\n      or\n      swap1\n      sstore\n      pop\n        /* \"prog2005-2025/lab01/task2/RockPapirScissors.sol\":11280:11281  0 */\n      0x00\n        /* \"prog2005-2025/lab01/task2/RockPapirScissors.sol\":11263:11269  winner */\n      0x09\n      0x01\n        /* \"prog2005-2025/lab01/task2/RockPapirScissors.sol\":11263:11282  winner = address(0) */\n      0x0100\n      exp\n      dup2\n      sload\n      dup2\n      0xffffffffffffffffffffffffffffffffffffffff\n      mul\n      not\n      and\n      swap1\n      dup4\n      0xffffffffffffffffffffffffffffffffffffffff\n      and\n      mul\n      or\n      swap1\n      sstore\n      pop\n        /* \"prog2005-2025/lab01/task2/RockPapirScissors.sol\":11298:11303  false */\n      0x00\n        /* \"prog2005-2025/lab01/task2/RockPapirScissors.sol\":11292:11295  tie */\n      0x09\n      0x15\n        /* \"prog2005-2025/lab01/task2/RockPapirScissors.sol\":11292:11303  tie = false */\n      0x0100\n      exp\n      dup2\n      sload\n      dup2\n      0xff\n      mul\n      not\n      and\n      swap1\n      dup4\n      iszero\n      iszero\n      mul\n      or\n      swap1\n      sstore\n      pop\n        /* \"prog2005-2025/lab01/task2/RockPapirScissors.sol\":10951:11310  function _resetGame() internal {... */\n      jump\t// out\n        /* \"prog2005-2025/lab01/task2/RockPapirScissors.sol\":7103:8241  function _determineWinner() internal {... */\n    tag_189:\n        /* \"prog2005-2025/lab01/task2/RockPapirScissors.sol\":7209:7224  bytes memory m1 */\n      0x00\n        /* \"prog2005-2025/lab01/task2/RockPapirScissors.sol\":7233:7238  move1 */\n      0x06\n        /* \"prog2005-2025/lab01/task2/RockPapirScissors.sol\":7209:7239  bytes memory m1 = bytes(move1) */\n      dup1\n      sload\n      tag_217\n      swap1\n      tag_106\n      jump\t// in\n    tag_217:\n      dup1\n      0x1f\n      add\n      0x20\n      dup1\n      swap2\n      div\n      mul\n      0x20\n      add\n      mload(0x40)\n      swap1\n      dup2\n      add\n      0x40\n      mstore\n      dup1\n      swap3\n      swap2\n      swap1\n      dup2\n      dup2\n      mstore\n      0x20\n      add\n      dup3\n      dup1\n      sload\n      tag_218\n      swap1\n      tag_106\n      jump\t// in\n    tag_218:\n      dup1\n      iszero\n      tag_219\n      jumpi\n      dup1\n      0x1f\n      lt\n      tag_220\n      jumpi\n      0x0100\n      dup1\n      dup4\n      sload\n      div\n      mul\n      dup4\n      mstore\n      swap2\n      0x20\n      add\n      swap2\n      jump(tag_219)\n    tag_220:\n      dup3\n      add\n      swap2\n      swap1\n      0x00\n      mstore\n      keccak256(0x00, 0x20)\n      swap1\n    tag_221:\n      dup2\n      sload\n      dup2\n      mstore\n      swap1\n      0x01\n      add\n      swap1\n      0x20\n      add\n      dup1\n      dup4\n      gt\n      tag_221\n      jumpi\n      dup3\n      swap1\n      sub\n      0x1f\n      and\n      dup3\n      add\n      swap2\n    tag_219:\n      pop\n      pop\n      pop\n      pop\n      pop\n      swap1\n      pop\n        /* \"prog2005-2025/lab01/task2/RockPapirScissors.sol\":7249:7264  bytes memory m2 */\n      0x00\n        /* \"prog2005-2025/lab01/task2/RockPapirScissors.sol\":7273:7278  move2 */\n      0x07\n        /* \"prog2005-2025/lab01/task2/RockPapirScissors.sol\":7249:7279  bytes memory m2 = bytes(move2) */\n      dup1\n      sload\n      tag_222\n      swap1\n      tag_106\n      jump\t// in\n    tag_222:\n      dup1\n      0x1f\n      add\n      0x20\n      dup1\n      swap2\n      div\n      mul\n      0x20\n      add\n      mload(0x40)\n      swap1\n      dup2\n      add\n      0x40\n      mstore\n      dup1\n      swap3\n      swap2\n      swap1\n      dup2\n      dup2\n      mstore\n      0x20\n      add\n      dup3\n      dup1\n      sload\n      tag_223\n      swap1\n      tag_106\n      jump\t// in\n    tag_223:\n      dup1\n      iszero\n      tag_224\n      jumpi\n      dup1\n      0x1f\n      lt\n      tag_225\n      jumpi\n      0x0100\n      dup1\n      dup4\n      sload\n      div\n      mul\n      dup4\n      mstore\n      swap2\n      0x20\n      add\n      swap2\n      jump(tag_224)\n    tag_225:\n      dup3\n      add\n      swap2\n      swap1\n      0x00\n      mstore\n      keccak256(0x00, 0x20)\n      swap1\n    tag_226:\n      dup2\n      sload\n      dup2\n      mstore\n      swap1\n      0x01\n      add\n      swap1\n      0x20\n      add\n      dup1\n      dup4\n      gt\n      tag_226\n      jumpi\n      dup3\n      swap1\n      sub\n      0x1f\n      and\n      dup3\n      add\n      swap2\n    tag_224:\n      pop\n      pop\n      pop\n      pop\n      pop\n      swap1\n      pop\n        /* \"prog2005-2025/lab01/task2/RockPapirScissors.sol\":7336:7338  m2 */\n      dup1\n        /* \"prog2005-2025/lab01/task2/RockPapirScissors.sol\":7339:7340  0 */\n      0x00\n        /* \"prog2005-2025/lab01/task2/RockPapirScissors.sol\":7336:7341  m2[0] */\n      dup2\n      mload\n      dup2\n      lt\n      tag_227\n      jumpi\n      tag_228\n      tag_158\n      jump\t// in\n    tag_228:\n    tag_227:\n      0x20\n      add\n      add\n      mload\n      0xf8\n      shr\n      0xf8\n      shl\n        /* \"prog2005-2025/lab01/task2/RockPapirScissors.sol\":7327:7341  m1[0] == m2[0] */\n      not(0xffffffffffffffffffffffffffffffffffffffffffffffffffffffffffffff)\n      and\n        /* \"prog2005-2025/lab01/task2/RockPapirScissors.sol\":7327:7329  m1 */\n      dup3\n        /* \"prog2005-2025/lab01/task2/RockPapirScissors.sol\":7330:7331  0 */\n      0x00\n        /* \"prog2005-2025/lab01/task2/RockPapirScissors.sol\":7327:7332  m1[0] */\n      dup2\n      mload\n      dup2\n      lt\n      tag_229\n      jumpi\n      tag_230\n      tag_158\n      jump\t// in\n    tag_230:\n    tag_229:\n      0x20\n      add\n      add\n      mload\n      0xf8\n      shr\n      0xf8\n      shl\n        /* \"prog2005-2025/lab01/task2/RockPapirScissors.sol\":7327:7341  m1[0] == m2[0] */\n      not(0xffffffffffffffffffffffffffffffffffffffffffffffffffffffffffffff)\n      and\n      sub\n        /* \"prog2005-2025/lab01/task2/RockPapirScissors.sol\":7324:8235  if(m1[0] == m2[0]) {... */\n      tag_231\n      jumpi\n        /* \"prog2005-2025/lab01/task2/RockPapirScissors.sol\":7363:7367  true */\n      0x01\n        /* \"prog2005-2025/lab01/task2/RockPapirScissors.sol\":7357:7360  tie */\n      0x09\n      0x15\n        /* \"prog2005-2025/lab01/task2/RockPapirScissors.sol\":7357:7367  tie = true */\n      0x0100\n      exp\n      dup2\n      sload\n      dup2\n      0xff\n      mul\n      not\n      and\n      swap1\n      dup4\n      iszero\n      iszero\n      mul\n      or\n      swap1\n      sstore\n      pop\n        /* \"prog2005-2025/lab01/task2/RockPapirScissors.sol\":7397:7401  true */\n      0x01\n        /* \"prog2005-2025/lab01/task2/RockPapirScissors.sol\":7381:7394  gameCompleted */\n      0x09\n      0x00\n        /* \"prog2005-2025/lab01/task2/RockPapirScissors.sol\":7381:7401  gameCompleted = true */\n      0x0100\n      exp\n      dup2\n      sload\n      dup2\n      0xff\n      mul\n      not\n      and\n      swap1\n      dup4\n      iszero\n      iszero\n      mul\n      or\n      swap1\n      sstore\n      pop\n        /* \"prog2005-2025/lab01/task2/RockPapirScissors.sol\":7528:7531  bet */\n      sload(0x02)\n        /* \"prog2005-2025/lab01/task2/RockPapirScissors.sol\":7498:7516  pendingWithdrawals */\n      0x0a\n        /* \"prog2005-2025/lab01/task2/RockPapirScissors.sol\":7498:7525  pendingWithdrawals[player1] */\n      0x00\n        /* \"prog2005-2025/lab01/task2/RockPapirScissors.sol\":7517:7524  player1 */\n      dup1\n      0x00\n      swap1\n      sload\n      swap1\n      0x0100\n      exp\n      swap1\n      div\n      0xffffffffffffffffffffffffffffffffffffffff\n      and\n        /* \"prog2005-2025/lab01/task2/RockPapirScissors.sol\":7498:7525  pendingWithdrawals[player1] */\n      0xffffffffffffffffffffffffffffffffffffffff\n      and\n      0xffffffffffffffffffffffffffffffffffffffff\n      and\n      dup2\n      mstore\n      0x20\n      add\n      swap1\n      dup2\n      mstore\n      0x20\n      add\n      0x00\n      keccak256\n        /* \"prog2005-2025/lab01/task2/RockPapirScissors.sol\":7498:7531  pendingWithdrawals[player1] = bet */\n      dup2\n      swap1\n      sstore\n      pop\n        /* \"prog2005-2025/lab01/task2/RockPapirScissors.sol\":7575:7578  bet */\n      sload(0x02)\n        /* \"prog2005-2025/lab01/task2/RockPapirScissors.sol\":7545:7563  pendingWithdrawals */\n      0x0a\n        /* \"prog2005-2025/lab01/task2/RockPapirScissors.sol\":7545:7572  pendingWithdrawals[player2] */\n      0x00\n        /* \"prog2005-2025/lab01/task2/RockPapirScissors.sol\":7564:7571  player2 */\n      0x01\n      0x00\n      swap1\n      sload\n      swap1\n      0x0100\n      exp\n      swap1\n      div\n      0xffffffffffffffffffffffffffffffffffffffff\n      and\n        /* \"prog2005-2025/lab01/task2/RockPapirScissors.sol\":7545:7572  pendingWithdrawals[player2] */\n      0xffffffffffffffffffffffffffffffffffffffff\n      and\n      0xffffffffffffffffffffffffffffffffffffffff\n      and\n      dup2\n      mstore\n      0x20\n      add\n      swap1\n      dup2\n      mstore\n      0x20\n      add\n      0x00\n      keccak256\n        /* \"prog2005-2025/lab01/task2/RockPapirScissors.sol\":7545:7578  pendingWithdrawals[player2] = bet */\n      dup2\n      swap1\n      sstore\n      pop\n        /* \"prog2005-2025/lab01/task2/RockPapirScissors.sol\":7324:8235  if(m1[0] == m2[0]) {... */\n      jump(tag_232)\n    tag_231:\n        /* \"prog2005-2025/lab01/task2/RockPapirScissors.sol\":7795:7806  bytes1(\"R\") */\n      0x5200000000000000000000000000000000000000000000000000000000000000\n        /* \"prog2005-2025/lab01/task2/RockPapirScissors.sol\":7786:7806  m1[0] == bytes1(\"R\") */\n      not(0xffffffffffffffffffffffffffffffffffffffffffffffffffffffffffffff)\n      and\n        /* \"prog2005-2025/lab01/task2/RockPapirScissors.sol\":7786:7788  m1 */\n      dup3\n        /* \"prog2005-2025/lab01/task2/RockPapirScissors.sol\":7789:7790  0 */\n      0x00\n        /* \"prog2005-2025/lab01/task2/RockPapirScissors.sol\":7786:7791  m1[0] */\n      dup2\n      mload\n      dup2\n      lt\n      tag_233\n      jumpi\n      tag_234\n      tag_158\n      jump\t// in\n    tag_234:\n    tag_233:\n      0x20\n      add\n      add\n      mload\n      0xf8\n      shr\n      0xf8\n      shl\n        /* \"prog2005-2025/lab01/task2/RockPapirScissors.sol\":7786:7806  m1[0] == bytes1(\"R\") */\n      not(0xffffffffffffffffffffffffffffffffffffffffffffffffffffffffffffff)\n      and\n      eq\n        /* \"prog2005-2025/lab01/task2/RockPapirScissors.sol\":7786:7830  m1[0] == bytes1(\"R\") && m2[0] == bytes1(\"S\") */\n      dup1\n      iszero\n      tag_235\n      jumpi\n      pop\n        /* \"prog2005-2025/lab01/task2/RockPapirScissors.sol\":7819:7830  bytes1(\"S\") */\n      0x5300000000000000000000000000000000000000000000000000000000000000\n        /* \"prog2005-2025/lab01/task2/RockPapirScissors.sol\":7810:7830  m2[0] == bytes1(\"S\") */\n      not(0xffffffffffffffffffffffffffffffffffffffffffffffffffffffffffffff)\n      and\n        /* \"prog2005-2025/lab01/task2/RockPapirScissors.sol\":7810:7812  m2 */\n      dup2\n        /* \"prog2005-2025/lab01/task2/RockPapirScissors.sol\":7813:7814  0 */\n      0x00\n        /* \"prog2005-2025/lab01/task2/RockPapirScissors.sol\":7810:7815  m2[0] */\n      dup2\n      mload\n      dup2\n      lt\n      tag_236\n      jumpi\n      tag_237\n      tag_158\n      jump\t// in\n    tag_237:\n    tag_236:\n      0x20\n      add\n      add\n      mload\n      0xf8\n      shr\n      0xf8\n      shl\n        /* \"prog2005-2025/lab01/task2/RockPapirScissors.sol\":7810:7830  m2[0] == bytes1(\"S\") */\n      not(0xffffffffffffffffffffffffffffffffffffffffffffffffffffffffffffff)\n      and\n      eq\n        /* \"prog2005-2025/lab01/task2/RockPapirScissors.sol\":7786:7830  m1[0] == bytes1(\"R\") && m2[0] == bytes1(\"S\") */\n    tag_235:\n        /* \"prog2005-2025/lab01/task2/RockPapirScissors.sol\":7785:7897  (m1[0] == bytes1(\"R\") && m2[0] == bytes1(\"S\")) ||... */\n      dup1\n      tag_238\n      jumpi\n      pop\n        /* \"prog2005-2025/lab01/task2/RockPapirScissors.sol\":7861:7872  bytes1(\"P\") */\n      0x5000000000000000000000000000000000000000000000000000000000000000\n        /* \"prog2005-2025/lab01/task2/RockPapirScissors.sol\":7852:7872  m1[0] == bytes1(\"P\") */\n      not(0xffffffffffffffffffffffffffffffffffffffffffffffffffffffffffffff)\n      and\n        /* \"prog2005-2025/lab01/task2/RockPapirScissors.sol\":7852:7854  m1 */\n      dup3\n        /* \"prog2005-2025/lab01/task2/RockPapirScissors.sol\":7855:7856  0 */\n      0x00\n        /* \"prog2005-2025/lab01/task2/RockPapirScissors.sol\":7852:7857  m1[0] */\n      dup2\n      mload\n      dup2\n      lt\n      tag_239\n      jumpi\n      tag_240\n      tag_158\n      jump\t// in\n    tag_240:\n    tag_239:\n      0x20\n      add\n      add\n      mload\n      0xf8\n      shr\n      0xf8\n      shl\n        /* \"prog2005-2025/lab01/task2/RockPapirScissors.sol\":7852:7872  m1[0] == bytes1(\"P\") */\n      not(0xffffffffffffffffffffffffffffffffffffffffffffffffffffffffffffff)\n      and\n      eq\n        /* \"prog2005-2025/lab01/task2/RockPapirScissors.sol\":7852:7896  m1[0] == bytes1(\"P\") && m2[0] == bytes1(\"R\") */\n      dup1\n      iszero\n      tag_241\n      jumpi\n      pop\n        /* \"prog2005-2025/lab01/task2/RockPapirScissors.sol\":7885:7896  bytes1(\"R\") */\n      0x5200000000000000000000000000000000000000000000000000000000000000\n        /* \"prog2005-2025/lab01/task2/RockPapirScissors.sol\":7876:7896  m2[0] == bytes1(\"R\") */\n      not(0xffffffffffffffffffffffffffffffffffffffffffffffffffffffffffffff)\n      and\n        /* \"prog2005-2025/lab01/task2/RockPapirScissors.sol\":7876:7878  m2 */\n      dup2\n        /* \"prog2005-2025/lab01/task2/RockPapirScissors.sol\":7879:7880  0 */\n      0x00\n        /* \"prog2005-2025/lab01/task2/RockPapirScissors.sol\":7876:7881  m2[0] */\n      dup2\n      mload\n      dup2\n      lt\n      tag_242\n      jumpi\n      tag_243\n      tag_158\n      jump\t// in\n    tag_243:\n    tag_242:\n      0x20\n      add\n      add\n      mload\n      0xf8\n      shr\n      0xf8\n      shl\n        /* \"prog2005-2025/lab01/task2/RockPapirScissors.sol\":7876:7896  m2[0] == bytes1(\"R\") */\n      not(0xffffffffffffffffffffffffffffffffffffffffffffffffffffffffffffff)\n      and\n      eq\n        /* \"prog2005-2025/lab01/task2/RockPapirScissors.sol\":7852:7896  m1[0] == bytes1(\"P\") && m2[0] == bytes1(\"R\") */\n    tag_241:\n        /* \"prog2005-2025/lab01/task2/RockPapirScissors.sol\":7785:7897  (m1[0] == bytes1(\"R\") && m2[0] == bytes1(\"S\")) ||... */\n    tag_238:\n        /* \"prog2005-2025/lab01/task2/RockPapirScissors.sol\":7785:7963  (m1[0] == bytes1(\"R\") && m2[0] == bytes1(\"S\")) ||... */\n      dup1\n      tag_244\n      jumpi\n      pop\n        /* \"prog2005-2025/lab01/task2/RockPapirScissors.sol\":7927:7938  bytes1(\"S\") */\n      0x5300000000000000000000000000000000000000000000000000000000000000\n        /* \"prog2005-2025/lab01/task2/RockPapirScissors.sol\":7918:7938  m1[0] == bytes1(\"S\") */\n      not(0xffffffffffffffffffffffffffffffffffffffffffffffffffffffffffffff)\n      and\n        /* \"prog2005-2025/lab01/task2/RockPapirScissors.sol\":7918:7920  m1 */\n      dup3\n        /* \"prog2005-2025/lab01/task2/RockPapirScissors.sol\":7921:7922  0 */\n      0x00\n        /* \"prog2005-2025/lab01/task2/RockPapirScissors.sol\":7918:7923  m1[0] */\n      dup2\n      mload\n      dup2\n      lt\n      tag_245\n      jumpi\n      tag_246\n      tag_158\n      jump\t// in\n    tag_246:\n    tag_245:\n      0x20\n      add\n      add\n      mload\n      0xf8\n      shr\n      0xf8\n      shl\n        /* \"prog2005-2025/lab01/task2/RockPapirScissors.sol\":7918:7938  m1[0] == bytes1(\"S\") */\n      not(0xffffffffffffffffffffffffffffffffffffffffffffffffffffffffffffff)\n      and\n      eq\n        /* \"prog2005-2025/lab01/task2/RockPapirScissors.sol\":7918:7962  m1[0] == bytes1(\"S\") && m2[0] == bytes1(\"P\") */\n      dup1\n      iszero\n      tag_247\n      jumpi\n      pop\n        /* \"prog2005-2025/lab01/task2/RockPapirScissors.sol\":7951:7962  bytes1(\"P\") */\n      0x5000000000000000000000000000000000000000000000000000000000000000\n        /* \"prog2005-2025/lab01/task2/RockPapirScissors.sol\":7942:7962  m2[0] == bytes1(\"P\") */\n      not(0xffffffffffffffffffffffffffffffffffffffffffffffffffffffffffffff)\n      and\n        /* \"prog2005-2025/lab01/task2/RockPapirScissors.sol\":7942:7944  m2 */\n      dup2\n        /* \"prog2005-2025/lab01/task2/RockPapirScissors.sol\":7945:7946  0 */\n      0x00\n        /* \"prog2005-2025/lab01/task2/RockPapirScissors.sol\":7942:7947  m2[0] */\n      dup2\n      mload\n      dup2\n      lt\n      tag_248\n      jumpi\n      tag_249\n      tag_158\n      jump\t// in\n    tag_249:\n    tag_248:\n      0x20\n      add\n      add\n      mload\n      0xf8\n      shr\n      0xf8\n      shl\n        /* \"prog2005-2025/lab01/task2/RockPapirScissors.sol\":7942:7962  m2[0] == bytes1(\"P\") */\n      not(0xffffffffffffffffffffffffffffffffffffffffffffffffffffffffffffff)\n      and\n      eq\n        /* \"prog2005-2025/lab01/task2/RockPapirScissors.sol\":7918:7962  m1[0] == bytes1(\"S\") && m2[0] == bytes1(\"P\") */\n    tag_247:\n        /* \"prog2005-2025/lab01/task2/RockPapirScissors.sol\":7785:7963  (m1[0] == bytes1(\"R\") && m2[0] == bytes1(\"S\")) ||... */\n    tag_244:\n        /* \"prog2005-2025/lab01/task2/RockPapirScissors.sol\":7764:8082  if (... */\n      iszero\n      tag_250\n      jumpi\n        /* \"prog2005-2025/lab01/task2/RockPapirScissors.sol\":8005:8012  player1 */\n      0x00\n      dup1\n      sload\n      swap1\n      0x0100\n      exp\n      swap1\n      div\n      0xffffffffffffffffffffffffffffffffffffffff\n      and\n        /* \"prog2005-2025/lab01/task2/RockPapirScissors.sol\":7996:8002  winner */\n      0x09\n      0x01\n        /* \"prog2005-2025/lab01/task2/RockPapirScissors.sol\":7996:8012  winner = player1 */\n      0x0100\n      exp\n      dup2\n      sload\n      dup2\n      0xffffffffffffffffffffffffffffffffffffffff\n      mul\n      not\n      and\n      swap1\n      dup4\n      0xffffffffffffffffffffffffffffffffffffffff\n      and\n      mul\n      or\n      swap1\n      sstore\n      pop\n        /* \"prog2005-2025/lab01/task2/RockPapirScissors.sol\":7764:8082  if (... */\n      jump(tag_251)\n    tag_250:\n        /* \"prog2005-2025/lab01/task2/RockPapirScissors.sol\":8060:8067  player2 */\n      0x01\n      0x00\n      swap1\n      sload\n      swap1\n      0x0100\n      exp\n      swap1\n      div\n      0xffffffffffffffffffffffffffffffffffffffff\n      and\n        /* \"prog2005-2025/lab01/task2/RockPapirScissors.sol\":8051:8057  winner */\n      0x09\n      0x01\n        /* \"prog2005-2025/lab01/task2/RockPapirScissors.sol\":8051:8067  winner = player2 */\n      0x0100\n      exp\n      dup2\n      sload\n      dup2\n      0xffffffffffffffffffffffffffffffffffffffff\n      mul\n      not\n      and\n      swap1\n      dup4\n      0xffffffffffffffffffffffffffffffffffffffff\n      and\n      mul\n      or\n      swap1\n      sstore\n      pop\n        /* \"prog2005-2025/lab01/task2/RockPapirScissors.sol\":7764:8082  if (... */\n    tag_251:\n        /* \"prog2005-2025/lab01/task2/RockPapirScissors.sol\":8111:8115  true */\n      0x01\n        /* \"prog2005-2025/lab01/task2/RockPapirScissors.sol\":8095:8108  gameCompleted */\n      0x09\n      0x00\n        /* \"prog2005-2025/lab01/task2/RockPapirScissors.sol\":8095:8115  gameCompleted = true */\n      0x0100\n      exp\n      dup2\n      sload\n      dup2\n      0xff\n      mul\n      not\n      and\n      swap1\n      dup4\n      iszero\n      iszero\n      mul\n      or\n      swap1\n      sstore\n      pop\n        /* \"prog2005-2025/lab01/task2/RockPapirScissors.sol\":8223:8224  2 */\n      0x02\n        /* \"prog2005-2025/lab01/task2/RockPapirScissors.sol\":8217:8220  bet */\n      dup1\n      sload\n        /* \"prog2005-2025/lab01/task2/RockPapirScissors.sol\":8217:8224  bet * 2 */\n      tag_252\n      swap2\n      swap1\n      tag_120\n      jump\t// in\n    tag_252:\n        /* \"prog2005-2025/lab01/task2/RockPapirScissors.sol\":8188:8206  pendingWithdrawals */\n      0x0a\n        /* \"prog2005-2025/lab01/task2/RockPapirScissors.sol\":8188:8214  pendingWithdrawals[winner] */\n      0x00\n        /* \"prog2005-2025/lab01/task2/RockPapirScissors.sol\":8207:8213  winner */\n      0x09\n      0x01\n      swap1\n      sload\n      swap1\n      0x0100\n      exp\n      swap1\n      div\n      0xffffffffffffffffffffffffffffffffffffffff\n      and\n        /* \"prog2005-2025/lab01/task2/RockPapirScissors.sol\":8188:8214  pendingWithdrawals[winner] */\n      0xffffffffffffffffffffffffffffffffffffffff\n      and\n      0xffffffffffffffffffffffffffffffffffffffff\n      and\n      dup2\n      mstore\n      0x20\n      add\n      swap1\n      dup2\n      mstore\n      0x20\n      add\n      0x00\n      keccak256\n        /* \"prog2005-2025/lab01/task2/RockPapirScissors.sol\":8188:8224  pendingWithdrawals[winner] = bet * 2 */\n      dup2\n      swap1\n      sstore\n      pop\n        /* \"prog2005-2025/lab01/task2/RockPapirScissors.sol\":7324:8235  if(m1[0] == m2[0]) {... */\n    tag_232:\n        /* \"prog2005-2025/lab01/task2/RockPapirScissors.sol\":7140:8241  {... */\n      pop\n      pop\n        /* \"prog2005-2025/lab01/task2/RockPapirScissors.sol\":7103:8241  function _determineWinner() internal {... */\n      jump\t// out\n        /* \"#utility.yul\":7:84   */\n    tag_253:\n        /* \"#utility.yul\":44:51   */\n      0x00\n        /* \"#utility.yul\":73:78   */\n      dup2\n        /* \"#utility.yul\":62:78   */\n      swap1\n      pop\n        /* \"#utility.yul\":7:84   */\n      swap2\n      swap1\n      pop\n      jump\t// out\n        /* \"#utility.yul\":90:208   */\n    tag_254:\n        /* \"#utility.yul\":177:201   */\n      tag_337\n        /* \"#utility.yul\":195:200   */\n      dup2\n        /* \"#utility.yul\":177:201   */\n      tag_253\n      jump\t// in\n    tag_337:\n        /* \"#utility.yul\":172:175   */\n      dup3\n        /* \"#utility.yul\":165:202   */\n      mstore\n        /* \"#utility.yul\":90:208   */\n      pop\n      pop\n      jump\t// out\n        /* \"#utility.yul\":214:436   */\n    tag_30:\n        /* \"#utility.yul\":307:311   */\n      0x00\n        /* \"#utility.yul\":345:347   */\n      0x20\n        /* \"#utility.yul\":334:343   */\n      dup3\n        /* \"#utility.yul\":330:348   */\n      add\n        /* \"#utility.yul\":322:348   */\n      swap1\n      pop\n        /* \"#utility.yul\":358:429   */\n      tag_339\n        /* \"#utility.yul\":426:427   */\n      0x00\n        /* \"#utility.yul\":415:424   */\n      dup4\n        /* \"#utility.yul\":411:428   */\n      add\n        /* \"#utility.yul\":402:408   */\n      dup5\n        /* \"#utility.yul\":358:429   */\n      tag_254\n      jump\t// in\n    tag_339:\n        /* \"#utility.yul\":214:436   */\n      swap3\n      swap2\n      pop\n      pop\n      jump\t// out\n        /* \"#utility.yul\":442:541   */\n    tag_255:\n        /* \"#utility.yul\":494:500   */\n      0x00\n        /* \"#utility.yul\":528:533   */\n      dup2\n        /* \"#utility.yul\":522:534   */\n      mload\n        /* \"#utility.yul\":512:534   */\n      swap1\n      pop\n        /* \"#utility.yul\":442:541   */\n      swap2\n      swap1\n      pop\n      jump\t// out\n        /* \"#utility.yul\":547:716   */\n    tag_256:\n        /* \"#utility.yul\":631:642   */\n      0x00\n        /* \"#utility.yul\":665:671   */\n      dup3\n        /* \"#utility.yul\":660:663   */\n      dup3\n        /* \"#utility.yul\":653:672   */\n      mstore\n        /* \"#utility.yul\":705:709   */\n      0x20\n        /* \"#utility.yul\":700:703   */\n      dup3\n        /* \"#utility.yul\":696:710   */\n      add\n        /* \"#utility.yul\":681:710   */\n      swap1\n      pop\n        /* \"#utility.yul\":547:716   */\n      swap3\n      swap2\n      pop\n      pop\n      jump\t// out\n        /* \"#utility.yul\":722:861   */\n    tag_257:\n        /* \"#utility.yul\":811:817   */\n      dup3\n        /* \"#utility.yul\":806:809   */\n      dup2\n        /* \"#utility.yul\":801:804   */\n      dup4\n        /* \"#utility.yul\":795:818   */\n      mcopy\n        /* \"#utility.yul\":852:853   */\n      0x00\n        /* \"#utility.yul\":843:849   */\n      dup4\n        /* \"#utility.yul\":838:841   */\n      dup4\n        /* \"#utility.yul\":834:850   */\n      add\n        /* \"#utility.yul\":827:854   */\n      mstore\n        /* \"#utility.yul\":722:861   */\n      pop\n      pop\n      pop\n      jump\t// out\n        /* \"#utility.yul\":867:969   */\n    tag_258:\n        /* \"#utility.yul\":908:914   */\n      0x00\n        /* \"#utility.yul\":959:961   */\n      0x1f\n        /* \"#utility.yul\":955:962   */\n      not\n        /* \"#utility.yul\":950:952   */\n      0x1f\n        /* \"#utility.yul\":943:948   */\n      dup4\n        /* \"#utility.yul\":939:953   */\n      add\n        /* \"#utility.yul\":935:963   */\n      and\n        /* \"#utility.yul\":925:963   */\n      swap1\n      pop\n        /* \"#utility.yul\":867:969   */\n      swap2\n      swap1\n      pop\n      jump\t// out\n        /* \"#utility.yul\":975:1352   */\n    tag_259:\n        /* \"#utility.yul\":1063:1066   */\n      0x00\n        /* \"#utility.yul\":1091:1130   */\n      tag_345\n        /* \"#utility.yul\":1124:1129   */\n      dup3\n        /* \"#utility.yul\":1091:1130   */\n      tag_255\n      jump\t// in\n    tag_345:\n        /* \"#utility.yul\":1146:1217   */\n      tag_346\n        /* \"#utility.yul\":1210:1216   */\n      dup2\n        /* \"#utility.yul\":1205:1208   */\n      dup6\n        /* \"#utility.yul\":1146:1217   */\n      tag_256\n      jump\t// in\n    tag_346:\n        /* \"#utility.yul\":1139:1217   */\n      swap4\n      pop\n        /* \"#utility.yul\":1226:1291   */\n      tag_347\n        /* \"#utility.yul\":1284:1290   */\n      dup2\n        /* \"#utility.yul\":1279:1282   */\n      dup6\n        /* \"#utility.yul\":1272:1276   */\n      0x20\n        /* \"#utility.yul\":1265:1270   */\n      dup7\n        /* \"#utility.yul\":1261:1277   */\n      add\n        /* \"#utility.yul\":1226:1291   */\n      tag_257\n      jump\t// in\n    tag_347:\n        /* \"#utility.yul\":1316:1345   */\n      tag_348\n        /* \"#utility.yul\":1338:1344   */\n      dup2\n        /* \"#utility.yul\":1316:1345   */\n      tag_258\n      jump\t// in\n    tag_348:\n        /* \"#utility.yul\":1311:1314   */\n      dup5\n        /* \"#utility.yul\":1307:1346   */\n      add\n        /* \"#utility.yul\":1300:1346   */\n      swap2\n      pop\n        /* \"#utility.yul\":1067:1352   */\n      pop\n        /* \"#utility.yul\":975:1352   */\n      swap3\n      swap2\n      pop\n      pop\n      jump\t// out\n        /* \"#utility.yul\":1358:1671   */\n    tag_39:\n        /* \"#utility.yul\":1471:1475   */\n      0x00\n        /* \"#utility.yul\":1509:1511   */\n      0x20\n        /* \"#utility.yul\":1498:1507   */\n      dup3\n        /* \"#utility.yul\":1494:1512   */\n      add\n        /* \"#utility.yul\":1486:1512   */\n      swap1\n      pop\n        /* \"#utility.yul\":1558:1567   */\n      dup2\n        /* \"#utility.yul\":1552:1556   */\n      dup2\n        /* \"#utility.yul\":1548:1568   */\n      sub\n        /* \"#utility.yul\":1544:1545   */\n      0x00\n        /* \"#utility.yul\":1533:1542   */\n      dup4\n        /* \"#utility.yul\":1529:1546   */\n      add\n        /* \"#utility.yul\":1522:1569   */\n      mstore\n        /* \"#utility.yul\":1586:1664   */\n      tag_350\n        /* \"#utility.yul\":1659:1663   */\n      dup2\n        /* \"#utility.yul\":1650:1656   */\n      dup5\n        /* \"#utility.yul\":1586:1664   */\n      tag_259\n      jump\t// in\n    tag_350:\n        /* \"#utility.yul\":1578:1664   */\n      swap1\n      pop\n        /* \"#utility.yul\":1358:1671   */\n      swap3\n      swap2\n      pop\n      pop\n      jump\t// out\n        /* \"#utility.yul\":1677:1767   */\n    tag_260:\n        /* \"#utility.yul\":1711:1718   */\n      0x00\n        /* \"#utility.yul\":1754:1759   */\n      dup2\n        /* \"#utility.yul\":1747:1760   */\n      iszero\n        /* \"#utility.yul\":1740:1761   */\n      iszero\n        /* \"#utility.yul\":1729:1761   */\n      swap1\n      pop\n        /* \"#utility.yul\":1677:1767   */\n      swap2\n      swap1\n      pop\n      jump\t// out\n        /* \"#utility.yul\":1773:1882   */\n    tag_261:\n        /* \"#utility.yul\":1854:1875   */\n      tag_353\n        /* \"#utility.yul\":1869:1874   */\n      dup2\n        /* \"#utility.yul\":1854:1875   */\n      tag_260\n      jump\t// in\n    tag_353:\n        /* \"#utility.yul\":1849:1852   */\n      dup3\n        /* \"#utility.yul\":1842:1876   */\n      mstore\n        /* \"#utility.yul\":1773:1882   */\n      pop\n      pop\n      jump\t// out\n        /* \"#utility.yul\":1888:2098   */\n    tag_44:\n        /* \"#utility.yul\":1975:1979   */\n      0x00\n        /* \"#utility.yul\":2013:2015   */\n      0x20\n        /* \"#utility.yul\":2002:2011   */\n      dup3\n        /* \"#utility.yul\":1998:2016   */\n      add\n        /* \"#utility.yul\":1990:2016   */\n      swap1\n      pop\n        /* \"#utility.yul\":2026:2091   */\n      tag_355\n        /* \"#utility.yul\":2088:2089   */\n      0x00\n        /* \"#utility.yul\":2077:2086   */\n      dup4\n        /* \"#utility.yul\":2073:2090   */\n      add\n        /* \"#utility.yul\":2064:2070   */\n      dup5\n        /* \"#utility.yul\":2026:2091   */\n      tag_261\n      jump\t// in\n    tag_355:\n        /* \"#utility.yul\":1888:2098   */\n      swap3\n      swap2\n      pop\n      pop\n      jump\t// out\n        /* \"#utility.yul\":2104:2230   */\n    tag_262:\n        /* \"#utility.yul\":2141:2148   */\n      0x00\n        /* \"#utility.yul\":2181:2223   */\n      0xffffffffffffffffffffffffffffffffffffffff\n        /* \"#utility.yul\":2174:2179   */\n      dup3\n        /* \"#utility.yul\":2170:2224   */\n      and\n        /* \"#utility.yul\":2159:2224   */\n      swap1\n      pop\n        /* \"#utility.yul\":2104:2230   */\n      swap2\n      swap1\n      pop\n      jump\t// out\n        /* \"#utility.yul\":2236:2332   */\n    tag_263:\n        /* \"#utility.yul\":2273:2280   */\n      0x00\n        /* \"#utility.yul\":2302:2326   */\n      tag_358\n        /* \"#utility.yul\":2320:2325   */\n      dup3\n        /* \"#utility.yul\":2302:2326   */\n      tag_262\n      jump\t// in\n    tag_358:\n        /* \"#utility.yul\":2291:2326   */\n      swap1\n      pop\n        /* \"#utility.yul\":2236:2332   */\n      swap2\n      swap1\n      pop\n      jump\t// out\n        /* \"#utility.yul\":2338:2456   */\n    tag_264:\n        /* \"#utility.yul\":2425:2449   */\n      tag_360\n        /* \"#utility.yul\":2443:2448   */\n      dup2\n        /* \"#utility.yul\":2425:2449   */\n      tag_263\n      jump\t// in\n    tag_360:\n        /* \"#utility.yul\":2420:2423   */\n      dup3\n        /* \"#utility.yul\":2413:2450   */\n      mstore\n        /* \"#utility.yul\":2338:2456   */\n      pop\n      pop\n      jump\t// out\n        /* \"#utility.yul\":2462:2684   */\n    tag_60:\n        /* \"#utility.yul\":2555:2559   */\n      0x00\n        /* \"#utility.yul\":2593:2595   */\n      0x20\n        /* \"#utility.yul\":2582:2591   */\n      dup3\n        /* \"#utility.yul\":2578:2596   */\n      add\n        /* \"#utility.yul\":2570:2596   */\n      swap1\n      pop\n        /* \"#utility.yul\":2606:2677   */\n      tag_362\n        /* \"#utility.yul\":2674:2675   */\n      0x00\n        /* \"#utility.yul\":2663:2672   */\n      dup4\n        /* \"#utility.yul\":2659:2676   */\n      add\n        /* \"#utility.yul\":2650:2656   */\n      dup5\n        /* \"#utility.yul\":2606:2677   */\n      tag_264\n      jump\t// in\n    tag_362:\n        /* \"#utility.yul\":2462:2684   */\n      swap3\n      swap2\n      pop\n      pop\n      jump\t// out\n        /* \"#utility.yul\":2771:2888   */\n    tag_266:\n        /* \"#utility.yul\":2880:2881   */\n      0x00\n        /* \"#utility.yul\":2877:2878   */\n      dup1\n        /* \"#utility.yul\":2870:2882   */\n      revert\n        /* \"#utility.yul\":2894:3011   */\n    tag_267:\n        /* \"#utility.yul\":3003:3004   */\n      0x00\n        /* \"#utility.yul\":3000:3001   */\n      dup1\n        /* \"#utility.yul\":2993:3005   */\n      revert\n        /* \"#utility.yul\":3017:3134   */\n    tag_268:\n        /* \"#utility.yul\":3126:3127   */\n      0x00\n        /* \"#utility.yul\":3123:3124   */\n      dup1\n        /* \"#utility.yul\":3116:3128   */\n      revert\n        /* \"#utility.yul\":3140:3257   */\n    tag_269:\n        /* \"#utility.yul\":3249:3250   */\n      0x00\n        /* \"#utility.yul\":3246:3247   */\n      dup1\n        /* \"#utility.yul\":3239:3251   */\n      revert\n        /* \"#utility.yul\":3263:3380   */\n    tag_270:\n        /* \"#utility.yul\":3372:3373   */\n      0x00\n        /* \"#utility.yul\":3369:3370   */\n      dup1\n        /* \"#utility.yul\":3362:3374   */\n      revert\n        /* \"#utility.yul\":3400:3953   */\n    tag_271:\n        /* \"#utility.yul\":3458:3466   */\n      0x00\n        /* \"#utility.yul\":3468:3474   */\n      dup1\n        /* \"#utility.yul\":3518:3521   */\n      dup4\n        /* \"#utility.yul\":3511:3515   */\n      0x1f\n        /* \"#utility.yul\":3503:3509   */\n      dup5\n        /* \"#utility.yul\":3499:3516   */\n      add\n        /* \"#utility.yul\":3495:3522   */\n      slt\n        /* \"#utility.yul\":3485:3607   */\n      tag_370\n      jumpi\n        /* \"#utility.yul\":3526:3605   */\n      tag_371\n      tag_268\n      jump\t// in\n    tag_371:\n        /* \"#utility.yul\":3485:3607   */\n    tag_370:\n        /* \"#utility.yul\":3639:3645   */\n      dup3\n        /* \"#utility.yul\":3626:3646   */\n      calldataload\n        /* \"#utility.yul\":3616:3646   */\n      swap1\n      pop\n        /* \"#utility.yul\":3669:3687   */\n      0xffffffffffffffff\n        /* \"#utility.yul\":3661:3667   */\n      dup2\n        /* \"#utility.yul\":3658:3688   */\n      gt\n        /* \"#utility.yul\":3655:3772   */\n      iszero\n      tag_372\n      jumpi\n        /* \"#utility.yul\":3691:3770   */\n      tag_373\n      tag_269\n      jump\t// in\n    tag_373:\n        /* \"#utility.yul\":3655:3772   */\n    tag_372:\n        /* \"#utility.yul\":3805:3809   */\n      0x20\n        /* \"#utility.yul\":3797:3803   */\n      dup4\n        /* \"#utility.yul\":3793:3810   */\n      add\n        /* \"#utility.yul\":3781:3810   */\n      swap2\n      pop\n        /* \"#utility.yul\":3859:3862   */\n      dup4\n        /* \"#utility.yul\":3851:3855   */\n      0x01\n        /* \"#utility.yul\":3843:3849   */\n      dup3\n        /* \"#utility.yul\":3839:3856   */\n      mul\n        /* \"#utility.yul\":3829:3837   */\n      dup4\n        /* \"#utility.yul\":3825:3857   */\n      add\n        /* \"#utility.yul\":3822:3863   */\n      gt\n        /* \"#utility.yul\":3819:3947   */\n      iszero\n      tag_374\n      jumpi\n        /* \"#utility.yul\":3866:3945   */\n      tag_375\n      tag_270\n      jump\t// in\n    tag_375:\n        /* \"#utility.yul\":3819:3947   */\n    tag_374:\n        /* \"#utility.yul\":3400:3953   */\n      swap3\n      pop\n      swap3\n      swap1\n      pop\n      jump\t// out\n        /* \"#utility.yul\":3959:4833   */\n    tag_64:\n        /* \"#utility.yul\":4051:4057   */\n      0x00\n        /* \"#utility.yul\":4059:4065   */\n      dup1\n        /* \"#utility.yul\":4067:4073   */\n      0x00\n        /* \"#utility.yul\":4075:4081   */\n      dup1\n        /* \"#utility.yul\":4124:4126   */\n      0x40\n        /* \"#utility.yul\":4112:4121   */\n      dup6\n        /* \"#utility.yul\":4103:4110   */\n      dup8\n        /* \"#utility.yul\":4099:4122   */\n      sub\n        /* \"#utility.yul\":4095:4127   */\n      slt\n        /* \"#utility.yul\":4092:4211   */\n      iszero\n      tag_377\n      jumpi\n        /* \"#utility.yul\":4130:4209   */\n      tag_378\n      tag_266\n      jump\t// in\n    tag_378:\n        /* \"#utility.yul\":4092:4211   */\n    tag_377:\n        /* \"#utility.yul\":4278:4279   */\n      0x00\n        /* \"#utility.yul\":4267:4276   */\n      dup6\n        /* \"#utility.yul\":4263:4280   */\n      add\n        /* \"#utility.yul\":4250:4281   */\n      calldataload\n        /* \"#utility.yul\":4308:4326   */\n      0xffffffffffffffff\n        /* \"#utility.yul\":4300:4306   */\n      dup2\n        /* \"#utility.yul\":4297:4327   */\n      gt\n        /* \"#utility.yul\":4294:4411   */\n      iszero\n      tag_379\n      jumpi\n        /* \"#utility.yul\":4330:4409   */\n      tag_380\n      tag_267\n      jump\t// in\n    tag_380:\n        /* \"#utility.yul\":4294:4411   */\n    tag_379:\n        /* \"#utility.yul\":4443:4508   */\n      tag_381\n        /* \"#utility.yul\":4500:4507   */\n      dup8\n        /* \"#utility.yul\":4491:4497   */\n      dup3\n        /* \"#utility.yul\":4480:4489   */\n      dup9\n        /* \"#utility.yul\":4476:4498   */\n      add\n        /* \"#utility.yul\":4443:4508   */\n      tag_271\n      jump\t// in\n    tag_381:\n        /* \"#utility.yul\":4425:4508   */\n      swap5\n      pop\n      swap5\n      pop\n        /* \"#utility.yul\":4221:4518   */\n      pop\n        /* \"#utility.yul\":4585:4587   */\n      0x20\n        /* \"#utility.yul\":4574:4583   */\n      dup6\n        /* \"#utility.yul\":4570:4588   */\n      add\n        /* \"#utility.yul\":4557:4589   */\n      calldataload\n        /* \"#utility.yul\":4616:4634   */\n      0xffffffffffffffff\n        /* \"#utility.yul\":4608:4614   */\n      dup2\n        /* \"#utility.yul\":4605:4635   */\n      gt\n        /* \"#utility.yul\":4602:4719   */\n      iszero\n      tag_382\n      jumpi\n        /* \"#utility.yul\":4638:4717   */\n      tag_383\n      tag_267\n      jump\t// in\n    tag_383:\n        /* \"#utility.yul\":4602:4719   */\n    tag_382:\n        /* \"#utility.yul\":4751:4816   */\n      tag_384\n        /* \"#utility.yul\":4808:4815   */\n      dup8\n        /* \"#utility.yul\":4799:4805   */\n      dup3\n        /* \"#utility.yul\":4788:4797   */\n      dup9\n        /* \"#utility.yul\":4784:4806   */\n      add\n        /* \"#utility.yul\":4751:4816   */\n      tag_271\n      jump\t// in\n    tag_384:\n        /* \"#utility.yul\":4733:4816   */\n      swap3\n      pop\n      swap3\n      pop\n        /* \"#utility.yul\":4528:4826   */\n      pop\n        /* \"#utility.yul\":3959:4833   */\n      swap3\n      swap6\n      swap2\n      swap5\n      pop\n      swap3\n      pop\n      jump\t// out\n        /* \"#utility.yul\":4839:4916   */\n    tag_272:\n        /* \"#utility.yul\":4876:4883   */\n      0x00\n        /* \"#utility.yul\":4905:4910   */\n      dup2\n        /* \"#utility.yul\":4894:4910   */\n      swap1\n      pop\n        /* \"#utility.yul\":4839:4916   */\n      swap2\n      swap1\n      pop\n      jump\t// out\n        /* \"#utility.yul\":4922:5040   */\n    tag_273:\n        /* \"#utility.yul\":5009:5033   */\n      tag_387\n        /* \"#utility.yul\":5027:5032   */\n      dup2\n        /* \"#utility.yul\":5009:5033   */\n      tag_272\n      jump\t// in\n    tag_387:\n        /* \"#utility.yul\":5004:5007   */\n      dup3\n        /* \"#utility.yul\":4997:5034   */\n      mstore\n        /* \"#utility.yul\":4922:5040   */\n      pop\n      pop\n      jump\t// out\n        /* \"#utility.yul\":5046:5268   */\n    tag_70:\n        /* \"#utility.yul\":5139:5143   */\n      0x00\n        /* \"#utility.yul\":5177:5179   */\n      0x20\n        /* \"#utility.yul\":5166:5175   */\n      dup3\n        /* \"#utility.yul\":5162:5180   */\n      add\n        /* \"#utility.yul\":5154:5180   */\n      swap1\n      pop\n        /* \"#utility.yul\":5190:5261   */\n      tag_389\n        /* \"#utility.yul\":5258:5259   */\n      0x00\n        /* \"#utility.yul\":5247:5256   */\n      dup4\n        /* \"#utility.yul\":5243:5260   */\n      add\n        /* \"#utility.yul\":5234:5240   */\n      dup5\n        /* \"#utility.yul\":5190:5261   */\n      tag_273\n      jump\t// in\n    tag_389:\n        /* \"#utility.yul\":5046:5268   */\n      swap3\n      swap2\n      pop\n      pop\n      jump\t// out\n        /* \"#utility.yul\":5274:5396   */\n    tag_274:\n        /* \"#utility.yul\":5347:5371   */\n      tag_391\n        /* \"#utility.yul\":5365:5370   */\n      dup2\n        /* \"#utility.yul\":5347:5371   */\n      tag_272\n      jump\t// in\n    tag_391:\n        /* \"#utility.yul\":5340:5345   */\n      dup2\n        /* \"#utility.yul\":5337:5372   */\n      eq\n        /* \"#utility.yul\":5327:5390   */\n      tag_392\n      jumpi\n        /* \"#utility.yul\":5386:5387   */\n      0x00\n        /* \"#utility.yul\":5383:5384   */\n      dup1\n        /* \"#utility.yul\":5376:5388   */\n      revert\n        /* \"#utility.yul\":5327:5390   */\n    tag_392:\n        /* \"#utility.yul\":5274:5396   */\n      pop\n      jump\t// out\n        /* \"#utility.yul\":5402:5541   */\n    tag_275:\n        /* \"#utility.yul\":5448:5453   */\n      0x00\n        /* \"#utility.yul\":5486:5492   */\n      dup2\n        /* \"#utility.yul\":5473:5493   */\n      calldataload\n        /* \"#utility.yul\":5464:5493   */\n      swap1\n      pop\n        /* \"#utility.yul\":5502:5535   */\n      tag_394\n        /* \"#utility.yul\":5529:5534   */\n      dup2\n        /* \"#utility.yul\":5502:5535   */\n      tag_274\n      jump\t// in\n    tag_394:\n        /* \"#utility.yul\":5402:5541   */\n      swap3\n      swap2\n      pop\n      pop\n      jump\t// out\n        /* \"#utility.yul\":5547:5876   */\n    tag_81:\n        /* \"#utility.yul\":5606:5612   */\n      0x00\n        /* \"#utility.yul\":5655:5657   */\n      0x20\n        /* \"#utility.yul\":5643:5652   */\n      dup3\n        /* \"#utility.yul\":5634:5641   */\n      dup5\n        /* \"#utility.yul\":5630:5653   */\n      sub\n        /* \"#utility.yul\":5626:5658   */\n      slt\n        /* \"#utility.yul\":5623:5742   */\n      iszero\n      tag_396\n      jumpi\n        /* \"#utility.yul\":5661:5740   */\n      tag_397\n      tag_266\n      jump\t// in\n    tag_397:\n        /* \"#utility.yul\":5623:5742   */\n    tag_396:\n        /* \"#utility.yul\":5781:5782   */\n      0x00\n        /* \"#utility.yul\":5806:5859   */\n      tag_398\n        /* \"#utility.yul\":5851:5858   */\n      dup5\n        /* \"#utility.yul\":5842:5848   */\n      dup3\n        /* \"#utility.yul\":5831:5840   */\n      dup6\n        /* \"#utility.yul\":5827:5849   */\n      add\n        /* \"#utility.yul\":5806:5859   */\n      tag_275\n      jump\t// in\n    tag_398:\n        /* \"#utility.yul\":5796:5859   */\n      swap2\n      pop\n        /* \"#utility.yul\":5752:5869   */\n      pop\n        /* \"#utility.yul\":5547:5876   */\n      swap3\n      swap2\n      pop\n      pop\n      jump\t// out\n        /* \"#utility.yul\":5882:6004   */\n    tag_276:\n        /* \"#utility.yul\":5955:5979   */\n      tag_400\n        /* \"#utility.yul\":5973:5978   */\n      dup2\n        /* \"#utility.yul\":5955:5979   */\n      tag_263\n      jump\t// in\n    tag_400:\n        /* \"#utility.yul\":5948:5953   */\n      dup2\n        /* \"#utility.yul\":5945:5980   */\n      eq\n        /* \"#utility.yul\":5935:5998   */\n      tag_401\n      jumpi\n        /* \"#utility.yul\":5994:5995   */\n      0x00\n        /* \"#utility.yul\":5991:5992   */\n      dup1\n        /* \"#utility.yul\":5984:5996   */\n      revert\n        /* \"#utility.yul\":5935:5998   */\n    tag_401:\n        /* \"#utility.yul\":5882:6004   */\n      pop\n      jump\t// out\n        /* \"#utility.yul\":6010:6149   */\n    tag_277:\n        /* \"#utility.yul\":6056:6061   */\n      0x00\n        /* \"#utility.yul\":6094:6100   */\n      dup2\n        /* \"#utility.yul\":6081:6101   */\n      calldataload\n        /* \"#utility.yul\":6072:6101   */\n      swap1\n      pop\n        /* \"#utility.yul\":6110:6143   */\n      tag_403\n        /* \"#utility.yul\":6137:6142   */\n      dup2\n        /* \"#utility.yul\":6110:6143   */\n      tag_276\n      jump\t// in\n    tag_403:\n        /* \"#utility.yul\":6010:6149   */\n      swap3\n      swap2\n      pop\n      pop\n      jump\t// out\n        /* \"#utility.yul\":6155:6484   */\n    tag_98:\n        /* \"#utility.yul\":6214:6220   */\n      0x00\n        /* \"#utility.yul\":6263:6265   */\n      0x20\n        /* \"#utility.yul\":6251:6260   */\n      dup3\n        /* \"#utility.yul\":6242:6249   */\n      dup5\n        /* \"#utility.yul\":6238:6261   */\n      sub\n        /* \"#utility.yul\":6234:6266   */\n      slt\n        /* \"#utility.yul\":6231:6350   */\n      iszero\n      tag_405\n      jumpi\n        /* \"#utility.yul\":6269:6348   */\n      tag_406\n      tag_266\n      jump\t// in\n    tag_406:\n        /* \"#utility.yul\":6231:6350   */\n    tag_405:\n        /* \"#utility.yul\":6389:6390   */\n      0x00\n        /* \"#utility.yul\":6414:6467   */\n      tag_407\n        /* \"#utility.yul\":6459:6466   */\n      dup5\n        /* \"#utility.yul\":6450:6456   */\n      dup3\n        /* \"#utility.yul\":6439:6448   */\n      dup6\n        /* \"#utility.yul\":6435:6457   */\n      add\n        /* \"#utility.yul\":6414:6467   */\n      tag_277\n      jump\t// in\n    tag_407:\n        /* \"#utility.yul\":6404:6467   */\n      swap2\n      pop\n        /* \"#utility.yul\":6360:6477   */\n      pop\n        /* \"#utility.yul\":6155:6484   */\n      swap3\n      swap2\n      pop\n      pop\n      jump\t// out\n        /* \"#utility.yul\":6490:6670   */\n    tag_278:\n        /* \"#utility.yul\":6538:6615   */\n      0x4e487b7100000000000000000000000000000000000000000000000000000000\n        /* \"#utility.yul\":6535:6536   */\n      0x00\n        /* \"#utility.yul\":6528:6616   */\n      mstore\n        /* \"#utility.yul\":6635:6639   */\n      0x22\n        /* \"#utility.yul\":6632:6633   */\n      0x04\n        /* \"#utility.yul\":6625:6640   */\n      mstore\n        /* \"#utility.yul\":6659:6663   */\n      0x24\n        /* \"#utility.yul\":6656:6657   */\n      0x00\n        /* \"#utility.yul\":6649:6664   */\n      revert\n        /* \"#utility.yul\":6676:6996   */\n    tag_106:\n        /* \"#utility.yul\":6720:6726   */\n      0x00\n        /* \"#utility.yul\":6757:6758   */\n      0x02\n        /* \"#utility.yul\":6751:6755   */\n      dup3\n        /* \"#utility.yul\":6747:6759   */\n      div\n        /* \"#utility.yul\":6737:6759   */\n      swap1\n      pop\n        /* \"#utility.yul\":6804:6805   */\n      0x01\n        /* \"#utility.yul\":6798:6802   */\n      dup3\n        /* \"#utility.yul\":6794:6806   */\n      and\n        /* \"#utility.yul\":6825:6843   */\n      dup1\n        /* \"#utility.yul\":6815:6896   */\n      tag_410\n      jumpi\n        /* \"#utility.yul\":6881:6885   */\n      0x7f\n        /* \"#utility.yul\":6873:6879   */\n      dup3\n        /* \"#utility.yul\":6869:6886   */\n      and\n        /* \"#utility.yul\":6859:6886   */\n      swap2\n      pop\n        /* \"#utility.yul\":6815:6896   */\n    tag_410:\n        /* \"#utility.yul\":6943:6945   */\n      0x20\n        /* \"#utility.yul\":6935:6941   */\n      dup3\n        /* \"#utility.yul\":6932:6946   */\n      lt\n        /* \"#utility.yul\":6912:6930   */\n      dup2\n        /* \"#utility.yul\":6909:6947   */\n      sub\n        /* \"#utility.yul\":6906:6990   */\n      tag_411\n      jumpi\n        /* \"#utility.yul\":6962:6980   */\n      tag_412\n      tag_278\n      jump\t// in\n    tag_412:\n        /* \"#utility.yul\":6906:6990   */\n    tag_411:\n        /* \"#utility.yul\":6727:6996   */\n      pop\n        /* \"#utility.yul\":6676:6996   */\n      swap2\n      swap1\n      pop\n      jump\t// out\n        /* \"#utility.yul\":7002:7182   */\n    tag_279:\n        /* \"#utility.yul\":7050:7127   */\n      0x4e487b7100000000000000000000000000000000000000000000000000000000\n        /* \"#utility.yul\":7047:7048   */\n      0x00\n        /* \"#utility.yul\":7040:7128   */\n      mstore\n        /* \"#utility.yul\":7147:7151   */\n      0x11\n        /* \"#utility.yul\":7144:7145   */\n      0x04\n        /* \"#utility.yul\":7137:7152   */\n      mstore\n        /* \"#utility.yul\":7171:7175   */\n      0x24\n        /* \"#utility.yul\":7168:7169   */\n      0x00\n        /* \"#utility.yul\":7161:7176   */\n      revert\n        /* \"#utility.yul\":7188:7379   */\n    tag_115:\n        /* \"#utility.yul\":7228:7231   */\n      0x00\n        /* \"#utility.yul\":7247:7267   */\n      tag_415\n        /* \"#utility.yul\":7265:7266   */\n      dup3\n        /* \"#utility.yul\":7247:7267   */\n      tag_253\n      jump\t// in\n    tag_415:\n        /* \"#utility.yul\":7242:7267   */\n      swap2\n      pop\n        /* \"#utility.yul\":7281:7301   */\n      tag_416\n        /* \"#utility.yul\":7299:7300   */\n      dup4\n        /* \"#utility.yul\":7281:7301   */\n      tag_253\n      jump\t// in\n    tag_416:\n        /* \"#utility.yul\":7276:7301   */\n      swap3\n      pop\n        /* \"#utility.yul\":7324:7325   */\n      dup3\n        /* \"#utility.yul\":7321:7322   */\n      dup3\n        /* \"#utility.yul\":7317:7326   */\n      add\n        /* \"#utility.yul\":7310:7326   */\n      swap1\n      pop\n        /* \"#utility.yul\":7345:7348   */\n      dup1\n        /* \"#utility.yul\":7342:7343   */\n      dup3\n        /* \"#utility.yul\":7339:7349   */\n      gt\n        /* \"#utility.yul\":7336:7372   */\n      iszero\n      tag_417\n      jumpi\n        /* \"#utility.yul\":7352:7370   */\n      tag_418\n      tag_279\n      jump\t// in\n    tag_418:\n        /* \"#utility.yul\":7336:7372   */\n    tag_417:\n        /* \"#utility.yul\":7188:7379   */\n      swap3\n      swap2\n      pop\n      pop\n      jump\t// out\n        /* \"#utility.yul\":7385:7795   */\n    tag_120:\n        /* \"#utility.yul\":7425:7432   */\n      0x00\n        /* \"#utility.yul\":7448:7468   */\n      tag_420\n        /* \"#utility.yul\":7466:7467   */\n      dup3\n        /* \"#utility.yul\":7448:7468   */\n      tag_253\n      jump\t// in\n    tag_420:\n        /* \"#utility.yul\":7443:7468   */\n      swap2\n      pop\n        /* \"#utility.yul\":7482:7502   */\n      tag_421\n        /* \"#utility.yul\":7500:7501   */\n      dup4\n        /* \"#utility.yul\":7482:7502   */\n      tag_253\n      jump\t// in\n    tag_421:\n        /* \"#utility.yul\":7477:7502   */\n      swap3\n      pop\n        /* \"#utility.yul\":7537:7538   */\n      dup3\n        /* \"#utility.yul\":7534:7535   */\n      dup3\n        /* \"#utility.yul\":7530:7539   */\n      mul\n        /* \"#utility.yul\":7559:7589   */\n      tag_422\n        /* \"#utility.yul\":7577:7588   */\n      dup2\n        /* \"#utility.yul\":7559:7589   */\n      tag_253\n      jump\t// in\n    tag_422:\n        /* \"#utility.yul\":7548:7589   */\n      swap2\n      pop\n        /* \"#utility.yul\":7738:7739   */\n      dup3\n        /* \"#utility.yul\":7729:7736   */\n      dup3\n        /* \"#utility.yul\":7725:7740   */\n      div\n        /* \"#utility.yul\":7722:7723   */\n      dup5\n        /* \"#utility.yul\":7719:7741   */\n      eq\n        /* \"#utility.yul\":7699:7700   */\n      dup4\n        /* \"#utility.yul\":7692:7701   */\n      iszero\n        /* \"#utility.yul\":7672:7755   */\n      or\n        /* \"#utility.yul\":7649:7788   */\n      tag_423\n      jumpi\n        /* \"#utility.yul\":7768:7786   */\n      tag_424\n      tag_279\n      jump\t// in\n    tag_424:\n        /* \"#utility.yul\":7649:7788   */\n    tag_423:\n        /* \"#utility.yul\":7433:7795   */\n      pop\n        /* \"#utility.yul\":7385:7795   */\n      swap3\n      swap2\n      pop\n      pop\n      jump\t// out\n        /* \"#utility.yul\":7801:8033   */\n    tag_280:\n        /* \"#utility.yul\":7941:7975   */\n      0x4e6f2072657665616c206d61646520627920616e7920706c617965723b206361\n        /* \"#utility.yul\":7937:7938   */\n      0x00\n        /* \"#utility.yul\":7929:7935   */\n      dup3\n        /* \"#utility.yul\":7925:7939   */\n      add\n        /* \"#utility.yul\":7918:7976   */\n      mstore\n        /* \"#utility.yul\":8010:8025   */\n      0x6e6e6f7420776974686472617700000000000000000000000000000000000000\n        /* \"#utility.yul\":8005:8007   */\n      0x20\n        /* \"#utility.yul\":7997:8003   */\n      dup3\n        /* \"#utility.yul\":7993:8008   */\n      add\n        /* \"#utility.yul\":7986:8026   */\n      mstore\n        /* \"#utility.yul\":7801:8033   */\n      pop\n      jump\t// out\n        /* \"#utility.yul\":8039:8405   */\n    tag_281:\n        /* \"#utility.yul\":8181:8184   */\n      0x00\n        /* \"#utility.yul\":8202:8269   */\n      tag_427\n        /* \"#utility.yul\":8266:8268   */\n      0x2d\n        /* \"#utility.yul\":8261:8264   */\n      dup4\n        /* \"#utility.yul\":8202:8269   */\n      tag_256\n      jump\t// in\n    tag_427:\n        /* \"#utility.yul\":8195:8269   */\n      swap2\n      pop\n        /* \"#utility.yul\":8278:8371   */\n      tag_428\n        /* \"#utility.yul\":8367:8370   */\n      dup3\n        /* \"#utility.yul\":8278:8371   */\n      tag_280\n      jump\t// in\n    tag_428:\n        /* \"#utility.yul\":8396:8398   */\n      0x40\n        /* \"#utility.yul\":8391:8394   */\n      dup3\n        /* \"#utility.yul\":8387:8399   */\n      add\n        /* \"#utility.yul\":8380:8399   */\n      swap1\n      pop\n        /* \"#utility.yul\":8039:8405   */\n      swap2\n      swap1\n      pop\n      jump\t// out\n        /* \"#utility.yul\":8411:8830   */\n    tag_127:\n        /* \"#utility.yul\":8577:8581   */\n      0x00\n        /* \"#utility.yul\":8615:8617   */\n      0x20\n        /* \"#utility.yul\":8604:8613   */\n      dup3\n        /* \"#utility.yul\":8600:8618   */\n      add\n        /* \"#utility.yul\":8592:8618   */\n      swap1\n      pop\n        /* \"#utility.yul\":8664:8673   */\n      dup2\n        /* \"#utility.yul\":8658:8662   */\n      dup2\n        /* \"#utility.yul\":8654:8674   */\n      sub\n        /* \"#utility.yul\":8650:8651   */\n      0x00\n        /* \"#utility.yul\":8639:8648   */\n      dup4\n        /* \"#utility.yul\":8635:8652   */\n      add\n        /* \"#utility.yul\":8628:8675   */\n      mstore\n        /* \"#utility.yul\":8692:8823   */\n      tag_430\n        /* \"#utility.yul\":8818:8822   */\n      dup2\n        /* \"#utility.yul\":8692:8823   */\n      tag_281\n      jump\t// in\n    tag_430:\n        /* \"#utility.yul\":8684:8823   */\n      swap1\n      pop\n        /* \"#utility.yul\":8411:8830   */\n      swap2\n      swap1\n      pop\n      jump\t// out\n        /* \"#utility.yul\":8836:9072   */\n    tag_282:\n        /* \"#utility.yul\":8976:9010   */\n      0x47616d65206e6f7420636f6d706c6574656420616e642072657665616c207469\n        /* \"#utility.yul\":8972:8973   */\n      0x00\n        /* \"#utility.yul\":8964:8970   */\n      dup3\n        /* \"#utility.yul\":8960:8974   */\n      add\n        /* \"#utility.yul\":8953:9011   */\n      mstore\n        /* \"#utility.yul\":9045:9064   */\n      0x6d656f7574206e6f742072656163686564000000000000000000000000000000\n        /* \"#utility.yul\":9040:9042   */\n      0x20\n        /* \"#utility.yul\":9032:9038   */\n      dup3\n        /* \"#utility.yul\":9028:9043   */\n      add\n        /* \"#utility.yul\":9021:9065   */\n      mstore\n        /* \"#utility.yul\":8836:9072   */\n      pop\n      jump\t// out\n        /* \"#utility.yul\":9078:9444   */\n    tag_283:\n        /* \"#utility.yul\":9220:9223   */\n      0x00\n        /* \"#utility.yul\":9241:9308   */\n      tag_433\n        /* \"#utility.yul\":9305:9307   */\n      0x31\n        /* \"#utility.yul\":9300:9303   */\n      dup4\n        /* \"#utility.yul\":9241:9308   */\n      tag_256\n      jump\t// in\n    tag_433:\n        /* \"#utility.yul\":9234:9308   */\n      swap2\n      pop\n        /* \"#utility.yul\":9317:9410   */\n      tag_434\n        /* \"#utility.yul\":9406:9409   */\n      dup3\n        /* \"#utility.yul\":9317:9410   */\n      tag_282\n      jump\t// in\n    tag_434:\n        /* \"#utility.yul\":9435:9437   */\n      0x40\n        /* \"#utility.yul\":9430:9433   */\n      dup3\n        /* \"#utility.yul\":9426:9438   */\n      add\n        /* \"#utility.yul\":9419:9438   */\n      swap1\n      pop\n        /* \"#utility.yul\":9078:9444   */\n      swap2\n      swap1\n      pop\n      jump\t// out\n        /* \"#utility.yul\":9450:9869   */\n    tag_130:\n        /* \"#utility.yul\":9616:9620   */\n      0x00\n        /* \"#utility.yul\":9654:9656   */\n      0x20\n        /* \"#utility.yul\":9643:9652   */\n      dup3\n        /* \"#utility.yul\":9639:9657   */\n      add\n        /* \"#utility.yul\":9631:9657   */\n      swap1\n      pop\n        /* \"#utility.yul\":9703:9712   */\n      dup2\n        /* \"#utility.yul\":9697:9701   */\n      dup2\n        /* \"#utility.yul\":9693:9713   */\n      sub\n        /* \"#utility.yul\":9689:9690   */\n      0x00\n        /* \"#utility.yul\":9678:9687   */\n      dup4\n        /* \"#utility.yul\":9674:9691   */\n      add\n        /* \"#utility.yul\":9667:9714   */\n      mstore\n        /* \"#utility.yul\":9731:9862   */\n      tag_436\n        /* \"#utility.yul\":9857:9861   */\n      dup2\n        /* \"#utility.yul\":9731:9862   */\n      tag_283\n      jump\t// in\n    tag_436:\n        /* \"#utility.yul\":9723:9862   */\n      swap1\n      pop\n        /* \"#utility.yul\":9450:9869   */\n      swap2\n      swap1\n      pop\n      jump\t// out\n        /* \"#utility.yul\":9875:10095   */\n    tag_284:\n        /* \"#utility.yul\":10015:10049   */\n      0x4e6f2066756e647320617661696c61626c6520666f7220776974686472617761\n        /* \"#utility.yul\":10011:10012   */\n      0x00\n        /* \"#utility.yul\":10003:10009   */\n      dup3\n        /* \"#utility.yul\":9999:10013   */\n      add\n        /* \"#utility.yul\":9992:10050   */\n      mstore\n        /* \"#utility.yul\":10084:10087   */\n      0x6c00000000000000000000000000000000000000000000000000000000000000\n        /* \"#utility.yul\":10079:10081   */\n      0x20\n        /* \"#utility.yul\":10071:10077   */\n      dup3\n        /* \"#utility.yul\":10067:10082   */\n      add\n        /* \"#utility.yul\":10060:10088   */\n      mstore\n        /* \"#utility.yul\":9875:10095   */\n      pop\n      jump\t// out\n        /* \"#utility.yul\":10101:10467   */\n    tag_285:\n        /* \"#utility.yul\":10243:10246   */\n      0x00\n        /* \"#utility.yul\":10264:10331   */\n      tag_439\n        /* \"#utility.yul\":10328:10330   */\n      0x21\n        /* \"#utility.yul\":10323:10326   */\n      dup4\n        /* \"#utility.yul\":10264:10331   */\n      tag_256\n      jump\t// in\n    tag_439:\n        /* \"#utility.yul\":10257:10331   */\n      swap2\n      pop\n        /* \"#utility.yul\":10340:10433   */\n      tag_440\n        /* \"#utility.yul\":10429:10432   */\n      dup3\n        /* \"#utility.yul\":10340:10433   */\n      tag_284\n      jump\t// in\n    tag_440:\n        /* \"#utility.yul\":10458:10460   */\n      0x40\n        /* \"#utility.yul\":10453:10456   */\n      dup3\n        /* \"#utility.yul\":10449:10461   */\n      add\n        /* \"#utility.yul\":10442:10461   */\n      swap1\n      pop\n        /* \"#utility.yul\":10101:10467   */\n      swap2\n      swap1\n      pop\n      jump\t// out\n        /* \"#utility.yul\":10473:10892   */\n    tag_133:\n        /* \"#utility.yul\":10639:10643   */\n      0x00\n        /* \"#utility.yul\":10677:10679   */\n      0x20\n        /* \"#utility.yul\":10666:10675   */\n      dup3\n        /* \"#utility.yul\":10662:10680   */\n      add\n        /* \"#utility.yul\":10654:10680   */\n      swap1\n      pop\n        /* \"#utility.yul\":10726:10735   */\n      dup2\n        /* \"#utility.yul\":10720:10724   */\n      dup2\n        /* \"#utility.yul\":10716:10736   */\n      sub\n        /* \"#utility.yul\":10712:10713   */\n      0x00\n        /* \"#utility.yul\":10701:10710   */\n      dup4\n        /* \"#utility.yul\":10697:10714   */\n      add\n        /* \"#utility.yul\":10690:10737   */\n      mstore\n        /* \"#utility.yul\":10754:10885   */\n      tag_442\n        /* \"#utility.yul\":10880:10884   */\n      dup2\n        /* \"#utility.yul\":10754:10885   */\n      tag_285\n      jump\t// in\n    tag_442:\n        /* \"#utility.yul\":10746:10885   */\n      swap1\n      pop\n        /* \"#utility.yul\":10473:10892   */\n      swap2\n      swap1\n      pop\n      jump\t// out\n        /* \"#utility.yul\":10898:11045   */\n    tag_286:\n        /* \"#utility.yul\":10999:11010   */\n      0x00\n        /* \"#utility.yul\":11036:11039   */\n      dup2\n        /* \"#utility.yul\":11021:11039   */\n      swap1\n      pop\n        /* \"#utility.yul\":10898:11045   */\n      swap3\n      swap2\n      pop\n      pop\n      jump\t// out\n        /* \"#utility.yul\":11051:11165   */\n    tag_287:\n      pop\n      jump\t// out\n        /* \"#utility.yul\":11171:11569   */\n    tag_288:\n        /* \"#utility.yul\":11330:11333   */\n      0x00\n        /* \"#utility.yul\":11351:11434   */\n      tag_446\n        /* \"#utility.yul\":11432:11433   */\n      0x00\n        /* \"#utility.yul\":11427:11430   */\n      dup4\n        /* \"#utility.yul\":11351:11434   */\n      tag_286\n      jump\t// in\n    tag_446:\n        /* \"#utility.yul\":11344:11434   */\n      swap2\n      pop\n        /* \"#utility.yul\":11443:11536   */\n      tag_447\n        /* \"#utility.yul\":11532:11535   */\n      dup3\n        /* \"#utility.yul\":11443:11536   */\n      tag_287\n      jump\t// in\n    tag_447:\n        /* \"#utility.yul\":11561:11562   */\n      0x00\n        /* \"#utility.yul\":11556:11559   */\n      dup3\n        /* \"#utility.yul\":11552:11563   */\n      add\n        /* \"#utility.yul\":11545:11563   */\n      swap1\n      pop\n        /* \"#utility.yul\":11171:11569   */\n      swap2\n      swap1\n      pop\n      jump\t// out\n        /* \"#utility.yul\":11575:11954   */\n    tag_135:\n        /* \"#utility.yul\":11759:11762   */\n      0x00\n        /* \"#utility.yul\":11781:11928   */\n      tag_449\n        /* \"#utility.yul\":11924:11927   */\n      dup3\n        /* \"#utility.yul\":11781:11928   */\n      tag_288\n      jump\t// in\n    tag_449:\n        /* \"#utility.yul\":11774:11928   */\n      swap2\n      pop\n        /* \"#utility.yul\":11945:11948   */\n      dup2\n        /* \"#utility.yul\":11938:11948   */\n      swap1\n      pop\n        /* \"#utility.yul\":11575:11954   */\n      swap2\n      swap1\n      pop\n      jump\t// out\n        /* \"#utility.yul\":11960:12136   */\n    tag_289:\n        /* \"#utility.yul\":12100:12128   */\n      0x5769746864726177616c207472616e73666572206661696c6564000000000000\n        /* \"#utility.yul\":12096:12097   */\n      0x00\n        /* \"#utility.yul\":12088:12094   */\n      dup3\n        /* \"#utility.yul\":12084:12098   */\n      add\n        /* \"#utility.yul\":12077:12129   */\n      mstore\n        /* \"#utility.yul\":11960:12136   */\n      pop\n      jump\t// out\n        /* \"#utility.yul\":12142:12508   */\n    tag_290:\n        /* \"#utility.yul\":12284:12287   */\n      0x00\n        /* \"#utility.yul\":12305:12372   */\n      tag_452\n        /* \"#utility.yul\":12369:12371   */\n      0x1a\n        /* \"#utility.yul\":12364:12367   */\n      dup4\n        /* \"#utility.yul\":12305:12372   */\n      tag_256\n      jump\t// in\n    tag_452:\n        /* \"#utility.yul\":12298:12372   */\n      swap2\n      pop\n        /* \"#utility.yul\":12381:12474   */\n      tag_453\n        /* \"#utility.yul\":12470:12473   */\n      dup3\n        /* \"#utility.yul\":12381:12474   */\n      tag_289\n      jump\t// in\n    tag_453:\n        /* \"#utility.yul\":12499:12501   */\n      0x20\n        /* \"#utility.yul\":12494:12497   */\n      dup3\n        /* \"#utility.yul\":12490:12502   */\n      add\n        /* \"#utility.yul\":12483:12502   */\n      swap1\n      pop\n        /* \"#utility.yul\":12142:12508   */\n      swap2\n      swap1\n      pop\n      jump\t// out\n        /* \"#utility.yul\":12514:12933   */\n    tag_141:\n        /* \"#utility.yul\":12680:12684   */\n      0x00\n        /* \"#utility.yul\":12718:12720   */\n      0x20\n        /* \"#utility.yul\":12707:12716   */\n      dup3\n        /* \"#utility.yul\":12703:12721   */\n      add\n        /* \"#utility.yul\":12695:12721   */\n      swap1\n      pop\n        /* \"#utility.yul\":12767:12776   */\n      dup2\n        /* \"#utility.yul\":12761:12765   */\n      dup2\n        /* \"#utility.yul\":12757:12777   */\n      sub\n        /* \"#utility.yul\":12753:12754   */\n      0x00\n        /* \"#utility.yul\":12742:12751   */\n      dup4\n        /* \"#utility.yul\":12738:12755   */\n      add\n        /* \"#utility.yul\":12731:12778   */\n      mstore\n        /* \"#utility.yul\":12795:12926   */\n      tag_455\n        /* \"#utility.yul\":12921:12925   */\n      dup2\n        /* \"#utility.yul\":12795:12926   */\n      tag_290\n      jump\t// in\n    tag_455:\n        /* \"#utility.yul\":12787:12926   */\n      swap1\n      pop\n        /* \"#utility.yul\":12514:12933   */\n      swap2\n      swap1\n      pop\n      jump\t// out\n        /* \"#utility.yul\":12939:13106   */\n    tag_291:\n        /* \"#utility.yul\":13079:13098   */\n      0x4e6f742061207061727469636970616e74000000000000000000000000000000\n        /* \"#utility.yul\":13075:13076   */\n      0x00\n        /* \"#utility.yul\":13067:13073   */\n      dup3\n        /* \"#utility.yul\":13063:13077   */\n      add\n        /* \"#utility.yul\":13056:13099   */\n      mstore\n        /* \"#utility.yul\":12939:13106   */\n      pop\n      jump\t// out\n        /* \"#utility.yul\":13112:13478   */\n    tag_292:\n        /* \"#utility.yul\":13254:13257   */\n      0x00\n        /* \"#utility.yul\":13275:13342   */\n      tag_458\n        /* \"#utility.yul\":13339:13341   */\n      0x11\n        /* \"#utility.yul\":13334:13337   */\n      dup4\n        /* \"#utility.yul\":13275:13342   */\n      tag_256\n      jump\t// in\n    tag_458:\n        /* \"#utility.yul\":13268:13342   */\n      swap2\n      pop\n        /* \"#utility.yul\":13351:13444   */\n      tag_459\n        /* \"#utility.yul\":13440:13443   */\n      dup3\n        /* \"#utility.yul\":13351:13444   */\n      tag_291\n      jump\t// in\n    tag_459:\n        /* \"#utility.yul\":13469:13471   */\n      0x20\n        /* \"#utility.yul\":13464:13467   */\n      dup3\n        /* \"#utility.yul\":13460:13472   */\n      add\n        /* \"#utility.yul\":13453:13472   */\n      swap1\n      pop\n        /* \"#utility.yul\":13112:13478   */\n      swap2\n      swap1\n      pop\n      jump\t// out\n        /* \"#utility.yul\":13484:13903   */\n    tag_152:\n        /* \"#utility.yul\":13650:13654   */\n      0x00\n        /* \"#utility.yul\":13688:13690   */\n      0x20\n        /* \"#utility.yul\":13677:13686   */\n      dup3\n        /* \"#utility.yul\":13673:13691   */\n      add\n        /* \"#utility.yul\":13665:13691   */\n      swap1\n      pop\n        /* \"#utility.yul\":13737:13746   */\n      dup2\n        /* \"#utility.yul\":13731:13735   */\n      dup2\n        /* \"#utility.yul\":13727:13747   */\n      sub\n        /* \"#utility.yul\":13723:13724   */\n      0x00\n        /* \"#utility.yul\":13712:13721   */\n      dup4\n        /* \"#utility.yul\":13708:13725   */\n      add\n        /* \"#utility.yul\":13701:13748   */\n      mstore\n        /* \"#utility.yul\":13765:13896   */\n      tag_461\n        /* \"#utility.yul\":13891:13895   */\n      dup2\n        /* \"#utility.yul\":13765:13896   */\n      tag_292\n      jump\t// in\n    tag_461:\n        /* \"#utility.yul\":13757:13896   */\n      swap1\n      pop\n        /* \"#utility.yul\":13484:13903   */\n      swap2\n      swap1\n      pop\n      jump\t// out\n        /* \"#utility.yul\":13909:14090   */\n    tag_293:\n        /* \"#utility.yul\":14049:14082   */\n      0x4d6f7665206d75737420626520612073696e676c652063686172616374657200\n        /* \"#utility.yul\":14045:14046   */\n      0x00\n        /* \"#utility.yul\":14037:14043   */\n      dup3\n        /* \"#utility.yul\":14033:14047   */\n      add\n        /* \"#utility.yul\":14026:14083   */\n      mstore\n        /* \"#utility.yul\":13909:14090   */\n      pop\n      jump\t// out\n        /* \"#utility.yul\":14096:14462   */\n    tag_294:\n        /* \"#utility.yul\":14238:14241   */\n      0x00\n        /* \"#utility.yul\":14259:14326   */\n      tag_464\n        /* \"#utility.yul\":14323:14325   */\n      0x1f\n        /* \"#utility.yul\":14318:14321   */\n      dup4\n        /* \"#utility.yul\":14259:14326   */\n      tag_256\n      jump\t// in\n    tag_464:\n        /* \"#utility.yul\":14252:14326   */\n      swap2\n      pop\n        /* \"#utility.yul\":14335:14428   */\n      tag_465\n        /* \"#utility.yul\":14424:14427   */\n      dup3\n        /* \"#utility.yul\":14335:14428   */\n      tag_293\n      jump\t// in\n    tag_465:\n        /* \"#utility.yul\":14453:14455   */\n      0x20\n        /* \"#utility.yul\":14448:14451   */\n      dup3\n        /* \"#utility.yul\":14444:14456   */\n      add\n        /* \"#utility.yul\":14437:14456   */\n      swap1\n      pop\n        /* \"#utility.yul\":14096:14462   */\n      swap2\n      swap1\n      pop\n      jump\t// out\n        /* \"#utility.yul\":14468:14887   */\n    tag_155:\n        /* \"#utility.yul\":14634:14638   */\n      0x00\n        /* \"#utility.yul\":14672:14674   */\n      0x20\n        /* \"#utility.yul\":14661:14670   */\n      dup3\n        /* \"#utility.yul\":14657:14675   */\n      add\n        /* \"#utility.yul\":14649:14675   */\n      swap1\n      pop\n        /* \"#utility.yul\":14721:14730   */\n      dup2\n        /* \"#utility.yul\":14715:14719   */\n      dup2\n        /* \"#utility.yul\":14711:14731   */\n      sub\n        /* \"#utility.yul\":14707:14708   */\n      0x00\n        /* \"#utility.yul\":14696:14705   */\n      dup4\n        /* \"#utility.yul\":14692:14709   */\n      add\n        /* \"#utility.yul\":14685:14732   */\n      mstore\n        /* \"#utility.yul\":14749:14880   */\n      tag_467\n        /* \"#utility.yul\":14875:14879   */\n      dup2\n        /* \"#utility.yul\":14749:14880   */\n      tag_294\n      jump\t// in\n    tag_467:\n        /* \"#utility.yul\":14741:14880   */\n      swap1\n      pop\n        /* \"#utility.yul\":14468:14887   */\n      swap2\n      swap1\n      pop\n      jump\t// out\n        /* \"#utility.yul\":14893:15073   */\n    tag_158:\n        /* \"#utility.yul\":14941:15018   */\n      0x4e487b7100000000000000000000000000000000000000000000000000000000\n        /* \"#utility.yul\":14938:14939   */\n      0x00\n        /* \"#utility.yul\":14931:15019   */\n      mstore\n        /* \"#utility.yul\":15038:15042   */\n      0x32\n        /* \"#utility.yul\":15035:15036   */\n      0x04\n        /* \"#utility.yul\":15028:15043   */\n      mstore\n        /* \"#utility.yul\":15062:15066   */\n      0x24\n        /* \"#utility.yul\":15059:15060   */\n      0x00\n        /* \"#utility.yul\":15052:15067   */\n      revert\n        /* \"#utility.yul\":15079:15300   */\n    tag_295:\n        /* \"#utility.yul\":15219:15253   */\n      0x496e76616c6964206d6f76652e20557365202752272c202750272c206f722027\n        /* \"#utility.yul\":15215:15216   */\n      0x00\n        /* \"#utility.yul\":15207:15213   */\n      dup3\n        /* \"#utility.yul\":15203:15217   */\n      add\n        /* \"#utility.yul\":15196:15254   */\n      mstore\n        /* \"#utility.yul\":15288:15292   */\n      0x5327000000000000000000000000000000000000000000000000000000000000\n        /* \"#utility.yul\":15283:15285   */\n      0x20\n        /* \"#utility.yul\":15275:15281   */\n      dup3\n        /* \"#utility.yul\":15271:15286   */\n      add\n        /* \"#utility.yul\":15264:15293   */\n      mstore\n        /* \"#utility.yul\":15079:15300   */\n      pop\n      jump\t// out\n        /* \"#utility.yul\":15306:15672   */\n    tag_296:\n        /* \"#utility.yul\":15448:15451   */\n      0x00\n        /* \"#utility.yul\":15469:15536   */\n      tag_471\n        /* \"#utility.yul\":15533:15535   */\n      0x22\n        /* \"#utility.yul\":15528:15531   */\n      dup4\n        /* \"#utility.yul\":15469:15536   */\n      tag_256\n      jump\t// in\n    tag_471:\n        /* \"#utility.yul\":15462:15536   */\n      swap2\n      pop\n        /* \"#utility.yul\":15545:15638   */\n      tag_472\n        /* \"#utility.yul\":15634:15637   */\n      dup3\n        /* \"#utility.yul\":15545:15638   */\n      tag_295\n      jump\t// in\n    tag_472:\n        /* \"#utility.yul\":15663:15665   */\n      0x40\n        /* \"#utility.yul\":15658:15661   */\n      dup3\n        /* \"#utility.yul\":15654:15666   */\n      add\n        /* \"#utility.yul\":15647:15666   */\n      swap1\n      pop\n        /* \"#utility.yul\":15306:15672   */\n      swap2\n      swap1\n      pop\n      jump\t// out\n        /* \"#utility.yul\":15678:16097   */\n    tag_163:\n        /* \"#utility.yul\":15844:15848   */\n      0x00\n        /* \"#utility.yul\":15882:15884   */\n      0x20\n        /* \"#utility.yul\":15871:15880   */\n      dup3\n        /* \"#utility.yul\":15867:15885   */\n      add\n        /* \"#utility.yul\":15859:15885   */\n      swap1\n      pop\n        /* \"#utility.yul\":15931:15940   */\n      dup2\n        /* \"#utility.yul\":15925:15929   */\n      dup2\n        /* \"#utility.yul\":15921:15941   */\n      sub\n        /* \"#utility.yul\":15917:15918   */\n      0x00\n        /* \"#utility.yul\":15906:15915   */\n      dup4\n        /* \"#utility.yul\":15902:15919   */\n      add\n        /* \"#utility.yul\":15895:15942   */\n      mstore\n        /* \"#utility.yul\":15959:16090   */\n      tag_474\n        /* \"#utility.yul\":16085:16089   */\n      dup2\n        /* \"#utility.yul\":15959:16090   */\n      tag_296\n      jump\t// in\n    tag_474:\n        /* \"#utility.yul\":15951:16090   */\n      swap1\n      pop\n        /* \"#utility.yul\":15678:16097   */\n      swap2\n      swap1\n      pop\n      jump\t// out\n        /* \"#utility.yul\":16103:16251   */\n    tag_297:\n        /* \"#utility.yul\":16205:16216   */\n      0x00\n        /* \"#utility.yul\":16242:16245   */\n      dup2\n        /* \"#utility.yul\":16227:16245   */\n      swap1\n      pop\n        /* \"#utility.yul\":16103:16251   */\n      swap3\n      swap2\n      pop\n      pop\n      jump\t// out\n        /* \"#utility.yul\":16257:16405   */\n    tag_298:\n        /* \"#utility.yul\":16355:16361   */\n      dup3\n        /* \"#utility.yul\":16350:16353   */\n      dup2\n        /* \"#utility.yul\":16345:16348   */\n      dup4\n        /* \"#utility.yul\":16332:16362   */\n      calldatacopy\n        /* \"#utility.yul\":16396:16397   */\n      0x00\n        /* \"#utility.yul\":16387:16393   */\n      dup4\n        /* \"#utility.yul\":16382:16385   */\n      dup4\n        /* \"#utility.yul\":16378:16394   */\n      add\n        /* \"#utility.yul\":16371:16398   */\n      mstore\n        /* \"#utility.yul\":16257:16405   */\n      pop\n      pop\n      pop\n      jump\t// out\n        /* \"#utility.yul\":16435:16765   */\n    tag_299:\n        /* \"#utility.yul\":16551:16554   */\n      0x00\n        /* \"#utility.yul\":16572:16661   */\n      tag_478\n        /* \"#utility.yul\":16654:16660   */\n      dup4\n        /* \"#utility.yul\":16649:16652   */\n      dup6\n        /* \"#utility.yul\":16572:16661   */\n      tag_297\n      jump\t// in\n    tag_478:\n        /* \"#utility.yul\":16565:16661   */\n      swap4\n      pop\n        /* \"#utility.yul\":16671:16727   */\n      tag_479\n        /* \"#utility.yul\":16720:16726   */\n      dup4\n        /* \"#utility.yul\":16715:16718   */\n      dup6\n        /* \"#utility.yul\":16708:16713   */\n      dup5\n        /* \"#utility.yul\":16671:16727   */\n      tag_298\n      jump\t// in\n    tag_479:\n        /* \"#utility.yul\":16752:16758   */\n      dup3\n        /* \"#utility.yul\":16747:16750   */\n      dup5\n        /* \"#utility.yul\":16743:16759   */\n      add\n        /* \"#utility.yul\":16736:16759   */\n      swap1\n      pop\n        /* \"#utility.yul\":16435:16765   */\n      swap4\n      swap3\n      pop\n      pop\n      pop\n      jump\t// out\n        /* \"#utility.yul\":16771:17246   */\n    tag_165:\n        /* \"#utility.yul\":16971:16974   */\n      0x00\n        /* \"#utility.yul\":16993:17098   */\n      tag_481\n        /* \"#utility.yul\":17094:17097   */\n      dup3\n        /* \"#utility.yul\":17085:17091   */\n      dup7\n        /* \"#utility.yul\":17077:17083   */\n      dup9\n        /* \"#utility.yul\":16993:17098   */\n      tag_299\n      jump\t// in\n    tag_481:\n        /* \"#utility.yul\":16986:17098   */\n      swap2\n      pop\n        /* \"#utility.yul\":17115:17220   */\n      tag_482\n        /* \"#utility.yul\":17216:17219   */\n      dup3\n        /* \"#utility.yul\":17207:17213   */\n      dup5\n        /* \"#utility.yul\":17199:17205   */\n      dup7\n        /* \"#utility.yul\":17115:17220   */\n      tag_299\n      jump\t// in\n    tag_482:\n        /* \"#utility.yul\":17108:17220   */\n      swap2\n      pop\n        /* \"#utility.yul\":17237:17240   */\n      dup2\n        /* \"#utility.yul\":17230:17240   */\n      swap1\n      pop\n        /* \"#utility.yul\":16771:17246   */\n      swap6\n      swap5\n      pop\n      pop\n      pop\n      pop\n      pop\n      jump\t// out\n        /* \"#utility.yul\":17252:17426   */\n    tag_300:\n        /* \"#utility.yul\":17392:17418   */\n      0x506c617965723120616c72656164792072657665616c65640000000000000000\n        /* \"#utility.yul\":17388:17389   */\n      0x00\n        /* \"#utility.yul\":17380:17386   */\n      dup3\n        /* \"#utility.yul\":17376:17390   */\n      add\n        /* \"#utility.yul\":17369:17419   */\n      mstore\n        /* \"#utility.yul\":17252:17426   */\n      pop\n      jump\t// out\n        /* \"#utility.yul\":17432:17798   */\n    tag_301:\n        /* \"#utility.yul\":17574:17577   */\n      0x00\n        /* \"#utility.yul\":17595:17662   */\n      tag_485\n        /* \"#utility.yul\":17659:17661   */\n      0x18\n        /* \"#utility.yul\":17654:17657   */\n      dup4\n        /* \"#utility.yul\":17595:17662   */\n      tag_256\n      jump\t// in\n    tag_485:\n        /* \"#utility.yul\":17588:17662   */\n      swap2\n      pop\n        /* \"#utility.yul\":17671:17764   */\n      tag_486\n        /* \"#utility.yul\":17760:17763   */\n      dup3\n        /* \"#utility.yul\":17671:17764   */\n      tag_300\n      jump\t// in\n    tag_486:\n        /* \"#utility.yul\":17789:17791   */\n      0x20\n        /* \"#utility.yul\":17784:17787   */\n      dup3\n        /* \"#utility.yul\":17780:17792   */\n      add\n        /* \"#utility.yul\":17773:17792   */\n      swap1\n      pop\n        /* \"#utility.yul\":17432:17798   */\n      swap2\n      swap1\n      pop\n      jump\t// out\n        /* \"#utility.yul\":17804:18223   */\n    tag_169:\n        /* \"#utility.yul\":17970:17974   */\n      0x00\n        /* \"#utility.yul\":18008:18010   */\n      0x20\n        /* \"#utility.yul\":17997:18006   */\n      dup3\n        /* \"#utility.yul\":17993:18011   */\n      add\n        /* \"#utility.yul\":17985:18011   */\n      swap1\n      pop\n        /* \"#utility.yul\":18057:18066   */\n      dup2\n        /* \"#utility.yul\":18051:18055   */\n      dup2\n        /* \"#utility.yul\":18047:18067   */\n      sub\n        /* \"#utility.yul\":18043:18044   */\n      0x00\n        /* \"#utility.yul\":18032:18041   */\n      dup4\n        /* \"#utility.yul\":18028:18045   */\n      add\n        /* \"#utility.yul\":18021:18068   */\n      mstore\n        /* \"#utility.yul\":18085:18216   */\n      tag_488\n        /* \"#utility.yul\":18211:18215   */\n      dup2\n        /* \"#utility.yul\":18085:18216   */\n      tag_301\n      jump\t// in\n    tag_488:\n        /* \"#utility.yul\":18077:18216   */\n      swap1\n      pop\n        /* \"#utility.yul\":17804:18223   */\n      swap2\n      swap1\n      pop\n      jump\t// out\n        /* \"#utility.yul\":18229:18405   */\n    tag_302:\n        /* \"#utility.yul\":18369:18397   */\n      0x496e76616c69642072657665616c20666f7220706c6179657231000000000000\n        /* \"#utility.yul\":18365:18366   */\n      0x00\n        /* \"#utility.yul\":18357:18363   */\n      dup3\n        /* \"#utility.yul\":18353:18367   */\n      add\n        /* \"#utility.yul\":18346:18398   */\n      mstore\n        /* \"#utility.yul\":18229:18405   */\n      pop\n      jump\t// out\n        /* \"#utility.yul\":18411:18777   */\n    tag_303:\n        /* \"#utility.yul\":18553:18556   */\n      0x00\n        /* \"#utility.yul\":18574:18641   */\n      tag_491\n        /* \"#utility.yul\":18638:18640   */\n      0x1a\n        /* \"#utility.yul\":18633:18636   */\n      dup4\n        /* \"#utility.yul\":18574:18641   */\n      tag_256\n      jump\t// in\n    tag_491:\n        /* \"#utility.yul\":18567:18641   */\n      swap2\n      pop\n        /* \"#utility.yul\":18650:18743   */\n      tag_492\n        /* \"#utility.yul\":18739:18742   */\n      dup3\n        /* \"#utility.yul\":18650:18743   */\n      tag_302\n      jump\t// in\n    tag_492:\n        /* \"#utility.yul\":18768:18770   */\n      0x20\n        /* \"#utility.yul\":18763:18766   */\n      dup3\n        /* \"#utility.yul\":18759:18771   */\n      add\n        /* \"#utility.yul\":18752:18771   */\n      swap1\n      pop\n        /* \"#utility.yul\":18411:18777   */\n      swap2\n      swap1\n      pop\n      jump\t// out\n        /* \"#utility.yul\":18783:19202   */\n    tag_172:\n        /* \"#utility.yul\":18949:18953   */\n      0x00\n        /* \"#utility.yul\":18987:18989   */\n      0x20\n        /* \"#utility.yul\":18976:18985   */\n      dup3\n        /* \"#utility.yul\":18972:18990   */\n      add\n        /* \"#utility.yul\":18964:18990   */\n      swap1\n      pop\n        /* \"#utility.yul\":19036:19045   */\n      dup2\n        /* \"#utility.yul\":19030:19034   */\n      dup2\n        /* \"#utility.yul\":19026:19046   */\n      sub\n        /* \"#utility.yul\":19022:19023   */\n      0x00\n        /* \"#utility.yul\":19011:19020   */\n      dup4\n        /* \"#utility.yul\":19007:19024   */\n      add\n        /* \"#utility.yul\":19000:19047   */\n      mstore\n        /* \"#utility.yul\":19064:19195   */\n      tag_494\n        /* \"#utility.yul\":19190:19194   */\n      dup2\n        /* \"#utility.yul\":19064:19195   */\n      tag_303\n      jump\t// in\n    tag_494:\n        /* \"#utility.yul\":19056:19195   */\n      swap1\n      pop\n        /* \"#utility.yul\":18783:19202   */\n      swap2\n      swap1\n      pop\n      jump\t// out\n        /* \"#utility.yul\":19208:19305   */\n    tag_304:\n        /* \"#utility.yul\":19267:19273   */\n      0x00\n        /* \"#utility.yul\":19295:19298   */\n      dup3\n        /* \"#utility.yul\":19285:19298   */\n      swap1\n      pop\n        /* \"#utility.yul\":19208:19305   */\n      swap3\n      swap2\n      pop\n      pop\n      jump\t// out\n        /* \"#utility.yul\":19311:19491   */\n    tag_305:\n        /* \"#utility.yul\":19359:19436   */\n      0x4e487b7100000000000000000000000000000000000000000000000000000000\n        /* \"#utility.yul\":19356:19357   */\n      0x00\n        /* \"#utility.yul\":19349:19437   */\n      mstore\n        /* \"#utility.yul\":19456:19460   */\n      0x41\n        /* \"#utility.yul\":19453:19454   */\n      0x04\n        /* \"#utility.yul\":19446:19461   */\n      mstore\n        /* \"#utility.yul\":19480:19484   */\n      0x24\n        /* \"#utility.yul\":19477:19478   */\n      0x00\n        /* \"#utility.yul\":19470:19485   */\n      revert\n        /* \"#utility.yul\":19497:19638   */\n    tag_306:\n        /* \"#utility.yul\":19546:19550   */\n      0x00\n        /* \"#utility.yul\":19569:19572   */\n      dup2\n        /* \"#utility.yul\":19561:19572   */\n      swap1\n      pop\n        /* \"#utility.yul\":19592:19595   */\n      dup2\n        /* \"#utility.yul\":19589:19590   */\n      0x00\n        /* \"#utility.yul\":19582:19596   */\n      mstore\n        /* \"#utility.yul\":19626:19630   */\n      0x20\n        /* \"#utility.yul\":19623:19624   */\n      0x00\n        /* \"#utility.yul\":19613:19631   */\n      keccak256\n        /* \"#utility.yul\":19605:19631   */\n      swap1\n      pop\n        /* \"#utility.yul\":19497:19638   */\n      swap2\n      swap1\n      pop\n      jump\t// out\n        /* \"#utility.yul\":19644:19737   */\n    tag_307:\n        /* \"#utility.yul\":19681:19687   */\n      0x00\n        /* \"#utility.yul\":19728:19730   */\n      0x20\n        /* \"#utility.yul\":19723:19725   */\n      0x1f\n        /* \"#utility.yul\":19716:19721   */\n      dup4\n        /* \"#utility.yul\":19712:19726   */\n      add\n        /* \"#utility.yul\":19708:19731   */\n      div\n        /* \"#utility.yul\":19698:19731   */\n      swap1\n      pop\n        /* \"#utility.yul\":19644:19737   */\n      swap2\n      swap1\n      pop\n      jump\t// out\n        /* \"#utility.yul\":19743:19850   */\n    tag_308:\n        /* \"#utility.yul\":19787:19795   */\n      0x00\n        /* \"#utility.yul\":19837:19842   */\n      dup3\n        /* \"#utility.yul\":19831:19835   */\n      dup3\n        /* \"#utility.yul\":19827:19843   */\n      shl\n        /* \"#utility.yul\":19806:19843   */\n      swap1\n      pop\n        /* \"#utility.yul\":19743:19850   */\n      swap3\n      swap2\n      pop\n      pop\n      jump\t// out\n        /* \"#utility.yul\":19856:20249   */\n    tag_309:\n        /* \"#utility.yul\":19925:19931   */\n      0x00\n        /* \"#utility.yul\":19975:19976   */\n      0x08\n        /* \"#utility.yul\":19963:19973   */\n      dup4\n        /* \"#utility.yul\":19959:19977   */\n      mul\n        /* \"#utility.yul\":19998:20095   */\n      tag_501\n        /* \"#utility.yul\":20028:20094   */\n      0xffffffffffffffffffffffffffffffffffffffffffffffffffffffffffffffff\n        /* \"#utility.yul\":20017:20026   */\n      dup3\n        /* \"#utility.yul\":19998:20095   */\n      tag_308\n      jump\t// in\n    tag_501:\n        /* \"#utility.yul\":20116:20155   */\n      tag_502\n        /* \"#utility.yul\":20146:20154   */\n      dup7\n        /* \"#utility.yul\":20135:20144   */\n      dup4\n        /* \"#utility.yul\":20116:20155   */\n      tag_308\n      jump\t// in\n    tag_502:\n        /* \"#utility.yul\":20104:20155   */\n      swap6\n      pop\n        /* \"#utility.yul\":20188:20192   */\n      dup1\n        /* \"#utility.yul\":20184:20193   */\n      not\n        /* \"#utility.yul\":20177:20182   */\n      dup5\n        /* \"#utility.yul\":20173:20194   */\n      and\n        /* \"#utility.yul\":20164:20194   */\n      swap4\n      pop\n        /* \"#utility.yul\":20237:20241   */\n      dup1\n        /* \"#utility.yul\":20227:20235   */\n      dup7\n        /* \"#utility.yul\":20223:20242   */\n      and\n        /* \"#utility.yul\":20216:20221   */\n      dup5\n        /* \"#utility.yul\":20213:20243   */\n      or\n        /* \"#utility.yul\":20203:20243   */\n      swap3\n      pop\n        /* \"#utility.yul\":19932:20249   */\n      pop\n      pop\n        /* \"#utility.yul\":19856:20249   */\n      swap4\n      swap3\n      pop\n      pop\n      pop\n      jump\t// out\n        /* \"#utility.yul\":20255:20315   */\n    tag_310:\n        /* \"#utility.yul\":20283:20286   */\n      0x00\n        /* \"#utility.yul\":20304:20309   */\n      dup2\n        /* \"#utility.yul\":20297:20309   */\n      swap1\n      pop\n        /* \"#utility.yul\":20255:20315   */\n      swap2\n      swap1\n      pop\n      jump\t// out\n        /* \"#utility.yul\":20321:20463   */\n    tag_311:\n        /* \"#utility.yul\":20371:20380   */\n      0x00\n        /* \"#utility.yul\":20404:20457   */\n      tag_505\n        /* \"#utility.yul\":20422:20456   */\n      tag_506\n        /* \"#utility.yul\":20431:20455   */\n      tag_507\n        /* \"#utility.yul\":20449:20454   */\n      dup5\n        /* \"#utility.yul\":20431:20455   */\n      tag_253\n      jump\t// in\n    tag_507:\n        /* \"#utility.yul\":20422:20456   */\n      tag_310\n      jump\t// in\n    tag_506:\n        /* \"#utility.yul\":20404:20457   */\n      tag_253\n      jump\t// in\n    tag_505:\n        /* \"#utility.yul\":20391:20457   */\n      swap1\n      pop\n        /* \"#utility.yul\":20321:20463   */\n      swap2\n      swap1\n      pop\n      jump\t// out\n        /* \"#utility.yul\":20469:20544   */\n    tag_312:\n        /* \"#utility.yul\":20512:20515   */\n      0x00\n        /* \"#utility.yul\":20533:20538   */\n      dup2\n        /* \"#utility.yul\":20526:20538   */\n      swap1\n      pop\n        /* \"#utility.yul\":20469:20544   */\n      swap2\n      swap1\n      pop\n      jump\t// out\n        /* \"#utility.yul\":20550:20819   */\n    tag_313:\n        /* \"#utility.yul\":20660:20699   */\n      tag_510\n        /* \"#utility.yul\":20691:20698   */\n      dup4\n        /* \"#utility.yul\":20660:20699   */\n      tag_311\n      jump\t// in\n    tag_510:\n        /* \"#utility.yul\":20721:20812   */\n      tag_511\n        /* \"#utility.yul\":20770:20811   */\n      tag_512\n        /* \"#utility.yul\":20794:20810   */\n      dup3\n        /* \"#utility.yul\":20770:20811   */\n      tag_312\n      jump\t// in\n    tag_512:\n        /* \"#utility.yul\":20762:20768   */\n      dup5\n        /* \"#utility.yul\":20755:20759   */\n      dup5\n        /* \"#utility.yul\":20749:20760   */\n      sload\n        /* \"#utility.yul\":20721:20812   */\n      tag_309\n      jump\t// in\n    tag_511:\n        /* \"#utility.yul\":20715:20719   */\n      dup3\n        /* \"#utility.yul\":20708:20813   */\n      sstore\n        /* \"#utility.yul\":20626:20819   */\n      pop\n        /* \"#utility.yul\":20550:20819   */\n      pop\n      pop\n      pop\n      jump\t// out\n        /* \"#utility.yul\":20825:20898   */\n    tag_314:\n        /* \"#utility.yul\":20870:20873   */\n      0x00\n        /* \"#utility.yul\":20825:20898   */\n      swap1\n      jump\t// out\n        /* \"#utility.yul\":20904:21093   */\n    tag_315:\n        /* \"#utility.yul\":20981:21013   */\n      tag_515\n      tag_314\n      jump\t// in\n    tag_515:\n        /* \"#utility.yul\":21022:21087   */\n      tag_516\n        /* \"#utility.yul\":21080:21086   */\n      dup2\n        /* \"#utility.yul\":21072:21078   */\n      dup5\n        /* \"#utility.yul\":21066:21070   */\n      dup5\n        /* \"#utility.yul\":21022:21087   */\n      tag_313\n      jump\t// in\n    tag_516:\n        /* \"#utility.yul\":20957:21093   */\n      pop\n        /* \"#utility.yul\":20904:21093   */\n      pop\n      pop\n      jump\t// out\n        /* \"#utility.yul\":21099:21285   */\n    tag_316:\n        /* \"#utility.yul\":21159:21279   */\n    tag_518:\n        /* \"#utility.yul\":21176:21179   */\n      dup2\n        /* \"#utility.yul\":21169:21174   */\n      dup2\n        /* \"#utility.yul\":21166:21180   */\n      lt\n        /* \"#utility.yul\":21159:21279   */\n      iszero\n      tag_520\n      jumpi\n        /* \"#utility.yul\":21230:21269   */\n      tag_521\n        /* \"#utility.yul\":21267:21268   */\n      0x00\n        /* \"#utility.yul\":21260:21265   */\n      dup3\n        /* \"#utility.yul\":21230:21269   */\n      tag_315\n      jump\t// in\n    tag_521:\n        /* \"#utility.yul\":21203:21204   */\n      0x01\n        /* \"#utility.yul\":21196:21201   */\n      dup2\n        /* \"#utility.yul\":21192:21205   */\n      add\n        /* \"#utility.yul\":21183:21205   */\n      swap1\n      pop\n        /* \"#utility.yul\":21159:21279   */\n      jump(tag_518)\n    tag_520:\n        /* \"#utility.yul\":21099:21285   */\n      pop\n      pop\n      jump\t// out\n        /* \"#utility.yul\":21291:21834   */\n    tag_317:\n        /* \"#utility.yul\":21392:21394   */\n      0x1f\n        /* \"#utility.yul\":21387:21390   */\n      dup3\n        /* \"#utility.yul\":21384:21395   */\n      gt\n        /* \"#utility.yul\":21381:21827   */\n      iszero\n      tag_523\n      jumpi\n        /* \"#utility.yul\":21426:21464   */\n      tag_524\n        /* \"#utility.yul\":21458:21463   */\n      dup2\n        /* \"#utility.yul\":21426:21464   */\n      tag_306\n      jump\t// in\n    tag_524:\n        /* \"#utility.yul\":21510:21539   */\n      tag_525\n        /* \"#utility.yul\":21528:21538   */\n      dup5\n        /* \"#utility.yul\":21510:21539   */\n      tag_307\n      jump\t// in\n    tag_525:\n        /* \"#utility.yul\":21500:21508   */\n      dup2\n        /* \"#utility.yul\":21496:21540   */\n      add\n        /* \"#utility.yul\":21693:21695   */\n      0x20\n        /* \"#utility.yul\":21681:21691   */\n      dup6\n        /* \"#utility.yul\":21678:21696   */\n      lt\n        /* \"#utility.yul\":21675:21724   */\n      iszero\n      tag_526\n      jumpi\n        /* \"#utility.yul\":21714:21722   */\n      dup2\n        /* \"#utility.yul\":21699:21722   */\n      swap1\n      pop\n        /* \"#utility.yul\":21675:21724   */\n    tag_526:\n        /* \"#utility.yul\":21737:21817   */\n      tag_527\n        /* \"#utility.yul\":21793:21815   */\n      tag_528\n        /* \"#utility.yul\":21811:21814   */\n      dup6\n        /* \"#utility.yul\":21793:21815   */\n      tag_307\n      jump\t// in\n    tag_528:\n        /* \"#utility.yul\":21783:21791   */\n      dup4\n        /* \"#utility.yul\":21779:21816   */\n      add\n        /* \"#utility.yul\":21766:21777   */\n      dup3\n        /* \"#utility.yul\":21737:21817   */\n      tag_316\n      jump\t// in\n    tag_527:\n        /* \"#utility.yul\":21396:21827   */\n      pop\n      pop\n        /* \"#utility.yul\":21381:21827   */\n    tag_523:\n        /* \"#utility.yul\":21291:21834   */\n      pop\n      pop\n      pop\n      jump\t// out\n        /* \"#utility.yul\":21840:21957   */\n    tag_318:\n        /* \"#utility.yul\":21894:21902   */\n      0x00\n        /* \"#utility.yul\":21944:21949   */\n      dup3\n        /* \"#utility.yul\":21938:21942   */\n      dup3\n        /* \"#utility.yul\":21934:21950   */\n      shr\n        /* \"#utility.yul\":21913:21950   */\n      swap1\n      pop\n        /* \"#utility.yul\":21840:21957   */\n      swap3\n      swap2\n      pop\n      pop\n      jump\t// out\n        /* \"#utility.yul\":21963:22132   */\n    tag_319:\n        /* \"#utility.yul\":22007:22013   */\n      0x00\n        /* \"#utility.yul\":22040:22091   */\n      tag_531\n        /* \"#utility.yul\":22088:22089   */\n      0x00\n        /* \"#utility.yul\":22084:22090   */\n      not\n        /* \"#utility.yul\":22076:22081   */\n      dup5\n        /* \"#utility.yul\":22073:22074   */\n      0x08\n        /* \"#utility.yul\":22069:22082   */\n      mul\n        /* \"#utility.yul\":22040:22091   */\n      tag_318\n      jump\t// in\n    tag_531:\n        /* \"#utility.yul\":22036:22092   */\n      not\n        /* \"#utility.yul\":22121:22125   */\n      dup1\n        /* \"#utility.yul\":22115:22119   */\n      dup4\n        /* \"#utility.yul\":22111:22126   */\n      and\n        /* \"#utility.yul\":22101:22126   */\n      swap2\n      pop\n        /* \"#utility.yul\":22014:22132   */\n      pop\n        /* \"#utility.yul\":21963:22132   */\n      swap3\n      swap2\n      pop\n      pop\n      jump\t// out\n        /* \"#utility.yul\":22137:22432   */\n    tag_320:\n        /* \"#utility.yul\":22213:22217   */\n      0x00\n        /* \"#utility.yul\":22359:22388   */\n      tag_533\n        /* \"#utility.yul\":22384:22387   */\n      dup4\n        /* \"#utility.yul\":22378:22382   */\n      dup4\n        /* \"#utility.yul\":22359:22388   */\n      tag_319\n      jump\t// in\n    tag_533:\n        /* \"#utility.yul\":22351:22388   */\n      swap2\n      pop\n        /* \"#utility.yul\":22421:22424   */\n      dup3\n        /* \"#utility.yul\":22418:22419   */\n      0x02\n        /* \"#utility.yul\":22414:22425   */\n      mul\n        /* \"#utility.yul\":22408:22412   */\n      dup3\n        /* \"#utility.yul\":22405:22426   */\n      or\n        /* \"#utility.yul\":22397:22426   */\n      swap1\n      pop\n        /* \"#utility.yul\":22137:22432   */\n      swap3\n      swap2\n      pop\n      pop\n      jump\t// out\n        /* \"#utility.yul\":22437:23840   */\n    tag_174:\n        /* \"#utility.yul\":22561:22605   */\n      tag_535\n        /* \"#utility.yul\":22601:22604   */\n      dup4\n        /* \"#utility.yul\":22596:22599   */\n      dup4\n        /* \"#utility.yul\":22561:22605   */\n      tag_304\n      jump\t// in\n    tag_535:\n        /* \"#utility.yul\":22670:22688   */\n      0xffffffffffffffff\n        /* \"#utility.yul\":22662:22668   */\n      dup2\n        /* \"#utility.yul\":22659:22689   */\n      gt\n        /* \"#utility.yul\":22656:22712   */\n      iszero\n      tag_536\n      jumpi\n        /* \"#utility.yul\":22692:22710   */\n      tag_537\n      tag_305\n      jump\t// in\n    tag_537:\n        /* \"#utility.yul\":22656:22712   */\n    tag_536:\n        /* \"#utility.yul\":22736:22774   */\n      tag_538\n        /* \"#utility.yul\":22768:22772   */\n      dup3\n        /* \"#utility.yul\":22762:22773   */\n      sload\n        /* \"#utility.yul\":22736:22774   */\n      tag_106\n      jump\t// in\n    tag_538:\n        /* \"#utility.yul\":22821:22888   */\n      tag_539\n        /* \"#utility.yul\":22881:22887   */\n      dup3\n        /* \"#utility.yul\":22873:22879   */\n      dup3\n        /* \"#utility.yul\":22867:22871   */\n      dup6\n        /* \"#utility.yul\":22821:22888   */\n      tag_317\n      jump\t// in\n    tag_539:\n        /* \"#utility.yul\":22915:22916   */\n      0x00\n        /* \"#utility.yul\":22944:22946   */\n      0x1f\n        /* \"#utility.yul\":22936:22942   */\n      dup4\n        /* \"#utility.yul\":22933:22947   */\n      gt\n        /* \"#utility.yul\":22961:22962   */\n      0x01\n        /* \"#utility.yul\":22956:23588   */\n      dup2\n      eq\n      tag_541\n      jumpi\n        /* \"#utility.yul\":23632:23633   */\n      0x00\n        /* \"#utility.yul\":23649:23655   */\n      dup5\n        /* \"#utility.yul\":23646:23730   */\n      iszero\n      tag_542\n      jumpi\n        /* \"#utility.yul\":23705:23714   */\n      dup3\n        /* \"#utility.yul\":23700:23703   */\n      dup8\n        /* \"#utility.yul\":23696:23715   */\n      add\n        /* \"#utility.yul\":23683:23716   */\n      calldataload\n        /* \"#utility.yul\":23674:23716   */\n      swap1\n      pop\n        /* \"#utility.yul\":23646:23730   */\n    tag_542:\n        /* \"#utility.yul\":23756:23823   */\n      tag_543\n        /* \"#utility.yul\":23816:23822   */\n      dup6\n        /* \"#utility.yul\":23809:23814   */\n      dup3\n        /* \"#utility.yul\":23756:23823   */\n      tag_320\n      jump\t// in\n    tag_543:\n        /* \"#utility.yul\":23750:23754   */\n      dup7\n        /* \"#utility.yul\":23743:23824   */\n      sstore\n        /* \"#utility.yul\":23605:23834   */\n      pop\n        /* \"#utility.yul\":22926:23834   */\n      jump(tag_540)\n        /* \"#utility.yul\":22956:23588   */\n    tag_541:\n        /* \"#utility.yul\":23008:23012   */\n      0x1f\n        /* \"#utility.yul\":23004:23013   */\n      not\n        /* \"#utility.yul\":22996:23002   */\n      dup5\n        /* \"#utility.yul\":22992:23014   */\n      and\n        /* \"#utility.yul\":23042:23079   */\n      tag_544\n        /* \"#utility.yul\":23074:23078   */\n      dup7\n        /* \"#utility.yul\":23042:23079   */\n      tag_306\n      jump\t// in\n    tag_544:\n        /* \"#utility.yul\":23101:23102   */\n      0x00\n        /* \"#utility.yul\":23115:23330   */\n    tag_545:\n        /* \"#utility.yul\":23129:23136   */\n      dup3\n        /* \"#utility.yul\":23126:23127   */\n      dup2\n        /* \"#utility.yul\":23123:23137   */\n      lt\n        /* \"#utility.yul\":23115:23330   */\n      iszero\n      tag_547\n      jumpi\n        /* \"#utility.yul\":23215:23224   */\n      dup5\n        /* \"#utility.yul\":23210:23213   */\n      dup10\n        /* \"#utility.yul\":23206:23225   */\n      add\n        /* \"#utility.yul\":23193:23226   */\n      calldataload\n        /* \"#utility.yul\":23185:23191   */\n      dup3\n        /* \"#utility.yul\":23178:23227   */\n      sstore\n        /* \"#utility.yul\":23266:23267   */\n      0x01\n        /* \"#utility.yul\":23258:23264   */\n      dup3\n        /* \"#utility.yul\":23254:23268   */\n      add\n        /* \"#utility.yul\":23244:23268   */\n      swap2\n      pop\n        /* \"#utility.yul\":23313:23315   */\n      0x20\n        /* \"#utility.yul\":23302:23311   */\n      dup6\n        /* \"#utility.yul\":23298:23316   */\n      add\n        /* \"#utility.yul\":23285:23316   */\n      swap5\n      pop\n        /* \"#utility.yul\":23152:23156   */\n      0x20\n        /* \"#utility.yul\":23149:23150   */\n      dup2\n        /* \"#utility.yul\":23145:23157   */\n      add\n        /* \"#utility.yul\":23140:23157   */\n      swap1\n      pop\n        /* \"#utility.yul\":23115:23330   */\n      jump(tag_545)\n    tag_547:\n        /* \"#utility.yul\":23358:23364   */\n      dup7\n        /* \"#utility.yul\":23349:23356   */\n      dup4\n        /* \"#utility.yul\":23346:23365   */\n      lt\n        /* \"#utility.yul\":23343:23529   */\n      iszero\n      tag_548\n      jumpi\n        /* \"#utility.yul\":23423:23432   */\n      dup5\n        /* \"#utility.yul\":23418:23421   */\n      dup10\n        /* \"#utility.yul\":23414:23433   */\n      add\n        /* \"#utility.yul\":23401:23434   */\n      calldataload\n        /* \"#utility.yul\":23466:23514   */\n      tag_549\n        /* \"#utility.yul\":23508:23512   */\n      0x1f\n        /* \"#utility.yul\":23500:23506   */\n      dup10\n        /* \"#utility.yul\":23496:23513   */\n      and\n        /* \"#utility.yul\":23485:23494   */\n      dup3\n        /* \"#utility.yul\":23466:23514   */\n      tag_319\n      jump\t// in\n    tag_549:\n        /* \"#utility.yul\":23458:23464   */\n      dup4\n        /* \"#utility.yul\":23451:23515   */\n      sstore\n        /* \"#utility.yul\":23366:23529   */\n      pop\n        /* \"#utility.yul\":23343:23529   */\n    tag_548:\n        /* \"#utility.yul\":23575:23576   */\n      0x01\n        /* \"#utility.yul\":23571:23572   */\n      0x02\n        /* \"#utility.yul\":23563:23569   */\n      dup9\n        /* \"#utility.yul\":23559:23573   */\n      mul\n        /* \"#utility.yul\":23555:23577   */\n      add\n        /* \"#utility.yul\":23549:23553   */\n      dup9\n        /* \"#utility.yul\":23542:23578   */\n      sstore\n        /* \"#utility.yul\":22963:23588   */\n      pop\n      pop\n      pop\n        /* \"#utility.yul\":22926:23834   */\n    tag_540:\n      pop\n        /* \"#utility.yul\":22536:23840   */\n      pop\n      pop\n      pop\n        /* \"#utility.yul\":22437:23840   */\n      pop\n      pop\n      pop\n      jump\t// out\n        /* \"#utility.yul\":23870:24187   */\n    tag_321:\n        /* \"#utility.yul\":23968:23971   */\n      0x00\n        /* \"#utility.yul\":23989:24060   */\n      tag_551\n        /* \"#utility.yul\":24053:24059   */\n      dup4\n        /* \"#utility.yul\":24048:24051   */\n      dup6\n        /* \"#utility.yul\":23989:24060   */\n      tag_256\n      jump\t// in\n    tag_551:\n        /* \"#utility.yul\":23982:24060   */\n      swap4\n      pop\n        /* \"#utility.yul\":24070:24126   */\n      tag_552\n        /* \"#utility.yul\":24119:24125   */\n      dup4\n        /* \"#utility.yul\":24114:24117   */\n      dup6\n        /* \"#utility.yul\":24107:24112   */\n      dup5\n        /* \"#utility.yul\":24070:24126   */\n      tag_298\n      jump\t// in\n    tag_552:\n        /* \"#utility.yul\":24151:24180   */\n      tag_553\n        /* \"#utility.yul\":24173:24179   */\n      dup4\n        /* \"#utility.yul\":24151:24180   */\n      tag_258\n      jump\t// in\n    tag_553:\n        /* \"#utility.yul\":24146:24149   */\n      dup5\n        /* \"#utility.yul\":24142:24181   */\n      add\n        /* \"#utility.yul\":24135:24181   */\n      swap1\n      pop\n        /* \"#utility.yul\":23870:24187   */\n      swap4\n      swap3\n      pop\n      pop\n      pop\n      jump\t// out\n        /* \"#utility.yul\":24193:24526   */\n    tag_176:\n        /* \"#utility.yul\":24316:24320   */\n      0x00\n        /* \"#utility.yul\":24354:24356   */\n      0x20\n        /* \"#utility.yul\":24343:24352   */\n      dup3\n        /* \"#utility.yul\":24339:24357   */\n      add\n        /* \"#utility.yul\":24331:24357   */\n      swap1\n      pop\n        /* \"#utility.yul\":24403:24412   */\n      dup2\n        /* \"#utility.yul\":24397:24401   */\n      dup2\n        /* \"#utility.yul\":24393:24413   */\n      sub\n        /* \"#utility.yul\":24389:24390   */\n      0x00\n        /* \"#utility.yul\":24378:24387   */\n      dup4\n        /* \"#utility.yul\":24374:24391   */\n      add\n        /* \"#utility.yul\":24367:24414   */\n      mstore\n        /* \"#utility.yul\":24431:24519   */\n      tag_555\n        /* \"#utility.yul\":24514:24518   */\n      dup2\n        /* \"#utility.yul\":24505:24511   */\n      dup5\n        /* \"#utility.yul\":24497:24503   */\n      dup7\n        /* \"#utility.yul\":24431:24519   */\n      tag_321\n      jump\t// in\n    tag_555:\n        /* \"#utility.yul\":24423:24519   */\n      swap1\n      pop\n        /* \"#utility.yul\":24193:24526   */\n      swap4\n      swap3\n      pop\n      pop\n      pop\n      jump\t// out\n        /* \"#utility.yul\":24532:24706   */\n    tag_322:\n        /* \"#utility.yul\":24672:24698   */\n      0x506c617965723220616c72656164792072657665616c65640000000000000000\n        /* \"#utility.yul\":24668:24669   */\n      0x00\n        /* \"#utility.yul\":24660:24666   */\n      dup3\n        /* \"#utility.yul\":24656:24670   */\n      add\n        /* \"#utility.yul\":24649:24699   */\n      mstore\n        /* \"#utility.yul\":24532:24706   */\n      pop\n      jump\t// out\n        /* \"#utility.yul\":24712:25078   */\n    tag_323:\n        /* \"#utility.yul\":24854:24857   */\n      0x00\n        /* \"#utility.yul\":24875:24942   */\n      tag_558\n        /* \"#utility.yul\":24939:24941   */\n      0x18\n        /* \"#utility.yul\":24934:24937   */\n      dup4\n        /* \"#utility.yul\":24875:24942   */\n      tag_256\n      jump\t// in\n    tag_558:\n        /* \"#utility.yul\":24868:24942   */\n      swap2\n      pop\n        /* \"#utility.yul\":24951:25044   */\n      tag_559\n        /* \"#utility.yul\":25040:25043   */\n      dup3\n        /* \"#utility.yul\":24951:25044   */\n      tag_322\n      jump\t// in\n    tag_559:\n        /* \"#utility.yul\":25069:25071   */\n      0x20\n        /* \"#utility.yul\":25064:25067   */\n      dup3\n        /* \"#utility.yul\":25060:25072   */\n      add\n        /* \"#utility.yul\":25053:25072   */\n      swap1\n      pop\n        /* \"#utility.yul\":24712:25078   */\n      swap2\n      swap1\n      pop\n      jump\t// out\n        /* \"#utility.yul\":25084:25503   */\n    tag_180:\n        /* \"#utility.yul\":25250:25254   */\n      0x00\n        /* \"#utility.yul\":25288:25290   */\n      0x20\n        /* \"#utility.yul\":25277:25286   */\n      dup3\n        /* \"#utility.yul\":25273:25291   */\n      add\n        /* \"#utility.yul\":25265:25291   */\n      swap1\n      pop\n        /* \"#utility.yul\":25337:25346   */\n      dup2\n        /* \"#utility.yul\":25331:25335   */\n      dup2\n        /* \"#utility.yul\":25327:25347   */\n      sub\n        /* \"#utility.yul\":25323:25324   */\n      0x00\n        /* \"#utility.yul\":25312:25321   */\n      dup4\n        /* \"#utility.yul\":25308:25325   */\n      add\n        /* \"#utility.yul\":25301:25348   */\n      mstore\n        /* \"#utility.yul\":25365:25496   */\n      tag_561\n        /* \"#utility.yul\":25491:25495   */\n      dup2\n        /* \"#utility.yul\":25365:25496   */\n      tag_323\n      jump\t// in\n    tag_561:\n        /* \"#utility.yul\":25357:25496   */\n      swap1\n      pop\n        /* \"#utility.yul\":25084:25503   */\n      swap2\n      swap1\n      pop\n      jump\t// out\n        /* \"#utility.yul\":25509:25685   */\n    tag_324:\n        /* \"#utility.yul\":25649:25677   */\n      0x496e76616c69642072657665616c20666f7220706c6179657232000000000000\n        /* \"#utility.yul\":25645:25646   */\n      0x00\n        /* \"#utility.yul\":25637:25643   */\n      dup3\n        /* \"#utility.yul\":25633:25647   */\n      add\n        /* \"#utility.yul\":25626:25678   */\n      mstore\n        /* \"#utility.yul\":25509:25685   */\n      pop\n      jump\t// out\n        /* \"#utility.yul\":25691:26057   */\n    tag_325:\n        /* \"#utility.yul\":25833:25836   */\n      0x00\n        /* \"#utility.yul\":25854:25921   */\n      tag_564\n        /* \"#utility.yul\":25918:25920   */\n      0x1a\n        /* \"#utility.yul\":25913:25916   */\n      dup4\n        /* \"#utility.yul\":25854:25921   */\n      tag_256\n      jump\t// in\n    tag_564:\n        /* \"#utility.yul\":25847:25921   */\n      swap2\n      pop\n        /* \"#utility.yul\":25930:26023   */\n      tag_565\n        /* \"#utility.yul\":26019:26022   */\n      dup3\n        /* \"#utility.yul\":25930:26023   */\n      tag_324\n      jump\t// in\n    tag_565:\n        /* \"#utility.yul\":26048:26050   */\n      0x20\n        /* \"#utility.yul\":26043:26046   */\n      dup3\n        /* \"#utility.yul\":26039:26051   */\n      add\n        /* \"#utility.yul\":26032:26051   */\n      swap1\n      pop\n        /* \"#utility.yul\":25691:26057   */\n      swap2\n      swap1\n      pop\n      jump\t// out\n        /* \"#utility.yul\":26063:26482   */\n    tag_183:\n        /* \"#utility.yul\":26229:26233   */\n      0x00\n        /* \"#utility.yul\":26267:26269   */\n      0x20\n        /* \"#utility.yul\":26256:26265   */\n      dup3\n        /* \"#utility.yul\":26252:26270   */\n      add\n        /* \"#utility.yul\":26244:26270   */\n      swap1\n      pop\n        /* \"#utility.yul\":26316:26325   */\n      dup2\n        /* \"#utility.yul\":26310:26314   */\n      dup2\n        /* \"#utility.yul\":26306:26326   */\n      sub\n        /* \"#utility.yul\":26302:26303   */\n      0x00\n        /* \"#utility.yul\":26291:26300   */\n      dup4\n        /* \"#utility.yul\":26287:26304   */\n      add\n        /* \"#utility.yul\":26280:26327   */\n      mstore\n        /* \"#utility.yul\":26344:26475   */\n      tag_567\n        /* \"#utility.yul\":26470:26474   */\n      dup2\n        /* \"#utility.yul\":26344:26475   */\n      tag_325\n      jump\t// in\n    tag_567:\n        /* \"#utility.yul\":26336:26475   */\n      swap1\n      pop\n        /* \"#utility.yul\":26063:26482   */\n      swap2\n      swap1\n      pop\n      jump\t// out\n        /* \"#utility.yul\":26488:26660   */\n    tag_326:\n        /* \"#utility.yul\":26628:26652   */\n      0x5374616b65206d757374206265206e6f6e2d7a65726f00000000000000000000\n        /* \"#utility.yul\":26624:26625   */\n      0x00\n        /* \"#utility.yul\":26616:26622   */\n      dup3\n        /* \"#utility.yul\":26612:26626   */\n      add\n        /* \"#utility.yul\":26605:26653   */\n      mstore\n        /* \"#utility.yul\":26488:26660   */\n      pop\n      jump\t// out\n        /* \"#utility.yul\":26666:27032   */\n    tag_327:\n        /* \"#utility.yul\":26808:26811   */\n      0x00\n        /* \"#utility.yul\":26829:26896   */\n      tag_570\n        /* \"#utility.yul\":26893:26895   */\n      0x16\n        /* \"#utility.yul\":26888:26891   */\n      dup4\n        /* \"#utility.yul\":26829:26896   */\n      tag_256\n      jump\t// in\n    tag_570:\n        /* \"#utility.yul\":26822:26896   */\n      swap2\n      pop\n        /* \"#utility.yul\":26905:26998   */\n      tag_571\n        /* \"#utility.yul\":26994:26997   */\n      dup3\n        /* \"#utility.yul\":26905:26998   */\n      tag_326\n      jump\t// in\n    tag_571:\n        /* \"#utility.yul\":27023:27025   */\n      0x20\n        /* \"#utility.yul\":27018:27021   */\n      dup3\n        /* \"#utility.yul\":27014:27026   */\n      add\n        /* \"#utility.yul\":27007:27026   */\n      swap1\n      pop\n        /* \"#utility.yul\":26666:27032   */\n      swap2\n      swap1\n      pop\n      jump\t// out\n        /* \"#utility.yul\":27038:27457   */\n    tag_198:\n        /* \"#utility.yul\":27204:27208   */\n      0x00\n        /* \"#utility.yul\":27242:27244   */\n      0x20\n        /* \"#utility.yul\":27231:27240   */\n      dup3\n        /* \"#utility.yul\":27227:27245   */\n      add\n        /* \"#utility.yul\":27219:27245   */\n      swap1\n      pop\n        /* \"#utility.yul\":27291:27300   */\n      dup2\n        /* \"#utility.yul\":27285:27289   */\n      dup2\n        /* \"#utility.yul\":27281:27301   */\n      sub\n        /* \"#utility.yul\":27277:27278   */\n      0x00\n        /* \"#utility.yul\":27266:27275   */\n      dup4\n        /* \"#utility.yul\":27262:27279   */\n      add\n        /* \"#utility.yul\":27255:27302   */\n      mstore\n        /* \"#utility.yul\":27319:27450   */\n      tag_573\n        /* \"#utility.yul\":27445:27449   */\n      dup2\n        /* \"#utility.yul\":27319:27450   */\n      tag_327\n      jump\t// in\n    tag_573:\n        /* \"#utility.yul\":27311:27450   */\n      swap1\n      pop\n        /* \"#utility.yul\":27038:27457   */\n      swap2\n      swap1\n      pop\n      jump\t// out\n        /* \"#utility.yul\":27463:27641   */\n    tag_328:\n        /* \"#utility.yul\":27603:27633   */\n      0x47616d6520616c7265616479206861732074776f20706c617965727300000000\n        /* \"#utility.yul\":27599:27600   */\n      0x00\n        /* \"#utility.yul\":27591:27597   */\n      dup3\n        /* \"#utility.yul\":27587:27601   */\n      add\n        /* \"#utility.yul\":27580:27634   */\n      mstore\n        /* \"#utility.yul\":27463:27641   */\n      pop\n      jump\t// out\n        /* \"#utility.yul\":27647:28013   */\n    tag_329:\n        /* \"#utility.yul\":27789:27792   */\n      0x00\n        /* \"#utility.yul\":27810:27877   */\n      tag_576\n        /* \"#utility.yul\":27874:27876   */\n      0x1c\n        /* \"#utility.yul\":27869:27872   */\n      dup4\n        /* \"#utility.yul\":27810:27877   */\n      tag_256\n      jump\t// in\n    tag_576:\n        /* \"#utility.yul\":27803:27877   */\n      swap2\n      pop\n        /* \"#utility.yul\":27886:27979   */\n      tag_577\n        /* \"#utility.yul\":27975:27978   */\n      dup3\n        /* \"#utility.yul\":27886:27979   */\n      tag_328\n      jump\t// in\n    tag_577:\n        /* \"#utility.yul\":28004:28006   */\n      0x20\n        /* \"#utility.yul\":27999:28002   */\n      dup3\n        /* \"#utility.yul\":27995:28007   */\n      add\n        /* \"#utility.yul\":27988:28007   */\n      swap1\n      pop\n        /* \"#utility.yul\":27647:28013   */\n      swap2\n      swap1\n      pop\n      jump\t// out\n        /* \"#utility.yul\":28019:28438   */\n    tag_204:\n        /* \"#utility.yul\":28185:28189   */\n      0x00\n        /* \"#utility.yul\":28223:28225   */\n      0x20\n        /* \"#utility.yul\":28212:28221   */\n      dup3\n        /* \"#utility.yul\":28208:28226   */\n      add\n        /* \"#utility.yul\":28200:28226   */\n      swap1\n      pop\n        /* \"#utility.yul\":28272:28281   */\n      dup2\n        /* \"#utility.yul\":28266:28270   */\n      dup2\n        /* \"#utility.yul\":28262:28282   */\n      sub\n        /* \"#utility.yul\":28258:28259   */\n      0x00\n        /* \"#utility.yul\":28247:28256   */\n      dup4\n        /* \"#utility.yul\":28243:28260   */\n      add\n        /* \"#utility.yul\":28236:28283   */\n      mstore\n        /* \"#utility.yul\":28300:28431   */\n      tag_579\n        /* \"#utility.yul\":28426:28430   */\n      dup2\n        /* \"#utility.yul\":28300:28431   */\n      tag_329\n      jump\t// in\n    tag_579:\n        /* \"#utility.yul\":28292:28431   */\n      swap1\n      pop\n        /* \"#utility.yul\":28019:28438   */\n      swap2\n      swap1\n      pop\n      jump\t// out\n        /* \"#utility.yul\":28444:28622   */\n    tag_330:\n        /* \"#utility.yul\":28584:28614   */\n      0x43616e6e6f7420706c617920616761696e737420796f757273656c6600000000\n        /* \"#utility.yul\":28580:28581   */\n      0x00\n        /* \"#utility.yul\":28572:28578   */\n      dup3\n        /* \"#utility.yul\":28568:28582   */\n      add\n        /* \"#utility.yul\":28561:28615   */\n      mstore\n        /* \"#utility.yul\":28444:28622   */\n      pop\n      jump\t// out\n        /* \"#utility.yul\":28628:28994   */\n    tag_331:\n        /* \"#utility.yul\":28770:28773   */\n      0x00\n        /* \"#utility.yul\":28791:28858   */\n      tag_582\n        /* \"#utility.yul\":28855:28857   */\n      0x1c\n        /* \"#utility.yul\":28850:28853   */\n      dup4\n        /* \"#utility.yul\":28791:28858   */\n      tag_256\n      jump\t// in\n    tag_582:\n        /* \"#utility.yul\":28784:28858   */\n      swap2\n      pop\n        /* \"#utility.yul\":28867:28960   */\n      tag_583\n        /* \"#utility.yul\":28956:28959   */\n      dup3\n        /* \"#utility.yul\":28867:28960   */\n      tag_330\n      jump\t// in\n    tag_583:\n        /* \"#utility.yul\":28985:28987   */\n      0x20\n        /* \"#utility.yul\":28980:28983   */\n      dup3\n        /* \"#utility.yul\":28976:28988   */\n      add\n        /* \"#utility.yul\":28969:28988   */\n      swap1\n      pop\n        /* \"#utility.yul\":28628:28994   */\n      swap2\n      swap1\n      pop\n      jump\t// out\n        /* \"#utility.yul\":29000:29419   */\n    tag_207:\n        /* \"#utility.yul\":29166:29170   */\n      0x00\n        /* \"#utility.yul\":29204:29206   */\n      0x20\n        /* \"#utility.yul\":29193:29202   */\n      dup3\n        /* \"#utility.yul\":29189:29207   */\n      add\n        /* \"#utility.yul\":29181:29207   */\n      swap1\n      pop\n        /* \"#utility.yul\":29253:29262   */\n      dup2\n        /* \"#utility.yul\":29247:29251   */\n      dup2\n        /* \"#utility.yul\":29243:29263   */\n      sub\n        /* \"#utility.yul\":29239:29240   */\n      0x00\n        /* \"#utility.yul\":29228:29237   */\n      dup4\n        /* \"#utility.yul\":29224:29241   */\n      add\n        /* \"#utility.yul\":29217:29264   */\n      mstore\n        /* \"#utility.yul\":29281:29412   */\n      tag_585\n        /* \"#utility.yul\":29407:29411   */\n      dup2\n        /* \"#utility.yul\":29281:29412   */\n      tag_331\n      jump\t// in\n    tag_585:\n        /* \"#utility.yul\":29273:29412   */\n      swap1\n      pop\n        /* \"#utility.yul\":29000:29419   */\n      swap2\n      swap1\n      pop\n      jump\t// out\n        /* \"#utility.yul\":29425:29607   */\n    tag_332:\n        /* \"#utility.yul\":29565:29599   */\n      0x5374616b65206d757374206d6174636820706c61796572312773207374616b65\n        /* \"#utility.yul\":29561:29562   */\n      0x00\n        /* \"#utility.yul\":29553:29559   */\n      dup3\n        /* \"#utility.yul\":29549:29563   */\n      add\n        /* \"#utility.yul\":29542:29600   */\n      mstore\n        /* \"#utility.yul\":29425:29607   */\n      pop\n      jump\t// out\n        /* \"#utility.yul\":29613:29979   */\n    tag_333:\n        /* \"#utility.yul\":29755:29758   */\n      0x00\n        /* \"#utility.yul\":29776:29843   */\n      tag_588\n        /* \"#utility.yul\":29840:29842   */\n      0x20\n        /* \"#utility.yul\":29835:29838   */\n      dup4\n        /* \"#utility.yul\":29776:29843   */\n      tag_256\n      jump\t// in\n    tag_588:\n        /* \"#utility.yul\":29769:29843   */\n      swap2\n      pop\n        /* \"#utility.yul\":29852:29945   */\n      tag_589\n        /* \"#utility.yul\":29941:29944   */\n      dup3\n        /* \"#utility.yul\":29852:29945   */\n      tag_332\n      jump\t// in\n    tag_589:\n        /* \"#utility.yul\":29970:29972   */\n      0x20\n        /* \"#utility.yul\":29965:29968   */\n      dup3\n        /* \"#utility.yul\":29961:29973   */\n      add\n        /* \"#utility.yul\":29954:29973   */\n      swap1\n      pop\n        /* \"#utility.yul\":29613:29979   */\n      swap2\n      swap1\n      pop\n      jump\t// out\n        /* \"#utility.yul\":29985:30404   */\n    tag_210:\n        /* \"#utility.yul\":30151:30155   */\n      0x00\n        /* \"#utility.yul\":30189:30191   */\n      0x20\n        /* \"#utility.yul\":30178:30187   */\n      dup3\n        /* \"#utility.yul\":30174:30192   */\n      add\n        /* \"#utility.yul\":30166:30192   */\n      swap1\n      pop\n        /* \"#utility.yul\":30238:30247   */\n      dup2\n        /* \"#utility.yul\":30232:30236   */\n      dup2\n        /* \"#utility.yul\":30228:30248   */\n      sub\n        /* \"#utility.yul\":30224:30225   */\n      0x00\n        /* \"#utility.yul\":30213:30222   */\n      dup4\n        /* \"#utility.yul\":30209:30226   */\n      add\n        /* \"#utility.yul\":30202:30249   */\n      mstore\n        /* \"#utility.yul\":30266:30397   */\n      tag_591\n        /* \"#utility.yul\":30392:30396   */\n      dup2\n        /* \"#utility.yul\":30266:30397   */\n      tag_333\n      jump\t// in\n    tag_591:\n        /* \"#utility.yul\":30258:30397   */\n      swap1\n      pop\n        /* \"#utility.yul\":29985:30404   */\n      swap2\n      swap1\n      pop\n      jump\t// out\n        /* \"#utility.yul\":30410:31805   */\n    tag_214:\n        /* \"#utility.yul\":30527:30564   */\n      tag_593\n        /* \"#utility.yul\":30560:30563   */\n      dup3\n        /* \"#utility.yul\":30527:30564   */\n      tag_255\n      jump\t// in\n    tag_593:\n        /* \"#utility.yul\":30629:30647   */\n      0xffffffffffffffff\n        /* \"#utility.yul\":30621:30627   */\n      dup2\n        /* \"#utility.yul\":30618:30648   */\n      gt\n        /* \"#utility.yul\":30615:30671   */\n      iszero\n      tag_594\n      jumpi\n        /* \"#utility.yul\":30651:30669   */\n      tag_595\n      tag_305\n      jump\t// in\n    tag_595:\n        /* \"#utility.yul\":30615:30671   */\n    tag_594:\n        /* \"#utility.yul\":30695:30733   */\n      tag_596\n        /* \"#utility.yul\":30727:30731   */\n      dup3\n        /* \"#utility.yul\":30721:30732   */\n      sload\n        /* \"#utility.yul\":30695:30733   */\n      tag_106\n      jump\t// in\n    tag_596:\n        /* \"#utility.yul\":30780:30847   */\n      tag_597\n        /* \"#utility.yul\":30840:30846   */\n      dup3\n        /* \"#utility.yul\":30832:30838   */\n      dup3\n        /* \"#utility.yul\":30826:30830   */\n      dup6\n        /* \"#utility.yul\":30780:30847   */\n      tag_317\n      jump\t// in\n    tag_597:\n        /* \"#utility.yul\":30874:30875   */\n      0x00\n        /* \"#utility.yul\":30898:30902   */\n      0x20\n        /* \"#utility.yul\":30885:30902   */\n      swap1\n      pop\n        /* \"#utility.yul\":30930:30932   */\n      0x1f\n        /* \"#utility.yul\":30922:30928   */\n      dup4\n        /* \"#utility.yul\":30919:30933   */\n      gt\n        /* \"#utility.yul\":30947:30948   */\n      0x01\n        /* \"#utility.yul\":30942:31560   */\n      dup2\n      eq\n      tag_599\n      jumpi\n        /* \"#utility.yul\":31604:31605   */\n      0x00\n        /* \"#utility.yul\":31621:31627   */\n      dup5\n        /* \"#utility.yul\":31618:31695   */\n      iszero\n      tag_600\n      jumpi\n        /* \"#utility.yul\":31670:31679   */\n      dup3\n        /* \"#utility.yul\":31665:31668   */\n      dup8\n        /* \"#utility.yul\":31661:31680   */\n      add\n        /* \"#utility.yul\":31655:31681   */\n      mload\n        /* \"#utility.yul\":31646:31681   */\n      swap1\n      pop\n        /* \"#utility.yul\":31618:31695   */\n    tag_600:\n        /* \"#utility.yul\":31721:31788   */\n      tag_601\n        /* \"#utility.yul\":31781:31787   */\n      dup6\n        /* \"#utility.yul\":31774:31779   */\n      dup3\n        /* \"#utility.yul\":31721:31788   */\n      tag_320\n      jump\t// in\n    tag_601:\n        /* \"#utility.yul\":31715:31719   */\n      dup7\n        /* \"#utility.yul\":31708:31789   */\n      sstore\n        /* \"#utility.yul\":31577:31799   */\n      pop\n        /* \"#utility.yul\":30912:31799   */\n      jump(tag_598)\n        /* \"#utility.yul\":30942:31560   */\n    tag_599:\n        /* \"#utility.yul\":30994:30998   */\n      0x1f\n        /* \"#utility.yul\":30990:30999   */\n      not\n        /* \"#utility.yul\":30982:30988   */\n      dup5\n        /* \"#utility.yul\":30978:31000   */\n      and\n        /* \"#utility.yul\":31028:31065   */\n      tag_602\n        /* \"#utility.yul\":31060:31064   */\n      dup7\n        /* \"#utility.yul\":31028:31065   */\n      tag_306\n      jump\t// in\n    tag_602:\n        /* \"#utility.yul\":31087:31088   */\n      0x00\n        /* \"#utility.yul\":31101:31309   */\n    tag_603:\n        /* \"#utility.yul\":31115:31122   */\n      dup3\n        /* \"#utility.yul\":31112:31113   */\n      dup2\n        /* \"#utility.yul\":31109:31123   */\n      lt\n        /* \"#utility.yul\":31101:31309   */\n      iszero\n      tag_605\n      jumpi\n        /* \"#utility.yul\":31194:31203   */\n      dup5\n        /* \"#utility.yul\":31189:31192   */\n      dup10\n        /* \"#utility.yul\":31185:31204   */\n      add\n        /* \"#utility.yul\":31179:31205   */\n      mload\n        /* \"#utility.yul\":31171:31177   */\n      dup3\n        /* \"#utility.yul\":31164:31206   */\n      sstore\n        /* \"#utility.yul\":31245:31246   */\n      0x01\n        /* \"#utility.yul\":31237:31243   */\n      dup3\n        /* \"#utility.yul\":31233:31247   */\n      add\n        /* \"#utility.yul\":31223:31247   */\n      swap2\n      pop\n        /* \"#utility.yul\":31292:31294   */\n      0x20\n        /* \"#utility.yul\":31281:31290   */\n      dup6\n        /* \"#utility.yul\":31277:31295   */\n      add\n        /* \"#utility.yul\":31264:31295   */\n      swap5\n      pop\n        /* \"#utility.yul\":31138:31142   */\n      0x20\n        /* \"#utility.yul\":31135:31136   */\n      dup2\n        /* \"#utility.yul\":31131:31143   */\n      add\n        /* \"#utility.yul\":31126:31143   */\n      swap1\n      pop\n        /* \"#utility.yul\":31101:31309   */\n      jump(tag_603)\n    tag_605:\n        /* \"#utility.yul\":31337:31343   */\n      dup7\n        /* \"#utility.yul\":31328:31335   */\n      dup4\n        /* \"#utility.yul\":31325:31344   */\n      lt\n        /* \"#utility.yul\":31322:31501   */\n      iszero\n      tag_606\n      jumpi\n        /* \"#utility.yul\":31395:31404   */\n      dup5\n        /* \"#utility.yul\":31390:31393   */\n      dup10\n        /* \"#utility.yul\":31386:31405   */\n      add\n        /* \"#utility.yul\":31380:31406   */\n      mload\n        /* \"#utility.yul\":31438:31486   */\n      tag_607\n        /* \"#utility.yul\":31480:31484   */\n      0x1f\n        /* \"#utility.yul\":31472:31478   */\n      dup10\n        /* \"#utility.yul\":31468:31485   */\n      and\n        /* \"#utility.yul\":31457:31466   */\n      dup3\n        /* \"#utility.yul\":31438:31486   */\n      tag_319\n      jump\t// in\n    tag_607:\n        /* \"#utility.yul\":31430:31436   */\n      dup4\n        /* \"#utility.yul\":31423:31487   */\n      sstore\n        /* \"#utility.yul\":31345:31501   */\n      pop\n        /* \"#utility.yul\":31322:31501   */\n    tag_606:\n        /* \"#utility.yul\":31547:31548   */\n      0x01\n        /* \"#utility.yul\":31543:31544   */\n      0x02\n        /* \"#utility.yul\":31535:31541   */\n      dup9\n        /* \"#utility.yul\":31531:31545   */\n      mul\n        /* \"#utility.yul\":31527:31549   */\n      add\n        /* \"#utility.yul\":31521:31525   */\n      dup9\n        /* \"#utility.yul\":31514:31550   */\n      sstore\n        /* \"#utility.yul\":30949:31560   */\n      pop\n      pop\n      pop\n        /* \"#utility.yul\":30912:31799   */\n    tag_598:\n      pop\n        /* \"#utility.yul\":30502:31805   */\n      pop\n      pop\n      pop\n        /* \"#utility.yul\":30410:31805   */\n      pop\n      pop\n      jump\t// out\n\n    auxdata: 0xa2646970667358221220cd0c053e22e07bbfdcf5a95157d414a4edda4ec245e13b70b91897af07bf49ff64736f6c634300081a0033\n}\n",
				"bytecode": {
					"linkReferences": {},
					"object": "6080604052348015600e575f80fd5b50612d4d8061001c5f395ff3fe60806040526004361061010c575f3560e01c80639f663fb811610094578063d30895e411610063578063d30895e414610315578063d6f5c9391461033f578063dfbf53ae14610369578063f3f4370314610393578063feac8570146103cf57610113565b80639f663fb81461027b578063a45801a2146102a5578063c78eb546146102cf578063c7a1865b146102f957610113565b80633ccfd60b116100db5780633ccfd60b146101bf5780634376cb34146101d55780634d699f00146101ff57806359a5f12d146102295780635ba1b2c71461025357610113565b80630252b9951461011757806311610c251461014157806333d85d441461016b578063378b69eb1461019557610113565b3661011357005b5f80fd5b348015610122575f80fd5b5061012b6103f9565b6040516101389190611de4565b60405180910390f35b34801561014c575f80fd5b506101556103ff565b6040516101629190611de4565b60405180910390f35b348015610176575f80fd5b5061017f610405565b60405161018c9190611e6d565b60405180910390f35b3480156101a0575f80fd5b506101a9610491565b6040516101b69190611ea7565b60405180910390f35b3480156101ca575f80fd5b506101d36104a3565b005b3480156101e0575f80fd5b506101e9610a88565b6040516101f69190611de4565b60405180910390f35b34801561020a575f80fd5b50610213610a8e565b6040516102209190611ea7565b60405180910390f35b348015610234575f80fd5b5061023d610aa0565b60405161024a9190611eff565b60405180910390f35b34801561025e575f80fd5b5061027960048036038101906102749190611f81565b610ac5565b005b348015610286575f80fd5b5061028f6110bd565b60405161029c9190612017565b60405180910390f35b3480156102b0575f80fd5b506102b96110c3565b6040516102c69190611ea7565b60405180910390f35b3480156102da575f80fd5b506102e36110d6565b6040516102f09190611e6d565b60405180910390f35b610313600480360381019061030e919061205a565b611162565b005b348015610320575f80fd5b50610329611496565b6040516103369190611eff565b60405180910390f35b34801561034a575f80fd5b506103536114b9565b6040516103609190611ea7565b60405180910390f35b348015610374575f80fd5b5061037d6114cc565b60405161038a9190611eff565b60405180910390f35b34801561039e575f80fd5b506103b960048036038101906103b491906120af565b6114f2565b6040516103c69190611de4565b60405180910390f35b3480156103da575f80fd5b506103e3611507565b6040516103f09190612017565b60405180910390f35b60085481565b60025481565b6006805461041290612107565b80601f016020809104026020016040519081016040528092919081815260200182805461043e90612107565b80156104895780601f1061046057610100808354040283529160200191610489565b820191905f5260205f20905b81548152906001019060200180831161046c57829003601f168201915b505050505081565b60055f9054906101000a900460ff1681565b60095f9054906101000a900460ff1615801561050c57505f73ffffffffffffffffffffffffffffffffffffffff1660015f9054906101000a900473ffffffffffffffffffffffffffffffffffffffff1673ffffffffffffffffffffffffffffffffffffffff1614155b156107dd5761012c6008546105219190612164565b42106107a15760055f9054906101000a900460ff16801561054f5750600560019054906101000a900460ff16155b15610642575f8054906101000a900473ffffffffffffffffffffffffffffffffffffffff16600960016101000a81548173ffffffffffffffffffffffffffffffffffffffff021916908373ffffffffffffffffffffffffffffffffffffffff160217905550600160095f6101000a81548160ff021916908315150217905550600280546105dc9190612197565b600a5f805f9054906101000a900473ffffffffffffffffffffffffffffffffffffffff1673ffffffffffffffffffffffffffffffffffffffff1673ffffffffffffffffffffffffffffffffffffffff1681526020019081526020015f208190555061079c565b600560019054906101000a900460ff16801561066a575060055f9054906101000a900460ff16155b156107605760015f9054906101000a900473ffffffffffffffffffffffffffffffffffffffff16600960016101000a81548173ffffffffffffffffffffffffffffffffffffffff021916908373ffffffffffffffffffffffffffffffffffffffff160217905550600160095f6101000a81548160ff021916908315150217905550600280546106f99190612197565b600a5f60015f9054906101000a900473ffffffffffffffffffffffffffffffffffffffff1673ffffffffffffffffffffffffffffffffffffffff1673ffffffffffffffffffffffffffffffffffffffff1681526020019081526020015f208190555061079b565b6040517f08c379a000000000000000000000000000000000000000000000000000000000815260040161079290612248565b60405180910390fd5b5b6107dc565b6040517f08c379a00000000000000000000000000000000000000000000000000000000081526004016107d3906122d6565b60405180910390fd5b5b5f600a5f3373ffffffffffffffffffffffffffffffffffffffff1673ffffffffffffffffffffffffffffffffffffffff1681526020019081526020015f205490505f8111610860576040517f08c379a000000000000000000000000000000000000000000000000000000000815260040161085790612364565b60405180910390fd5b5f600a5f3373ffffffffffffffffffffffffffffffffffffffff1673ffffffffffffffffffffffffffffffffffffffff1681526020019081526020015f20819055505f3373ffffffffffffffffffffffffffffffffffffffff16826040516108c7906123af565b5f6040518083038185875af1925050503d805f8114610901576040519150601f19603f3d011682016040523d82523d5f602084013e610906565b606091505b505090508061094a576040517f08c379a00000000000000000000000000000000000000000000000000000000081526004016109419061240d565b60405180910390fd5b3373ffffffffffffffffffffffffffffffffffffffff167f7084f5476618d8e60b11ef0d7d3f06914655adb8793e28ff7f018d4c76d505d5836040516109909190611de4565b60405180910390a260095f9054906101000a900460ff1615610a84575f600a5f805f9054906101000a900473ffffffffffffffffffffffffffffffffffffffff1673ffffffffffffffffffffffffffffffffffffffff1673ffffffffffffffffffffffffffffffffffffffff1681526020019081526020015f2054148015610a7557505f600a5f60015f9054906101000a900473ffffffffffffffffffffffffffffffffffffffff1673ffffffffffffffffffffffffffffffffffffffff1673ffffffffffffffffffffffffffffffffffffffff1681526020019081526020015f2054145b15610a8357610a8261150d565b5b5b5050565b61012c81565b60095f9054906101000a900460ff1681565b60015f9054906101000a900473ffffffffffffffffffffffffffffffffffffffff1681565b5f8054906101000a900473ffffffffffffffffffffffffffffffffffffffff1673ffffffffffffffffffffffffffffffffffffffff163373ffffffffffffffffffffffffffffffffffffffff161480610b6a575060015f9054906101000a900473ffffffffffffffffffffffffffffffffffffffff1673ffffffffffffffffffffffffffffffffffffffff163373ffffffffffffffffffffffffffffffffffffffff16145b610ba9576040517f08c379a0000000000000000000000000000000000000000000000000000000008152600401610ba090612475565b60405180910390fd5b5f84848080601f0160208091040260200160405190810160405280939291908181526020018383808284375f81840152601f19601f8201169050808301925050505050505090506001815114610c34576040517f08c379a0000000000000000000000000000000000000000000000000000000008152600401610c2b906124dd565b60405180910390fd5b5f815f81518110610c4857610c476124fb565b5b602001015160f81c60f81b90507f52000000000000000000000000000000000000000000000000000000000000007effffffffffffffffffffffffffffffffffffffffffffffffffffffffffffff1916817effffffffffffffffffffffffffffffffffffffffffffffffffffffffffffff19161480610d2a57507f50000000000000000000000000000000000000000000000000000000000000007effffffffffffffffffffffffffffffffffffffffffffffffffffffffffffff1916817effffffffffffffffffffffffffffffffffffffffffffffffffffffffffffff1916145b80610d9857507f53000000000000000000000000000000000000000000000000000000000000007effffffffffffffffffffffffffffffffffffffffffffffffffffffffffffff1916817effffffffffffffffffffffffffffffffffffffffffffffffffffffffffffff1916145b610dd7576040517f08c379a0000000000000000000000000000000000000000000000000000000008152600401610dce90612598565b60405180910390fd5b5f86868686604051602001610def94939291906125f2565b6040516020818303038152906040528051906020012090505f8054906101000a900473ffffffffffffffffffffffffffffffffffffffff1673ffffffffffffffffffffffffffffffffffffffff163373ffffffffffffffffffffffffffffffffffffffff1603610f6d5760055f9054906101000a900460ff1615610ea8576040517f08c379a0000000000000000000000000000000000000000000000000000000008152600401610e9f90612663565b60405180910390fd5b6003548114610eec576040517f08c379a0000000000000000000000000000000000000000000000000000000008152600401610ee3906126cb565b60405180910390fd5b600160055f6101000a81548160ff021916908315150217905550868660069182610f179291906128bd565b503373ffffffffffffffffffffffffffffffffffffffff167fee22ca58eb93549cf1b11737946f98a22ff5191a499f5839f6a9e7eb40dcb1528888604051610f609291906129b6565b60405180910390a261107f565b600560019054906101000a900460ff1615610fbd576040517f08c379a0000000000000000000000000000000000000000000000000000000008152600401610fb490612a22565b60405180910390fd5b6004548114611001576040517f08c379a0000000000000000000000000000000000000000000000000000000008152600401610ff890612a8a565b60405180910390fd5b6001600560016101000a81548160ff02191690831515021790555086866007918261102d9291906128bd565b503373ffffffffffffffffffffffffffffffffffffffff167fee22ca58eb93549cf1b11737946f98a22ff5191a499f5839f6a9e7eb40dcb15288886040516110769291906129b6565b60405180910390a25b60055f9054906101000a900460ff1680156110a65750600560019054906101000a900460ff165b156110b4576110b3611691565b5b50505050505050565b60035481565b600560019054906101000a900460ff1681565b600780546110e390612107565b80601f016020809104026020016040519081016040528092919081815260200182805461110f90612107565b801561115a5780601f106111315761010080835404028352916020019161115a565b820191905f5260205f20905b81548152906001019060200180831161113d57829003601f168201915b505050505081565b5f34116111a4576040517f08c379a000000000000000000000000000000000000000000000000000000000815260040161119b90612af2565b60405180910390fd5b5f73ffffffffffffffffffffffffffffffffffffffff165f8054906101000a900473ffffffffffffffffffffffffffffffffffffffff1673ffffffffffffffffffffffffffffffffffffffff160361129657335f806101000a81548173ffffffffffffffffffffffffffffffffffffffff021916908373ffffffffffffffffffffffffffffffffffffffff16021790555080600381905550346002819055503373ffffffffffffffffffffffffffffffffffffffff167fa563b85fc6323995d96ceafe952aabc2a413b957735468172e9e7019e5ce7cf2826040516112899190612017565b60405180910390a2611493565b5f73ffffffffffffffffffffffffffffffffffffffff1660015f9054906101000a900473ffffffffffffffffffffffffffffffffffffffff1673ffffffffffffffffffffffffffffffffffffffff1614611325576040517f08c379a000000000000000000000000000000000000000000000000000000000815260040161131c90612b5a565b60405180910390fd5b5f8054906101000a900473ffffffffffffffffffffffffffffffffffffffff1673ffffffffffffffffffffffffffffffffffffffff163373ffffffffffffffffffffffffffffffffffffffff16036113b2576040517f08c379a00000000000000000000000000000000000000000000000000000000081526004016113a990612bc2565b60405180910390fd5b60025434146113f6576040517f08c379a00000000000000000000000000000000000000000000000000000000081526004016113ed90612c2a565b60405180910390fd5b3360015f6101000a81548173ffffffffffffffffffffffffffffffffffffffff021916908373ffffffffffffffffffffffffffffffffffffffff16021790555080600481905550426008819055503373ffffffffffffffffffffffffffffffffffffffff167fa563b85fc6323995d96ceafe952aabc2a413b957735468172e9e7019e5ce7cf28260405161148a9190612017565b60405180910390a25b50565b5f8054906101000a900473ffffffffffffffffffffffffffffffffffffffff1681565b600960159054906101000a900460ff1681565b600960019054906101000a900473ffffffffffffffffffffffffffffffffffffffff1681565b600a602052805f5260405f205f915090505481565b60045481565b5f805f6101000a81548173ffffffffffffffffffffffffffffffffffffffff021916908373ffffffffffffffffffffffffffffffffffffffff1602179055505f60015f6101000a81548173ffffffffffffffffffffffffffffffffffffffff021916908373ffffffffffffffffffffffffffffffffffffffff1602179055505f6002819055505f801b6003819055505f801b6004819055505f60055f6101000a81548160ff0219169083151502179055505f600560016101000a81548160ff02191690831515021790555060405180602001604052805f815250600690816115f59190612c48565b5060405180602001604052805f815250600790816116139190612c48565b505f6008819055505f60095f6101000a81548160ff0219169083151502179055505f600960016101000a81548173ffffffffffffffffffffffffffffffffffffffff021916908373ffffffffffffffffffffffffffffffffffffffff1602179055505f600960156101000a81548160ff021916908315150217905550565b5f6006805461169f90612107565b80601f01602080910402602001604051908101604052809291908181526020018280546116cb90612107565b80156117165780601f106116ed57610100808354040283529160200191611716565b820191905f5260205f20905b8154815290600101906020018083116116f957829003601f168201915b505050505090505f6007805461172b90612107565b80601f016020809104026020016040519081016040528092919081815260200182805461175790612107565b80156117a25780601f10611779576101008083540402835291602001916117a2565b820191905f5260205f20905b81548152906001019060200180831161178557829003601f168201915b50505050509050805f815181106117bc576117bb6124fb565b5b602001015160f81c60f81b7effffffffffffffffffffffffffffffffffffffffffffffffffffffffffffff1916825f815181106117fc576117fb6124fb565b5b602001015160f81c60f81b7effffffffffffffffffffffffffffffffffffffffffffffffffffffffffffff191603611931576001600960156101000a81548160ff021916908315150217905550600160095f6101000a81548160ff021916908315150217905550600254600a5f805f9054906101000a900473ffffffffffffffffffffffffffffffffffffffff1673ffffffffffffffffffffffffffffffffffffffff1673ffffffffffffffffffffffffffffffffffffffff1681526020019081526020015f2081905550600254600a5f60015f9054906101000a900473ffffffffffffffffffffffffffffffffffffffff1673ffffffffffffffffffffffffffffffffffffffff1673ffffffffffffffffffffffffffffffffffffffff1681526020019081526020015f2081905550611dc8565b7f52000000000000000000000000000000000000000000000000000000000000007effffffffffffffffffffffffffffffffffffffffffffffffffffffffffffff1916825f81518110611987576119866124fb565b5b602001015160f81c60f81b7effffffffffffffffffffffffffffffffffffffffffffffffffffffffffffff1916148015611a4157507f53000000000000000000000000000000000000000000000000000000000000007effffffffffffffffffffffffffffffffffffffffffffffffffffffffffffff1916815f81518110611a1257611a116124fb565b5b602001015160f81c60f81b7effffffffffffffffffffffffffffffffffffffffffffffffffffffffffffff1916145b80611b5857507f50000000000000000000000000000000000000000000000000000000000000007effffffffffffffffffffffffffffffffffffffffffffffffffffffffffffff1916825f81518110611a9d57611a9c6124fb565b5b602001015160f81c60f81b7effffffffffffffffffffffffffffffffffffffffffffffffffffffffffffff1916148015611b5757507f52000000000000000000000000000000000000000000000000000000000000007effffffffffffffffffffffffffffffffffffffffffffffffffffffffffffff1916815f81518110611b2857611b276124fb565b5b602001015160f81c60f81b7effffffffffffffffffffffffffffffffffffffffffffffffffffffffffffff1916145b5b80611c6f57507f53000000000000000000000000000000000000000000000000000000000000007effffffffffffffffffffffffffffffffffffffffffffffffffffffffffffff1916825f81518110611bb457611bb36124fb565b5b602001015160f81c60f81b7effffffffffffffffffffffffffffffffffffffffffffffffffffffffffffff1916148015611c6e57507f50000000000000000000000000000000000000000000000000000000000000007effffffffffffffffffffffffffffffffffffffffffffffffffffffffffffff1916815f81518110611c3f57611c3e6124fb565b5b602001015160f81c60f81b7effffffffffffffffffffffffffffffffffffffffffffffffffffffffffffff1916145b5b15611cd9575f8054906101000a900473ffffffffffffffffffffffffffffffffffffffff16600960016101000a81548173ffffffffffffffffffffffffffffffffffffffff021916908373ffffffffffffffffffffffffffffffffffffffff160217905550611d3c565b60015f9054906101000a900473ffffffffffffffffffffffffffffffffffffffff16600960016101000a81548173ffffffffffffffffffffffffffffffffffffffff021916908373ffffffffffffffffffffffffffffffffffffffff1602179055505b600160095f6101000a81548160ff02191690831515021790555060028054611d649190612197565b600a5f600960019054906101000a900473ffffffffffffffffffffffffffffffffffffffff1673ffffffffffffffffffffffffffffffffffffffff1673ffffffffffffffffffffffffffffffffffffffff1681526020019081526020015f20819055505b5050565b5f819050919050565b611dde81611dcc565b82525050565b5f602082019050611df75f830184611dd5565b92915050565b5f81519050919050565b5f82825260208201905092915050565b8281835e5f83830152505050565b5f601f19601f8301169050919050565b5f611e3f82611dfd565b611e498185611e07565b9350611e59818560208601611e17565b611e6281611e25565b840191505092915050565b5f6020820190508181035f830152611e858184611e35565b905092915050565b5f8115159050919050565b611ea181611e8d565b82525050565b5f602082019050611eba5f830184611e98565b92915050565b5f73ffffffffffffffffffffffffffffffffffffffff82169050919050565b5f611ee982611ec0565b9050919050565b611ef981611edf565b82525050565b5f602082019050611f125f830184611ef0565b92915050565b5f80fd5b5f80fd5b5f80fd5b5f80fd5b5f80fd5b5f8083601f840112611f4157611f40611f20565b5b8235905067ffffffffffffffff811115611f5e57611f5d611f24565b5b602083019150836001820283011115611f7a57611f79611f28565b5b9250929050565b5f805f8060408587031215611f9957611f98611f18565b5b5f85013567ffffffffffffffff811115611fb657611fb5611f1c565b5b611fc287828801611f2c565b9450945050602085013567ffffffffffffffff811115611fe557611fe4611f1c565b5b611ff187828801611f2c565b925092505092959194509250565b5f819050919050565b61201181611fff565b82525050565b5f60208201905061202a5f830184612008565b92915050565b61203981611fff565b8114612043575f80fd5b50565b5f8135905061205481612030565b92915050565b5f6020828403121561206f5761206e611f18565b5b5f61207c84828501612046565b91505092915050565b61208e81611edf565b8114612098575f80fd5b50565b5f813590506120a981612085565b92915050565b5f602082840312156120c4576120c3611f18565b5b5f6120d18482850161209b565b91505092915050565b7f4e487b71000000000000000000000000000000000000000000000000000000005f52602260045260245ffd5b5f600282049050600182168061211e57607f821691505b602082108103612131576121306120da565b5b50919050565b7f4e487b71000000000000000000000000000000000000000000000000000000005f52601160045260245ffd5b5f61216e82611dcc565b915061217983611dcc565b925082820190508082111561219157612190612137565b5b92915050565b5f6121a182611dcc565b91506121ac83611dcc565b92508282026121ba81611dcc565b915082820484148315176121d1576121d0612137565b5b5092915050565b7f4e6f2072657665616c206d61646520627920616e7920706c617965723b2063615f8201527f6e6e6f7420776974686472617700000000000000000000000000000000000000602082015250565b5f612232602d83611e07565b915061223d826121d8565b604082019050919050565b5f6020820190508181035f83015261225f81612226565b9050919050565b7f47616d65206e6f7420636f6d706c6574656420616e642072657665616c2074695f8201527f6d656f7574206e6f742072656163686564000000000000000000000000000000602082015250565b5f6122c0603183611e07565b91506122cb82612266565b604082019050919050565b5f6020820190508181035f8301526122ed816122b4565b9050919050565b7f4e6f2066756e647320617661696c61626c6520666f72207769746864726177615f8201527f6c00000000000000000000000000000000000000000000000000000000000000602082015250565b5f61234e602183611e07565b9150612359826122f4565b604082019050919050565b5f6020820190508181035f83015261237b81612342565b9050919050565b5f81905092915050565b50565b5f61239a5f83612382565b91506123a58261238c565b5f82019050919050565b5f6123b98261238f565b9150819050919050565b7f5769746864726177616c207472616e73666572206661696c65640000000000005f82015250565b5f6123f7601a83611e07565b9150612402826123c3565b602082019050919050565b5f6020820190508181035f830152612424816123eb565b9050919050565b7f4e6f742061207061727469636970616e740000000000000000000000000000005f82015250565b5f61245f601183611e07565b915061246a8261242b565b602082019050919050565b5f6020820190508181035f83015261248c81612453565b9050919050565b7f4d6f7665206d75737420626520612073696e676c6520636861726163746572005f82015250565b5f6124c7601f83611e07565b91506124d282612493565b602082019050919050565b5f6020820190508181035f8301526124f4816124bb565b9050919050565b7f4e487b71000000000000000000000000000000000000000000000000000000005f52603260045260245ffd5b7f496e76616c6964206d6f76652e20557365202752272c202750272c206f7220275f8201527f5327000000000000000000000000000000000000000000000000000000000000602082015250565b5f612582602283611e07565b915061258d82612528565b604082019050919050565b5f6020820190508181035f8301526125af81612576565b9050919050565b5f81905092915050565b828183375f83830152505050565b5f6125d983856125b6565b93506125e68385846125c0565b82840190509392505050565b5f6125fe8286886125ce565b915061260b8284866125ce565b915081905095945050505050565b7f506c617965723120616c72656164792072657665616c656400000000000000005f82015250565b5f61264d601883611e07565b915061265882612619565b602082019050919050565b5f6020820190508181035f83015261267a81612641565b9050919050565b7f496e76616c69642072657665616c20666f7220706c61796572310000000000005f82015250565b5f6126b5601a83611e07565b91506126c082612681565b602082019050919050565b5f6020820190508181035f8301526126e2816126a9565b9050919050565b5f82905092915050565b7f4e487b71000000000000000000000000000000000000000000000000000000005f52604160045260245ffd5b5f819050815f5260205f209050919050565b5f6020601f8301049050919050565b5f82821b905092915050565b5f6008830261277c7fffffffffffffffffffffffffffffffffffffffffffffffffffffffffffffffff82612741565b6127868683612741565b95508019841693508086168417925050509392505050565b5f819050919050565b5f6127c16127bc6127b784611dcc565b61279e565b611dcc565b9050919050565b5f819050919050565b6127da836127a7565b6127ee6127e6826127c8565b84845461274d565b825550505050565b5f90565b6128026127f6565b61280d8184846127d1565b505050565b5b81811015612830576128255f826127fa565b600181019050612813565b5050565b601f8211156128755761284681612720565b61284f84612732565b8101602085101561285e578190505b61287261286a85612732565b830182612812565b50505b505050565b5f82821c905092915050565b5f6128955f198460080261287a565b1980831691505092915050565b5f6128ad8383612886565b9150826002028217905092915050565b6128c783836126e9565b67ffffffffffffffff8111156128e0576128df6126f3565b5b6128ea8254612107565b6128f5828285612834565b5f601f831160018114612922575f8415612910578287013590505b61291a85826128a2565b865550612981565b601f19841661293086612720565b5f5b8281101561295757848901358255600182019150602085019450602081019050612932565b868310156129745784890135612970601f891682612886565b8355505b6001600288020188555050505b50505050505050565b5f6129958385611e07565b93506129a28385846125c0565b6129ab83611e25565b840190509392505050565b5f6020820190508181035f8301526129cf81848661298a565b90509392505050565b7f506c617965723220616c72656164792072657665616c656400000000000000005f82015250565b5f612a0c601883611e07565b9150612a17826129d8565b602082019050919050565b5f6020820190508181035f830152612a3981612a00565b9050919050565b7f496e76616c69642072657665616c20666f7220706c61796572320000000000005f82015250565b5f612a74601a83611e07565b9150612a7f82612a40565b602082019050919050565b5f6020820190508181035f830152612aa181612a68565b9050919050565b7f5374616b65206d757374206265206e6f6e2d7a65726f000000000000000000005f82015250565b5f612adc601683611e07565b9150612ae782612aa8565b602082019050919050565b5f6020820190508181035f830152612b0981612ad0565b9050919050565b7f47616d6520616c7265616479206861732074776f20706c6179657273000000005f82015250565b5f612b44601c83611e07565b9150612b4f82612b10565b602082019050919050565b5f6020820190508181035f830152612b7181612b38565b9050919050565b7f43616e6e6f7420706c617920616761696e737420796f757273656c66000000005f82015250565b5f612bac601c83611e07565b9150612bb782612b78565b602082019050919050565b5f6020820190508181035f830152612bd981612ba0565b9050919050565b7f5374616b65206d757374206d6174636820706c61796572312773207374616b655f82015250565b5f612c14602083611e07565b9150612c1f82612be0565b602082019050919050565b5f6020820190508181035f830152612c4181612c08565b9050919050565b612c5182611dfd565b67ffffffffffffffff811115612c6a57612c696126f3565b5b612c748254612107565b612c7f828285612834565b5f60209050601f831160018114612cb0575f8415612c9e578287015190505b612ca885826128a2565b865550612d0f565b601f198416612cbe86612720565b5f5b82811015612ce557848901518255600182019150602085019450602081019050612cc0565b86831015612d025784890151612cfe601f891682612886565b8355505b6001600288020188555050505b50505050505056fea2646970667358221220cd0c053e22e07bbfdcf5a95157d414a4edda4ec245e13b70b91897af07bf49ff64736f6c634300081a0033",
					"opcodes": "PUSH1 0x80 PUSH1 0x40 MSTORE CALLVALUE DUP1 ISZERO PUSH1 0xE JUMPI PUSH0 DUP1 REVERT JUMPDEST POP PUSH2 0x2D4D DUP1 PUSH2 0x1C PUSH0 CODECOPY PUSH0 RETURN INVALID PUSH1 0x80 PUSH1 0x40 MSTORE PUSH1 0x4 CALLDATASIZE LT PUSH2 0x10C JUMPI PUSH0 CALLDATALOAD PUSH1 0xE0 SHR DUP1 PUSH4 0x9F663FB8 GT PUSH2 0x94 JUMPI DUP1 PUSH4 0xD30895E4 GT PUSH2 0x63 JUMPI DUP1 PUSH4 0xD30895E4 EQ PUSH2 0x315 JUMPI DUP1 PUSH4 0xD6F5C939 EQ PUSH2 0x33F JUMPI DUP1 PUSH4 0xDFBF53AE EQ PUSH2 0x369 JUMPI DUP1 PUSH4 0xF3F43703 EQ PUSH2 0x393 JUMPI DUP1 PUSH4 0xFEAC8570 EQ PUSH2 0x3CF JUMPI PUSH2 0x113 JUMP JUMPDEST DUP1 PUSH4 0x9F663FB8 EQ PUSH2 0x27B JUMPI DUP1 PUSH4 0xA45801A2 EQ PUSH2 0x2A5 JUMPI DUP1 PUSH4 0xC78EB546 EQ PUSH2 0x2CF JUMPI DUP1 PUSH4 0xC7A1865B EQ PUSH2 0x2F9 JUMPI PUSH2 0x113 JUMP JUMPDEST DUP1 PUSH4 0x3CCFD60B GT PUSH2 0xDB JUMPI DUP1 PUSH4 0x3CCFD60B EQ PUSH2 0x1BF JUMPI DUP1 PUSH4 0x4376CB34 EQ PUSH2 0x1D5 JUMPI DUP1 PUSH4 0x4D699F00 EQ PUSH2 0x1FF JUMPI DUP1 PUSH4 0x59A5F12D EQ PUSH2 0x229 JUMPI DUP1 PUSH4 0x5BA1B2C7 EQ PUSH2 0x253 JUMPI PUSH2 0x113 JUMP JUMPDEST DUP1 PUSH4 0x252B995 EQ PUSH2 0x117 JUMPI DUP1 PUSH4 0x11610C25 EQ PUSH2 0x141 JUMPI DUP1 PUSH4 0x33D85D44 EQ PUSH2 0x16B JUMPI DUP1 PUSH4 0x378B69EB EQ PUSH2 0x195 JUMPI PUSH2 0x113 JUMP JUMPDEST CALLDATASIZE PUSH2 0x113 JUMPI STOP JUMPDEST PUSH0 DUP1 REVERT JUMPDEST CALLVALUE DUP1 ISZERO PUSH2 0x122 JUMPI PUSH0 DUP1 REVERT JUMPDEST POP PUSH2 0x12B PUSH2 0x3F9 JUMP JUMPDEST PUSH1 0x40 MLOAD PUSH2 0x138 SWAP2 SWAP1 PUSH2 0x1DE4 JUMP JUMPDEST PUSH1 0x40 MLOAD DUP1 SWAP2 SUB SWAP1 RETURN JUMPDEST CALLVALUE DUP1 ISZERO PUSH2 0x14C JUMPI PUSH0 DUP1 REVERT JUMPDEST POP PUSH2 0x155 PUSH2 0x3FF JUMP JUMPDEST PUSH1 0x40 MLOAD PUSH2 0x162 SWAP2 SWAP1 PUSH2 0x1DE4 JUMP JUMPDEST PUSH1 0x40 MLOAD DUP1 SWAP2 SUB SWAP1 RETURN JUMPDEST CALLVALUE DUP1 ISZERO PUSH2 0x176 JUMPI PUSH0 DUP1 REVERT JUMPDEST POP PUSH2 0x17F PUSH2 0x405 JUMP JUMPDEST PUSH1 0x40 MLOAD PUSH2 0x18C SWAP2 SWAP1 PUSH2 0x1E6D JUMP JUMPDEST PUSH1 0x40 MLOAD DUP1 SWAP2 SUB SWAP1 RETURN JUMPDEST CALLVALUE DUP1 ISZERO PUSH2 0x1A0 JUMPI PUSH0 DUP1 REVERT JUMPDEST POP PUSH2 0x1A9 PUSH2 0x491 JUMP JUMPDEST PUSH1 0x40 MLOAD PUSH2 0x1B6 SWAP2 SWAP1 PUSH2 0x1EA7 JUMP JUMPDEST PUSH1 0x40 MLOAD DUP1 SWAP2 SUB SWAP1 RETURN JUMPDEST CALLVALUE DUP1 ISZERO PUSH2 0x1CA JUMPI PUSH0 DUP1 REVERT JUMPDEST POP PUSH2 0x1D3 PUSH2 0x4A3 JUMP JUMPDEST STOP JUMPDEST CALLVALUE DUP1 ISZERO PUSH2 0x1E0 JUMPI PUSH0 DUP1 REVERT JUMPDEST POP PUSH2 0x1E9 PUSH2 0xA88 JUMP JUMPDEST PUSH1 0x40 MLOAD PUSH2 0x1F6 SWAP2 SWAP1 PUSH2 0x1DE4 JUMP JUMPDEST PUSH1 0x40 MLOAD DUP1 SWAP2 SUB SWAP1 RETURN JUMPDEST CALLVALUE DUP1 ISZERO PUSH2 0x20A JUMPI PUSH0 DUP1 REVERT JUMPDEST POP PUSH2 0x213 PUSH2 0xA8E JUMP JUMPDEST PUSH1 0x40 MLOAD PUSH2 0x220 SWAP2 SWAP1 PUSH2 0x1EA7 JUMP JUMPDEST PUSH1 0x40 MLOAD DUP1 SWAP2 SUB SWAP1 RETURN JUMPDEST CALLVALUE DUP1 ISZERO PUSH2 0x234 JUMPI PUSH0 DUP1 REVERT JUMPDEST POP PUSH2 0x23D PUSH2 0xAA0 JUMP JUMPDEST PUSH1 0x40 MLOAD PUSH2 0x24A SWAP2 SWAP1 PUSH2 0x1EFF JUMP JUMPDEST PUSH1 0x40 MLOAD DUP1 SWAP2 SUB SWAP1 RETURN JUMPDEST CALLVALUE DUP1 ISZERO PUSH2 0x25E JUMPI PUSH0 DUP1 REVERT JUMPDEST POP PUSH2 0x279 PUSH1 0x4 DUP1 CALLDATASIZE SUB DUP2 ADD SWAP1 PUSH2 0x274 SWAP2 SWAP1 PUSH2 0x1F81 JUMP JUMPDEST PUSH2 0xAC5 JUMP JUMPDEST STOP JUMPDEST CALLVALUE DUP1 ISZERO PUSH2 0x286 JUMPI PUSH0 DUP1 REVERT JUMPDEST POP PUSH2 0x28F PUSH2 0x10BD JUMP JUMPDEST PUSH1 0x40 MLOAD PUSH2 0x29C SWAP2 SWAP1 PUSH2 0x2017 JUMP JUMPDEST PUSH1 0x40 MLOAD DUP1 SWAP2 SUB SWAP1 RETURN JUMPDEST CALLVALUE DUP1 ISZERO PUSH2 0x2B0 JUMPI PUSH0 DUP1 REVERT JUMPDEST POP PUSH2 0x2B9 PUSH2 0x10C3 JUMP JUMPDEST PUSH1 0x40 MLOAD PUSH2 0x2C6 SWAP2 SWAP1 PUSH2 0x1EA7 JUMP JUMPDEST PUSH1 0x40 MLOAD DUP1 SWAP2 SUB SWAP1 RETURN JUMPDEST CALLVALUE DUP1 ISZERO PUSH2 0x2DA JUMPI PUSH0 DUP1 REVERT JUMPDEST POP PUSH2 0x2E3 PUSH2 0x10D6 JUMP JUMPDEST PUSH1 0x40 MLOAD PUSH2 0x2F0 SWAP2 SWAP1 PUSH2 0x1E6D JUMP JUMPDEST PUSH1 0x40 MLOAD DUP1 SWAP2 SUB SWAP1 RETURN JUMPDEST PUSH2 0x313 PUSH1 0x4 DUP1 CALLDATASIZE SUB DUP2 ADD SWAP1 PUSH2 0x30E SWAP2 SWAP1 PUSH2 0x205A JUMP JUMPDEST PUSH2 0x1162 JUMP JUMPDEST STOP JUMPDEST CALLVALUE DUP1 ISZERO PUSH2 0x320 JUMPI PUSH0 DUP1 REVERT JUMPDEST POP PUSH2 0x329 PUSH2 0x1496 JUMP JUMPDEST PUSH1 0x40 MLOAD PUSH2 0x336 SWAP2 SWAP1 PUSH2 0x1EFF JUMP JUMPDEST PUSH1 0x40 MLOAD DUP1 SWAP2 SUB SWAP1 RETURN JUMPDEST CALLVALUE DUP1 ISZERO PUSH2 0x34A JUMPI PUSH0 DUP1 REVERT JUMPDEST POP PUSH2 0x353 PUSH2 0x14B9 JUMP JUMPDEST PUSH1 0x40 MLOAD PUSH2 0x360 SWAP2 SWAP1 PUSH2 0x1EA7 JUMP JUMPDEST PUSH1 0x40 MLOAD DUP1 SWAP2 SUB SWAP1 RETURN JUMPDEST CALLVALUE DUP1 ISZERO PUSH2 0x374 JUMPI PUSH0 DUP1 REVERT JUMPDEST POP PUSH2 0x37D PUSH2 0x14CC JUMP JUMPDEST PUSH1 0x40 MLOAD PUSH2 0x38A SWAP2 SWAP1 PUSH2 0x1EFF JUMP JUMPDEST PUSH1 0x40 MLOAD DUP1 SWAP2 SUB SWAP1 RETURN JUMPDEST CALLVALUE DUP1 ISZERO PUSH2 0x39E JUMPI PUSH0 DUP1 REVERT JUMPDEST POP PUSH2 0x3B9 PUSH1 0x4 DUP1 CALLDATASIZE SUB DUP2 ADD SWAP1 PUSH2 0x3B4 SWAP2 SWAP1 PUSH2 0x20AF JUMP JUMPDEST PUSH2 0x14F2 JUMP JUMPDEST PUSH1 0x40 MLOAD PUSH2 0x3C6 SWAP2 SWAP1 PUSH2 0x1DE4 JUMP JUMPDEST PUSH1 0x40 MLOAD DUP1 SWAP2 SUB SWAP1 RETURN JUMPDEST CALLVALUE DUP1 ISZERO PUSH2 0x3DA JUMPI PUSH0 DUP1 REVERT JUMPDEST POP PUSH2 0x3E3 PUSH2 0x1507 JUMP JUMPDEST PUSH1 0x40 MLOAD PUSH2 0x3F0 SWAP2 SWAP1 PUSH2 0x2017 JUMP JUMPDEST PUSH1 0x40 MLOAD DUP1 SWAP2 SUB SWAP1 RETURN JUMPDEST PUSH1 0x8 SLOAD DUP2 JUMP JUMPDEST PUSH1 0x2 SLOAD DUP2 JUMP JUMPDEST PUSH1 0x6 DUP1 SLOAD PUSH2 0x412 SWAP1 PUSH2 0x2107 JUMP JUMPDEST DUP1 PUSH1 0x1F ADD PUSH1 0x20 DUP1 SWAP2 DIV MUL PUSH1 0x20 ADD PUSH1 0x40 MLOAD SWAP1 DUP2 ADD PUSH1 0x40 MSTORE DUP1 SWAP3 SWAP2 SWAP1 DUP2 DUP2 MSTORE PUSH1 0x20 ADD DUP3 DUP1 SLOAD PUSH2 0x43E SWAP1 PUSH2 0x2107 JUMP JUMPDEST DUP1 ISZERO PUSH2 0x489 JUMPI DUP1 PUSH1 0x1F LT PUSH2 0x460 JUMPI PUSH2 0x100 DUP1 DUP4 SLOAD DIV MUL DUP4 MSTORE SWAP2 PUSH1 0x20 ADD SWAP2 PUSH2 0x489 JUMP JUMPDEST DUP3 ADD SWAP2 SWAP1 PUSH0 MSTORE PUSH1 0x20 PUSH0 KECCAK256 SWAP1 JUMPDEST DUP2 SLOAD DUP2 MSTORE SWAP1 PUSH1 0x1 ADD SWAP1 PUSH1 0x20 ADD DUP1 DUP4 GT PUSH2 0x46C JUMPI DUP3 SWAP1 SUB PUSH1 0x1F AND DUP3 ADD SWAP2 JUMPDEST POP POP POP POP POP DUP2 JUMP JUMPDEST PUSH1 0x5 PUSH0 SWAP1 SLOAD SWAP1 PUSH2 0x100 EXP SWAP1 DIV PUSH1 0xFF AND DUP2 JUMP JUMPDEST PUSH1 0x9 PUSH0 SWAP1 SLOAD SWAP1 PUSH2 0x100 EXP SWAP1 DIV PUSH1 0xFF AND ISZERO DUP1 ISZERO PUSH2 0x50C JUMPI POP PUSH0 PUSH20 0xFFFFFFFFFFFFFFFFFFFFFFFFFFFFFFFFFFFFFFFF AND PUSH1 0x1 PUSH0 SWAP1 SLOAD SWAP1 PUSH2 0x100 EXP SWAP1 DIV PUSH20 0xFFFFFFFFFFFFFFFFFFFFFFFFFFFFFFFFFFFFFFFF AND PUSH20 0xFFFFFFFFFFFFFFFFFFFFFFFFFFFFFFFFFFFFFFFF AND EQ ISZERO JUMPDEST ISZERO PUSH2 0x7DD JUMPI PUSH2 0x12C PUSH1 0x8 SLOAD PUSH2 0x521 SWAP2 SWAP1 PUSH2 0x2164 JUMP JUMPDEST TIMESTAMP LT PUSH2 0x7A1 JUMPI PUSH1 0x5 PUSH0 SWAP1 SLOAD SWAP1 PUSH2 0x100 EXP SWAP1 DIV PUSH1 0xFF AND DUP1 ISZERO PUSH2 0x54F JUMPI POP PUSH1 0x5 PUSH1 0x1 SWAP1 SLOAD SWAP1 PUSH2 0x100 EXP SWAP1 DIV PUSH1 0xFF AND ISZERO JUMPDEST ISZERO PUSH2 0x642 JUMPI PUSH0 DUP1 SLOAD SWAP1 PUSH2 0x100 EXP SWAP1 DIV PUSH20 0xFFFFFFFFFFFFFFFFFFFFFFFFFFFFFFFFFFFFFFFF AND PUSH1 0x9 PUSH1 0x1 PUSH2 0x100 EXP DUP2 SLOAD DUP2 PUSH20 0xFFFFFFFFFFFFFFFFFFFFFFFFFFFFFFFFFFFFFFFF MUL NOT AND SWAP1 DUP4 PUSH20 0xFFFFFFFFFFFFFFFFFFFFFFFFFFFFFFFFFFFFFFFF AND MUL OR SWAP1 SSTORE POP PUSH1 0x1 PUSH1 0x9 PUSH0 PUSH2 0x100 EXP DUP2 SLOAD DUP2 PUSH1 0xFF MUL NOT AND SWAP1 DUP4 ISZERO ISZERO MUL OR SWAP1 SSTORE POP PUSH1 0x2 DUP1 SLOAD PUSH2 0x5DC SWAP2 SWAP1 PUSH2 0x2197 JUMP JUMPDEST PUSH1 0xA PUSH0 DUP1 PUSH0 SWAP1 SLOAD SWAP1 PUSH2 0x100 EXP SWAP1 DIV PUSH20 0xFFFFFFFFFFFFFFFFFFFFFFFFFFFFFFFFFFFFFFFF AND PUSH20 0xFFFFFFFFFFFFFFFFFFFFFFFFFFFFFFFFFFFFFFFF AND PUSH20 0xFFFFFFFFFFFFFFFFFFFFFFFFFFFFFFFFFFFFFFFF AND DUP2 MSTORE PUSH1 0x20 ADD SWAP1 DUP2 MSTORE PUSH1 0x20 ADD PUSH0 KECCAK256 DUP2 SWAP1 SSTORE POP PUSH2 0x79C JUMP JUMPDEST PUSH1 0x5 PUSH1 0x1 SWAP1 SLOAD SWAP1 PUSH2 0x100 EXP SWAP1 DIV PUSH1 0xFF AND DUP1 ISZERO PUSH2 0x66A JUMPI POP PUSH1 0x5 PUSH0 SWAP1 SLOAD SWAP1 PUSH2 0x100 EXP SWAP1 DIV PUSH1 0xFF AND ISZERO JUMPDEST ISZERO PUSH2 0x760 JUMPI PUSH1 0x1 PUSH0 SWAP1 SLOAD SWAP1 PUSH2 0x100 EXP SWAP1 DIV PUSH20 0xFFFFFFFFFFFFFFFFFFFFFFFFFFFFFFFFFFFFFFFF AND PUSH1 0x9 PUSH1 0x1 PUSH2 0x100 EXP DUP2 SLOAD DUP2 PUSH20 0xFFFFFFFFFFFFFFFFFFFFFFFFFFFFFFFFFFFFFFFF MUL NOT AND SWAP1 DUP4 PUSH20 0xFFFFFFFFFFFFFFFFFFFFFFFFFFFFFFFFFFFFFFFF AND MUL OR SWAP1 SSTORE POP PUSH1 0x1 PUSH1 0x9 PUSH0 PUSH2 0x100 EXP DUP2 SLOAD DUP2 PUSH1 0xFF MUL NOT AND SWAP1 DUP4 ISZERO ISZERO MUL OR SWAP1 SSTORE POP PUSH1 0x2 DUP1 SLOAD PUSH2 0x6F9 SWAP2 SWAP1 PUSH2 0x2197 JUMP JUMPDEST PUSH1 0xA PUSH0 PUSH1 0x1 PUSH0 SWAP1 SLOAD SWAP1 PUSH2 0x100 EXP SWAP1 DIV PUSH20 0xFFFFFFFFFFFFFFFFFFFFFFFFFFFFFFFFFFFFFFFF AND PUSH20 0xFFFFFFFFFFFFFFFFFFFFFFFFFFFFFFFFFFFFFFFF AND PUSH20 0xFFFFFFFFFFFFFFFFFFFFFFFFFFFFFFFFFFFFFFFF AND DUP2 MSTORE PUSH1 0x20 ADD SWAP1 DUP2 MSTORE PUSH1 0x20 ADD PUSH0 KECCAK256 DUP2 SWAP1 SSTORE POP PUSH2 0x79B JUMP JUMPDEST PUSH1 0x40 MLOAD PUSH32 0x8C379A000000000000000000000000000000000000000000000000000000000 DUP2 MSTORE PUSH1 0x4 ADD PUSH2 0x792 SWAP1 PUSH2 0x2248 JUMP JUMPDEST PUSH1 0x40 MLOAD DUP1 SWAP2 SUB SWAP1 REVERT JUMPDEST JUMPDEST PUSH2 0x7DC JUMP JUMPDEST PUSH1 0x40 MLOAD PUSH32 0x8C379A000000000000000000000000000000000000000000000000000000000 DUP2 MSTORE PUSH1 0x4 ADD PUSH2 0x7D3 SWAP1 PUSH2 0x22D6 JUMP JUMPDEST PUSH1 0x40 MLOAD DUP1 SWAP2 SUB SWAP1 REVERT JUMPDEST JUMPDEST PUSH0 PUSH1 0xA PUSH0 CALLER PUSH20 0xFFFFFFFFFFFFFFFFFFFFFFFFFFFFFFFFFFFFFFFF AND PUSH20 0xFFFFFFFFFFFFFFFFFFFFFFFFFFFFFFFFFFFFFFFF AND DUP2 MSTORE PUSH1 0x20 ADD SWAP1 DUP2 MSTORE PUSH1 0x20 ADD PUSH0 KECCAK256 SLOAD SWAP1 POP PUSH0 DUP2 GT PUSH2 0x860 JUMPI PUSH1 0x40 MLOAD PUSH32 0x8C379A000000000000000000000000000000000000000000000000000000000 DUP2 MSTORE PUSH1 0x4 ADD PUSH2 0x857 SWAP1 PUSH2 0x2364 JUMP JUMPDEST PUSH1 0x40 MLOAD DUP1 SWAP2 SUB SWAP1 REVERT JUMPDEST PUSH0 PUSH1 0xA PUSH0 CALLER PUSH20 0xFFFFFFFFFFFFFFFFFFFFFFFFFFFFFFFFFFFFFFFF AND PUSH20 0xFFFFFFFFFFFFFFFFFFFFFFFFFFFFFFFFFFFFFFFF AND DUP2 MSTORE PUSH1 0x20 ADD SWAP1 DUP2 MSTORE PUSH1 0x20 ADD PUSH0 KECCAK256 DUP2 SWAP1 SSTORE POP PUSH0 CALLER PUSH20 0xFFFFFFFFFFFFFFFFFFFFFFFFFFFFFFFFFFFFFFFF AND DUP3 PUSH1 0x40 MLOAD PUSH2 0x8C7 SWAP1 PUSH2 0x23AF JUMP JUMPDEST PUSH0 PUSH1 0x40 MLOAD DUP1 DUP4 SUB DUP2 DUP6 DUP8 GAS CALL SWAP3 POP POP POP RETURNDATASIZE DUP1 PUSH0 DUP2 EQ PUSH2 0x901 JUMPI PUSH1 0x40 MLOAD SWAP2 POP PUSH1 0x1F NOT PUSH1 0x3F RETURNDATASIZE ADD AND DUP3 ADD PUSH1 0x40 MSTORE RETURNDATASIZE DUP3 MSTORE RETURNDATASIZE PUSH0 PUSH1 0x20 DUP5 ADD RETURNDATACOPY PUSH2 0x906 JUMP JUMPDEST PUSH1 0x60 SWAP2 POP JUMPDEST POP POP SWAP1 POP DUP1 PUSH2 0x94A JUMPI PUSH1 0x40 MLOAD PUSH32 0x8C379A000000000000000000000000000000000000000000000000000000000 DUP2 MSTORE PUSH1 0x4 ADD PUSH2 0x941 SWAP1 PUSH2 0x240D JUMP JUMPDEST PUSH1 0x40 MLOAD DUP1 SWAP2 SUB SWAP1 REVERT JUMPDEST CALLER PUSH20 0xFFFFFFFFFFFFFFFFFFFFFFFFFFFFFFFFFFFFFFFF AND PUSH32 0x7084F5476618D8E60B11EF0D7D3F06914655ADB8793E28FF7F018D4C76D505D5 DUP4 PUSH1 0x40 MLOAD PUSH2 0x990 SWAP2 SWAP1 PUSH2 0x1DE4 JUMP JUMPDEST PUSH1 0x40 MLOAD DUP1 SWAP2 SUB SWAP1 LOG2 PUSH1 0x9 PUSH0 SWAP1 SLOAD SWAP1 PUSH2 0x100 EXP SWAP1 DIV PUSH1 0xFF AND ISZERO PUSH2 0xA84 JUMPI PUSH0 PUSH1 0xA PUSH0 DUP1 PUSH0 SWAP1 SLOAD SWAP1 PUSH2 0x100 EXP SWAP1 DIV PUSH20 0xFFFFFFFFFFFFFFFFFFFFFFFFFFFFFFFFFFFFFFFF AND PUSH20 0xFFFFFFFFFFFFFFFFFFFFFFFFFFFFFFFFFFFFFFFF AND PUSH20 0xFFFFFFFFFFFFFFFFFFFFFFFFFFFFFFFFFFFFFFFF AND DUP2 MSTORE PUSH1 0x20 ADD SWAP1 DUP2 MSTORE PUSH1 0x20 ADD PUSH0 KECCAK256 SLOAD EQ DUP1 ISZERO PUSH2 0xA75 JUMPI POP PUSH0 PUSH1 0xA PUSH0 PUSH1 0x1 PUSH0 SWAP1 SLOAD SWAP1 PUSH2 0x100 EXP SWAP1 DIV PUSH20 0xFFFFFFFFFFFFFFFFFFFFFFFFFFFFFFFFFFFFFFFF AND PUSH20 0xFFFFFFFFFFFFFFFFFFFFFFFFFFFFFFFFFFFFFFFF AND PUSH20 0xFFFFFFFFFFFFFFFFFFFFFFFFFFFFFFFFFFFFFFFF AND DUP2 MSTORE PUSH1 0x20 ADD SWAP1 DUP2 MSTORE PUSH1 0x20 ADD PUSH0 KECCAK256 SLOAD EQ JUMPDEST ISZERO PUSH2 0xA83 JUMPI PUSH2 0xA82 PUSH2 0x150D JUMP JUMPDEST JUMPDEST JUMPDEST POP POP JUMP JUMPDEST PUSH2 0x12C DUP2 JUMP JUMPDEST PUSH1 0x9 PUSH0 SWAP1 SLOAD SWAP1 PUSH2 0x100 EXP SWAP1 DIV PUSH1 0xFF AND DUP2 JUMP JUMPDEST PUSH1 0x1 PUSH0 SWAP1 SLOAD SWAP1 PUSH2 0x100 EXP SWAP1 DIV PUSH20 0xFFFFFFFFFFFFFFFFFFFFFFFFFFFFFFFFFFFFFFFF AND DUP2 JUMP JUMPDEST PUSH0 DUP1 SLOAD SWAP1 PUSH2 0x100 EXP SWAP1 DIV PUSH20 0xFFFFFFFFFFFFFFFFFFFFFFFFFFFFFFFFFFFFFFFF AND PUSH20 0xFFFFFFFFFFFFFFFFFFFFFFFFFFFFFFFFFFFFFFFF AND CALLER PUSH20 0xFFFFFFFFFFFFFFFFFFFFFFFFFFFFFFFFFFFFFFFF AND EQ DUP1 PUSH2 0xB6A JUMPI POP PUSH1 0x1 PUSH0 SWAP1 SLOAD SWAP1 PUSH2 0x100 EXP SWAP1 DIV PUSH20 0xFFFFFFFFFFFFFFFFFFFFFFFFFFFFFFFFFFFFFFFF AND PUSH20 0xFFFFFFFFFFFFFFFFFFFFFFFFFFFFFFFFFFFFFFFF AND CALLER PUSH20 0xFFFFFFFFFFFFFFFFFFFFFFFFFFFFFFFFFFFFFFFF AND EQ JUMPDEST PUSH2 0xBA9 JUMPI PUSH1 0x40 MLOAD PUSH32 0x8C379A000000000000000000000000000000000000000000000000000000000 DUP2 MSTORE PUSH1 0x4 ADD PUSH2 0xBA0 SWAP1 PUSH2 0x2475 JUMP JUMPDEST PUSH1 0x40 MLOAD DUP1 SWAP2 SUB SWAP1 REVERT JUMPDEST PUSH0 DUP5 DUP5 DUP1 DUP1 PUSH1 0x1F ADD PUSH1 0x20 DUP1 SWAP2 DIV MUL PUSH1 0x20 ADD PUSH1 0x40 MLOAD SWAP1 DUP2 ADD PUSH1 0x40 MSTORE DUP1 SWAP4 SWAP3 SWAP2 SWAP1 DUP2 DUP2 MSTORE PUSH1 0x20 ADD DUP4 DUP4 DUP1 DUP3 DUP5 CALLDATACOPY PUSH0 DUP2 DUP5 ADD MSTORE PUSH1 0x1F NOT PUSH1 0x1F DUP3 ADD AND SWAP1 POP DUP1 DUP4 ADD SWAP3 POP POP POP POP POP POP POP SWAP1 POP PUSH1 0x1 DUP2 MLOAD EQ PUSH2 0xC34 JUMPI PUSH1 0x40 MLOAD PUSH32 0x8C379A000000000000000000000000000000000000000000000000000000000 DUP2 MSTORE PUSH1 0x4 ADD PUSH2 0xC2B SWAP1 PUSH2 0x24DD JUMP JUMPDEST PUSH1 0x40 MLOAD DUP1 SWAP2 SUB SWAP1 REVERT JUMPDEST PUSH0 DUP2 PUSH0 DUP2 MLOAD DUP2 LT PUSH2 0xC48 JUMPI PUSH2 0xC47 PUSH2 0x24FB JUMP JUMPDEST JUMPDEST PUSH1 0x20 ADD ADD MLOAD PUSH1 0xF8 SHR PUSH1 0xF8 SHL SWAP1 POP PUSH32 0x5200000000000000000000000000000000000000000000000000000000000000 PUSH31 0xFFFFFFFFFFFFFFFFFFFFFFFFFFFFFFFFFFFFFFFFFFFFFFFFFFFFFFFFFFFFFF NOT AND DUP2 PUSH31 0xFFFFFFFFFFFFFFFFFFFFFFFFFFFFFFFFFFFFFFFFFFFFFFFFFFFFFFFFFFFFFF NOT AND EQ DUP1 PUSH2 0xD2A JUMPI POP PUSH32 0x5000000000000000000000000000000000000000000000000000000000000000 PUSH31 0xFFFFFFFFFFFFFFFFFFFFFFFFFFFFFFFFFFFFFFFFFFFFFFFFFFFFFFFFFFFFFF NOT AND DUP2 PUSH31 0xFFFFFFFFFFFFFFFFFFFFFFFFFFFFFFFFFFFFFFFFFFFFFFFFFFFFFFFFFFFFFF NOT AND EQ JUMPDEST DUP1 PUSH2 0xD98 JUMPI POP PUSH32 0x5300000000000000000000000000000000000000000000000000000000000000 PUSH31 0xFFFFFFFFFFFFFFFFFFFFFFFFFFFFFFFFFFFFFFFFFFFFFFFFFFFFFFFFFFFFFF NOT AND DUP2 PUSH31 0xFFFFFFFFFFFFFFFFFFFFFFFFFFFFFFFFFFFFFFFFFFFFFFFFFFFFFFFFFFFFFF NOT AND EQ JUMPDEST PUSH2 0xDD7 JUMPI PUSH1 0x40 MLOAD PUSH32 0x8C379A000000000000000000000000000000000000000000000000000000000 DUP2 MSTORE PUSH1 0x4 ADD PUSH2 0xDCE SWAP1 PUSH2 0x2598 JUMP JUMPDEST PUSH1 0x40 MLOAD DUP1 SWAP2 SUB SWAP1 REVERT JUMPDEST PUSH0 DUP7 DUP7 DUP7 DUP7 PUSH1 0x40 MLOAD PUSH1 0x20 ADD PUSH2 0xDEF SWAP5 SWAP4 SWAP3 SWAP2 SWAP1 PUSH2 0x25F2 JUMP JUMPDEST PUSH1 0x40 MLOAD PUSH1 0x20 DUP2 DUP4 SUB SUB DUP2 MSTORE SWAP1 PUSH1 0x40 MSTORE DUP1 MLOAD SWAP1 PUSH1 0x20 ADD KECCAK256 SWAP1 POP PUSH0 DUP1 SLOAD SWAP1 PUSH2 0x100 EXP SWAP1 DIV PUSH20 0xFFFFFFFFFFFFFFFFFFFFFFFFFFFFFFFFFFFFFFFF AND PUSH20 0xFFFFFFFFFFFFFFFFFFFFFFFFFFFFFFFFFFFFFFFF AND CALLER PUSH20 0xFFFFFFFFFFFFFFFFFFFFFFFFFFFFFFFFFFFFFFFF AND SUB PUSH2 0xF6D JUMPI PUSH1 0x5 PUSH0 SWAP1 SLOAD SWAP1 PUSH2 0x100 EXP SWAP1 DIV PUSH1 0xFF AND ISZERO PUSH2 0xEA8 JUMPI PUSH1 0x40 MLOAD PUSH32 0x8C379A000000000000000000000000000000000000000000000000000000000 DUP2 MSTORE PUSH1 0x4 ADD PUSH2 0xE9F SWAP1 PUSH2 0x2663 JUMP JUMPDEST PUSH1 0x40 MLOAD DUP1 SWAP2 SUB SWAP1 REVERT JUMPDEST PUSH1 0x3 SLOAD DUP2 EQ PUSH2 0xEEC JUMPI PUSH1 0x40 MLOAD PUSH32 0x8C379A000000000000000000000000000000000000000000000000000000000 DUP2 MSTORE PUSH1 0x4 ADD PUSH2 0xEE3 SWAP1 PUSH2 0x26CB JUMP JUMPDEST PUSH1 0x40 MLOAD DUP1 SWAP2 SUB SWAP1 REVERT JUMPDEST PUSH1 0x1 PUSH1 0x5 PUSH0 PUSH2 0x100 EXP DUP2 SLOAD DUP2 PUSH1 0xFF MUL NOT AND SWAP1 DUP4 ISZERO ISZERO MUL OR SWAP1 SSTORE POP DUP7 DUP7 PUSH1 0x6 SWAP2 DUP3 PUSH2 0xF17 SWAP3 SWAP2 SWAP1 PUSH2 0x28BD JUMP JUMPDEST POP CALLER PUSH20 0xFFFFFFFFFFFFFFFFFFFFFFFFFFFFFFFFFFFFFFFF AND PUSH32 0xEE22CA58EB93549CF1B11737946F98A22FF5191A499F5839F6A9E7EB40DCB152 DUP9 DUP9 PUSH1 0x40 MLOAD PUSH2 0xF60 SWAP3 SWAP2 SWAP1 PUSH2 0x29B6 JUMP JUMPDEST PUSH1 0x40 MLOAD DUP1 SWAP2 SUB SWAP1 LOG2 PUSH2 0x107F JUMP JUMPDEST PUSH1 0x5 PUSH1 0x1 SWAP1 SLOAD SWAP1 PUSH2 0x100 EXP SWAP1 DIV PUSH1 0xFF AND ISZERO PUSH2 0xFBD JUMPI PUSH1 0x40 MLOAD PUSH32 0x8C379A000000000000000000000000000000000000000000000000000000000 DUP2 MSTORE PUSH1 0x4 ADD PUSH2 0xFB4 SWAP1 PUSH2 0x2A22 JUMP JUMPDEST PUSH1 0x40 MLOAD DUP1 SWAP2 SUB SWAP1 REVERT JUMPDEST PUSH1 0x4 SLOAD DUP2 EQ PUSH2 0x1001 JUMPI PUSH1 0x40 MLOAD PUSH32 0x8C379A000000000000000000000000000000000000000000000000000000000 DUP2 MSTORE PUSH1 0x4 ADD PUSH2 0xFF8 SWAP1 PUSH2 0x2A8A JUMP JUMPDEST PUSH1 0x40 MLOAD DUP1 SWAP2 SUB SWAP1 REVERT JUMPDEST PUSH1 0x1 PUSH1 0x5 PUSH1 0x1 PUSH2 0x100 EXP DUP2 SLOAD DUP2 PUSH1 0xFF MUL NOT AND SWAP1 DUP4 ISZERO ISZERO MUL OR SWAP1 SSTORE POP DUP7 DUP7 PUSH1 0x7 SWAP2 DUP3 PUSH2 0x102D SWAP3 SWAP2 SWAP1 PUSH2 0x28BD JUMP JUMPDEST POP CALLER PUSH20 0xFFFFFFFFFFFFFFFFFFFFFFFFFFFFFFFFFFFFFFFF AND PUSH32 0xEE22CA58EB93549CF1B11737946F98A22FF5191A499F5839F6A9E7EB40DCB152 DUP9 DUP9 PUSH1 0x40 MLOAD PUSH2 0x1076 SWAP3 SWAP2 SWAP1 PUSH2 0x29B6 JUMP JUMPDEST PUSH1 0x40 MLOAD DUP1 SWAP2 SUB SWAP1 LOG2 JUMPDEST PUSH1 0x5 PUSH0 SWAP1 SLOAD SWAP1 PUSH2 0x100 EXP SWAP1 DIV PUSH1 0xFF AND DUP1 ISZERO PUSH2 0x10A6 JUMPI POP PUSH1 0x5 PUSH1 0x1 SWAP1 SLOAD SWAP1 PUSH2 0x100 EXP SWAP1 DIV PUSH1 0xFF AND JUMPDEST ISZERO PUSH2 0x10B4 JUMPI PUSH2 0x10B3 PUSH2 0x1691 JUMP JUMPDEST JUMPDEST POP POP POP POP POP POP POP JUMP JUMPDEST PUSH1 0x3 SLOAD DUP2 JUMP JUMPDEST PUSH1 0x5 PUSH1 0x1 SWAP1 SLOAD SWAP1 PUSH2 0x100 EXP SWAP1 DIV PUSH1 0xFF AND DUP2 JUMP JUMPDEST PUSH1 0x7 DUP1 SLOAD PUSH2 0x10E3 SWAP1 PUSH2 0x2107 JUMP JUMPDEST DUP1 PUSH1 0x1F ADD PUSH1 0x20 DUP1 SWAP2 DIV MUL PUSH1 0x20 ADD PUSH1 0x40 MLOAD SWAP1 DUP2 ADD PUSH1 0x40 MSTORE DUP1 SWAP3 SWAP2 SWAP1 DUP2 DUP2 MSTORE PUSH1 0x20 ADD DUP3 DUP1 SLOAD PUSH2 0x110F SWAP1 PUSH2 0x2107 JUMP JUMPDEST DUP1 ISZERO PUSH2 0x115A JUMPI DUP1 PUSH1 0x1F LT PUSH2 0x1131 JUMPI PUSH2 0x100 DUP1 DUP4 SLOAD DIV MUL DUP4 MSTORE SWAP2 PUSH1 0x20 ADD SWAP2 PUSH2 0x115A JUMP JUMPDEST DUP3 ADD SWAP2 SWAP1 PUSH0 MSTORE PUSH1 0x20 PUSH0 KECCAK256 SWAP1 JUMPDEST DUP2 SLOAD DUP2 MSTORE SWAP1 PUSH1 0x1 ADD SWAP1 PUSH1 0x20 ADD DUP1 DUP4 GT PUSH2 0x113D JUMPI DUP3 SWAP1 SUB PUSH1 0x1F AND DUP3 ADD SWAP2 JUMPDEST POP POP POP POP POP DUP2 JUMP JUMPDEST PUSH0 CALLVALUE GT PUSH2 0x11A4 JUMPI PUSH1 0x40 MLOAD PUSH32 0x8C379A000000000000000000000000000000000000000000000000000000000 DUP2 MSTORE PUSH1 0x4 ADD PUSH2 0x119B SWAP1 PUSH2 0x2AF2 JUMP JUMPDEST PUSH1 0x40 MLOAD DUP1 SWAP2 SUB SWAP1 REVERT JUMPDEST PUSH0 PUSH20 0xFFFFFFFFFFFFFFFFFFFFFFFFFFFFFFFFFFFFFFFF AND PUSH0 DUP1 SLOAD SWAP1 PUSH2 0x100 EXP SWAP1 DIV PUSH20 0xFFFFFFFFFFFFFFFFFFFFFFFFFFFFFFFFFFFFFFFF AND PUSH20 0xFFFFFFFFFFFFFFFFFFFFFFFFFFFFFFFFFFFFFFFF AND SUB PUSH2 0x1296 JUMPI CALLER PUSH0 DUP1 PUSH2 0x100 EXP DUP2 SLOAD DUP2 PUSH20 0xFFFFFFFFFFFFFFFFFFFFFFFFFFFFFFFFFFFFFFFF MUL NOT AND SWAP1 DUP4 PUSH20 0xFFFFFFFFFFFFFFFFFFFFFFFFFFFFFFFFFFFFFFFF AND MUL OR SWAP1 SSTORE POP DUP1 PUSH1 0x3 DUP2 SWAP1 SSTORE POP CALLVALUE PUSH1 0x2 DUP2 SWAP1 SSTORE POP CALLER PUSH20 0xFFFFFFFFFFFFFFFFFFFFFFFFFFFFFFFFFFFFFFFF AND PUSH32 0xA563B85FC6323995D96CEAFE952AABC2A413B957735468172E9E7019E5CE7CF2 DUP3 PUSH1 0x40 MLOAD PUSH2 0x1289 SWAP2 SWAP1 PUSH2 0x2017 JUMP JUMPDEST PUSH1 0x40 MLOAD DUP1 SWAP2 SUB SWAP1 LOG2 PUSH2 0x1493 JUMP JUMPDEST PUSH0 PUSH20 0xFFFFFFFFFFFFFFFFFFFFFFFFFFFFFFFFFFFFFFFF AND PUSH1 0x1 PUSH0 SWAP1 SLOAD SWAP1 PUSH2 0x100 EXP SWAP1 DIV PUSH20 0xFFFFFFFFFFFFFFFFFFFFFFFFFFFFFFFFFFFFFFFF AND PUSH20 0xFFFFFFFFFFFFFFFFFFFFFFFFFFFFFFFFFFFFFFFF AND EQ PUSH2 0x1325 JUMPI PUSH1 0x40 MLOAD PUSH32 0x8C379A000000000000000000000000000000000000000000000000000000000 DUP2 MSTORE PUSH1 0x4 ADD PUSH2 0x131C SWAP1 PUSH2 0x2B5A JUMP JUMPDEST PUSH1 0x40 MLOAD DUP1 SWAP2 SUB SWAP1 REVERT JUMPDEST PUSH0 DUP1 SLOAD SWAP1 PUSH2 0x100 EXP SWAP1 DIV PUSH20 0xFFFFFFFFFFFFFFFFFFFFFFFFFFFFFFFFFFFFFFFF AND PUSH20 0xFFFFFFFFFFFFFFFFFFFFFFFFFFFFFFFFFFFFFFFF AND CALLER PUSH20 0xFFFFFFFFFFFFFFFFFFFFFFFFFFFFFFFFFFFFFFFF AND SUB PUSH2 0x13B2 JUMPI PUSH1 0x40 MLOAD PUSH32 0x8C379A000000000000000000000000000000000000000000000000000000000 DUP2 MSTORE PUSH1 0x4 ADD PUSH2 0x13A9 SWAP1 PUSH2 0x2BC2 JUMP JUMPDEST PUSH1 0x40 MLOAD DUP1 SWAP2 SUB SWAP1 REVERT JUMPDEST PUSH1 0x2 SLOAD CALLVALUE EQ PUSH2 0x13F6 JUMPI PUSH1 0x40 MLOAD PUSH32 0x8C379A000000000000000000000000000000000000000000000000000000000 DUP2 MSTORE PUSH1 0x4 ADD PUSH2 0x13ED SWAP1 PUSH2 0x2C2A JUMP JUMPDEST PUSH1 0x40 MLOAD DUP1 SWAP2 SUB SWAP1 REVERT JUMPDEST CALLER PUSH1 0x1 PUSH0 PUSH2 0x100 EXP DUP2 SLOAD DUP2 PUSH20 0xFFFFFFFFFFFFFFFFFFFFFFFFFFFFFFFFFFFFFFFF MUL NOT AND SWAP1 DUP4 PUSH20 0xFFFFFFFFFFFFFFFFFFFFFFFFFFFFFFFFFFFFFFFF AND MUL OR SWAP1 SSTORE POP DUP1 PUSH1 0x4 DUP2 SWAP1 SSTORE POP TIMESTAMP PUSH1 0x8 DUP2 SWAP1 SSTORE POP CALLER PUSH20 0xFFFFFFFFFFFFFFFFFFFFFFFFFFFFFFFFFFFFFFFF AND PUSH32 0xA563B85FC6323995D96CEAFE952AABC2A413B957735468172E9E7019E5CE7CF2 DUP3 PUSH1 0x40 MLOAD PUSH2 0x148A SWAP2 SWAP1 PUSH2 0x2017 JUMP JUMPDEST PUSH1 0x40 MLOAD DUP1 SWAP2 SUB SWAP1 LOG2 JUMPDEST POP JUMP JUMPDEST PUSH0 DUP1 SLOAD SWAP1 PUSH2 0x100 EXP SWAP1 DIV PUSH20 0xFFFFFFFFFFFFFFFFFFFFFFFFFFFFFFFFFFFFFFFF AND DUP2 JUMP JUMPDEST PUSH1 0x9 PUSH1 0x15 SWAP1 SLOAD SWAP1 PUSH2 0x100 EXP SWAP1 DIV PUSH1 0xFF AND DUP2 JUMP JUMPDEST PUSH1 0x9 PUSH1 0x1 SWAP1 SLOAD SWAP1 PUSH2 0x100 EXP SWAP1 DIV PUSH20 0xFFFFFFFFFFFFFFFFFFFFFFFFFFFFFFFFFFFFFFFF AND DUP2 JUMP JUMPDEST PUSH1 0xA PUSH1 0x20 MSTORE DUP1 PUSH0 MSTORE PUSH1 0x40 PUSH0 KECCAK256 PUSH0 SWAP2 POP SWAP1 POP SLOAD DUP2 JUMP JUMPDEST PUSH1 0x4 SLOAD DUP2 JUMP JUMPDEST PUSH0 DUP1 PUSH0 PUSH2 0x100 EXP DUP2 SLOAD DUP2 PUSH20 0xFFFFFFFFFFFFFFFFFFFFFFFFFFFFFFFFFFFFFFFF MUL NOT AND SWAP1 DUP4 PUSH20 0xFFFFFFFFFFFFFFFFFFFFFFFFFFFFFFFFFFFFFFFF AND MUL OR SWAP1 SSTORE POP PUSH0 PUSH1 0x1 PUSH0 PUSH2 0x100 EXP DUP2 SLOAD DUP2 PUSH20 0xFFFFFFFFFFFFFFFFFFFFFFFFFFFFFFFFFFFFFFFF MUL NOT AND SWAP1 DUP4 PUSH20 0xFFFFFFFFFFFFFFFFFFFFFFFFFFFFFFFFFFFFFFFF AND MUL OR SWAP1 SSTORE POP PUSH0 PUSH1 0x2 DUP2 SWAP1 SSTORE POP PUSH0 DUP1 SHL PUSH1 0x3 DUP2 SWAP1 SSTORE POP PUSH0 DUP1 SHL PUSH1 0x4 DUP2 SWAP1 SSTORE POP PUSH0 PUSH1 0x5 PUSH0 PUSH2 0x100 EXP DUP2 SLOAD DUP2 PUSH1 0xFF MUL NOT AND SWAP1 DUP4 ISZERO ISZERO MUL OR SWAP1 SSTORE POP PUSH0 PUSH1 0x5 PUSH1 0x1 PUSH2 0x100 EXP DUP2 SLOAD DUP2 PUSH1 0xFF MUL NOT AND SWAP1 DUP4 ISZERO ISZERO MUL OR SWAP1 SSTORE POP PUSH1 0x40 MLOAD DUP1 PUSH1 0x20 ADD PUSH1 0x40 MSTORE DUP1 PUSH0 DUP2 MSTORE POP PUSH1 0x6 SWAP1 DUP2 PUSH2 0x15F5 SWAP2 SWAP1 PUSH2 0x2C48 JUMP JUMPDEST POP PUSH1 0x40 MLOAD DUP1 PUSH1 0x20 ADD PUSH1 0x40 MSTORE DUP1 PUSH0 DUP2 MSTORE POP PUSH1 0x7 SWAP1 DUP2 PUSH2 0x1613 SWAP2 SWAP1 PUSH2 0x2C48 JUMP JUMPDEST POP PUSH0 PUSH1 0x8 DUP2 SWAP1 SSTORE POP PUSH0 PUSH1 0x9 PUSH0 PUSH2 0x100 EXP DUP2 SLOAD DUP2 PUSH1 0xFF MUL NOT AND SWAP1 DUP4 ISZERO ISZERO MUL OR SWAP1 SSTORE POP PUSH0 PUSH1 0x9 PUSH1 0x1 PUSH2 0x100 EXP DUP2 SLOAD DUP2 PUSH20 0xFFFFFFFFFFFFFFFFFFFFFFFFFFFFFFFFFFFFFFFF MUL NOT AND SWAP1 DUP4 PUSH20 0xFFFFFFFFFFFFFFFFFFFFFFFFFFFFFFFFFFFFFFFF AND MUL OR SWAP1 SSTORE POP PUSH0 PUSH1 0x9 PUSH1 0x15 PUSH2 0x100 EXP DUP2 SLOAD DUP2 PUSH1 0xFF MUL NOT AND SWAP1 DUP4 ISZERO ISZERO MUL OR SWAP1 SSTORE POP JUMP JUMPDEST PUSH0 PUSH1 0x6 DUP1 SLOAD PUSH2 0x169F SWAP1 PUSH2 0x2107 JUMP JUMPDEST DUP1 PUSH1 0x1F ADD PUSH1 0x20 DUP1 SWAP2 DIV MUL PUSH1 0x20 ADD PUSH1 0x40 MLOAD SWAP1 DUP2 ADD PUSH1 0x40 MSTORE DUP1 SWAP3 SWAP2 SWAP1 DUP2 DUP2 MSTORE PUSH1 0x20 ADD DUP3 DUP1 SLOAD PUSH2 0x16CB SWAP1 PUSH2 0x2107 JUMP JUMPDEST DUP1 ISZERO PUSH2 0x1716 JUMPI DUP1 PUSH1 0x1F LT PUSH2 0x16ED JUMPI PUSH2 0x100 DUP1 DUP4 SLOAD DIV MUL DUP4 MSTORE SWAP2 PUSH1 0x20 ADD SWAP2 PUSH2 0x1716 JUMP JUMPDEST DUP3 ADD SWAP2 SWAP1 PUSH0 MSTORE PUSH1 0x20 PUSH0 KECCAK256 SWAP1 JUMPDEST DUP2 SLOAD DUP2 MSTORE SWAP1 PUSH1 0x1 ADD SWAP1 PUSH1 0x20 ADD DUP1 DUP4 GT PUSH2 0x16F9 JUMPI DUP3 SWAP1 SUB PUSH1 0x1F AND DUP3 ADD SWAP2 JUMPDEST POP POP POP POP POP SWAP1 POP PUSH0 PUSH1 0x7 DUP1 SLOAD PUSH2 0x172B SWAP1 PUSH2 0x2107 JUMP JUMPDEST DUP1 PUSH1 0x1F ADD PUSH1 0x20 DUP1 SWAP2 DIV MUL PUSH1 0x20 ADD PUSH1 0x40 MLOAD SWAP1 DUP2 ADD PUSH1 0x40 MSTORE DUP1 SWAP3 SWAP2 SWAP1 DUP2 DUP2 MSTORE PUSH1 0x20 ADD DUP3 DUP1 SLOAD PUSH2 0x1757 SWAP1 PUSH2 0x2107 JUMP JUMPDEST DUP1 ISZERO PUSH2 0x17A2 JUMPI DUP1 PUSH1 0x1F LT PUSH2 0x1779 JUMPI PUSH2 0x100 DUP1 DUP4 SLOAD DIV MUL DUP4 MSTORE SWAP2 PUSH1 0x20 ADD SWAP2 PUSH2 0x17A2 JUMP JUMPDEST DUP3 ADD SWAP2 SWAP1 PUSH0 MSTORE PUSH1 0x20 PUSH0 KECCAK256 SWAP1 JUMPDEST DUP2 SLOAD DUP2 MSTORE SWAP1 PUSH1 0x1 ADD SWAP1 PUSH1 0x20 ADD DUP1 DUP4 GT PUSH2 0x1785 JUMPI DUP3 SWAP1 SUB PUSH1 0x1F AND DUP3 ADD SWAP2 JUMPDEST POP POP POP POP POP SWAP1 POP DUP1 PUSH0 DUP2 MLOAD DUP2 LT PUSH2 0x17BC JUMPI PUSH2 0x17BB PUSH2 0x24FB JUMP JUMPDEST JUMPDEST PUSH1 0x20 ADD ADD MLOAD PUSH1 0xF8 SHR PUSH1 0xF8 SHL PUSH31 0xFFFFFFFFFFFFFFFFFFFFFFFFFFFFFFFFFFFFFFFFFFFFFFFFFFFFFFFFFFFFFF NOT AND DUP3 PUSH0 DUP2 MLOAD DUP2 LT PUSH2 0x17FC JUMPI PUSH2 0x17FB PUSH2 0x24FB JUMP JUMPDEST JUMPDEST PUSH1 0x20 ADD ADD MLOAD PUSH1 0xF8 SHR PUSH1 0xF8 SHL PUSH31 0xFFFFFFFFFFFFFFFFFFFFFFFFFFFFFFFFFFFFFFFFFFFFFFFFFFFFFFFFFFFFFF NOT AND SUB PUSH2 0x1931 JUMPI PUSH1 0x1 PUSH1 0x9 PUSH1 0x15 PUSH2 0x100 EXP DUP2 SLOAD DUP2 PUSH1 0xFF MUL NOT AND SWAP1 DUP4 ISZERO ISZERO MUL OR SWAP1 SSTORE POP PUSH1 0x1 PUSH1 0x9 PUSH0 PUSH2 0x100 EXP DUP2 SLOAD DUP2 PUSH1 0xFF MUL NOT AND SWAP1 DUP4 ISZERO ISZERO MUL OR SWAP1 SSTORE POP PUSH1 0x2 SLOAD PUSH1 0xA PUSH0 DUP1 PUSH0 SWAP1 SLOAD SWAP1 PUSH2 0x100 EXP SWAP1 DIV PUSH20 0xFFFFFFFFFFFFFFFFFFFFFFFFFFFFFFFFFFFFFFFF AND PUSH20 0xFFFFFFFFFFFFFFFFFFFFFFFFFFFFFFFFFFFFFFFF AND PUSH20 0xFFFFFFFFFFFFFFFFFFFFFFFFFFFFFFFFFFFFFFFF AND DUP2 MSTORE PUSH1 0x20 ADD SWAP1 DUP2 MSTORE PUSH1 0x20 ADD PUSH0 KECCAK256 DUP2 SWAP1 SSTORE POP PUSH1 0x2 SLOAD PUSH1 0xA PUSH0 PUSH1 0x1 PUSH0 SWAP1 SLOAD SWAP1 PUSH2 0x100 EXP SWAP1 DIV PUSH20 0xFFFFFFFFFFFFFFFFFFFFFFFFFFFFFFFFFFFFFFFF AND PUSH20 0xFFFFFFFFFFFFFFFFFFFFFFFFFFFFFFFFFFFFFFFF AND PUSH20 0xFFFFFFFFFFFFFFFFFFFFFFFFFFFFFFFFFFFFFFFF AND DUP2 MSTORE PUSH1 0x20 ADD SWAP1 DUP2 MSTORE PUSH1 0x20 ADD PUSH0 KECCAK256 DUP2 SWAP1 SSTORE POP PUSH2 0x1DC8 JUMP JUMPDEST PUSH32 0x5200000000000000000000000000000000000000000000000000000000000000 PUSH31 0xFFFFFFFFFFFFFFFFFFFFFFFFFFFFFFFFFFFFFFFFFFFFFFFFFFFFFFFFFFFFFF NOT AND DUP3 PUSH0 DUP2 MLOAD DUP2 LT PUSH2 0x1987 JUMPI PUSH2 0x1986 PUSH2 0x24FB JUMP JUMPDEST JUMPDEST PUSH1 0x20 ADD ADD MLOAD PUSH1 0xF8 SHR PUSH1 0xF8 SHL PUSH31 0xFFFFFFFFFFFFFFFFFFFFFFFFFFFFFFFFFFFFFFFFFFFFFFFFFFFFFFFFFFFFFF NOT AND EQ DUP1 ISZERO PUSH2 0x1A41 JUMPI POP PUSH32 0x5300000000000000000000000000000000000000000000000000000000000000 PUSH31 0xFFFFFFFFFFFFFFFFFFFFFFFFFFFFFFFFFFFFFFFFFFFFFFFFFFFFFFFFFFFFFF NOT AND DUP2 PUSH0 DUP2 MLOAD DUP2 LT PUSH2 0x1A12 JUMPI PUSH2 0x1A11 PUSH2 0x24FB JUMP JUMPDEST JUMPDEST PUSH1 0x20 ADD ADD MLOAD PUSH1 0xF8 SHR PUSH1 0xF8 SHL PUSH31 0xFFFFFFFFFFFFFFFFFFFFFFFFFFFFFFFFFFFFFFFFFFFFFFFFFFFFFFFFFFFFFF NOT AND EQ JUMPDEST DUP1 PUSH2 0x1B58 JUMPI POP PUSH32 0x5000000000000000000000000000000000000000000000000000000000000000 PUSH31 0xFFFFFFFFFFFFFFFFFFFFFFFFFFFFFFFFFFFFFFFFFFFFFFFFFFFFFFFFFFFFFF NOT AND DUP3 PUSH0 DUP2 MLOAD DUP2 LT PUSH2 0x1A9D JUMPI PUSH2 0x1A9C PUSH2 0x24FB JUMP JUMPDEST JUMPDEST PUSH1 0x20 ADD ADD MLOAD PUSH1 0xF8 SHR PUSH1 0xF8 SHL PUSH31 0xFFFFFFFFFFFFFFFFFFFFFFFFFFFFFFFFFFFFFFFFFFFFFFFFFFFFFFFFFFFFFF NOT AND EQ DUP1 ISZERO PUSH2 0x1B57 JUMPI POP PUSH32 0x5200000000000000000000000000000000000000000000000000000000000000 PUSH31 0xFFFFFFFFFFFFFFFFFFFFFFFFFFFFFFFFFFFFFFFFFFFFFFFFFFFFFFFFFFFFFF NOT AND DUP2 PUSH0 DUP2 MLOAD DUP2 LT PUSH2 0x1B28 JUMPI PUSH2 0x1B27 PUSH2 0x24FB JUMP JUMPDEST JUMPDEST PUSH1 0x20 ADD ADD MLOAD PUSH1 0xF8 SHR PUSH1 0xF8 SHL PUSH31 0xFFFFFFFFFFFFFFFFFFFFFFFFFFFFFFFFFFFFFFFFFFFFFFFFFFFFFFFFFFFFFF NOT AND EQ JUMPDEST JUMPDEST DUP1 PUSH2 0x1C6F JUMPI POP PUSH32 0x5300000000000000000000000000000000000000000000000000000000000000 PUSH31 0xFFFFFFFFFFFFFFFFFFFFFFFFFFFFFFFFFFFFFFFFFFFFFFFFFFFFFFFFFFFFFF NOT AND DUP3 PUSH0 DUP2 MLOAD DUP2 LT PUSH2 0x1BB4 JUMPI PUSH2 0x1BB3 PUSH2 0x24FB JUMP JUMPDEST JUMPDEST PUSH1 0x20 ADD ADD MLOAD PUSH1 0xF8 SHR PUSH1 0xF8 SHL PUSH31 0xFFFFFFFFFFFFFFFFFFFFFFFFFFFFFFFFFFFFFFFFFFFFFFFFFFFFFFFFFFFFFF NOT AND EQ DUP1 ISZERO PUSH2 0x1C6E JUMPI POP PUSH32 0x5000000000000000000000000000000000000000000000000000000000000000 PUSH31 0xFFFFFFFFFFFFFFFFFFFFFFFFFFFFFFFFFFFFFFFFFFFFFFFFFFFFFFFFFFFFFF NOT AND DUP2 PUSH0 DUP2 MLOAD DUP2 LT PUSH2 0x1C3F JUMPI PUSH2 0x1C3E PUSH2 0x24FB JUMP JUMPDEST JUMPDEST PUSH1 0x20 ADD ADD MLOAD PUSH1 0xF8 SHR PUSH1 0xF8 SHL PUSH31 0xFFFFFFFFFFFFFFFFFFFFFFFFFFFFFFFFFFFFFFFFFFFFFFFFFFFFFFFFFFFFFF NOT AND EQ JUMPDEST JUMPDEST ISZERO PUSH2 0x1CD9 JUMPI PUSH0 DUP1 SLOAD SWAP1 PUSH2 0x100 EXP SWAP1 DIV PUSH20 0xFFFFFFFFFFFFFFFFFFFFFFFFFFFFFFFFFFFFFFFF AND PUSH1 0x9 PUSH1 0x1 PUSH2 0x100 EXP DUP2 SLOAD DUP2 PUSH20 0xFFFFFFFFFFFFFFFFFFFFFFFFFFFFFFFFFFFFFFFF MUL NOT AND SWAP1 DUP4 PUSH20 0xFFFFFFFFFFFFFFFFFFFFFFFFFFFFFFFFFFFFFFFF AND MUL OR SWAP1 SSTORE POP PUSH2 0x1D3C JUMP JUMPDEST PUSH1 0x1 PUSH0 SWAP1 SLOAD SWAP1 PUSH2 0x100 EXP SWAP1 DIV PUSH20 0xFFFFFFFFFFFFFFFFFFFFFFFFFFFFFFFFFFFFFFFF AND PUSH1 0x9 PUSH1 0x1 PUSH2 0x100 EXP DUP2 SLOAD DUP2 PUSH20 0xFFFFFFFFFFFFFFFFFFFFFFFFFFFFFFFFFFFFFFFF MUL NOT AND SWAP1 DUP4 PUSH20 0xFFFFFFFFFFFFFFFFFFFFFFFFFFFFFFFFFFFFFFFF AND MUL OR SWAP1 SSTORE POP JUMPDEST PUSH1 0x1 PUSH1 0x9 PUSH0 PUSH2 0x100 EXP DUP2 SLOAD DUP2 PUSH1 0xFF MUL NOT AND SWAP1 DUP4 ISZERO ISZERO MUL OR SWAP1 SSTORE POP PUSH1 0x2 DUP1 SLOAD PUSH2 0x1D64 SWAP2 SWAP1 PUSH2 0x2197 JUMP JUMPDEST PUSH1 0xA PUSH0 PUSH1 0x9 PUSH1 0x1 SWAP1 SLOAD SWAP1 PUSH2 0x100 EXP SWAP1 DIV PUSH20 0xFFFFFFFFFFFFFFFFFFFFFFFFFFFFFFFFFFFFFFFF AND PUSH20 0xFFFFFFFFFFFFFFFFFFFFFFFFFFFFFFFFFFFFFFFF AND PUSH20 0xFFFFFFFFFFFFFFFFFFFFFFFFFFFFFFFFFFFFFFFF AND DUP2 MSTORE PUSH1 0x20 ADD SWAP1 DUP2 MSTORE PUSH1 0x20 ADD PUSH0 KECCAK256 DUP2 SWAP1 SSTORE POP JUMPDEST POP POP JUMP JUMPDEST PUSH0 DUP2 SWAP1 POP SWAP2 SWAP1 POP JUMP JUMPDEST PUSH2 0x1DDE DUP2 PUSH2 0x1DCC JUMP JUMPDEST DUP3 MSTORE POP POP JUMP JUMPDEST PUSH0 PUSH1 0x20 DUP3 ADD SWAP1 POP PUSH2 0x1DF7 PUSH0 DUP4 ADD DUP5 PUSH2 0x1DD5 JUMP JUMPDEST SWAP3 SWAP2 POP POP JUMP JUMPDEST PUSH0 DUP2 MLOAD SWAP1 POP SWAP2 SWAP1 POP JUMP JUMPDEST PUSH0 DUP3 DUP3 MSTORE PUSH1 0x20 DUP3 ADD SWAP1 POP SWAP3 SWAP2 POP POP JUMP JUMPDEST DUP3 DUP2 DUP4 MCOPY PUSH0 DUP4 DUP4 ADD MSTORE POP POP POP JUMP JUMPDEST PUSH0 PUSH1 0x1F NOT PUSH1 0x1F DUP4 ADD AND SWAP1 POP SWAP2 SWAP1 POP JUMP JUMPDEST PUSH0 PUSH2 0x1E3F DUP3 PUSH2 0x1DFD JUMP JUMPDEST PUSH2 0x1E49 DUP2 DUP6 PUSH2 0x1E07 JUMP JUMPDEST SWAP4 POP PUSH2 0x1E59 DUP2 DUP6 PUSH1 0x20 DUP7 ADD PUSH2 0x1E17 JUMP JUMPDEST PUSH2 0x1E62 DUP2 PUSH2 0x1E25 JUMP JUMPDEST DUP5 ADD SWAP2 POP POP SWAP3 SWAP2 POP POP JUMP JUMPDEST PUSH0 PUSH1 0x20 DUP3 ADD SWAP1 POP DUP2 DUP2 SUB PUSH0 DUP4 ADD MSTORE PUSH2 0x1E85 DUP2 DUP5 PUSH2 0x1E35 JUMP JUMPDEST SWAP1 POP SWAP3 SWAP2 POP POP JUMP JUMPDEST PUSH0 DUP2 ISZERO ISZERO SWAP1 POP SWAP2 SWAP1 POP JUMP JUMPDEST PUSH2 0x1EA1 DUP2 PUSH2 0x1E8D JUMP JUMPDEST DUP3 MSTORE POP POP JUMP JUMPDEST PUSH0 PUSH1 0x20 DUP3 ADD SWAP1 POP PUSH2 0x1EBA PUSH0 DUP4 ADD DUP5 PUSH2 0x1E98 JUMP JUMPDEST SWAP3 SWAP2 POP POP JUMP JUMPDEST PUSH0 PUSH20 0xFFFFFFFFFFFFFFFFFFFFFFFFFFFFFFFFFFFFFFFF DUP3 AND SWAP1 POP SWAP2 SWAP1 POP JUMP JUMPDEST PUSH0 PUSH2 0x1EE9 DUP3 PUSH2 0x1EC0 JUMP JUMPDEST SWAP1 POP SWAP2 SWAP1 POP JUMP JUMPDEST PUSH2 0x1EF9 DUP2 PUSH2 0x1EDF JUMP JUMPDEST DUP3 MSTORE POP POP JUMP JUMPDEST PUSH0 PUSH1 0x20 DUP3 ADD SWAP1 POP PUSH2 0x1F12 PUSH0 DUP4 ADD DUP5 PUSH2 0x1EF0 JUMP JUMPDEST SWAP3 SWAP2 POP POP JUMP JUMPDEST PUSH0 DUP1 REVERT JUMPDEST PUSH0 DUP1 REVERT JUMPDEST PUSH0 DUP1 REVERT JUMPDEST PUSH0 DUP1 REVERT JUMPDEST PUSH0 DUP1 REVERT JUMPDEST PUSH0 DUP1 DUP4 PUSH1 0x1F DUP5 ADD SLT PUSH2 0x1F41 JUMPI PUSH2 0x1F40 PUSH2 0x1F20 JUMP JUMPDEST JUMPDEST DUP3 CALLDATALOAD SWAP1 POP PUSH8 0xFFFFFFFFFFFFFFFF DUP2 GT ISZERO PUSH2 0x1F5E JUMPI PUSH2 0x1F5D PUSH2 0x1F24 JUMP JUMPDEST JUMPDEST PUSH1 0x20 DUP4 ADD SWAP2 POP DUP4 PUSH1 0x1 DUP3 MUL DUP4 ADD GT ISZERO PUSH2 0x1F7A JUMPI PUSH2 0x1F79 PUSH2 0x1F28 JUMP JUMPDEST JUMPDEST SWAP3 POP SWAP3 SWAP1 POP JUMP JUMPDEST PUSH0 DUP1 PUSH0 DUP1 PUSH1 0x40 DUP6 DUP8 SUB SLT ISZERO PUSH2 0x1F99 JUMPI PUSH2 0x1F98 PUSH2 0x1F18 JUMP JUMPDEST JUMPDEST PUSH0 DUP6 ADD CALLDATALOAD PUSH8 0xFFFFFFFFFFFFFFFF DUP2 GT ISZERO PUSH2 0x1FB6 JUMPI PUSH2 0x1FB5 PUSH2 0x1F1C JUMP JUMPDEST JUMPDEST PUSH2 0x1FC2 DUP8 DUP3 DUP9 ADD PUSH2 0x1F2C JUMP JUMPDEST SWAP5 POP SWAP5 POP POP PUSH1 0x20 DUP6 ADD CALLDATALOAD PUSH8 0xFFFFFFFFFFFFFFFF DUP2 GT ISZERO PUSH2 0x1FE5 JUMPI PUSH2 0x1FE4 PUSH2 0x1F1C JUMP JUMPDEST JUMPDEST PUSH2 0x1FF1 DUP8 DUP3 DUP9 ADD PUSH2 0x1F2C JUMP JUMPDEST SWAP3 POP SWAP3 POP POP SWAP3 SWAP6 SWAP2 SWAP5 POP SWAP3 POP JUMP JUMPDEST PUSH0 DUP2 SWAP1 POP SWAP2 SWAP1 POP JUMP JUMPDEST PUSH2 0x2011 DUP2 PUSH2 0x1FFF JUMP JUMPDEST DUP3 MSTORE POP POP JUMP JUMPDEST PUSH0 PUSH1 0x20 DUP3 ADD SWAP1 POP PUSH2 0x202A PUSH0 DUP4 ADD DUP5 PUSH2 0x2008 JUMP JUMPDEST SWAP3 SWAP2 POP POP JUMP JUMPDEST PUSH2 0x2039 DUP2 PUSH2 0x1FFF JUMP JUMPDEST DUP2 EQ PUSH2 0x2043 JUMPI PUSH0 DUP1 REVERT JUMPDEST POP JUMP JUMPDEST PUSH0 DUP2 CALLDATALOAD SWAP1 POP PUSH2 0x2054 DUP2 PUSH2 0x2030 JUMP JUMPDEST SWAP3 SWAP2 POP POP JUMP JUMPDEST PUSH0 PUSH1 0x20 DUP3 DUP5 SUB SLT ISZERO PUSH2 0x206F JUMPI PUSH2 0x206E PUSH2 0x1F18 JUMP JUMPDEST JUMPDEST PUSH0 PUSH2 0x207C DUP5 DUP3 DUP6 ADD PUSH2 0x2046 JUMP JUMPDEST SWAP2 POP POP SWAP3 SWAP2 POP POP JUMP JUMPDEST PUSH2 0x208E DUP2 PUSH2 0x1EDF JUMP JUMPDEST DUP2 EQ PUSH2 0x2098 JUMPI PUSH0 DUP1 REVERT JUMPDEST POP JUMP JUMPDEST PUSH0 DUP2 CALLDATALOAD SWAP1 POP PUSH2 0x20A9 DUP2 PUSH2 0x2085 JUMP JUMPDEST SWAP3 SWAP2 POP POP JUMP JUMPDEST PUSH0 PUSH1 0x20 DUP3 DUP5 SUB SLT ISZERO PUSH2 0x20C4 JUMPI PUSH2 0x20C3 PUSH2 0x1F18 JUMP JUMPDEST JUMPDEST PUSH0 PUSH2 0x20D1 DUP5 DUP3 DUP6 ADD PUSH2 0x209B JUMP JUMPDEST SWAP2 POP POP SWAP3 SWAP2 POP POP JUMP JUMPDEST PUSH32 0x4E487B7100000000000000000000000000000000000000000000000000000000 PUSH0 MSTORE PUSH1 0x22 PUSH1 0x4 MSTORE PUSH1 0x24 PUSH0 REVERT JUMPDEST PUSH0 PUSH1 0x2 DUP3 DIV SWAP1 POP PUSH1 0x1 DUP3 AND DUP1 PUSH2 0x211E JUMPI PUSH1 0x7F DUP3 AND SWAP2 POP JUMPDEST PUSH1 0x20 DUP3 LT DUP2 SUB PUSH2 0x2131 JUMPI PUSH2 0x2130 PUSH2 0x20DA JUMP JUMPDEST JUMPDEST POP SWAP2 SWAP1 POP JUMP JUMPDEST PUSH32 0x4E487B7100000000000000000000000000000000000000000000000000000000 PUSH0 MSTORE PUSH1 0x11 PUSH1 0x4 MSTORE PUSH1 0x24 PUSH0 REVERT JUMPDEST PUSH0 PUSH2 0x216E DUP3 PUSH2 0x1DCC JUMP JUMPDEST SWAP2 POP PUSH2 0x2179 DUP4 PUSH2 0x1DCC JUMP JUMPDEST SWAP3 POP DUP3 DUP3 ADD SWAP1 POP DUP1 DUP3 GT ISZERO PUSH2 0x2191 JUMPI PUSH2 0x2190 PUSH2 0x2137 JUMP JUMPDEST JUMPDEST SWAP3 SWAP2 POP POP JUMP JUMPDEST PUSH0 PUSH2 0x21A1 DUP3 PUSH2 0x1DCC JUMP JUMPDEST SWAP2 POP PUSH2 0x21AC DUP4 PUSH2 0x1DCC JUMP JUMPDEST SWAP3 POP DUP3 DUP3 MUL PUSH2 0x21BA DUP2 PUSH2 0x1DCC JUMP JUMPDEST SWAP2 POP DUP3 DUP3 DIV DUP5 EQ DUP4 ISZERO OR PUSH2 0x21D1 JUMPI PUSH2 0x21D0 PUSH2 0x2137 JUMP JUMPDEST JUMPDEST POP SWAP3 SWAP2 POP POP JUMP JUMPDEST PUSH32 0x4E6F2072657665616C206D61646520627920616E7920706C617965723B206361 PUSH0 DUP3 ADD MSTORE PUSH32 0x6E6E6F7420776974686472617700000000000000000000000000000000000000 PUSH1 0x20 DUP3 ADD MSTORE POP JUMP JUMPDEST PUSH0 PUSH2 0x2232 PUSH1 0x2D DUP4 PUSH2 0x1E07 JUMP JUMPDEST SWAP2 POP PUSH2 0x223D DUP3 PUSH2 0x21D8 JUMP JUMPDEST PUSH1 0x40 DUP3 ADD SWAP1 POP SWAP2 SWAP1 POP JUMP JUMPDEST PUSH0 PUSH1 0x20 DUP3 ADD SWAP1 POP DUP2 DUP2 SUB PUSH0 DUP4 ADD MSTORE PUSH2 0x225F DUP2 PUSH2 0x2226 JUMP JUMPDEST SWAP1 POP SWAP2 SWAP1 POP JUMP JUMPDEST PUSH32 0x47616D65206E6F7420636F6D706C6574656420616E642072657665616C207469 PUSH0 DUP3 ADD MSTORE PUSH32 0x6D656F7574206E6F742072656163686564000000000000000000000000000000 PUSH1 0x20 DUP3 ADD MSTORE POP JUMP JUMPDEST PUSH0 PUSH2 0x22C0 PUSH1 0x31 DUP4 PUSH2 0x1E07 JUMP JUMPDEST SWAP2 POP PUSH2 0x22CB DUP3 PUSH2 0x2266 JUMP JUMPDEST PUSH1 0x40 DUP3 ADD SWAP1 POP SWAP2 SWAP1 POP JUMP JUMPDEST PUSH0 PUSH1 0x20 DUP3 ADD SWAP1 POP DUP2 DUP2 SUB PUSH0 DUP4 ADD MSTORE PUSH2 0x22ED DUP2 PUSH2 0x22B4 JUMP JUMPDEST SWAP1 POP SWAP2 SWAP1 POP JUMP JUMPDEST PUSH32 0x4E6F2066756E647320617661696C61626C6520666F7220776974686472617761 PUSH0 DUP3 ADD MSTORE PUSH32 0x6C00000000000000000000000000000000000000000000000000000000000000 PUSH1 0x20 DUP3 ADD MSTORE POP JUMP JUMPDEST PUSH0 PUSH2 0x234E PUSH1 0x21 DUP4 PUSH2 0x1E07 JUMP JUMPDEST SWAP2 POP PUSH2 0x2359 DUP3 PUSH2 0x22F4 JUMP JUMPDEST PUSH1 0x40 DUP3 ADD SWAP1 POP SWAP2 SWAP1 POP JUMP JUMPDEST PUSH0 PUSH1 0x20 DUP3 ADD SWAP1 POP DUP2 DUP2 SUB PUSH0 DUP4 ADD MSTORE PUSH2 0x237B DUP2 PUSH2 0x2342 JUMP JUMPDEST SWAP1 POP SWAP2 SWAP1 POP JUMP JUMPDEST PUSH0 DUP2 SWAP1 POP SWAP3 SWAP2 POP POP JUMP JUMPDEST POP JUMP JUMPDEST PUSH0 PUSH2 0x239A PUSH0 DUP4 PUSH2 0x2382 JUMP JUMPDEST SWAP2 POP PUSH2 0x23A5 DUP3 PUSH2 0x238C JUMP JUMPDEST PUSH0 DUP3 ADD SWAP1 POP SWAP2 SWAP1 POP JUMP JUMPDEST PUSH0 PUSH2 0x23B9 DUP3 PUSH2 0x238F JUMP JUMPDEST SWAP2 POP DUP2 SWAP1 POP SWAP2 SWAP1 POP JUMP JUMPDEST PUSH32 0x5769746864726177616C207472616E73666572206661696C6564000000000000 PUSH0 DUP3 ADD MSTORE POP JUMP JUMPDEST PUSH0 PUSH2 0x23F7 PUSH1 0x1A DUP4 PUSH2 0x1E07 JUMP JUMPDEST SWAP2 POP PUSH2 0x2402 DUP3 PUSH2 0x23C3 JUMP JUMPDEST PUSH1 0x20 DUP3 ADD SWAP1 POP SWAP2 SWAP1 POP JUMP JUMPDEST PUSH0 PUSH1 0x20 DUP3 ADD SWAP1 POP DUP2 DUP2 SUB PUSH0 DUP4 ADD MSTORE PUSH2 0x2424 DUP2 PUSH2 0x23EB JUMP JUMPDEST SWAP1 POP SWAP2 SWAP1 POP JUMP JUMPDEST PUSH32 0x4E6F742061207061727469636970616E74000000000000000000000000000000 PUSH0 DUP3 ADD MSTORE POP JUMP JUMPDEST PUSH0 PUSH2 0x245F PUSH1 0x11 DUP4 PUSH2 0x1E07 JUMP JUMPDEST SWAP2 POP PUSH2 0x246A DUP3 PUSH2 0x242B JUMP JUMPDEST PUSH1 0x20 DUP3 ADD SWAP1 POP SWAP2 SWAP1 POP JUMP JUMPDEST PUSH0 PUSH1 0x20 DUP3 ADD SWAP1 POP DUP2 DUP2 SUB PUSH0 DUP4 ADD MSTORE PUSH2 0x248C DUP2 PUSH2 0x2453 JUMP JUMPDEST SWAP1 POP SWAP2 SWAP1 POP JUMP JUMPDEST PUSH32 0x4D6F7665206D75737420626520612073696E676C652063686172616374657200 PUSH0 DUP3 ADD MSTORE POP JUMP JUMPDEST PUSH0 PUSH2 0x24C7 PUSH1 0x1F DUP4 PUSH2 0x1E07 JUMP JUMPDEST SWAP2 POP PUSH2 0x24D2 DUP3 PUSH2 0x2493 JUMP JUMPDEST PUSH1 0x20 DUP3 ADD SWAP1 POP SWAP2 SWAP1 POP JUMP JUMPDEST PUSH0 PUSH1 0x20 DUP3 ADD SWAP1 POP DUP2 DUP2 SUB PUSH0 DUP4 ADD MSTORE PUSH2 0x24F4 DUP2 PUSH2 0x24BB JUMP JUMPDEST SWAP1 POP SWAP2 SWAP1 POP JUMP JUMPDEST PUSH32 0x4E487B7100000000000000000000000000000000000000000000000000000000 PUSH0 MSTORE PUSH1 0x32 PUSH1 0x4 MSTORE PUSH1 0x24 PUSH0 REVERT JUMPDEST PUSH32 0x496E76616C6964206D6F76652E20557365202752272C202750272C206F722027 PUSH0 DUP3 ADD MSTORE PUSH32 0x5327000000000000000000000000000000000000000000000000000000000000 PUSH1 0x20 DUP3 ADD MSTORE POP JUMP JUMPDEST PUSH0 PUSH2 0x2582 PUSH1 0x22 DUP4 PUSH2 0x1E07 JUMP JUMPDEST SWAP2 POP PUSH2 0x258D DUP3 PUSH2 0x2528 JUMP JUMPDEST PUSH1 0x40 DUP3 ADD SWAP1 POP SWAP2 SWAP1 POP JUMP JUMPDEST PUSH0 PUSH1 0x20 DUP3 ADD SWAP1 POP DUP2 DUP2 SUB PUSH0 DUP4 ADD MSTORE PUSH2 0x25AF DUP2 PUSH2 0x2576 JUMP JUMPDEST SWAP1 POP SWAP2 SWAP1 POP JUMP JUMPDEST PUSH0 DUP2 SWAP1 POP SWAP3 SWAP2 POP POP JUMP JUMPDEST DUP3 DUP2 DUP4 CALLDATACOPY PUSH0 DUP4 DUP4 ADD MSTORE POP POP POP JUMP JUMPDEST PUSH0 PUSH2 0x25D9 DUP4 DUP6 PUSH2 0x25B6 JUMP JUMPDEST SWAP4 POP PUSH2 0x25E6 DUP4 DUP6 DUP5 PUSH2 0x25C0 JUMP JUMPDEST DUP3 DUP5 ADD SWAP1 POP SWAP4 SWAP3 POP POP POP JUMP JUMPDEST PUSH0 PUSH2 0x25FE DUP3 DUP7 DUP9 PUSH2 0x25CE JUMP JUMPDEST SWAP2 POP PUSH2 0x260B DUP3 DUP5 DUP7 PUSH2 0x25CE JUMP JUMPDEST SWAP2 POP DUP2 SWAP1 POP SWAP6 SWAP5 POP POP POP POP POP JUMP JUMPDEST PUSH32 0x506C617965723120616C72656164792072657665616C65640000000000000000 PUSH0 DUP3 ADD MSTORE POP JUMP JUMPDEST PUSH0 PUSH2 0x264D PUSH1 0x18 DUP4 PUSH2 0x1E07 JUMP JUMPDEST SWAP2 POP PUSH2 0x2658 DUP3 PUSH2 0x2619 JUMP JUMPDEST PUSH1 0x20 DUP3 ADD SWAP1 POP SWAP2 SWAP1 POP JUMP JUMPDEST PUSH0 PUSH1 0x20 DUP3 ADD SWAP1 POP DUP2 DUP2 SUB PUSH0 DUP4 ADD MSTORE PUSH2 0x267A DUP2 PUSH2 0x2641 JUMP JUMPDEST SWAP1 POP SWAP2 SWAP1 POP JUMP JUMPDEST PUSH32 0x496E76616C69642072657665616C20666F7220706C6179657231000000000000 PUSH0 DUP3 ADD MSTORE POP JUMP JUMPDEST PUSH0 PUSH2 0x26B5 PUSH1 0x1A DUP4 PUSH2 0x1E07 JUMP JUMPDEST SWAP2 POP PUSH2 0x26C0 DUP3 PUSH2 0x2681 JUMP JUMPDEST PUSH1 0x20 DUP3 ADD SWAP1 POP SWAP2 SWAP1 POP JUMP JUMPDEST PUSH0 PUSH1 0x20 DUP3 ADD SWAP1 POP DUP2 DUP2 SUB PUSH0 DUP4 ADD MSTORE PUSH2 0x26E2 DUP2 PUSH2 0x26A9 JUMP JUMPDEST SWAP1 POP SWAP2 SWAP1 POP JUMP JUMPDEST PUSH0 DUP3 SWAP1 POP SWAP3 SWAP2 POP POP JUMP JUMPDEST PUSH32 0x4E487B7100000000000000000000000000000000000000000000000000000000 PUSH0 MSTORE PUSH1 0x41 PUSH1 0x4 MSTORE PUSH1 0x24 PUSH0 REVERT JUMPDEST PUSH0 DUP2 SWAP1 POP DUP2 PUSH0 MSTORE PUSH1 0x20 PUSH0 KECCAK256 SWAP1 POP SWAP2 SWAP1 POP JUMP JUMPDEST PUSH0 PUSH1 0x20 PUSH1 0x1F DUP4 ADD DIV SWAP1 POP SWAP2 SWAP1 POP JUMP JUMPDEST PUSH0 DUP3 DUP3 SHL SWAP1 POP SWAP3 SWAP2 POP POP JUMP JUMPDEST PUSH0 PUSH1 0x8 DUP4 MUL PUSH2 0x277C PUSH32 0xFFFFFFFFFFFFFFFFFFFFFFFFFFFFFFFFFFFFFFFFFFFFFFFFFFFFFFFFFFFFFFFF DUP3 PUSH2 0x2741 JUMP JUMPDEST PUSH2 0x2786 DUP7 DUP4 PUSH2 0x2741 JUMP JUMPDEST SWAP6 POP DUP1 NOT DUP5 AND SWAP4 POP DUP1 DUP7 AND DUP5 OR SWAP3 POP POP POP SWAP4 SWAP3 POP POP POP JUMP JUMPDEST PUSH0 DUP2 SWAP1 POP SWAP2 SWAP1 POP JUMP JUMPDEST PUSH0 PUSH2 0x27C1 PUSH2 0x27BC PUSH2 0x27B7 DUP5 PUSH2 0x1DCC JUMP JUMPDEST PUSH2 0x279E JUMP JUMPDEST PUSH2 0x1DCC JUMP JUMPDEST SWAP1 POP SWAP2 SWAP1 POP JUMP JUMPDEST PUSH0 DUP2 SWAP1 POP SWAP2 SWAP1 POP JUMP JUMPDEST PUSH2 0x27DA DUP4 PUSH2 0x27A7 JUMP JUMPDEST PUSH2 0x27EE PUSH2 0x27E6 DUP3 PUSH2 0x27C8 JUMP JUMPDEST DUP5 DUP5 SLOAD PUSH2 0x274D JUMP JUMPDEST DUP3 SSTORE POP POP POP POP JUMP JUMPDEST PUSH0 SWAP1 JUMP JUMPDEST PUSH2 0x2802 PUSH2 0x27F6 JUMP JUMPDEST PUSH2 0x280D DUP2 DUP5 DUP5 PUSH2 0x27D1 JUMP JUMPDEST POP POP POP JUMP JUMPDEST JUMPDEST DUP2 DUP2 LT ISZERO PUSH2 0x2830 JUMPI PUSH2 0x2825 PUSH0 DUP3 PUSH2 0x27FA JUMP JUMPDEST PUSH1 0x1 DUP2 ADD SWAP1 POP PUSH2 0x2813 JUMP JUMPDEST POP POP JUMP JUMPDEST PUSH1 0x1F DUP3 GT ISZERO PUSH2 0x2875 JUMPI PUSH2 0x2846 DUP2 PUSH2 0x2720 JUMP JUMPDEST PUSH2 0x284F DUP5 PUSH2 0x2732 JUMP JUMPDEST DUP2 ADD PUSH1 0x20 DUP6 LT ISZERO PUSH2 0x285E JUMPI DUP2 SWAP1 POP JUMPDEST PUSH2 0x2872 PUSH2 0x286A DUP6 PUSH2 0x2732 JUMP JUMPDEST DUP4 ADD DUP3 PUSH2 0x2812 JUMP JUMPDEST POP POP JUMPDEST POP POP POP JUMP JUMPDEST PUSH0 DUP3 DUP3 SHR SWAP1 POP SWAP3 SWAP2 POP POP JUMP JUMPDEST PUSH0 PUSH2 0x2895 PUSH0 NOT DUP5 PUSH1 0x8 MUL PUSH2 0x287A JUMP JUMPDEST NOT DUP1 DUP4 AND SWAP2 POP POP SWAP3 SWAP2 POP POP JUMP JUMPDEST PUSH0 PUSH2 0x28AD DUP4 DUP4 PUSH2 0x2886 JUMP JUMPDEST SWAP2 POP DUP3 PUSH1 0x2 MUL DUP3 OR SWAP1 POP SWAP3 SWAP2 POP POP JUMP JUMPDEST PUSH2 0x28C7 DUP4 DUP4 PUSH2 0x26E9 JUMP JUMPDEST PUSH8 0xFFFFFFFFFFFFFFFF DUP2 GT ISZERO PUSH2 0x28E0 JUMPI PUSH2 0x28DF PUSH2 0x26F3 JUMP JUMPDEST JUMPDEST PUSH2 0x28EA DUP3 SLOAD PUSH2 0x2107 JUMP JUMPDEST PUSH2 0x28F5 DUP3 DUP3 DUP6 PUSH2 0x2834 JUMP JUMPDEST PUSH0 PUSH1 0x1F DUP4 GT PUSH1 0x1 DUP2 EQ PUSH2 0x2922 JUMPI PUSH0 DUP5 ISZERO PUSH2 0x2910 JUMPI DUP3 DUP8 ADD CALLDATALOAD SWAP1 POP JUMPDEST PUSH2 0x291A DUP6 DUP3 PUSH2 0x28A2 JUMP JUMPDEST DUP7 SSTORE POP PUSH2 0x2981 JUMP JUMPDEST PUSH1 0x1F NOT DUP5 AND PUSH2 0x2930 DUP7 PUSH2 0x2720 JUMP JUMPDEST PUSH0 JUMPDEST DUP3 DUP2 LT ISZERO PUSH2 0x2957 JUMPI DUP5 DUP10 ADD CALLDATALOAD DUP3 SSTORE PUSH1 0x1 DUP3 ADD SWAP2 POP PUSH1 0x20 DUP6 ADD SWAP5 POP PUSH1 0x20 DUP2 ADD SWAP1 POP PUSH2 0x2932 JUMP JUMPDEST DUP7 DUP4 LT ISZERO PUSH2 0x2974 JUMPI DUP5 DUP10 ADD CALLDATALOAD PUSH2 0x2970 PUSH1 0x1F DUP10 AND DUP3 PUSH2 0x2886 JUMP JUMPDEST DUP4 SSTORE POP JUMPDEST PUSH1 0x1 PUSH1 0x2 DUP9 MUL ADD DUP9 SSTORE POP POP POP JUMPDEST POP POP POP POP POP POP POP JUMP JUMPDEST PUSH0 PUSH2 0x2995 DUP4 DUP6 PUSH2 0x1E07 JUMP JUMPDEST SWAP4 POP PUSH2 0x29A2 DUP4 DUP6 DUP5 PUSH2 0x25C0 JUMP JUMPDEST PUSH2 0x29AB DUP4 PUSH2 0x1E25 JUMP JUMPDEST DUP5 ADD SWAP1 POP SWAP4 SWAP3 POP POP POP JUMP JUMPDEST PUSH0 PUSH1 0x20 DUP3 ADD SWAP1 POP DUP2 DUP2 SUB PUSH0 DUP4 ADD MSTORE PUSH2 0x29CF DUP2 DUP5 DUP7 PUSH2 0x298A JUMP JUMPDEST SWAP1 POP SWAP4 SWAP3 POP POP POP JUMP JUMPDEST PUSH32 0x506C617965723220616C72656164792072657665616C65640000000000000000 PUSH0 DUP3 ADD MSTORE POP JUMP JUMPDEST PUSH0 PUSH2 0x2A0C PUSH1 0x18 DUP4 PUSH2 0x1E07 JUMP JUMPDEST SWAP2 POP PUSH2 0x2A17 DUP3 PUSH2 0x29D8 JUMP JUMPDEST PUSH1 0x20 DUP3 ADD SWAP1 POP SWAP2 SWAP1 POP JUMP JUMPDEST PUSH0 PUSH1 0x20 DUP3 ADD SWAP1 POP DUP2 DUP2 SUB PUSH0 DUP4 ADD MSTORE PUSH2 0x2A39 DUP2 PUSH2 0x2A00 JUMP JUMPDEST SWAP1 POP SWAP2 SWAP1 POP JUMP JUMPDEST PUSH32 0x496E76616C69642072657665616C20666F7220706C6179657232000000000000 PUSH0 DUP3 ADD MSTORE POP JUMP JUMPDEST PUSH0 PUSH2 0x2A74 PUSH1 0x1A DUP4 PUSH2 0x1E07 JUMP JUMPDEST SWAP2 POP PUSH2 0x2A7F DUP3 PUSH2 0x2A40 JUMP JUMPDEST PUSH1 0x20 DUP3 ADD SWAP1 POP SWAP2 SWAP1 POP JUMP JUMPDEST PUSH0 PUSH1 0x20 DUP3 ADD SWAP1 POP DUP2 DUP2 SUB PUSH0 DUP4 ADD MSTORE PUSH2 0x2AA1 DUP2 PUSH2 0x2A68 JUMP JUMPDEST SWAP1 POP SWAP2 SWAP1 POP JUMP JUMPDEST PUSH32 0x5374616B65206D757374206265206E6F6E2D7A65726F00000000000000000000 PUSH0 DUP3 ADD MSTORE POP JUMP JUMPDEST PUSH0 PUSH2 0x2ADC PUSH1 0x16 DUP4 PUSH2 0x1E07 JUMP JUMPDEST SWAP2 POP PUSH2 0x2AE7 DUP3 PUSH2 0x2AA8 JUMP JUMPDEST PUSH1 0x20 DUP3 ADD SWAP1 POP SWAP2 SWAP1 POP JUMP JUMPDEST PUSH0 PUSH1 0x20 DUP3 ADD SWAP1 POP DUP2 DUP2 SUB PUSH0 DUP4 ADD MSTORE PUSH2 0x2B09 DUP2 PUSH2 0x2AD0 JUMP JUMPDEST SWAP1 POP SWAP2 SWAP1 POP JUMP JUMPDEST PUSH32 0x47616D6520616C7265616479206861732074776F20706C617965727300000000 PUSH0 DUP3 ADD MSTORE POP JUMP JUMPDEST PUSH0 PUSH2 0x2B44 PUSH1 0x1C DUP4 PUSH2 0x1E07 JUMP JUMPDEST SWAP2 POP PUSH2 0x2B4F DUP3 PUSH2 0x2B10 JUMP JUMPDEST PUSH1 0x20 DUP3 ADD SWAP1 POP SWAP2 SWAP1 POP JUMP JUMPDEST PUSH0 PUSH1 0x20 DUP3 ADD SWAP1 POP DUP2 DUP2 SUB PUSH0 DUP4 ADD MSTORE PUSH2 0x2B71 DUP2 PUSH2 0x2B38 JUMP JUMPDEST SWAP1 POP SWAP2 SWAP1 POP JUMP JUMPDEST PUSH32 0x43616E6E6F7420706C617920616761696E737420796F757273656C6600000000 PUSH0 DUP3 ADD MSTORE POP JUMP JUMPDEST PUSH0 PUSH2 0x2BAC PUSH1 0x1C DUP4 PUSH2 0x1E07 JUMP JUMPDEST SWAP2 POP PUSH2 0x2BB7 DUP3 PUSH2 0x2B78 JUMP JUMPDEST PUSH1 0x20 DUP3 ADD SWAP1 POP SWAP2 SWAP1 POP JUMP JUMPDEST PUSH0 PUSH1 0x20 DUP3 ADD SWAP1 POP DUP2 DUP2 SUB PUSH0 DUP4 ADD MSTORE PUSH2 0x2BD9 DUP2 PUSH2 0x2BA0 JUMP JUMPDEST SWAP1 POP SWAP2 SWAP1 POP JUMP JUMPDEST PUSH32 0x5374616B65206D757374206D6174636820706C61796572312773207374616B65 PUSH0 DUP3 ADD MSTORE POP JUMP JUMPDEST PUSH0 PUSH2 0x2C14 PUSH1 0x20 DUP4 PUSH2 0x1E07 JUMP JUMPDEST SWAP2 POP PUSH2 0x2C1F DUP3 PUSH2 0x2BE0 JUMP JUMPDEST PUSH1 0x20 DUP3 ADD SWAP1 POP SWAP2 SWAP1 POP JUMP JUMPDEST PUSH0 PUSH1 0x20 DUP3 ADD SWAP1 POP DUP2 DUP2 SUB PUSH0 DUP4 ADD MSTORE PUSH2 0x2C41 DUP2 PUSH2 0x2C08 JUMP JUMPDEST SWAP1 POP SWAP2 SWAP1 POP JUMP JUMPDEST PUSH2 0x2C51 DUP3 PUSH2 0x1DFD JUMP JUMPDEST PUSH8 0xFFFFFFFFFFFFFFFF DUP2 GT ISZERO PUSH2 0x2C6A JUMPI PUSH2 0x2C69 PUSH2 0x26F3 JUMP JUMPDEST JUMPDEST PUSH2 0x2C74 DUP3 SLOAD PUSH2 0x2107 JUMP JUMPDEST PUSH2 0x2C7F DUP3 DUP3 DUP6 PUSH2 0x2834 JUMP JUMPDEST PUSH0 PUSH1 0x20 SWAP1 POP PUSH1 0x1F DUP4 GT PUSH1 0x1 DUP2 EQ PUSH2 0x2CB0 JUMPI PUSH0 DUP5 ISZERO PUSH2 0x2C9E JUMPI DUP3 DUP8 ADD MLOAD SWAP1 POP JUMPDEST PUSH2 0x2CA8 DUP6 DUP3 PUSH2 0x28A2 JUMP JUMPDEST DUP7 SSTORE POP PUSH2 0x2D0F JUMP JUMPDEST PUSH1 0x1F NOT DUP5 AND PUSH2 0x2CBE DUP7 PUSH2 0x2720 JUMP JUMPDEST PUSH0 JUMPDEST DUP3 DUP2 LT ISZERO PUSH2 0x2CE5 JUMPI DUP5 DUP10 ADD MLOAD DUP3 SSTORE PUSH1 0x1 DUP3 ADD SWAP2 POP PUSH1 0x20 DUP6 ADD SWAP5 POP PUSH1 0x20 DUP2 ADD SWAP1 POP PUSH2 0x2CC0 JUMP JUMPDEST DUP7 DUP4 LT ISZERO PUSH2 0x2D02 JUMPI DUP5 DUP10 ADD MLOAD PUSH2 0x2CFE PUSH1 0x1F DUP10 AND DUP3 PUSH2 0x2886 JUMP JUMPDEST DUP4 SSTORE POP JUMPDEST PUSH1 0x1 PUSH1 0x2 DUP9 MUL ADD DUP9 SSTORE POP POP POP JUMPDEST POP POP POP POP POP POP JUMP INVALID LOG2 PUSH5 0x6970667358 0x22 SLT KECCAK256 0xCD 0xC SDIV RETURNDATACOPY 0x22 0xE0 PUSH28 0xBFDCF5A95157D414A4EDDA4EC245E13B70B91897AF07BF49FF64736F PUSH13 0x634300081A0033000000000000 "
				},
				"gasEstimates": {
					"creation": {
						"codeDepositCost": "2319400",
						"executionCost": "2484",
						"totalCost": "2321884"
					},
					"external": {
						"bet()": "2471",
						"commit1()": "2448",
						"commit2()": "2535",
						"gameCompleted()": "2533",
						"gameStartTime()": "2449",
						"move1()": "infinite",
						"move2()": "infinite",
						"pendingWithdrawals(address)": "2890",
						"play(bytes32)": "infinite",
						"player1()": "2527",
						"player2()": "2597",
						"reveal(string,string)": "infinite",
						"revealTimeout()": "370",
						"revealed1()": "2556",
						"revealed2()": "2562",
						"tie()": "2561",
						"winner()": "2625",
						"withdraw()": "infinite"
					},
					"internal": {
						"_determineWinner()": "infinite",
						"_resetGame()": "infinite"
					}
				},
				"methodIdentifiers": {
					"bet()": "11610c25",
					"commit1()": "9f663fb8",
					"commit2()": "feac8570",
					"gameCompleted()": "4d699f00",
					"gameStartTime()": "0252b995",
					"move1()": "33d85d44",
					"move2()": "c78eb546",
					"pendingWithdrawals(address)": "f3f43703",
					"play(bytes32)": "c7a1865b",
					"player1()": "d30895e4",
					"player2()": "59a5f12d",
					"reveal(string,string)": "5ba1b2c7",
					"revealTimeout()": "4376cb34",
					"revealed1()": "378b69eb",
					"revealed2()": "a45801a2",
					"tie()": "d6f5c939",
					"winner()": "dfbf53ae",
					"withdraw()": "3ccfd60b"
				}
			},
			"storageLayout": {
				"storage": [
					{
						"astId": 24,
						"contract": "prog2005-2025/lab01/task2/RockPapirScissors.sol:RockPaperScissors",
						"label": "player1",
						"offset": 0,
						"slot": "0",
						"type": "t_address"
					},
					{
						"astId": 26,
						"contract": "prog2005-2025/lab01/task2/RockPapirScissors.sol:RockPaperScissors",
						"label": "player2",
						"offset": 0,
						"slot": "1",
						"type": "t_address"
					},
					{
						"astId": 28,
						"contract": "prog2005-2025/lab01/task2/RockPapirScissors.sol:RockPaperScissors",
						"label": "bet",
						"offset": 0,
						"slot": "2",
						"type": "t_uint256"
					},
					{
						"astId": 30,
						"contract": "prog2005-2025/lab01/task2/RockPapirScissors.sol:RockPaperScissors",
						"label": "commit1",
						"offset": 0,
						"slot": "3",
						"type": "t_bytes32"
					},
					{
						"astId": 32,
						"contract": "prog2005-2025/lab01/task2/RockPapirScissors.sol:RockPaperScissors",
						"label": "commit2",
						"offset": 0,
						"slot": "4",
						"type": "t_bytes32"
					},
					{
						"astId": 34,
						"contract": "prog2005-2025/lab01/task2/RockPapirScissors.sol:RockPaperScissors",
						"label": "revealed1",
						"offset": 0,
						"slot": "5",
						"type": "t_bool"
					},
					{
						"astId": 36,
						"contract": "prog2005-2025/lab01/task2/RockPapirScissors.sol:RockPaperScissors",
						"label": "revealed2",
						"offset": 1,
						"slot": "5",
						"type": "t_bool"
					},
					{
						"astId": 38,
						"contract": "prog2005-2025/lab01/task2/RockPapirScissors.sol:RockPaperScissors",
						"label": "move1",
						"offset": 0,
						"slot": "6",
						"type": "t_string_storage"
					},
					{
						"astId": 40,
						"contract": "prog2005-2025/lab01/task2/RockPapirScissors.sol:RockPaperScissors",
						"label": "move2",
						"offset": 0,
						"slot": "7",
						"type": "t_string_storage"
					},
					{
						"astId": 42,
						"contract": "prog2005-2025/lab01/task2/RockPapirScissors.sol:RockPaperScissors",
						"label": "gameStartTime",
						"offset": 0,
						"slot": "8",
						"type": "t_uint256"
					},
					{
						"astId": 44,
						"contract": "prog2005-2025/lab01/task2/RockPapirScissors.sol:RockPaperScissors",
						"label": "gameCompleted",
						"offset": 0,
						"slot": "9",
						"type": "t_bool"
					},
					{
						"astId": 46,
						"contract": "prog2005-2025/lab01/task2/RockPapirScissors.sol:RockPaperScissors",
						"label": "winner",
						"offset": 1,
						"slot": "9",
						"type": "t_address"
					},
					{
						"astId": 48,
						"contract": "prog2005-2025/lab01/task2/RockPapirScissors.sol:RockPaperScissors",
						"label": "tie",
						"offset": 21,
						"slot": "9",
						"type": "t_bool"
					},
					{
						"astId": 52,
						"contract": "prog2005-2025/lab01/task2/RockPapirScissors.sol:RockPaperScissors",
						"label": "pendingWithdrawals",
						"offset": 0,
						"slot": "10",
						"type": "t_mapping(t_address,t_uint256)"
					}
				],
				"types": {
					"t_address": {
						"encoding": "inplace",
						"label": "address",
						"numberOfBytes": "20"
					},
					"t_bool": {
						"encoding": "inplace",
						"label": "bool",
						"numberOfBytes": "1"
					},
					"t_bytes32": {
						"encoding": "inplace",
						"label": "bytes32",
						"numberOfBytes": "32"
					},
					"t_mapping(t_address,t_uint256)": {
						"encoding": "mapping",
						"key": "t_address",
						"label": "mapping(address => uint256)",
						"numberOfBytes": "32",
						"value": "t_uint256"
					},
					"t_string_storage": {
						"encoding": "bytes",
						"label": "string",
						"numberOfBytes": "32"
					},
					"t_uint256": {
						"encoding": "inplace",
						"label": "uint256",
						"numberOfBytes": "32"
					}
				}
			},
			"userdoc": {
				"kind": "user",
				"methods": {},
				"version": 1
			}
		}
	}
}