{
	"data": {
		"bytecode": {
			"linkReferences": {},
			"object": "6080604052348015600e575f80fd5b506103eb8061001c5f395ff3fe608060405234801561000f575f80fd5b5060043610610029575f3560e01c8063c3a9b1c51461002d575b5f80fd5b610047600480360381019061004291906101f4565b610049565b005b5f8160405160200161005b9190610321565b60405160208183030381529060405290507ffa051318aca3e493e16e6cf4bccc017c7e061924a42ef27b3bb373c4707b636a8160405161009b9190610395565b60405180910390a15050565b5f604051905090565b5f80fd5b5f80fd5b5f80fd5b5f80fd5b5f601f19601f8301169050919050565b7f4e487b71000000000000000000000000000000000000000000000000000000005f52604160045260245ffd5b610106826100c0565b810181811067ffffffffffffffff82111715610125576101246100d0565b5b80604052505050565b5f6101376100a7565b905061014382826100fd565b919050565b5f67ffffffffffffffff821115610162576101616100d0565b5b61016b826100c0565b9050602081019050919050565b828183375f83830152505050565b5f61019861019384610148565b61012e565b9050828152602081018484840111156101b4576101b36100bc565b5b6101bf848285610178565b509392505050565b5f82601f8301126101db576101da6100b8565b5b81356101eb848260208601610186565b91505092915050565b5f60208284031215610209576102086100b0565b5b5f82013567ffffffffffffffff811115610226576102256100b4565b5b610232848285016101c7565b91505092915050565b5f81905092915050565b7f48656c6c6f2c20000000000000000000000000000000000000000000000000005f82015250565b5f61027960078361023b565b915061028482610245565b600782019050919050565b5f81519050919050565b8281835e5f83830152505050565b5f6102b18261028f565b6102bb818561023b565b93506102cb818560208601610299565b80840191505092915050565b7f21000000000000000000000000000000000000000000000000000000000000005f82015250565b5f61030b60018361023b565b9150610316826102d7565b600182019050919050565b5f61032b8261026d565b915061033782846102a7565b9150610342826102ff565b915081905092915050565b5f82825260208201905092915050565b5f6103678261028f565b610371818561034d565b9350610381818560208601610299565b61038a816100c0565b840191505092915050565b5f6020820190508181035f8301526103ad818461035d565b90509291505056fea26469706673582212201d08d846dc5212ade556d1a7b09a9c7ce23ef18875ab5698e03f13e786082d5b64736f6c634300081a0033",
			"opcodes": "PUSH1 0x80 PUSH1 0x40 MSTORE CALLVALUE DUP1 ISZERO PUSH1 0xE JUMPI PUSH0 DUP1 REVERT JUMPDEST POP PUSH2 0x3EB DUP1 PUSH2 0x1C PUSH0 CODECOPY PUSH0 RETURN INVALID PUSH1 0x80 PUSH1 0x40 MSTORE CALLVALUE DUP1 ISZERO PUSH2 0xF JUMPI PUSH0 DUP1 REVERT JUMPDEST POP PUSH1 0x4 CALLDATASIZE LT PUSH2 0x29 JUMPI PUSH0 CALLDATALOAD PUSH1 0xE0 SHR DUP1 PUSH4 0xC3A9B1C5 EQ PUSH2 0x2D JUMPI JUMPDEST PUSH0 DUP1 REVERT JUMPDEST PUSH2 0x47 PUSH1 0x4 DUP1 CALLDATASIZE SUB DUP2 ADD SWAP1 PUSH2 0x42 SWAP2 SWAP1 PUSH2 0x1F4 JUMP JUMPDEST PUSH2 0x49 JUMP JUMPDEST STOP JUMPDEST PUSH0 DUP2 PUSH1 0x40 MLOAD PUSH1 0x20 ADD PUSH2 0x5B SWAP2 SWAP1 PUSH2 0x321 JUMP JUMPDEST PUSH1 0x40 MLOAD PUSH1 0x20 DUP2 DUP4 SUB SUB DUP2 MSTORE SWAP1 PUSH1 0x40 MSTORE SWAP1 POP PUSH32 0xFA051318ACA3E493E16E6CF4BCCC017C7E061924A42EF27B3BB373C4707B636A DUP2 PUSH1 0x40 MLOAD PUSH2 0x9B SWAP2 SWAP1 PUSH2 0x395 JUMP JUMPDEST PUSH1 0x40 MLOAD DUP1 SWAP2 SUB SWAP1 LOG1 POP POP JUMP JUMPDEST PUSH0 PUSH1 0x40 MLOAD SWAP1 POP SWAP1 JUMP JUMPDEST PUSH0 DUP1 REVERT JUMPDEST PUSH0 DUP1 REVERT JUMPDEST PUSH0 DUP1 REVERT JUMPDEST PUSH0 DUP1 REVERT JUMPDEST PUSH0 PUSH1 0x1F NOT PUSH1 0x1F DUP4 ADD AND SWAP1 POP SWAP2 SWAP1 POP JUMP JUMPDEST PUSH32 0x4E487B7100000000000000000000000000000000000000000000000000000000 PUSH0 MSTORE PUSH1 0x41 PUSH1 0x4 MSTORE PUSH1 0x24 PUSH0 REVERT JUMPDEST PUSH2 0x106 DUP3 PUSH2 0xC0 JUMP JUMPDEST DUP2 ADD DUP2 DUP2 LT PUSH8 0xFFFFFFFFFFFFFFFF DUP3 GT OR ISZERO PUSH2 0x125 JUMPI PUSH2 0x124 PUSH2 0xD0 JUMP JUMPDEST JUMPDEST DUP1 PUSH1 0x40 MSTORE POP POP POP JUMP JUMPDEST PUSH0 PUSH2 0x137 PUSH2 0xA7 JUMP JUMPDEST SWAP1 POP PUSH2 0x143 DUP3 DUP3 PUSH2 0xFD JUMP JUMPDEST SWAP2 SWAP1 POP JUMP JUMPDEST PUSH0 PUSH8 0xFFFFFFFFFFFFFFFF DUP3 GT ISZERO PUSH2 0x162 JUMPI PUSH2 0x161 PUSH2 0xD0 JUMP JUMPDEST JUMPDEST PUSH2 0x16B DUP3 PUSH2 0xC0 JUMP JUMPDEST SWAP1 POP PUSH1 0x20 DUP2 ADD SWAP1 POP SWAP2 SWAP1 POP JUMP JUMPDEST DUP3 DUP2 DUP4 CALLDATACOPY PUSH0 DUP4 DUP4 ADD MSTORE POP POP POP JUMP JUMPDEST PUSH0 PUSH2 0x198 PUSH2 0x193 DUP5 PUSH2 0x148 JUMP JUMPDEST PUSH2 0x12E JUMP JUMPDEST SWAP1 POP DUP3 DUP2 MSTORE PUSH1 0x20 DUP2 ADD DUP5 DUP5 DUP5 ADD GT ISZERO PUSH2 0x1B4 JUMPI PUSH2 0x1B3 PUSH2 0xBC JUMP JUMPDEST JUMPDEST PUSH2 0x1BF DUP5 DUP3 DUP6 PUSH2 0x178 JUMP JUMPDEST POP SWAP4 SWAP3 POP POP POP JUMP JUMPDEST PUSH0 DUP3 PUSH1 0x1F DUP4 ADD SLT PUSH2 0x1DB JUMPI PUSH2 0x1DA PUSH2 0xB8 JUMP JUMPDEST JUMPDEST DUP2 CALLDATALOAD PUSH2 0x1EB DUP5 DUP3 PUSH1 0x20 DUP7 ADD PUSH2 0x186 JUMP JUMPDEST SWAP2 POP POP SWAP3 SWAP2 POP POP JUMP JUMPDEST PUSH0 PUSH1 0x20 DUP3 DUP5 SUB SLT ISZERO PUSH2 0x209 JUMPI PUSH2 0x208 PUSH2 0xB0 JUMP JUMPDEST JUMPDEST PUSH0 DUP3 ADD CALLDATALOAD PUSH8 0xFFFFFFFFFFFFFFFF DUP2 GT ISZERO PUSH2 0x226 JUMPI PUSH2 0x225 PUSH2 0xB4 JUMP JUMPDEST JUMPDEST PUSH2 0x232 DUP5 DUP3 DUP6 ADD PUSH2 0x1C7 JUMP JUMPDEST SWAP2 POP POP SWAP3 SWAP2 POP POP JUMP JUMPDEST PUSH0 DUP2 SWAP1 POP SWAP3 SWAP2 POP POP JUMP JUMPDEST PUSH32 0x48656C6C6F2C2000000000000000000000000000000000000000000000000000 PUSH0 DUP3 ADD MSTORE POP JUMP JUMPDEST PUSH0 PUSH2 0x279 PUSH1 0x7 DUP4 PUSH2 0x23B JUMP JUMPDEST SWAP2 POP PUSH2 0x284 DUP3 PUSH2 0x245 JUMP JUMPDEST PUSH1 0x7 DUP3 ADD SWAP1 POP SWAP2 SWAP1 POP JUMP JUMPDEST PUSH0 DUP2 MLOAD SWAP1 POP SWAP2 SWAP1 POP JUMP JUMPDEST DUP3 DUP2 DUP4 MCOPY PUSH0 DUP4 DUP4 ADD MSTORE POP POP POP JUMP JUMPDEST PUSH0 PUSH2 0x2B1 DUP3 PUSH2 0x28F JUMP JUMPDEST PUSH2 0x2BB DUP2 DUP6 PUSH2 0x23B JUMP JUMPDEST SWAP4 POP PUSH2 0x2CB DUP2 DUP6 PUSH1 0x20 DUP7 ADD PUSH2 0x299 JUMP JUMPDEST DUP1 DUP5 ADD SWAP2 POP POP SWAP3 SWAP2 POP POP JUMP JUMPDEST PUSH32 0x2100000000000000000000000000000000000000000000000000000000000000 PUSH0 DUP3 ADD MSTORE POP JUMP JUMPDEST PUSH0 PUSH2 0x30B PUSH1 0x1 DUP4 PUSH2 0x23B JUMP JUMPDEST SWAP2 POP PUSH2 0x316 DUP3 PUSH2 0x2D7 JUMP JUMPDEST PUSH1 0x1 DUP3 ADD SWAP1 POP SWAP2 SWAP1 POP JUMP JUMPDEST PUSH0 PUSH2 0x32B DUP3 PUSH2 0x26D JUMP JUMPDEST SWAP2 POP PUSH2 0x337 DUP3 DUP5 PUSH2 0x2A7 JUMP JUMPDEST SWAP2 POP PUSH2 0x342 DUP3 PUSH2 0x2FF JUMP JUMPDEST SWAP2 POP DUP2 SWAP1 POP SWAP3 SWAP2 POP POP JUMP JUMPDEST PUSH0 DUP3 DUP3 MSTORE PUSH1 0x20 DUP3 ADD SWAP1 POP SWAP3 SWAP2 POP POP JUMP JUMPDEST PUSH0 PUSH2 0x367 DUP3 PUSH2 0x28F JUMP JUMPDEST PUSH2 0x371 DUP2 DUP6 PUSH2 0x34D JUMP JUMPDEST SWAP4 POP PUSH2 0x381 DUP2 DUP6 PUSH1 0x20 DUP7 ADD PUSH2 0x299 JUMP JUMPDEST PUSH2 0x38A DUP2 PUSH2 0xC0 JUMP JUMPDEST DUP5 ADD SWAP2 POP POP SWAP3 SWAP2 POP POP JUMP JUMPDEST PUSH0 PUSH1 0x20 DUP3 ADD SWAP1 POP DUP2 DUP2 SUB PUSH0 DUP4 ADD MSTORE PUSH2 0x3AD DUP2 DUP5 PUSH2 0x35D JUMP JUMPDEST SWAP1 POP SWAP3 SWAP2 POP POP JUMP INVALID LOG2 PUSH5 0x6970667358 0x22 SLT KECCAK256 SAR ADDMOD 0xD8 CHAINID 0xDC MSTORE SLT 0xAD 0xE5 JUMP 0xD1 0xA7 0xB0 SWAP11 SWAP13 PUSH29 0xE23EF18875AB5698E03F13E786082D5B64736F6C634300081A00330000 "
		},
		"gasEstimates": {
			"creation": {
				"codeDepositCost": "200600",
				"executionCost": "243",
				"totalCost": "200843"
			},
			"external": {
				"sayHello(string)": "infinite"
			}
		},
		"methodIdentifiers": {
			"sayHello(string)": "c3a9b1c5"
		}
	},
	"abi": [
		{
			"anonymous": false,
			"inputs": [
				{
					"indexed": false,
					"internalType": "string",
					"name": "message",
					"type": "string"
				}
			],
			"name": "HelloEvent",
			"type": "event"
		},
		{
			"inputs": [
				{
					"internalType": "string",
					"name": "_name",
					"type": "string"
				}
			],
			"name": "sayHello",
			"outputs": [],
			"stateMutability": "nonpayable",
			"type": "function"
		}
	]
}